{
	"pTOKEN2.sol": {
		"pTOKEN": {
			"abi": [
				{
					"inputs": [
						{
							"internalType": "address",
							"name": "_feeAddress",
							"type": "address"
						},
						{
							"internalType": "address",
							"name": "_backing",
							"type": "address"
						}
					],
					"stateMutability": "nonpayable",
					"type": "constructor"
				},
				{
					"inputs": [
						{
							"internalType": "address",
							"name": "target",
							"type": "address"
						}
					],
					"name": "AddressEmptyCode",
					"type": "error"
				},
				{
					"inputs": [
						{
							"internalType": "address",
							"name": "account",
							"type": "address"
						}
					],
					"name": "AddressInsufficientBalance",
					"type": "error"
				},
				{
					"inputs": [
						{
							"internalType": "address",
							"name": "spender",
							"type": "address"
						},
						{
							"internalType": "uint256",
							"name": "allowance",
							"type": "uint256"
						},
						{
							"internalType": "uint256",
							"name": "needed",
							"type": "uint256"
						}
					],
					"name": "ERC20InsufficientAllowance",
					"type": "error"
				},
				{
					"inputs": [
						{
							"internalType": "address",
							"name": "sender",
							"type": "address"
						},
						{
							"internalType": "uint256",
							"name": "balance",
							"type": "uint256"
						},
						{
							"internalType": "uint256",
							"name": "needed",
							"type": "uint256"
						}
					],
					"name": "ERC20InsufficientBalance",
					"type": "error"
				},
				{
					"inputs": [
						{
							"internalType": "address",
							"name": "approver",
							"type": "address"
						}
					],
					"name": "ERC20InvalidApprover",
					"type": "error"
				},
				{
					"inputs": [
						{
							"internalType": "address",
							"name": "receiver",
							"type": "address"
						}
					],
					"name": "ERC20InvalidReceiver",
					"type": "error"
				},
				{
					"inputs": [
						{
							"internalType": "address",
							"name": "sender",
							"type": "address"
						}
					],
					"name": "ERC20InvalidSender",
					"type": "error"
				},
				{
					"inputs": [
						{
							"internalType": "address",
							"name": "spender",
							"type": "address"
						}
					],
					"name": "ERC20InvalidSpender",
					"type": "error"
				},
				{
					"inputs": [],
					"name": "FailedInnerCall",
					"type": "error"
				},
				{
					"inputs": [],
					"name": "MintAndRedeemFeeNotInRange",
					"type": "error"
				},
				{
					"inputs": [],
					"name": "MustTradeOverMin",
					"type": "error"
				},
				{
					"inputs": [
						{
							"internalType": "address",
							"name": "owner",
							"type": "address"
						}
					],
					"name": "OwnableInvalidOwner",
					"type": "error"
				},
				{
					"inputs": [
						{
							"internalType": "address",
							"name": "account",
							"type": "address"
						}
					],
					"name": "OwnableUnauthorizedAccount",
					"type": "error"
				},
				{
					"inputs": [],
					"name": "ReentrancyGuardReentrantCall",
					"type": "error"
				},
				{
					"inputs": [
						{
							"internalType": "address",
							"name": "token",
							"type": "address"
						}
					],
					"name": "SafeERC20FailedOperation",
					"type": "error"
				},
				{
					"inputs": [],
					"name": "TeamFeeNotInRange",
					"type": "error"
				},
				{
					"inputs": [],
					"name": "ZeroAddressNotAllowed",
					"type": "error"
				},
				{
					"anonymous": false,
					"inputs": [
						{
							"indexed": true,
							"internalType": "address",
							"name": "owner",
							"type": "address"
						},
						{
							"indexed": true,
							"internalType": "address",
							"name": "spender",
							"type": "address"
						},
						{
							"indexed": false,
							"internalType": "uint256",
							"name": "value",
							"type": "uint256"
						}
					],
					"name": "Approval",
					"type": "event"
				},
				{
					"anonymous": false,
					"inputs": [
						{
							"indexed": true,
							"internalType": "address",
							"name": "newFeeAddress",
							"type": "address"
						}
					],
					"name": "FeeAddressUpdated",
					"type": "event"
				},
				{
					"anonymous": false,
					"inputs": [
						{
							"indexed": false,
							"internalType": "uint256",
							"name": "MINT_AND_REDEEM_FEE",
							"type": "uint256"
						}
					],
					"name": "MintAndRedeemFeeUpdated",
					"type": "event"
				},
				{
					"anonymous": false,
					"inputs": [
						{
							"indexed": true,
							"internalType": "address",
							"name": "previousOwner",
							"type": "address"
						},
						{
							"indexed": true,
							"internalType": "address",
							"name": "newOwner",
							"type": "address"
						}
					],
					"name": "OwnershipTransferred",
					"type": "event"
				},
				{
					"anonymous": false,
					"inputs": [
						{
							"indexed": true,
							"internalType": "uint256",
							"name": "time",
							"type": "uint256"
						},
						{
							"indexed": true,
							"internalType": "uint256",
							"name": "recieved",
							"type": "uint256"
						},
						{
							"indexed": true,
							"internalType": "uint256",
							"name": "sent",
							"type": "uint256"
						}
					],
					"name": "PriceAfterMint",
					"type": "event"
				},
				{
					"anonymous": false,
					"inputs": [
						{
							"indexed": true,
							"internalType": "uint256",
							"name": "time",
							"type": "uint256"
						},
						{
							"indexed": true,
							"internalType": "uint256",
							"name": "recieved",
							"type": "uint256"
						},
						{
							"indexed": true,
							"internalType": "uint256",
							"name": "sent",
							"type": "uint256"
						}
					],
					"name": "PriceAfterRedeem",
					"type": "event"
				},
				{
					"anonymous": false,
					"inputs": [
						{
							"indexed": false,
							"internalType": "uint256",
							"name": "FEES",
							"type": "uint256"
						}
					],
					"name": "TeamFeeUpdated",
					"type": "event"
				},
				{
					"anonymous": false,
					"inputs": [
						{
							"indexed": true,
							"internalType": "uint256",
							"name": "totalBackingEmergencyFixed",
							"type": "uint256"
						}
					],
					"name": "TotalBackingFixed",
					"type": "event"
				},
				{
					"anonymous": false,
					"inputs": [
						{
							"indexed": true,
							"internalType": "address",
							"name": "from",
							"type": "address"
						},
						{
							"indexed": true,
							"internalType": "address",
							"name": "to",
							"type": "address"
						},
						{
							"indexed": false,
							"internalType": "uint256",
							"name": "value",
							"type": "uint256"
						}
					],
					"name": "Transfer",
					"type": "event"
				},
				{
					"inputs": [],
					"name": "FEES",
					"outputs": [
						{
							"internalType": "uint256",
							"name": "",
							"type": "uint256"
						}
					],
					"stateMutability": "view",
					"type": "function"
				},
				{
					"inputs": [],
					"name": "MINT_AND_REDEEM_FEE",
					"outputs": [
						{
							"internalType": "uint256",
							"name": "",
							"type": "uint256"
						}
					],
					"stateMutability": "view",
					"type": "function"
				},
				{
					"inputs": [],
					"name": "_BACKING",
					"outputs": [
						{
							"internalType": "contract IERC20",
							"name": "",
							"type": "address"
						}
					],
					"stateMutability": "view",
					"type": "function"
				},
				{
					"inputs": [
						{
							"internalType": "address",
							"name": "owner",
							"type": "address"
						},
						{
							"internalType": "address",
							"name": "spender",
							"type": "address"
						}
					],
					"name": "allowance",
					"outputs": [
						{
							"internalType": "uint256",
							"name": "",
							"type": "uint256"
						}
					],
					"stateMutability": "view",
					"type": "function"
				},
				{
					"inputs": [
						{
							"internalType": "address",
							"name": "spender",
							"type": "address"
						},
						{
							"internalType": "uint256",
							"name": "value",
							"type": "uint256"
						}
					],
					"name": "approve",
					"outputs": [
						{
							"internalType": "bool",
							"name": "",
							"type": "bool"
						}
					],
					"stateMutability": "nonpayable",
					"type": "function"
				},
				{
					"inputs": [
						{
							"internalType": "address",
							"name": "account",
							"type": "address"
						}
					],
					"name": "balanceOf",
					"outputs": [
						{
							"internalType": "uint256",
							"name": "",
							"type": "uint256"
						}
					],
					"stateMutability": "view",
					"type": "function"
				},
				{
					"inputs": [
						{
							"internalType": "uint256",
							"name": "value",
							"type": "uint256"
						}
					],
					"name": "burn",
					"outputs": [],
					"stateMutability": "nonpayable",
					"type": "function"
				},
				{
					"inputs": [
						{
							"internalType": "address",
							"name": "account",
							"type": "address"
						},
						{
							"internalType": "uint256",
							"name": "value",
							"type": "uint256"
						}
					],
					"name": "burnFrom",
					"outputs": [],
					"stateMutability": "nonpayable",
					"type": "function"
				},
				{
					"inputs": [],
					"name": "decimals",
					"outputs": [
						{
							"internalType": "uint8",
							"name": "",
							"type": "uint8"
						}
					],
					"stateMutability": "view",
					"type": "function"
				},
				{
					"inputs": [],
					"name": "emergencyFixTotalBacking",
					"outputs": [],
					"stateMutability": "nonpayable",
					"type": "function"
				},
				{
					"inputs": [],
					"name": "feeAddress",
					"outputs": [
						{
							"internalType": "address payable",
							"name": "",
							"type": "address"
						}
					],
					"stateMutability": "view",
					"type": "function"
				},
				{
					"inputs": [
						{
							"internalType": "uint256",
							"name": "_value",
							"type": "uint256"
						}
					],
					"name": "fillContract",
					"outputs": [],
					"stateMutability": "nonpayable",
					"type": "function"
				},
				{
					"inputs": [
						{
							"internalType": "uint256",
							"name": "_amount",
							"type": "uint256"
						}
					],
					"name": "getMintPrice",
					"outputs": [
						{
							"internalType": "uint256",
							"name": "",
							"type": "uint256"
						}
					],
					"stateMutability": "view",
					"type": "function"
				},
				{
					"inputs": [
						{
							"internalType": "uint256",
							"name": "_amount",
							"type": "uint256"
						}
					],
					"name": "getRedeemPrice",
					"outputs": [
						{
							"internalType": "uint256",
							"name": "",
							"type": "uint256"
						}
					],
					"stateMutability": "view",
					"type": "function"
				},
				{
					"inputs": [],
					"name": "getTotalBacking",
					"outputs": [
						{
							"internalType": "uint256",
							"name": "",
							"type": "uint256"
						}
					],
					"stateMutability": "view",
					"type": "function"
				},
				{
					"inputs": [
						{
							"internalType": "address",
							"name": "receiver",
							"type": "address"
						},
						{
							"internalType": "uint256",
							"name": "_amount",
							"type": "uint256"
						}
					],
					"name": "mint",
					"outputs": [],
					"stateMutability": "nonpayable",
					"type": "function"
				},
				{
					"inputs": [],
					"name": "name",
					"outputs": [
						{
							"internalType": "string",
							"name": "",
							"type": "string"
						}
					],
					"stateMutability": "view",
					"type": "function"
				},
				{
					"inputs": [],
					"name": "owner",
					"outputs": [
						{
							"internalType": "address",
							"name": "",
							"type": "address"
						}
					],
					"stateMutability": "view",
					"type": "function"
				},
				{
					"inputs": [
						{
							"internalType": "uint256",
							"name": "_amount",
							"type": "uint256"
						}
					],
					"name": "redeem",
					"outputs": [],
					"stateMutability": "nonpayable",
					"type": "function"
				},
				{
					"inputs": [],
					"name": "renounceOwnership",
					"outputs": [],
					"stateMutability": "nonpayable",
					"type": "function"
				},
				{
					"inputs": [
						{
							"internalType": "address",
							"name": "_address",
							"type": "address"
						}
					],
					"name": "setFeeAddress",
					"outputs": [],
					"stateMutability": "nonpayable",
					"type": "function"
				},
				{
					"inputs": [
						{
							"internalType": "uint16",
							"name": "_amount",
							"type": "uint16"
						}
					],
					"name": "setMintAndRedeemFee",
					"outputs": [],
					"stateMutability": "nonpayable",
					"type": "function"
				},
				{
					"inputs": [],
					"name": "setStart",
					"outputs": [],
					"stateMutability": "nonpayable",
					"type": "function"
				},
				{
					"inputs": [
						{
							"internalType": "uint16",
							"name": "_amount",
							"type": "uint16"
						}
					],
					"name": "setTeamFee",
					"outputs": [],
					"stateMutability": "nonpayable",
					"type": "function"
				},
				{
					"inputs": [],
					"name": "symbol",
					"outputs": [
						{
							"internalType": "string",
							"name": "",
							"type": "string"
						}
					],
					"stateMutability": "view",
					"type": "function"
				},
				{
					"inputs": [],
					"name": "totalBacking",
					"outputs": [
						{
							"internalType": "uint256",
							"name": "",
							"type": "uint256"
						}
					],
					"stateMutability": "view",
					"type": "function"
				},
				{
					"inputs": [],
					"name": "totalSupply",
					"outputs": [
						{
							"internalType": "uint256",
							"name": "",
							"type": "uint256"
						}
					],
					"stateMutability": "view",
					"type": "function"
				},
				{
					"inputs": [
						{
							"internalType": "address",
							"name": "to",
							"type": "address"
						},
						{
							"internalType": "uint256",
							"name": "value",
							"type": "uint256"
						}
					],
					"name": "transfer",
					"outputs": [
						{
							"internalType": "bool",
							"name": "",
							"type": "bool"
						}
					],
					"stateMutability": "nonpayable",
					"type": "function"
				},
				{
					"inputs": [
						{
							"internalType": "address",
							"name": "from",
							"type": "address"
						},
						{
							"internalType": "address",
							"name": "to",
							"type": "address"
						},
						{
							"internalType": "uint256",
							"name": "value",
							"type": "uint256"
						}
					],
					"name": "transferFrom",
					"outputs": [
						{
							"internalType": "bool",
							"name": "",
							"type": "bool"
						}
					],
					"stateMutability": "nonpayable",
					"type": "function"
				},
				{
					"inputs": [
						{
							"internalType": "address",
							"name": "newOwner",
							"type": "address"
						}
					],
					"name": "transferOwnership",
					"outputs": [],
					"stateMutability": "nonpayable",
					"type": "function"
				}
			],
			"devdoc": {
				"author": "Michael Damiani",
				"custom:purpose": "The main purpose of pTOKENs is to generate revenue and contribute to bribing economy of ve(3;3) Dexes while being backed",
				"errors": {
					"AddressEmptyCode(address)": [
						{
							"details": "There's no code at `target` (it is not a contract)."
						}
					],
					"AddressInsufficientBalance(address)": [
						{
							"details": "The ETH balance of the account is not enough to perform the operation."
						}
					],
					"ERC20InsufficientAllowance(address,uint256,uint256)": [
						{
							"details": "Indicates a failure with the `spender`s `allowance`. Used in transfers.",
							"params": {
								"allowance": "Amount of tokens a `spender` is allowed to operate with.",
								"needed": "Minimum amount required to perform a transfer.",
								"spender": "Address that may be allowed to operate on tokens without being their owner."
							}
						}
					],
					"ERC20InsufficientBalance(address,uint256,uint256)": [
						{
							"details": "Indicates an error related to the current `balance` of a `sender`. Used in transfers.",
							"params": {
								"balance": "Current balance for the interacting account.",
								"needed": "Minimum amount required to perform a transfer.",
								"sender": "Address whose tokens are being transferred."
							}
						}
					],
					"ERC20InvalidApprover(address)": [
						{
							"details": "Indicates a failure with the `approver` of a token to be approved. Used in approvals.",
							"params": {
								"approver": "Address initiating an approval operation."
							}
						}
					],
					"ERC20InvalidReceiver(address)": [
						{
							"details": "Indicates a failure with the token `receiver`. Used in transfers.",
							"params": {
								"receiver": "Address to which tokens are being transferred."
							}
						}
					],
					"ERC20InvalidSender(address)": [
						{
							"details": "Indicates a failure with the token `sender`. Used in transfers.",
							"params": {
								"sender": "Address whose tokens are being transferred."
							}
						}
					],
					"ERC20InvalidSpender(address)": [
						{
							"details": "Indicates a failure with the `spender` to be approved. Used in approvals.",
							"params": {
								"spender": "Address that may be allowed to operate on tokens without being their owner."
							}
						}
					],
					"FailedInnerCall()": [
						{
							"details": "A call to an address target failed. The target may have reverted."
						}
					],
					"OwnableInvalidOwner(address)": [
						{
							"details": "The owner is not a valid owner account. (eg. `address(0)`)"
						}
					],
					"OwnableUnauthorizedAccount(address)": [
						{
							"details": "The caller account is not authorized to perform an operation."
						}
					],
					"ReentrancyGuardReentrantCall()": [
						{
							"details": "Unauthorized reentrant call."
						}
					],
					"SafeERC20FailedOperation(address)": [
						{
							"details": "An operation with an ERC20 token failed."
						}
					],
					"ZeroAddressNotAllowed()": [
						{
							"custom:section": "** ERRORS **"
						}
					]
				},
				"events": {
					"Approval(address,address,uint256)": {
						"details": "Emitted when the allowance of a `spender` for an `owner` is set by a call to {approve}. `value` is the new allowance."
					},
					"PriceAfterMint(uint256,uint256,uint256)": {
						"custom:section": "** EVENTS **"
					},
					"Transfer(address,address,uint256)": {
						"details": "Emitted when `value` tokens are moved from one account (`from`) to another (`to`). Note that `value` may be zero."
					}
				},
				"kind": "dev",
				"methods": {
					"allowance(address,address)": {
						"details": "See {IERC20-allowance}."
					},
					"approve(address,uint256)": {
						"details": "See {IERC20-approve}. NOTE: If `value` is the maximum `uint256`, the allowance is not updated on `transferFrom`. This is semantically equivalent to an infinite approval. Requirements: - `spender` cannot be the zero address."
					},
					"balanceOf(address)": {
						"details": "See {IERC20-balanceOf}."
					},
					"burn(uint256)": {
						"details": "Destroys a `value` amount of tokens from the caller. See {ERC20-_burn}."
					},
					"burnFrom(address,uint256)": {
						"details": "Destroys a `value` amount of tokens from `account`, deducting from the caller's allowance. See {ERC20-_burn} and {ERC20-allowance}. Requirements: - the caller must have allowance for ``accounts``'s tokens of at least `value`."
					},
					"constructor": {
						"custom:section": "** CONSTRUCTOR **"
					},
					"decimals()": {
						"details": "Returns the number of decimals used to get its user representation. For example, if `decimals` equals `2`, a balance of `505` tokens should be displayed to a user as `5.05` (`505 / 10 ** 2`). Tokens usually opt for a value of 18, imitating the relationship between Ether and Wei. This is the default value returned by this function, unless it's overridden. NOTE: This information is only used for _display_ purposes: it in no way affects any of the arithmetic of the contract, including {IERC20-balanceOf} and {IERC20-transfer}."
					},
					"fillContract(uint256)": {
						"params": {
							"_value": ": Fill the contract with the first amount of _BACKING"
						}
					},
					"getMintPrice(uint256)": {
						"params": {
							"_amount": ": is the amount of backing"
						}
					},
					"getRedeemPrice(uint256)": {
						"params": {
							"_amount": ": is the amount of pTOKEN"
						}
					},
					"mint(address,uint256)": {
						"params": {
							"receiver": ": is the address that will receive the pTOKEN minted"
						}
					},
					"name()": {
						"details": "Returns the name of the token."
					},
					"owner()": {
						"details": "Returns the address of the current owner."
					},
					"redeem(uint256)": {
						"params": {
							"_amount": ": is the amount of pTOKEN that the user want to burn in order to redeem the corrisponding amount of Backing"
						}
					},
					"renounceOwnership()": {
						"details": "Leaves the contract without owner. It will not be possible to call `onlyOwner` functions. Can only be called by the current owner. NOTE: Renouncing ownership will leave the contract without an owner, thereby disabling any functionality that is only available to the owner."
					},
					"setFeeAddress(address)": {
						"params": {
							"_address": ": The Address that will receive the Liquidty Incentives and Team Fee"
						}
					},
					"setMintAndRedeemFee(uint16)": {
						"params": {
							"_amount": ": total fee amount, 1000 / _amount / 100 = total fee percentage"
						}
					},
					"setTeamFee(uint16)": {
						"params": {
							"_amount": ": "
						}
					},
					"symbol()": {
						"details": "Returns the symbol of the token, usually a shorter version of the name."
					},
					"totalSupply()": {
						"details": "See {IERC20-totalSupply}."
					},
					"transfer(address,uint256)": {
						"details": "See {IERC20-transfer}. Requirements: - `to` cannot be the zero address. - the caller must have a balance of at least `value`."
					},
					"transferFrom(address,address,uint256)": {
						"details": "See {IERC20-transferFrom}. Emits an {Approval} event indicating the updated allowance. This is not required by the EIP. See the note at the beginning of {ERC20}. NOTE: Does not update the allowance if the current allowance is the maximum `uint256`. Requirements: - `from` and `to` cannot be the zero address. - `from` must have a balance of at least `value`. - the caller must have allowance for ``from``'s tokens of at least `value`."
					},
					"transferOwnership(address)": {
						"details": "Transfers ownership of the contract to a new account (`newOwner`). Can only be called by the current owner."
					}
				},
				"stateVariables": {
					"MINT_AND_REDEEM_FEE": {
						"custom:section": "**  STATE VARIABLES **"
					},
					"_BACKING": {
						"custom:section": "** IMMUTABLES **"
					},
					"_MIN": {
						"custom:section": "** CONSTANTS **"
					}
				},
				"title": "pTOKEN, Yield bearing token backed by ERC20",
				"version": 1
			},
			"evm": {
				"assembly": "    /* \"pTOKEN2.sol\":775:9679  contract pTOKEN is ERC20Burnable, Ownable, ReentrancyGuard {... */\n  mstore(0x40, 0xa0)\n    /* \"pTOKEN2.sol\":1511:1514  967 */\n  0x03c7\n    /* \"pTOKEN2.sol\":1474:1514  uint256 public MINT_AND_REDEEM_FEE = 967 */\n  0x07\n  sstore\n    /* \"pTOKEN2.sol\":1711:1713  35 */\n  0x23\n    /* \"pTOKEN2.sol\":1689:1713  uint256 public FEES = 35 */\n  0x08\n  sstore\n    /* \"pTOKEN2.sol\":2093:2094  1 */\n  0x01\n    /* \"pTOKEN2.sol\":2054:2095  address private initialOwner = address(1) */\n  0x0b\n  exp(0x0100, 0x00)\n  dup2\n  sload\n  dup2\n  0xffffffffffffffffffffffffffffffffffffffff\n  mul\n  not\n  and\n  swap1\n  dup4\n  0xffffffffffffffffffffffffffffffffffffffff\n  and\n  mul\n  or\n  swap1\n  sstore\n  pop\n    /* \"pTOKEN2.sol\":2755:3088  constructor(address _feeAddress, address _backing) ERC20(\"pantheon TOKEN\", \"pTOKEN\") Ownable(initialOwner){... */\n  callvalue\n  dup1\n  iszero\n  tag_1\n  jumpi\n  0x00\n  dup1\n  revert\ntag_1:\n  pop\n  mload(0x40)\n  sub(codesize, bytecodeSize)\n  dup1\n  bytecodeSize\n  dup4\n  codecopy\n  dup2\n  dup2\n  add\n  0x40\n  mstore\n  dup2\n  add\n  swap1\n  tag_2\n  swap2\n  swap1\n  tag_3\n  jump\t// in\ntag_2:\n    /* \"pTOKEN2.sol\":2848:2860  initialOwner */\n  0x0b\n  0x00\n  swap1\n  sload\n  swap1\n  0x0100\n  exp\n  swap1\n  div\n  0xffffffffffffffffffffffffffffffffffffffff\n  and\n    /* \"@openzeppelin/contracts/token/ERC20/ERC20.sol\":1896:2009  constructor(string memory name_, string memory symbol_) {... */\n  mload(0x40)\n  dup1\n  0x40\n  add\n  0x40\n  mstore\n  dup1\n  0x0e\n  dup2\n  mstore\n  0x20\n  add\n  0x70616e7468656f6e20544f4b454e000000000000000000000000000000000000\n  dup2\n  mstore\n  pop\n  mload(0x40)\n  dup1\n  0x40\n  add\n  0x40\n  mstore\n  dup1\n  0x06\n  dup2\n  mstore\n  0x20\n  add\n  0x70544f4b454e0000000000000000000000000000000000000000000000000000\n  dup2\n  mstore\n  pop\n    /* \"@openzeppelin/contracts/token/ERC20/ERC20.sol\":1970:1975  name_ */\n  dup2\n    /* \"@openzeppelin/contracts/token/ERC20/ERC20.sol\":1962:1967  _name */\n  0x03\n    /* \"@openzeppelin/contracts/token/ERC20/ERC20.sol\":1962:1975  _name = name_ */\n  swap1\n  dup2\n  tag_9\n  swap2\n  swap1\n  tag_10\n  jump\t// in\ntag_9:\n  pop\n    /* \"@openzeppelin/contracts/token/ERC20/ERC20.sol\":1995:2002  symbol_ */\n  dup1\n    /* \"@openzeppelin/contracts/token/ERC20/ERC20.sol\":1985:1992  _symbol */\n  0x04\n    /* \"@openzeppelin/contracts/token/ERC20/ERC20.sol\":1985:2002  _symbol = symbol_ */\n  swap1\n  dup2\n  tag_11\n  swap2\n  swap1\n  tag_10\n  jump\t// in\ntag_11:\n  pop\n    /* \"@openzeppelin/contracts/token/ERC20/ERC20.sol\":1896:2009  constructor(string memory name_, string memory symbol_) {... */\n  pop\n  pop\n    /* \"@openzeppelin/contracts/access/Ownable.sol\":1297:1298  0 */\n  0x00\n    /* \"@openzeppelin/contracts/access/Ownable.sol\":1273:1299  initialOwner == address(0) */\n  0xffffffffffffffffffffffffffffffffffffffff\n  and\n    /* \"@openzeppelin/contracts/access/Ownable.sol\":1273:1285  initialOwner */\n  dup2\n    /* \"@openzeppelin/contracts/access/Ownable.sol\":1273:1299  initialOwner == address(0) */\n  0xffffffffffffffffffffffffffffffffffffffff\n  and\n  sub\n    /* \"@openzeppelin/contracts/access/Ownable.sol\":1269:1364  if (initialOwner == address(0)) {... */\n  tag_13\n  jumpi\n    /* \"@openzeppelin/contracts/access/Ownable.sol\":1350:1351  0 */\n  0x00\n    /* \"@openzeppelin/contracts/access/Ownable.sol\":1322:1353  OwnableInvalidOwner(address(0)) */\n  mload(0x40)\n  0x1e4fbdf700000000000000000000000000000000000000000000000000000000\n  dup2\n  mstore\n  0x04\n  add\n  tag_14\n  swap2\n  swap1\n  tag_15\n  jump\t// in\ntag_14:\n  mload(0x40)\n  dup1\n  swap2\n  sub\n  swap1\n  revert\n    /* \"@openzeppelin/contracts/access/Ownable.sol\":1269:1364  if (initialOwner == address(0)) {... */\ntag_13:\n    /* \"@openzeppelin/contracts/access/Ownable.sol\":1373:1405  _transferOwnership(initialOwner) */\n  tag_16\n    /* \"@openzeppelin/contracts/access/Ownable.sol\":1392:1404  initialOwner */\n  dup2\n    /* \"@openzeppelin/contracts/access/Ownable.sol\":1373:1391  _transferOwnership */\n  shl(0x20, tag_17)\n    /* \"@openzeppelin/contracts/access/Ownable.sol\":1373:1405  _transferOwnership(initialOwner) */\n  0x20\n  shr\n  jump\t// in\ntag_16:\n    /* \"@openzeppelin/contracts/access/Ownable.sol\":1225:1412  constructor(address initialOwner) {... */\n  pop\n    /* \"@openzeppelin/contracts/utils/ReentrancyGuard.sol\":1713:1714  1 */\n  0x01\n    /* \"@openzeppelin/contracts/utils/ReentrancyGuard.sol\":1917:1924  _status */\n  0x06\n    /* \"@openzeppelin/contracts/utils/ReentrancyGuard.sol\":1917:1938  _status = NOT_ENTERED */\n  dup2\n  swap1\n  sstore\n  pop\n    /* \"pTOKEN2.sol\":2898:2899  0 */\n  0x00\n    /* \"pTOKEN2.sol\":2875:2900  _feeAddress == address(0) */\n  0xffffffffffffffffffffffffffffffffffffffff\n  and\n    /* \"pTOKEN2.sol\":2875:2886  _feeAddress */\n  dup3\n    /* \"pTOKEN2.sol\":2875:2900  _feeAddress == address(0) */\n  0xffffffffffffffffffffffffffffffffffffffff\n  and\n  sub\n    /* \"pTOKEN2.sol\":2871:2932  if (_feeAddress == address(0)) revert ZeroAddressNotAllowed() */\n  tag_20\n  jumpi\n    /* \"pTOKEN2.sol\":2909:2932  ZeroAddressNotAllowed() */\n  mload(0x40)\n  0x8579befe00000000000000000000000000000000000000000000000000000000\n  dup2\n  mstore\n  0x04\n  add\n  mload(0x40)\n  dup1\n  swap2\n  sub\n  swap1\n  revert\n    /* \"pTOKEN2.sol\":2871:2932  if (_feeAddress == address(0)) revert ZeroAddressNotAllowed() */\ntag_20:\n    /* \"pTOKEN2.sol\":2966:2967  0 */\n  0x00\n    /* \"pTOKEN2.sol\":2946:2968  _backing == address(0) */\n  0xffffffffffffffffffffffffffffffffffffffff\n  and\n    /* \"pTOKEN2.sol\":2946:2954  _backing */\n  dup2\n    /* \"pTOKEN2.sol\":2946:2968  _backing == address(0) */\n  0xffffffffffffffffffffffffffffffffffffffff\n  and\n  sub\n    /* \"pTOKEN2.sol\":2942:3000  if (_backing == address(0)) revert ZeroAddressNotAllowed() */\n  tag_21\n  jumpi\n    /* \"pTOKEN2.sol\":2977:3000  ZeroAddressNotAllowed() */\n  mload(0x40)\n  0x8579befe00000000000000000000000000000000000000000000000000000000\n  dup2\n  mstore\n  0x04\n  add\n  mload(0x40)\n  dup1\n  swap2\n  sub\n  swap1\n  revert\n    /* \"pTOKEN2.sol\":2942:3000  if (_backing == address(0)) revert ZeroAddressNotAllowed() */\ntag_21:\n    /* \"pTOKEN2.sol\":3032:3043  _feeAddress */\n  dup2\n    /* \"pTOKEN2.sol\":3011:3021  feeAddress */\n  0x0a\n  0x00\n    /* \"pTOKEN2.sol\":3011:3044  feeAddress = payable(_feeAddress) */\n  0x0100\n  exp\n  dup2\n  sload\n  dup2\n  0xffffffffffffffffffffffffffffffffffffffff\n  mul\n  not\n  and\n  swap1\n  dup4\n  0xffffffffffffffffffffffffffffffffffffffff\n  and\n  mul\n  or\n  swap1\n  sstore\n  pop\n    /* \"pTOKEN2.sol\":3072:3080  _backing */\n  dup1\n    /* \"pTOKEN2.sol\":3054:3081  _BACKING = IERC20(_backing) */\n  0xffffffffffffffffffffffffffffffffffffffff\n  and\n  0x80\n  dup2\n  0xffffffffffffffffffffffffffffffffffffffff\n  and\n  dup2\n  mstore\n  pop\n  pop\n    /* \"pTOKEN2.sol\":2755:3088  constructor(address _feeAddress, address _backing) ERC20(\"pantheon TOKEN\", \"pTOKEN\") Ownable(initialOwner){... */\n  pop\n  pop\n    /* \"pTOKEN2.sol\":775:9679  contract pTOKEN is ERC20Burnable, Ownable, ReentrancyGuard {... */\n  jump(tag_22)\n    /* \"@openzeppelin/contracts/access/Ownable.sol\":2912:3099  function _transferOwnership(address newOwner) internal virtual {... */\ntag_17:\n    /* \"@openzeppelin/contracts/access/Ownable.sol\":2985:3001  address oldOwner */\n  0x00\n    /* \"@openzeppelin/contracts/access/Ownable.sol\":3004:3010  _owner */\n  0x05\n  0x00\n  swap1\n  sload\n  swap1\n  0x0100\n  exp\n  swap1\n  div\n  0xffffffffffffffffffffffffffffffffffffffff\n  and\n    /* \"@openzeppelin/contracts/access/Ownable.sol\":2985:3010  address oldOwner = _owner */\n  swap1\n  pop\n    /* \"@openzeppelin/contracts/access/Ownable.sol\":3029:3037  newOwner */\n  dup2\n    /* \"@openzeppelin/contracts/access/Ownable.sol\":3020:3026  _owner */\n  0x05\n  0x00\n    /* \"@openzeppelin/contracts/access/Ownable.sol\":3020:3037  _owner = newOwner */\n  0x0100\n  exp\n  dup2\n  sload\n  dup2\n  0xffffffffffffffffffffffffffffffffffffffff\n  mul\n  not\n  and\n  swap1\n  dup4\n  0xffffffffffffffffffffffffffffffffffffffff\n  and\n  mul\n  or\n  swap1\n  sstore\n  pop\n    /* \"@openzeppelin/contracts/access/Ownable.sol\":3083:3091  newOwner */\n  dup2\n    /* \"@openzeppelin/contracts/access/Ownable.sol\":3052:3092  OwnershipTransferred(oldOwner, newOwner) */\n  0xffffffffffffffffffffffffffffffffffffffff\n  and\n    /* \"@openzeppelin/contracts/access/Ownable.sol\":3073:3081  oldOwner */\n  dup2\n    /* \"@openzeppelin/contracts/access/Ownable.sol\":3052:3092  OwnershipTransferred(oldOwner, newOwner) */\n  0xffffffffffffffffffffffffffffffffffffffff\n  and\n  0x8be0079c531659141344cd1fd0a4f28419497f9722a3daafe3b4186f6b6457e0\n  mload(0x40)\n  mload(0x40)\n  dup1\n  swap2\n  sub\n  swap1\n  log3\n    /* \"@openzeppelin/contracts/access/Ownable.sol\":2975:3099  {... */\n  pop\n    /* \"@openzeppelin/contracts/access/Ownable.sol\":2912:3099  function _transferOwnership(address newOwner) internal virtual {... */\n  pop\n  jump\t// out\n    /* \"#utility.yul\":88:205   */\ntag_25:\n    /* \"#utility.yul\":197:198   */\n  0x00\n    /* \"#utility.yul\":194:195   */\n  dup1\n    /* \"#utility.yul\":187:199   */\n  revert\n    /* \"#utility.yul\":334:460   */\ntag_27:\n    /* \"#utility.yul\":371:378   */\n  0x00\n    /* \"#utility.yul\":411:453   */\n  0xffffffffffffffffffffffffffffffffffffffff\n    /* \"#utility.yul\":404:409   */\n  dup3\n    /* \"#utility.yul\":400:454   */\n  and\n    /* \"#utility.yul\":389:454   */\n  swap1\n  pop\n    /* \"#utility.yul\":334:460   */\n  swap2\n  swap1\n  pop\n  jump\t// out\n    /* \"#utility.yul\":466:562   */\ntag_28:\n    /* \"#utility.yul\":503:510   */\n  0x00\n    /* \"#utility.yul\":532:556   */\n  tag_58\n    /* \"#utility.yul\":550:555   */\n  dup3\n    /* \"#utility.yul\":532:556   */\n  tag_27\n  jump\t// in\ntag_58:\n    /* \"#utility.yul\":521:556   */\n  swap1\n  pop\n    /* \"#utility.yul\":466:562   */\n  swap2\n  swap1\n  pop\n  jump\t// out\n    /* \"#utility.yul\":568:690   */\ntag_29:\n    /* \"#utility.yul\":641:665   */\n  tag_60\n    /* \"#utility.yul\":659:664   */\n  dup2\n    /* \"#utility.yul\":641:665   */\n  tag_28\n  jump\t// in\ntag_60:\n    /* \"#utility.yul\":634:639   */\n  dup2\n    /* \"#utility.yul\":631:666   */\n  eq\n    /* \"#utility.yul\":621:684   */\n  tag_61\n  jumpi\n    /* \"#utility.yul\":680:681   */\n  0x00\n    /* \"#utility.yul\":677:678   */\n  dup1\n    /* \"#utility.yul\":670:682   */\n  revert\n    /* \"#utility.yul\":621:684   */\ntag_61:\n    /* \"#utility.yul\":568:690   */\n  pop\n  jump\t// out\n    /* \"#utility.yul\":696:839   */\ntag_30:\n    /* \"#utility.yul\":753:758   */\n  0x00\n    /* \"#utility.yul\":784:790   */\n  dup2\n    /* \"#utility.yul\":778:791   */\n  mload\n    /* \"#utility.yul\":769:791   */\n  swap1\n  pop\n    /* \"#utility.yul\":800:833   */\n  tag_63\n    /* \"#utility.yul\":827:832   */\n  dup2\n    /* \"#utility.yul\":800:833   */\n  tag_29\n  jump\t// in\ntag_63:\n    /* \"#utility.yul\":696:839   */\n  swap3\n  swap2\n  pop\n  pop\n  jump\t// out\n    /* \"#utility.yul\":845:1352   */\ntag_3:\n    /* \"#utility.yul\":924:930   */\n  0x00\n    /* \"#utility.yul\":932:938   */\n  dup1\n    /* \"#utility.yul\":981:983   */\n  0x40\n    /* \"#utility.yul\":969:978   */\n  dup4\n    /* \"#utility.yul\":960:967   */\n  dup6\n    /* \"#utility.yul\":956:979   */\n  sub\n    /* \"#utility.yul\":952:984   */\n  slt\n    /* \"#utility.yul\":949:1068   */\n  iszero\n  tag_65\n  jumpi\n    /* \"#utility.yul\":987:1066   */\n  tag_66\n  tag_25\n  jump\t// in\ntag_66:\n    /* \"#utility.yul\":949:1068   */\ntag_65:\n    /* \"#utility.yul\":1107:1108   */\n  0x00\n    /* \"#utility.yul\":1132:1196   */\n  tag_67\n    /* \"#utility.yul\":1188:1195   */\n  dup6\n    /* \"#utility.yul\":1179:1185   */\n  dup3\n    /* \"#utility.yul\":1168:1177   */\n  dup7\n    /* \"#utility.yul\":1164:1186   */\n  add\n    /* \"#utility.yul\":1132:1196   */\n  tag_30\n  jump\t// in\ntag_67:\n    /* \"#utility.yul\":1122:1196   */\n  swap3\n  pop\n    /* \"#utility.yul\":1078:1206   */\n  pop\n    /* \"#utility.yul\":1245:1247   */\n  0x20\n    /* \"#utility.yul\":1271:1335   */\n  tag_68\n    /* \"#utility.yul\":1327:1334   */\n  dup6\n    /* \"#utility.yul\":1318:1324   */\n  dup3\n    /* \"#utility.yul\":1307:1316   */\n  dup7\n    /* \"#utility.yul\":1303:1325   */\n  add\n    /* \"#utility.yul\":1271:1335   */\n  tag_30\n  jump\t// in\ntag_68:\n    /* \"#utility.yul\":1261:1335   */\n  swap2\n  pop\n    /* \"#utility.yul\":1216:1345   */\n  pop\n    /* \"#utility.yul\":845:1352   */\n  swap3\n  pop\n  swap3\n  swap1\n  pop\n  jump\t// out\n    /* \"#utility.yul\":1358:1457   */\ntag_31:\n    /* \"#utility.yul\":1410:1416   */\n  0x00\n    /* \"#utility.yul\":1444:1449   */\n  dup2\n    /* \"#utility.yul\":1438:1450   */\n  mload\n    /* \"#utility.yul\":1428:1450   */\n  swap1\n  pop\n    /* \"#utility.yul\":1358:1457   */\n  swap2\n  swap1\n  pop\n  jump\t// out\n    /* \"#utility.yul\":1463:1643   */\ntag_32:\n    /* \"#utility.yul\":1511:1588   */\n  0x4e487b7100000000000000000000000000000000000000000000000000000000\n    /* \"#utility.yul\":1508:1509   */\n  0x00\n    /* \"#utility.yul\":1501:1589   */\n  mstore\n    /* \"#utility.yul\":1608:1612   */\n  0x41\n    /* \"#utility.yul\":1605:1606   */\n  0x04\n    /* \"#utility.yul\":1598:1613   */\n  mstore\n    /* \"#utility.yul\":1632:1636   */\n  0x24\n    /* \"#utility.yul\":1629:1630   */\n  0x00\n    /* \"#utility.yul\":1622:1637   */\n  revert\n    /* \"#utility.yul\":1649:1829   */\ntag_33:\n    /* \"#utility.yul\":1697:1774   */\n  0x4e487b7100000000000000000000000000000000000000000000000000000000\n    /* \"#utility.yul\":1694:1695   */\n  0x00\n    /* \"#utility.yul\":1687:1775   */\n  mstore\n    /* \"#utility.yul\":1794:1798   */\n  0x22\n    /* \"#utility.yul\":1791:1792   */\n  0x04\n    /* \"#utility.yul\":1784:1799   */\n  mstore\n    /* \"#utility.yul\":1818:1822   */\n  0x24\n    /* \"#utility.yul\":1815:1816   */\n  0x00\n    /* \"#utility.yul\":1808:1823   */\n  revert\n    /* \"#utility.yul\":1835:2155   */\ntag_34:\n    /* \"#utility.yul\":1879:1885   */\n  0x00\n    /* \"#utility.yul\":1916:1917   */\n  0x02\n    /* \"#utility.yul\":1910:1914   */\n  dup3\n    /* \"#utility.yul\":1906:1918   */\n  div\n    /* \"#utility.yul\":1896:1918   */\n  swap1\n  pop\n    /* \"#utility.yul\":1963:1964   */\n  0x01\n    /* \"#utility.yul\":1957:1961   */\n  dup3\n    /* \"#utility.yul\":1953:1965   */\n  and\n    /* \"#utility.yul\":1984:2002   */\n  dup1\n    /* \"#utility.yul\":1974:2055   */\n  tag_73\n  jumpi\n    /* \"#utility.yul\":2040:2044   */\n  0x7f\n    /* \"#utility.yul\":2032:2038   */\n  dup3\n    /* \"#utility.yul\":2028:2045   */\n  and\n    /* \"#utility.yul\":2018:2045   */\n  swap2\n  pop\n    /* \"#utility.yul\":1974:2055   */\ntag_73:\n    /* \"#utility.yul\":2102:2104   */\n  0x20\n    /* \"#utility.yul\":2094:2100   */\n  dup3\n    /* \"#utility.yul\":2091:2105   */\n  lt\n    /* \"#utility.yul\":2071:2089   */\n  dup2\n    /* \"#utility.yul\":2068:2106   */\n  sub\n    /* \"#utility.yul\":2065:2149   */\n  tag_74\n  jumpi\n    /* \"#utility.yul\":2121:2139   */\n  tag_75\n  tag_33\n  jump\t// in\ntag_75:\n    /* \"#utility.yul\":2065:2149   */\ntag_74:\n    /* \"#utility.yul\":1886:2155   */\n  pop\n    /* \"#utility.yul\":1835:2155   */\n  swap2\n  swap1\n  pop\n  jump\t// out\n    /* \"#utility.yul\":2161:2302   */\ntag_35:\n    /* \"#utility.yul\":2210:2214   */\n  0x00\n    /* \"#utility.yul\":2233:2236   */\n  dup2\n    /* \"#utility.yul\":2225:2236   */\n  swap1\n  pop\n    /* \"#utility.yul\":2256:2259   */\n  dup2\n    /* \"#utility.yul\":2253:2254   */\n  0x00\n    /* \"#utility.yul\":2246:2260   */\n  mstore\n    /* \"#utility.yul\":2290:2294   */\n  0x20\n    /* \"#utility.yul\":2287:2288   */\n  0x00\n    /* \"#utility.yul\":2277:2295   */\n  keccak256\n    /* \"#utility.yul\":2269:2295   */\n  swap1\n  pop\n    /* \"#utility.yul\":2161:2302   */\n  swap2\n  swap1\n  pop\n  jump\t// out\n    /* \"#utility.yul\":2308:2401   */\ntag_36:\n    /* \"#utility.yul\":2345:2351   */\n  0x00\n    /* \"#utility.yul\":2392:2394   */\n  0x20\n    /* \"#utility.yul\":2387:2389   */\n  0x1f\n    /* \"#utility.yul\":2380:2385   */\n  dup4\n    /* \"#utility.yul\":2376:2390   */\n  add\n    /* \"#utility.yul\":2372:2395   */\n  div\n    /* \"#utility.yul\":2362:2395   */\n  swap1\n  pop\n    /* \"#utility.yul\":2308:2401   */\n  swap2\n  swap1\n  pop\n  jump\t// out\n    /* \"#utility.yul\":2407:2514   */\ntag_37:\n    /* \"#utility.yul\":2451:2459   */\n  0x00\n    /* \"#utility.yul\":2501:2506   */\n  dup3\n    /* \"#utility.yul\":2495:2499   */\n  dup3\n    /* \"#utility.yul\":2491:2507   */\n  shl\n    /* \"#utility.yul\":2470:2507   */\n  swap1\n  pop\n    /* \"#utility.yul\":2407:2514   */\n  swap3\n  swap2\n  pop\n  pop\n  jump\t// out\n    /* \"#utility.yul\":2520:2913   */\ntag_38:\n    /* \"#utility.yul\":2589:2595   */\n  0x00\n    /* \"#utility.yul\":2639:2640   */\n  0x08\n    /* \"#utility.yul\":2627:2637   */\n  dup4\n    /* \"#utility.yul\":2623:2641   */\n  mul\n    /* \"#utility.yul\":2662:2759   */\n  tag_80\n    /* \"#utility.yul\":2692:2758   */\n  0xffffffffffffffffffffffffffffffffffffffffffffffffffffffffffffffff\n    /* \"#utility.yul\":2681:2690   */\n  dup3\n    /* \"#utility.yul\":2662:2759   */\n  tag_37\n  jump\t// in\ntag_80:\n    /* \"#utility.yul\":2780:2819   */\n  tag_81\n    /* \"#utility.yul\":2810:2818   */\n  dup7\n    /* \"#utility.yul\":2799:2808   */\n  dup4\n    /* \"#utility.yul\":2780:2819   */\n  tag_37\n  jump\t// in\ntag_81:\n    /* \"#utility.yul\":2768:2819   */\n  swap6\n  pop\n    /* \"#utility.yul\":2852:2856   */\n  dup1\n    /* \"#utility.yul\":2848:2857   */\n  not\n    /* \"#utility.yul\":2841:2846   */\n  dup5\n    /* \"#utility.yul\":2837:2858   */\n  and\n    /* \"#utility.yul\":2828:2858   */\n  swap4\n  pop\n    /* \"#utility.yul\":2901:2905   */\n  dup1\n    /* \"#utility.yul\":2891:2899   */\n  dup7\n    /* \"#utility.yul\":2887:2906   */\n  and\n    /* \"#utility.yul\":2880:2885   */\n  dup5\n    /* \"#utility.yul\":2877:2907   */\n  or\n    /* \"#utility.yul\":2867:2907   */\n  swap3\n  pop\n    /* \"#utility.yul\":2596:2913   */\n  pop\n  pop\n    /* \"#utility.yul\":2520:2913   */\n  swap4\n  swap3\n  pop\n  pop\n  pop\n  jump\t// out\n    /* \"#utility.yul\":2919:2996   */\ntag_39:\n    /* \"#utility.yul\":2956:2963   */\n  0x00\n    /* \"#utility.yul\":2985:2990   */\n  dup2\n    /* \"#utility.yul\":2974:2990   */\n  swap1\n  pop\n    /* \"#utility.yul\":2919:2996   */\n  swap2\n  swap1\n  pop\n  jump\t// out\n    /* \"#utility.yul\":3002:3062   */\ntag_40:\n    /* \"#utility.yul\":3030:3033   */\n  0x00\n    /* \"#utility.yul\":3051:3056   */\n  dup2\n    /* \"#utility.yul\":3044:3056   */\n  swap1\n  pop\n    /* \"#utility.yul\":3002:3062   */\n  swap2\n  swap1\n  pop\n  jump\t// out\n    /* \"#utility.yul\":3068:3210   */\ntag_41:\n    /* \"#utility.yul\":3118:3127   */\n  0x00\n    /* \"#utility.yul\":3151:3204   */\n  tag_85\n    /* \"#utility.yul\":3169:3203   */\n  tag_86\n    /* \"#utility.yul\":3178:3202   */\n  tag_87\n    /* \"#utility.yul\":3196:3201   */\n  dup5\n    /* \"#utility.yul\":3178:3202   */\n  tag_39\n  jump\t// in\ntag_87:\n    /* \"#utility.yul\":3169:3203   */\n  tag_40\n  jump\t// in\ntag_86:\n    /* \"#utility.yul\":3151:3204   */\n  tag_39\n  jump\t// in\ntag_85:\n    /* \"#utility.yul\":3138:3204   */\n  swap1\n  pop\n    /* \"#utility.yul\":3068:3210   */\n  swap2\n  swap1\n  pop\n  jump\t// out\n    /* \"#utility.yul\":3216:3291   */\ntag_42:\n    /* \"#utility.yul\":3259:3262   */\n  0x00\n    /* \"#utility.yul\":3280:3285   */\n  dup2\n    /* \"#utility.yul\":3273:3285   */\n  swap1\n  pop\n    /* \"#utility.yul\":3216:3291   */\n  swap2\n  swap1\n  pop\n  jump\t// out\n    /* \"#utility.yul\":3297:3566   */\ntag_43:\n    /* \"#utility.yul\":3407:3446   */\n  tag_90\n    /* \"#utility.yul\":3438:3445   */\n  dup4\n    /* \"#utility.yul\":3407:3446   */\n  tag_41\n  jump\t// in\ntag_90:\n    /* \"#utility.yul\":3468:3559   */\n  tag_91\n    /* \"#utility.yul\":3517:3558   */\n  tag_92\n    /* \"#utility.yul\":3541:3557   */\n  dup3\n    /* \"#utility.yul\":3517:3558   */\n  tag_42\n  jump\t// in\ntag_92:\n    /* \"#utility.yul\":3509:3515   */\n  dup5\n    /* \"#utility.yul\":3502:3506   */\n  dup5\n    /* \"#utility.yul\":3496:3507   */\n  sload\n    /* \"#utility.yul\":3468:3559   */\n  tag_38\n  jump\t// in\ntag_91:\n    /* \"#utility.yul\":3462:3466   */\n  dup3\n    /* \"#utility.yul\":3455:3560   */\n  sstore\n    /* \"#utility.yul\":3373:3566   */\n  pop\n    /* \"#utility.yul\":3297:3566   */\n  pop\n  pop\n  pop\n  jump\t// out\n    /* \"#utility.yul\":3572:3645   */\ntag_44:\n    /* \"#utility.yul\":3617:3620   */\n  0x00\n    /* \"#utility.yul\":3572:3645   */\n  swap1\n  jump\t// out\n    /* \"#utility.yul\":3651:3840   */\ntag_45:\n    /* \"#utility.yul\":3728:3760   */\n  tag_95\n  tag_44\n  jump\t// in\ntag_95:\n    /* \"#utility.yul\":3769:3834   */\n  tag_96\n    /* \"#utility.yul\":3827:3833   */\n  dup2\n    /* \"#utility.yul\":3819:3825   */\n  dup5\n    /* \"#utility.yul\":3813:3817   */\n  dup5\n    /* \"#utility.yul\":3769:3834   */\n  tag_43\n  jump\t// in\ntag_96:\n    /* \"#utility.yul\":3704:3840   */\n  pop\n    /* \"#utility.yul\":3651:3840   */\n  pop\n  pop\n  jump\t// out\n    /* \"#utility.yul\":3846:4032   */\ntag_46:\n    /* \"#utility.yul\":3906:4026   */\ntag_98:\n    /* \"#utility.yul\":3923:3926   */\n  dup2\n    /* \"#utility.yul\":3916:3921   */\n  dup2\n    /* \"#utility.yul\":3913:3927   */\n  lt\n    /* \"#utility.yul\":3906:4026   */\n  iszero\n  tag_100\n  jumpi\n    /* \"#utility.yul\":3977:4016   */\n  tag_101\n    /* \"#utility.yul\":4014:4015   */\n  0x00\n    /* \"#utility.yul\":4007:4012   */\n  dup3\n    /* \"#utility.yul\":3977:4016   */\n  tag_45\n  jump\t// in\ntag_101:\n    /* \"#utility.yul\":3950:3951   */\n  0x01\n    /* \"#utility.yul\":3943:3948   */\n  dup2\n    /* \"#utility.yul\":3939:3952   */\n  add\n    /* \"#utility.yul\":3930:3952   */\n  swap1\n  pop\n    /* \"#utility.yul\":3906:4026   */\n  jump(tag_98)\ntag_100:\n    /* \"#utility.yul\":3846:4032   */\n  pop\n  pop\n  jump\t// out\n    /* \"#utility.yul\":4038:4581   */\ntag_47:\n    /* \"#utility.yul\":4139:4141   */\n  0x1f\n    /* \"#utility.yul\":4134:4137   */\n  dup3\n    /* \"#utility.yul\":4131:4142   */\n  gt\n    /* \"#utility.yul\":4128:4574   */\n  iszero\n  tag_103\n  jumpi\n    /* \"#utility.yul\":4173:4211   */\n  tag_104\n    /* \"#utility.yul\":4205:4210   */\n  dup2\n    /* \"#utility.yul\":4173:4211   */\n  tag_35\n  jump\t// in\ntag_104:\n    /* \"#utility.yul\":4257:4286   */\n  tag_105\n    /* \"#utility.yul\":4275:4285   */\n  dup5\n    /* \"#utility.yul\":4257:4286   */\n  tag_36\n  jump\t// in\ntag_105:\n    /* \"#utility.yul\":4247:4255   */\n  dup2\n    /* \"#utility.yul\":4243:4287   */\n  add\n    /* \"#utility.yul\":4440:4442   */\n  0x20\n    /* \"#utility.yul\":4428:4438   */\n  dup6\n    /* \"#utility.yul\":4425:4443   */\n  lt\n    /* \"#utility.yul\":4422:4471   */\n  iszero\n  tag_106\n  jumpi\n    /* \"#utility.yul\":4461:4469   */\n  dup2\n    /* \"#utility.yul\":4446:4469   */\n  swap1\n  pop\n    /* \"#utility.yul\":4422:4471   */\ntag_106:\n    /* \"#utility.yul\":4484:4564   */\n  tag_107\n    /* \"#utility.yul\":4540:4562   */\n  tag_108\n    /* \"#utility.yul\":4558:4561   */\n  dup6\n    /* \"#utility.yul\":4540:4562   */\n  tag_36\n  jump\t// in\ntag_108:\n    /* \"#utility.yul\":4530:4538   */\n  dup4\n    /* \"#utility.yul\":4526:4563   */\n  add\n    /* \"#utility.yul\":4513:4524   */\n  dup3\n    /* \"#utility.yul\":4484:4564   */\n  tag_46\n  jump\t// in\ntag_107:\n    /* \"#utility.yul\":4143:4574   */\n  pop\n  pop\n    /* \"#utility.yul\":4128:4574   */\ntag_103:\n    /* \"#utility.yul\":4038:4581   */\n  pop\n  pop\n  pop\n  jump\t// out\n    /* \"#utility.yul\":4587:4704   */\ntag_48:\n    /* \"#utility.yul\":4641:4649   */\n  0x00\n    /* \"#utility.yul\":4691:4696   */\n  dup3\n    /* \"#utility.yul\":4685:4689   */\n  dup3\n    /* \"#utility.yul\":4681:4697   */\n  shr\n    /* \"#utility.yul\":4660:4697   */\n  swap1\n  pop\n    /* \"#utility.yul\":4587:4704   */\n  swap3\n  swap2\n  pop\n  pop\n  jump\t// out\n    /* \"#utility.yul\":4710:4879   */\ntag_49:\n    /* \"#utility.yul\":4754:4760   */\n  0x00\n    /* \"#utility.yul\":4787:4838   */\n  tag_111\n    /* \"#utility.yul\":4835:4836   */\n  0x00\n    /* \"#utility.yul\":4831:4837   */\n  not\n    /* \"#utility.yul\":4823:4828   */\n  dup5\n    /* \"#utility.yul\":4820:4821   */\n  0x08\n    /* \"#utility.yul\":4816:4829   */\n  mul\n    /* \"#utility.yul\":4787:4838   */\n  tag_48\n  jump\t// in\ntag_111:\n    /* \"#utility.yul\":4783:4839   */\n  not\n    /* \"#utility.yul\":4868:4872   */\n  dup1\n    /* \"#utility.yul\":4862:4866   */\n  dup4\n    /* \"#utility.yul\":4858:4873   */\n  and\n    /* \"#utility.yul\":4848:4873   */\n  swap2\n  pop\n    /* \"#utility.yul\":4761:4879   */\n  pop\n    /* \"#utility.yul\":4710:4879   */\n  swap3\n  swap2\n  pop\n  pop\n  jump\t// out\n    /* \"#utility.yul\":4884:5179   */\ntag_50:\n    /* \"#utility.yul\":4960:4964   */\n  0x00\n    /* \"#utility.yul\":5106:5135   */\n  tag_113\n    /* \"#utility.yul\":5131:5134   */\n  dup4\n    /* \"#utility.yul\":5125:5129   */\n  dup4\n    /* \"#utility.yul\":5106:5135   */\n  tag_49\n  jump\t// in\ntag_113:\n    /* \"#utility.yul\":5098:5135   */\n  swap2\n  pop\n    /* \"#utility.yul\":5168:5171   */\n  dup3\n    /* \"#utility.yul\":5165:5166   */\n  0x02\n    /* \"#utility.yul\":5161:5172   */\n  mul\n    /* \"#utility.yul\":5155:5159   */\n  dup3\n    /* \"#utility.yul\":5152:5173   */\n  or\n    /* \"#utility.yul\":5144:5173   */\n  swap1\n  pop\n    /* \"#utility.yul\":4884:5179   */\n  swap3\n  swap2\n  pop\n  pop\n  jump\t// out\n    /* \"#utility.yul\":5184:6579   */\ntag_10:\n    /* \"#utility.yul\":5301:5338   */\n  tag_115\n    /* \"#utility.yul\":5334:5337   */\n  dup3\n    /* \"#utility.yul\":5301:5338   */\n  tag_31\n  jump\t// in\ntag_115:\n    /* \"#utility.yul\":5403:5421   */\n  0xffffffffffffffff\n    /* \"#utility.yul\":5395:5401   */\n  dup2\n    /* \"#utility.yul\":5392:5422   */\n  gt\n    /* \"#utility.yul\":5389:5445   */\n  iszero\n  tag_116\n  jumpi\n    /* \"#utility.yul\":5425:5443   */\n  tag_117\n  tag_32\n  jump\t// in\ntag_117:\n    /* \"#utility.yul\":5389:5445   */\ntag_116:\n    /* \"#utility.yul\":5469:5507   */\n  tag_118\n    /* \"#utility.yul\":5501:5505   */\n  dup3\n    /* \"#utility.yul\":5495:5506   */\n  sload\n    /* \"#utility.yul\":5469:5507   */\n  tag_34\n  jump\t// in\ntag_118:\n    /* \"#utility.yul\":5554:5621   */\n  tag_119\n    /* \"#utility.yul\":5614:5620   */\n  dup3\n    /* \"#utility.yul\":5606:5612   */\n  dup3\n    /* \"#utility.yul\":5600:5604   */\n  dup6\n    /* \"#utility.yul\":5554:5621   */\n  tag_47\n  jump\t// in\ntag_119:\n    /* \"#utility.yul\":5648:5649   */\n  0x00\n    /* \"#utility.yul\":5672:5676   */\n  0x20\n    /* \"#utility.yul\":5659:5676   */\n  swap1\n  pop\n    /* \"#utility.yul\":5704:5706   */\n  0x1f\n    /* \"#utility.yul\":5696:5702   */\n  dup4\n    /* \"#utility.yul\":5693:5707   */\n  gt\n    /* \"#utility.yul\":5721:5722   */\n  0x01\n    /* \"#utility.yul\":5716:6334   */\n  dup2\n  eq\n  tag_121\n  jumpi\n    /* \"#utility.yul\":6378:6379   */\n  0x00\n    /* \"#utility.yul\":6395:6401   */\n  dup5\n    /* \"#utility.yul\":6392:6469   */\n  iszero\n  tag_122\n  jumpi\n    /* \"#utility.yul\":6444:6453   */\n  dup3\n    /* \"#utility.yul\":6439:6442   */\n  dup8\n    /* \"#utility.yul\":6435:6454   */\n  add\n    /* \"#utility.yul\":6429:6455   */\n  mload\n    /* \"#utility.yul\":6420:6455   */\n  swap1\n  pop\n    /* \"#utility.yul\":6392:6469   */\ntag_122:\n    /* \"#utility.yul\":6495:6562   */\n  tag_123\n    /* \"#utility.yul\":6555:6561   */\n  dup6\n    /* \"#utility.yul\":6548:6553   */\n  dup3\n    /* \"#utility.yul\":6495:6562   */\n  tag_50\n  jump\t// in\ntag_123:\n    /* \"#utility.yul\":6489:6493   */\n  dup7\n    /* \"#utility.yul\":6482:6563   */\n  sstore\n    /* \"#utility.yul\":6351:6573   */\n  pop\n    /* \"#utility.yul\":5686:6573   */\n  jump(tag_120)\n    /* \"#utility.yul\":5716:6334   */\ntag_121:\n    /* \"#utility.yul\":5768:5772   */\n  0x1f\n    /* \"#utility.yul\":5764:5773   */\n  not\n    /* \"#utility.yul\":5756:5762   */\n  dup5\n    /* \"#utility.yul\":5752:5774   */\n  and\n    /* \"#utility.yul\":5802:5839   */\n  tag_124\n    /* \"#utility.yul\":5834:5838   */\n  dup7\n    /* \"#utility.yul\":5802:5839   */\n  tag_35\n  jump\t// in\ntag_124:\n    /* \"#utility.yul\":5861:5862   */\n  0x00\n    /* \"#utility.yul\":5875:6083   */\ntag_125:\n    /* \"#utility.yul\":5889:5896   */\n  dup3\n    /* \"#utility.yul\":5886:5887   */\n  dup2\n    /* \"#utility.yul\":5883:5897   */\n  lt\n    /* \"#utility.yul\":5875:6083   */\n  iszero\n  tag_127\n  jumpi\n    /* \"#utility.yul\":5968:5977   */\n  dup5\n    /* \"#utility.yul\":5963:5966   */\n  dup10\n    /* \"#utility.yul\":5959:5978   */\n  add\n    /* \"#utility.yul\":5953:5979   */\n  mload\n    /* \"#utility.yul\":5945:5951   */\n  dup3\n    /* \"#utility.yul\":5938:5980   */\n  sstore\n    /* \"#utility.yul\":6019:6020   */\n  0x01\n    /* \"#utility.yul\":6011:6017   */\n  dup3\n    /* \"#utility.yul\":6007:6021   */\n  add\n    /* \"#utility.yul\":5997:6021   */\n  swap2\n  pop\n    /* \"#utility.yul\":6066:6068   */\n  0x20\n    /* \"#utility.yul\":6055:6064   */\n  dup6\n    /* \"#utility.yul\":6051:6069   */\n  add\n    /* \"#utility.yul\":6038:6069   */\n  swap5\n  pop\n    /* \"#utility.yul\":5912:5916   */\n  0x20\n    /* \"#utility.yul\":5909:5910   */\n  dup2\n    /* \"#utility.yul\":5905:5917   */\n  add\n    /* \"#utility.yul\":5900:5917   */\n  swap1\n  pop\n    /* \"#utility.yul\":5875:6083   */\n  jump(tag_125)\ntag_127:\n    /* \"#utility.yul\":6111:6117   */\n  dup7\n    /* \"#utility.yul\":6102:6109   */\n  dup4\n    /* \"#utility.yul\":6099:6118   */\n  lt\n    /* \"#utility.yul\":6096:6275   */\n  iszero\n  tag_128\n  jumpi\n    /* \"#utility.yul\":6169:6178   */\n  dup5\n    /* \"#utility.yul\":6164:6167   */\n  dup10\n    /* \"#utility.yul\":6160:6179   */\n  add\n    /* \"#utility.yul\":6154:6180   */\n  mload\n    /* \"#utility.yul\":6212:6260   */\n  tag_129\n    /* \"#utility.yul\":6254:6258   */\n  0x1f\n    /* \"#utility.yul\":6246:6252   */\n  dup10\n    /* \"#utility.yul\":6242:6259   */\n  and\n    /* \"#utility.yul\":6231:6240   */\n  dup3\n    /* \"#utility.yul\":6212:6260   */\n  tag_49\n  jump\t// in\ntag_129:\n    /* \"#utility.yul\":6204:6210   */\n  dup4\n    /* \"#utility.yul\":6197:6261   */\n  sstore\n    /* \"#utility.yul\":6119:6275   */\n  pop\n    /* \"#utility.yul\":6096:6275   */\ntag_128:\n    /* \"#utility.yul\":6321:6322   */\n  0x01\n    /* \"#utility.yul\":6317:6318   */\n  0x02\n    /* \"#utility.yul\":6309:6315   */\n  dup9\n    /* \"#utility.yul\":6305:6319   */\n  mul\n    /* \"#utility.yul\":6301:6323   */\n  add\n    /* \"#utility.yul\":6295:6299   */\n  dup9\n    /* \"#utility.yul\":6288:6324   */\n  sstore\n    /* \"#utility.yul\":5723:6334   */\n  pop\n  pop\n  pop\n    /* \"#utility.yul\":5686:6573   */\ntag_120:\n  pop\n    /* \"#utility.yul\":5276:6579   */\n  pop\n  pop\n  pop\n    /* \"#utility.yul\":5184:6579   */\n  pop\n  pop\n  jump\t// out\n    /* \"#utility.yul\":6585:6703   */\ntag_51:\n    /* \"#utility.yul\":6672:6696   */\n  tag_131\n    /* \"#utility.yul\":6690:6695   */\n  dup2\n    /* \"#utility.yul\":6672:6696   */\n  tag_28\n  jump\t// in\ntag_131:\n    /* \"#utility.yul\":6667:6670   */\n  dup3\n    /* \"#utility.yul\":6660:6697   */\n  mstore\n    /* \"#utility.yul\":6585:6703   */\n  pop\n  pop\n  jump\t// out\n    /* \"#utility.yul\":6709:6931   */\ntag_15:\n    /* \"#utility.yul\":6802:6806   */\n  0x00\n    /* \"#utility.yul\":6840:6842   */\n  0x20\n    /* \"#utility.yul\":6829:6838   */\n  dup3\n    /* \"#utility.yul\":6825:6843   */\n  add\n    /* \"#utility.yul\":6817:6843   */\n  swap1\n  pop\n    /* \"#utility.yul\":6853:6924   */\n  tag_133\n    /* \"#utility.yul\":6921:6922   */\n  0x00\n    /* \"#utility.yul\":6910:6919   */\n  dup4\n    /* \"#utility.yul\":6906:6923   */\n  add\n    /* \"#utility.yul\":6897:6903   */\n  dup5\n    /* \"#utility.yul\":6853:6924   */\n  tag_51\n  jump\t// in\ntag_133:\n    /* \"#utility.yul\":6709:6931   */\n  swap3\n  swap2\n  pop\n  pop\n  jump\t// out\n    /* \"pTOKEN2.sol\":775:9679  contract pTOKEN is ERC20Burnable, Ownable, ReentrancyGuard {... */\ntag_22:\n  mload(0x80)\n  codecopy(0x00, dataOffset(sub_0), dataSize(sub_0))\n  0x00\n  assignImmutable(\"0x90a0a53a674dda23f50c6d7df8f61e9f3e3cf11a0ea21d6964915bb3c7f9b219\")\n  return(0x00, dataSize(sub_0))\nstop\n\nsub_0: assembly {\n        /* \"pTOKEN2.sol\":775:9679  contract pTOKEN is ERC20Burnable, Ownable, ReentrancyGuard {... */\n      mstore(0x40, 0x80)\n      callvalue\n      dup1\n      iszero\n      tag_1\n      jumpi\n      0x00\n      dup1\n      revert\n    tag_1:\n      pop\n      jumpi(tag_2, lt(calldatasize, 0x04))\n      shr(0xe0, calldataload(0x00))\n      dup1\n      0x79cc6790\n      gt\n      tag_33\n      jumpi\n      dup1\n      0xa88df21a\n      gt\n      tag_34\n      jumpi\n      dup1\n      0xdd62ed3e\n      gt\n      tag_35\n      jumpi\n      dup1\n      0xdd62ed3e\n      eq\n      tag_29\n      jumpi\n      dup1\n      0xeb2cd258\n      eq\n      tag_30\n      jumpi\n      dup1\n      0xf2fde38b\n      eq\n      tag_31\n      jumpi\n      dup1\n      0xf40fa4bc\n      eq\n      tag_32\n      jumpi\n      jump(tag_2)\n    tag_35:\n      dup1\n      0xa88df21a\n      eq\n      tag_25\n      jumpi\n      dup1\n      0xa9059cbb\n      eq\n      tag_26\n      jumpi\n      dup1\n      0xc38f2bfe\n      eq\n      tag_27\n      jumpi\n      dup1\n      0xdb006a75\n      eq\n      tag_28\n      jumpi\n      jump(tag_2)\n    tag_34:\n      dup1\n      0x8da5cb5b\n      gt\n      tag_36\n      jumpi\n      dup1\n      0x8da5cb5b\n      eq\n      tag_21\n      jumpi\n      dup1\n      0x92054fe7\n      eq\n      tag_22\n      jumpi\n      dup1\n      0x95d89b41\n      eq\n      tag_23\n      jumpi\n      dup1\n      0xa492fbc6\n      eq\n      tag_24\n      jumpi\n      jump(tag_2)\n    tag_36:\n      dup1\n      0x79cc6790\n      eq\n      tag_18\n      jumpi\n      dup1\n      0x8705fcd4\n      eq\n      tag_19\n      jumpi\n      dup1\n      0x8b7b23ee\n      eq\n      tag_20\n      jumpi\n      jump(tag_2)\n    tag_33:\n      dup1\n      0x313ce567\n      gt\n      tag_37\n      jumpi\n      dup1\n      0x42966c68\n      gt\n      tag_38\n      jumpi\n      dup1\n      0x42966c68\n      eq\n      tag_14\n      jumpi\n      dup1\n      0x559e775b\n      eq\n      tag_15\n      jumpi\n      dup1\n      0x70a08231\n      eq\n      tag_16\n      jumpi\n      dup1\n      0x715018a6\n      eq\n      tag_17\n      jumpi\n      jump(tag_2)\n    tag_38:\n      dup1\n      0x313ce567\n      eq\n      tag_10\n      jumpi\n      dup1\n      0x35975a37\n      eq\n      tag_11\n      jumpi\n      dup1\n      0x40c10f19\n      eq\n      tag_12\n      jumpi\n      dup1\n      0x41275358\n      eq\n      tag_13\n      jumpi\n      jump(tag_2)\n    tag_37:\n      dup1\n      0x16f9b467\n      gt\n      tag_39\n      jumpi\n      dup1\n      0x16f9b467\n      eq\n      tag_6\n      jumpi\n      dup1\n      0x18160ddd\n      eq\n      tag_7\n      jumpi\n      dup1\n      0x19f04174\n      eq\n      tag_8\n      jumpi\n      dup1\n      0x23b872dd\n      eq\n      tag_9\n      jumpi\n      jump(tag_2)\n    tag_39:\n      dup1\n      0x029cd242\n      eq\n      tag_3\n      jumpi\n      dup1\n      0x06fdde03\n      eq\n      tag_4\n      jumpi\n      dup1\n      0x095ea7b3\n      eq\n      tag_5\n      jumpi\n    tag_2:\n      0x00\n      dup1\n      revert\n        /* \"pTOKEN2.sol\":1171:1203  IERC20 public immutable _BACKING */\n    tag_3:\n      tag_40\n      tag_41\n      jump\t// in\n    tag_40:\n      mload(0x40)\n      tag_42\n      swap2\n      swap1\n      tag_43\n      jump\t// in\n    tag_42:\n      mload(0x40)\n      dup1\n      swap2\n      sub\n      swap1\n      return\n        /* \"@openzeppelin/contracts/token/ERC20/ERC20.sol\":2074:2163  function name() public view virtual returns (string memory) {... */\n    tag_4:\n      tag_44\n      tag_45\n      jump\t// in\n    tag_44:\n      mload(0x40)\n      tag_46\n      swap2\n      swap1\n      tag_47\n      jump\t// in\n    tag_46:\n      mload(0x40)\n      dup1\n      swap2\n      sub\n      swap1\n      return\n        /* \"@openzeppelin/contracts/token/ERC20/ERC20.sol\":4293:4479  function approve(address spender, uint256 value) public virtual returns (bool) {... */\n    tag_5:\n      tag_48\n      0x04\n      dup1\n      calldatasize\n      sub\n      dup2\n      add\n      swap1\n      tag_49\n      swap2\n      swap1\n      tag_50\n      jump\t// in\n    tag_49:\n      tag_51\n      jump\t// in\n    tag_48:\n      mload(0x40)\n      tag_52\n      swap2\n      swap1\n      tag_53\n      jump\t// in\n    tag_52:\n      mload(0x40)\n      dup1\n      swap2\n      sub\n      swap1\n      return\n        /* \"pTOKEN2.sol\":7023:7199  function emergencyFixTotalBacking() external onlyOwner {... */\n    tag_6:\n      tag_54\n      tag_55\n      jump\t// in\n    tag_54:\n      stop\n        /* \"@openzeppelin/contracts/token/ERC20/ERC20.sol\":3144:3241  function totalSupply() public view virtual returns (uint256) {... */\n    tag_7:\n      tag_56\n      tag_57\n      jump\t// in\n    tag_56:\n      mload(0x40)\n      tag_58\n      swap2\n      swap1\n      tag_59\n      jump\t// in\n    tag_58:\n      mload(0x40)\n      dup1\n      swap2\n      sub\n      swap1\n      return\n        /* \"pTOKEN2.sol\":9582:9677  function getTotalBacking() external view returns (uint256) {... */\n    tag_8:\n      tag_60\n      tag_61\n      jump\t// in\n    tag_60:\n      mload(0x40)\n      tag_62\n      swap2\n      swap1\n      tag_59\n      jump\t// in\n    tag_62:\n      mload(0x40)\n      dup1\n      swap2\n      sub\n      swap1\n      return\n        /* \"@openzeppelin/contracts/token/ERC20/ERC20.sol\":5039:5283  function transferFrom(address from, address to, uint256 value) public virtual returns (bool) {... */\n    tag_9:\n      tag_63\n      0x04\n      dup1\n      calldatasize\n      sub\n      dup2\n      add\n      swap1\n      tag_64\n      swap2\n      swap1\n      tag_65\n      jump\t// in\n    tag_64:\n      tag_66\n      jump\t// in\n    tag_63:\n      mload(0x40)\n      tag_67\n      swap2\n      swap1\n      tag_53\n      jump\t// in\n    tag_67:\n      mload(0x40)\n      dup1\n      swap2\n      sub\n      swap1\n      return\n        /* \"@openzeppelin/contracts/token/ERC20/ERC20.sol\":3002:3084  function decimals() public view virtual returns (uint8) {... */\n    tag_10:\n      tag_68\n      tag_69\n      jump\t// in\n    tag_68:\n      mload(0x40)\n      tag_70\n      swap2\n      swap1\n      tag_71\n      jump\t// in\n    tag_70:\n      mload(0x40)\n      dup1\n      swap2\n      sub\n      swap1\n      return\n        /* \"pTOKEN2.sol\":3743:3815  function setStart() external onlyOwner {    ... */\n    tag_11:\n      tag_72\n      tag_73\n      jump\t// in\n    tag_72:\n      stop\n        /* \"pTOKEN2.sol\":4122:4651  function mint(address receiver, uint256 _amount) external nonReentrant {... */\n    tag_12:\n      tag_74\n      0x04\n      dup1\n      calldatasize\n      sub\n      dup2\n      add\n      swap1\n      tag_75\n      swap2\n      swap1\n      tag_50\n      jump\t// in\n    tag_75:\n      tag_76\n      jump\t// in\n    tag_74:\n      stop\n        /* \"pTOKEN2.sol\":1990:2023  address payable public feeAddress */\n    tag_13:\n      tag_77\n      tag_78\n      jump\t// in\n    tag_77:\n      mload(0x40)\n      tag_79\n      swap2\n      swap1\n      tag_80\n      jump\t// in\n    tag_79:\n      mload(0x40)\n      dup1\n      swap2\n      sub\n      swap1\n      return\n        /* \"@openzeppelin/contracts/token/ERC20/extensions/ERC20Burnable.sol\":618:705  function burn(uint256 value) public virtual {... */\n    tag_14:\n      tag_81\n      0x04\n      dup1\n      calldatasize\n      sub\n      dup2\n      add\n      swap1\n      tag_82\n      swap2\n      swap1\n      tag_83\n      jump\t// in\n    tag_82:\n      tag_84\n      jump\t// in\n    tag_81:\n      stop\n        /* \"pTOKEN2.sol\":8831:9049  function getMintPrice(uint256 _amount) external view returns (uint256) {... */\n    tag_15:\n      tag_85\n      0x04\n      dup1\n      calldatasize\n      sub\n      dup2\n      add\n      swap1\n      tag_86\n      swap2\n      swap1\n      tag_83\n      jump\t// in\n    tag_86:\n      tag_87\n      jump\t// in\n    tag_85:\n      mload(0x40)\n      tag_88\n      swap2\n      swap1\n      tag_59\n      jump\t// in\n    tag_88:\n      mload(0x40)\n      dup1\n      swap2\n      sub\n      swap1\n      return\n        /* \"@openzeppelin/contracts/token/ERC20/ERC20.sol\":3299:3415  function balanceOf(address account) public view virtual returns (uint256) {... */\n    tag_16:\n      tag_89\n      0x04\n      dup1\n      calldatasize\n      sub\n      dup2\n      add\n      swap1\n      tag_90\n      swap2\n      swap1\n      tag_91\n      jump\t// in\n    tag_90:\n      tag_92\n      jump\t// in\n    tag_89:\n      mload(0x40)\n      tag_93\n      swap2\n      swap1\n      tag_59\n      jump\t// in\n    tag_93:\n      mload(0x40)\n      dup1\n      swap2\n      sub\n      swap1\n      return\n        /* \"@openzeppelin/contracts/access/Ownable.sol\":2293:2394  function renounceOwnership() public virtual onlyOwner {... */\n    tag_17:\n      tag_94\n      tag_95\n      jump\t// in\n    tag_94:\n      stop\n        /* \"@openzeppelin/contracts/token/ERC20/extensions/ERC20Burnable.sol\":1021:1179  function burnFrom(address account, uint256 value) public virtual {... */\n    tag_18:\n      tag_96\n      0x04\n      dup1\n      calldatasize\n      sub\n      dup2\n      add\n      swap1\n      tag_97\n      swap2\n      swap1\n      tag_50\n      jump\t// in\n    tag_97:\n      tag_98\n      jump\t// in\n    tag_96:\n      stop\n        /* \"pTOKEN2.sol\":5886:6077  function setFeeAddress(address _address) external onlyOwner {... */\n    tag_19:\n      tag_99\n      0x04\n      dup1\n      calldatasize\n      sub\n      dup2\n      add\n      swap1\n      tag_100\n      swap2\n      swap1\n      tag_91\n      jump\t// in\n    tag_100:\n      tag_101\n      jump\t// in\n    tag_99:\n      stop\n        /* \"pTOKEN2.sol\":1689:1713  uint256 public FEES = 35 */\n    tag_20:\n      tag_102\n      tag_103\n      jump\t// in\n    tag_102:\n      mload(0x40)\n      tag_104\n      swap2\n      swap1\n      tag_59\n      jump\t// in\n    tag_104:\n      mload(0x40)\n      dup1\n      swap2\n      sub\n      swap1\n      return\n        /* \"@openzeppelin/contracts/access/Ownable.sol\":1638:1723  function owner() public view virtual returns (address) {... */\n    tag_21:\n      tag_105\n      tag_106\n      jump\t// in\n    tag_105:\n      mload(0x40)\n      tag_107\n      swap2\n      swap1\n      tag_108\n      jump\t// in\n    tag_107:\n      mload(0x40)\n      dup1\n      swap2\n      sub\n      swap1\n      return\n        /* \"pTOKEN2.sol\":1474:1514  uint256 public MINT_AND_REDEEM_FEE = 967 */\n    tag_22:\n      tag_109\n      tag_110\n      jump\t// in\n    tag_109:\n      mload(0x40)\n      tag_111\n      swap2\n      swap1\n      tag_59\n      jump\t// in\n    tag_111:\n      mload(0x40)\n      dup1\n      swap2\n      sub\n      swap1\n      return\n        /* \"@openzeppelin/contracts/token/ERC20/ERC20.sol\":2276:2369  function symbol() public view virtual returns (string memory) {... */\n    tag_23:\n      tag_112\n      tag_113\n      jump\t// in\n    tag_112:\n      mload(0x40)\n      tag_114\n      swap2\n      swap1\n      tag_47\n      jump\t// in\n    tag_114:\n      mload(0x40)\n      dup1\n      swap2\n      sub\n      swap1\n      return\n        /* \"pTOKEN2.sol\":9230:9450  function getRedeemPrice(uint256 _amount) external view returns (uint256) {... */\n    tag_24:\n      tag_115\n      0x04\n      dup1\n      calldatasize\n      sub\n      dup2\n      add\n      swap1\n      tag_116\n      swap2\n      swap1\n      tag_83\n      jump\t// in\n    tag_116:\n      tag_117\n      jump\t// in\n    tag_115:\n      mload(0x40)\n      tag_118\n      swap2\n      swap1\n      tag_59\n      jump\t// in\n    tag_118:\n      mload(0x40)\n      dup1\n      swap2\n      sub\n      swap1\n      return\n        /* \"pTOKEN2.sol\":3405:3737  function fillContract(uint256 _value) external onlyOwner {... */\n    tag_25:\n      tag_119\n      0x04\n      dup1\n      calldatasize\n      sub\n      dup2\n      add\n      swap1\n      tag_120\n      swap2\n      swap1\n      tag_83\n      jump\t// in\n    tag_120:\n      tag_121\n      jump\t// in\n    tag_119:\n      stop\n        /* \"@openzeppelin/contracts/token/ERC20/ERC20.sol\":3610:3788  function transfer(address to, uint256 value) public virtual returns (bool) {... */\n    tag_26:\n      tag_122\n      0x04\n      dup1\n      calldatasize\n      sub\n      dup2\n      add\n      swap1\n      tag_123\n      swap2\n      swap1\n      tag_50\n      jump\t// in\n    tag_123:\n      tag_124\n      jump\t// in\n    tag_122:\n      mload(0x40)\n      tag_125\n      swap2\n      swap1\n      tag_53\n      jump\t// in\n    tag_125:\n      mload(0x40)\n      dup1\n      swap2\n      sub\n      swap1\n      return\n        /* \"pTOKEN2.sol\":6689:6884  function setTeamFee(uint16 _amount) external onlyOwner {... */\n    tag_27:\n      tag_126\n      0x04\n      dup1\n      calldatasize\n      sub\n      dup2\n      add\n      swap1\n      tag_127\n      swap2\n      swap1\n      tag_128\n      jump\t// in\n    tag_127:\n      tag_129\n      jump\t// in\n    tag_126:\n      stop\n        /* \"pTOKEN2.sol\":5044:5706  function redeem(uint256 _amount) external nonReentrant {... */\n    tag_28:\n      tag_130\n      0x04\n      dup1\n      calldatasize\n      sub\n      dup2\n      add\n      swap1\n      tag_131\n      swap2\n      swap1\n      tag_83\n      jump\t// in\n    tag_131:\n      tag_132\n      jump\t// in\n    tag_130:\n      stop\n        /* \"@openzeppelin/contracts/token/ERC20/ERC20.sol\":3846:3986  function allowance(address owner, address spender) public view virtual returns (uint256) {... */\n    tag_29:\n      tag_133\n      0x04\n      dup1\n      calldatasize\n      sub\n      dup2\n      add\n      swap1\n      tag_134\n      swap2\n      swap1\n      tag_135\n      jump\t// in\n    tag_134:\n      tag_136\n      jump\t// in\n    tag_133:\n      mload(0x40)\n      tag_137\n      swap2\n      swap1\n      tag_59\n      jump\t// in\n    tag_137:\n      mload(0x40)\n      dup1\n      swap2\n      sub\n      swap1\n      return\n        /* \"pTOKEN2.sol\":1957:1984  uint256 public totalBacking */\n    tag_30:\n      tag_138\n      tag_139\n      jump\t// in\n    tag_138:\n      mload(0x40)\n      tag_140\n      swap2\n      swap1\n      tag_59\n      jump\t// in\n    tag_140:\n      mload(0x40)\n      dup1\n      swap2\n      sub\n      swap1\n      return\n        /* \"@openzeppelin/contracts/access/Ownable.sol\":2543:2758  function transferOwnership(address newOwner) public virtual onlyOwner {... */\n    tag_31:\n      tag_141\n      0x04\n      dup1\n      calldatasize\n      sub\n      dup2\n      add\n      swap1\n      tag_142\n      swap2\n      swap1\n      tag_91\n      jump\t// in\n    tag_142:\n      tag_143\n      jump\t// in\n    tag_141:\n      stop\n        /* \"pTOKEN2.sol\":6256:6493  function setMintAndRedeemFee(uint16 _amount) external onlyOwner {... */\n    tag_32:\n      tag_144\n      0x04\n      dup1\n      calldatasize\n      sub\n      dup2\n      add\n      swap1\n      tag_145\n      swap2\n      swap1\n      tag_128\n      jump\t// in\n    tag_145:\n      tag_146\n      jump\t// in\n    tag_144:\n      stop\n        /* \"pTOKEN2.sol\":1171:1203  IERC20 public immutable _BACKING */\n    tag_41:\n      immutable(\"0x90a0a53a674dda23f50c6d7df8f61e9f3e3cf11a0ea21d6964915bb3c7f9b219\")\n      dup2\n      jump\t// out\n        /* \"@openzeppelin/contracts/token/ERC20/ERC20.sol\":2074:2163  function name() public view virtual returns (string memory) {... */\n    tag_45:\n        /* \"@openzeppelin/contracts/token/ERC20/ERC20.sol\":2119:2132  string memory */\n      0x60\n        /* \"@openzeppelin/contracts/token/ERC20/ERC20.sol\":2151:2156  _name */\n      0x03\n        /* \"@openzeppelin/contracts/token/ERC20/ERC20.sol\":2144:2156  return _name */\n      dup1\n      sload\n      tag_148\n      swap1\n      tag_149\n      jump\t// in\n    tag_148:\n      dup1\n      0x1f\n      add\n      0x20\n      dup1\n      swap2\n      div\n      mul\n      0x20\n      add\n      mload(0x40)\n      swap1\n      dup2\n      add\n      0x40\n      mstore\n      dup1\n      swap3\n      swap2\n      swap1\n      dup2\n      dup2\n      mstore\n      0x20\n      add\n      dup3\n      dup1\n      sload\n      tag_150\n      swap1\n      tag_149\n      jump\t// in\n    tag_150:\n      dup1\n      iszero\n      tag_151\n      jumpi\n      dup1\n      0x1f\n      lt\n      tag_152\n      jumpi\n      0x0100\n      dup1\n      dup4\n      sload\n      div\n      mul\n      dup4\n      mstore\n      swap2\n      0x20\n      add\n      swap2\n      jump(tag_151)\n    tag_152:\n      dup3\n      add\n      swap2\n      swap1\n      0x00\n      mstore\n      keccak256(0x00, 0x20)\n      swap1\n    tag_153:\n      dup2\n      sload\n      dup2\n      mstore\n      swap1\n      0x01\n      add\n      swap1\n      0x20\n      add\n      dup1\n      dup4\n      gt\n      tag_153\n      jumpi\n      dup3\n      swap1\n      sub\n      0x1f\n      and\n      dup3\n      add\n      swap2\n    tag_151:\n      pop\n      pop\n      pop\n      pop\n      pop\n      swap1\n      pop\n        /* \"@openzeppelin/contracts/token/ERC20/ERC20.sol\":2074:2163  function name() public view virtual returns (string memory) {... */\n      swap1\n      jump\t// out\n        /* \"@openzeppelin/contracts/token/ERC20/ERC20.sol\":4293:4479  function approve(address spender, uint256 value) public virtual returns (bool) {... */\n    tag_51:\n        /* \"@openzeppelin/contracts/token/ERC20/ERC20.sol\":4366:4370  bool */\n      0x00\n        /* \"@openzeppelin/contracts/token/ERC20/ERC20.sol\":4382:4395  address owner */\n      dup1\n        /* \"@openzeppelin/contracts/token/ERC20/ERC20.sol\":4398:4410  _msgSender() */\n      tag_155\n        /* \"@openzeppelin/contracts/token/ERC20/ERC20.sol\":4398:4408  _msgSender */\n      tag_156\n        /* \"@openzeppelin/contracts/token/ERC20/ERC20.sol\":4398:4410  _msgSender() */\n      jump\t// in\n    tag_155:\n        /* \"@openzeppelin/contracts/token/ERC20/ERC20.sol\":4382:4410  address owner = _msgSender() */\n      swap1\n      pop\n        /* \"@openzeppelin/contracts/token/ERC20/ERC20.sol\":4420:4451  _approve(owner, spender, value) */\n      tag_157\n        /* \"@openzeppelin/contracts/token/ERC20/ERC20.sol\":4429:4434  owner */\n      dup2\n        /* \"@openzeppelin/contracts/token/ERC20/ERC20.sol\":4436:4443  spender */\n      dup6\n        /* \"@openzeppelin/contracts/token/ERC20/ERC20.sol\":4445:4450  value */\n      dup6\n        /* \"@openzeppelin/contracts/token/ERC20/ERC20.sol\":4420:4428  _approve */\n      tag_158\n        /* \"@openzeppelin/contracts/token/ERC20/ERC20.sol\":4420:4451  _approve(owner, spender, value) */\n      jump\t// in\n    tag_157:\n        /* \"@openzeppelin/contracts/token/ERC20/ERC20.sol\":4468:4472  true */\n      0x01\n        /* \"@openzeppelin/contracts/token/ERC20/ERC20.sol\":4461:4472  return true */\n      swap2\n      pop\n      pop\n        /* \"@openzeppelin/contracts/token/ERC20/ERC20.sol\":4293:4479  function approve(address spender, uint256 value) public virtual returns (bool) {... */\n      swap3\n      swap2\n      pop\n      pop\n      jump\t// out\n        /* \"pTOKEN2.sol\":7023:7199  function emergencyFixTotalBacking() external onlyOwner {... */\n    tag_55:\n        /* \"@openzeppelin/contracts/access/Ownable.sol\":1531:1544  _checkOwner() */\n      tag_160\n        /* \"@openzeppelin/contracts/access/Ownable.sol\":1531:1542  _checkOwner */\n      tag_161\n        /* \"@openzeppelin/contracts/access/Ownable.sol\":1531:1544  _checkOwner() */\n      jump\t// in\n    tag_160:\n        /* \"pTOKEN2.sol\":7103:7111  _BACKING */\n      immutable(\"0x90a0a53a674dda23f50c6d7df8f61e9f3e3cf11a0ea21d6964915bb3c7f9b219\")\n        /* \"pTOKEN2.sol\":7103:7121  _BACKING.balanceOf */\n      0xffffffffffffffffffffffffffffffffffffffff\n      and\n      0x70a08231\n        /* \"pTOKEN2.sol\":7130:7134  this */\n      address\n        /* \"pTOKEN2.sol\":7103:7136  _BACKING.balanceOf(address(this)) */\n      mload(0x40)\n      dup3\n      0xffffffff\n      and\n      0xe0\n      shl\n      dup2\n      mstore\n      0x04\n      add\n      tag_163\n      swap2\n      swap1\n      tag_108\n      jump\t// in\n    tag_163:\n      0x20\n      mload(0x40)\n      dup1\n      dup4\n      sub\n      dup2\n      dup7\n      gas\n      staticcall\n      iszero\n      dup1\n      iszero\n      tag_165\n      jumpi\n      returndatasize\n      0x00\n      dup1\n      returndatacopy\n      revert(0x00, returndatasize)\n    tag_165:\n      pop\n      pop\n      pop\n      pop\n      mload(0x40)\n      returndatasize\n      not(0x1f)\n      0x1f\n      dup3\n      add\n      and\n      dup3\n      add\n      dup1\n      0x40\n      mstore\n      pop\n      dup2\n      add\n      swap1\n      tag_166\n      swap2\n      swap1\n      tag_167\n      jump\t// in\n    tag_166:\n        /* \"pTOKEN2.sol\":7088:7100  totalBacking */\n      0x09\n        /* \"pTOKEN2.sol\":7088:7136  totalBacking = _BACKING.balanceOf(address(this)) */\n      dup2\n      swap1\n      sstore\n      pop\n        /* \"pTOKEN2.sol\":7170:7191  address(this).balance */\n      selfbalance\n        /* \"pTOKEN2.sol\":7152:7192  TotalBackingFixed(address(this).balance) */\n      0xa3faf2f1eb729d9e646e40f512a8458c02057ee480d3b576a37e8a8ab30f0555\n      mload(0x40)\n      mload(0x40)\n      dup1\n      swap2\n      sub\n      swap1\n      log2\n        /* \"pTOKEN2.sol\":7023:7199  function emergencyFixTotalBacking() external onlyOwner {... */\n      jump\t// out\n        /* \"@openzeppelin/contracts/token/ERC20/ERC20.sol\":3144:3241  function totalSupply() public view virtual returns (uint256) {... */\n    tag_57:\n        /* \"@openzeppelin/contracts/token/ERC20/ERC20.sol\":3196:3203  uint256 */\n      0x00\n        /* \"@openzeppelin/contracts/token/ERC20/ERC20.sol\":3222:3234  _totalSupply */\n      sload(0x02)\n        /* \"@openzeppelin/contracts/token/ERC20/ERC20.sol\":3215:3234  return _totalSupply */\n      swap1\n      pop\n        /* \"@openzeppelin/contracts/token/ERC20/ERC20.sol\":3144:3241  function totalSupply() public view virtual returns (uint256) {... */\n      swap1\n      jump\t// out\n        /* \"pTOKEN2.sol\":9582:9677  function getTotalBacking() external view returns (uint256) {... */\n    tag_61:\n        /* \"pTOKEN2.sol\":9632:9639  uint256 */\n      0x00\n        /* \"pTOKEN2.sol\":9658:9670  totalBacking */\n      sload(0x09)\n        /* \"pTOKEN2.sol\":9651:9670  return totalBacking */\n      swap1\n      pop\n        /* \"pTOKEN2.sol\":9582:9677  function getTotalBacking() external view returns (uint256) {... */\n      swap1\n      jump\t// out\n        /* \"@openzeppelin/contracts/token/ERC20/ERC20.sol\":5039:5283  function transferFrom(address from, address to, uint256 value) public virtual returns (bool) {... */\n    tag_66:\n        /* \"@openzeppelin/contracts/token/ERC20/ERC20.sol\":5126:5130  bool */\n      0x00\n        /* \"@openzeppelin/contracts/token/ERC20/ERC20.sol\":5142:5157  address spender */\n      dup1\n        /* \"@openzeppelin/contracts/token/ERC20/ERC20.sol\":5160:5172  _msgSender() */\n      tag_171\n        /* \"@openzeppelin/contracts/token/ERC20/ERC20.sol\":5160:5170  _msgSender */\n      tag_156\n        /* \"@openzeppelin/contracts/token/ERC20/ERC20.sol\":5160:5172  _msgSender() */\n      jump\t// in\n    tag_171:\n        /* \"@openzeppelin/contracts/token/ERC20/ERC20.sol\":5142:5172  address spender = _msgSender() */\n      swap1\n      pop\n        /* \"@openzeppelin/contracts/token/ERC20/ERC20.sol\":5182:5219  _spendAllowance(from, spender, value) */\n      tag_172\n        /* \"@openzeppelin/contracts/token/ERC20/ERC20.sol\":5198:5202  from */\n      dup6\n        /* \"@openzeppelin/contracts/token/ERC20/ERC20.sol\":5204:5211  spender */\n      dup3\n        /* \"@openzeppelin/contracts/token/ERC20/ERC20.sol\":5213:5218  value */\n      dup6\n        /* \"@openzeppelin/contracts/token/ERC20/ERC20.sol\":5182:5197  _spendAllowance */\n      tag_173\n        /* \"@openzeppelin/contracts/token/ERC20/ERC20.sol\":5182:5219  _spendAllowance(from, spender, value) */\n      jump\t// in\n    tag_172:\n        /* \"@openzeppelin/contracts/token/ERC20/ERC20.sol\":5229:5255  _transfer(from, to, value) */\n      tag_174\n        /* \"@openzeppelin/contracts/token/ERC20/ERC20.sol\":5239:5243  from */\n      dup6\n        /* \"@openzeppelin/contracts/token/ERC20/ERC20.sol\":5245:5247  to */\n      dup6\n        /* \"@openzeppelin/contracts/token/ERC20/ERC20.sol\":5249:5254  value */\n      dup6\n        /* \"@openzeppelin/contracts/token/ERC20/ERC20.sol\":5229:5238  _transfer */\n      tag_175\n        /* \"@openzeppelin/contracts/token/ERC20/ERC20.sol\":5229:5255  _transfer(from, to, value) */\n      jump\t// in\n    tag_174:\n        /* \"@openzeppelin/contracts/token/ERC20/ERC20.sol\":5272:5276  true */\n      0x01\n        /* \"@openzeppelin/contracts/token/ERC20/ERC20.sol\":5265:5276  return true */\n      swap2\n      pop\n      pop\n        /* \"@openzeppelin/contracts/token/ERC20/ERC20.sol\":5039:5283  function transferFrom(address from, address to, uint256 value) public virtual returns (bool) {... */\n      swap4\n      swap3\n      pop\n      pop\n      pop\n      jump\t// out\n        /* \"@openzeppelin/contracts/token/ERC20/ERC20.sol\":3002:3084  function decimals() public view virtual returns (uint8) {... */\n    tag_69:\n        /* \"@openzeppelin/contracts/token/ERC20/ERC20.sol\":3051:3056  uint8 */\n      0x00\n        /* \"@openzeppelin/contracts/token/ERC20/ERC20.sol\":3075:3077  18 */\n      0x12\n        /* \"@openzeppelin/contracts/token/ERC20/ERC20.sol\":3068:3077  return 18 */\n      swap1\n      pop\n        /* \"@openzeppelin/contracts/token/ERC20/ERC20.sol\":3002:3084  function decimals() public view virtual returns (uint8) {... */\n      swap1\n      jump\t// out\n        /* \"pTOKEN2.sol\":3743:3815  function setStart() external onlyOwner {    ... */\n    tag_73:\n        /* \"@openzeppelin/contracts/access/Ownable.sol\":1531:1544  _checkOwner() */\n      tag_178\n        /* \"@openzeppelin/contracts/access/Ownable.sol\":1531:1542  _checkOwner */\n      tag_161\n        /* \"@openzeppelin/contracts/access/Ownable.sol\":1531:1544  _checkOwner() */\n      jump\t// in\n    tag_178:\n        /* \"pTOKEN2.sol\":3804:3808  true */\n      0x01\n        /* \"pTOKEN2.sol\":3796:3801  start */\n      0x0a\n      0x14\n        /* \"pTOKEN2.sol\":3796:3808  start = true */\n      0x0100\n      exp\n      dup2\n      sload\n      dup2\n      0xff\n      mul\n      not\n      and\n      swap1\n      dup4\n      iszero\n      iszero\n      mul\n      or\n      swap1\n      sstore\n      pop\n        /* \"pTOKEN2.sol\":3743:3815  function setStart() external onlyOwner {    ... */\n      jump\t// out\n        /* \"pTOKEN2.sol\":4122:4651  function mint(address receiver, uint256 _amount) external nonReentrant {... */\n    tag_76:\n        /* \"@openzeppelin/contracts/utils/ReentrancyGuard.sol\":2356:2377  _nonReentrantBefore() */\n      tag_181\n        /* \"@openzeppelin/contracts/utils/ReentrancyGuard.sol\":2356:2375  _nonReentrantBefore */\n      tag_182\n        /* \"@openzeppelin/contracts/utils/ReentrancyGuard.sol\":2356:2377  _nonReentrantBefore() */\n      jump\t// in\n    tag_181:\n        /* \"pTOKEN2.sol\":1323:1327  1000 */\n      0x03e8\n        /* \"pTOKEN2.sol\":4207:4214  _amount */\n      dup2\n        /* \"pTOKEN2.sol\":4207:4221  _amount < _MIN */\n      lt\n        /* \"pTOKEN2.sol\":4203:4248  if (_amount < _MIN) revert MustTradeOverMin() */\n      iszero\n      tag_184\n      jumpi\n        /* \"pTOKEN2.sol\":4230:4248  MustTradeOverMin() */\n      mload(0x40)\n      0x2b4db67a00000000000000000000000000000000000000000000000000000000\n      dup2\n      mstore\n      0x04\n      add\n      mload(0x40)\n      dup1\n      swap2\n      sub\n      swap1\n      revert\n        /* \"pTOKEN2.sol\":4203:4248  if (_amount < _MIN) revert MustTradeOverMin() */\n    tag_184:\n        /* \"pTOKEN2.sol\":4259:4273  uint256 pToken */\n      0x00\n        /* \"pTOKEN2.sol\":4276:4301  _BACKINGtoPTOKEN(_amount) */\n      tag_185\n        /* \"pTOKEN2.sol\":4293:4300  _amount */\n      dup3\n        /* \"pTOKEN2.sol\":4276:4292  _BACKINGtoPTOKEN */\n      tag_186\n        /* \"pTOKEN2.sol\":4276:4301  _BACKINGtoPTOKEN(_amount) */\n      jump\t// in\n    tag_185:\n        /* \"pTOKEN2.sol\":4259:4301  uint256 pToken = _BACKINGtoPTOKEN(_amount) */\n      swap1\n      pop\n        /* \"pTOKEN2.sol\":4312:4339  uint256 backingToFeeAddress */\n      0x00\n        /* \"pTOKEN2.sol\":4352:4356  FEES */\n      sload(0x08)\n        /* \"pTOKEN2.sol\":4342:4349  _amount */\n      dup4\n        /* \"pTOKEN2.sol\":4342:4356  _amount / FEES */\n      tag_187\n      swap2\n      swap1\n      tag_188\n      jump\t// in\n    tag_187:\n        /* \"pTOKEN2.sol\":4312:4356  uint256 backingToFeeAddress = _amount / FEES */\n      swap1\n      pop\n        /* \"pTOKEN2.sol\":4393:4412  backingToFeeAddress */\n      dup1\n        /* \"pTOKEN2.sol\":4383:4390  _amount */\n      dup4\n        /* \"pTOKEN2.sol\":4383:4412  _amount - backingToFeeAddress */\n      tag_189\n      swap2\n      swap1\n      tag_190\n      jump\t// in\n    tag_189:\n        /* \"pTOKEN2.sol\":4366:4378  totalBacking */\n      0x09\n      0x00\n        /* \"pTOKEN2.sol\":4366:4413  totalBacking += (_amount - backingToFeeAddress) */\n      dup3\n      dup3\n      sload\n      tag_191\n      swap2\n      swap1\n      tag_192\n      jump\t// in\n    tag_191:\n      swap3\n      pop\n      pop\n      dup2\n      swap1\n      sstore\n      pop\n        /* \"pTOKEN2.sol\":4424:4505  SafeERC20.safeTransferFrom(_BACKING, msg.sender, feeAddress, backingToFeeAddress) */\n      tag_193\n        /* \"pTOKEN2.sol\":4451:4459  _BACKING */\n      immutable(\"0x90a0a53a674dda23f50c6d7df8f61e9f3e3cf11a0ea21d6964915bb3c7f9b219\")\n        /* \"pTOKEN2.sol\":4461:4471  msg.sender */\n      caller\n        /* \"pTOKEN2.sol\":4473:4483  feeAddress */\n      0x0a\n      0x00\n      swap1\n      sload\n      swap1\n      0x0100\n      exp\n      swap1\n      div\n      0xffffffffffffffffffffffffffffffffffffffff\n      and\n        /* \"pTOKEN2.sol\":4485:4504  backingToFeeAddress */\n      dup5\n        /* \"pTOKEN2.sol\":4424:4450  SafeERC20.safeTransferFrom */\n      tag_194\n        /* \"pTOKEN2.sol\":4424:4505  SafeERC20.safeTransferFrom(_BACKING, msg.sender, feeAddress, backingToFeeAddress) */\n      jump\t// in\n    tag_193:\n        /* \"pTOKEN2.sol\":4516:4580  _mint(receiver, (pToken * MINT_AND_REDEEM_FEE) / _FEE_BASE_1000) */\n      tag_195\n        /* \"pTOKEN2.sol\":4522:4530  receiver */\n      dup5\n        /* \"pTOKEN2.sol\":1375:1379  1000 */\n      0x03e8\n        /* \"pTOKEN2.sol\":4542:4561  MINT_AND_REDEEM_FEE */\n      sload(0x07)\n        /* \"pTOKEN2.sol\":4533:4539  pToken */\n      dup6\n        /* \"pTOKEN2.sol\":4533:4561  pToken * MINT_AND_REDEEM_FEE */\n      tag_196\n      swap2\n      swap1\n      tag_197\n      jump\t// in\n    tag_196:\n        /* \"pTOKEN2.sol\":4532:4579  (pToken * MINT_AND_REDEEM_FEE) / _FEE_BASE_1000 */\n      tag_198\n      swap2\n      swap1\n      tag_188\n      jump\t// in\n    tag_198:\n        /* \"pTOKEN2.sol\":4516:4521  _mint */\n      tag_199\n        /* \"pTOKEN2.sol\":4516:4580  _mint(receiver, (pToken * MINT_AND_REDEEM_FEE) / _FEE_BASE_1000) */\n      jump\t// in\n    tag_195:\n        /* \"pTOKEN2.sol\":4636:4643  _amount */\n      dup3\n        /* \"pTOKEN2.sol\":4628:4634  pToken */\n      dup3\n        /* \"pTOKEN2.sol\":4611:4626  block.timestamp */\n      timestamp\n        /* \"pTOKEN2.sol\":4596:4644  PriceAfterMint(block.timestamp, pToken, _amount) */\n      0x079d4fba3fc168dbd2a0c2a5235112b3442d90a21282f7b69506d05a46fdbbb7\n      mload(0x40)\n      mload(0x40)\n      dup1\n      swap2\n      sub\n      swap1\n      log4\n        /* \"pTOKEN2.sol\":4193:4651  {... */\n      pop\n      pop\n        /* \"@openzeppelin/contracts/utils/ReentrancyGuard.sol\":2398:2418  _nonReentrantAfter() */\n      tag_200\n        /* \"@openzeppelin/contracts/utils/ReentrancyGuard.sol\":2398:2416  _nonReentrantAfter */\n      tag_201\n        /* \"@openzeppelin/contracts/utils/ReentrancyGuard.sol\":2398:2418  _nonReentrantAfter() */\n      jump\t// in\n    tag_200:\n        /* \"pTOKEN2.sol\":4122:4651  function mint(address receiver, uint256 _amount) external nonReentrant {... */\n      pop\n      pop\n      jump\t// out\n        /* \"pTOKEN2.sol\":1990:2023  address payable public feeAddress */\n    tag_78:\n      0x0a\n      0x00\n      swap1\n      sload\n      swap1\n      0x0100\n      exp\n      swap1\n      div\n      0xffffffffffffffffffffffffffffffffffffffff\n      and\n      dup2\n      jump\t// out\n        /* \"@openzeppelin/contracts/token/ERC20/extensions/ERC20Burnable.sol\":618:705  function burn(uint256 value) public virtual {... */\n    tag_84:\n        /* \"@openzeppelin/contracts/token/ERC20/extensions/ERC20Burnable.sol\":672:698  _burn(_msgSender(), value) */\n      tag_203\n        /* \"@openzeppelin/contracts/token/ERC20/extensions/ERC20Burnable.sol\":678:690  _msgSender() */\n      tag_204\n        /* \"@openzeppelin/contracts/token/ERC20/extensions/ERC20Burnable.sol\":678:688  _msgSender */\n      tag_156\n        /* \"@openzeppelin/contracts/token/ERC20/extensions/ERC20Burnable.sol\":678:690  _msgSender() */\n      jump\t// in\n    tag_204:\n        /* \"@openzeppelin/contracts/token/ERC20/extensions/ERC20Burnable.sol\":692:697  value */\n      dup3\n        /* \"@openzeppelin/contracts/token/ERC20/extensions/ERC20Burnable.sol\":672:677  _burn */\n      tag_205\n        /* \"@openzeppelin/contracts/token/ERC20/extensions/ERC20Burnable.sol\":672:698  _burn(_msgSender(), value) */\n      jump\t// in\n    tag_203:\n        /* \"@openzeppelin/contracts/token/ERC20/extensions/ERC20Burnable.sol\":618:705  function burn(uint256 value) public virtual {... */\n      pop\n      jump\t// out\n        /* \"pTOKEN2.sol\":8831:9049  function getMintPrice(uint256 _amount) external view returns (uint256) {... */\n    tag_87:\n        /* \"pTOKEN2.sol\":8893:8900  uint256 */\n      0x00\n        /* \"pTOKEN2.sol\":1375:1379  1000 */\n      0x03e8\n        /* \"pTOKEN2.sol\":8998:9010  totalBacking */\n      sload(0x09)\n        /* \"pTOKEN2.sol\":8961:8980  MINT_AND_REDEEM_FEE */\n      sload(0x07)\n        /* \"pTOKEN2.sol\":8943:8956  totalSupply() */\n      tag_207\n        /* \"pTOKEN2.sol\":8943:8954  totalSupply */\n      tag_57\n        /* \"pTOKEN2.sol\":8943:8956  totalSupply() */\n      jump\t// in\n    tag_207:\n        /* \"pTOKEN2.sol\":8932:8939  _amount */\n      dup6\n        /* \"pTOKEN2.sol\":8932:8957  _amount * (totalSupply()) */\n      tag_208\n      swap2\n      swap1\n      tag_197\n      jump\t// in\n    tag_208:\n        /* \"pTOKEN2.sol\":8932:8981  _amount * (totalSupply()) * (MINT_AND_REDEEM_FEE) */\n      tag_209\n      swap2\n      swap1\n      tag_197\n      jump\t// in\n    tag_209:\n        /* \"pTOKEN2.sol\":8931:9011  (_amount * (totalSupply()) * (MINT_AND_REDEEM_FEE)) /... */\n      tag_210\n      swap2\n      swap1\n      tag_188\n      jump\t// in\n    tag_210:\n        /* \"pTOKEN2.sol\":8931:9042  (_amount * (totalSupply()) * (MINT_AND_REDEEM_FEE)) /... */\n      tag_211\n      swap2\n      swap1\n      tag_188\n      jump\t// in\n    tag_211:\n        /* \"pTOKEN2.sol\":8912:9042  return... */\n      swap1\n      pop\n        /* \"pTOKEN2.sol\":8831:9049  function getMintPrice(uint256 _amount) external view returns (uint256) {... */\n      swap2\n      swap1\n      pop\n      jump\t// out\n        /* \"@openzeppelin/contracts/token/ERC20/ERC20.sol\":3299:3415  function balanceOf(address account) public view virtual returns (uint256) {... */\n    tag_92:\n        /* \"@openzeppelin/contracts/token/ERC20/ERC20.sol\":3364:3371  uint256 */\n      0x00\n        /* \"@openzeppelin/contracts/token/ERC20/ERC20.sol\":3390:3399  _balances */\n      dup1\n        /* \"@openzeppelin/contracts/token/ERC20/ERC20.sol\":3390:3408  _balances[account] */\n      0x00\n        /* \"@openzeppelin/contracts/token/ERC20/ERC20.sol\":3400:3407  account */\n      dup4\n        /* \"@openzeppelin/contracts/token/ERC20/ERC20.sol\":3390:3408  _balances[account] */\n      0xffffffffffffffffffffffffffffffffffffffff\n      and\n      0xffffffffffffffffffffffffffffffffffffffff\n      and\n      dup2\n      mstore\n      0x20\n      add\n      swap1\n      dup2\n      mstore\n      0x20\n      add\n      0x00\n      keccak256\n      sload\n        /* \"@openzeppelin/contracts/token/ERC20/ERC20.sol\":3383:3408  return _balances[account] */\n      swap1\n      pop\n        /* \"@openzeppelin/contracts/token/ERC20/ERC20.sol\":3299:3415  function balanceOf(address account) public view virtual returns (uint256) {... */\n      swap2\n      swap1\n      pop\n      jump\t// out\n        /* \"@openzeppelin/contracts/access/Ownable.sol\":2293:2394  function renounceOwnership() public virtual onlyOwner {... */\n    tag_95:\n        /* \"@openzeppelin/contracts/access/Ownable.sol\":1531:1544  _checkOwner() */\n      tag_214\n        /* \"@openzeppelin/contracts/access/Ownable.sol\":1531:1542  _checkOwner */\n      tag_161\n        /* \"@openzeppelin/contracts/access/Ownable.sol\":1531:1544  _checkOwner() */\n      jump\t// in\n    tag_214:\n        /* \"@openzeppelin/contracts/access/Ownable.sol\":2357:2387  _transferOwnership(address(0)) */\n      tag_216\n        /* \"@openzeppelin/contracts/access/Ownable.sol\":2384:2385  0 */\n      0x00\n        /* \"@openzeppelin/contracts/access/Ownable.sol\":2357:2375  _transferOwnership */\n      tag_217\n        /* \"@openzeppelin/contracts/access/Ownable.sol\":2357:2387  _transferOwnership(address(0)) */\n      jump\t// in\n    tag_216:\n        /* \"@openzeppelin/contracts/access/Ownable.sol\":2293:2394  function renounceOwnership() public virtual onlyOwner {... */\n      jump\t// out\n        /* \"@openzeppelin/contracts/token/ERC20/extensions/ERC20Burnable.sol\":1021:1179  function burnFrom(address account, uint256 value) public virtual {... */\n    tag_98:\n        /* \"@openzeppelin/contracts/token/ERC20/extensions/ERC20Burnable.sol\":1096:1141  _spendAllowance(account, _msgSender(), value) */\n      tag_219\n        /* \"@openzeppelin/contracts/token/ERC20/extensions/ERC20Burnable.sol\":1112:1119  account */\n      dup3\n        /* \"@openzeppelin/contracts/token/ERC20/extensions/ERC20Burnable.sol\":1121:1133  _msgSender() */\n      tag_220\n        /* \"@openzeppelin/contracts/token/ERC20/extensions/ERC20Burnable.sol\":1121:1131  _msgSender */\n      tag_156\n        /* \"@openzeppelin/contracts/token/ERC20/extensions/ERC20Burnable.sol\":1121:1133  _msgSender() */\n      jump\t// in\n    tag_220:\n        /* \"@openzeppelin/contracts/token/ERC20/extensions/ERC20Burnable.sol\":1135:1140  value */\n      dup4\n        /* \"@openzeppelin/contracts/token/ERC20/extensions/ERC20Burnable.sol\":1096:1111  _spendAllowance */\n      tag_173\n        /* \"@openzeppelin/contracts/token/ERC20/extensions/ERC20Burnable.sol\":1096:1141  _spendAllowance(account, _msgSender(), value) */\n      jump\t// in\n    tag_219:\n        /* \"@openzeppelin/contracts/token/ERC20/extensions/ERC20Burnable.sol\":1151:1172  _burn(account, value) */\n      tag_221\n        /* \"@openzeppelin/contracts/token/ERC20/extensions/ERC20Burnable.sol\":1157:1164  account */\n      dup3\n        /* \"@openzeppelin/contracts/token/ERC20/extensions/ERC20Burnable.sol\":1166:1171  value */\n      dup3\n        /* \"@openzeppelin/contracts/token/ERC20/extensions/ERC20Burnable.sol\":1151:1156  _burn */\n      tag_205\n        /* \"@openzeppelin/contracts/token/ERC20/extensions/ERC20Burnable.sol\":1151:1172  _burn(account, value) */\n      jump\t// in\n    tag_221:\n        /* \"@openzeppelin/contracts/token/ERC20/extensions/ERC20Burnable.sol\":1021:1179  function burnFrom(address account, uint256 value) public virtual {... */\n      pop\n      pop\n      jump\t// out\n        /* \"pTOKEN2.sol\":5886:6077  function setFeeAddress(address _address) external onlyOwner {... */\n    tag_101:\n        /* \"@openzeppelin/contracts/access/Ownable.sol\":1531:1544  _checkOwner() */\n      tag_223\n        /* \"@openzeppelin/contracts/access/Ownable.sol\":1531:1542  _checkOwner */\n      tag_161\n        /* \"@openzeppelin/contracts/access/Ownable.sol\":1531:1544  _checkOwner() */\n      jump\t// in\n    tag_223:\n        /* \"pTOKEN2.sol\":5956:5987  _assemblyOwnerNotZero(_address) */\n      tag_225\n        /* \"pTOKEN2.sol\":5978:5986  _address */\n      dup2\n        /* \"pTOKEN2.sol\":5956:5977  _assemblyOwnerNotZero */\n      tag_226\n        /* \"pTOKEN2.sol\":5956:5987  _assemblyOwnerNotZero(_address) */\n      jump\t// in\n    tag_225:\n        /* \"pTOKEN2.sol\":6018:6026  _address */\n      dup1\n        /* \"pTOKEN2.sol\":5997:6007  feeAddress */\n      0x0a\n      0x00\n        /* \"pTOKEN2.sol\":5997:6027  feeAddress = payable(_address) */\n      0x0100\n      exp\n      dup2\n      sload\n      dup2\n      0xffffffffffffffffffffffffffffffffffffffff\n      mul\n      not\n      and\n      swap1\n      dup4\n      0xffffffffffffffffffffffffffffffffffffffff\n      and\n      mul\n      or\n      swap1\n      sstore\n      pop\n        /* \"pTOKEN2.sol\":6061:6069  _address */\n      dup1\n        /* \"pTOKEN2.sol\":6043:6070  FeeAddressUpdated(_address) */\n      0xffffffffffffffffffffffffffffffffffffffff\n      and\n      0x446e39bcf1b47cfadfaa23442cb4b34682cfe6bd9220da084894e3b1f834e4f3\n      mload(0x40)\n      mload(0x40)\n      dup1\n      swap2\n      sub\n      swap1\n      log2\n        /* \"pTOKEN2.sol\":5886:6077  function setFeeAddress(address _address) external onlyOwner {... */\n      pop\n      jump\t// out\n        /* \"pTOKEN2.sol\":1689:1713  uint256 public FEES = 35 */\n    tag_103:\n      sload(0x08)\n      dup2\n      jump\t// out\n        /* \"@openzeppelin/contracts/access/Ownable.sol\":1638:1723  function owner() public view virtual returns (address) {... */\n    tag_106:\n        /* \"@openzeppelin/contracts/access/Ownable.sol\":1684:1691  address */\n      0x00\n        /* \"@openzeppelin/contracts/access/Ownable.sol\":1710:1716  _owner */\n      0x05\n      0x00\n      swap1\n      sload\n      swap1\n      0x0100\n      exp\n      swap1\n      div\n      0xffffffffffffffffffffffffffffffffffffffff\n      and\n        /* \"@openzeppelin/contracts/access/Ownable.sol\":1703:1716  return _owner */\n      swap1\n      pop\n        /* \"@openzeppelin/contracts/access/Ownable.sol\":1638:1723  function owner() public view virtual returns (address) {... */\n      swap1\n      jump\t// out\n        /* \"pTOKEN2.sol\":1474:1514  uint256 public MINT_AND_REDEEM_FEE = 967 */\n    tag_110:\n      sload(0x07)\n      dup2\n      jump\t// out\n        /* \"@openzeppelin/contracts/token/ERC20/ERC20.sol\":2276:2369  function symbol() public view virtual returns (string memory) {... */\n    tag_113:\n        /* \"@openzeppelin/contracts/token/ERC20/ERC20.sol\":2323:2336  string memory */\n      0x60\n        /* \"@openzeppelin/contracts/token/ERC20/ERC20.sol\":2355:2362  _symbol */\n      0x04\n        /* \"@openzeppelin/contracts/token/ERC20/ERC20.sol\":2348:2362  return _symbol */\n      dup1\n      sload\n      tag_229\n      swap1\n      tag_149\n      jump\t// in\n    tag_229:\n      dup1\n      0x1f\n      add\n      0x20\n      dup1\n      swap2\n      div\n      mul\n      0x20\n      add\n      mload(0x40)\n      swap1\n      dup2\n      add\n      0x40\n      mstore\n      dup1\n      swap3\n      swap2\n      swap1\n      dup2\n      dup2\n      mstore\n      0x20\n      add\n      dup3\n      dup1\n      sload\n      tag_230\n      swap1\n      tag_149\n      jump\t// in\n    tag_230:\n      dup1\n      iszero\n      tag_231\n      jumpi\n      dup1\n      0x1f\n      lt\n      tag_232\n      jumpi\n      0x0100\n      dup1\n      dup4\n      sload\n      div\n      mul\n      dup4\n      mstore\n      swap2\n      0x20\n      add\n      swap2\n      jump(tag_231)\n    tag_232:\n      dup3\n      add\n      swap2\n      swap1\n      0x00\n      mstore\n      keccak256(0x00, 0x20)\n      swap1\n    tag_233:\n      dup2\n      sload\n      dup2\n      mstore\n      swap1\n      0x01\n      add\n      swap1\n      0x20\n      add\n      dup1\n      dup4\n      gt\n      tag_233\n      jumpi\n      dup3\n      swap1\n      sub\n      0x1f\n      and\n      dup3\n      add\n      swap2\n    tag_231:\n      pop\n      pop\n      pop\n      pop\n      pop\n      swap1\n      pop\n        /* \"@openzeppelin/contracts/token/ERC20/ERC20.sol\":2276:2369  function symbol() public view virtual returns (string memory) {... */\n      swap1\n      jump\t// out\n        /* \"pTOKEN2.sol\":9230:9450  function getRedeemPrice(uint256 _amount) external view returns (uint256) {... */\n    tag_117:\n        /* \"pTOKEN2.sol\":9294:9301  uint256 */\n      0x00\n        /* \"pTOKEN2.sol\":1375:1379  1000 */\n      0x03e8\n        /* \"pTOKEN2.sol\":9398:9411  totalSupply() */\n      tag_235\n        /* \"pTOKEN2.sol\":9398:9409  totalSupply */\n      tag_57\n        /* \"pTOKEN2.sol\":9398:9411  totalSupply() */\n      jump\t// in\n    tag_235:\n        /* \"pTOKEN2.sol\":9361:9380  MINT_AND_REDEEM_FEE */\n      sload(0x07)\n        /* \"pTOKEN2.sol\":9344:9356  totalBacking */\n      sload(0x09)\n        /* \"pTOKEN2.sol\":9334:9341  _amount */\n      dup6\n        /* \"pTOKEN2.sol\":9334:9356  _amount * totalBacking */\n      tag_236\n      swap2\n      swap1\n      tag_197\n      jump\t// in\n    tag_236:\n        /* \"pTOKEN2.sol\":9333:9381  (_amount * totalBacking) * (MINT_AND_REDEEM_FEE) */\n      tag_237\n      swap2\n      swap1\n      tag_197\n      jump\t// in\n    tag_237:\n        /* \"pTOKEN2.sol\":9332:9412  ((_amount * totalBacking) * (MINT_AND_REDEEM_FEE)) /... */\n      tag_238\n      swap2\n      swap1\n      tag_188\n      jump\t// in\n    tag_238:\n        /* \"pTOKEN2.sol\":9332:9443  ((_amount * totalBacking) * (MINT_AND_REDEEM_FEE)) /... */\n      tag_239\n      swap2\n      swap1\n      tag_188\n      jump\t// in\n    tag_239:\n        /* \"pTOKEN2.sol\":9313:9443  return... */\n      swap1\n      pop\n        /* \"pTOKEN2.sol\":9230:9450  function getRedeemPrice(uint256 _amount) external view returns (uint256) {... */\n      swap2\n      swap1\n      pop\n      jump\t// out\n        /* \"pTOKEN2.sol\":3405:3737  function fillContract(uint256 _value) external onlyOwner {... */\n    tag_121:\n        /* \"@openzeppelin/contracts/access/Ownable.sol\":1531:1544  _checkOwner() */\n      tag_241\n        /* \"@openzeppelin/contracts/access/Ownable.sol\":1531:1542  _checkOwner */\n      tag_161\n        /* \"@openzeppelin/contracts/access/Ownable.sol\":1531:1544  _checkOwner() */\n      jump\t// in\n    tag_241:\n        /* \"pTOKEN2.sol\":3481:3486  start */\n      0x0a\n      0x14\n      swap1\n      sload\n      swap1\n      0x0100\n      exp\n      swap1\n      div\n      0xff\n      and\n        /* \"pTOKEN2.sol\":3480:3486  !start */\n      iszero\n        /* \"pTOKEN2.sol\":3472:3487  require(!start) */\n      tag_243\n      jumpi\n      0x00\n      dup1\n      revert\n    tag_243:\n        /* \"pTOKEN2.sol\":3497:3568  SafeERC20.safeTransferFrom(_BACKING, msg.sender, address(this), _value) */\n      tag_244\n        /* \"pTOKEN2.sol\":3524:3532  _BACKING */\n      immutable(\"0x90a0a53a674dda23f50c6d7df8f61e9f3e3cf11a0ea21d6964915bb3c7f9b219\")\n        /* \"pTOKEN2.sol\":3534:3544  msg.sender */\n      caller\n        /* \"pTOKEN2.sol\":3554:3558  this */\n      address\n        /* \"pTOKEN2.sol\":3561:3567  _value */\n      dup5\n        /* \"pTOKEN2.sol\":3497:3523  SafeERC20.safeTransferFrom */\n      tag_194\n        /* \"pTOKEN2.sol\":3497:3568  SafeERC20.safeTransferFrom(_BACKING, msg.sender, address(this), _value) */\n      jump\t// in\n    tag_244:\n        /* \"pTOKEN2.sol\":3578:3603  _mint(msg.sender, _value) */\n      tag_245\n        /* \"pTOKEN2.sol\":3584:3594  msg.sender */\n      caller\n        /* \"pTOKEN2.sol\":3596:3602  _value */\n      dup3\n        /* \"pTOKEN2.sol\":3578:3583  _mint */\n      tag_199\n        /* \"pTOKEN2.sol\":3578:3603  _mint(msg.sender, _value) */\n      jump\t// in\n    tag_245:\n        /* \"pTOKEN2.sol\":3613:3671  transfer(0x000000000000000000000000000000000000dEaD, 1000) */\n      tag_246\n        /* \"pTOKEN2.sol\":3622:3664  0x000000000000000000000000000000000000dEaD */\n      0xdead\n        /* \"pTOKEN2.sol\":3666:3670  1000 */\n      0x03e8\n        /* \"pTOKEN2.sol\":3613:3621  transfer */\n      tag_124\n        /* \"pTOKEN2.sol\":3613:3671  transfer(0x000000000000000000000000000000000000dEaD, 1000) */\n      jump\t// in\n    tag_246:\n      pop\n        /* \"pTOKEN2.sol\":3697:3705  _BACKING */\n      immutable(\"0x90a0a53a674dda23f50c6d7df8f61e9f3e3cf11a0ea21d6964915bb3c7f9b219\")\n        /* \"pTOKEN2.sol\":3697:3715  _BACKING.balanceOf */\n      0xffffffffffffffffffffffffffffffffffffffff\n      and\n      0x70a08231\n        /* \"pTOKEN2.sol\":3724:3728  this */\n      address\n        /* \"pTOKEN2.sol\":3697:3730  _BACKING.balanceOf(address(this)) */\n      mload(0x40)\n      dup3\n      0xffffffff\n      and\n      0xe0\n      shl\n      dup2\n      mstore\n      0x04\n      add\n      tag_247\n      swap2\n      swap1\n      tag_108\n      jump\t// in\n    tag_247:\n      0x20\n      mload(0x40)\n      dup1\n      dup4\n      sub\n      dup2\n      dup7\n      gas\n      staticcall\n      iszero\n      dup1\n      iszero\n      tag_249\n      jumpi\n      returndatasize\n      0x00\n      dup1\n      returndatacopy\n      revert(0x00, returndatasize)\n    tag_249:\n      pop\n      pop\n      pop\n      pop\n      mload(0x40)\n      returndatasize\n      not(0x1f)\n      0x1f\n      dup3\n      add\n      and\n      dup3\n      add\n      dup1\n      0x40\n      mstore\n      pop\n      dup2\n      add\n      swap1\n      tag_250\n      swap2\n      swap1\n      tag_167\n      jump\t// in\n    tag_250:\n        /* \"pTOKEN2.sol\":3682:3694  totalBacking */\n      0x09\n        /* \"pTOKEN2.sol\":3682:3730  totalBacking = _BACKING.balanceOf(address(this)) */\n      dup2\n      swap1\n      sstore\n      pop\n        /* \"pTOKEN2.sol\":3405:3737  function fillContract(uint256 _value) external onlyOwner {... */\n      pop\n      jump\t// out\n        /* \"@openzeppelin/contracts/token/ERC20/ERC20.sol\":3610:3788  function transfer(address to, uint256 value) public virtual returns (bool) {... */\n    tag_124:\n        /* \"@openzeppelin/contracts/token/ERC20/ERC20.sol\":3679:3683  bool */\n      0x00\n        /* \"@openzeppelin/contracts/token/ERC20/ERC20.sol\":3695:3708  address owner */\n      dup1\n        /* \"@openzeppelin/contracts/token/ERC20/ERC20.sol\":3711:3723  _msgSender() */\n      tag_252\n        /* \"@openzeppelin/contracts/token/ERC20/ERC20.sol\":3711:3721  _msgSender */\n      tag_156\n        /* \"@openzeppelin/contracts/token/ERC20/ERC20.sol\":3711:3723  _msgSender() */\n      jump\t// in\n    tag_252:\n        /* \"@openzeppelin/contracts/token/ERC20/ERC20.sol\":3695:3723  address owner = _msgSender() */\n      swap1\n      pop\n        /* \"@openzeppelin/contracts/token/ERC20/ERC20.sol\":3733:3760  _transfer(owner, to, value) */\n      tag_253\n        /* \"@openzeppelin/contracts/token/ERC20/ERC20.sol\":3743:3748  owner */\n      dup2\n        /* \"@openzeppelin/contracts/token/ERC20/ERC20.sol\":3750:3752  to */\n      dup6\n        /* \"@openzeppelin/contracts/token/ERC20/ERC20.sol\":3754:3759  value */\n      dup6\n        /* \"@openzeppelin/contracts/token/ERC20/ERC20.sol\":3733:3742  _transfer */\n      tag_175\n        /* \"@openzeppelin/contracts/token/ERC20/ERC20.sol\":3733:3760  _transfer(owner, to, value) */\n      jump\t// in\n    tag_253:\n        /* \"@openzeppelin/contracts/token/ERC20/ERC20.sol\":3777:3781  true */\n      0x01\n        /* \"@openzeppelin/contracts/token/ERC20/ERC20.sol\":3770:3781  return true */\n      swap2\n      pop\n      pop\n        /* \"@openzeppelin/contracts/token/ERC20/ERC20.sol\":3610:3788  function transfer(address to, uint256 value) public virtual returns (bool) {... */\n      swap3\n      swap2\n      pop\n      pop\n      jump\t// out\n        /* \"pTOKEN2.sol\":6689:6884  function setTeamFee(uint16 _amount) external onlyOwner {... */\n    tag_129:\n        /* \"@openzeppelin/contracts/access/Ownable.sol\":1531:1544  _checkOwner() */\n      tag_255\n        /* \"@openzeppelin/contracts/access/Ownable.sol\":1531:1542  _checkOwner */\n      tag_161\n        /* \"@openzeppelin/contracts/access/Ownable.sol\":1531:1544  _checkOwner() */\n      jump\t// in\n    tag_255:\n        /* \"pTOKEN2.sol\":6767:6770  100 */\n      0x64\n        /* \"pTOKEN2.sol\":6757:6764  _amount */\n      dup2\n        /* \"pTOKEN2.sol\":6757:6770  _amount > 100 */\n      0xffff\n      and\n      gt\n        /* \"pTOKEN2.sol\":6757:6786  _amount > 100 || _amount < 25 */\n      dup1\n      tag_257\n      jumpi\n      pop\n        /* \"pTOKEN2.sol\":6784:6786  25 */\n      0x19\n        /* \"pTOKEN2.sol\":6774:6781  _amount */\n      dup2\n        /* \"pTOKEN2.sol\":6774:6786  _amount < 25 */\n      0xffff\n      and\n      lt\n        /* \"pTOKEN2.sol\":6757:6786  _amount > 100 || _amount < 25 */\n    tag_257:\n        /* \"pTOKEN2.sol\":6754:6814  if(_amount > 100 || _amount < 25) revert TeamFeeNotInRange() */\n      iszero\n      tag_258\n      jumpi\n        /* \"pTOKEN2.sol\":6795:6814  TeamFeeNotInRange() */\n      mload(0x40)\n      0x7f176cee00000000000000000000000000000000000000000000000000000000\n      dup2\n      mstore\n      0x04\n      add\n      mload(0x40)\n      dup1\n      swap2\n      sub\n      swap1\n      revert\n        /* \"pTOKEN2.sol\":6754:6814  if(_amount > 100 || _amount < 25) revert TeamFeeNotInRange() */\n    tag_258:\n        /* \"pTOKEN2.sol\":6832:6839  _amount */\n      dup1\n        /* \"pTOKEN2.sol\":6825:6839  FEES = _amount */\n      0xffff\n      and\n        /* \"pTOKEN2.sol\":6825:6829  FEES */\n      0x08\n        /* \"pTOKEN2.sol\":6825:6839  FEES = _amount */\n      dup2\n      swap1\n      sstore\n      pop\n        /* \"pTOKEN2.sol\":6854:6877  TeamFeeUpdated(_amount) */\n      0x9de4e85041d310d87df38a671e7ecf270c37d73ea017960b904af70512059621\n        /* \"pTOKEN2.sol\":6869:6876  _amount */\n      dup2\n        /* \"pTOKEN2.sol\":6854:6877  TeamFeeUpdated(_amount) */\n      mload(0x40)\n      tag_259\n      swap2\n      swap1\n      tag_260\n      jump\t// in\n    tag_259:\n      mload(0x40)\n      dup1\n      swap2\n      sub\n      swap1\n      log1\n        /* \"pTOKEN2.sol\":6689:6884  function setTeamFee(uint16 _amount) external onlyOwner {... */\n      pop\n      jump\t// out\n        /* \"pTOKEN2.sol\":5044:5706  function redeem(uint256 _amount) external nonReentrant {... */\n    tag_132:\n        /* \"@openzeppelin/contracts/utils/ReentrancyGuard.sol\":2356:2377  _nonReentrantBefore() */\n      tag_262\n        /* \"@openzeppelin/contracts/utils/ReentrancyGuard.sol\":2356:2375  _nonReentrantBefore */\n      tag_182\n        /* \"@openzeppelin/contracts/utils/ReentrancyGuard.sol\":2356:2377  _nonReentrantBefore() */\n      jump\t// in\n    tag_262:\n        /* \"pTOKEN2.sol\":1323:1327  1000 */\n      0x03e8\n        /* \"pTOKEN2.sol\":5113:5120  _amount */\n      dup2\n        /* \"pTOKEN2.sol\":5113:5127  _amount < _MIN */\n      lt\n        /* \"pTOKEN2.sol\":5109:5154  if (_amount < _MIN) revert MustTradeOverMin() */\n      iszero\n      tag_264\n      jumpi\n        /* \"pTOKEN2.sol\":5136:5154  MustTradeOverMin() */\n      mload(0x40)\n      0x2b4db67a00000000000000000000000000000000000000000000000000000000\n      dup2\n      mstore\n      0x04\n      add\n      mload(0x40)\n      dup1\n      swap2\n      sub\n      swap1\n      revert\n        /* \"pTOKEN2.sol\":5109:5154  if (_amount < _MIN) revert MustTradeOverMin() */\n    tag_264:\n        /* \"pTOKEN2.sol\":5165:5179  uint256 pToken */\n      0x00\n        /* \"pTOKEN2.sol\":5182:5207  _PTOKENtoBACKING(_amount) */\n      tag_265\n        /* \"pTOKEN2.sol\":5199:5206  _amount */\n      dup3\n        /* \"pTOKEN2.sol\":5182:5198  _PTOKENtoBACKING */\n      tag_266\n        /* \"pTOKEN2.sol\":5182:5207  _PTOKENtoBACKING(_amount) */\n      jump\t// in\n    tag_265:\n        /* \"pTOKEN2.sol\":5165:5207  uint256 pToken = _PTOKENtoBACKING(_amount) */\n      swap1\n      pop\n        /* \"pTOKEN2.sol\":5218:5245  uint256 backingToFeeAddress */\n      0x00\n        /* \"pTOKEN2.sol\":5258:5262  FEES */\n      sload(0x08)\n        /* \"pTOKEN2.sol\":5248:5255  _amount */\n      dup4\n        /* \"pTOKEN2.sol\":5248:5262  _amount / FEES */\n      tag_267\n      swap2\n      swap1\n      tag_188\n      jump\t// in\n    tag_267:\n        /* \"pTOKEN2.sol\":5218:5262  uint256 backingToFeeAddress = _amount / FEES */\n      swap1\n      pop\n        /* \"pTOKEN2.sol\":5272:5295  uint256 backingToSender */\n      0x00\n        /* \"pTOKEN2.sol\":1375:1379  1000 */\n      0x03e8\n        /* \"pTOKEN2.sol\":5309:5328  MINT_AND_REDEEM_FEE */\n      sload(0x07)\n        /* \"pTOKEN2.sol\":5299:5306  _amount */\n      dup6\n        /* \"pTOKEN2.sol\":5299:5328  _amount * MINT_AND_REDEEM_FEE */\n      tag_268\n      swap2\n      swap1\n      tag_197\n      jump\t// in\n    tag_268:\n        /* \"pTOKEN2.sol\":5298:5346  (_amount * MINT_AND_REDEEM_FEE) / _FEE_BASE_1000 */\n      tag_269\n      swap2\n      swap1\n      tag_188\n      jump\t// in\n    tag_269:\n        /* \"pTOKEN2.sol\":5272:5346  uint256 backingToSender = (_amount * MINT_AND_REDEEM_FEE) / _FEE_BASE_1000 */\n      swap1\n      pop\n        /* \"pTOKEN2.sol\":5391:5410  backingToFeeAddress */\n      dup2\n        /* \"pTOKEN2.sol\":5373:5388  backingToSender */\n      dup2\n        /* \"pTOKEN2.sol\":5373:5410  backingToSender + backingToFeeAddress */\n      tag_270\n      swap2\n      swap1\n      tag_192\n      jump\t// in\n    tag_270:\n        /* \"pTOKEN2.sol\":5356:5368  totalBacking */\n      0x09\n      0x00\n        /* \"pTOKEN2.sol\":5356:5411  totalBacking -= (backingToSender + backingToFeeAddress) */\n      dup3\n      dup3\n      sload\n      tag_271\n      swap2\n      swap1\n      tag_190\n      jump\t// in\n    tag_271:\n      swap3\n      pop\n      pop\n      dup2\n      swap1\n      sstore\n      pop\n        /* \"pTOKEN2.sol\":5422:5447  _burn(msg.sender, pToken) */\n      tag_272\n        /* \"pTOKEN2.sol\":5428:5438  msg.sender */\n      caller\n        /* \"pTOKEN2.sol\":5440:5446  pToken */\n      dup5\n        /* \"pTOKEN2.sol\":5422:5427  _burn */\n      tag_205\n        /* \"pTOKEN2.sol\":5422:5447  _burn(msg.sender, pToken) */\n      jump\t// in\n    tag_272:\n        /* \"pTOKEN2.sol\":5458:5542  SafeERC20.safeTransferFrom(_BACKING, address(this), feeAddress, backingToFeeAddress) */\n      tag_273\n        /* \"pTOKEN2.sol\":5485:5493  _BACKING */\n      immutable(\"0x90a0a53a674dda23f50c6d7df8f61e9f3e3cf11a0ea21d6964915bb3c7f9b219\")\n        /* \"pTOKEN2.sol\":5503:5507  this */\n      address\n        /* \"pTOKEN2.sol\":5510:5520  feeAddress */\n      0x0a\n      0x00\n      swap1\n      sload\n      swap1\n      0x0100\n      exp\n      swap1\n      div\n      0xffffffffffffffffffffffffffffffffffffffff\n      and\n        /* \"pTOKEN2.sol\":5522:5541  backingToFeeAddress */\n      dup6\n        /* \"pTOKEN2.sol\":5458:5484  SafeERC20.safeTransferFrom */\n      tag_194\n        /* \"pTOKEN2.sol\":5458:5542  SafeERC20.safeTransferFrom(_BACKING, address(this), feeAddress, backingToFeeAddress) */\n      jump\t// in\n    tag_273:\n        /* \"pTOKEN2.sol\":5553:5633  SafeERC20.safeTransferFrom(_BACKING, address(this), msg.sender, backingToSender) */\n      tag_274\n        /* \"pTOKEN2.sol\":5580:5588  _BACKING */\n      immutable(\"0x90a0a53a674dda23f50c6d7df8f61e9f3e3cf11a0ea21d6964915bb3c7f9b219\")\n        /* \"pTOKEN2.sol\":5598:5602  this */\n      address\n        /* \"pTOKEN2.sol\":5605:5615  msg.sender */\n      caller\n        /* \"pTOKEN2.sol\":5617:5632  backingToSender */\n      dup5\n        /* \"pTOKEN2.sol\":5553:5579  SafeERC20.safeTransferFrom */\n      tag_194\n        /* \"pTOKEN2.sol\":5553:5633  SafeERC20.safeTransferFrom(_BACKING, address(this), msg.sender, backingToSender) */\n      jump\t// in\n    tag_274:\n        /* \"pTOKEN2.sol\":5691:5698  _amount */\n      dup4\n        /* \"pTOKEN2.sol\":5683:5689  pToken */\n      dup4\n        /* \"pTOKEN2.sol\":5666:5681  block.timestamp */\n      timestamp\n        /* \"pTOKEN2.sol\":5649:5699  PriceAfterRedeem(block.timestamp, pToken, _amount) */\n      0x1be07ad598d802b0a04e208e5f3dfe7eaf27339c0f0e4a75ddba517bbe5c8f36\n      mload(0x40)\n      mload(0x40)\n      dup1\n      swap2\n      sub\n      swap1\n      log4\n        /* \"pTOKEN2.sol\":5099:5706  {... */\n      pop\n      pop\n      pop\n        /* \"@openzeppelin/contracts/utils/ReentrancyGuard.sol\":2398:2418  _nonReentrantAfter() */\n      tag_275\n        /* \"@openzeppelin/contracts/utils/ReentrancyGuard.sol\":2398:2416  _nonReentrantAfter */\n      tag_201\n        /* \"@openzeppelin/contracts/utils/ReentrancyGuard.sol\":2398:2418  _nonReentrantAfter() */\n      jump\t// in\n    tag_275:\n        /* \"pTOKEN2.sol\":5044:5706  function redeem(uint256 _amount) external nonReentrant {... */\n      pop\n      jump\t// out\n        /* \"@openzeppelin/contracts/token/ERC20/ERC20.sol\":3846:3986  function allowance(address owner, address spender) public view virtual returns (uint256) {... */\n    tag_136:\n        /* \"@openzeppelin/contracts/token/ERC20/ERC20.sol\":3926:3933  uint256 */\n      0x00\n        /* \"@openzeppelin/contracts/token/ERC20/ERC20.sol\":3952:3963  _allowances */\n      0x01\n        /* \"@openzeppelin/contracts/token/ERC20/ERC20.sol\":3952:3970  _allowances[owner] */\n      0x00\n        /* \"@openzeppelin/contracts/token/ERC20/ERC20.sol\":3964:3969  owner */\n      dup5\n        /* \"@openzeppelin/contracts/token/ERC20/ERC20.sol\":3952:3970  _allowances[owner] */\n      0xffffffffffffffffffffffffffffffffffffffff\n      and\n      0xffffffffffffffffffffffffffffffffffffffff\n      and\n      dup2\n      mstore\n      0x20\n      add\n      swap1\n      dup2\n      mstore\n      0x20\n      add\n      0x00\n      keccak256\n        /* \"@openzeppelin/contracts/token/ERC20/ERC20.sol\":3952:3979  _allowances[owner][spender] */\n      0x00\n        /* \"@openzeppelin/contracts/token/ERC20/ERC20.sol\":3971:3978  spender */\n      dup4\n        /* \"@openzeppelin/contracts/token/ERC20/ERC20.sol\":3952:3979  _allowances[owner][spender] */\n      0xffffffffffffffffffffffffffffffffffffffff\n      and\n      0xffffffffffffffffffffffffffffffffffffffff\n      and\n      dup2\n      mstore\n      0x20\n      add\n      swap1\n      dup2\n      mstore\n      0x20\n      add\n      0x00\n      keccak256\n      sload\n        /* \"@openzeppelin/contracts/token/ERC20/ERC20.sol\":3945:3979  return _allowances[owner][spender] */\n      swap1\n      pop\n        /* \"@openzeppelin/contracts/token/ERC20/ERC20.sol\":3846:3986  function allowance(address owner, address spender) public view virtual returns (uint256) {... */\n      swap3\n      swap2\n      pop\n      pop\n      jump\t// out\n        /* \"pTOKEN2.sol\":1957:1984  uint256 public totalBacking */\n    tag_139:\n      sload(0x09)\n      dup2\n      jump\t// out\n        /* \"@openzeppelin/contracts/access/Ownable.sol\":2543:2758  function transferOwnership(address newOwner) public virtual onlyOwner {... */\n    tag_143:\n        /* \"@openzeppelin/contracts/access/Ownable.sol\":1531:1544  _checkOwner() */\n      tag_278\n        /* \"@openzeppelin/contracts/access/Ownable.sol\":1531:1542  _checkOwner */\n      tag_161\n        /* \"@openzeppelin/contracts/access/Ownable.sol\":1531:1544  _checkOwner() */\n      jump\t// in\n    tag_278:\n        /* \"@openzeppelin/contracts/access/Ownable.sol\":2647:2648  0 */\n      0x00\n        /* \"@openzeppelin/contracts/access/Ownable.sol\":2627:2649  newOwner == address(0) */\n      0xffffffffffffffffffffffffffffffffffffffff\n      and\n        /* \"@openzeppelin/contracts/access/Ownable.sol\":2627:2635  newOwner */\n      dup2\n        /* \"@openzeppelin/contracts/access/Ownable.sol\":2627:2649  newOwner == address(0) */\n      0xffffffffffffffffffffffffffffffffffffffff\n      and\n      sub\n        /* \"@openzeppelin/contracts/access/Ownable.sol\":2623:2714  if (newOwner == address(0)) {... */\n      tag_280\n      jumpi\n        /* \"@openzeppelin/contracts/access/Ownable.sol\":2700:2701  0 */\n      0x00\n        /* \"@openzeppelin/contracts/access/Ownable.sol\":2672:2703  OwnableInvalidOwner(address(0)) */\n      mload(0x40)\n      0x1e4fbdf700000000000000000000000000000000000000000000000000000000\n      dup2\n      mstore\n      0x04\n      add\n      tag_281\n      swap2\n      swap1\n      tag_108\n      jump\t// in\n    tag_281:\n      mload(0x40)\n      dup1\n      swap2\n      sub\n      swap1\n      revert\n        /* \"@openzeppelin/contracts/access/Ownable.sol\":2623:2714  if (newOwner == address(0)) {... */\n    tag_280:\n        /* \"@openzeppelin/contracts/access/Ownable.sol\":2723:2751  _transferOwnership(newOwner) */\n      tag_282\n        /* \"@openzeppelin/contracts/access/Ownable.sol\":2742:2750  newOwner */\n      dup2\n        /* \"@openzeppelin/contracts/access/Ownable.sol\":2723:2741  _transferOwnership */\n      tag_217\n        /* \"@openzeppelin/contracts/access/Ownable.sol\":2723:2751  _transferOwnership(newOwner) */\n      jump\t// in\n    tag_282:\n        /* \"@openzeppelin/contracts/access/Ownable.sol\":2543:2758  function transferOwnership(address newOwner) public virtual onlyOwner {... */\n      pop\n      jump\t// out\n        /* \"pTOKEN2.sol\":6256:6493  function setMintAndRedeemFee(uint16 _amount) external onlyOwner {... */\n    tag_146:\n        /* \"@openzeppelin/contracts/access/Ownable.sol\":1531:1544  _checkOwner() */\n      tag_284\n        /* \"@openzeppelin/contracts/access/Ownable.sol\":1531:1542  _checkOwner */\n      tag_161\n        /* \"@openzeppelin/contracts/access/Ownable.sol\":1531:1544  _checkOwner() */\n      jump\t// in\n    tag_284:\n        /* \"pTOKEN2.sol\":6343:6346  980 */\n      0x03d4\n        /* \"pTOKEN2.sol\":6333:6340  _amount */\n      dup2\n        /* \"pTOKEN2.sol\":6333:6346  _amount > 980 */\n      0xffff\n      and\n      gt\n        /* \"pTOKEN2.sol\":6333:6363  _amount > 980 || _amount < 950 */\n      dup1\n      tag_286\n      jumpi\n      pop\n        /* \"pTOKEN2.sol\":6360:6363  950 */\n      0x03b6\n        /* \"pTOKEN2.sol\":6350:6357  _amount */\n      dup2\n        /* \"pTOKEN2.sol\":6350:6363  _amount < 950 */\n      0xffff\n      and\n      lt\n        /* \"pTOKEN2.sol\":6333:6363  _amount > 980 || _amount < 950 */\n    tag_286:\n        /* \"pTOKEN2.sol\":6330:6400  if(_amount > 980 || _amount < 950) revert MintAndRedeemFeeNotInRange() */\n      iszero\n      tag_287\n      jumpi\n        /* \"pTOKEN2.sol\":6372:6400  MintAndRedeemFeeNotInRange() */\n      mload(0x40)\n      0x48565ad500000000000000000000000000000000000000000000000000000000\n      dup2\n      mstore\n      0x04\n      add\n      mload(0x40)\n      dup1\n      swap2\n      sub\n      swap1\n      revert\n        /* \"pTOKEN2.sol\":6330:6400  if(_amount > 980 || _amount < 950) revert MintAndRedeemFeeNotInRange() */\n    tag_287:\n        /* \"pTOKEN2.sol\":6432:6439  _amount */\n      dup1\n        /* \"pTOKEN2.sol\":6410:6439  MINT_AND_REDEEM_FEE = _amount */\n      0xffff\n      and\n        /* \"pTOKEN2.sol\":6410:6429  MINT_AND_REDEEM_FEE */\n      0x07\n        /* \"pTOKEN2.sol\":6410:6439  MINT_AND_REDEEM_FEE = _amount */\n      dup2\n      swap1\n      sstore\n      pop\n        /* \"pTOKEN2.sol\":6454:6486  MintAndRedeemFeeUpdated(_amount) */\n      0xa7aaf5668e7d5e60bfa38b5d07a3178204a2d8cb16f5a03678c20f42c7954295\n        /* \"pTOKEN2.sol\":6478:6485  _amount */\n      dup2\n        /* \"pTOKEN2.sol\":6454:6486  MintAndRedeemFeeUpdated(_amount) */\n      mload(0x40)\n      tag_288\n      swap2\n      swap1\n      tag_260\n      jump\t// in\n    tag_288:\n      mload(0x40)\n      dup1\n      swap2\n      sub\n      swap1\n      log1\n        /* \"pTOKEN2.sol\":6256:6493  function setMintAndRedeemFee(uint16 _amount) external onlyOwner {... */\n      pop\n      jump\t// out\n        /* \"@openzeppelin/contracts/utils/Context.sol\":656:752  function _msgSender() internal view virtual returns (address) {... */\n    tag_156:\n        /* \"@openzeppelin/contracts/utils/Context.sol\":709:716  address */\n      0x00\n        /* \"@openzeppelin/contracts/utils/Context.sol\":735:745  msg.sender */\n      caller\n        /* \"@openzeppelin/contracts/utils/Context.sol\":728:745  return msg.sender */\n      swap1\n      pop\n        /* \"@openzeppelin/contracts/utils/Context.sol\":656:752  function _msgSender() internal view virtual returns (address) {... */\n      swap1\n      jump\t// out\n        /* \"@openzeppelin/contracts/token/ERC20/ERC20.sol\":8989:9117  function _approve(address owner, address spender, uint256 value) internal {... */\n    tag_158:\n        /* \"@openzeppelin/contracts/token/ERC20/ERC20.sol\":9073:9110  _approve(owner, spender, value, true) */\n      tag_291\n        /* \"@openzeppelin/contracts/token/ERC20/ERC20.sol\":9082:9087  owner */\n      dup4\n        /* \"@openzeppelin/contracts/token/ERC20/ERC20.sol\":9089:9096  spender */\n      dup4\n        /* \"@openzeppelin/contracts/token/ERC20/ERC20.sol\":9098:9103  value */\n      dup4\n        /* \"@openzeppelin/contracts/token/ERC20/ERC20.sol\":9105:9109  true */\n      0x01\n        /* \"@openzeppelin/contracts/token/ERC20/ERC20.sol\":9073:9081  _approve */\n      tag_292\n        /* \"@openzeppelin/contracts/token/ERC20/ERC20.sol\":9073:9110  _approve(owner, spender, value, true) */\n      jump\t// in\n    tag_291:\n        /* \"@openzeppelin/contracts/token/ERC20/ERC20.sol\":8989:9117  function _approve(address owner, address spender, uint256 value) internal {... */\n      pop\n      pop\n      pop\n      jump\t// out\n        /* \"@openzeppelin/contracts/access/Ownable.sol\":1796:1958  function _checkOwner() internal view virtual {... */\n    tag_161:\n        /* \"@openzeppelin/contracts/access/Ownable.sol\":1866:1878  _msgSender() */\n      tag_294\n        /* \"@openzeppelin/contracts/access/Ownable.sol\":1866:1876  _msgSender */\n      tag_156\n        /* \"@openzeppelin/contracts/access/Ownable.sol\":1866:1878  _msgSender() */\n      jump\t// in\n    tag_294:\n        /* \"@openzeppelin/contracts/access/Ownable.sol\":1855:1878  owner() != _msgSender() */\n      0xffffffffffffffffffffffffffffffffffffffff\n      and\n        /* \"@openzeppelin/contracts/access/Ownable.sol\":1855:1862  owner() */\n      tag_295\n        /* \"@openzeppelin/contracts/access/Ownable.sol\":1855:1860  owner */\n      tag_106\n        /* \"@openzeppelin/contracts/access/Ownable.sol\":1855:1862  owner() */\n      jump\t// in\n    tag_295:\n        /* \"@openzeppelin/contracts/access/Ownable.sol\":1855:1878  owner() != _msgSender() */\n      0xffffffffffffffffffffffffffffffffffffffff\n      and\n      eq\n        /* \"@openzeppelin/contracts/access/Ownable.sol\":1851:1952  if (owner() != _msgSender()) {... */\n      tag_296\n      jumpi\n        /* \"@openzeppelin/contracts/access/Ownable.sol\":1928:1940  _msgSender() */\n      tag_297\n        /* \"@openzeppelin/contracts/access/Ownable.sol\":1928:1938  _msgSender */\n      tag_156\n        /* \"@openzeppelin/contracts/access/Ownable.sol\":1928:1940  _msgSender() */\n      jump\t// in\n    tag_297:\n        /* \"@openzeppelin/contracts/access/Ownable.sol\":1901:1941  OwnableUnauthorizedAccount(_msgSender()) */\n      mload(0x40)\n      0x118cdaa700000000000000000000000000000000000000000000000000000000\n      dup2\n      mstore\n      0x04\n      add\n      tag_298\n      swap2\n      swap1\n      tag_108\n      jump\t// in\n    tag_298:\n      mload(0x40)\n      dup1\n      swap2\n      sub\n      swap1\n      revert\n        /* \"@openzeppelin/contracts/access/Ownable.sol\":1851:1952  if (owner() != _msgSender()) {... */\n    tag_296:\n        /* \"@openzeppelin/contracts/access/Ownable.sol\":1796:1958  function _checkOwner() internal view virtual {... */\n      jump\t// out\n        /* \"@openzeppelin/contracts/token/ERC20/ERC20.sol\":10663:11140  function _spendAllowance(address owner, address spender, uint256 value) internal virtual {... */\n    tag_173:\n        /* \"@openzeppelin/contracts/token/ERC20/ERC20.sol\":10762:10786  uint256 currentAllowance */\n      0x00\n        /* \"@openzeppelin/contracts/token/ERC20/ERC20.sol\":10789:10814  allowance(owner, spender) */\n      tag_300\n        /* \"@openzeppelin/contracts/token/ERC20/ERC20.sol\":10799:10804  owner */\n      dup5\n        /* \"@openzeppelin/contracts/token/ERC20/ERC20.sol\":10806:10813  spender */\n      dup5\n        /* \"@openzeppelin/contracts/token/ERC20/ERC20.sol\":10789:10798  allowance */\n      tag_136\n        /* \"@openzeppelin/contracts/token/ERC20/ERC20.sol\":10789:10814  allowance(owner, spender) */\n      jump\t// in\n    tag_300:\n        /* \"@openzeppelin/contracts/token/ERC20/ERC20.sol\":10762:10814  uint256 currentAllowance = allowance(owner, spender) */\n      swap1\n      pop\n        /* \"@openzeppelin/contracts/token/ERC20/ERC20.sol\":10848:10865  type(uint256).max */\n      0xffffffffffffffffffffffffffffffffffffffffffffffffffffffffffffffff\n        /* \"@openzeppelin/contracts/token/ERC20/ERC20.sol\":10828:10844  currentAllowance */\n      dup2\n        /* \"@openzeppelin/contracts/token/ERC20/ERC20.sol\":10828:10865  currentAllowance != type(uint256).max */\n      eq\n        /* \"@openzeppelin/contracts/token/ERC20/ERC20.sol\":10824:11134  if (currentAllowance != type(uint256).max) {... */\n      tag_301\n      jumpi\n        /* \"@openzeppelin/contracts/token/ERC20/ERC20.sol\":10904:10909  value */\n      dup2\n        /* \"@openzeppelin/contracts/token/ERC20/ERC20.sol\":10885:10901  currentAllowance */\n      dup2\n        /* \"@openzeppelin/contracts/token/ERC20/ERC20.sol\":10885:10909  currentAllowance < value */\n      lt\n        /* \"@openzeppelin/contracts/token/ERC20/ERC20.sol\":10881:11011  if (currentAllowance < value) {... */\n      iszero\n      tag_302\n      jumpi\n        /* \"@openzeppelin/contracts/token/ERC20/ERC20.sol\":10963:10970  spender */\n      dup3\n        /* \"@openzeppelin/contracts/token/ERC20/ERC20.sol\":10972:10988  currentAllowance */\n      dup2\n        /* \"@openzeppelin/contracts/token/ERC20/ERC20.sol\":10990:10995  value */\n      dup4\n        /* \"@openzeppelin/contracts/token/ERC20/ERC20.sol\":10936:10996  ERC20InsufficientAllowance(spender, currentAllowance, value) */\n      mload(0x40)\n      0xfb8f41b200000000000000000000000000000000000000000000000000000000\n      dup2\n      mstore\n      0x04\n      add\n      tag_303\n      swap4\n      swap3\n      swap2\n      swap1\n      tag_304\n      jump\t// in\n    tag_303:\n      mload(0x40)\n      dup1\n      swap2\n      sub\n      swap1\n      revert\n        /* \"@openzeppelin/contracts/token/ERC20/ERC20.sol\":10881:11011  if (currentAllowance < value) {... */\n    tag_302:\n        /* \"@openzeppelin/contracts/token/ERC20/ERC20.sol\":11052:11109  _approve(owner, spender, currentAllowance - value, false) */\n      tag_305\n        /* \"@openzeppelin/contracts/token/ERC20/ERC20.sol\":11061:11066  owner */\n      dup5\n        /* \"@openzeppelin/contracts/token/ERC20/ERC20.sol\":11068:11075  spender */\n      dup5\n        /* \"@openzeppelin/contracts/token/ERC20/ERC20.sol\":11096:11101  value */\n      dup5\n        /* \"@openzeppelin/contracts/token/ERC20/ERC20.sol\":11077:11093  currentAllowance */\n      dup5\n        /* \"@openzeppelin/contracts/token/ERC20/ERC20.sol\":11077:11101  currentAllowance - value */\n      sub\n        /* \"@openzeppelin/contracts/token/ERC20/ERC20.sol\":11103:11108  false */\n      0x00\n        /* \"@openzeppelin/contracts/token/ERC20/ERC20.sol\":11052:11060  _approve */\n      tag_292\n        /* \"@openzeppelin/contracts/token/ERC20/ERC20.sol\":11052:11109  _approve(owner, spender, currentAllowance - value, false) */\n      jump\t// in\n    tag_305:\n        /* \"@openzeppelin/contracts/token/ERC20/ERC20.sol\":10824:11134  if (currentAllowance != type(uint256).max) {... */\n    tag_301:\n        /* \"@openzeppelin/contracts/token/ERC20/ERC20.sol\":10752:11140  {... */\n      pop\n        /* \"@openzeppelin/contracts/token/ERC20/ERC20.sol\":10663:11140  function _spendAllowance(address owner, address spender, uint256 value) internal virtual {... */\n      pop\n      pop\n      pop\n      jump\t// out\n        /* \"@openzeppelin/contracts/token/ERC20/ERC20.sol\":5656:5956  function _transfer(address from, address to, uint256 value) internal {... */\n    tag_175:\n        /* \"@openzeppelin/contracts/token/ERC20/ERC20.sol\":5755:5756  0 */\n      0x00\n        /* \"@openzeppelin/contracts/token/ERC20/ERC20.sol\":5739:5757  from == address(0) */\n      0xffffffffffffffffffffffffffffffffffffffff\n      and\n        /* \"@openzeppelin/contracts/token/ERC20/ERC20.sol\":5739:5743  from */\n      dup4\n        /* \"@openzeppelin/contracts/token/ERC20/ERC20.sol\":5739:5757  from == address(0) */\n      0xffffffffffffffffffffffffffffffffffffffff\n      and\n      sub\n        /* \"@openzeppelin/contracts/token/ERC20/ERC20.sol\":5735:5821  if (from == address(0)) {... */\n      tag_307\n      jumpi\n        /* \"@openzeppelin/contracts/token/ERC20/ERC20.sol\":5807:5808  0 */\n      0x00\n        /* \"@openzeppelin/contracts/token/ERC20/ERC20.sol\":5780:5810  ERC20InvalidSender(address(0)) */\n      mload(0x40)\n      0x96c6fd1e00000000000000000000000000000000000000000000000000000000\n      dup2\n      mstore\n      0x04\n      add\n      tag_308\n      swap2\n      swap1\n      tag_108\n      jump\t// in\n    tag_308:\n      mload(0x40)\n      dup1\n      swap2\n      sub\n      swap1\n      revert\n        /* \"@openzeppelin/contracts/token/ERC20/ERC20.sol\":5735:5821  if (from == address(0)) {... */\n    tag_307:\n        /* \"@openzeppelin/contracts/token/ERC20/ERC20.sol\":5848:5849  0 */\n      0x00\n        /* \"@openzeppelin/contracts/token/ERC20/ERC20.sol\":5834:5850  to == address(0) */\n      0xffffffffffffffffffffffffffffffffffffffff\n      and\n        /* \"@openzeppelin/contracts/token/ERC20/ERC20.sol\":5834:5836  to */\n      dup3\n        /* \"@openzeppelin/contracts/token/ERC20/ERC20.sol\":5834:5850  to == address(0) */\n      0xffffffffffffffffffffffffffffffffffffffff\n      and\n      sub\n        /* \"@openzeppelin/contracts/token/ERC20/ERC20.sol\":5830:5916  if (to == address(0)) {... */\n      tag_309\n      jumpi\n        /* \"@openzeppelin/contracts/token/ERC20/ERC20.sol\":5902:5903  0 */\n      0x00\n        /* \"@openzeppelin/contracts/token/ERC20/ERC20.sol\":5873:5905  ERC20InvalidReceiver(address(0)) */\n      mload(0x40)\n      0xec442f0500000000000000000000000000000000000000000000000000000000\n      dup2\n      mstore\n      0x04\n      add\n      tag_310\n      swap2\n      swap1\n      tag_108\n      jump\t// in\n    tag_310:\n      mload(0x40)\n      dup1\n      swap2\n      sub\n      swap1\n      revert\n        /* \"@openzeppelin/contracts/token/ERC20/ERC20.sol\":5830:5916  if (to == address(0)) {... */\n    tag_309:\n        /* \"@openzeppelin/contracts/token/ERC20/ERC20.sol\":5925:5949  _update(from, to, value) */\n      tag_311\n        /* \"@openzeppelin/contracts/token/ERC20/ERC20.sol\":5933:5937  from */\n      dup4\n        /* \"@openzeppelin/contracts/token/ERC20/ERC20.sol\":5939:5941  to */\n      dup4\n        /* \"@openzeppelin/contracts/token/ERC20/ERC20.sol\":5943:5948  value */\n      dup4\n        /* \"@openzeppelin/contracts/token/ERC20/ERC20.sol\":5925:5932  _update */\n      tag_312\n        /* \"@openzeppelin/contracts/token/ERC20/ERC20.sol\":5925:5949  _update(from, to, value) */\n      jump\t// in\n    tag_311:\n        /* \"@openzeppelin/contracts/token/ERC20/ERC20.sol\":5656:5956  function _transfer(address from, address to, uint256 value) internal {... */\n      pop\n      pop\n      pop\n      jump\t// out\n        /* \"@openzeppelin/contracts/utils/ReentrancyGuard.sol\":2431:2738  function _nonReentrantBefore() private {... */\n    tag_182:\n        /* \"@openzeppelin/contracts/utils/ReentrancyGuard.sol\":1755:1756  2 */\n      0x02\n        /* \"@openzeppelin/contracts/utils/ReentrancyGuard.sol\":2558:2565  _status */\n      sload(0x06)\n        /* \"@openzeppelin/contracts/utils/ReentrancyGuard.sol\":2558:2576  _status == ENTERED */\n      sub\n        /* \"@openzeppelin/contracts/utils/ReentrancyGuard.sol\":2554:2640  if (_status == ENTERED) {... */\n      tag_314\n      jumpi\n        /* \"@openzeppelin/contracts/utils/ReentrancyGuard.sol\":2599:2629  ReentrancyGuardReentrantCall() */\n      mload(0x40)\n      0x3ee5aeb500000000000000000000000000000000000000000000000000000000\n      dup2\n      mstore\n      0x04\n      add\n      mload(0x40)\n      dup1\n      swap2\n      sub\n      swap1\n      revert\n        /* \"@openzeppelin/contracts/utils/ReentrancyGuard.sol\":2554:2640  if (_status == ENTERED) {... */\n    tag_314:\n        /* \"@openzeppelin/contracts/utils/ReentrancyGuard.sol\":1755:1756  2 */\n      0x02\n        /* \"@openzeppelin/contracts/utils/ReentrancyGuard.sol\":2714:2721  _status */\n      0x06\n        /* \"@openzeppelin/contracts/utils/ReentrancyGuard.sol\":2714:2731  _status = ENTERED */\n      dup2\n      swap1\n      sstore\n      pop\n        /* \"@openzeppelin/contracts/utils/ReentrancyGuard.sol\":2431:2738  function _nonReentrantBefore() private {... */\n      jump\t// out\n        /* \"pTOKEN2.sol\":7855:7993  function _BACKINGtoPTOKEN(uint256 _value) private view returns (uint256) {... */\n    tag_186:\n        /* \"pTOKEN2.sol\":7919:7926  uint256 */\n      0x00\n        /* \"pTOKEN2.sol\":7973:7985  totalBacking */\n      sload(0x09)\n        /* \"pTOKEN2.sol\":7955:7968  totalSupply() */\n      tag_316\n        /* \"pTOKEN2.sol\":7955:7966  totalSupply */\n      tag_57\n        /* \"pTOKEN2.sol\":7955:7968  totalSupply() */\n      jump\t// in\n    tag_316:\n        /* \"pTOKEN2.sol\":7946:7952  _value */\n      dup4\n        /* \"pTOKEN2.sol\":7946:7968  _value * totalSupply() */\n      tag_317\n      swap2\n      swap1\n      tag_197\n      jump\t// in\n    tag_317:\n        /* \"pTOKEN2.sol\":7945:7986  (_value * totalSupply()) / (totalBacking) */\n      tag_318\n      swap2\n      swap1\n      tag_188\n      jump\t// in\n    tag_318:\n        /* \"pTOKEN2.sol\":7938:7986  return (_value * totalSupply()) / (totalBacking) */\n      swap1\n      pop\n        /* \"pTOKEN2.sol\":7855:7993  function _BACKINGtoPTOKEN(uint256 _value) private view returns (uint256) {... */\n      swap2\n      swap1\n      pop\n      jump\t// out\n        /* \"@openzeppelin/contracts/token/ERC20/utils/SafeERC20.sol\":1702:1890  function safeTransferFrom(IERC20 token, address from, address to, uint256 value) internal {... */\n    tag_194:\n        /* \"@openzeppelin/contracts/token/ERC20/utils/SafeERC20.sol\":1802:1883  _callOptionalReturn(token, abi.encodeCall(token.transferFrom, (from, to, value))) */\n      tag_320\n        /* \"@openzeppelin/contracts/token/ERC20/utils/SafeERC20.sol\":1822:1827  token */\n      dup5\n        /* \"@openzeppelin/contracts/token/ERC20/utils/SafeERC20.sol\":1844:1849  token */\n      dup6\n        /* \"@openzeppelin/contracts/token/ERC20/utils/SafeERC20.sol\":1844:1862  token.transferFrom */\n      0xffffffffffffffffffffffffffffffffffffffff\n      and\n      0x23b872dd\n        /* \"@openzeppelin/contracts/token/ERC20/utils/SafeERC20.sol\":1865:1869  from */\n      dup7\n        /* \"@openzeppelin/contracts/token/ERC20/utils/SafeERC20.sol\":1871:1873  to */\n      dup7\n        /* \"@openzeppelin/contracts/token/ERC20/utils/SafeERC20.sol\":1875:1880  value */\n      dup7\n        /* \"@openzeppelin/contracts/token/ERC20/utils/SafeERC20.sol\":1829:1882  abi.encodeCall(token.transferFrom, (from, to, value)) */\n      add(0x24, mload(0x40))\n      tag_321\n      swap4\n      swap3\n      swap2\n      swap1\n      tag_322\n      jump\t// in\n    tag_321:\n      mload(0x40)\n      0x20\n      dup2\n      dup4\n      sub\n      sub\n      dup2\n      mstore\n      swap1\n      0x40\n      mstore\n      swap2\n      pop\n      0xe0\n      shl\n      0x20\n      dup3\n      add\n      dup1\n      mload\n      0xffffffffffffffffffffffffffffffffffffffffffffffffffffffff\n      dup4\n      dup2\n      dup4\n      and\n      or\n      dup4\n      mstore\n      pop\n      pop\n      pop\n      pop\n        /* \"@openzeppelin/contracts/token/ERC20/utils/SafeERC20.sol\":1802:1821  _callOptionalReturn */\n      tag_323\n        /* \"@openzeppelin/contracts/token/ERC20/utils/SafeERC20.sol\":1802:1883  _callOptionalReturn(token, abi.encodeCall(token.transferFrom, (from, to, value))) */\n      jump\t// in\n    tag_320:\n        /* \"@openzeppelin/contracts/token/ERC20/utils/SafeERC20.sol\":1702:1890  function safeTransferFrom(IERC20 token, address from, address to, uint256 value) internal {... */\n      pop\n      pop\n      pop\n      pop\n      jump\t// out\n        /* \"@openzeppelin/contracts/token/ERC20/ERC20.sol\":7721:7929  function _mint(address account, uint256 value) internal {... */\n    tag_199:\n        /* \"@openzeppelin/contracts/token/ERC20/ERC20.sol\":7810:7811  0 */\n      0x00\n        /* \"@openzeppelin/contracts/token/ERC20/ERC20.sol\":7791:7812  account == address(0) */\n      0xffffffffffffffffffffffffffffffffffffffff\n      and\n        /* \"@openzeppelin/contracts/token/ERC20/ERC20.sol\":7791:7798  account */\n      dup3\n        /* \"@openzeppelin/contracts/token/ERC20/ERC20.sol\":7791:7812  account == address(0) */\n      0xffffffffffffffffffffffffffffffffffffffff\n      and\n      sub\n        /* \"@openzeppelin/contracts/token/ERC20/ERC20.sol\":7787:7878  if (account == address(0)) {... */\n      tag_325\n      jumpi\n        /* \"@openzeppelin/contracts/token/ERC20/ERC20.sol\":7864:7865  0 */\n      0x00\n        /* \"@openzeppelin/contracts/token/ERC20/ERC20.sol\":7835:7867  ERC20InvalidReceiver(address(0)) */\n      mload(0x40)\n      0xec442f0500000000000000000000000000000000000000000000000000000000\n      dup2\n      mstore\n      0x04\n      add\n      tag_326\n      swap2\n      swap1\n      tag_108\n      jump\t// in\n    tag_326:\n      mload(0x40)\n      dup1\n      swap2\n      sub\n      swap1\n      revert\n        /* \"@openzeppelin/contracts/token/ERC20/ERC20.sol\":7787:7878  if (account == address(0)) {... */\n    tag_325:\n        /* \"@openzeppelin/contracts/token/ERC20/ERC20.sol\":7887:7922  _update(address(0), account, value) */\n      tag_327\n        /* \"@openzeppelin/contracts/token/ERC20/ERC20.sol\":7903:7904  0 */\n      0x00\n        /* \"@openzeppelin/contracts/token/ERC20/ERC20.sol\":7907:7914  account */\n      dup4\n        /* \"@openzeppelin/contracts/token/ERC20/ERC20.sol\":7916:7921  value */\n      dup4\n        /* \"@openzeppelin/contracts/token/ERC20/ERC20.sol\":7887:7894  _update */\n      tag_312\n        /* \"@openzeppelin/contracts/token/ERC20/ERC20.sol\":7887:7922  _update(address(0), account, value) */\n      jump\t// in\n    tag_327:\n        /* \"@openzeppelin/contracts/token/ERC20/ERC20.sol\":7721:7929  function _mint(address account, uint256 value) internal {... */\n      pop\n      pop\n      jump\t// out\n        /* \"@openzeppelin/contracts/utils/ReentrancyGuard.sol\":2744:2952  function _nonReentrantAfter() private {... */\n    tag_201:\n        /* \"@openzeppelin/contracts/utils/ReentrancyGuard.sol\":1713:1714  1 */\n      0x01\n        /* \"@openzeppelin/contracts/utils/ReentrancyGuard.sol\":2924:2931  _status */\n      0x06\n        /* \"@openzeppelin/contracts/utils/ReentrancyGuard.sol\":2924:2945  _status = NOT_ENTERED */\n      dup2\n      swap1\n      sstore\n      pop\n        /* \"@openzeppelin/contracts/utils/ReentrancyGuard.sol\":2744:2952  function _nonReentrantAfter() private {... */\n      jump\t// out\n        /* \"@openzeppelin/contracts/token/ERC20/ERC20.sol\":8247:8453  function _burn(address account, uint256 value) internal {... */\n    tag_205:\n        /* \"@openzeppelin/contracts/token/ERC20/ERC20.sol\":8336:8337  0 */\n      0x00\n        /* \"@openzeppelin/contracts/token/ERC20/ERC20.sol\":8317:8338  account == address(0) */\n      0xffffffffffffffffffffffffffffffffffffffff\n      and\n        /* \"@openzeppelin/contracts/token/ERC20/ERC20.sol\":8317:8324  account */\n      dup3\n        /* \"@openzeppelin/contracts/token/ERC20/ERC20.sol\":8317:8338  account == address(0) */\n      0xffffffffffffffffffffffffffffffffffffffff\n      and\n      sub\n        /* \"@openzeppelin/contracts/token/ERC20/ERC20.sol\":8313:8402  if (account == address(0)) {... */\n      tag_330\n      jumpi\n        /* \"@openzeppelin/contracts/token/ERC20/ERC20.sol\":8388:8389  0 */\n      0x00\n        /* \"@openzeppelin/contracts/token/ERC20/ERC20.sol\":8361:8391  ERC20InvalidSender(address(0)) */\n      mload(0x40)\n      0x96c6fd1e00000000000000000000000000000000000000000000000000000000\n      dup2\n      mstore\n      0x04\n      add\n      tag_331\n      swap2\n      swap1\n      tag_108\n      jump\t// in\n    tag_331:\n      mload(0x40)\n      dup1\n      swap2\n      sub\n      swap1\n      revert\n        /* \"@openzeppelin/contracts/token/ERC20/ERC20.sol\":8313:8402  if (account == address(0)) {... */\n    tag_330:\n        /* \"@openzeppelin/contracts/token/ERC20/ERC20.sol\":8411:8446  _update(account, address(0), value) */\n      tag_332\n        /* \"@openzeppelin/contracts/token/ERC20/ERC20.sol\":8419:8426  account */\n      dup3\n        /* \"@openzeppelin/contracts/token/ERC20/ERC20.sol\":8436:8437  0 */\n      0x00\n        /* \"@openzeppelin/contracts/token/ERC20/ERC20.sol\":8440:8445  value */\n      dup4\n        /* \"@openzeppelin/contracts/token/ERC20/ERC20.sol\":8411:8418  _update */\n      tag_312\n        /* \"@openzeppelin/contracts/token/ERC20/ERC20.sol\":8411:8446  _update(account, address(0), value) */\n      jump\t// in\n    tag_332:\n        /* \"@openzeppelin/contracts/token/ERC20/ERC20.sol\":8247:8453  function _burn(address account, uint256 value) internal {... */\n      pop\n      pop\n      jump\t// out\n        /* \"@openzeppelin/contracts/access/Ownable.sol\":2912:3099  function _transferOwnership(address newOwner) internal virtual {... */\n    tag_217:\n        /* \"@openzeppelin/contracts/access/Ownable.sol\":2985:3001  address oldOwner */\n      0x00\n        /* \"@openzeppelin/contracts/access/Ownable.sol\":3004:3010  _owner */\n      0x05\n      0x00\n      swap1\n      sload\n      swap1\n      0x0100\n      exp\n      swap1\n      div\n      0xffffffffffffffffffffffffffffffffffffffff\n      and\n        /* \"@openzeppelin/contracts/access/Ownable.sol\":2985:3010  address oldOwner = _owner */\n      swap1\n      pop\n        /* \"@openzeppelin/contracts/access/Ownable.sol\":3029:3037  newOwner */\n      dup2\n        /* \"@openzeppelin/contracts/access/Ownable.sol\":3020:3026  _owner */\n      0x05\n      0x00\n        /* \"@openzeppelin/contracts/access/Ownable.sol\":3020:3037  _owner = newOwner */\n      0x0100\n      exp\n      dup2\n      sload\n      dup2\n      0xffffffffffffffffffffffffffffffffffffffff\n      mul\n      not\n      and\n      swap1\n      dup4\n      0xffffffffffffffffffffffffffffffffffffffff\n      and\n      mul\n      or\n      swap1\n      sstore\n      pop\n        /* \"@openzeppelin/contracts/access/Ownable.sol\":3083:3091  newOwner */\n      dup2\n        /* \"@openzeppelin/contracts/access/Ownable.sol\":3052:3092  OwnershipTransferred(oldOwner, newOwner) */\n      0xffffffffffffffffffffffffffffffffffffffff\n      and\n        /* \"@openzeppelin/contracts/access/Ownable.sol\":3073:3081  oldOwner */\n      dup2\n        /* \"@openzeppelin/contracts/access/Ownable.sol\":3052:3092  OwnershipTransferred(oldOwner, newOwner) */\n      0xffffffffffffffffffffffffffffffffffffffff\n      and\n      0x8be0079c531659141344cd1fd0a4f28419497f9722a3daafe3b4186f6b6457e0\n      mload(0x40)\n      mload(0x40)\n      dup1\n      swap2\n      sub\n      swap1\n      log3\n        /* \"@openzeppelin/contracts/access/Ownable.sol\":2975:3099  {... */\n      pop\n        /* \"@openzeppelin/contracts/access/Ownable.sol\":2912:3099  function _transferOwnership(address newOwner) internal virtual {... */\n      pop\n      jump\t// out\n        /* \"pTOKEN2.sol\":8327:8547  function _assemblyOwnerNotZero(address _addr) private pure {... */\n    tag_226:\n        /* \"pTOKEN2.sol\":8429:8434  _addr */\n      dup1\n        /* \"pTOKEN2.sol\":8419:8531  if iszero(_addr) {... */\n      tag_335\n      jumpi\n        /* \"pTOKEN2.sol\":8467:8481  \"Zero address\" */\n      0x5a65726f20616464726573730000000000000000000000000000000000000000\n        /* \"pTOKEN2.sol\":8461:8465  0x00 */\n      0x00\n        /* \"pTOKEN2.sol\":8454:8482  mstore(0x00, \"Zero address\") */\n      mstore\n        /* \"pTOKEN2.sol\":8512:8516  0x20 */\n      0x20\n        /* \"pTOKEN2.sol\":8506:8510  0x00 */\n      0x00\n        /* \"pTOKEN2.sol\":8499:8517  revert(0x00, 0x20) */\n      revert\n        /* \"pTOKEN2.sol\":8419:8531  if iszero(_addr) {... */\n    tag_335:\n        /* \"pTOKEN2.sol\":8327:8547  function _assemblyOwnerNotZero(address _addr) private pure {... */\n      pop\n      jump\t// out\n        /* \"pTOKEN2.sol\":7550:7686  function _PTOKENtoBACKING(uint256 _value) private view returns (uint256) {... */\n    tag_266:\n        /* \"pTOKEN2.sol\":7614:7621  uint256 */\n      0x00\n        /* \"pTOKEN2.sol\":7666:7679  totalSupply() */\n      tag_337\n        /* \"pTOKEN2.sol\":7666:7677  totalSupply */\n      tag_57\n        /* \"pTOKEN2.sol\":7666:7679  totalSupply() */\n      jump\t// in\n    tag_337:\n        /* \"pTOKEN2.sol\":7650:7662  totalBacking */\n      sload(0x09)\n        /* \"pTOKEN2.sol\":7641:7647  _value */\n      dup4\n        /* \"pTOKEN2.sol\":7641:7662  _value * totalBacking */\n      tag_338\n      swap2\n      swap1\n      tag_197\n      jump\t// in\n    tag_338:\n        /* \"pTOKEN2.sol\":7640:7679  (_value * totalBacking) / totalSupply() */\n      tag_339\n      swap2\n      swap1\n      tag_188\n      jump\t// in\n    tag_339:\n        /* \"pTOKEN2.sol\":7633:7679  return (_value * totalBacking) / totalSupply() */\n      swap1\n      pop\n        /* \"pTOKEN2.sol\":7550:7686  function _PTOKENtoBACKING(uint256 _value) private view returns (uint256) {... */\n      swap2\n      swap1\n      pop\n      jump\t// out\n        /* \"@openzeppelin/contracts/token/ERC20/ERC20.sol\":9949:10381  function _approve(address owner, address spender, uint256 value, bool emitEvent) internal virtual {... */\n    tag_292:\n        /* \"@openzeppelin/contracts/token/ERC20/ERC20.sol\":10078:10079  0 */\n      0x00\n        /* \"@openzeppelin/contracts/token/ERC20/ERC20.sol\":10061:10080  owner == address(0) */\n      0xffffffffffffffffffffffffffffffffffffffff\n      and\n        /* \"@openzeppelin/contracts/token/ERC20/ERC20.sol\":10061:10066  owner */\n      dup5\n        /* \"@openzeppelin/contracts/token/ERC20/ERC20.sol\":10061:10080  owner == address(0) */\n      0xffffffffffffffffffffffffffffffffffffffff\n      and\n      sub\n        /* \"@openzeppelin/contracts/token/ERC20/ERC20.sol\":10057:10146  if (owner == address(0)) {... */\n      tag_341\n      jumpi\n        /* \"@openzeppelin/contracts/token/ERC20/ERC20.sol\":10132:10133  0 */\n      0x00\n        /* \"@openzeppelin/contracts/token/ERC20/ERC20.sol\":10103:10135  ERC20InvalidApprover(address(0)) */\n      mload(0x40)\n      0xe602df0500000000000000000000000000000000000000000000000000000000\n      dup2\n      mstore\n      0x04\n      add\n      tag_342\n      swap2\n      swap1\n      tag_108\n      jump\t// in\n    tag_342:\n      mload(0x40)\n      dup1\n      swap2\n      sub\n      swap1\n      revert\n        /* \"@openzeppelin/contracts/token/ERC20/ERC20.sol\":10057:10146  if (owner == address(0)) {... */\n    tag_341:\n        /* \"@openzeppelin/contracts/token/ERC20/ERC20.sol\":10178:10179  0 */\n      0x00\n        /* \"@openzeppelin/contracts/token/ERC20/ERC20.sol\":10159:10180  spender == address(0) */\n      0xffffffffffffffffffffffffffffffffffffffff\n      and\n        /* \"@openzeppelin/contracts/token/ERC20/ERC20.sol\":10159:10166  spender */\n      dup4\n        /* \"@openzeppelin/contracts/token/ERC20/ERC20.sol\":10159:10180  spender == address(0) */\n      0xffffffffffffffffffffffffffffffffffffffff\n      and\n      sub\n        /* \"@openzeppelin/contracts/token/ERC20/ERC20.sol\":10155:10245  if (spender == address(0)) {... */\n      tag_343\n      jumpi\n        /* \"@openzeppelin/contracts/token/ERC20/ERC20.sol\":10231:10232  0 */\n      0x00\n        /* \"@openzeppelin/contracts/token/ERC20/ERC20.sol\":10203:10234  ERC20InvalidSpender(address(0)) */\n      mload(0x40)\n      0x94280d6200000000000000000000000000000000000000000000000000000000\n      dup2\n      mstore\n      0x04\n      add\n      tag_344\n      swap2\n      swap1\n      tag_108\n      jump\t// in\n    tag_344:\n      mload(0x40)\n      dup1\n      swap2\n      sub\n      swap1\n      revert\n        /* \"@openzeppelin/contracts/token/ERC20/ERC20.sol\":10155:10245  if (spender == address(0)) {... */\n    tag_343:\n        /* \"@openzeppelin/contracts/token/ERC20/ERC20.sol\":10284:10289  value */\n      dup2\n        /* \"@openzeppelin/contracts/token/ERC20/ERC20.sol\":10254:10265  _allowances */\n      0x01\n        /* \"@openzeppelin/contracts/token/ERC20/ERC20.sol\":10254:10272  _allowances[owner] */\n      0x00\n        /* \"@openzeppelin/contracts/token/ERC20/ERC20.sol\":10266:10271  owner */\n      dup7\n        /* \"@openzeppelin/contracts/token/ERC20/ERC20.sol\":10254:10272  _allowances[owner] */\n      0xffffffffffffffffffffffffffffffffffffffff\n      and\n      0xffffffffffffffffffffffffffffffffffffffff\n      and\n      dup2\n      mstore\n      0x20\n      add\n      swap1\n      dup2\n      mstore\n      0x20\n      add\n      0x00\n      keccak256\n        /* \"@openzeppelin/contracts/token/ERC20/ERC20.sol\":10254:10281  _allowances[owner][spender] */\n      0x00\n        /* \"@openzeppelin/contracts/token/ERC20/ERC20.sol\":10273:10280  spender */\n      dup6\n        /* \"@openzeppelin/contracts/token/ERC20/ERC20.sol\":10254:10281  _allowances[owner][spender] */\n      0xffffffffffffffffffffffffffffffffffffffff\n      and\n      0xffffffffffffffffffffffffffffffffffffffff\n      and\n      dup2\n      mstore\n      0x20\n      add\n      swap1\n      dup2\n      mstore\n      0x20\n      add\n      0x00\n      keccak256\n        /* \"@openzeppelin/contracts/token/ERC20/ERC20.sol\":10254:10289  _allowances[owner][spender] = value */\n      dup2\n      swap1\n      sstore\n      pop\n        /* \"@openzeppelin/contracts/token/ERC20/ERC20.sol\":10303:10312  emitEvent */\n      dup1\n        /* \"@openzeppelin/contracts/token/ERC20/ERC20.sol\":10299:10375  if (emitEvent) {... */\n      iszero\n      tag_345\n      jumpi\n        /* \"@openzeppelin/contracts/token/ERC20/ERC20.sol\":10349:10356  spender */\n      dup3\n        /* \"@openzeppelin/contracts/token/ERC20/ERC20.sol\":10333:10364  Approval(owner, spender, value) */\n      0xffffffffffffffffffffffffffffffffffffffff\n      and\n        /* \"@openzeppelin/contracts/token/ERC20/ERC20.sol\":10342:10347  owner */\n      dup5\n        /* \"@openzeppelin/contracts/token/ERC20/ERC20.sol\":10333:10364  Approval(owner, spender, value) */\n      0xffffffffffffffffffffffffffffffffffffffff\n      and\n      0x8c5be1e5ebec7d5bd14f71427d1e84f3dd0314c0f7b2291e5b200ac8c7c3b925\n        /* \"@openzeppelin/contracts/token/ERC20/ERC20.sol\":10358:10363  value */\n      dup5\n        /* \"@openzeppelin/contracts/token/ERC20/ERC20.sol\":10333:10364  Approval(owner, spender, value) */\n      mload(0x40)\n      tag_346\n      swap2\n      swap1\n      tag_59\n      jump\t// in\n    tag_346:\n      mload(0x40)\n      dup1\n      swap2\n      sub\n      swap1\n      log3\n        /* \"@openzeppelin/contracts/token/ERC20/ERC20.sol\":10299:10375  if (emitEvent) {... */\n    tag_345:\n        /* \"@openzeppelin/contracts/token/ERC20/ERC20.sol\":9949:10381  function _approve(address owner, address spender, uint256 value, bool emitEvent) internal virtual {... */\n      pop\n      pop\n      pop\n      pop\n      jump\t// out\n        /* \"@openzeppelin/contracts/token/ERC20/ERC20.sol\":6271:7378  function _update(address from, address to, uint256 value) internal virtual {... */\n    tag_312:\n        /* \"@openzeppelin/contracts/token/ERC20/ERC20.sol\":6376:6377  0 */\n      0x00\n        /* \"@openzeppelin/contracts/token/ERC20/ERC20.sol\":6360:6378  from == address(0) */\n      0xffffffffffffffffffffffffffffffffffffffff\n      and\n        /* \"@openzeppelin/contracts/token/ERC20/ERC20.sol\":6360:6364  from */\n      dup4\n        /* \"@openzeppelin/contracts/token/ERC20/ERC20.sol\":6360:6378  from == address(0) */\n      0xffffffffffffffffffffffffffffffffffffffff\n      and\n      sub\n        /* \"@openzeppelin/contracts/token/ERC20/ERC20.sol\":6356:6896  if (from == address(0)) {... */\n      tag_348\n      jumpi\n        /* \"@openzeppelin/contracts/token/ERC20/ERC20.sol\":6512:6517  value */\n      dup1\n        /* \"@openzeppelin/contracts/token/ERC20/ERC20.sol\":6496:6508  _totalSupply */\n      0x02\n      0x00\n        /* \"@openzeppelin/contracts/token/ERC20/ERC20.sol\":6496:6517  _totalSupply += value */\n      dup3\n      dup3\n      sload\n      tag_349\n      swap2\n      swap1\n      tag_192\n      jump\t// in\n    tag_349:\n      swap3\n      pop\n      pop\n      dup2\n      swap1\n      sstore\n      pop\n        /* \"@openzeppelin/contracts/token/ERC20/ERC20.sol\":6356:6896  if (from == address(0)) {... */\n      jump(tag_350)\n    tag_348:\n        /* \"@openzeppelin/contracts/token/ERC20/ERC20.sol\":6548:6567  uint256 fromBalance */\n      0x00\n        /* \"@openzeppelin/contracts/token/ERC20/ERC20.sol\":6570:6579  _balances */\n      dup1\n        /* \"@openzeppelin/contracts/token/ERC20/ERC20.sol\":6570:6585  _balances[from] */\n      0x00\n        /* \"@openzeppelin/contracts/token/ERC20/ERC20.sol\":6580:6584  from */\n      dup6\n        /* \"@openzeppelin/contracts/token/ERC20/ERC20.sol\":6570:6585  _balances[from] */\n      0xffffffffffffffffffffffffffffffffffffffff\n      and\n      0xffffffffffffffffffffffffffffffffffffffff\n      and\n      dup2\n      mstore\n      0x20\n      add\n      swap1\n      dup2\n      mstore\n      0x20\n      add\n      0x00\n      keccak256\n      sload\n        /* \"@openzeppelin/contracts/token/ERC20/ERC20.sol\":6548:6585  uint256 fromBalance = _balances[from] */\n      swap1\n      pop\n        /* \"@openzeppelin/contracts/token/ERC20/ERC20.sol\":6617:6622  value */\n      dup2\n        /* \"@openzeppelin/contracts/token/ERC20/ERC20.sol\":6603:6614  fromBalance */\n      dup2\n        /* \"@openzeppelin/contracts/token/ERC20/ERC20.sol\":6603:6622  fromBalance < value */\n      lt\n        /* \"@openzeppelin/contracts/token/ERC20/ERC20.sol\":6599:6714  if (fromBalance < value) {... */\n      iszero\n      tag_351\n      jumpi\n        /* \"@openzeppelin/contracts/token/ERC20/ERC20.sol\":6674:6678  from */\n      dup4\n        /* \"@openzeppelin/contracts/token/ERC20/ERC20.sol\":6680:6691  fromBalance */\n      dup2\n        /* \"@openzeppelin/contracts/token/ERC20/ERC20.sol\":6693:6698  value */\n      dup4\n        /* \"@openzeppelin/contracts/token/ERC20/ERC20.sol\":6649:6699  ERC20InsufficientBalance(from, fromBalance, value) */\n      mload(0x40)\n      0xe450d38c00000000000000000000000000000000000000000000000000000000\n      dup2\n      mstore\n      0x04\n      add\n      tag_352\n      swap4\n      swap3\n      swap2\n      swap1\n      tag_304\n      jump\t// in\n    tag_352:\n      mload(0x40)\n      dup1\n      swap2\n      sub\n      swap1\n      revert\n        /* \"@openzeppelin/contracts/token/ERC20/ERC20.sol\":6599:6714  if (fromBalance < value) {... */\n    tag_351:\n        /* \"@openzeppelin/contracts/token/ERC20/ERC20.sol\":6866:6871  value */\n      dup2\n        /* \"@openzeppelin/contracts/token/ERC20/ERC20.sol\":6852:6863  fromBalance */\n      dup2\n        /* \"@openzeppelin/contracts/token/ERC20/ERC20.sol\":6852:6871  fromBalance - value */\n      sub\n        /* \"@openzeppelin/contracts/token/ERC20/ERC20.sol\":6834:6843  _balances */\n      0x00\n        /* \"@openzeppelin/contracts/token/ERC20/ERC20.sol\":6834:6849  _balances[from] */\n      dup1\n        /* \"@openzeppelin/contracts/token/ERC20/ERC20.sol\":6844:6848  from */\n      dup7\n        /* \"@openzeppelin/contracts/token/ERC20/ERC20.sol\":6834:6849  _balances[from] */\n      0xffffffffffffffffffffffffffffffffffffffff\n      and\n      0xffffffffffffffffffffffffffffffffffffffff\n      and\n      dup2\n      mstore\n      0x20\n      add\n      swap1\n      dup2\n      mstore\n      0x20\n      add\n      0x00\n      keccak256\n        /* \"@openzeppelin/contracts/token/ERC20/ERC20.sol\":6834:6871  _balances[from] = fromBalance - value */\n      dup2\n      swap1\n      sstore\n      pop\n        /* \"@openzeppelin/contracts/token/ERC20/ERC20.sol\":6534:6896  {... */\n      pop\n        /* \"@openzeppelin/contracts/token/ERC20/ERC20.sol\":6356:6896  if (from == address(0)) {... */\n    tag_350:\n        /* \"@openzeppelin/contracts/token/ERC20/ERC20.sol\":6924:6925  0 */\n      0x00\n        /* \"@openzeppelin/contracts/token/ERC20/ERC20.sol\":6910:6926  to == address(0) */\n      0xffffffffffffffffffffffffffffffffffffffff\n      and\n        /* \"@openzeppelin/contracts/token/ERC20/ERC20.sol\":6910:6912  to */\n      dup3\n        /* \"@openzeppelin/contracts/token/ERC20/ERC20.sol\":6910:6926  to == address(0) */\n      0xffffffffffffffffffffffffffffffffffffffff\n      and\n      sub\n        /* \"@openzeppelin/contracts/token/ERC20/ERC20.sol\":6906:7331  if (to == address(0)) {... */\n      tag_353\n      jumpi\n        /* \"@openzeppelin/contracts/token/ERC20/ERC20.sol\":7089:7094  value */\n      dup1\n        /* \"@openzeppelin/contracts/token/ERC20/ERC20.sol\":7073:7085  _totalSupply */\n      0x02\n      0x00\n        /* \"@openzeppelin/contracts/token/ERC20/ERC20.sol\":7073:7094  _totalSupply -= value */\n      dup3\n      dup3\n      sload\n      sub\n      swap3\n      pop\n      pop\n      dup2\n      swap1\n      sstore\n      pop\n        /* \"@openzeppelin/contracts/token/ERC20/ERC20.sol\":6906:7331  if (to == address(0)) {... */\n      jump(tag_354)\n    tag_353:\n        /* \"@openzeppelin/contracts/token/ERC20/ERC20.sol\":7301:7306  value */\n      dup1\n        /* \"@openzeppelin/contracts/token/ERC20/ERC20.sol\":7284:7293  _balances */\n      0x00\n        /* \"@openzeppelin/contracts/token/ERC20/ERC20.sol\":7284:7297  _balances[to] */\n      dup1\n        /* \"@openzeppelin/contracts/token/ERC20/ERC20.sol\":7294:7296  to */\n      dup5\n        /* \"@openzeppelin/contracts/token/ERC20/ERC20.sol\":7284:7297  _balances[to] */\n      0xffffffffffffffffffffffffffffffffffffffff\n      and\n      0xffffffffffffffffffffffffffffffffffffffff\n      and\n      dup2\n      mstore\n      0x20\n      add\n      swap1\n      dup2\n      mstore\n      0x20\n      add\n      0x00\n      keccak256\n      0x00\n        /* \"@openzeppelin/contracts/token/ERC20/ERC20.sol\":7284:7306  _balances[to] += value */\n      dup3\n      dup3\n      sload\n      add\n      swap3\n      pop\n      pop\n      dup2\n      swap1\n      sstore\n      pop\n        /* \"@openzeppelin/contracts/token/ERC20/ERC20.sol\":6906:7331  if (to == address(0)) {... */\n    tag_354:\n        /* \"@openzeppelin/contracts/token/ERC20/ERC20.sol\":7361:7363  to */\n      dup2\n        /* \"@openzeppelin/contracts/token/ERC20/ERC20.sol\":7346:7371  Transfer(from, to, value) */\n      0xffffffffffffffffffffffffffffffffffffffff\n      and\n        /* \"@openzeppelin/contracts/token/ERC20/ERC20.sol\":7355:7359  from */\n      dup4\n        /* \"@openzeppelin/contracts/token/ERC20/ERC20.sol\":7346:7371  Transfer(from, to, value) */\n      0xffffffffffffffffffffffffffffffffffffffff\n      and\n      0xddf252ad1be2c89b69c2b068fc378daa952ba7f163c4a11628f55a4df523b3ef\n        /* \"@openzeppelin/contracts/token/ERC20/ERC20.sol\":7365:7370  value */\n      dup4\n        /* \"@openzeppelin/contracts/token/ERC20/ERC20.sol\":7346:7371  Transfer(from, to, value) */\n      mload(0x40)\n      tag_355\n      swap2\n      swap1\n      tag_59\n      jump\t// in\n    tag_355:\n      mload(0x40)\n      dup1\n      swap2\n      sub\n      swap1\n      log3\n        /* \"@openzeppelin/contracts/token/ERC20/ERC20.sol\":6271:7378  function _update(address from, address to, uint256 value) internal virtual {... */\n      pop\n      pop\n      pop\n      jump\t// out\n        /* \"@openzeppelin/contracts/token/ERC20/utils/SafeERC20.sol\":4059:4688  function _callOptionalReturn(IERC20 token, bytes memory data) private {... */\n    tag_323:\n        /* \"@openzeppelin/contracts/token/ERC20/utils/SafeERC20.sol\":4478:4501  bytes memory returndata */\n      0x00\n        /* \"@openzeppelin/contracts/token/ERC20/utils/SafeERC20.sol\":4504:4537  address(token).functionCall(data) */\n      tag_357\n        /* \"@openzeppelin/contracts/token/ERC20/utils/SafeERC20.sol\":4532:4536  data */\n      dup3\n        /* \"@openzeppelin/contracts/token/ERC20/utils/SafeERC20.sol\":4512:4517  token */\n      dup5\n        /* \"@openzeppelin/contracts/token/ERC20/utils/SafeERC20.sol\":4504:4531  address(token).functionCall */\n      0xffffffffffffffffffffffffffffffffffffffff\n      and\n      tag_358\n      swap1\n        /* \"@openzeppelin/contracts/token/ERC20/utils/SafeERC20.sol\":4504:4537  address(token).functionCall(data) */\n      swap2\n      swap1\n      0xffffffff\n      and\n      jump\t// in\n    tag_357:\n        /* \"@openzeppelin/contracts/token/ERC20/utils/SafeERC20.sol\":4478:4537  bytes memory returndata = address(token).functionCall(data) */\n      swap1\n      pop\n        /* \"@openzeppelin/contracts/token/ERC20/utils/SafeERC20.sol\":4572:4573  0 */\n      0x00\n        /* \"@openzeppelin/contracts/token/ERC20/utils/SafeERC20.sol\":4551:4561  returndata */\n      dup2\n        /* \"@openzeppelin/contracts/token/ERC20/utils/SafeERC20.sol\":4551:4568  returndata.length */\n      mload\n        /* \"@openzeppelin/contracts/token/ERC20/utils/SafeERC20.sol\":4551:4573  returndata.length != 0 */\n      eq\n      iszero\n        /* \"@openzeppelin/contracts/token/ERC20/utils/SafeERC20.sol\":4551:4608  returndata.length != 0 && !abi.decode(returndata, (bool)) */\n      dup1\n      iszero\n      tag_359\n      jumpi\n      pop\n        /* \"@openzeppelin/contracts/token/ERC20/utils/SafeERC20.sol\":4589:4599  returndata */\n      dup1\n        /* \"@openzeppelin/contracts/token/ERC20/utils/SafeERC20.sol\":4578:4608  abi.decode(returndata, (bool)) */\n      dup1\n      0x20\n      add\n      swap1\n      mload\n      dup2\n      add\n      swap1\n      tag_360\n      swap2\n      swap1\n      tag_361\n      jump\t// in\n    tag_360:\n        /* \"@openzeppelin/contracts/token/ERC20/utils/SafeERC20.sol\":4577:4608  !abi.decode(returndata, (bool)) */\n      iszero\n        /* \"@openzeppelin/contracts/token/ERC20/utils/SafeERC20.sol\":4551:4608  returndata.length != 0 && !abi.decode(returndata, (bool)) */\n    tag_359:\n        /* \"@openzeppelin/contracts/token/ERC20/utils/SafeERC20.sol\":4547:4682  if (returndata.length != 0 && !abi.decode(returndata, (bool))) {... */\n      iszero\n      tag_362\n      jumpi\n        /* \"@openzeppelin/contracts/token/ERC20/utils/SafeERC20.sol\":4664:4669  token */\n      dup3\n        /* \"@openzeppelin/contracts/token/ERC20/utils/SafeERC20.sol\":4631:4671  SafeERC20FailedOperation(address(token)) */\n      mload(0x40)\n      0x5274afe700000000000000000000000000000000000000000000000000000000\n      dup2\n      mstore\n      0x04\n      add\n      tag_363\n      swap2\n      swap1\n      tag_108\n      jump\t// in\n    tag_363:\n      mload(0x40)\n      dup1\n      swap2\n      sub\n      swap1\n      revert\n        /* \"@openzeppelin/contracts/token/ERC20/utils/SafeERC20.sol\":4547:4682  if (returndata.length != 0 && !abi.decode(returndata, (bool))) {... */\n    tag_362:\n        /* \"@openzeppelin/contracts/token/ERC20/utils/SafeERC20.sol\":4129:4688  {... */\n      pop\n        /* \"@openzeppelin/contracts/token/ERC20/utils/SafeERC20.sol\":4059:4688  function _callOptionalReturn(IERC20 token, bytes memory data) private {... */\n      pop\n      pop\n      jump\t// out\n        /* \"@openzeppelin/contracts/utils/Address.sol\":2705:2856  function functionCall(address target, bytes memory data) internal returns (bytes memory) {... */\n    tag_358:\n        /* \"@openzeppelin/contracts/utils/Address.sol\":2780:2792  bytes memory */\n      0x60\n        /* \"@openzeppelin/contracts/utils/Address.sol\":2811:2849  functionCallWithValue(target, data, 0) */\n      tag_365\n        /* \"@openzeppelin/contracts/utils/Address.sol\":2833:2839  target */\n      dup4\n        /* \"@openzeppelin/contracts/utils/Address.sol\":2841:2845  data */\n      dup4\n        /* \"@openzeppelin/contracts/utils/Address.sol\":2847:2848  0 */\n      0x00\n        /* \"@openzeppelin/contracts/utils/Address.sol\":2811:2832  functionCallWithValue */\n      tag_366\n        /* \"@openzeppelin/contracts/utils/Address.sol\":2811:2849  functionCallWithValue(target, data, 0) */\n      jump\t// in\n    tag_365:\n        /* \"@openzeppelin/contracts/utils/Address.sol\":2804:2849  return functionCallWithValue(target, data, 0) */\n      swap1\n      pop\n        /* \"@openzeppelin/contracts/utils/Address.sol\":2705:2856  function functionCall(address target, bytes memory data) internal returns (bytes memory) {... */\n      swap3\n      swap2\n      pop\n      pop\n      jump\t// out\n        /* \"@openzeppelin/contracts/utils/Address.sol\":3180:3572  function functionCallWithValue(address target, bytes memory data, uint256 value) internal returns (bytes memory) {... */\n    tag_366:\n        /* \"@openzeppelin/contracts/utils/Address.sol\":3279:3291  bytes memory */\n      0x60\n        /* \"@openzeppelin/contracts/utils/Address.sol\":3331:3336  value */\n      dup2\n        /* \"@openzeppelin/contracts/utils/Address.sol\":3307:3328  address(this).balance */\n      selfbalance\n        /* \"@openzeppelin/contracts/utils/Address.sol\":3307:3336  address(this).balance < value */\n      lt\n        /* \"@openzeppelin/contracts/utils/Address.sol\":3303:3411  if (address(this).balance < value) {... */\n      iszero\n      tag_368\n      jumpi\n        /* \"@openzeppelin/contracts/utils/Address.sol\":3394:3398  this */\n      address\n        /* \"@openzeppelin/contracts/utils/Address.sol\":3359:3400  AddressInsufficientBalance(address(this)) */\n      mload(0x40)\n      0xcd78605900000000000000000000000000000000000000000000000000000000\n      dup2\n      mstore\n      0x04\n      add\n      tag_369\n      swap2\n      swap1\n      tag_108\n      jump\t// in\n    tag_369:\n      mload(0x40)\n      dup1\n      swap2\n      sub\n      swap1\n      revert\n        /* \"@openzeppelin/contracts/utils/Address.sol\":3303:3411  if (address(this).balance < value) {... */\n    tag_368:\n        /* \"@openzeppelin/contracts/utils/Address.sol\":3421:3433  bool success */\n      0x00\n        /* \"@openzeppelin/contracts/utils/Address.sol\":3435:3458  bytes memory returndata */\n      dup1\n        /* \"@openzeppelin/contracts/utils/Address.sol\":3462:3468  target */\n      dup6\n        /* \"@openzeppelin/contracts/utils/Address.sol\":3462:3473  target.call */\n      0xffffffffffffffffffffffffffffffffffffffff\n      and\n        /* \"@openzeppelin/contracts/utils/Address.sol\":3481:3486  value */\n      dup5\n        /* \"@openzeppelin/contracts/utils/Address.sol\":3488:3492  data */\n      dup7\n        /* \"@openzeppelin/contracts/utils/Address.sol\":3462:3493  target.call{value: value}(data) */\n      mload(0x40)\n      tag_370\n      swap2\n      swap1\n      tag_371\n      jump\t// in\n    tag_370:\n      0x00\n      mload(0x40)\n      dup1\n      dup4\n      sub\n      dup2\n      dup6\n      dup8\n      gas\n      call\n      swap3\n      pop\n      pop\n      pop\n      returndatasize\n      dup1\n      0x00\n      dup2\n      eq\n      tag_374\n      jumpi\n      mload(0x40)\n      swap2\n      pop\n      and(add(returndatasize, 0x3f), not(0x1f))\n      dup3\n      add\n      0x40\n      mstore\n      returndatasize\n      dup3\n      mstore\n      returndatasize\n      0x00\n      0x20\n      dup5\n      add\n      returndatacopy\n      jump(tag_373)\n    tag_374:\n      0x60\n      swap2\n      pop\n    tag_373:\n      pop\n        /* \"@openzeppelin/contracts/utils/Address.sol\":3420:3493  (bool success, bytes memory returndata) = target.call{value: value}(data) */\n      swap2\n      pop\n      swap2\n      pop\n        /* \"@openzeppelin/contracts/utils/Address.sol\":3510:3565  verifyCallResultFromTarget(target, success, returndata) */\n      tag_375\n        /* \"@openzeppelin/contracts/utils/Address.sol\":3537:3543  target */\n      dup7\n        /* \"@openzeppelin/contracts/utils/Address.sol\":3545:3552  success */\n      dup4\n        /* \"@openzeppelin/contracts/utils/Address.sol\":3554:3564  returndata */\n      dup4\n        /* \"@openzeppelin/contracts/utils/Address.sol\":3510:3536  verifyCallResultFromTarget */\n      tag_376\n        /* \"@openzeppelin/contracts/utils/Address.sol\":3510:3565  verifyCallResultFromTarget(target, success, returndata) */\n      jump\t// in\n    tag_375:\n        /* \"@openzeppelin/contracts/utils/Address.sol\":3503:3565  return verifyCallResultFromTarget(target, success, returndata) */\n      swap3\n      pop\n      pop\n      pop\n        /* \"@openzeppelin/contracts/utils/Address.sol\":3180:3572  function functionCallWithValue(address target, bytes memory data, uint256 value) internal returns (bytes memory) {... */\n      swap4\n      swap3\n      pop\n      pop\n      pop\n      jump\t// out\n        /* \"@openzeppelin/contracts/utils/Address.sol\":4625:5207  function verifyCallResultFromTarget(... */\n    tag_376:\n        /* \"@openzeppelin/contracts/utils/Address.sol\":4769:4781  bytes memory */\n      0x60\n        /* \"@openzeppelin/contracts/utils/Address.sol\":4798:4805  success */\n      dup3\n        /* \"@openzeppelin/contracts/utils/Address.sol\":4793:5201  if (!success) {... */\n      tag_378\n      jumpi\n        /* \"@openzeppelin/contracts/utils/Address.sol\":4821:4840  _revert(returndata) */\n      tag_379\n        /* \"@openzeppelin/contracts/utils/Address.sol\":4829:4839  returndata */\n      dup3\n        /* \"@openzeppelin/contracts/utils/Address.sol\":4821:4828  _revert */\n      tag_380\n        /* \"@openzeppelin/contracts/utils/Address.sol\":4821:4840  _revert(returndata) */\n      jump\t// in\n    tag_379:\n        /* \"@openzeppelin/contracts/utils/Address.sol\":4793:5201  if (!success) {... */\n      jump(tag_381)\n    tag_378:\n        /* \"@openzeppelin/contracts/utils/Address.sol\":5066:5067  0 */\n      0x00\n        /* \"@openzeppelin/contracts/utils/Address.sol\":5045:5055  returndata */\n      dup3\n        /* \"@openzeppelin/contracts/utils/Address.sol\":5045:5062  returndata.length */\n      mload\n        /* \"@openzeppelin/contracts/utils/Address.sol\":5045:5067  returndata.length == 0 */\n      eq\n        /* \"@openzeppelin/contracts/utils/Address.sol\":5045:5094  returndata.length == 0 && target.code.length == 0 */\n      dup1\n      iszero\n      tag_382\n      jumpi\n      pop\n        /* \"@openzeppelin/contracts/utils/Address.sol\":5093:5094  0 */\n      0x00\n        /* \"@openzeppelin/contracts/utils/Address.sol\":5071:5077  target */\n      dup5\n        /* \"@openzeppelin/contracts/utils/Address.sol\":5071:5089  target.code.length */\n      0xffffffffffffffffffffffffffffffffffffffff\n      and\n      extcodesize\n        /* \"@openzeppelin/contracts/utils/Address.sol\":5071:5094  target.code.length == 0 */\n      eq\n        /* \"@openzeppelin/contracts/utils/Address.sol\":5045:5094  returndata.length == 0 && target.code.length == 0 */\n    tag_382:\n        /* \"@openzeppelin/contracts/utils/Address.sol\":5041:5160  if (returndata.length == 0 && target.code.length == 0) {... */\n      iszero\n      tag_383\n      jumpi\n        /* \"@openzeppelin/contracts/utils/Address.sol\":5138:5144  target */\n      dup4\n        /* \"@openzeppelin/contracts/utils/Address.sol\":5121:5145  AddressEmptyCode(target) */\n      mload(0x40)\n      0x9996b31500000000000000000000000000000000000000000000000000000000\n      dup2\n      mstore\n      0x04\n      add\n      tag_384\n      swap2\n      swap1\n      tag_108\n      jump\t// in\n    tag_384:\n      mload(0x40)\n      dup1\n      swap2\n      sub\n      swap1\n      revert\n        /* \"@openzeppelin/contracts/utils/Address.sol\":5041:5160  if (returndata.length == 0 && target.code.length == 0) {... */\n    tag_383:\n        /* \"@openzeppelin/contracts/utils/Address.sol\":5180:5190  returndata */\n      dup2\n        /* \"@openzeppelin/contracts/utils/Address.sol\":5173:5190  return returndata */\n      swap1\n      pop\n      jump(tag_377)\n        /* \"@openzeppelin/contracts/utils/Address.sol\":4793:5201  if (!success) {... */\n    tag_381:\n        /* \"@openzeppelin/contracts/utils/Address.sol\":4625:5207  function verifyCallResultFromTarget(... */\n    tag_377:\n      swap4\n      swap3\n      pop\n      pop\n      pop\n      jump\t// out\n        /* \"@openzeppelin/contracts/utils/Address.sol\":5743:6259  function _revert(bytes memory returndata) private pure {... */\n    tag_380:\n        /* \"@openzeppelin/contracts/utils/Address.sol\":5894:5895  0 */\n      0x00\n        /* \"@openzeppelin/contracts/utils/Address.sol\":5874:5884  returndata */\n      dup2\n        /* \"@openzeppelin/contracts/utils/Address.sol\":5874:5891  returndata.length */\n      mload\n        /* \"@openzeppelin/contracts/utils/Address.sol\":5874:5895  returndata.length > 0 */\n      gt\n        /* \"@openzeppelin/contracts/utils/Address.sol\":5870:6253  if (returndata.length > 0) {... */\n      iszero\n      tag_386\n      jumpi\n        /* \"@openzeppelin/contracts/utils/Address.sol\":6102:6112  returndata */\n      dup1\n        /* \"@openzeppelin/contracts/utils/Address.sol\":6096:6113  mload(returndata) */\n      mload\n        /* \"@openzeppelin/contracts/utils/Address.sol\":6158:6173  returndata_size */\n      dup1\n        /* \"@openzeppelin/contracts/utils/Address.sol\":6145:6155  returndata */\n      dup3\n        /* \"@openzeppelin/contracts/utils/Address.sol\":6141:6143  32 */\n      0x20\n        /* \"@openzeppelin/contracts/utils/Address.sol\":6137:6156  add(32, returndata) */\n      add\n        /* \"@openzeppelin/contracts/utils/Address.sol\":6130:6174  revert(add(32, returndata), returndata_size) */\n      revert\n        /* \"@openzeppelin/contracts/utils/Address.sol\":5870:6253  if (returndata.length > 0) {... */\n    tag_386:\n        /* \"@openzeppelin/contracts/utils/Address.sol\":6225:6242  FailedInnerCall() */\n      mload(0x40)\n      0x1425ea4200000000000000000000000000000000000000000000000000000000\n      dup2\n      mstore\n      0x04\n      add\n      mload(0x40)\n      dup1\n      swap2\n      sub\n      swap1\n      revert\n        /* \"#utility.yul\":7:133   */\n    tag_388:\n        /* \"#utility.yul\":44:51   */\n      0x00\n        /* \"#utility.yul\":84:126   */\n      0xffffffffffffffffffffffffffffffffffffffff\n        /* \"#utility.yul\":77:82   */\n      dup3\n        /* \"#utility.yul\":73:127   */\n      and\n        /* \"#utility.yul\":62:127   */\n      swap1\n      pop\n        /* \"#utility.yul\":7:133   */\n      swap2\n      swap1\n      pop\n      jump\t// out\n        /* \"#utility.yul\":139:199   */\n    tag_389:\n        /* \"#utility.yul\":167:170   */\n      0x00\n        /* \"#utility.yul\":188:193   */\n      dup2\n        /* \"#utility.yul\":181:193   */\n      swap1\n      pop\n        /* \"#utility.yul\":139:199   */\n      swap2\n      swap1\n      pop\n      jump\t// out\n        /* \"#utility.yul\":205:347   */\n    tag_390:\n        /* \"#utility.yul\":255:264   */\n      0x00\n        /* \"#utility.yul\":288:341   */\n      tag_434\n        /* \"#utility.yul\":306:340   */\n      tag_435\n        /* \"#utility.yul\":315:339   */\n      tag_436\n        /* \"#utility.yul\":333:338   */\n      dup5\n        /* \"#utility.yul\":315:339   */\n      tag_388\n      jump\t// in\n    tag_436:\n        /* \"#utility.yul\":306:340   */\n      tag_389\n      jump\t// in\n    tag_435:\n        /* \"#utility.yul\":288:341   */\n      tag_388\n      jump\t// in\n    tag_434:\n        /* \"#utility.yul\":275:341   */\n      swap1\n      pop\n        /* \"#utility.yul\":205:347   */\n      swap2\n      swap1\n      pop\n      jump\t// out\n        /* \"#utility.yul\":353:479   */\n    tag_391:\n        /* \"#utility.yul\":403:412   */\n      0x00\n        /* \"#utility.yul\":436:473   */\n      tag_438\n        /* \"#utility.yul\":467:472   */\n      dup3\n        /* \"#utility.yul\":436:473   */\n      tag_390\n      jump\t// in\n    tag_438:\n        /* \"#utility.yul\":423:473   */\n      swap1\n      pop\n        /* \"#utility.yul\":353:479   */\n      swap2\n      swap1\n      pop\n      jump\t// out\n        /* \"#utility.yul\":485:625   */\n    tag_392:\n        /* \"#utility.yul\":549:558   */\n      0x00\n        /* \"#utility.yul\":582:619   */\n      tag_440\n        /* \"#utility.yul\":613:618   */\n      dup3\n        /* \"#utility.yul\":582:619   */\n      tag_391\n      jump\t// in\n    tag_440:\n        /* \"#utility.yul\":569:619   */\n      swap1\n      pop\n        /* \"#utility.yul\":485:625   */\n      swap2\n      swap1\n      pop\n      jump\t// out\n        /* \"#utility.yul\":631:790   */\n    tag_393:\n        /* \"#utility.yul\":732:783   */\n      tag_442\n        /* \"#utility.yul\":777:782   */\n      dup2\n        /* \"#utility.yul\":732:783   */\n      tag_392\n      jump\t// in\n    tag_442:\n        /* \"#utility.yul\":727:730   */\n      dup3\n        /* \"#utility.yul\":720:784   */\n      mstore\n        /* \"#utility.yul\":631:790   */\n      pop\n      pop\n      jump\t// out\n        /* \"#utility.yul\":796:1046   */\n    tag_43:\n        /* \"#utility.yul\":903:907   */\n      0x00\n        /* \"#utility.yul\":941:943   */\n      0x20\n        /* \"#utility.yul\":930:939   */\n      dup3\n        /* \"#utility.yul\":926:944   */\n      add\n        /* \"#utility.yul\":918:944   */\n      swap1\n      pop\n        /* \"#utility.yul\":954:1039   */\n      tag_444\n        /* \"#utility.yul\":1036:1037   */\n      0x00\n        /* \"#utility.yul\":1025:1034   */\n      dup4\n        /* \"#utility.yul\":1021:1038   */\n      add\n        /* \"#utility.yul\":1012:1018   */\n      dup5\n        /* \"#utility.yul\":954:1039   */\n      tag_393\n      jump\t// in\n    tag_444:\n        /* \"#utility.yul\":796:1046   */\n      swap3\n      swap2\n      pop\n      pop\n      jump\t// out\n        /* \"#utility.yul\":1052:1151   */\n    tag_394:\n        /* \"#utility.yul\":1104:1110   */\n      0x00\n        /* \"#utility.yul\":1138:1143   */\n      dup2\n        /* \"#utility.yul\":1132:1144   */\n      mload\n        /* \"#utility.yul\":1122:1144   */\n      swap1\n      pop\n        /* \"#utility.yul\":1052:1151   */\n      swap2\n      swap1\n      pop\n      jump\t// out\n        /* \"#utility.yul\":1157:1326   */\n    tag_395:\n        /* \"#utility.yul\":1241:1252   */\n      0x00\n        /* \"#utility.yul\":1275:1281   */\n      dup3\n        /* \"#utility.yul\":1270:1273   */\n      dup3\n        /* \"#utility.yul\":1263:1282   */\n      mstore\n        /* \"#utility.yul\":1315:1319   */\n      0x20\n        /* \"#utility.yul\":1310:1313   */\n      dup3\n        /* \"#utility.yul\":1306:1320   */\n      add\n        /* \"#utility.yul\":1291:1320   */\n      swap1\n      pop\n        /* \"#utility.yul\":1157:1326   */\n      swap3\n      swap2\n      pop\n      pop\n      jump\t// out\n        /* \"#utility.yul\":1332:1578   */\n    tag_396:\n        /* \"#utility.yul\":1413:1414   */\n      0x00\n        /* \"#utility.yul\":1423:1536   */\n    tag_448:\n        /* \"#utility.yul\":1437:1443   */\n      dup4\n        /* \"#utility.yul\":1434:1435   */\n      dup2\n        /* \"#utility.yul\":1431:1444   */\n      lt\n        /* \"#utility.yul\":1423:1536   */\n      iszero\n      tag_450\n      jumpi\n        /* \"#utility.yul\":1522:1523   */\n      dup1\n        /* \"#utility.yul\":1517:1520   */\n      dup3\n        /* \"#utility.yul\":1513:1524   */\n      add\n        /* \"#utility.yul\":1507:1525   */\n      mload\n        /* \"#utility.yul\":1503:1504   */\n      dup2\n        /* \"#utility.yul\":1498:1501   */\n      dup5\n        /* \"#utility.yul\":1494:1505   */\n      add\n        /* \"#utility.yul\":1487:1526   */\n      mstore\n        /* \"#utility.yul\":1459:1461   */\n      0x20\n        /* \"#utility.yul\":1456:1457   */\n      dup2\n        /* \"#utility.yul\":1452:1462   */\n      add\n        /* \"#utility.yul\":1447:1462   */\n      swap1\n      pop\n        /* \"#utility.yul\":1423:1536   */\n      jump(tag_448)\n    tag_450:\n        /* \"#utility.yul\":1570:1571   */\n      0x00\n        /* \"#utility.yul\":1561:1567   */\n      dup5\n        /* \"#utility.yul\":1556:1559   */\n      dup5\n        /* \"#utility.yul\":1552:1568   */\n      add\n        /* \"#utility.yul\":1545:1572   */\n      mstore\n        /* \"#utility.yul\":1394:1578   */\n      pop\n        /* \"#utility.yul\":1332:1578   */\n      pop\n      pop\n      pop\n      jump\t// out\n        /* \"#utility.yul\":1584:1686   */\n    tag_397:\n        /* \"#utility.yul\":1625:1631   */\n      0x00\n        /* \"#utility.yul\":1676:1678   */\n      0x1f\n        /* \"#utility.yul\":1672:1679   */\n      not\n        /* \"#utility.yul\":1667:1669   */\n      0x1f\n        /* \"#utility.yul\":1660:1665   */\n      dup4\n        /* \"#utility.yul\":1656:1670   */\n      add\n        /* \"#utility.yul\":1652:1680   */\n      and\n        /* \"#utility.yul\":1642:1680   */\n      swap1\n      pop\n        /* \"#utility.yul\":1584:1686   */\n      swap2\n      swap1\n      pop\n      jump\t// out\n        /* \"#utility.yul\":1692:2069   */\n    tag_398:\n        /* \"#utility.yul\":1780:1783   */\n      0x00\n        /* \"#utility.yul\":1808:1847   */\n      tag_453\n        /* \"#utility.yul\":1841:1846   */\n      dup3\n        /* \"#utility.yul\":1808:1847   */\n      tag_394\n      jump\t// in\n    tag_453:\n        /* \"#utility.yul\":1863:1934   */\n      tag_454\n        /* \"#utility.yul\":1927:1933   */\n      dup2\n        /* \"#utility.yul\":1922:1925   */\n      dup6\n        /* \"#utility.yul\":1863:1934   */\n      tag_395\n      jump\t// in\n    tag_454:\n        /* \"#utility.yul\":1856:1934   */\n      swap4\n      pop\n        /* \"#utility.yul\":1943:2008   */\n      tag_455\n        /* \"#utility.yul\":2001:2007   */\n      dup2\n        /* \"#utility.yul\":1996:1999   */\n      dup6\n        /* \"#utility.yul\":1989:1993   */\n      0x20\n        /* \"#utility.yul\":1982:1987   */\n      dup7\n        /* \"#utility.yul\":1978:1994   */\n      add\n        /* \"#utility.yul\":1943:2008   */\n      tag_396\n      jump\t// in\n    tag_455:\n        /* \"#utility.yul\":2033:2062   */\n      tag_456\n        /* \"#utility.yul\":2055:2061   */\n      dup2\n        /* \"#utility.yul\":2033:2062   */\n      tag_397\n      jump\t// in\n    tag_456:\n        /* \"#utility.yul\":2028:2031   */\n      dup5\n        /* \"#utility.yul\":2024:2063   */\n      add\n        /* \"#utility.yul\":2017:2063   */\n      swap2\n      pop\n        /* \"#utility.yul\":1784:2069   */\n      pop\n        /* \"#utility.yul\":1692:2069   */\n      swap3\n      swap2\n      pop\n      pop\n      jump\t// out\n        /* \"#utility.yul\":2075:2388   */\n    tag_47:\n        /* \"#utility.yul\":2188:2192   */\n      0x00\n        /* \"#utility.yul\":2226:2228   */\n      0x20\n        /* \"#utility.yul\":2215:2224   */\n      dup3\n        /* \"#utility.yul\":2211:2229   */\n      add\n        /* \"#utility.yul\":2203:2229   */\n      swap1\n      pop\n        /* \"#utility.yul\":2275:2284   */\n      dup2\n        /* \"#utility.yul\":2269:2273   */\n      dup2\n        /* \"#utility.yul\":2265:2285   */\n      sub\n        /* \"#utility.yul\":2261:2262   */\n      0x00\n        /* \"#utility.yul\":2250:2259   */\n      dup4\n        /* \"#utility.yul\":2246:2263   */\n      add\n        /* \"#utility.yul\":2239:2286   */\n      mstore\n        /* \"#utility.yul\":2303:2381   */\n      tag_458\n        /* \"#utility.yul\":2376:2380   */\n      dup2\n        /* \"#utility.yul\":2367:2373   */\n      dup5\n        /* \"#utility.yul\":2303:2381   */\n      tag_398\n      jump\t// in\n    tag_458:\n        /* \"#utility.yul\":2295:2381   */\n      swap1\n      pop\n        /* \"#utility.yul\":2075:2388   */\n      swap3\n      swap2\n      pop\n      pop\n      jump\t// out\n        /* \"#utility.yul\":2475:2592   */\n    tag_400:\n        /* \"#utility.yul\":2584:2585   */\n      0x00\n        /* \"#utility.yul\":2581:2582   */\n      dup1\n        /* \"#utility.yul\":2574:2586   */\n      revert\n        /* \"#utility.yul\":2721:2817   */\n    tag_402:\n        /* \"#utility.yul\":2758:2765   */\n      0x00\n        /* \"#utility.yul\":2787:2811   */\n      tag_463\n        /* \"#utility.yul\":2805:2810   */\n      dup3\n        /* \"#utility.yul\":2787:2811   */\n      tag_388\n      jump\t// in\n    tag_463:\n        /* \"#utility.yul\":2776:2811   */\n      swap1\n      pop\n        /* \"#utility.yul\":2721:2817   */\n      swap2\n      swap1\n      pop\n      jump\t// out\n        /* \"#utility.yul\":2823:2945   */\n    tag_403:\n        /* \"#utility.yul\":2896:2920   */\n      tag_465\n        /* \"#utility.yul\":2914:2919   */\n      dup2\n        /* \"#utility.yul\":2896:2920   */\n      tag_402\n      jump\t// in\n    tag_465:\n        /* \"#utility.yul\":2889:2894   */\n      dup2\n        /* \"#utility.yul\":2886:2921   */\n      eq\n        /* \"#utility.yul\":2876:2939   */\n      tag_466\n      jumpi\n        /* \"#utility.yul\":2935:2936   */\n      0x00\n        /* \"#utility.yul\":2932:2933   */\n      dup1\n        /* \"#utility.yul\":2925:2937   */\n      revert\n        /* \"#utility.yul\":2876:2939   */\n    tag_466:\n        /* \"#utility.yul\":2823:2945   */\n      pop\n      jump\t// out\n        /* \"#utility.yul\":2951:3090   */\n    tag_404:\n        /* \"#utility.yul\":2997:3002   */\n      0x00\n        /* \"#utility.yul\":3035:3041   */\n      dup2\n        /* \"#utility.yul\":3022:3042   */\n      calldataload\n        /* \"#utility.yul\":3013:3042   */\n      swap1\n      pop\n        /* \"#utility.yul\":3051:3084   */\n      tag_468\n        /* \"#utility.yul\":3078:3083   */\n      dup2\n        /* \"#utility.yul\":3051:3084   */\n      tag_403\n      jump\t// in\n    tag_468:\n        /* \"#utility.yul\":2951:3090   */\n      swap3\n      swap2\n      pop\n      pop\n      jump\t// out\n        /* \"#utility.yul\":3096:3173   */\n    tag_405:\n        /* \"#utility.yul\":3133:3140   */\n      0x00\n        /* \"#utility.yul\":3162:3167   */\n      dup2\n        /* \"#utility.yul\":3151:3167   */\n      swap1\n      pop\n        /* \"#utility.yul\":3096:3173   */\n      swap2\n      swap1\n      pop\n      jump\t// out\n        /* \"#utility.yul\":3179:3301   */\n    tag_406:\n        /* \"#utility.yul\":3252:3276   */\n      tag_471\n        /* \"#utility.yul\":3270:3275   */\n      dup2\n        /* \"#utility.yul\":3252:3276   */\n      tag_405\n      jump\t// in\n    tag_471:\n        /* \"#utility.yul\":3245:3250   */\n      dup2\n        /* \"#utility.yul\":3242:3277   */\n      eq\n        /* \"#utility.yul\":3232:3295   */\n      tag_472\n      jumpi\n        /* \"#utility.yul\":3291:3292   */\n      0x00\n        /* \"#utility.yul\":3288:3289   */\n      dup1\n        /* \"#utility.yul\":3281:3293   */\n      revert\n        /* \"#utility.yul\":3232:3295   */\n    tag_472:\n        /* \"#utility.yul\":3179:3301   */\n      pop\n      jump\t// out\n        /* \"#utility.yul\":3307:3446   */\n    tag_407:\n        /* \"#utility.yul\":3353:3358   */\n      0x00\n        /* \"#utility.yul\":3391:3397   */\n      dup2\n        /* \"#utility.yul\":3378:3398   */\n      calldataload\n        /* \"#utility.yul\":3369:3398   */\n      swap1\n      pop\n        /* \"#utility.yul\":3407:3440   */\n      tag_474\n        /* \"#utility.yul\":3434:3439   */\n      dup2\n        /* \"#utility.yul\":3407:3440   */\n      tag_406\n      jump\t// in\n    tag_474:\n        /* \"#utility.yul\":3307:3446   */\n      swap3\n      swap2\n      pop\n      pop\n      jump\t// out\n        /* \"#utility.yul\":3452:3926   */\n    tag_50:\n        /* \"#utility.yul\":3520:3526   */\n      0x00\n        /* \"#utility.yul\":3528:3534   */\n      dup1\n        /* \"#utility.yul\":3577:3579   */\n      0x40\n        /* \"#utility.yul\":3565:3574   */\n      dup4\n        /* \"#utility.yul\":3556:3563   */\n      dup6\n        /* \"#utility.yul\":3552:3575   */\n      sub\n        /* \"#utility.yul\":3548:3580   */\n      slt\n        /* \"#utility.yul\":3545:3664   */\n      iszero\n      tag_476\n      jumpi\n        /* \"#utility.yul\":3583:3662   */\n      tag_477\n      tag_400\n      jump\t// in\n    tag_477:\n        /* \"#utility.yul\":3545:3664   */\n    tag_476:\n        /* \"#utility.yul\":3703:3704   */\n      0x00\n        /* \"#utility.yul\":3728:3781   */\n      tag_478\n        /* \"#utility.yul\":3773:3780   */\n      dup6\n        /* \"#utility.yul\":3764:3770   */\n      dup3\n        /* \"#utility.yul\":3753:3762   */\n      dup7\n        /* \"#utility.yul\":3749:3771   */\n      add\n        /* \"#utility.yul\":3728:3781   */\n      tag_404\n      jump\t// in\n    tag_478:\n        /* \"#utility.yul\":3718:3781   */\n      swap3\n      pop\n        /* \"#utility.yul\":3674:3791   */\n      pop\n        /* \"#utility.yul\":3830:3832   */\n      0x20\n        /* \"#utility.yul\":3856:3909   */\n      tag_479\n        /* \"#utility.yul\":3901:3908   */\n      dup6\n        /* \"#utility.yul\":3892:3898   */\n      dup3\n        /* \"#utility.yul\":3881:3890   */\n      dup7\n        /* \"#utility.yul\":3877:3899   */\n      add\n        /* \"#utility.yul\":3856:3909   */\n      tag_407\n      jump\t// in\n    tag_479:\n        /* \"#utility.yul\":3846:3909   */\n      swap2\n      pop\n        /* \"#utility.yul\":3801:3919   */\n      pop\n        /* \"#utility.yul\":3452:3926   */\n      swap3\n      pop\n      swap3\n      swap1\n      pop\n      jump\t// out\n        /* \"#utility.yul\":3932:4022   */\n    tag_408:\n        /* \"#utility.yul\":3966:3973   */\n      0x00\n        /* \"#utility.yul\":4009:4014   */\n      dup2\n        /* \"#utility.yul\":4002:4015   */\n      iszero\n        /* \"#utility.yul\":3995:4016   */\n      iszero\n        /* \"#utility.yul\":3984:4016   */\n      swap1\n      pop\n        /* \"#utility.yul\":3932:4022   */\n      swap2\n      swap1\n      pop\n      jump\t// out\n        /* \"#utility.yul\":4028:4137   */\n    tag_409:\n        /* \"#utility.yul\":4109:4130   */\n      tag_482\n        /* \"#utility.yul\":4124:4129   */\n      dup2\n        /* \"#utility.yul\":4109:4130   */\n      tag_408\n      jump\t// in\n    tag_482:\n        /* \"#utility.yul\":4104:4107   */\n      dup3\n        /* \"#utility.yul\":4097:4131   */\n      mstore\n        /* \"#utility.yul\":4028:4137   */\n      pop\n      pop\n      jump\t// out\n        /* \"#utility.yul\":4143:4353   */\n    tag_53:\n        /* \"#utility.yul\":4230:4234   */\n      0x00\n        /* \"#utility.yul\":4268:4270   */\n      0x20\n        /* \"#utility.yul\":4257:4266   */\n      dup3\n        /* \"#utility.yul\":4253:4271   */\n      add\n        /* \"#utility.yul\":4245:4271   */\n      swap1\n      pop\n        /* \"#utility.yul\":4281:4346   */\n      tag_484\n        /* \"#utility.yul\":4343:4344   */\n      0x00\n        /* \"#utility.yul\":4332:4341   */\n      dup4\n        /* \"#utility.yul\":4328:4345   */\n      add\n        /* \"#utility.yul\":4319:4325   */\n      dup5\n        /* \"#utility.yul\":4281:4346   */\n      tag_409\n      jump\t// in\n    tag_484:\n        /* \"#utility.yul\":4143:4353   */\n      swap3\n      swap2\n      pop\n      pop\n      jump\t// out\n        /* \"#utility.yul\":4359:4477   */\n    tag_410:\n        /* \"#utility.yul\":4446:4470   */\n      tag_486\n        /* \"#utility.yul\":4464:4469   */\n      dup2\n        /* \"#utility.yul\":4446:4470   */\n      tag_405\n      jump\t// in\n    tag_486:\n        /* \"#utility.yul\":4441:4444   */\n      dup3\n        /* \"#utility.yul\":4434:4471   */\n      mstore\n        /* \"#utility.yul\":4359:4477   */\n      pop\n      pop\n      jump\t// out\n        /* \"#utility.yul\":4483:4705   */\n    tag_59:\n        /* \"#utility.yul\":4576:4580   */\n      0x00\n        /* \"#utility.yul\":4614:4616   */\n      0x20\n        /* \"#utility.yul\":4603:4612   */\n      dup3\n        /* \"#utility.yul\":4599:4617   */\n      add\n        /* \"#utility.yul\":4591:4617   */\n      swap1\n      pop\n        /* \"#utility.yul\":4627:4698   */\n      tag_488\n        /* \"#utility.yul\":4695:4696   */\n      0x00\n        /* \"#utility.yul\":4684:4693   */\n      dup4\n        /* \"#utility.yul\":4680:4697   */\n      add\n        /* \"#utility.yul\":4671:4677   */\n      dup5\n        /* \"#utility.yul\":4627:4698   */\n      tag_410\n      jump\t// in\n    tag_488:\n        /* \"#utility.yul\":4483:4705   */\n      swap3\n      swap2\n      pop\n      pop\n      jump\t// out\n        /* \"#utility.yul\":4711:5330   */\n    tag_65:\n        /* \"#utility.yul\":4788:4794   */\n      0x00\n        /* \"#utility.yul\":4796:4802   */\n      dup1\n        /* \"#utility.yul\":4804:4810   */\n      0x00\n        /* \"#utility.yul\":4853:4855   */\n      0x60\n        /* \"#utility.yul\":4841:4850   */\n      dup5\n        /* \"#utility.yul\":4832:4839   */\n      dup7\n        /* \"#utility.yul\":4828:4851   */\n      sub\n        /* \"#utility.yul\":4824:4856   */\n      slt\n        /* \"#utility.yul\":4821:4940   */\n      iszero\n      tag_490\n      jumpi\n        /* \"#utility.yul\":4859:4938   */\n      tag_491\n      tag_400\n      jump\t// in\n    tag_491:\n        /* \"#utility.yul\":4821:4940   */\n    tag_490:\n        /* \"#utility.yul\":4979:4980   */\n      0x00\n        /* \"#utility.yul\":5004:5057   */\n      tag_492\n        /* \"#utility.yul\":5049:5056   */\n      dup7\n        /* \"#utility.yul\":5040:5046   */\n      dup3\n        /* \"#utility.yul\":5029:5038   */\n      dup8\n        /* \"#utility.yul\":5025:5047   */\n      add\n        /* \"#utility.yul\":5004:5057   */\n      tag_404\n      jump\t// in\n    tag_492:\n        /* \"#utility.yul\":4994:5057   */\n      swap4\n      pop\n        /* \"#utility.yul\":4950:5067   */\n      pop\n        /* \"#utility.yul\":5106:5108   */\n      0x20\n        /* \"#utility.yul\":5132:5185   */\n      tag_493\n        /* \"#utility.yul\":5177:5184   */\n      dup7\n        /* \"#utility.yul\":5168:5174   */\n      dup3\n        /* \"#utility.yul\":5157:5166   */\n      dup8\n        /* \"#utility.yul\":5153:5175   */\n      add\n        /* \"#utility.yul\":5132:5185   */\n      tag_404\n      jump\t// in\n    tag_493:\n        /* \"#utility.yul\":5122:5185   */\n      swap3\n      pop\n        /* \"#utility.yul\":5077:5195   */\n      pop\n        /* \"#utility.yul\":5234:5236   */\n      0x40\n        /* \"#utility.yul\":5260:5313   */\n      tag_494\n        /* \"#utility.yul\":5305:5312   */\n      dup7\n        /* \"#utility.yul\":5296:5302   */\n      dup3\n        /* \"#utility.yul\":5285:5294   */\n      dup8\n        /* \"#utility.yul\":5281:5303   */\n      add\n        /* \"#utility.yul\":5260:5313   */\n      tag_407\n      jump\t// in\n    tag_494:\n        /* \"#utility.yul\":5250:5313   */\n      swap2\n      pop\n        /* \"#utility.yul\":5205:5323   */\n      pop\n        /* \"#utility.yul\":4711:5330   */\n      swap3\n      pop\n      swap3\n      pop\n      swap3\n      jump\t// out\n        /* \"#utility.yul\":5336:5422   */\n    tag_411:\n        /* \"#utility.yul\":5371:5378   */\n      0x00\n        /* \"#utility.yul\":5411:5415   */\n      0xff\n        /* \"#utility.yul\":5404:5409   */\n      dup3\n        /* \"#utility.yul\":5400:5416   */\n      and\n        /* \"#utility.yul\":5389:5416   */\n      swap1\n      pop\n        /* \"#utility.yul\":5336:5422   */\n      swap2\n      swap1\n      pop\n      jump\t// out\n        /* \"#utility.yul\":5428:5540   */\n    tag_412:\n        /* \"#utility.yul\":5511:5533   */\n      tag_497\n        /* \"#utility.yul\":5527:5532   */\n      dup2\n        /* \"#utility.yul\":5511:5533   */\n      tag_411\n      jump\t// in\n    tag_497:\n        /* \"#utility.yul\":5506:5509   */\n      dup3\n        /* \"#utility.yul\":5499:5534   */\n      mstore\n        /* \"#utility.yul\":5428:5540   */\n      pop\n      pop\n      jump\t// out\n        /* \"#utility.yul\":5546:5760   */\n    tag_71:\n        /* \"#utility.yul\":5635:5639   */\n      0x00\n        /* \"#utility.yul\":5673:5675   */\n      0x20\n        /* \"#utility.yul\":5662:5671   */\n      dup3\n        /* \"#utility.yul\":5658:5676   */\n      add\n        /* \"#utility.yul\":5650:5676   */\n      swap1\n      pop\n        /* \"#utility.yul\":5686:5753   */\n      tag_499\n        /* \"#utility.yul\":5750:5751   */\n      0x00\n        /* \"#utility.yul\":5739:5748   */\n      dup4\n        /* \"#utility.yul\":5735:5752   */\n      add\n        /* \"#utility.yul\":5726:5732   */\n      dup5\n        /* \"#utility.yul\":5686:5753   */\n      tag_412\n      jump\t// in\n    tag_499:\n        /* \"#utility.yul\":5546:5760   */\n      swap3\n      swap2\n      pop\n      pop\n      jump\t// out\n        /* \"#utility.yul\":5766:5870   */\n    tag_413:\n        /* \"#utility.yul\":5811:5818   */\n      0x00\n        /* \"#utility.yul\":5840:5864   */\n      tag_501\n        /* \"#utility.yul\":5858:5863   */\n      dup3\n        /* \"#utility.yul\":5840:5864   */\n      tag_388\n      jump\t// in\n    tag_501:\n        /* \"#utility.yul\":5829:5864   */\n      swap1\n      pop\n        /* \"#utility.yul\":5766:5870   */\n      swap2\n      swap1\n      pop\n      jump\t// out\n        /* \"#utility.yul\":5876:6018   */\n    tag_414:\n        /* \"#utility.yul\":5979:6011   */\n      tag_503\n        /* \"#utility.yul\":6005:6010   */\n      dup2\n        /* \"#utility.yul\":5979:6011   */\n      tag_413\n      jump\t// in\n    tag_503:\n        /* \"#utility.yul\":5974:5977   */\n      dup3\n        /* \"#utility.yul\":5967:6012   */\n      mstore\n        /* \"#utility.yul\":5876:6018   */\n      pop\n      pop\n      jump\t// out\n        /* \"#utility.yul\":6024:6278   */\n    tag_80:\n        /* \"#utility.yul\":6133:6137   */\n      0x00\n        /* \"#utility.yul\":6171:6173   */\n      0x20\n        /* \"#utility.yul\":6160:6169   */\n      dup3\n        /* \"#utility.yul\":6156:6174   */\n      add\n        /* \"#utility.yul\":6148:6174   */\n      swap1\n      pop\n        /* \"#utility.yul\":6184:6271   */\n      tag_505\n        /* \"#utility.yul\":6268:6269   */\n      0x00\n        /* \"#utility.yul\":6257:6266   */\n      dup4\n        /* \"#utility.yul\":6253:6270   */\n      add\n        /* \"#utility.yul\":6244:6250   */\n      dup5\n        /* \"#utility.yul\":6184:6271   */\n      tag_414\n      jump\t// in\n    tag_505:\n        /* \"#utility.yul\":6024:6278   */\n      swap3\n      swap2\n      pop\n      pop\n      jump\t// out\n        /* \"#utility.yul\":6284:6613   */\n    tag_83:\n        /* \"#utility.yul\":6343:6349   */\n      0x00\n        /* \"#utility.yul\":6392:6394   */\n      0x20\n        /* \"#utility.yul\":6380:6389   */\n      dup3\n        /* \"#utility.yul\":6371:6378   */\n      dup5\n        /* \"#utility.yul\":6367:6390   */\n      sub\n        /* \"#utility.yul\":6363:6395   */\n      slt\n        /* \"#utility.yul\":6360:6479   */\n      iszero\n      tag_507\n      jumpi\n        /* \"#utility.yul\":6398:6477   */\n      tag_508\n      tag_400\n      jump\t// in\n    tag_508:\n        /* \"#utility.yul\":6360:6479   */\n    tag_507:\n        /* \"#utility.yul\":6518:6519   */\n      0x00\n        /* \"#utility.yul\":6543:6596   */\n      tag_509\n        /* \"#utility.yul\":6588:6595   */\n      dup5\n        /* \"#utility.yul\":6579:6585   */\n      dup3\n        /* \"#utility.yul\":6568:6577   */\n      dup6\n        /* \"#utility.yul\":6564:6586   */\n      add\n        /* \"#utility.yul\":6543:6596   */\n      tag_407\n      jump\t// in\n    tag_509:\n        /* \"#utility.yul\":6533:6596   */\n      swap2\n      pop\n        /* \"#utility.yul\":6489:6606   */\n      pop\n        /* \"#utility.yul\":6284:6613   */\n      swap3\n      swap2\n      pop\n      pop\n      jump\t// out\n        /* \"#utility.yul\":6619:6948   */\n    tag_91:\n        /* \"#utility.yul\":6678:6684   */\n      0x00\n        /* \"#utility.yul\":6727:6729   */\n      0x20\n        /* \"#utility.yul\":6715:6724   */\n      dup3\n        /* \"#utility.yul\":6706:6713   */\n      dup5\n        /* \"#utility.yul\":6702:6725   */\n      sub\n        /* \"#utility.yul\":6698:6730   */\n      slt\n        /* \"#utility.yul\":6695:6814   */\n      iszero\n      tag_511\n      jumpi\n        /* \"#utility.yul\":6733:6812   */\n      tag_512\n      tag_400\n      jump\t// in\n    tag_512:\n        /* \"#utility.yul\":6695:6814   */\n    tag_511:\n        /* \"#utility.yul\":6853:6854   */\n      0x00\n        /* \"#utility.yul\":6878:6931   */\n      tag_513\n        /* \"#utility.yul\":6923:6930   */\n      dup5\n        /* \"#utility.yul\":6914:6920   */\n      dup3\n        /* \"#utility.yul\":6903:6912   */\n      dup6\n        /* \"#utility.yul\":6899:6921   */\n      add\n        /* \"#utility.yul\":6878:6931   */\n      tag_404\n      jump\t// in\n    tag_513:\n        /* \"#utility.yul\":6868:6931   */\n      swap2\n      pop\n        /* \"#utility.yul\":6824:6941   */\n      pop\n        /* \"#utility.yul\":6619:6948   */\n      swap3\n      swap2\n      pop\n      pop\n      jump\t// out\n        /* \"#utility.yul\":6954:7072   */\n    tag_415:\n        /* \"#utility.yul\":7041:7065   */\n      tag_515\n        /* \"#utility.yul\":7059:7064   */\n      dup2\n        /* \"#utility.yul\":7041:7065   */\n      tag_402\n      jump\t// in\n    tag_515:\n        /* \"#utility.yul\":7036:7039   */\n      dup3\n        /* \"#utility.yul\":7029:7066   */\n      mstore\n        /* \"#utility.yul\":6954:7072   */\n      pop\n      pop\n      jump\t// out\n        /* \"#utility.yul\":7078:7300   */\n    tag_108:\n        /* \"#utility.yul\":7171:7175   */\n      0x00\n        /* \"#utility.yul\":7209:7211   */\n      0x20\n        /* \"#utility.yul\":7198:7207   */\n      dup3\n        /* \"#utility.yul\":7194:7212   */\n      add\n        /* \"#utility.yul\":7186:7212   */\n      swap1\n      pop\n        /* \"#utility.yul\":7222:7293   */\n      tag_517\n        /* \"#utility.yul\":7290:7291   */\n      0x00\n        /* \"#utility.yul\":7279:7288   */\n      dup4\n        /* \"#utility.yul\":7275:7292   */\n      add\n        /* \"#utility.yul\":7266:7272   */\n      dup5\n        /* \"#utility.yul\":7222:7293   */\n      tag_415\n      jump\t// in\n    tag_517:\n        /* \"#utility.yul\":7078:7300   */\n      swap3\n      swap2\n      pop\n      pop\n      jump\t// out\n        /* \"#utility.yul\":7306:7395   */\n    tag_416:\n        /* \"#utility.yul\":7342:7349   */\n      0x00\n        /* \"#utility.yul\":7382:7388   */\n      0xffff\n        /* \"#utility.yul\":7375:7380   */\n      dup3\n        /* \"#utility.yul\":7371:7389   */\n      and\n        /* \"#utility.yul\":7360:7389   */\n      swap1\n      pop\n        /* \"#utility.yul\":7306:7395   */\n      swap2\n      swap1\n      pop\n      jump\t// out\n        /* \"#utility.yul\":7401:7521   */\n    tag_417:\n        /* \"#utility.yul\":7473:7496   */\n      tag_520\n        /* \"#utility.yul\":7490:7495   */\n      dup2\n        /* \"#utility.yul\":7473:7496   */\n      tag_416\n      jump\t// in\n    tag_520:\n        /* \"#utility.yul\":7466:7471   */\n      dup2\n        /* \"#utility.yul\":7463:7497   */\n      eq\n        /* \"#utility.yul\":7453:7515   */\n      tag_521\n      jumpi\n        /* \"#utility.yul\":7511:7512   */\n      0x00\n        /* \"#utility.yul\":7508:7509   */\n      dup1\n        /* \"#utility.yul\":7501:7513   */\n      revert\n        /* \"#utility.yul\":7453:7515   */\n    tag_521:\n        /* \"#utility.yul\":7401:7521   */\n      pop\n      jump\t// out\n        /* \"#utility.yul\":7527:7664   */\n    tag_418:\n        /* \"#utility.yul\":7572:7577   */\n      0x00\n        /* \"#utility.yul\":7610:7616   */\n      dup2\n        /* \"#utility.yul\":7597:7617   */\n      calldataload\n        /* \"#utility.yul\":7588:7617   */\n      swap1\n      pop\n        /* \"#utility.yul\":7626:7658   */\n      tag_523\n        /* \"#utility.yul\":7652:7657   */\n      dup2\n        /* \"#utility.yul\":7626:7658   */\n      tag_417\n      jump\t// in\n    tag_523:\n        /* \"#utility.yul\":7527:7664   */\n      swap3\n      swap2\n      pop\n      pop\n      jump\t// out\n        /* \"#utility.yul\":7670:7997   */\n    tag_128:\n        /* \"#utility.yul\":7728:7734   */\n      0x00\n        /* \"#utility.yul\":7777:7779   */\n      0x20\n        /* \"#utility.yul\":7765:7774   */\n      dup3\n        /* \"#utility.yul\":7756:7763   */\n      dup5\n        /* \"#utility.yul\":7752:7775   */\n      sub\n        /* \"#utility.yul\":7748:7780   */\n      slt\n        /* \"#utility.yul\":7745:7864   */\n      iszero\n      tag_525\n      jumpi\n        /* \"#utility.yul\":7783:7862   */\n      tag_526\n      tag_400\n      jump\t// in\n    tag_526:\n        /* \"#utility.yul\":7745:7864   */\n    tag_525:\n        /* \"#utility.yul\":7903:7904   */\n      0x00\n        /* \"#utility.yul\":7928:7980   */\n      tag_527\n        /* \"#utility.yul\":7972:7979   */\n      dup5\n        /* \"#utility.yul\":7963:7969   */\n      dup3\n        /* \"#utility.yul\":7952:7961   */\n      dup6\n        /* \"#utility.yul\":7948:7970   */\n      add\n        /* \"#utility.yul\":7928:7980   */\n      tag_418\n      jump\t// in\n    tag_527:\n        /* \"#utility.yul\":7918:7980   */\n      swap2\n      pop\n        /* \"#utility.yul\":7874:7990   */\n      pop\n        /* \"#utility.yul\":7670:7997   */\n      swap3\n      swap2\n      pop\n      pop\n      jump\t// out\n        /* \"#utility.yul\":8003:8477   */\n    tag_135:\n        /* \"#utility.yul\":8071:8077   */\n      0x00\n        /* \"#utility.yul\":8079:8085   */\n      dup1\n        /* \"#utility.yul\":8128:8130   */\n      0x40\n        /* \"#utility.yul\":8116:8125   */\n      dup4\n        /* \"#utility.yul\":8107:8114   */\n      dup6\n        /* \"#utility.yul\":8103:8126   */\n      sub\n        /* \"#utility.yul\":8099:8131   */\n      slt\n        /* \"#utility.yul\":8096:8215   */\n      iszero\n      tag_529\n      jumpi\n        /* \"#utility.yul\":8134:8213   */\n      tag_530\n      tag_400\n      jump\t// in\n    tag_530:\n        /* \"#utility.yul\":8096:8215   */\n    tag_529:\n        /* \"#utility.yul\":8254:8255   */\n      0x00\n        /* \"#utility.yul\":8279:8332   */\n      tag_531\n        /* \"#utility.yul\":8324:8331   */\n      dup6\n        /* \"#utility.yul\":8315:8321   */\n      dup3\n        /* \"#utility.yul\":8304:8313   */\n      dup7\n        /* \"#utility.yul\":8300:8322   */\n      add\n        /* \"#utility.yul\":8279:8332   */\n      tag_404\n      jump\t// in\n    tag_531:\n        /* \"#utility.yul\":8269:8332   */\n      swap3\n      pop\n        /* \"#utility.yul\":8225:8342   */\n      pop\n        /* \"#utility.yul\":8381:8383   */\n      0x20\n        /* \"#utility.yul\":8407:8460   */\n      tag_532\n        /* \"#utility.yul\":8452:8459   */\n      dup6\n        /* \"#utility.yul\":8443:8449   */\n      dup3\n        /* \"#utility.yul\":8432:8441   */\n      dup7\n        /* \"#utility.yul\":8428:8450   */\n      add\n        /* \"#utility.yul\":8407:8460   */\n      tag_404\n      jump\t// in\n    tag_532:\n        /* \"#utility.yul\":8397:8460   */\n      swap2\n      pop\n        /* \"#utility.yul\":8352:8470   */\n      pop\n        /* \"#utility.yul\":8003:8477   */\n      swap3\n      pop\n      swap3\n      swap1\n      pop\n      jump\t// out\n        /* \"#utility.yul\":8483:8663   */\n    tag_419:\n        /* \"#utility.yul\":8531:8608   */\n      0x4e487b7100000000000000000000000000000000000000000000000000000000\n        /* \"#utility.yul\":8528:8529   */\n      0x00\n        /* \"#utility.yul\":8521:8609   */\n      mstore\n        /* \"#utility.yul\":8628:8632   */\n      0x22\n        /* \"#utility.yul\":8625:8626   */\n      0x04\n        /* \"#utility.yul\":8618:8633   */\n      mstore\n        /* \"#utility.yul\":8652:8656   */\n      0x24\n        /* \"#utility.yul\":8649:8650   */\n      0x00\n        /* \"#utility.yul\":8642:8657   */\n      revert\n        /* \"#utility.yul\":8669:8989   */\n    tag_149:\n        /* \"#utility.yul\":8713:8719   */\n      0x00\n        /* \"#utility.yul\":8750:8751   */\n      0x02\n        /* \"#utility.yul\":8744:8748   */\n      dup3\n        /* \"#utility.yul\":8740:8752   */\n      div\n        /* \"#utility.yul\":8730:8752   */\n      swap1\n      pop\n        /* \"#utility.yul\":8797:8798   */\n      0x01\n        /* \"#utility.yul\":8791:8795   */\n      dup3\n        /* \"#utility.yul\":8787:8799   */\n      and\n        /* \"#utility.yul\":8818:8836   */\n      dup1\n        /* \"#utility.yul\":8808:8889   */\n      tag_535\n      jumpi\n        /* \"#utility.yul\":8874:8878   */\n      0x7f\n        /* \"#utility.yul\":8866:8872   */\n      dup3\n        /* \"#utility.yul\":8862:8879   */\n      and\n        /* \"#utility.yul\":8852:8879   */\n      swap2\n      pop\n        /* \"#utility.yul\":8808:8889   */\n    tag_535:\n        /* \"#utility.yul\":8936:8938   */\n      0x20\n        /* \"#utility.yul\":8928:8934   */\n      dup3\n        /* \"#utility.yul\":8925:8939   */\n      lt\n        /* \"#utility.yul\":8905:8923   */\n      dup2\n        /* \"#utility.yul\":8902:8940   */\n      sub\n        /* \"#utility.yul\":8899:8983   */\n      tag_536\n      jumpi\n        /* \"#utility.yul\":8955:8973   */\n      tag_537\n      tag_419\n      jump\t// in\n    tag_537:\n        /* \"#utility.yul\":8899:8983   */\n    tag_536:\n        /* \"#utility.yul\":8720:8989   */\n      pop\n        /* \"#utility.yul\":8669:8989   */\n      swap2\n      swap1\n      pop\n      jump\t// out\n        /* \"#utility.yul\":8995:9138   */\n    tag_420:\n        /* \"#utility.yul\":9052:9057   */\n      0x00\n        /* \"#utility.yul\":9083:9089   */\n      dup2\n        /* \"#utility.yul\":9077:9090   */\n      mload\n        /* \"#utility.yul\":9068:9090   */\n      swap1\n      pop\n        /* \"#utility.yul\":9099:9132   */\n      tag_539\n        /* \"#utility.yul\":9126:9131   */\n      dup2\n        /* \"#utility.yul\":9099:9132   */\n      tag_406\n      jump\t// in\n    tag_539:\n        /* \"#utility.yul\":8995:9138   */\n      swap3\n      swap2\n      pop\n      pop\n      jump\t// out\n        /* \"#utility.yul\":9144:9495   */\n    tag_167:\n        /* \"#utility.yul\":9214:9220   */\n      0x00\n        /* \"#utility.yul\":9263:9265   */\n      0x20\n        /* \"#utility.yul\":9251:9260   */\n      dup3\n        /* \"#utility.yul\":9242:9249   */\n      dup5\n        /* \"#utility.yul\":9238:9261   */\n      sub\n        /* \"#utility.yul\":9234:9266   */\n      slt\n        /* \"#utility.yul\":9231:9350   */\n      iszero\n      tag_541\n      jumpi\n        /* \"#utility.yul\":9269:9348   */\n      tag_542\n      tag_400\n      jump\t// in\n    tag_542:\n        /* \"#utility.yul\":9231:9350   */\n    tag_541:\n        /* \"#utility.yul\":9389:9390   */\n      0x00\n        /* \"#utility.yul\":9414:9478   */\n      tag_543\n        /* \"#utility.yul\":9470:9477   */\n      dup5\n        /* \"#utility.yul\":9461:9467   */\n      dup3\n        /* \"#utility.yul\":9450:9459   */\n      dup6\n        /* \"#utility.yul\":9446:9468   */\n      add\n        /* \"#utility.yul\":9414:9478   */\n      tag_420\n      jump\t// in\n    tag_543:\n        /* \"#utility.yul\":9404:9478   */\n      swap2\n      pop\n        /* \"#utility.yul\":9360:9488   */\n      pop\n        /* \"#utility.yul\":9144:9495   */\n      swap3\n      swap2\n      pop\n      pop\n      jump\t// out\n        /* \"#utility.yul\":9501:9681   */\n    tag_421:\n        /* \"#utility.yul\":9549:9626   */\n      0x4e487b7100000000000000000000000000000000000000000000000000000000\n        /* \"#utility.yul\":9546:9547   */\n      0x00\n        /* \"#utility.yul\":9539:9627   */\n      mstore\n        /* \"#utility.yul\":9646:9650   */\n      0x12\n        /* \"#utility.yul\":9643:9644   */\n      0x04\n        /* \"#utility.yul\":9636:9651   */\n      mstore\n        /* \"#utility.yul\":9670:9674   */\n      0x24\n        /* \"#utility.yul\":9667:9668   */\n      0x00\n        /* \"#utility.yul\":9660:9675   */\n      revert\n        /* \"#utility.yul\":9687:9867   */\n    tag_422:\n        /* \"#utility.yul\":9735:9812   */\n      0x4e487b7100000000000000000000000000000000000000000000000000000000\n        /* \"#utility.yul\":9732:9733   */\n      0x00\n        /* \"#utility.yul\":9725:9813   */\n      mstore\n        /* \"#utility.yul\":9832:9836   */\n      0x11\n        /* \"#utility.yul\":9829:9830   */\n      0x04\n        /* \"#utility.yul\":9822:9837   */\n      mstore\n        /* \"#utility.yul\":9856:9860   */\n      0x24\n        /* \"#utility.yul\":9853:9854   */\n      0x00\n        /* \"#utility.yul\":9846:9861   */\n      revert\n        /* \"#utility.yul\":9873:10058   */\n    tag_188:\n        /* \"#utility.yul\":9913:9914   */\n      0x00\n        /* \"#utility.yul\":9930:9950   */\n      tag_547\n        /* \"#utility.yul\":9948:9949   */\n      dup3\n        /* \"#utility.yul\":9930:9950   */\n      tag_405\n      jump\t// in\n    tag_547:\n        /* \"#utility.yul\":9925:9950   */\n      swap2\n      pop\n        /* \"#utility.yul\":9964:9984   */\n      tag_548\n        /* \"#utility.yul\":9982:9983   */\n      dup4\n        /* \"#utility.yul\":9964:9984   */\n      tag_405\n      jump\t// in\n    tag_548:\n        /* \"#utility.yul\":9959:9984   */\n      swap3\n      pop\n        /* \"#utility.yul\":10003:10004   */\n      dup3\n        /* \"#utility.yul\":9993:10028   */\n      tag_549\n      jumpi\n        /* \"#utility.yul\":10008:10026   */\n      tag_550\n      tag_421\n      jump\t// in\n    tag_550:\n        /* \"#utility.yul\":9993:10028   */\n    tag_549:\n        /* \"#utility.yul\":10050:10051   */\n      dup3\n        /* \"#utility.yul\":10047:10048   */\n      dup3\n        /* \"#utility.yul\":10043:10052   */\n      div\n        /* \"#utility.yul\":10038:10052   */\n      swap1\n      pop\n        /* \"#utility.yul\":9873:10058   */\n      swap3\n      swap2\n      pop\n      pop\n      jump\t// out\n        /* \"#utility.yul\":10064:10258   */\n    tag_190:\n        /* \"#utility.yul\":10104:10108   */\n      0x00\n        /* \"#utility.yul\":10124:10144   */\n      tag_552\n        /* \"#utility.yul\":10142:10143   */\n      dup3\n        /* \"#utility.yul\":10124:10144   */\n      tag_405\n      jump\t// in\n    tag_552:\n        /* \"#utility.yul\":10119:10144   */\n      swap2\n      pop\n        /* \"#utility.yul\":10158:10178   */\n      tag_553\n        /* \"#utility.yul\":10176:10177   */\n      dup4\n        /* \"#utility.yul\":10158:10178   */\n      tag_405\n      jump\t// in\n    tag_553:\n        /* \"#utility.yul\":10153:10178   */\n      swap3\n      pop\n        /* \"#utility.yul\":10202:10203   */\n      dup3\n        /* \"#utility.yul\":10199:10200   */\n      dup3\n        /* \"#utility.yul\":10195:10204   */\n      sub\n        /* \"#utility.yul\":10187:10204   */\n      swap1\n      pop\n        /* \"#utility.yul\":10226:10227   */\n      dup2\n        /* \"#utility.yul\":10220:10224   */\n      dup2\n        /* \"#utility.yul\":10217:10228   */\n      gt\n        /* \"#utility.yul\":10214:10251   */\n      iszero\n      tag_554\n      jumpi\n        /* \"#utility.yul\":10231:10249   */\n      tag_555\n      tag_422\n      jump\t// in\n    tag_555:\n        /* \"#utility.yul\":10214:10251   */\n    tag_554:\n        /* \"#utility.yul\":10064:10258   */\n      swap3\n      swap2\n      pop\n      pop\n      jump\t// out\n        /* \"#utility.yul\":10264:10455   */\n    tag_192:\n        /* \"#utility.yul\":10304:10307   */\n      0x00\n        /* \"#utility.yul\":10323:10343   */\n      tag_557\n        /* \"#utility.yul\":10341:10342   */\n      dup3\n        /* \"#utility.yul\":10323:10343   */\n      tag_405\n      jump\t// in\n    tag_557:\n        /* \"#utility.yul\":10318:10343   */\n      swap2\n      pop\n        /* \"#utility.yul\":10357:10377   */\n      tag_558\n        /* \"#utility.yul\":10375:10376   */\n      dup4\n        /* \"#utility.yul\":10357:10377   */\n      tag_405\n      jump\t// in\n    tag_558:\n        /* \"#utility.yul\":10352:10377   */\n      swap3\n      pop\n        /* \"#utility.yul\":10400:10401   */\n      dup3\n        /* \"#utility.yul\":10397:10398   */\n      dup3\n        /* \"#utility.yul\":10393:10402   */\n      add\n        /* \"#utility.yul\":10386:10402   */\n      swap1\n      pop\n        /* \"#utility.yul\":10421:10424   */\n      dup1\n        /* \"#utility.yul\":10418:10419   */\n      dup3\n        /* \"#utility.yul\":10415:10425   */\n      gt\n        /* \"#utility.yul\":10412:10448   */\n      iszero\n      tag_559\n      jumpi\n        /* \"#utility.yul\":10428:10446   */\n      tag_560\n      tag_422\n      jump\t// in\n    tag_560:\n        /* \"#utility.yul\":10412:10448   */\n    tag_559:\n        /* \"#utility.yul\":10264:10455   */\n      swap3\n      swap2\n      pop\n      pop\n      jump\t// out\n        /* \"#utility.yul\":10461:10871   */\n    tag_197:\n        /* \"#utility.yul\":10501:10508   */\n      0x00\n        /* \"#utility.yul\":10524:10544   */\n      tag_562\n        /* \"#utility.yul\":10542:10543   */\n      dup3\n        /* \"#utility.yul\":10524:10544   */\n      tag_405\n      jump\t// in\n    tag_562:\n        /* \"#utility.yul\":10519:10544   */\n      swap2\n      pop\n        /* \"#utility.yul\":10558:10578   */\n      tag_563\n        /* \"#utility.yul\":10576:10577   */\n      dup4\n        /* \"#utility.yul\":10558:10578   */\n      tag_405\n      jump\t// in\n    tag_563:\n        /* \"#utility.yul\":10553:10578   */\n      swap3\n      pop\n        /* \"#utility.yul\":10613:10614   */\n      dup3\n        /* \"#utility.yul\":10610:10611   */\n      dup3\n        /* \"#utility.yul\":10606:10615   */\n      mul\n        /* \"#utility.yul\":10635:10665   */\n      tag_564\n        /* \"#utility.yul\":10653:10664   */\n      dup2\n        /* \"#utility.yul\":10635:10665   */\n      tag_405\n      jump\t// in\n    tag_564:\n        /* \"#utility.yul\":10624:10665   */\n      swap2\n      pop\n        /* \"#utility.yul\":10814:10815   */\n      dup3\n        /* \"#utility.yul\":10805:10812   */\n      dup3\n        /* \"#utility.yul\":10801:10816   */\n      div\n        /* \"#utility.yul\":10798:10799   */\n      dup5\n        /* \"#utility.yul\":10795:10817   */\n      eq\n        /* \"#utility.yul\":10775:10776   */\n      dup4\n        /* \"#utility.yul\":10768:10777   */\n      iszero\n        /* \"#utility.yul\":10748:10831   */\n      or\n        /* \"#utility.yul\":10725:10864   */\n      tag_565\n      jumpi\n        /* \"#utility.yul\":10844:10862   */\n      tag_566\n      tag_422\n      jump\t// in\n    tag_566:\n        /* \"#utility.yul\":10725:10864   */\n    tag_565:\n        /* \"#utility.yul\":10509:10871   */\n      pop\n        /* \"#utility.yul\":10461:10871   */\n      swap3\n      swap2\n      pop\n      pop\n      jump\t// out\n        /* \"#utility.yul\":10877:11017   */\n    tag_423:\n        /* \"#utility.yul\":10926:10935   */\n      0x00\n        /* \"#utility.yul\":10959:11011   */\n      tag_568\n        /* \"#utility.yul\":10977:11010   */\n      tag_569\n        /* \"#utility.yul\":10986:11009   */\n      tag_570\n        /* \"#utility.yul\":11003:11008   */\n      dup5\n        /* \"#utility.yul\":10986:11009   */\n      tag_416\n      jump\t// in\n    tag_570:\n        /* \"#utility.yul\":10977:11010   */\n      tag_389\n      jump\t// in\n    tag_569:\n        /* \"#utility.yul\":10959:11011   */\n      tag_405\n      jump\t// in\n    tag_568:\n        /* \"#utility.yul\":10946:11011   */\n      swap1\n      pop\n        /* \"#utility.yul\":10877:11017   */\n      swap2\n      swap1\n      pop\n      jump\t// out\n        /* \"#utility.yul\":11023:11152   */\n    tag_424:\n        /* \"#utility.yul\":11109:11145   */\n      tag_572\n        /* \"#utility.yul\":11139:11144   */\n      dup2\n        /* \"#utility.yul\":11109:11145   */\n      tag_423\n      jump\t// in\n    tag_572:\n        /* \"#utility.yul\":11104:11107   */\n      dup3\n        /* \"#utility.yul\":11097:11146   */\n      mstore\n        /* \"#utility.yul\":11023:11152   */\n      pop\n      pop\n      jump\t// out\n        /* \"#utility.yul\":11158:11378   */\n    tag_260:\n        /* \"#utility.yul\":11250:11254   */\n      0x00\n        /* \"#utility.yul\":11288:11290   */\n      0x20\n        /* \"#utility.yul\":11277:11286   */\n      dup3\n        /* \"#utility.yul\":11273:11291   */\n      add\n        /* \"#utility.yul\":11265:11291   */\n      swap1\n      pop\n        /* \"#utility.yul\":11301:11371   */\n      tag_574\n        /* \"#utility.yul\":11368:11369   */\n      0x00\n        /* \"#utility.yul\":11357:11366   */\n      dup4\n        /* \"#utility.yul\":11353:11370   */\n      add\n        /* \"#utility.yul\":11344:11350   */\n      dup5\n        /* \"#utility.yul\":11301:11371   */\n      tag_424\n      jump\t// in\n    tag_574:\n        /* \"#utility.yul\":11158:11378   */\n      swap3\n      swap2\n      pop\n      pop\n      jump\t// out\n        /* \"#utility.yul\":11384:11826   */\n    tag_304:\n        /* \"#utility.yul\":11533:11537   */\n      0x00\n        /* \"#utility.yul\":11571:11573   */\n      0x60\n        /* \"#utility.yul\":11560:11569   */\n      dup3\n        /* \"#utility.yul\":11556:11574   */\n      add\n        /* \"#utility.yul\":11548:11574   */\n      swap1\n      pop\n        /* \"#utility.yul\":11584:11655   */\n      tag_576\n        /* \"#utility.yul\":11652:11653   */\n      0x00\n        /* \"#utility.yul\":11641:11650   */\n      dup4\n        /* \"#utility.yul\":11637:11654   */\n      add\n        /* \"#utility.yul\":11628:11634   */\n      dup7\n        /* \"#utility.yul\":11584:11655   */\n      tag_415\n      jump\t// in\n    tag_576:\n        /* \"#utility.yul\":11665:11737   */\n      tag_577\n        /* \"#utility.yul\":11733:11735   */\n      0x20\n        /* \"#utility.yul\":11722:11731   */\n      dup4\n        /* \"#utility.yul\":11718:11736   */\n      add\n        /* \"#utility.yul\":11709:11715   */\n      dup6\n        /* \"#utility.yul\":11665:11737   */\n      tag_410\n      jump\t// in\n    tag_577:\n        /* \"#utility.yul\":11747:11819   */\n      tag_578\n        /* \"#utility.yul\":11815:11817   */\n      0x40\n        /* \"#utility.yul\":11804:11813   */\n      dup4\n        /* \"#utility.yul\":11800:11818   */\n      add\n        /* \"#utility.yul\":11791:11797   */\n      dup5\n        /* \"#utility.yul\":11747:11819   */\n      tag_410\n      jump\t// in\n    tag_578:\n        /* \"#utility.yul\":11384:11826   */\n      swap5\n      swap4\n      pop\n      pop\n      pop\n      pop\n      jump\t// out\n        /* \"#utility.yul\":11832:12274   */\n    tag_322:\n        /* \"#utility.yul\":11981:11985   */\n      0x00\n        /* \"#utility.yul\":12019:12021   */\n      0x60\n        /* \"#utility.yul\":12008:12017   */\n      dup3\n        /* \"#utility.yul\":12004:12022   */\n      add\n        /* \"#utility.yul\":11996:12022   */\n      swap1\n      pop\n        /* \"#utility.yul\":12032:12103   */\n      tag_580\n        /* \"#utility.yul\":12100:12101   */\n      0x00\n        /* \"#utility.yul\":12089:12098   */\n      dup4\n        /* \"#utility.yul\":12085:12102   */\n      add\n        /* \"#utility.yul\":12076:12082   */\n      dup7\n        /* \"#utility.yul\":12032:12103   */\n      tag_415\n      jump\t// in\n    tag_580:\n        /* \"#utility.yul\":12113:12185   */\n      tag_581\n        /* \"#utility.yul\":12181:12183   */\n      0x20\n        /* \"#utility.yul\":12170:12179   */\n      dup4\n        /* \"#utility.yul\":12166:12184   */\n      add\n        /* \"#utility.yul\":12157:12163   */\n      dup6\n        /* \"#utility.yul\":12113:12185   */\n      tag_415\n      jump\t// in\n    tag_581:\n        /* \"#utility.yul\":12195:12267   */\n      tag_582\n        /* \"#utility.yul\":12263:12265   */\n      0x40\n        /* \"#utility.yul\":12252:12261   */\n      dup4\n        /* \"#utility.yul\":12248:12266   */\n      add\n        /* \"#utility.yul\":12239:12245   */\n      dup5\n        /* \"#utility.yul\":12195:12267   */\n      tag_410\n      jump\t// in\n    tag_582:\n        /* \"#utility.yul\":11832:12274   */\n      swap5\n      swap4\n      pop\n      pop\n      pop\n      pop\n      jump\t// out\n        /* \"#utility.yul\":12280:12396   */\n    tag_425:\n        /* \"#utility.yul\":12350:12371   */\n      tag_584\n        /* \"#utility.yul\":12365:12370   */\n      dup2\n        /* \"#utility.yul\":12350:12371   */\n      tag_408\n      jump\t// in\n    tag_584:\n        /* \"#utility.yul\":12343:12348   */\n      dup2\n        /* \"#utility.yul\":12340:12372   */\n      eq\n        /* \"#utility.yul\":12330:12390   */\n      tag_585\n      jumpi\n        /* \"#utility.yul\":12386:12387   */\n      0x00\n        /* \"#utility.yul\":12383:12384   */\n      dup1\n        /* \"#utility.yul\":12376:12388   */\n      revert\n        /* \"#utility.yul\":12330:12390   */\n    tag_585:\n        /* \"#utility.yul\":12280:12396   */\n      pop\n      jump\t// out\n        /* \"#utility.yul\":12402:12539   */\n    tag_426:\n        /* \"#utility.yul\":12456:12461   */\n      0x00\n        /* \"#utility.yul\":12487:12493   */\n      dup2\n        /* \"#utility.yul\":12481:12494   */\n      mload\n        /* \"#utility.yul\":12472:12494   */\n      swap1\n      pop\n        /* \"#utility.yul\":12503:12533   */\n      tag_587\n        /* \"#utility.yul\":12527:12532   */\n      dup2\n        /* \"#utility.yul\":12503:12533   */\n      tag_425\n      jump\t// in\n    tag_587:\n        /* \"#utility.yul\":12402:12539   */\n      swap3\n      swap2\n      pop\n      pop\n      jump\t// out\n        /* \"#utility.yul\":12545:12890   */\n    tag_361:\n        /* \"#utility.yul\":12612:12618   */\n      0x00\n        /* \"#utility.yul\":12661:12663   */\n      0x20\n        /* \"#utility.yul\":12649:12658   */\n      dup3\n        /* \"#utility.yul\":12640:12647   */\n      dup5\n        /* \"#utility.yul\":12636:12659   */\n      sub\n        /* \"#utility.yul\":12632:12664   */\n      slt\n        /* \"#utility.yul\":12629:12748   */\n      iszero\n      tag_589\n      jumpi\n        /* \"#utility.yul\":12667:12746   */\n      tag_590\n      tag_400\n      jump\t// in\n    tag_590:\n        /* \"#utility.yul\":12629:12748   */\n    tag_589:\n        /* \"#utility.yul\":12787:12788   */\n      0x00\n        /* \"#utility.yul\":12812:12873   */\n      tag_591\n        /* \"#utility.yul\":12865:12872   */\n      dup5\n        /* \"#utility.yul\":12856:12862   */\n      dup3\n        /* \"#utility.yul\":12845:12854   */\n      dup6\n        /* \"#utility.yul\":12841:12863   */\n      add\n        /* \"#utility.yul\":12812:12873   */\n      tag_426\n      jump\t// in\n    tag_591:\n        /* \"#utility.yul\":12802:12873   */\n      swap2\n      pop\n        /* \"#utility.yul\":12758:12883   */\n      pop\n        /* \"#utility.yul\":12545:12890   */\n      swap3\n      swap2\n      pop\n      pop\n      jump\t// out\n        /* \"#utility.yul\":12896:12994   */\n    tag_427:\n        /* \"#utility.yul\":12947:12953   */\n      0x00\n        /* \"#utility.yul\":12981:12986   */\n      dup2\n        /* \"#utility.yul\":12975:12987   */\n      mload\n        /* \"#utility.yul\":12965:12987   */\n      swap1\n      pop\n        /* \"#utility.yul\":12896:12994   */\n      swap2\n      swap1\n      pop\n      jump\t// out\n        /* \"#utility.yul\":13000:13147   */\n    tag_428:\n        /* \"#utility.yul\":13101:13112   */\n      0x00\n        /* \"#utility.yul\":13138:13141   */\n      dup2\n        /* \"#utility.yul\":13123:13141   */\n      swap1\n      pop\n        /* \"#utility.yul\":13000:13147   */\n      swap3\n      swap2\n      pop\n      pop\n      jump\t// out\n        /* \"#utility.yul\":13153:13539   */\n    tag_429:\n        /* \"#utility.yul\":13257:13260   */\n      0x00\n        /* \"#utility.yul\":13285:13323   */\n      tag_595\n        /* \"#utility.yul\":13317:13322   */\n      dup3\n        /* \"#utility.yul\":13285:13323   */\n      tag_427\n      jump\t// in\n    tag_595:\n        /* \"#utility.yul\":13339:13427   */\n      tag_596\n        /* \"#utility.yul\":13420:13426   */\n      dup2\n        /* \"#utility.yul\":13415:13418   */\n      dup6\n        /* \"#utility.yul\":13339:13427   */\n      tag_428\n      jump\t// in\n    tag_596:\n        /* \"#utility.yul\":13332:13427   */\n      swap4\n      pop\n        /* \"#utility.yul\":13436:13501   */\n      tag_597\n        /* \"#utility.yul\":13494:13500   */\n      dup2\n        /* \"#utility.yul\":13489:13492   */\n      dup6\n        /* \"#utility.yul\":13482:13486   */\n      0x20\n        /* \"#utility.yul\":13475:13480   */\n      dup7\n        /* \"#utility.yul\":13471:13487   */\n      add\n        /* \"#utility.yul\":13436:13501   */\n      tag_396\n      jump\t// in\n    tag_597:\n        /* \"#utility.yul\":13526:13532   */\n      dup1\n        /* \"#utility.yul\":13521:13524   */\n      dup5\n        /* \"#utility.yul\":13517:13533   */\n      add\n        /* \"#utility.yul\":13510:13533   */\n      swap2\n      pop\n        /* \"#utility.yul\":13261:13539   */\n      pop\n        /* \"#utility.yul\":13153:13539   */\n      swap3\n      swap2\n      pop\n      pop\n      jump\t// out\n        /* \"#utility.yul\":13545:13816   */\n    tag_371:\n        /* \"#utility.yul\":13675:13678   */\n      0x00\n        /* \"#utility.yul\":13697:13790   */\n      tag_599\n        /* \"#utility.yul\":13786:13789   */\n      dup3\n        /* \"#utility.yul\":13777:13783   */\n      dup5\n        /* \"#utility.yul\":13697:13790   */\n      tag_429\n      jump\t// in\n    tag_599:\n        /* \"#utility.yul\":13690:13790   */\n      swap2\n      pop\n        /* \"#utility.yul\":13807:13810   */\n      dup2\n        /* \"#utility.yul\":13800:13810   */\n      swap1\n      pop\n        /* \"#utility.yul\":13545:13816   */\n      swap3\n      swap2\n      pop\n      pop\n      jump\t// out\n\n    auxdata: 0xa264697066735822122021f293dd8c949a1e75cea771275a9fdf34eb94db78f4c7618c2a6e239766a10164736f6c63430008140033\n}\n",
				"bytecode": {
					"linkReferences": {},
					"object": "60a06040526103c760075560236008556001600b5f6101000a81548173ffffffffffffffffffffffffffffffffffffffff021916908373ffffffffffffffffffffffffffffffffffffffff1602179055503480156200005c575f80fd5b5060405162002b5138038062002b51833981810160405281019062000082919062000433565b600b5f9054906101000a900473ffffffffffffffffffffffffffffffffffffffff166040518060400160405280600e81526020017f70616e7468656f6e20544f4b454e0000000000000000000000000000000000008152506040518060400160405280600681526020017f70544f4b454e00000000000000000000000000000000000000000000000000008152508160039081620001219190620006dc565b508060049081620001339190620006dc565b5050505f73ffffffffffffffffffffffffffffffffffffffff168173ffffffffffffffffffffffffffffffffffffffff1603620001a9575f6040517f1e4fbdf7000000000000000000000000000000000000000000000000000000008152600401620001a09190620007d1565b60405180910390fd5b620001ba816200030b60201b60201c565b5060016006819055505f73ffffffffffffffffffffffffffffffffffffffff168273ffffffffffffffffffffffffffffffffffffffff160362000229576040517f8579befe00000000000000000000000000000000000000000000000000000000815260040160405180910390fd5b5f73ffffffffffffffffffffffffffffffffffffffff168173ffffffffffffffffffffffffffffffffffffffff16036200028f576040517f8579befe00000000000000000000000000000000000000000000000000000000815260040160405180910390fd5b81600a5f6101000a81548173ffffffffffffffffffffffffffffffffffffffff021916908373ffffffffffffffffffffffffffffffffffffffff1602179055508073ffffffffffffffffffffffffffffffffffffffff1660808173ffffffffffffffffffffffffffffffffffffffff16815250505050620007ec565b5f60055f9054906101000a900473ffffffffffffffffffffffffffffffffffffffff1690508160055f6101000a81548173ffffffffffffffffffffffffffffffffffffffff021916908373ffffffffffffffffffffffffffffffffffffffff1602179055508173ffffffffffffffffffffffffffffffffffffffff168173ffffffffffffffffffffffffffffffffffffffff167f8be0079c531659141344cd1fd0a4f28419497f9722a3daafe3b4186f6b6457e060405160405180910390a35050565b5f80fd5b5f73ffffffffffffffffffffffffffffffffffffffff82169050919050565b5f620003fd82620003d2565b9050919050565b6200040f81620003f1565b81146200041a575f80fd5b50565b5f815190506200042d8162000404565b92915050565b5f80604083850312156200044c576200044b620003ce565b5b5f6200045b858286016200041d565b92505060206200046e858286016200041d565b9150509250929050565b5f81519050919050565b7f4e487b71000000000000000000000000000000000000000000000000000000005f52604160045260245ffd5b7f4e487b71000000000000000000000000000000000000000000000000000000005f52602260045260245ffd5b5f6002820490506001821680620004f457607f821691505b6020821081036200050a5762000509620004af565b5b50919050565b5f819050815f5260205f209050919050565b5f6020601f8301049050919050565b5f82821b905092915050565b5f600883026200056e7fffffffffffffffffffffffffffffffffffffffffffffffffffffffffffffffff8262000531565b6200057a868362000531565b95508019841693508086168417925050509392505050565b5f819050919050565b5f819050919050565b5f620005c4620005be620005b88462000592565b6200059b565b62000592565b9050919050565b5f819050919050565b620005df83620005a4565b620005f7620005ee82620005cb565b8484546200053d565b825550505050565b5f90565b6200060d620005ff565b6200061a818484620005d4565b505050565b5b818110156200064157620006355f8262000603565b60018101905062000620565b5050565b601f82111562000690576200065a8162000510565b620006658462000522565b8101602085101562000675578190505b6200068d620006848562000522565b8301826200061f565b50505b505050565b5f82821c905092915050565b5f620006b25f198460080262000695565b1980831691505092915050565b5f620006cc8383620006a1565b9150826002028217905092915050565b620006e78262000478565b67ffffffffffffffff81111562000703576200070262000482565b5b6200070f8254620004dc565b6200071c82828562000645565b5f60209050601f83116001811462000752575f84156200073d578287015190505b620007498582620006bf565b865550620007b8565b601f198416620007628662000510565b5f5b828110156200078b5784890151825560018201915060208501945060208101905062000764565b86831015620007ab5784890151620007a7601f891682620006a1565b8355505b6001600288020188555050505b505050505050565b620007cb81620003f1565b82525050565b5f602082019050620007e65f830184620007c0565b92915050565b6080516123226200082f5f395f8181610592015281816106700152818161083101528181610b9001528181610bd201528181610ddf0152610e2c01526123225ff3fe608060405234801561000f575f80fd5b50600436106101d8575f3560e01c806379cc679011610102578063a88df21a116100a0578063dd62ed3e1161006f578063dd62ed3e1461050a578063eb2cd2581461053a578063f2fde38b14610558578063f40fa4bc14610574576101d8565b8063a88df21a14610486578063a9059cbb146104a2578063c38f2bfe146104d2578063db006a75146104ee576101d8565b80638da5cb5b116100dc5780638da5cb5b146103fc57806392054fe71461041a57806395d89b4114610438578063a492fbc614610456576101d8565b806379cc6790146103a65780638705fcd4146103c25780638b7b23ee146103de576101d8565b8063313ce5671161017a57806342966c681161014957806342966c6814610320578063559e775b1461033c57806370a082311461036c578063715018a61461039c576101d8565b8063313ce567146102be57806335975a37146102dc57806340c10f19146102e65780634127535814610302576101d8565b806316f9b467116101b657806316f9b4671461024857806318160ddd1461025257806319f041741461027057806323b872dd1461028e576101d8565b8063029cd242146101dc57806306fdde03146101fa578063095ea7b314610218575b5f80fd5b6101e4610590565b6040516101f19190611c14565b60405180910390f35b6102026105b4565b60405161020f9190611cb7565b60405180910390f35b610232600480360381019061022d9190611d49565b610644565b60405161023f9190611da1565b60405180910390f35b610250610666565b005b61025a61073b565b6040516102679190611dc9565b60405180910390f35b610278610744565b6040516102859190611dc9565b60405180910390f35b6102a860048036038101906102a39190611de2565b61074d565b6040516102b59190611da1565b60405180910390f35b6102c661077b565b6040516102d39190611e4d565b60405180910390f35b6102e4610783565b005b61030060048036038101906102fb9190611d49565b6107a8565b005b61030a6108da565b6040516103179190611e86565b60405180910390f35b61033a60048036038101906103359190611e9f565b6108ff565b005b61035660048036038101906103519190611e9f565b610913565b6040516103639190611dc9565b60405180910390f35b61038660048036038101906103819190611eca565b610955565b6040516103939190611dc9565b60405180910390f35b6103a461099a565b005b6103c060048036038101906103bb9190611d49565b6109ad565b005b6103dc60048036038101906103d79190611eca565b6109cd565b005b6103e6610a64565b6040516103f39190611dc9565b60405180910390f35b610404610a6a565b6040516104119190611f04565b60405180910390f35b610422610a92565b60405161042f9190611dc9565b60405180910390f35b610440610a98565b60405161044d9190611cb7565b60405180910390f35b610470600480360381019061046b9190611e9f565b610b28565b60405161047d9190611dc9565b60405180910390f35b6104a0600480360381019061049b9190611e9f565b610b6a565b005b6104bc60048036038101906104b79190611d49565b610c71565b6040516104c99190611da1565b60405180910390f35b6104ec60048036038101906104e79190611f54565b610c93565b005b61050860048036038101906105039190611e9f565b610d2e565b005b610524600480360381019061051f9190611f7f565b610e90565b6040516105319190611dc9565b60405180910390f35b610542610f12565b60405161054f9190611dc9565b60405180910390f35b610572600480360381019061056d9190611eca565b610f18565b005b61058e60048036038101906105899190611f54565b610f9c565b005b7f000000000000000000000000000000000000000000000000000000000000000081565b6060600380546105c390611fea565b80601f01602080910402602001604051908101604052809291908181526020018280546105ef90611fea565b801561063a5780601f106106115761010080835404028352916020019161063a565b820191905f5260205f20905b81548152906001019060200180831161061d57829003601f168201915b5050505050905090565b5f8061064e611039565b905061065b818585611040565b600191505092915050565b61066e611052565b7f000000000000000000000000000000000000000000000000000000000000000073ffffffffffffffffffffffffffffffffffffffff166370a08231306040518263ffffffff1660e01b81526004016106c79190611f04565b602060405180830381865afa1580156106e2573d5f803e3d5ffd5b505050506040513d601f19601f82011682018060405250810190610706919061202e565b600981905550477fa3faf2f1eb729d9e646e40f512a8458c02057ee480d3b576a37e8a8ab30f055560405160405180910390a2565b5f600254905090565b5f600954905090565b5f80610757611039565b90506107648582856110d9565b61076f85858561116b565b60019150509392505050565b5f6012905090565b61078b611052565b6001600a60146101000a81548160ff021916908315150217905550565b6107b061125b565b6103e88110156107ec576040517f2b4db67a00000000000000000000000000000000000000000000000000000000815260040160405180910390fd5b5f6107f6826112a1565b90505f6008548361080791906120b3565b9050808361081591906120e3565b60095f8282546108259190612116565b925050819055506108797f000000000000000000000000000000000000000000000000000000000000000033600a5f9054906101000a900473ffffffffffffffffffffffffffffffffffffffff16846112c9565b61089d846103e86007548561088e9190612149565b61089891906120b3565b61134b565b8282427f079d4fba3fc168dbd2a0c2a5235112b3442d90a21282f7b69506d05a46fdbbb760405160405180910390a450506108d66113ca565b5050565b600a5f9054906101000a900473ffffffffffffffffffffffffffffffffffffffff1681565b61091061090a611039565b826113d4565b50565b5f6103e860095460075461092561073b565b856109309190612149565b61093a9190612149565b61094491906120b3565b61094e91906120b3565b9050919050565b5f805f8373ffffffffffffffffffffffffffffffffffffffff1673ffffffffffffffffffffffffffffffffffffffff1681526020019081526020015f20549050919050565b6109a2611052565b6109ab5f611453565b565b6109bf826109b9611039565b836110d9565b6109c982826113d4565b5050565b6109d5611052565b6109de81611516565b80600a5f6101000a81548173ffffffffffffffffffffffffffffffffffffffff021916908373ffffffffffffffffffffffffffffffffffffffff1602179055508073ffffffffffffffffffffffffffffffffffffffff167f446e39bcf1b47cfadfaa23442cb4b34682cfe6bd9220da084894e3b1f834e4f360405160405180910390a250565b60085481565b5f60055f9054906101000a900473ffffffffffffffffffffffffffffffffffffffff16905090565b60075481565b606060048054610aa790611fea565b80601f0160208091040260200160405190810160405280929190818152602001828054610ad390611fea565b8015610b1e5780601f10610af557610100808354040283529160200191610b1e565b820191905f5260205f20905b815481529060010190602001808311610b0157829003601f168201915b5050505050905090565b5f6103e8610b3461073b565b60075460095485610b459190612149565b610b4f9190612149565b610b5991906120b3565b610b6391906120b3565b9050919050565b610b72611052565b600a60149054906101000a900460ff1615610b8b575f80fd5b610bb77f00000000000000000000000000000000000000000000000000000000000000003330846112c9565b610bc1338261134b565b610bcf61dead6103e8610c71565b507f000000000000000000000000000000000000000000000000000000000000000073ffffffffffffffffffffffffffffffffffffffff166370a08231306040518263ffffffff1660e01b8152600401610c299190611f04565b602060405180830381865afa158015610c44573d5f803e3d5ffd5b505050506040513d601f19601f82011682018060405250810190610c68919061202e565b60098190555050565b5f80610c7b611039565b9050610c8881858561116b565b600191505092915050565b610c9b611052565b60648161ffff161180610cb2575060198161ffff16105b15610ce9576040517f7f176cee00000000000000000000000000000000000000000000000000000000815260040160405180910390fd5b8061ffff166008819055507f9de4e85041d310d87df38a671e7ecf270c37d73ea017960b904af7051205962181604051610d2391906121ba565b60405180910390a150565b610d3661125b565b6103e8811015610d72576040517f2b4db67a00000000000000000000000000000000000000000000000000000000815260040160405180910390fd5b5f610d7c82611546565b90505f60085483610d8d91906120b3565b90505f6103e860075485610da19190612149565b610dab91906120b3565b90508181610db99190612116565b60095f828254610dc991906120e3565b92505081905550610dda33846113d4565b610e277f000000000000000000000000000000000000000000000000000000000000000030600a5f9054906101000a900473ffffffffffffffffffffffffffffffffffffffff16856112c9565b610e537f00000000000000000000000000000000000000000000000000000000000000003033846112c9565b8383427f1be07ad598d802b0a04e208e5f3dfe7eaf27339c0f0e4a75ddba517bbe5c8f3660405160405180910390a4505050610e8d6113ca565b50565b5f60015f8473ffffffffffffffffffffffffffffffffffffffff1673ffffffffffffffffffffffffffffffffffffffff1681526020019081526020015f205f8373ffffffffffffffffffffffffffffffffffffffff1673ffffffffffffffffffffffffffffffffffffffff1681526020019081526020015f2054905092915050565b60095481565b610f20611052565b5f73ffffffffffffffffffffffffffffffffffffffff168173ffffffffffffffffffffffffffffffffffffffff1603610f90575f6040517f1e4fbdf7000000000000000000000000000000000000000000000000000000008152600401610f879190611f04565b60405180910390fd5b610f9981611453565b50565b610fa4611052565b6103d48161ffff161180610fbd57506103b68161ffff16105b15610ff4576040517f48565ad500000000000000000000000000000000000000000000000000000000815260040160405180910390fd5b8061ffff166007819055507fa7aaf5668e7d5e60bfa38b5d07a3178204a2d8cb16f5a03678c20f42c79542958160405161102e91906121ba565b60405180910390a150565b5f33905090565b61104d838383600161156e565b505050565b61105a611039565b73ffffffffffffffffffffffffffffffffffffffff16611078610a6a565b73ffffffffffffffffffffffffffffffffffffffff16146110d75761109b611039565b6040517f118cdaa70000000000000000000000000000000000000000000000000000000081526004016110ce9190611f04565b60405180910390fd5b565b5f6110e48484610e90565b90507fffffffffffffffffffffffffffffffffffffffffffffffffffffffffffffffff81146111655781811015611156578281836040517ffb8f41b200000000000000000000000000000000000000000000000000000000815260040161114d939291906121d3565b60405180910390fd5b61116484848484035f61156e565b5b50505050565b5f73ffffffffffffffffffffffffffffffffffffffff168373ffffffffffffffffffffffffffffffffffffffff16036111db575f6040517f96c6fd1e0000000000000000000000000000000000000000000000000000000081526004016111d29190611f04565b60405180910390fd5b5f73ffffffffffffffffffffffffffffffffffffffff168273ffffffffffffffffffffffffffffffffffffffff160361124b575f6040517fec442f050000000000000000000000000000000000000000000000000000000081526004016112429190611f04565b60405180910390fd5b61125683838361173d565b505050565b600260065403611297576040517f3ee5aeb500000000000000000000000000000000000000000000000000000000815260040160405180910390fd5b6002600681905550565b5f6009546112ad61073b565b836112b89190612149565b6112c291906120b3565b9050919050565b611345848573ffffffffffffffffffffffffffffffffffffffff166323b872dd8686866040516024016112fe93929190612208565b604051602081830303815290604052915060e01b6020820180517bffffffffffffffffffffffffffffffffffffffffffffffffffffffff8381831617835250505050611956565b50505050565b5f73ffffffffffffffffffffffffffffffffffffffff168273ffffffffffffffffffffffffffffffffffffffff16036113bb575f6040517fec442f050000000000000000000000000000000000000000000000000000000081526004016113b29190611f04565b60405180910390fd5b6113c65f838361173d565b5050565b6001600681905550565b5f73ffffffffffffffffffffffffffffffffffffffff168273ffffffffffffffffffffffffffffffffffffffff1603611444575f6040517f96c6fd1e00000000000000000000000000000000000000000000000000000000815260040161143b9190611f04565b60405180910390fd5b61144f825f8361173d565b5050565b5f60055f9054906101000a900473ffffffffffffffffffffffffffffffffffffffff1690508160055f6101000a81548173ffffffffffffffffffffffffffffffffffffffff021916908373ffffffffffffffffffffffffffffffffffffffff1602179055508173ffffffffffffffffffffffffffffffffffffffff168173ffffffffffffffffffffffffffffffffffffffff167f8be0079c531659141344cd1fd0a4f28419497f9722a3daafe3b4186f6b6457e060405160405180910390a35050565b80611543577f5a65726f206164647265737300000000000000000000000000000000000000005f5260205ffd5b50565b5f61154f61073b565b6009548361155d9190612149565b61156791906120b3565b9050919050565b5f73ffffffffffffffffffffffffffffffffffffffff168473ffffffffffffffffffffffffffffffffffffffff16036115de575f6040517fe602df050000000000000000000000000000000000000000000000000000000081526004016115d59190611f04565b60405180910390fd5b5f73ffffffffffffffffffffffffffffffffffffffff168373ffffffffffffffffffffffffffffffffffffffff160361164e575f6040517f94280d620000000000000000000000000000000000000000000000000000000081526004016116459190611f04565b60405180910390fd5b8160015f8673ffffffffffffffffffffffffffffffffffffffff1673ffffffffffffffffffffffffffffffffffffffff1681526020019081526020015f205f8573ffffffffffffffffffffffffffffffffffffffff1673ffffffffffffffffffffffffffffffffffffffff1681526020019081526020015f20819055508015611737578273ffffffffffffffffffffffffffffffffffffffff168473ffffffffffffffffffffffffffffffffffffffff167f8c5be1e5ebec7d5bd14f71427d1e84f3dd0314c0f7b2291e5b200ac8c7c3b9258460405161172e9190611dc9565b60405180910390a35b50505050565b5f73ffffffffffffffffffffffffffffffffffffffff168373ffffffffffffffffffffffffffffffffffffffff160361178d578060025f8282546117819190612116565b9250508190555061185b565b5f805f8573ffffffffffffffffffffffffffffffffffffffff1673ffffffffffffffffffffffffffffffffffffffff1681526020019081526020015f2054905081811015611816578381836040517fe450d38c00000000000000000000000000000000000000000000000000000000815260040161180d939291906121d3565b60405180910390fd5b8181035f808673ffffffffffffffffffffffffffffffffffffffff1673ffffffffffffffffffffffffffffffffffffffff1681526020019081526020015f2081905550505b5f73ffffffffffffffffffffffffffffffffffffffff168273ffffffffffffffffffffffffffffffffffffffff16036118a2578060025f82825403925050819055506118ec565b805f808473ffffffffffffffffffffffffffffffffffffffff1673ffffffffffffffffffffffffffffffffffffffff1681526020019081526020015f205f82825401925050819055505b8173ffffffffffffffffffffffffffffffffffffffff168373ffffffffffffffffffffffffffffffffffffffff167fddf252ad1be2c89b69c2b068fc378daa952ba7f163c4a11628f55a4df523b3ef836040516119499190611dc9565b60405180910390a3505050565b5f611980828473ffffffffffffffffffffffffffffffffffffffff166119eb90919063ffffffff16565b90505f8151141580156119a45750808060200190518101906119a29190612267565b155b156119e657826040517f5274afe70000000000000000000000000000000000000000000000000000000081526004016119dd9190611f04565b60405180910390fd5b505050565b60606119f883835f611a00565b905092915050565b606081471015611a4757306040517fcd786059000000000000000000000000000000000000000000000000000000008152600401611a3e9190611f04565b60405180910390fd5b5f808573ffffffffffffffffffffffffffffffffffffffff168486604051611a6f91906122d6565b5f6040518083038185875af1925050503d805f8114611aa9576040519150601f19603f3d011682016040523d82523d5f602084013e611aae565b606091505b5091509150611abe868383611ac9565b925050509392505050565b606082611ade57611ad982611b56565b611b4e565b5f8251148015611b0457505f8473ffffffffffffffffffffffffffffffffffffffff163b145b15611b4657836040517f9996b315000000000000000000000000000000000000000000000000000000008152600401611b3d9190611f04565b60405180910390fd5b819050611b4f565b5b9392505050565b5f81511115611b685780518082602001fd5b6040517f1425ea4200000000000000000000000000000000000000000000000000000000815260040160405180910390fd5b5f73ffffffffffffffffffffffffffffffffffffffff82169050919050565b5f819050919050565b5f611bdc611bd7611bd284611b9a565b611bb9565b611b9a565b9050919050565b5f611bed82611bc2565b9050919050565b5f611bfe82611be3565b9050919050565b611c0e81611bf4565b82525050565b5f602082019050611c275f830184611c05565b92915050565b5f81519050919050565b5f82825260208201905092915050565b5f5b83811015611c64578082015181840152602081019050611c49565b5f8484015250505050565b5f601f19601f8301169050919050565b5f611c8982611c2d565b611c938185611c37565b9350611ca3818560208601611c47565b611cac81611c6f565b840191505092915050565b5f6020820190508181035f830152611ccf8184611c7f565b905092915050565b5f80fd5b5f611ce582611b9a565b9050919050565b611cf581611cdb565b8114611cff575f80fd5b50565b5f81359050611d1081611cec565b92915050565b5f819050919050565b611d2881611d16565b8114611d32575f80fd5b50565b5f81359050611d4381611d1f565b92915050565b5f8060408385031215611d5f57611d5e611cd7565b5b5f611d6c85828601611d02565b9250506020611d7d85828601611d35565b9150509250929050565b5f8115159050919050565b611d9b81611d87565b82525050565b5f602082019050611db45f830184611d92565b92915050565b611dc381611d16565b82525050565b5f602082019050611ddc5f830184611dba565b92915050565b5f805f60608486031215611df957611df8611cd7565b5b5f611e0686828701611d02565b9350506020611e1786828701611d02565b9250506040611e2886828701611d35565b9150509250925092565b5f60ff82169050919050565b611e4781611e32565b82525050565b5f602082019050611e605f830184611e3e565b92915050565b5f611e7082611b9a565b9050919050565b611e8081611e66565b82525050565b5f602082019050611e995f830184611e77565b92915050565b5f60208284031215611eb457611eb3611cd7565b5b5f611ec184828501611d35565b91505092915050565b5f60208284031215611edf57611ede611cd7565b5b5f611eec84828501611d02565b91505092915050565b611efe81611cdb565b82525050565b5f602082019050611f175f830184611ef5565b92915050565b5f61ffff82169050919050565b611f3381611f1d565b8114611f3d575f80fd5b50565b5f81359050611f4e81611f2a565b92915050565b5f60208284031215611f6957611f68611cd7565b5b5f611f7684828501611f40565b91505092915050565b5f8060408385031215611f9557611f94611cd7565b5b5f611fa285828601611d02565b9250506020611fb385828601611d02565b9150509250929050565b7f4e487b71000000000000000000000000000000000000000000000000000000005f52602260045260245ffd5b5f600282049050600182168061200157607f821691505b60208210810361201457612013611fbd565b5b50919050565b5f8151905061202881611d1f565b92915050565b5f6020828403121561204357612042611cd7565b5b5f6120508482850161201a565b91505092915050565b7f4e487b71000000000000000000000000000000000000000000000000000000005f52601260045260245ffd5b7f4e487b71000000000000000000000000000000000000000000000000000000005f52601160045260245ffd5b5f6120bd82611d16565b91506120c883611d16565b9250826120d8576120d7612059565b5b828204905092915050565b5f6120ed82611d16565b91506120f883611d16565b92508282039050818111156121105761210f612086565b5b92915050565b5f61212082611d16565b915061212b83611d16565b925082820190508082111561214357612142612086565b5b92915050565b5f61215382611d16565b915061215e83611d16565b925082820261216c81611d16565b9150828204841483151761218357612182612086565b5b5092915050565b5f6121a461219f61219a84611f1d565b611bb9565b611d16565b9050919050565b6121b48161218a565b82525050565b5f6020820190506121cd5f8301846121ab565b92915050565b5f6060820190506121e65f830186611ef5565b6121f36020830185611dba565b6122006040830184611dba565b949350505050565b5f60608201905061221b5f830186611ef5565b6122286020830185611ef5565b6122356040830184611dba565b949350505050565b61224681611d87565b8114612250575f80fd5b50565b5f815190506122618161223d565b92915050565b5f6020828403121561227c5761227b611cd7565b5b5f61228984828501612253565b91505092915050565b5f81519050919050565b5f81905092915050565b5f6122b082612292565b6122ba818561229c565b93506122ca818560208601611c47565b80840191505092915050565b5f6122e182846122a6565b91508190509291505056fea264697066735822122021f293dd8c949a1e75cea771275a9fdf34eb94db78f4c7618c2a6e239766a10164736f6c63430008140033",
					"opcodes": "PUSH1 0xA0 PUSH1 0x40 MSTORE PUSH2 0x3C7 PUSH1 0x7 SSTORE PUSH1 0x23 PUSH1 0x8 SSTORE PUSH1 0x1 PUSH1 0xB PUSH0 PUSH2 0x100 EXP DUP2 SLOAD DUP2 PUSH20 0xFFFFFFFFFFFFFFFFFFFFFFFFFFFFFFFFFFFFFFFF MUL NOT AND SWAP1 DUP4 PUSH20 0xFFFFFFFFFFFFFFFFFFFFFFFFFFFFFFFFFFFFFFFF AND MUL OR SWAP1 SSTORE POP CALLVALUE DUP1 ISZERO PUSH3 0x5C JUMPI PUSH0 DUP1 REVERT JUMPDEST POP PUSH1 0x40 MLOAD PUSH3 0x2B51 CODESIZE SUB DUP1 PUSH3 0x2B51 DUP4 CODECOPY DUP2 DUP2 ADD PUSH1 0x40 MSTORE DUP2 ADD SWAP1 PUSH3 0x82 SWAP2 SWAP1 PUSH3 0x433 JUMP JUMPDEST PUSH1 0xB PUSH0 SWAP1 SLOAD SWAP1 PUSH2 0x100 EXP SWAP1 DIV PUSH20 0xFFFFFFFFFFFFFFFFFFFFFFFFFFFFFFFFFFFFFFFF AND PUSH1 0x40 MLOAD DUP1 PUSH1 0x40 ADD PUSH1 0x40 MSTORE DUP1 PUSH1 0xE DUP2 MSTORE PUSH1 0x20 ADD PUSH32 0x70616E7468656F6E20544F4B454E000000000000000000000000000000000000 DUP2 MSTORE POP PUSH1 0x40 MLOAD DUP1 PUSH1 0x40 ADD PUSH1 0x40 MSTORE DUP1 PUSH1 0x6 DUP2 MSTORE PUSH1 0x20 ADD PUSH32 0x70544F4B454E0000000000000000000000000000000000000000000000000000 DUP2 MSTORE POP DUP2 PUSH1 0x3 SWAP1 DUP2 PUSH3 0x121 SWAP2 SWAP1 PUSH3 0x6DC JUMP JUMPDEST POP DUP1 PUSH1 0x4 SWAP1 DUP2 PUSH3 0x133 SWAP2 SWAP1 PUSH3 0x6DC JUMP JUMPDEST POP POP POP PUSH0 PUSH20 0xFFFFFFFFFFFFFFFFFFFFFFFFFFFFFFFFFFFFFFFF AND DUP2 PUSH20 0xFFFFFFFFFFFFFFFFFFFFFFFFFFFFFFFFFFFFFFFF AND SUB PUSH3 0x1A9 JUMPI PUSH0 PUSH1 0x40 MLOAD PUSH32 0x1E4FBDF700000000000000000000000000000000000000000000000000000000 DUP2 MSTORE PUSH1 0x4 ADD PUSH3 0x1A0 SWAP2 SWAP1 PUSH3 0x7D1 JUMP JUMPDEST PUSH1 0x40 MLOAD DUP1 SWAP2 SUB SWAP1 REVERT JUMPDEST PUSH3 0x1BA DUP2 PUSH3 0x30B PUSH1 0x20 SHL PUSH1 0x20 SHR JUMP JUMPDEST POP PUSH1 0x1 PUSH1 0x6 DUP2 SWAP1 SSTORE POP PUSH0 PUSH20 0xFFFFFFFFFFFFFFFFFFFFFFFFFFFFFFFFFFFFFFFF AND DUP3 PUSH20 0xFFFFFFFFFFFFFFFFFFFFFFFFFFFFFFFFFFFFFFFF AND SUB PUSH3 0x229 JUMPI PUSH1 0x40 MLOAD PUSH32 0x8579BEFE00000000000000000000000000000000000000000000000000000000 DUP2 MSTORE PUSH1 0x4 ADD PUSH1 0x40 MLOAD DUP1 SWAP2 SUB SWAP1 REVERT JUMPDEST PUSH0 PUSH20 0xFFFFFFFFFFFFFFFFFFFFFFFFFFFFFFFFFFFFFFFF AND DUP2 PUSH20 0xFFFFFFFFFFFFFFFFFFFFFFFFFFFFFFFFFFFFFFFF AND SUB PUSH3 0x28F JUMPI PUSH1 0x40 MLOAD PUSH32 0x8579BEFE00000000000000000000000000000000000000000000000000000000 DUP2 MSTORE PUSH1 0x4 ADD PUSH1 0x40 MLOAD DUP1 SWAP2 SUB SWAP1 REVERT JUMPDEST DUP2 PUSH1 0xA PUSH0 PUSH2 0x100 EXP DUP2 SLOAD DUP2 PUSH20 0xFFFFFFFFFFFFFFFFFFFFFFFFFFFFFFFFFFFFFFFF MUL NOT AND SWAP1 DUP4 PUSH20 0xFFFFFFFFFFFFFFFFFFFFFFFFFFFFFFFFFFFFFFFF AND MUL OR SWAP1 SSTORE POP DUP1 PUSH20 0xFFFFFFFFFFFFFFFFFFFFFFFFFFFFFFFFFFFFFFFF AND PUSH1 0x80 DUP2 PUSH20 0xFFFFFFFFFFFFFFFFFFFFFFFFFFFFFFFFFFFFFFFF AND DUP2 MSTORE POP POP POP POP PUSH3 0x7EC JUMP JUMPDEST PUSH0 PUSH1 0x5 PUSH0 SWAP1 SLOAD SWAP1 PUSH2 0x100 EXP SWAP1 DIV PUSH20 0xFFFFFFFFFFFFFFFFFFFFFFFFFFFFFFFFFFFFFFFF AND SWAP1 POP DUP2 PUSH1 0x5 PUSH0 PUSH2 0x100 EXP DUP2 SLOAD DUP2 PUSH20 0xFFFFFFFFFFFFFFFFFFFFFFFFFFFFFFFFFFFFFFFF MUL NOT AND SWAP1 DUP4 PUSH20 0xFFFFFFFFFFFFFFFFFFFFFFFFFFFFFFFFFFFFFFFF AND MUL OR SWAP1 SSTORE POP DUP2 PUSH20 0xFFFFFFFFFFFFFFFFFFFFFFFFFFFFFFFFFFFFFFFF AND DUP2 PUSH20 0xFFFFFFFFFFFFFFFFFFFFFFFFFFFFFFFFFFFFFFFF AND PUSH32 0x8BE0079C531659141344CD1FD0A4F28419497F9722A3DAAFE3B4186F6B6457E0 PUSH1 0x40 MLOAD PUSH1 0x40 MLOAD DUP1 SWAP2 SUB SWAP1 LOG3 POP POP JUMP JUMPDEST PUSH0 DUP1 REVERT JUMPDEST PUSH0 PUSH20 0xFFFFFFFFFFFFFFFFFFFFFFFFFFFFFFFFFFFFFFFF DUP3 AND SWAP1 POP SWAP2 SWAP1 POP JUMP JUMPDEST PUSH0 PUSH3 0x3FD DUP3 PUSH3 0x3D2 JUMP JUMPDEST SWAP1 POP SWAP2 SWAP1 POP JUMP JUMPDEST PUSH3 0x40F DUP2 PUSH3 0x3F1 JUMP JUMPDEST DUP2 EQ PUSH3 0x41A JUMPI PUSH0 DUP1 REVERT JUMPDEST POP JUMP JUMPDEST PUSH0 DUP2 MLOAD SWAP1 POP PUSH3 0x42D DUP2 PUSH3 0x404 JUMP JUMPDEST SWAP3 SWAP2 POP POP JUMP JUMPDEST PUSH0 DUP1 PUSH1 0x40 DUP4 DUP6 SUB SLT ISZERO PUSH3 0x44C JUMPI PUSH3 0x44B PUSH3 0x3CE JUMP JUMPDEST JUMPDEST PUSH0 PUSH3 0x45B DUP6 DUP3 DUP7 ADD PUSH3 0x41D JUMP JUMPDEST SWAP3 POP POP PUSH1 0x20 PUSH3 0x46E DUP6 DUP3 DUP7 ADD PUSH3 0x41D JUMP JUMPDEST SWAP2 POP POP SWAP3 POP SWAP3 SWAP1 POP JUMP JUMPDEST PUSH0 DUP2 MLOAD SWAP1 POP SWAP2 SWAP1 POP JUMP JUMPDEST PUSH32 0x4E487B7100000000000000000000000000000000000000000000000000000000 PUSH0 MSTORE PUSH1 0x41 PUSH1 0x4 MSTORE PUSH1 0x24 PUSH0 REVERT JUMPDEST PUSH32 0x4E487B7100000000000000000000000000000000000000000000000000000000 PUSH0 MSTORE PUSH1 0x22 PUSH1 0x4 MSTORE PUSH1 0x24 PUSH0 REVERT JUMPDEST PUSH0 PUSH1 0x2 DUP3 DIV SWAP1 POP PUSH1 0x1 DUP3 AND DUP1 PUSH3 0x4F4 JUMPI PUSH1 0x7F DUP3 AND SWAP2 POP JUMPDEST PUSH1 0x20 DUP3 LT DUP2 SUB PUSH3 0x50A JUMPI PUSH3 0x509 PUSH3 0x4AF JUMP JUMPDEST JUMPDEST POP SWAP2 SWAP1 POP JUMP JUMPDEST PUSH0 DUP2 SWAP1 POP DUP2 PUSH0 MSTORE PUSH1 0x20 PUSH0 KECCAK256 SWAP1 POP SWAP2 SWAP1 POP JUMP JUMPDEST PUSH0 PUSH1 0x20 PUSH1 0x1F DUP4 ADD DIV SWAP1 POP SWAP2 SWAP1 POP JUMP JUMPDEST PUSH0 DUP3 DUP3 SHL SWAP1 POP SWAP3 SWAP2 POP POP JUMP JUMPDEST PUSH0 PUSH1 0x8 DUP4 MUL PUSH3 0x56E PUSH32 0xFFFFFFFFFFFFFFFFFFFFFFFFFFFFFFFFFFFFFFFFFFFFFFFFFFFFFFFFFFFFFFFF DUP3 PUSH3 0x531 JUMP JUMPDEST PUSH3 0x57A DUP7 DUP4 PUSH3 0x531 JUMP JUMPDEST SWAP6 POP DUP1 NOT DUP5 AND SWAP4 POP DUP1 DUP7 AND DUP5 OR SWAP3 POP POP POP SWAP4 SWAP3 POP POP POP JUMP JUMPDEST PUSH0 DUP2 SWAP1 POP SWAP2 SWAP1 POP JUMP JUMPDEST PUSH0 DUP2 SWAP1 POP SWAP2 SWAP1 POP JUMP JUMPDEST PUSH0 PUSH3 0x5C4 PUSH3 0x5BE PUSH3 0x5B8 DUP5 PUSH3 0x592 JUMP JUMPDEST PUSH3 0x59B JUMP JUMPDEST PUSH3 0x592 JUMP JUMPDEST SWAP1 POP SWAP2 SWAP1 POP JUMP JUMPDEST PUSH0 DUP2 SWAP1 POP SWAP2 SWAP1 POP JUMP JUMPDEST PUSH3 0x5DF DUP4 PUSH3 0x5A4 JUMP JUMPDEST PUSH3 0x5F7 PUSH3 0x5EE DUP3 PUSH3 0x5CB JUMP JUMPDEST DUP5 DUP5 SLOAD PUSH3 0x53D JUMP JUMPDEST DUP3 SSTORE POP POP POP POP JUMP JUMPDEST PUSH0 SWAP1 JUMP JUMPDEST PUSH3 0x60D PUSH3 0x5FF JUMP JUMPDEST PUSH3 0x61A DUP2 DUP5 DUP5 PUSH3 0x5D4 JUMP JUMPDEST POP POP POP JUMP JUMPDEST JUMPDEST DUP2 DUP2 LT ISZERO PUSH3 0x641 JUMPI PUSH3 0x635 PUSH0 DUP3 PUSH3 0x603 JUMP JUMPDEST PUSH1 0x1 DUP2 ADD SWAP1 POP PUSH3 0x620 JUMP JUMPDEST POP POP JUMP JUMPDEST PUSH1 0x1F DUP3 GT ISZERO PUSH3 0x690 JUMPI PUSH3 0x65A DUP2 PUSH3 0x510 JUMP JUMPDEST PUSH3 0x665 DUP5 PUSH3 0x522 JUMP JUMPDEST DUP2 ADD PUSH1 0x20 DUP6 LT ISZERO PUSH3 0x675 JUMPI DUP2 SWAP1 POP JUMPDEST PUSH3 0x68D PUSH3 0x684 DUP6 PUSH3 0x522 JUMP JUMPDEST DUP4 ADD DUP3 PUSH3 0x61F JUMP JUMPDEST POP POP JUMPDEST POP POP POP JUMP JUMPDEST PUSH0 DUP3 DUP3 SHR SWAP1 POP SWAP3 SWAP2 POP POP JUMP JUMPDEST PUSH0 PUSH3 0x6B2 PUSH0 NOT DUP5 PUSH1 0x8 MUL PUSH3 0x695 JUMP JUMPDEST NOT DUP1 DUP4 AND SWAP2 POP POP SWAP3 SWAP2 POP POP JUMP JUMPDEST PUSH0 PUSH3 0x6CC DUP4 DUP4 PUSH3 0x6A1 JUMP JUMPDEST SWAP2 POP DUP3 PUSH1 0x2 MUL DUP3 OR SWAP1 POP SWAP3 SWAP2 POP POP JUMP JUMPDEST PUSH3 0x6E7 DUP3 PUSH3 0x478 JUMP JUMPDEST PUSH8 0xFFFFFFFFFFFFFFFF DUP2 GT ISZERO PUSH3 0x703 JUMPI PUSH3 0x702 PUSH3 0x482 JUMP JUMPDEST JUMPDEST PUSH3 0x70F DUP3 SLOAD PUSH3 0x4DC JUMP JUMPDEST PUSH3 0x71C DUP3 DUP3 DUP6 PUSH3 0x645 JUMP JUMPDEST PUSH0 PUSH1 0x20 SWAP1 POP PUSH1 0x1F DUP4 GT PUSH1 0x1 DUP2 EQ PUSH3 0x752 JUMPI PUSH0 DUP5 ISZERO PUSH3 0x73D JUMPI DUP3 DUP8 ADD MLOAD SWAP1 POP JUMPDEST PUSH3 0x749 DUP6 DUP3 PUSH3 0x6BF JUMP JUMPDEST DUP7 SSTORE POP PUSH3 0x7B8 JUMP JUMPDEST PUSH1 0x1F NOT DUP5 AND PUSH3 0x762 DUP7 PUSH3 0x510 JUMP JUMPDEST PUSH0 JUMPDEST DUP3 DUP2 LT ISZERO PUSH3 0x78B JUMPI DUP5 DUP10 ADD MLOAD DUP3 SSTORE PUSH1 0x1 DUP3 ADD SWAP2 POP PUSH1 0x20 DUP6 ADD SWAP5 POP PUSH1 0x20 DUP2 ADD SWAP1 POP PUSH3 0x764 JUMP JUMPDEST DUP7 DUP4 LT ISZERO PUSH3 0x7AB JUMPI DUP5 DUP10 ADD MLOAD PUSH3 0x7A7 PUSH1 0x1F DUP10 AND DUP3 PUSH3 0x6A1 JUMP JUMPDEST DUP4 SSTORE POP JUMPDEST PUSH1 0x1 PUSH1 0x2 DUP9 MUL ADD DUP9 SSTORE POP POP POP JUMPDEST POP POP POP POP POP POP JUMP JUMPDEST PUSH3 0x7CB DUP2 PUSH3 0x3F1 JUMP JUMPDEST DUP3 MSTORE POP POP JUMP JUMPDEST PUSH0 PUSH1 0x20 DUP3 ADD SWAP1 POP PUSH3 0x7E6 PUSH0 DUP4 ADD DUP5 PUSH3 0x7C0 JUMP JUMPDEST SWAP3 SWAP2 POP POP JUMP JUMPDEST PUSH1 0x80 MLOAD PUSH2 0x2322 PUSH3 0x82F PUSH0 CODECOPY PUSH0 DUP2 DUP2 PUSH2 0x592 ADD MSTORE DUP2 DUP2 PUSH2 0x670 ADD MSTORE DUP2 DUP2 PUSH2 0x831 ADD MSTORE DUP2 DUP2 PUSH2 0xB90 ADD MSTORE DUP2 DUP2 PUSH2 0xBD2 ADD MSTORE DUP2 DUP2 PUSH2 0xDDF ADD MSTORE PUSH2 0xE2C ADD MSTORE PUSH2 0x2322 PUSH0 RETURN INVALID PUSH1 0x80 PUSH1 0x40 MSTORE CALLVALUE DUP1 ISZERO PUSH2 0xF JUMPI PUSH0 DUP1 REVERT JUMPDEST POP PUSH1 0x4 CALLDATASIZE LT PUSH2 0x1D8 JUMPI PUSH0 CALLDATALOAD PUSH1 0xE0 SHR DUP1 PUSH4 0x79CC6790 GT PUSH2 0x102 JUMPI DUP1 PUSH4 0xA88DF21A GT PUSH2 0xA0 JUMPI DUP1 PUSH4 0xDD62ED3E GT PUSH2 0x6F JUMPI DUP1 PUSH4 0xDD62ED3E EQ PUSH2 0x50A JUMPI DUP1 PUSH4 0xEB2CD258 EQ PUSH2 0x53A JUMPI DUP1 PUSH4 0xF2FDE38B EQ PUSH2 0x558 JUMPI DUP1 PUSH4 0xF40FA4BC EQ PUSH2 0x574 JUMPI PUSH2 0x1D8 JUMP JUMPDEST DUP1 PUSH4 0xA88DF21A EQ PUSH2 0x486 JUMPI DUP1 PUSH4 0xA9059CBB EQ PUSH2 0x4A2 JUMPI DUP1 PUSH4 0xC38F2BFE EQ PUSH2 0x4D2 JUMPI DUP1 PUSH4 0xDB006A75 EQ PUSH2 0x4EE JUMPI PUSH2 0x1D8 JUMP JUMPDEST DUP1 PUSH4 0x8DA5CB5B GT PUSH2 0xDC JUMPI DUP1 PUSH4 0x8DA5CB5B EQ PUSH2 0x3FC JUMPI DUP1 PUSH4 0x92054FE7 EQ PUSH2 0x41A JUMPI DUP1 PUSH4 0x95D89B41 EQ PUSH2 0x438 JUMPI DUP1 PUSH4 0xA492FBC6 EQ PUSH2 0x456 JUMPI PUSH2 0x1D8 JUMP JUMPDEST DUP1 PUSH4 0x79CC6790 EQ PUSH2 0x3A6 JUMPI DUP1 PUSH4 0x8705FCD4 EQ PUSH2 0x3C2 JUMPI DUP1 PUSH4 0x8B7B23EE EQ PUSH2 0x3DE JUMPI PUSH2 0x1D8 JUMP JUMPDEST DUP1 PUSH4 0x313CE567 GT PUSH2 0x17A JUMPI DUP1 PUSH4 0x42966C68 GT PUSH2 0x149 JUMPI DUP1 PUSH4 0x42966C68 EQ PUSH2 0x320 JUMPI DUP1 PUSH4 0x559E775B EQ PUSH2 0x33C JUMPI DUP1 PUSH4 0x70A08231 EQ PUSH2 0x36C JUMPI DUP1 PUSH4 0x715018A6 EQ PUSH2 0x39C JUMPI PUSH2 0x1D8 JUMP JUMPDEST DUP1 PUSH4 0x313CE567 EQ PUSH2 0x2BE JUMPI DUP1 PUSH4 0x35975A37 EQ PUSH2 0x2DC JUMPI DUP1 PUSH4 0x40C10F19 EQ PUSH2 0x2E6 JUMPI DUP1 PUSH4 0x41275358 EQ PUSH2 0x302 JUMPI PUSH2 0x1D8 JUMP JUMPDEST DUP1 PUSH4 0x16F9B467 GT PUSH2 0x1B6 JUMPI DUP1 PUSH4 0x16F9B467 EQ PUSH2 0x248 JUMPI DUP1 PUSH4 0x18160DDD EQ PUSH2 0x252 JUMPI DUP1 PUSH4 0x19F04174 EQ PUSH2 0x270 JUMPI DUP1 PUSH4 0x23B872DD EQ PUSH2 0x28E JUMPI PUSH2 0x1D8 JUMP JUMPDEST DUP1 PUSH4 0x29CD242 EQ PUSH2 0x1DC JUMPI DUP1 PUSH4 0x6FDDE03 EQ PUSH2 0x1FA JUMPI DUP1 PUSH4 0x95EA7B3 EQ PUSH2 0x218 JUMPI JUMPDEST PUSH0 DUP1 REVERT JUMPDEST PUSH2 0x1E4 PUSH2 0x590 JUMP JUMPDEST PUSH1 0x40 MLOAD PUSH2 0x1F1 SWAP2 SWAP1 PUSH2 0x1C14 JUMP JUMPDEST PUSH1 0x40 MLOAD DUP1 SWAP2 SUB SWAP1 RETURN JUMPDEST PUSH2 0x202 PUSH2 0x5B4 JUMP JUMPDEST PUSH1 0x40 MLOAD PUSH2 0x20F SWAP2 SWAP1 PUSH2 0x1CB7 JUMP JUMPDEST PUSH1 0x40 MLOAD DUP1 SWAP2 SUB SWAP1 RETURN JUMPDEST PUSH2 0x232 PUSH1 0x4 DUP1 CALLDATASIZE SUB DUP2 ADD SWAP1 PUSH2 0x22D SWAP2 SWAP1 PUSH2 0x1D49 JUMP JUMPDEST PUSH2 0x644 JUMP JUMPDEST PUSH1 0x40 MLOAD PUSH2 0x23F SWAP2 SWAP1 PUSH2 0x1DA1 JUMP JUMPDEST PUSH1 0x40 MLOAD DUP1 SWAP2 SUB SWAP1 RETURN JUMPDEST PUSH2 0x250 PUSH2 0x666 JUMP JUMPDEST STOP JUMPDEST PUSH2 0x25A PUSH2 0x73B JUMP JUMPDEST PUSH1 0x40 MLOAD PUSH2 0x267 SWAP2 SWAP1 PUSH2 0x1DC9 JUMP JUMPDEST PUSH1 0x40 MLOAD DUP1 SWAP2 SUB SWAP1 RETURN JUMPDEST PUSH2 0x278 PUSH2 0x744 JUMP JUMPDEST PUSH1 0x40 MLOAD PUSH2 0x285 SWAP2 SWAP1 PUSH2 0x1DC9 JUMP JUMPDEST PUSH1 0x40 MLOAD DUP1 SWAP2 SUB SWAP1 RETURN JUMPDEST PUSH2 0x2A8 PUSH1 0x4 DUP1 CALLDATASIZE SUB DUP2 ADD SWAP1 PUSH2 0x2A3 SWAP2 SWAP1 PUSH2 0x1DE2 JUMP JUMPDEST PUSH2 0x74D JUMP JUMPDEST PUSH1 0x40 MLOAD PUSH2 0x2B5 SWAP2 SWAP1 PUSH2 0x1DA1 JUMP JUMPDEST PUSH1 0x40 MLOAD DUP1 SWAP2 SUB SWAP1 RETURN JUMPDEST PUSH2 0x2C6 PUSH2 0x77B JUMP JUMPDEST PUSH1 0x40 MLOAD PUSH2 0x2D3 SWAP2 SWAP1 PUSH2 0x1E4D JUMP JUMPDEST PUSH1 0x40 MLOAD DUP1 SWAP2 SUB SWAP1 RETURN JUMPDEST PUSH2 0x2E4 PUSH2 0x783 JUMP JUMPDEST STOP JUMPDEST PUSH2 0x300 PUSH1 0x4 DUP1 CALLDATASIZE SUB DUP2 ADD SWAP1 PUSH2 0x2FB SWAP2 SWAP1 PUSH2 0x1D49 JUMP JUMPDEST PUSH2 0x7A8 JUMP JUMPDEST STOP JUMPDEST PUSH2 0x30A PUSH2 0x8DA JUMP JUMPDEST PUSH1 0x40 MLOAD PUSH2 0x317 SWAP2 SWAP1 PUSH2 0x1E86 JUMP JUMPDEST PUSH1 0x40 MLOAD DUP1 SWAP2 SUB SWAP1 RETURN JUMPDEST PUSH2 0x33A PUSH1 0x4 DUP1 CALLDATASIZE SUB DUP2 ADD SWAP1 PUSH2 0x335 SWAP2 SWAP1 PUSH2 0x1E9F JUMP JUMPDEST PUSH2 0x8FF JUMP JUMPDEST STOP JUMPDEST PUSH2 0x356 PUSH1 0x4 DUP1 CALLDATASIZE SUB DUP2 ADD SWAP1 PUSH2 0x351 SWAP2 SWAP1 PUSH2 0x1E9F JUMP JUMPDEST PUSH2 0x913 JUMP JUMPDEST PUSH1 0x40 MLOAD PUSH2 0x363 SWAP2 SWAP1 PUSH2 0x1DC9 JUMP JUMPDEST PUSH1 0x40 MLOAD DUP1 SWAP2 SUB SWAP1 RETURN JUMPDEST PUSH2 0x386 PUSH1 0x4 DUP1 CALLDATASIZE SUB DUP2 ADD SWAP1 PUSH2 0x381 SWAP2 SWAP1 PUSH2 0x1ECA JUMP JUMPDEST PUSH2 0x955 JUMP JUMPDEST PUSH1 0x40 MLOAD PUSH2 0x393 SWAP2 SWAP1 PUSH2 0x1DC9 JUMP JUMPDEST PUSH1 0x40 MLOAD DUP1 SWAP2 SUB SWAP1 RETURN JUMPDEST PUSH2 0x3A4 PUSH2 0x99A JUMP JUMPDEST STOP JUMPDEST PUSH2 0x3C0 PUSH1 0x4 DUP1 CALLDATASIZE SUB DUP2 ADD SWAP1 PUSH2 0x3BB SWAP2 SWAP1 PUSH2 0x1D49 JUMP JUMPDEST PUSH2 0x9AD JUMP JUMPDEST STOP JUMPDEST PUSH2 0x3DC PUSH1 0x4 DUP1 CALLDATASIZE SUB DUP2 ADD SWAP1 PUSH2 0x3D7 SWAP2 SWAP1 PUSH2 0x1ECA JUMP JUMPDEST PUSH2 0x9CD JUMP JUMPDEST STOP JUMPDEST PUSH2 0x3E6 PUSH2 0xA64 JUMP JUMPDEST PUSH1 0x40 MLOAD PUSH2 0x3F3 SWAP2 SWAP1 PUSH2 0x1DC9 JUMP JUMPDEST PUSH1 0x40 MLOAD DUP1 SWAP2 SUB SWAP1 RETURN JUMPDEST PUSH2 0x404 PUSH2 0xA6A JUMP JUMPDEST PUSH1 0x40 MLOAD PUSH2 0x411 SWAP2 SWAP1 PUSH2 0x1F04 JUMP JUMPDEST PUSH1 0x40 MLOAD DUP1 SWAP2 SUB SWAP1 RETURN JUMPDEST PUSH2 0x422 PUSH2 0xA92 JUMP JUMPDEST PUSH1 0x40 MLOAD PUSH2 0x42F SWAP2 SWAP1 PUSH2 0x1DC9 JUMP JUMPDEST PUSH1 0x40 MLOAD DUP1 SWAP2 SUB SWAP1 RETURN JUMPDEST PUSH2 0x440 PUSH2 0xA98 JUMP JUMPDEST PUSH1 0x40 MLOAD PUSH2 0x44D SWAP2 SWAP1 PUSH2 0x1CB7 JUMP JUMPDEST PUSH1 0x40 MLOAD DUP1 SWAP2 SUB SWAP1 RETURN JUMPDEST PUSH2 0x470 PUSH1 0x4 DUP1 CALLDATASIZE SUB DUP2 ADD SWAP1 PUSH2 0x46B SWAP2 SWAP1 PUSH2 0x1E9F JUMP JUMPDEST PUSH2 0xB28 JUMP JUMPDEST PUSH1 0x40 MLOAD PUSH2 0x47D SWAP2 SWAP1 PUSH2 0x1DC9 JUMP JUMPDEST PUSH1 0x40 MLOAD DUP1 SWAP2 SUB SWAP1 RETURN JUMPDEST PUSH2 0x4A0 PUSH1 0x4 DUP1 CALLDATASIZE SUB DUP2 ADD SWAP1 PUSH2 0x49B SWAP2 SWAP1 PUSH2 0x1E9F JUMP JUMPDEST PUSH2 0xB6A JUMP JUMPDEST STOP JUMPDEST PUSH2 0x4BC PUSH1 0x4 DUP1 CALLDATASIZE SUB DUP2 ADD SWAP1 PUSH2 0x4B7 SWAP2 SWAP1 PUSH2 0x1D49 JUMP JUMPDEST PUSH2 0xC71 JUMP JUMPDEST PUSH1 0x40 MLOAD PUSH2 0x4C9 SWAP2 SWAP1 PUSH2 0x1DA1 JUMP JUMPDEST PUSH1 0x40 MLOAD DUP1 SWAP2 SUB SWAP1 RETURN JUMPDEST PUSH2 0x4EC PUSH1 0x4 DUP1 CALLDATASIZE SUB DUP2 ADD SWAP1 PUSH2 0x4E7 SWAP2 SWAP1 PUSH2 0x1F54 JUMP JUMPDEST PUSH2 0xC93 JUMP JUMPDEST STOP JUMPDEST PUSH2 0x508 PUSH1 0x4 DUP1 CALLDATASIZE SUB DUP2 ADD SWAP1 PUSH2 0x503 SWAP2 SWAP1 PUSH2 0x1E9F JUMP JUMPDEST PUSH2 0xD2E JUMP JUMPDEST STOP JUMPDEST PUSH2 0x524 PUSH1 0x4 DUP1 CALLDATASIZE SUB DUP2 ADD SWAP1 PUSH2 0x51F SWAP2 SWAP1 PUSH2 0x1F7F JUMP JUMPDEST PUSH2 0xE90 JUMP JUMPDEST PUSH1 0x40 MLOAD PUSH2 0x531 SWAP2 SWAP1 PUSH2 0x1DC9 JUMP JUMPDEST PUSH1 0x40 MLOAD DUP1 SWAP2 SUB SWAP1 RETURN JUMPDEST PUSH2 0x542 PUSH2 0xF12 JUMP JUMPDEST PUSH1 0x40 MLOAD PUSH2 0x54F SWAP2 SWAP1 PUSH2 0x1DC9 JUMP JUMPDEST PUSH1 0x40 MLOAD DUP1 SWAP2 SUB SWAP1 RETURN JUMPDEST PUSH2 0x572 PUSH1 0x4 DUP1 CALLDATASIZE SUB DUP2 ADD SWAP1 PUSH2 0x56D SWAP2 SWAP1 PUSH2 0x1ECA JUMP JUMPDEST PUSH2 0xF18 JUMP JUMPDEST STOP JUMPDEST PUSH2 0x58E PUSH1 0x4 DUP1 CALLDATASIZE SUB DUP2 ADD SWAP1 PUSH2 0x589 SWAP2 SWAP1 PUSH2 0x1F54 JUMP JUMPDEST PUSH2 0xF9C JUMP JUMPDEST STOP JUMPDEST PUSH32 0x0 DUP2 JUMP JUMPDEST PUSH1 0x60 PUSH1 0x3 DUP1 SLOAD PUSH2 0x5C3 SWAP1 PUSH2 0x1FEA JUMP JUMPDEST DUP1 PUSH1 0x1F ADD PUSH1 0x20 DUP1 SWAP2 DIV MUL PUSH1 0x20 ADD PUSH1 0x40 MLOAD SWAP1 DUP2 ADD PUSH1 0x40 MSTORE DUP1 SWAP3 SWAP2 SWAP1 DUP2 DUP2 MSTORE PUSH1 0x20 ADD DUP3 DUP1 SLOAD PUSH2 0x5EF SWAP1 PUSH2 0x1FEA JUMP JUMPDEST DUP1 ISZERO PUSH2 0x63A JUMPI DUP1 PUSH1 0x1F LT PUSH2 0x611 JUMPI PUSH2 0x100 DUP1 DUP4 SLOAD DIV MUL DUP4 MSTORE SWAP2 PUSH1 0x20 ADD SWAP2 PUSH2 0x63A JUMP JUMPDEST DUP3 ADD SWAP2 SWAP1 PUSH0 MSTORE PUSH1 0x20 PUSH0 KECCAK256 SWAP1 JUMPDEST DUP2 SLOAD DUP2 MSTORE SWAP1 PUSH1 0x1 ADD SWAP1 PUSH1 0x20 ADD DUP1 DUP4 GT PUSH2 0x61D JUMPI DUP3 SWAP1 SUB PUSH1 0x1F AND DUP3 ADD SWAP2 JUMPDEST POP POP POP POP POP SWAP1 POP SWAP1 JUMP JUMPDEST PUSH0 DUP1 PUSH2 0x64E PUSH2 0x1039 JUMP JUMPDEST SWAP1 POP PUSH2 0x65B DUP2 DUP6 DUP6 PUSH2 0x1040 JUMP JUMPDEST PUSH1 0x1 SWAP2 POP POP SWAP3 SWAP2 POP POP JUMP JUMPDEST PUSH2 0x66E PUSH2 0x1052 JUMP JUMPDEST PUSH32 0x0 PUSH20 0xFFFFFFFFFFFFFFFFFFFFFFFFFFFFFFFFFFFFFFFF AND PUSH4 0x70A08231 ADDRESS PUSH1 0x40 MLOAD DUP3 PUSH4 0xFFFFFFFF AND PUSH1 0xE0 SHL DUP2 MSTORE PUSH1 0x4 ADD PUSH2 0x6C7 SWAP2 SWAP1 PUSH2 0x1F04 JUMP JUMPDEST PUSH1 0x20 PUSH1 0x40 MLOAD DUP1 DUP4 SUB DUP2 DUP7 GAS STATICCALL ISZERO DUP1 ISZERO PUSH2 0x6E2 JUMPI RETURNDATASIZE PUSH0 DUP1 RETURNDATACOPY RETURNDATASIZE PUSH0 REVERT JUMPDEST POP POP POP POP PUSH1 0x40 MLOAD RETURNDATASIZE PUSH1 0x1F NOT PUSH1 0x1F DUP3 ADD AND DUP3 ADD DUP1 PUSH1 0x40 MSTORE POP DUP2 ADD SWAP1 PUSH2 0x706 SWAP2 SWAP1 PUSH2 0x202E JUMP JUMPDEST PUSH1 0x9 DUP2 SWAP1 SSTORE POP SELFBALANCE PUSH32 0xA3FAF2F1EB729D9E646E40F512A8458C02057EE480D3B576A37E8A8AB30F0555 PUSH1 0x40 MLOAD PUSH1 0x40 MLOAD DUP1 SWAP2 SUB SWAP1 LOG2 JUMP JUMPDEST PUSH0 PUSH1 0x2 SLOAD SWAP1 POP SWAP1 JUMP JUMPDEST PUSH0 PUSH1 0x9 SLOAD SWAP1 POP SWAP1 JUMP JUMPDEST PUSH0 DUP1 PUSH2 0x757 PUSH2 0x1039 JUMP JUMPDEST SWAP1 POP PUSH2 0x764 DUP6 DUP3 DUP6 PUSH2 0x10D9 JUMP JUMPDEST PUSH2 0x76F DUP6 DUP6 DUP6 PUSH2 0x116B JUMP JUMPDEST PUSH1 0x1 SWAP2 POP POP SWAP4 SWAP3 POP POP POP JUMP JUMPDEST PUSH0 PUSH1 0x12 SWAP1 POP SWAP1 JUMP JUMPDEST PUSH2 0x78B PUSH2 0x1052 JUMP JUMPDEST PUSH1 0x1 PUSH1 0xA PUSH1 0x14 PUSH2 0x100 EXP DUP2 SLOAD DUP2 PUSH1 0xFF MUL NOT AND SWAP1 DUP4 ISZERO ISZERO MUL OR SWAP1 SSTORE POP JUMP JUMPDEST PUSH2 0x7B0 PUSH2 0x125B JUMP JUMPDEST PUSH2 0x3E8 DUP2 LT ISZERO PUSH2 0x7EC JUMPI PUSH1 0x40 MLOAD PUSH32 0x2B4DB67A00000000000000000000000000000000000000000000000000000000 DUP2 MSTORE PUSH1 0x4 ADD PUSH1 0x40 MLOAD DUP1 SWAP2 SUB SWAP1 REVERT JUMPDEST PUSH0 PUSH2 0x7F6 DUP3 PUSH2 0x12A1 JUMP JUMPDEST SWAP1 POP PUSH0 PUSH1 0x8 SLOAD DUP4 PUSH2 0x807 SWAP2 SWAP1 PUSH2 0x20B3 JUMP JUMPDEST SWAP1 POP DUP1 DUP4 PUSH2 0x815 SWAP2 SWAP1 PUSH2 0x20E3 JUMP JUMPDEST PUSH1 0x9 PUSH0 DUP3 DUP3 SLOAD PUSH2 0x825 SWAP2 SWAP1 PUSH2 0x2116 JUMP JUMPDEST SWAP3 POP POP DUP2 SWAP1 SSTORE POP PUSH2 0x879 PUSH32 0x0 CALLER PUSH1 0xA PUSH0 SWAP1 SLOAD SWAP1 PUSH2 0x100 EXP SWAP1 DIV PUSH20 0xFFFFFFFFFFFFFFFFFFFFFFFFFFFFFFFFFFFFFFFF AND DUP5 PUSH2 0x12C9 JUMP JUMPDEST PUSH2 0x89D DUP5 PUSH2 0x3E8 PUSH1 0x7 SLOAD DUP6 PUSH2 0x88E SWAP2 SWAP1 PUSH2 0x2149 JUMP JUMPDEST PUSH2 0x898 SWAP2 SWAP1 PUSH2 0x20B3 JUMP JUMPDEST PUSH2 0x134B JUMP JUMPDEST DUP3 DUP3 TIMESTAMP PUSH32 0x79D4FBA3FC168DBD2A0C2A5235112B3442D90A21282F7B69506D05A46FDBBB7 PUSH1 0x40 MLOAD PUSH1 0x40 MLOAD DUP1 SWAP2 SUB SWAP1 LOG4 POP POP PUSH2 0x8D6 PUSH2 0x13CA JUMP JUMPDEST POP POP JUMP JUMPDEST PUSH1 0xA PUSH0 SWAP1 SLOAD SWAP1 PUSH2 0x100 EXP SWAP1 DIV PUSH20 0xFFFFFFFFFFFFFFFFFFFFFFFFFFFFFFFFFFFFFFFF AND DUP2 JUMP JUMPDEST PUSH2 0x910 PUSH2 0x90A PUSH2 0x1039 JUMP JUMPDEST DUP3 PUSH2 0x13D4 JUMP JUMPDEST POP JUMP JUMPDEST PUSH0 PUSH2 0x3E8 PUSH1 0x9 SLOAD PUSH1 0x7 SLOAD PUSH2 0x925 PUSH2 0x73B JUMP JUMPDEST DUP6 PUSH2 0x930 SWAP2 SWAP1 PUSH2 0x2149 JUMP JUMPDEST PUSH2 0x93A SWAP2 SWAP1 PUSH2 0x2149 JUMP JUMPDEST PUSH2 0x944 SWAP2 SWAP1 PUSH2 0x20B3 JUMP JUMPDEST PUSH2 0x94E SWAP2 SWAP1 PUSH2 0x20B3 JUMP JUMPDEST SWAP1 POP SWAP2 SWAP1 POP JUMP JUMPDEST PUSH0 DUP1 PUSH0 DUP4 PUSH20 0xFFFFFFFFFFFFFFFFFFFFFFFFFFFFFFFFFFFFFFFF AND PUSH20 0xFFFFFFFFFFFFFFFFFFFFFFFFFFFFFFFFFFFFFFFF AND DUP2 MSTORE PUSH1 0x20 ADD SWAP1 DUP2 MSTORE PUSH1 0x20 ADD PUSH0 KECCAK256 SLOAD SWAP1 POP SWAP2 SWAP1 POP JUMP JUMPDEST PUSH2 0x9A2 PUSH2 0x1052 JUMP JUMPDEST PUSH2 0x9AB PUSH0 PUSH2 0x1453 JUMP JUMPDEST JUMP JUMPDEST PUSH2 0x9BF DUP3 PUSH2 0x9B9 PUSH2 0x1039 JUMP JUMPDEST DUP4 PUSH2 0x10D9 JUMP JUMPDEST PUSH2 0x9C9 DUP3 DUP3 PUSH2 0x13D4 JUMP JUMPDEST POP POP JUMP JUMPDEST PUSH2 0x9D5 PUSH2 0x1052 JUMP JUMPDEST PUSH2 0x9DE DUP2 PUSH2 0x1516 JUMP JUMPDEST DUP1 PUSH1 0xA PUSH0 PUSH2 0x100 EXP DUP2 SLOAD DUP2 PUSH20 0xFFFFFFFFFFFFFFFFFFFFFFFFFFFFFFFFFFFFFFFF MUL NOT AND SWAP1 DUP4 PUSH20 0xFFFFFFFFFFFFFFFFFFFFFFFFFFFFFFFFFFFFFFFF AND MUL OR SWAP1 SSTORE POP DUP1 PUSH20 0xFFFFFFFFFFFFFFFFFFFFFFFFFFFFFFFFFFFFFFFF AND PUSH32 0x446E39BCF1B47CFADFAA23442CB4B34682CFE6BD9220DA084894E3B1F834E4F3 PUSH1 0x40 MLOAD PUSH1 0x40 MLOAD DUP1 SWAP2 SUB SWAP1 LOG2 POP JUMP JUMPDEST PUSH1 0x8 SLOAD DUP2 JUMP JUMPDEST PUSH0 PUSH1 0x5 PUSH0 SWAP1 SLOAD SWAP1 PUSH2 0x100 EXP SWAP1 DIV PUSH20 0xFFFFFFFFFFFFFFFFFFFFFFFFFFFFFFFFFFFFFFFF AND SWAP1 POP SWAP1 JUMP JUMPDEST PUSH1 0x7 SLOAD DUP2 JUMP JUMPDEST PUSH1 0x60 PUSH1 0x4 DUP1 SLOAD PUSH2 0xAA7 SWAP1 PUSH2 0x1FEA JUMP JUMPDEST DUP1 PUSH1 0x1F ADD PUSH1 0x20 DUP1 SWAP2 DIV MUL PUSH1 0x20 ADD PUSH1 0x40 MLOAD SWAP1 DUP2 ADD PUSH1 0x40 MSTORE DUP1 SWAP3 SWAP2 SWAP1 DUP2 DUP2 MSTORE PUSH1 0x20 ADD DUP3 DUP1 SLOAD PUSH2 0xAD3 SWAP1 PUSH2 0x1FEA JUMP JUMPDEST DUP1 ISZERO PUSH2 0xB1E JUMPI DUP1 PUSH1 0x1F LT PUSH2 0xAF5 JUMPI PUSH2 0x100 DUP1 DUP4 SLOAD DIV MUL DUP4 MSTORE SWAP2 PUSH1 0x20 ADD SWAP2 PUSH2 0xB1E JUMP JUMPDEST DUP3 ADD SWAP2 SWAP1 PUSH0 MSTORE PUSH1 0x20 PUSH0 KECCAK256 SWAP1 JUMPDEST DUP2 SLOAD DUP2 MSTORE SWAP1 PUSH1 0x1 ADD SWAP1 PUSH1 0x20 ADD DUP1 DUP4 GT PUSH2 0xB01 JUMPI DUP3 SWAP1 SUB PUSH1 0x1F AND DUP3 ADD SWAP2 JUMPDEST POP POP POP POP POP SWAP1 POP SWAP1 JUMP JUMPDEST PUSH0 PUSH2 0x3E8 PUSH2 0xB34 PUSH2 0x73B JUMP JUMPDEST PUSH1 0x7 SLOAD PUSH1 0x9 SLOAD DUP6 PUSH2 0xB45 SWAP2 SWAP1 PUSH2 0x2149 JUMP JUMPDEST PUSH2 0xB4F SWAP2 SWAP1 PUSH2 0x2149 JUMP JUMPDEST PUSH2 0xB59 SWAP2 SWAP1 PUSH2 0x20B3 JUMP JUMPDEST PUSH2 0xB63 SWAP2 SWAP1 PUSH2 0x20B3 JUMP JUMPDEST SWAP1 POP SWAP2 SWAP1 POP JUMP JUMPDEST PUSH2 0xB72 PUSH2 0x1052 JUMP JUMPDEST PUSH1 0xA PUSH1 0x14 SWAP1 SLOAD SWAP1 PUSH2 0x100 EXP SWAP1 DIV PUSH1 0xFF AND ISZERO PUSH2 0xB8B JUMPI PUSH0 DUP1 REVERT JUMPDEST PUSH2 0xBB7 PUSH32 0x0 CALLER ADDRESS DUP5 PUSH2 0x12C9 JUMP JUMPDEST PUSH2 0xBC1 CALLER DUP3 PUSH2 0x134B JUMP JUMPDEST PUSH2 0xBCF PUSH2 0xDEAD PUSH2 0x3E8 PUSH2 0xC71 JUMP JUMPDEST POP PUSH32 0x0 PUSH20 0xFFFFFFFFFFFFFFFFFFFFFFFFFFFFFFFFFFFFFFFF AND PUSH4 0x70A08231 ADDRESS PUSH1 0x40 MLOAD DUP3 PUSH4 0xFFFFFFFF AND PUSH1 0xE0 SHL DUP2 MSTORE PUSH1 0x4 ADD PUSH2 0xC29 SWAP2 SWAP1 PUSH2 0x1F04 JUMP JUMPDEST PUSH1 0x20 PUSH1 0x40 MLOAD DUP1 DUP4 SUB DUP2 DUP7 GAS STATICCALL ISZERO DUP1 ISZERO PUSH2 0xC44 JUMPI RETURNDATASIZE PUSH0 DUP1 RETURNDATACOPY RETURNDATASIZE PUSH0 REVERT JUMPDEST POP POP POP POP PUSH1 0x40 MLOAD RETURNDATASIZE PUSH1 0x1F NOT PUSH1 0x1F DUP3 ADD AND DUP3 ADD DUP1 PUSH1 0x40 MSTORE POP DUP2 ADD SWAP1 PUSH2 0xC68 SWAP2 SWAP1 PUSH2 0x202E JUMP JUMPDEST PUSH1 0x9 DUP2 SWAP1 SSTORE POP POP JUMP JUMPDEST PUSH0 DUP1 PUSH2 0xC7B PUSH2 0x1039 JUMP JUMPDEST SWAP1 POP PUSH2 0xC88 DUP2 DUP6 DUP6 PUSH2 0x116B JUMP JUMPDEST PUSH1 0x1 SWAP2 POP POP SWAP3 SWAP2 POP POP JUMP JUMPDEST PUSH2 0xC9B PUSH2 0x1052 JUMP JUMPDEST PUSH1 0x64 DUP2 PUSH2 0xFFFF AND GT DUP1 PUSH2 0xCB2 JUMPI POP PUSH1 0x19 DUP2 PUSH2 0xFFFF AND LT JUMPDEST ISZERO PUSH2 0xCE9 JUMPI PUSH1 0x40 MLOAD PUSH32 0x7F176CEE00000000000000000000000000000000000000000000000000000000 DUP2 MSTORE PUSH1 0x4 ADD PUSH1 0x40 MLOAD DUP1 SWAP2 SUB SWAP1 REVERT JUMPDEST DUP1 PUSH2 0xFFFF AND PUSH1 0x8 DUP2 SWAP1 SSTORE POP PUSH32 0x9DE4E85041D310D87DF38A671E7ECF270C37D73EA017960B904AF70512059621 DUP2 PUSH1 0x40 MLOAD PUSH2 0xD23 SWAP2 SWAP1 PUSH2 0x21BA JUMP JUMPDEST PUSH1 0x40 MLOAD DUP1 SWAP2 SUB SWAP1 LOG1 POP JUMP JUMPDEST PUSH2 0xD36 PUSH2 0x125B JUMP JUMPDEST PUSH2 0x3E8 DUP2 LT ISZERO PUSH2 0xD72 JUMPI PUSH1 0x40 MLOAD PUSH32 0x2B4DB67A00000000000000000000000000000000000000000000000000000000 DUP2 MSTORE PUSH1 0x4 ADD PUSH1 0x40 MLOAD DUP1 SWAP2 SUB SWAP1 REVERT JUMPDEST PUSH0 PUSH2 0xD7C DUP3 PUSH2 0x1546 JUMP JUMPDEST SWAP1 POP PUSH0 PUSH1 0x8 SLOAD DUP4 PUSH2 0xD8D SWAP2 SWAP1 PUSH2 0x20B3 JUMP JUMPDEST SWAP1 POP PUSH0 PUSH2 0x3E8 PUSH1 0x7 SLOAD DUP6 PUSH2 0xDA1 SWAP2 SWAP1 PUSH2 0x2149 JUMP JUMPDEST PUSH2 0xDAB SWAP2 SWAP1 PUSH2 0x20B3 JUMP JUMPDEST SWAP1 POP DUP2 DUP2 PUSH2 0xDB9 SWAP2 SWAP1 PUSH2 0x2116 JUMP JUMPDEST PUSH1 0x9 PUSH0 DUP3 DUP3 SLOAD PUSH2 0xDC9 SWAP2 SWAP1 PUSH2 0x20E3 JUMP JUMPDEST SWAP3 POP POP DUP2 SWAP1 SSTORE POP PUSH2 0xDDA CALLER DUP5 PUSH2 0x13D4 JUMP JUMPDEST PUSH2 0xE27 PUSH32 0x0 ADDRESS PUSH1 0xA PUSH0 SWAP1 SLOAD SWAP1 PUSH2 0x100 EXP SWAP1 DIV PUSH20 0xFFFFFFFFFFFFFFFFFFFFFFFFFFFFFFFFFFFFFFFF AND DUP6 PUSH2 0x12C9 JUMP JUMPDEST PUSH2 0xE53 PUSH32 0x0 ADDRESS CALLER DUP5 PUSH2 0x12C9 JUMP JUMPDEST DUP4 DUP4 TIMESTAMP PUSH32 0x1BE07AD598D802B0A04E208E5F3DFE7EAF27339C0F0E4A75DDBA517BBE5C8F36 PUSH1 0x40 MLOAD PUSH1 0x40 MLOAD DUP1 SWAP2 SUB SWAP1 LOG4 POP POP POP PUSH2 0xE8D PUSH2 0x13CA JUMP JUMPDEST POP JUMP JUMPDEST PUSH0 PUSH1 0x1 PUSH0 DUP5 PUSH20 0xFFFFFFFFFFFFFFFFFFFFFFFFFFFFFFFFFFFFFFFF AND PUSH20 0xFFFFFFFFFFFFFFFFFFFFFFFFFFFFFFFFFFFFFFFF AND DUP2 MSTORE PUSH1 0x20 ADD SWAP1 DUP2 MSTORE PUSH1 0x20 ADD PUSH0 KECCAK256 PUSH0 DUP4 PUSH20 0xFFFFFFFFFFFFFFFFFFFFFFFFFFFFFFFFFFFFFFFF AND PUSH20 0xFFFFFFFFFFFFFFFFFFFFFFFFFFFFFFFFFFFFFFFF AND DUP2 MSTORE PUSH1 0x20 ADD SWAP1 DUP2 MSTORE PUSH1 0x20 ADD PUSH0 KECCAK256 SLOAD SWAP1 POP SWAP3 SWAP2 POP POP JUMP JUMPDEST PUSH1 0x9 SLOAD DUP2 JUMP JUMPDEST PUSH2 0xF20 PUSH2 0x1052 JUMP JUMPDEST PUSH0 PUSH20 0xFFFFFFFFFFFFFFFFFFFFFFFFFFFFFFFFFFFFFFFF AND DUP2 PUSH20 0xFFFFFFFFFFFFFFFFFFFFFFFFFFFFFFFFFFFFFFFF AND SUB PUSH2 0xF90 JUMPI PUSH0 PUSH1 0x40 MLOAD PUSH32 0x1E4FBDF700000000000000000000000000000000000000000000000000000000 DUP2 MSTORE PUSH1 0x4 ADD PUSH2 0xF87 SWAP2 SWAP1 PUSH2 0x1F04 JUMP JUMPDEST PUSH1 0x40 MLOAD DUP1 SWAP2 SUB SWAP1 REVERT JUMPDEST PUSH2 0xF99 DUP2 PUSH2 0x1453 JUMP JUMPDEST POP JUMP JUMPDEST PUSH2 0xFA4 PUSH2 0x1052 JUMP JUMPDEST PUSH2 0x3D4 DUP2 PUSH2 0xFFFF AND GT DUP1 PUSH2 0xFBD JUMPI POP PUSH2 0x3B6 DUP2 PUSH2 0xFFFF AND LT JUMPDEST ISZERO PUSH2 0xFF4 JUMPI PUSH1 0x40 MLOAD PUSH32 0x48565AD500000000000000000000000000000000000000000000000000000000 DUP2 MSTORE PUSH1 0x4 ADD PUSH1 0x40 MLOAD DUP1 SWAP2 SUB SWAP1 REVERT JUMPDEST DUP1 PUSH2 0xFFFF AND PUSH1 0x7 DUP2 SWAP1 SSTORE POP PUSH32 0xA7AAF5668E7D5E60BFA38B5D07A3178204A2D8CB16F5A03678C20F42C7954295 DUP2 PUSH1 0x40 MLOAD PUSH2 0x102E SWAP2 SWAP1 PUSH2 0x21BA JUMP JUMPDEST PUSH1 0x40 MLOAD DUP1 SWAP2 SUB SWAP1 LOG1 POP JUMP JUMPDEST PUSH0 CALLER SWAP1 POP SWAP1 JUMP JUMPDEST PUSH2 0x104D DUP4 DUP4 DUP4 PUSH1 0x1 PUSH2 0x156E JUMP JUMPDEST POP POP POP JUMP JUMPDEST PUSH2 0x105A PUSH2 0x1039 JUMP JUMPDEST PUSH20 0xFFFFFFFFFFFFFFFFFFFFFFFFFFFFFFFFFFFFFFFF AND PUSH2 0x1078 PUSH2 0xA6A JUMP JUMPDEST PUSH20 0xFFFFFFFFFFFFFFFFFFFFFFFFFFFFFFFFFFFFFFFF AND EQ PUSH2 0x10D7 JUMPI PUSH2 0x109B PUSH2 0x1039 JUMP JUMPDEST PUSH1 0x40 MLOAD PUSH32 0x118CDAA700000000000000000000000000000000000000000000000000000000 DUP2 MSTORE PUSH1 0x4 ADD PUSH2 0x10CE SWAP2 SWAP1 PUSH2 0x1F04 JUMP JUMPDEST PUSH1 0x40 MLOAD DUP1 SWAP2 SUB SWAP1 REVERT JUMPDEST JUMP JUMPDEST PUSH0 PUSH2 0x10E4 DUP5 DUP5 PUSH2 0xE90 JUMP JUMPDEST SWAP1 POP PUSH32 0xFFFFFFFFFFFFFFFFFFFFFFFFFFFFFFFFFFFFFFFFFFFFFFFFFFFFFFFFFFFFFFFF DUP2 EQ PUSH2 0x1165 JUMPI DUP2 DUP2 LT ISZERO PUSH2 0x1156 JUMPI DUP3 DUP2 DUP4 PUSH1 0x40 MLOAD PUSH32 0xFB8F41B200000000000000000000000000000000000000000000000000000000 DUP2 MSTORE PUSH1 0x4 ADD PUSH2 0x114D SWAP4 SWAP3 SWAP2 SWAP1 PUSH2 0x21D3 JUMP JUMPDEST PUSH1 0x40 MLOAD DUP1 SWAP2 SUB SWAP1 REVERT JUMPDEST PUSH2 0x1164 DUP5 DUP5 DUP5 DUP5 SUB PUSH0 PUSH2 0x156E JUMP JUMPDEST JUMPDEST POP POP POP POP JUMP JUMPDEST PUSH0 PUSH20 0xFFFFFFFFFFFFFFFFFFFFFFFFFFFFFFFFFFFFFFFF AND DUP4 PUSH20 0xFFFFFFFFFFFFFFFFFFFFFFFFFFFFFFFFFFFFFFFF AND SUB PUSH2 0x11DB JUMPI PUSH0 PUSH1 0x40 MLOAD PUSH32 0x96C6FD1E00000000000000000000000000000000000000000000000000000000 DUP2 MSTORE PUSH1 0x4 ADD PUSH2 0x11D2 SWAP2 SWAP1 PUSH2 0x1F04 JUMP JUMPDEST PUSH1 0x40 MLOAD DUP1 SWAP2 SUB SWAP1 REVERT JUMPDEST PUSH0 PUSH20 0xFFFFFFFFFFFFFFFFFFFFFFFFFFFFFFFFFFFFFFFF AND DUP3 PUSH20 0xFFFFFFFFFFFFFFFFFFFFFFFFFFFFFFFFFFFFFFFF AND SUB PUSH2 0x124B JUMPI PUSH0 PUSH1 0x40 MLOAD PUSH32 0xEC442F0500000000000000000000000000000000000000000000000000000000 DUP2 MSTORE PUSH1 0x4 ADD PUSH2 0x1242 SWAP2 SWAP1 PUSH2 0x1F04 JUMP JUMPDEST PUSH1 0x40 MLOAD DUP1 SWAP2 SUB SWAP1 REVERT JUMPDEST PUSH2 0x1256 DUP4 DUP4 DUP4 PUSH2 0x173D JUMP JUMPDEST POP POP POP JUMP JUMPDEST PUSH1 0x2 PUSH1 0x6 SLOAD SUB PUSH2 0x1297 JUMPI PUSH1 0x40 MLOAD PUSH32 0x3EE5AEB500000000000000000000000000000000000000000000000000000000 DUP2 MSTORE PUSH1 0x4 ADD PUSH1 0x40 MLOAD DUP1 SWAP2 SUB SWAP1 REVERT JUMPDEST PUSH1 0x2 PUSH1 0x6 DUP2 SWAP1 SSTORE POP JUMP JUMPDEST PUSH0 PUSH1 0x9 SLOAD PUSH2 0x12AD PUSH2 0x73B JUMP JUMPDEST DUP4 PUSH2 0x12B8 SWAP2 SWAP1 PUSH2 0x2149 JUMP JUMPDEST PUSH2 0x12C2 SWAP2 SWAP1 PUSH2 0x20B3 JUMP JUMPDEST SWAP1 POP SWAP2 SWAP1 POP JUMP JUMPDEST PUSH2 0x1345 DUP5 DUP6 PUSH20 0xFFFFFFFFFFFFFFFFFFFFFFFFFFFFFFFFFFFFFFFF AND PUSH4 0x23B872DD DUP7 DUP7 DUP7 PUSH1 0x40 MLOAD PUSH1 0x24 ADD PUSH2 0x12FE SWAP4 SWAP3 SWAP2 SWAP1 PUSH2 0x2208 JUMP JUMPDEST PUSH1 0x40 MLOAD PUSH1 0x20 DUP2 DUP4 SUB SUB DUP2 MSTORE SWAP1 PUSH1 0x40 MSTORE SWAP2 POP PUSH1 0xE0 SHL PUSH1 0x20 DUP3 ADD DUP1 MLOAD PUSH28 0xFFFFFFFFFFFFFFFFFFFFFFFFFFFFFFFFFFFFFFFFFFFFFFFFFFFFFFFF DUP4 DUP2 DUP4 AND OR DUP4 MSTORE POP POP POP POP PUSH2 0x1956 JUMP JUMPDEST POP POP POP POP JUMP JUMPDEST PUSH0 PUSH20 0xFFFFFFFFFFFFFFFFFFFFFFFFFFFFFFFFFFFFFFFF AND DUP3 PUSH20 0xFFFFFFFFFFFFFFFFFFFFFFFFFFFFFFFFFFFFFFFF AND SUB PUSH2 0x13BB JUMPI PUSH0 PUSH1 0x40 MLOAD PUSH32 0xEC442F0500000000000000000000000000000000000000000000000000000000 DUP2 MSTORE PUSH1 0x4 ADD PUSH2 0x13B2 SWAP2 SWAP1 PUSH2 0x1F04 JUMP JUMPDEST PUSH1 0x40 MLOAD DUP1 SWAP2 SUB SWAP1 REVERT JUMPDEST PUSH2 0x13C6 PUSH0 DUP4 DUP4 PUSH2 0x173D JUMP JUMPDEST POP POP JUMP JUMPDEST PUSH1 0x1 PUSH1 0x6 DUP2 SWAP1 SSTORE POP JUMP JUMPDEST PUSH0 PUSH20 0xFFFFFFFFFFFFFFFFFFFFFFFFFFFFFFFFFFFFFFFF AND DUP3 PUSH20 0xFFFFFFFFFFFFFFFFFFFFFFFFFFFFFFFFFFFFFFFF AND SUB PUSH2 0x1444 JUMPI PUSH0 PUSH1 0x40 MLOAD PUSH32 0x96C6FD1E00000000000000000000000000000000000000000000000000000000 DUP2 MSTORE PUSH1 0x4 ADD PUSH2 0x143B SWAP2 SWAP1 PUSH2 0x1F04 JUMP JUMPDEST PUSH1 0x40 MLOAD DUP1 SWAP2 SUB SWAP1 REVERT JUMPDEST PUSH2 0x144F DUP3 PUSH0 DUP4 PUSH2 0x173D JUMP JUMPDEST POP POP JUMP JUMPDEST PUSH0 PUSH1 0x5 PUSH0 SWAP1 SLOAD SWAP1 PUSH2 0x100 EXP SWAP1 DIV PUSH20 0xFFFFFFFFFFFFFFFFFFFFFFFFFFFFFFFFFFFFFFFF AND SWAP1 POP DUP2 PUSH1 0x5 PUSH0 PUSH2 0x100 EXP DUP2 SLOAD DUP2 PUSH20 0xFFFFFFFFFFFFFFFFFFFFFFFFFFFFFFFFFFFFFFFF MUL NOT AND SWAP1 DUP4 PUSH20 0xFFFFFFFFFFFFFFFFFFFFFFFFFFFFFFFFFFFFFFFF AND MUL OR SWAP1 SSTORE POP DUP2 PUSH20 0xFFFFFFFFFFFFFFFFFFFFFFFFFFFFFFFFFFFFFFFF AND DUP2 PUSH20 0xFFFFFFFFFFFFFFFFFFFFFFFFFFFFFFFFFFFFFFFF AND PUSH32 0x8BE0079C531659141344CD1FD0A4F28419497F9722A3DAAFE3B4186F6B6457E0 PUSH1 0x40 MLOAD PUSH1 0x40 MLOAD DUP1 SWAP2 SUB SWAP1 LOG3 POP POP JUMP JUMPDEST DUP1 PUSH2 0x1543 JUMPI PUSH32 0x5A65726F20616464726573730000000000000000000000000000000000000000 PUSH0 MSTORE PUSH1 0x20 PUSH0 REVERT JUMPDEST POP JUMP JUMPDEST PUSH0 PUSH2 0x154F PUSH2 0x73B JUMP JUMPDEST PUSH1 0x9 SLOAD DUP4 PUSH2 0x155D SWAP2 SWAP1 PUSH2 0x2149 JUMP JUMPDEST PUSH2 0x1567 SWAP2 SWAP1 PUSH2 0x20B3 JUMP JUMPDEST SWAP1 POP SWAP2 SWAP1 POP JUMP JUMPDEST PUSH0 PUSH20 0xFFFFFFFFFFFFFFFFFFFFFFFFFFFFFFFFFFFFFFFF AND DUP5 PUSH20 0xFFFFFFFFFFFFFFFFFFFFFFFFFFFFFFFFFFFFFFFF AND SUB PUSH2 0x15DE JUMPI PUSH0 PUSH1 0x40 MLOAD PUSH32 0xE602DF0500000000000000000000000000000000000000000000000000000000 DUP2 MSTORE PUSH1 0x4 ADD PUSH2 0x15D5 SWAP2 SWAP1 PUSH2 0x1F04 JUMP JUMPDEST PUSH1 0x40 MLOAD DUP1 SWAP2 SUB SWAP1 REVERT JUMPDEST PUSH0 PUSH20 0xFFFFFFFFFFFFFFFFFFFFFFFFFFFFFFFFFFFFFFFF AND DUP4 PUSH20 0xFFFFFFFFFFFFFFFFFFFFFFFFFFFFFFFFFFFFFFFF AND SUB PUSH2 0x164E JUMPI PUSH0 PUSH1 0x40 MLOAD PUSH32 0x94280D6200000000000000000000000000000000000000000000000000000000 DUP2 MSTORE PUSH1 0x4 ADD PUSH2 0x1645 SWAP2 SWAP1 PUSH2 0x1F04 JUMP JUMPDEST PUSH1 0x40 MLOAD DUP1 SWAP2 SUB SWAP1 REVERT JUMPDEST DUP2 PUSH1 0x1 PUSH0 DUP7 PUSH20 0xFFFFFFFFFFFFFFFFFFFFFFFFFFFFFFFFFFFFFFFF AND PUSH20 0xFFFFFFFFFFFFFFFFFFFFFFFFFFFFFFFFFFFFFFFF AND DUP2 MSTORE PUSH1 0x20 ADD SWAP1 DUP2 MSTORE PUSH1 0x20 ADD PUSH0 KECCAK256 PUSH0 DUP6 PUSH20 0xFFFFFFFFFFFFFFFFFFFFFFFFFFFFFFFFFFFFFFFF AND PUSH20 0xFFFFFFFFFFFFFFFFFFFFFFFFFFFFFFFFFFFFFFFF AND DUP2 MSTORE PUSH1 0x20 ADD SWAP1 DUP2 MSTORE PUSH1 0x20 ADD PUSH0 KECCAK256 DUP2 SWAP1 SSTORE POP DUP1 ISZERO PUSH2 0x1737 JUMPI DUP3 PUSH20 0xFFFFFFFFFFFFFFFFFFFFFFFFFFFFFFFFFFFFFFFF AND DUP5 PUSH20 0xFFFFFFFFFFFFFFFFFFFFFFFFFFFFFFFFFFFFFFFF AND PUSH32 0x8C5BE1E5EBEC7D5BD14F71427D1E84F3DD0314C0F7B2291E5B200AC8C7C3B925 DUP5 PUSH1 0x40 MLOAD PUSH2 0x172E SWAP2 SWAP1 PUSH2 0x1DC9 JUMP JUMPDEST PUSH1 0x40 MLOAD DUP1 SWAP2 SUB SWAP1 LOG3 JUMPDEST POP POP POP POP JUMP JUMPDEST PUSH0 PUSH20 0xFFFFFFFFFFFFFFFFFFFFFFFFFFFFFFFFFFFFFFFF AND DUP4 PUSH20 0xFFFFFFFFFFFFFFFFFFFFFFFFFFFFFFFFFFFFFFFF AND SUB PUSH2 0x178D JUMPI DUP1 PUSH1 0x2 PUSH0 DUP3 DUP3 SLOAD PUSH2 0x1781 SWAP2 SWAP1 PUSH2 0x2116 JUMP JUMPDEST SWAP3 POP POP DUP2 SWAP1 SSTORE POP PUSH2 0x185B JUMP JUMPDEST PUSH0 DUP1 PUSH0 DUP6 PUSH20 0xFFFFFFFFFFFFFFFFFFFFFFFFFFFFFFFFFFFFFFFF AND PUSH20 0xFFFFFFFFFFFFFFFFFFFFFFFFFFFFFFFFFFFFFFFF AND DUP2 MSTORE PUSH1 0x20 ADD SWAP1 DUP2 MSTORE PUSH1 0x20 ADD PUSH0 KECCAK256 SLOAD SWAP1 POP DUP2 DUP2 LT ISZERO PUSH2 0x1816 JUMPI DUP4 DUP2 DUP4 PUSH1 0x40 MLOAD PUSH32 0xE450D38C00000000000000000000000000000000000000000000000000000000 DUP2 MSTORE PUSH1 0x4 ADD PUSH2 0x180D SWAP4 SWAP3 SWAP2 SWAP1 PUSH2 0x21D3 JUMP JUMPDEST PUSH1 0x40 MLOAD DUP1 SWAP2 SUB SWAP1 REVERT JUMPDEST DUP2 DUP2 SUB PUSH0 DUP1 DUP7 PUSH20 0xFFFFFFFFFFFFFFFFFFFFFFFFFFFFFFFFFFFFFFFF AND PUSH20 0xFFFFFFFFFFFFFFFFFFFFFFFFFFFFFFFFFFFFFFFF AND DUP2 MSTORE PUSH1 0x20 ADD SWAP1 DUP2 MSTORE PUSH1 0x20 ADD PUSH0 KECCAK256 DUP2 SWAP1 SSTORE POP POP JUMPDEST PUSH0 PUSH20 0xFFFFFFFFFFFFFFFFFFFFFFFFFFFFFFFFFFFFFFFF AND DUP3 PUSH20 0xFFFFFFFFFFFFFFFFFFFFFFFFFFFFFFFFFFFFFFFF AND SUB PUSH2 0x18A2 JUMPI DUP1 PUSH1 0x2 PUSH0 DUP3 DUP3 SLOAD SUB SWAP3 POP POP DUP2 SWAP1 SSTORE POP PUSH2 0x18EC JUMP JUMPDEST DUP1 PUSH0 DUP1 DUP5 PUSH20 0xFFFFFFFFFFFFFFFFFFFFFFFFFFFFFFFFFFFFFFFF AND PUSH20 0xFFFFFFFFFFFFFFFFFFFFFFFFFFFFFFFFFFFFFFFF AND DUP2 MSTORE PUSH1 0x20 ADD SWAP1 DUP2 MSTORE PUSH1 0x20 ADD PUSH0 KECCAK256 PUSH0 DUP3 DUP3 SLOAD ADD SWAP3 POP POP DUP2 SWAP1 SSTORE POP JUMPDEST DUP2 PUSH20 0xFFFFFFFFFFFFFFFFFFFFFFFFFFFFFFFFFFFFFFFF AND DUP4 PUSH20 0xFFFFFFFFFFFFFFFFFFFFFFFFFFFFFFFFFFFFFFFF AND PUSH32 0xDDF252AD1BE2C89B69C2B068FC378DAA952BA7F163C4A11628F55A4DF523B3EF DUP4 PUSH1 0x40 MLOAD PUSH2 0x1949 SWAP2 SWAP1 PUSH2 0x1DC9 JUMP JUMPDEST PUSH1 0x40 MLOAD DUP1 SWAP2 SUB SWAP1 LOG3 POP POP POP JUMP JUMPDEST PUSH0 PUSH2 0x1980 DUP3 DUP5 PUSH20 0xFFFFFFFFFFFFFFFFFFFFFFFFFFFFFFFFFFFFFFFF AND PUSH2 0x19EB SWAP1 SWAP2 SWAP1 PUSH4 0xFFFFFFFF AND JUMP JUMPDEST SWAP1 POP PUSH0 DUP2 MLOAD EQ ISZERO DUP1 ISZERO PUSH2 0x19A4 JUMPI POP DUP1 DUP1 PUSH1 0x20 ADD SWAP1 MLOAD DUP2 ADD SWAP1 PUSH2 0x19A2 SWAP2 SWAP1 PUSH2 0x2267 JUMP JUMPDEST ISZERO JUMPDEST ISZERO PUSH2 0x19E6 JUMPI DUP3 PUSH1 0x40 MLOAD PUSH32 0x5274AFE700000000000000000000000000000000000000000000000000000000 DUP2 MSTORE PUSH1 0x4 ADD PUSH2 0x19DD SWAP2 SWAP1 PUSH2 0x1F04 JUMP JUMPDEST PUSH1 0x40 MLOAD DUP1 SWAP2 SUB SWAP1 REVERT JUMPDEST POP POP POP JUMP JUMPDEST PUSH1 0x60 PUSH2 0x19F8 DUP4 DUP4 PUSH0 PUSH2 0x1A00 JUMP JUMPDEST SWAP1 POP SWAP3 SWAP2 POP POP JUMP JUMPDEST PUSH1 0x60 DUP2 SELFBALANCE LT ISZERO PUSH2 0x1A47 JUMPI ADDRESS PUSH1 0x40 MLOAD PUSH32 0xCD78605900000000000000000000000000000000000000000000000000000000 DUP2 MSTORE PUSH1 0x4 ADD PUSH2 0x1A3E SWAP2 SWAP1 PUSH2 0x1F04 JUMP JUMPDEST PUSH1 0x40 MLOAD DUP1 SWAP2 SUB SWAP1 REVERT JUMPDEST PUSH0 DUP1 DUP6 PUSH20 0xFFFFFFFFFFFFFFFFFFFFFFFFFFFFFFFFFFFFFFFF AND DUP5 DUP7 PUSH1 0x40 MLOAD PUSH2 0x1A6F SWAP2 SWAP1 PUSH2 0x22D6 JUMP JUMPDEST PUSH0 PUSH1 0x40 MLOAD DUP1 DUP4 SUB DUP2 DUP6 DUP8 GAS CALL SWAP3 POP POP POP RETURNDATASIZE DUP1 PUSH0 DUP2 EQ PUSH2 0x1AA9 JUMPI PUSH1 0x40 MLOAD SWAP2 POP PUSH1 0x1F NOT PUSH1 0x3F RETURNDATASIZE ADD AND DUP3 ADD PUSH1 0x40 MSTORE RETURNDATASIZE DUP3 MSTORE RETURNDATASIZE PUSH0 PUSH1 0x20 DUP5 ADD RETURNDATACOPY PUSH2 0x1AAE JUMP JUMPDEST PUSH1 0x60 SWAP2 POP JUMPDEST POP SWAP2 POP SWAP2 POP PUSH2 0x1ABE DUP7 DUP4 DUP4 PUSH2 0x1AC9 JUMP JUMPDEST SWAP3 POP POP POP SWAP4 SWAP3 POP POP POP JUMP JUMPDEST PUSH1 0x60 DUP3 PUSH2 0x1ADE JUMPI PUSH2 0x1AD9 DUP3 PUSH2 0x1B56 JUMP JUMPDEST PUSH2 0x1B4E JUMP JUMPDEST PUSH0 DUP3 MLOAD EQ DUP1 ISZERO PUSH2 0x1B04 JUMPI POP PUSH0 DUP5 PUSH20 0xFFFFFFFFFFFFFFFFFFFFFFFFFFFFFFFFFFFFFFFF AND EXTCODESIZE EQ JUMPDEST ISZERO PUSH2 0x1B46 JUMPI DUP4 PUSH1 0x40 MLOAD PUSH32 0x9996B31500000000000000000000000000000000000000000000000000000000 DUP2 MSTORE PUSH1 0x4 ADD PUSH2 0x1B3D SWAP2 SWAP1 PUSH2 0x1F04 JUMP JUMPDEST PUSH1 0x40 MLOAD DUP1 SWAP2 SUB SWAP1 REVERT JUMPDEST DUP2 SWAP1 POP PUSH2 0x1B4F JUMP JUMPDEST JUMPDEST SWAP4 SWAP3 POP POP POP JUMP JUMPDEST PUSH0 DUP2 MLOAD GT ISZERO PUSH2 0x1B68 JUMPI DUP1 MLOAD DUP1 DUP3 PUSH1 0x20 ADD REVERT JUMPDEST PUSH1 0x40 MLOAD PUSH32 0x1425EA4200000000000000000000000000000000000000000000000000000000 DUP2 MSTORE PUSH1 0x4 ADD PUSH1 0x40 MLOAD DUP1 SWAP2 SUB SWAP1 REVERT JUMPDEST PUSH0 PUSH20 0xFFFFFFFFFFFFFFFFFFFFFFFFFFFFFFFFFFFFFFFF DUP3 AND SWAP1 POP SWAP2 SWAP1 POP JUMP JUMPDEST PUSH0 DUP2 SWAP1 POP SWAP2 SWAP1 POP JUMP JUMPDEST PUSH0 PUSH2 0x1BDC PUSH2 0x1BD7 PUSH2 0x1BD2 DUP5 PUSH2 0x1B9A JUMP JUMPDEST PUSH2 0x1BB9 JUMP JUMPDEST PUSH2 0x1B9A JUMP JUMPDEST SWAP1 POP SWAP2 SWAP1 POP JUMP JUMPDEST PUSH0 PUSH2 0x1BED DUP3 PUSH2 0x1BC2 JUMP JUMPDEST SWAP1 POP SWAP2 SWAP1 POP JUMP JUMPDEST PUSH0 PUSH2 0x1BFE DUP3 PUSH2 0x1BE3 JUMP JUMPDEST SWAP1 POP SWAP2 SWAP1 POP JUMP JUMPDEST PUSH2 0x1C0E DUP2 PUSH2 0x1BF4 JUMP JUMPDEST DUP3 MSTORE POP POP JUMP JUMPDEST PUSH0 PUSH1 0x20 DUP3 ADD SWAP1 POP PUSH2 0x1C27 PUSH0 DUP4 ADD DUP5 PUSH2 0x1C05 JUMP JUMPDEST SWAP3 SWAP2 POP POP JUMP JUMPDEST PUSH0 DUP2 MLOAD SWAP1 POP SWAP2 SWAP1 POP JUMP JUMPDEST PUSH0 DUP3 DUP3 MSTORE PUSH1 0x20 DUP3 ADD SWAP1 POP SWAP3 SWAP2 POP POP JUMP JUMPDEST PUSH0 JUMPDEST DUP4 DUP2 LT ISZERO PUSH2 0x1C64 JUMPI DUP1 DUP3 ADD MLOAD DUP2 DUP5 ADD MSTORE PUSH1 0x20 DUP2 ADD SWAP1 POP PUSH2 0x1C49 JUMP JUMPDEST PUSH0 DUP5 DUP5 ADD MSTORE POP POP POP POP JUMP JUMPDEST PUSH0 PUSH1 0x1F NOT PUSH1 0x1F DUP4 ADD AND SWAP1 POP SWAP2 SWAP1 POP JUMP JUMPDEST PUSH0 PUSH2 0x1C89 DUP3 PUSH2 0x1C2D JUMP JUMPDEST PUSH2 0x1C93 DUP2 DUP6 PUSH2 0x1C37 JUMP JUMPDEST SWAP4 POP PUSH2 0x1CA3 DUP2 DUP6 PUSH1 0x20 DUP7 ADD PUSH2 0x1C47 JUMP JUMPDEST PUSH2 0x1CAC DUP2 PUSH2 0x1C6F JUMP JUMPDEST DUP5 ADD SWAP2 POP POP SWAP3 SWAP2 POP POP JUMP JUMPDEST PUSH0 PUSH1 0x20 DUP3 ADD SWAP1 POP DUP2 DUP2 SUB PUSH0 DUP4 ADD MSTORE PUSH2 0x1CCF DUP2 DUP5 PUSH2 0x1C7F JUMP JUMPDEST SWAP1 POP SWAP3 SWAP2 POP POP JUMP JUMPDEST PUSH0 DUP1 REVERT JUMPDEST PUSH0 PUSH2 0x1CE5 DUP3 PUSH2 0x1B9A JUMP JUMPDEST SWAP1 POP SWAP2 SWAP1 POP JUMP JUMPDEST PUSH2 0x1CF5 DUP2 PUSH2 0x1CDB JUMP JUMPDEST DUP2 EQ PUSH2 0x1CFF JUMPI PUSH0 DUP1 REVERT JUMPDEST POP JUMP JUMPDEST PUSH0 DUP2 CALLDATALOAD SWAP1 POP PUSH2 0x1D10 DUP2 PUSH2 0x1CEC JUMP JUMPDEST SWAP3 SWAP2 POP POP JUMP JUMPDEST PUSH0 DUP2 SWAP1 POP SWAP2 SWAP1 POP JUMP JUMPDEST PUSH2 0x1D28 DUP2 PUSH2 0x1D16 JUMP JUMPDEST DUP2 EQ PUSH2 0x1D32 JUMPI PUSH0 DUP1 REVERT JUMPDEST POP JUMP JUMPDEST PUSH0 DUP2 CALLDATALOAD SWAP1 POP PUSH2 0x1D43 DUP2 PUSH2 0x1D1F JUMP JUMPDEST SWAP3 SWAP2 POP POP JUMP JUMPDEST PUSH0 DUP1 PUSH1 0x40 DUP4 DUP6 SUB SLT ISZERO PUSH2 0x1D5F JUMPI PUSH2 0x1D5E PUSH2 0x1CD7 JUMP JUMPDEST JUMPDEST PUSH0 PUSH2 0x1D6C DUP6 DUP3 DUP7 ADD PUSH2 0x1D02 JUMP JUMPDEST SWAP3 POP POP PUSH1 0x20 PUSH2 0x1D7D DUP6 DUP3 DUP7 ADD PUSH2 0x1D35 JUMP JUMPDEST SWAP2 POP POP SWAP3 POP SWAP3 SWAP1 POP JUMP JUMPDEST PUSH0 DUP2 ISZERO ISZERO SWAP1 POP SWAP2 SWAP1 POP JUMP JUMPDEST PUSH2 0x1D9B DUP2 PUSH2 0x1D87 JUMP JUMPDEST DUP3 MSTORE POP POP JUMP JUMPDEST PUSH0 PUSH1 0x20 DUP3 ADD SWAP1 POP PUSH2 0x1DB4 PUSH0 DUP4 ADD DUP5 PUSH2 0x1D92 JUMP JUMPDEST SWAP3 SWAP2 POP POP JUMP JUMPDEST PUSH2 0x1DC3 DUP2 PUSH2 0x1D16 JUMP JUMPDEST DUP3 MSTORE POP POP JUMP JUMPDEST PUSH0 PUSH1 0x20 DUP3 ADD SWAP1 POP PUSH2 0x1DDC PUSH0 DUP4 ADD DUP5 PUSH2 0x1DBA JUMP JUMPDEST SWAP3 SWAP2 POP POP JUMP JUMPDEST PUSH0 DUP1 PUSH0 PUSH1 0x60 DUP5 DUP7 SUB SLT ISZERO PUSH2 0x1DF9 JUMPI PUSH2 0x1DF8 PUSH2 0x1CD7 JUMP JUMPDEST JUMPDEST PUSH0 PUSH2 0x1E06 DUP7 DUP3 DUP8 ADD PUSH2 0x1D02 JUMP JUMPDEST SWAP4 POP POP PUSH1 0x20 PUSH2 0x1E17 DUP7 DUP3 DUP8 ADD PUSH2 0x1D02 JUMP JUMPDEST SWAP3 POP POP PUSH1 0x40 PUSH2 0x1E28 DUP7 DUP3 DUP8 ADD PUSH2 0x1D35 JUMP JUMPDEST SWAP2 POP POP SWAP3 POP SWAP3 POP SWAP3 JUMP JUMPDEST PUSH0 PUSH1 0xFF DUP3 AND SWAP1 POP SWAP2 SWAP1 POP JUMP JUMPDEST PUSH2 0x1E47 DUP2 PUSH2 0x1E32 JUMP JUMPDEST DUP3 MSTORE POP POP JUMP JUMPDEST PUSH0 PUSH1 0x20 DUP3 ADD SWAP1 POP PUSH2 0x1E60 PUSH0 DUP4 ADD DUP5 PUSH2 0x1E3E JUMP JUMPDEST SWAP3 SWAP2 POP POP JUMP JUMPDEST PUSH0 PUSH2 0x1E70 DUP3 PUSH2 0x1B9A JUMP JUMPDEST SWAP1 POP SWAP2 SWAP1 POP JUMP JUMPDEST PUSH2 0x1E80 DUP2 PUSH2 0x1E66 JUMP JUMPDEST DUP3 MSTORE POP POP JUMP JUMPDEST PUSH0 PUSH1 0x20 DUP3 ADD SWAP1 POP PUSH2 0x1E99 PUSH0 DUP4 ADD DUP5 PUSH2 0x1E77 JUMP JUMPDEST SWAP3 SWAP2 POP POP JUMP JUMPDEST PUSH0 PUSH1 0x20 DUP3 DUP5 SUB SLT ISZERO PUSH2 0x1EB4 JUMPI PUSH2 0x1EB3 PUSH2 0x1CD7 JUMP JUMPDEST JUMPDEST PUSH0 PUSH2 0x1EC1 DUP5 DUP3 DUP6 ADD PUSH2 0x1D35 JUMP JUMPDEST SWAP2 POP POP SWAP3 SWAP2 POP POP JUMP JUMPDEST PUSH0 PUSH1 0x20 DUP3 DUP5 SUB SLT ISZERO PUSH2 0x1EDF JUMPI PUSH2 0x1EDE PUSH2 0x1CD7 JUMP JUMPDEST JUMPDEST PUSH0 PUSH2 0x1EEC DUP5 DUP3 DUP6 ADD PUSH2 0x1D02 JUMP JUMPDEST SWAP2 POP POP SWAP3 SWAP2 POP POP JUMP JUMPDEST PUSH2 0x1EFE DUP2 PUSH2 0x1CDB JUMP JUMPDEST DUP3 MSTORE POP POP JUMP JUMPDEST PUSH0 PUSH1 0x20 DUP3 ADD SWAP1 POP PUSH2 0x1F17 PUSH0 DUP4 ADD DUP5 PUSH2 0x1EF5 JUMP JUMPDEST SWAP3 SWAP2 POP POP JUMP JUMPDEST PUSH0 PUSH2 0xFFFF DUP3 AND SWAP1 POP SWAP2 SWAP1 POP JUMP JUMPDEST PUSH2 0x1F33 DUP2 PUSH2 0x1F1D JUMP JUMPDEST DUP2 EQ PUSH2 0x1F3D JUMPI PUSH0 DUP1 REVERT JUMPDEST POP JUMP JUMPDEST PUSH0 DUP2 CALLDATALOAD SWAP1 POP PUSH2 0x1F4E DUP2 PUSH2 0x1F2A JUMP JUMPDEST SWAP3 SWAP2 POP POP JUMP JUMPDEST PUSH0 PUSH1 0x20 DUP3 DUP5 SUB SLT ISZERO PUSH2 0x1F69 JUMPI PUSH2 0x1F68 PUSH2 0x1CD7 JUMP JUMPDEST JUMPDEST PUSH0 PUSH2 0x1F76 DUP5 DUP3 DUP6 ADD PUSH2 0x1F40 JUMP JUMPDEST SWAP2 POP POP SWAP3 SWAP2 POP POP JUMP JUMPDEST PUSH0 DUP1 PUSH1 0x40 DUP4 DUP6 SUB SLT ISZERO PUSH2 0x1F95 JUMPI PUSH2 0x1F94 PUSH2 0x1CD7 JUMP JUMPDEST JUMPDEST PUSH0 PUSH2 0x1FA2 DUP6 DUP3 DUP7 ADD PUSH2 0x1D02 JUMP JUMPDEST SWAP3 POP POP PUSH1 0x20 PUSH2 0x1FB3 DUP6 DUP3 DUP7 ADD PUSH2 0x1D02 JUMP JUMPDEST SWAP2 POP POP SWAP3 POP SWAP3 SWAP1 POP JUMP JUMPDEST PUSH32 0x4E487B7100000000000000000000000000000000000000000000000000000000 PUSH0 MSTORE PUSH1 0x22 PUSH1 0x4 MSTORE PUSH1 0x24 PUSH0 REVERT JUMPDEST PUSH0 PUSH1 0x2 DUP3 DIV SWAP1 POP PUSH1 0x1 DUP3 AND DUP1 PUSH2 0x2001 JUMPI PUSH1 0x7F DUP3 AND SWAP2 POP JUMPDEST PUSH1 0x20 DUP3 LT DUP2 SUB PUSH2 0x2014 JUMPI PUSH2 0x2013 PUSH2 0x1FBD JUMP JUMPDEST JUMPDEST POP SWAP2 SWAP1 POP JUMP JUMPDEST PUSH0 DUP2 MLOAD SWAP1 POP PUSH2 0x2028 DUP2 PUSH2 0x1D1F JUMP JUMPDEST SWAP3 SWAP2 POP POP JUMP JUMPDEST PUSH0 PUSH1 0x20 DUP3 DUP5 SUB SLT ISZERO PUSH2 0x2043 JUMPI PUSH2 0x2042 PUSH2 0x1CD7 JUMP JUMPDEST JUMPDEST PUSH0 PUSH2 0x2050 DUP5 DUP3 DUP6 ADD PUSH2 0x201A JUMP JUMPDEST SWAP2 POP POP SWAP3 SWAP2 POP POP JUMP JUMPDEST PUSH32 0x4E487B7100000000000000000000000000000000000000000000000000000000 PUSH0 MSTORE PUSH1 0x12 PUSH1 0x4 MSTORE PUSH1 0x24 PUSH0 REVERT JUMPDEST PUSH32 0x4E487B7100000000000000000000000000000000000000000000000000000000 PUSH0 MSTORE PUSH1 0x11 PUSH1 0x4 MSTORE PUSH1 0x24 PUSH0 REVERT JUMPDEST PUSH0 PUSH2 0x20BD DUP3 PUSH2 0x1D16 JUMP JUMPDEST SWAP2 POP PUSH2 0x20C8 DUP4 PUSH2 0x1D16 JUMP JUMPDEST SWAP3 POP DUP3 PUSH2 0x20D8 JUMPI PUSH2 0x20D7 PUSH2 0x2059 JUMP JUMPDEST JUMPDEST DUP3 DUP3 DIV SWAP1 POP SWAP3 SWAP2 POP POP JUMP JUMPDEST PUSH0 PUSH2 0x20ED DUP3 PUSH2 0x1D16 JUMP JUMPDEST SWAP2 POP PUSH2 0x20F8 DUP4 PUSH2 0x1D16 JUMP JUMPDEST SWAP3 POP DUP3 DUP3 SUB SWAP1 POP DUP2 DUP2 GT ISZERO PUSH2 0x2110 JUMPI PUSH2 0x210F PUSH2 0x2086 JUMP JUMPDEST JUMPDEST SWAP3 SWAP2 POP POP JUMP JUMPDEST PUSH0 PUSH2 0x2120 DUP3 PUSH2 0x1D16 JUMP JUMPDEST SWAP2 POP PUSH2 0x212B DUP4 PUSH2 0x1D16 JUMP JUMPDEST SWAP3 POP DUP3 DUP3 ADD SWAP1 POP DUP1 DUP3 GT ISZERO PUSH2 0x2143 JUMPI PUSH2 0x2142 PUSH2 0x2086 JUMP JUMPDEST JUMPDEST SWAP3 SWAP2 POP POP JUMP JUMPDEST PUSH0 PUSH2 0x2153 DUP3 PUSH2 0x1D16 JUMP JUMPDEST SWAP2 POP PUSH2 0x215E DUP4 PUSH2 0x1D16 JUMP JUMPDEST SWAP3 POP DUP3 DUP3 MUL PUSH2 0x216C DUP2 PUSH2 0x1D16 JUMP JUMPDEST SWAP2 POP DUP3 DUP3 DIV DUP5 EQ DUP4 ISZERO OR PUSH2 0x2183 JUMPI PUSH2 0x2182 PUSH2 0x2086 JUMP JUMPDEST JUMPDEST POP SWAP3 SWAP2 POP POP JUMP JUMPDEST PUSH0 PUSH2 0x21A4 PUSH2 0x219F PUSH2 0x219A DUP5 PUSH2 0x1F1D JUMP JUMPDEST PUSH2 0x1BB9 JUMP JUMPDEST PUSH2 0x1D16 JUMP JUMPDEST SWAP1 POP SWAP2 SWAP1 POP JUMP JUMPDEST PUSH2 0x21B4 DUP2 PUSH2 0x218A JUMP JUMPDEST DUP3 MSTORE POP POP JUMP JUMPDEST PUSH0 PUSH1 0x20 DUP3 ADD SWAP1 POP PUSH2 0x21CD PUSH0 DUP4 ADD DUP5 PUSH2 0x21AB JUMP JUMPDEST SWAP3 SWAP2 POP POP JUMP JUMPDEST PUSH0 PUSH1 0x60 DUP3 ADD SWAP1 POP PUSH2 0x21E6 PUSH0 DUP4 ADD DUP7 PUSH2 0x1EF5 JUMP JUMPDEST PUSH2 0x21F3 PUSH1 0x20 DUP4 ADD DUP6 PUSH2 0x1DBA JUMP JUMPDEST PUSH2 0x2200 PUSH1 0x40 DUP4 ADD DUP5 PUSH2 0x1DBA JUMP JUMPDEST SWAP5 SWAP4 POP POP POP POP JUMP JUMPDEST PUSH0 PUSH1 0x60 DUP3 ADD SWAP1 POP PUSH2 0x221B PUSH0 DUP4 ADD DUP7 PUSH2 0x1EF5 JUMP JUMPDEST PUSH2 0x2228 PUSH1 0x20 DUP4 ADD DUP6 PUSH2 0x1EF5 JUMP JUMPDEST PUSH2 0x2235 PUSH1 0x40 DUP4 ADD DUP5 PUSH2 0x1DBA JUMP JUMPDEST SWAP5 SWAP4 POP POP POP POP JUMP JUMPDEST PUSH2 0x2246 DUP2 PUSH2 0x1D87 JUMP JUMPDEST DUP2 EQ PUSH2 0x2250 JUMPI PUSH0 DUP1 REVERT JUMPDEST POP JUMP JUMPDEST PUSH0 DUP2 MLOAD SWAP1 POP PUSH2 0x2261 DUP2 PUSH2 0x223D JUMP JUMPDEST SWAP3 SWAP2 POP POP JUMP JUMPDEST PUSH0 PUSH1 0x20 DUP3 DUP5 SUB SLT ISZERO PUSH2 0x227C JUMPI PUSH2 0x227B PUSH2 0x1CD7 JUMP JUMPDEST JUMPDEST PUSH0 PUSH2 0x2289 DUP5 DUP3 DUP6 ADD PUSH2 0x2253 JUMP JUMPDEST SWAP2 POP POP SWAP3 SWAP2 POP POP JUMP JUMPDEST PUSH0 DUP2 MLOAD SWAP1 POP SWAP2 SWAP1 POP JUMP JUMPDEST PUSH0 DUP2 SWAP1 POP SWAP3 SWAP2 POP POP JUMP JUMPDEST PUSH0 PUSH2 0x22B0 DUP3 PUSH2 0x2292 JUMP JUMPDEST PUSH2 0x22BA DUP2 DUP6 PUSH2 0x229C JUMP JUMPDEST SWAP4 POP PUSH2 0x22CA DUP2 DUP6 PUSH1 0x20 DUP7 ADD PUSH2 0x1C47 JUMP JUMPDEST DUP1 DUP5 ADD SWAP2 POP POP SWAP3 SWAP2 POP POP JUMP JUMPDEST PUSH0 PUSH2 0x22E1 DUP3 DUP5 PUSH2 0x22A6 JUMP JUMPDEST SWAP2 POP DUP2 SWAP1 POP SWAP3 SWAP2 POP POP JUMP INVALID LOG2 PUSH5 0x6970667358 0x22 SLT KECCAK256 0x21 CALLCODE SWAP4 0xDD DUP13 SWAP5 SWAP11 0x1E PUSH22 0xCEA771275A9FDF34EB94DB78F4C7618C2A6E239766A1 ADD PUSH5 0x736F6C6343 STOP ADDMOD EQ STOP CALLER "
				},
				"gasEstimates": {
					"creation": {
						"codeDepositCost": "1798800",
						"executionCost": "infinite",
						"totalCost": "infinite"
					},
					"external": {
						"FEES()": "2515",
						"MINT_AND_REDEEM_FEE()": "2492",
						"_BACKING()": "infinite",
						"allowance(address,address)": "infinite",
						"approve(address,uint256)": "infinite",
						"balanceOf(address)": "2918",
						"burn(uint256)": "infinite",
						"burnFrom(address,uint256)": "infinite",
						"decimals()": "384",
						"emergencyFixTotalBacking()": "infinite",
						"feeAddress()": "2620",
						"fillContract(uint256)": "infinite",
						"getMintPrice(uint256)": "infinite",
						"getRedeemPrice(uint256)": "infinite",
						"getTotalBacking()": "2522",
						"mint(address,uint256)": "infinite",
						"name()": "infinite",
						"owner()": "2560",
						"redeem(uint256)": "infinite",
						"renounceOwnership()": "infinite",
						"setFeeAddress(address)": "infinite",
						"setMintAndRedeemFee(uint16)": "infinite",
						"setStart()": "infinite",
						"setTeamFee(uint16)": "infinite",
						"symbol()": "infinite",
						"totalBacking()": "2491",
						"totalSupply()": "2500",
						"transfer(address,uint256)": "infinite",
						"transferFrom(address,address,uint256)": "infinite",
						"transferOwnership(address)": "infinite"
					},
					"internal": {
						"_BACKINGtoPTOKEN(uint256)": "infinite",
						"_PTOKENtoBACKING(uint256)": "infinite",
						"_assemblyOwnerNotZero(address)": "33"
					}
				},
				"methodIdentifiers": {
					"FEES()": "8b7b23ee",
					"MINT_AND_REDEEM_FEE()": "92054fe7",
					"_BACKING()": "029cd242",
					"allowance(address,address)": "dd62ed3e",
					"approve(address,uint256)": "095ea7b3",
					"balanceOf(address)": "70a08231",
					"burn(uint256)": "42966c68",
					"burnFrom(address,uint256)": "79cc6790",
					"decimals()": "313ce567",
					"emergencyFixTotalBacking()": "16f9b467",
					"feeAddress()": "41275358",
					"fillContract(uint256)": "a88df21a",
					"getMintPrice(uint256)": "559e775b",
					"getRedeemPrice(uint256)": "a492fbc6",
					"getTotalBacking()": "19f04174",
					"mint(address,uint256)": "40c10f19",
					"name()": "06fdde03",
					"owner()": "8da5cb5b",
					"redeem(uint256)": "db006a75",
					"renounceOwnership()": "715018a6",
					"setFeeAddress(address)": "8705fcd4",
					"setMintAndRedeemFee(uint16)": "f40fa4bc",
					"setStart()": "35975a37",
					"setTeamFee(uint16)": "c38f2bfe",
					"symbol()": "95d89b41",
					"totalBacking()": "eb2cd258",
					"totalSupply()": "18160ddd",
					"transfer(address,uint256)": "a9059cbb",
					"transferFrom(address,address,uint256)": "23b872dd",
					"transferOwnership(address)": "f2fde38b"
				}
			},
			"storageLayout": {
				"storage": [
					{
						"astId": 307,
						"contract": "pTOKEN2.sol:pTOKEN",
						"label": "_balances",
						"offset": 0,
						"slot": "0",
						"type": "t_mapping(t_address,t_uint256)"
					},
					{
						"astId": 313,
						"contract": "pTOKEN2.sol:pTOKEN",
						"label": "_allowances",
						"offset": 0,
						"slot": "1",
						"type": "t_mapping(t_address,t_mapping(t_address,t_uint256))"
					},
					{
						"astId": 315,
						"contract": "pTOKEN2.sol:pTOKEN",
						"label": "_totalSupply",
						"offset": 0,
						"slot": "2",
						"type": "t_uint256"
					},
					{
						"astId": 317,
						"contract": "pTOKEN2.sol:pTOKEN",
						"label": "_name",
						"offset": 0,
						"slot": "3",
						"type": "t_string_storage"
					},
					{
						"astId": 319,
						"contract": "pTOKEN2.sol:pTOKEN",
						"label": "_symbol",
						"offset": 0,
						"slot": "4",
						"type": "t_string_storage"
					},
					{
						"astId": 8,
						"contract": "pTOKEN2.sol:pTOKEN",
						"label": "_owner",
						"offset": 0,
						"slot": "5",
						"type": "t_address"
					},
					{
						"astId": 1561,
						"contract": "pTOKEN2.sol:pTOKEN",
						"label": "_status",
						"offset": 0,
						"slot": "6",
						"type": "t_uint256"
					},
					{
						"astId": 1665,
						"contract": "pTOKEN2.sol:pTOKEN",
						"label": "MINT_AND_REDEEM_FEE",
						"offset": 0,
						"slot": "7",
						"type": "t_uint256"
					},
					{
						"astId": 1668,
						"contract": "pTOKEN2.sol:pTOKEN",
						"label": "FEES",
						"offset": 0,
						"slot": "8",
						"type": "t_uint256"
					},
					{
						"astId": 1670,
						"contract": "pTOKEN2.sol:pTOKEN",
						"label": "totalBacking",
						"offset": 0,
						"slot": "9",
						"type": "t_uint256"
					},
					{
						"astId": 1672,
						"contract": "pTOKEN2.sol:pTOKEN",
						"label": "feeAddress",
						"offset": 0,
						"slot": "10",
						"type": "t_address_payable"
					},
					{
						"astId": 1674,
						"contract": "pTOKEN2.sol:pTOKEN",
						"label": "start",
						"offset": 20,
						"slot": "10",
						"type": "t_bool"
					},
					{
						"astId": 1680,
						"contract": "pTOKEN2.sol:pTOKEN",
						"label": "initialOwner",
						"offset": 0,
						"slot": "11",
						"type": "t_address"
					}
				],
				"types": {
					"t_address": {
						"encoding": "inplace",
						"label": "address",
						"numberOfBytes": "20"
					},
					"t_address_payable": {
						"encoding": "inplace",
						"label": "address payable",
						"numberOfBytes": "20"
					},
					"t_bool": {
						"encoding": "inplace",
						"label": "bool",
						"numberOfBytes": "1"
					},
					"t_mapping(t_address,t_mapping(t_address,t_uint256))": {
						"encoding": "mapping",
						"key": "t_address",
						"label": "mapping(address => mapping(address => uint256))",
						"numberOfBytes": "32",
						"value": "t_mapping(t_address,t_uint256)"
					},
					"t_mapping(t_address,t_uint256)": {
						"encoding": "mapping",
						"key": "t_address",
						"label": "mapping(address => uint256)",
						"numberOfBytes": "32",
						"value": "t_uint256"
					},
					"t_string_storage": {
						"encoding": "bytes",
						"label": "string",
						"numberOfBytes": "32"
					},
					"t_uint256": {
						"encoding": "inplace",
						"label": "uint256",
						"numberOfBytes": "32"
					}
				}
			},
			"userdoc": {
				"kind": "user",
				"methods": {
					"emergencyFixTotalBacking()": {
						"notice": "This function is used to reflect the correct amount of totalBacking in case some unexpected bug occur"
					},
					"fillContract(uint256)": {
						"notice": "need start = falsethis function doesn't have fees, it will mint pTOKEN in a 1:1 ratio with _value"
					},
					"getMintPrice(uint256)": {
						"notice": "This function is used inside other function to get the current Mint price of pTOKEN in Backing"
					},
					"getRedeemPrice(uint256)": {
						"notice": "This function is used inside other function to get the current Redeem price of pTOKEN in Backing"
					},
					"getTotalBacking()": {
						"notice": "This function is used inside other function to get the total amount of Backing in the contract"
					},
					"mint(address,uint256)": {
						"notice": "This function is used by users that want to mint pTOKEN by depositing the corrisponding amount of Backing + a dynamic feeThe Backing / pTOKEN ratio will increase after every mint"
					},
					"redeem(uint256)": {
						"notice": "This function is used by users that want to burn their balance of pTOKEN and redeem the corrisponding amount of Backing - dynamic fees from 2% up to 5%The Backing / pTOKEN ratio will increase after every redeem"
					},
					"setFeeAddress(address)": {
						"notice": "This function will be used to update the feeAddress"
					},
					"setMintAndRedeemFee(uint16)": {
						"notice": "this function is used by Owner to modify the total FEE %"
					},
					"setTeamFee(uint16)": {
						"notice": "Team fee can't be more than 4% and less than 1% Incentives for liquidity providers are included in the Team fee (FEES)"
					}
				},
				"notice": "The backing / pTOKEN ratio is designed to appreciate for every mints and redeems that occur.",
				"version": 1
			}
		}
	}
}