{
	"FeeSplitter.sol": {
		"FeeSplitter": {
			"abi": [
				{
					"inputs": [
						{
							"internalType": "address",
							"name": "_pToken",
							"type": "address"
						}
					],
					"stateMutability": "nonpayable",
					"type": "constructor"
				},
				{
					"inputs": [],
					"name": "CantSetAddressZero",
					"type": "error"
				},
				{
					"inputs": [],
					"name": "ZeroProfitDivider",
					"type": "error"
				},
				{
					"anonymous": false,
					"inputs": [
						{
							"indexed": true,
							"internalType": "address",
							"name": "BribingAddress",
							"type": "address"
						}
					],
					"name": "BribingAddressUpdated",
					"type": "event"
				},
				{
					"anonymous": false,
					"inputs": [
						{
							"indexed": true,
							"internalType": "address",
							"name": "EqualDaoAddress",
							"type": "address"
						}
					],
					"name": "EqualDaoAddressUpdated",
					"type": "event"
				},
				{
					"anonymous": false,
					"inputs": [
						{
							"indexed": true,
							"internalType": "uint256",
							"name": "time",
							"type": "uint256"
						},
						{
							"indexed": true,
							"internalType": "uint256",
							"name": "AmountSentToPantheonAndEqualDao",
							"type": "uint256"
						},
						{
							"indexed": true,
							"internalType": "uint256",
							"name": "AmountSentToBribing",
							"type": "uint256"
						}
					],
					"name": "FeeSent",
					"type": "event"
				},
				{
					"anonymous": false,
					"inputs": [
						{
							"indexed": true,
							"internalType": "address",
							"name": "previousOwner",
							"type": "address"
						},
						{
							"indexed": true,
							"internalType": "address",
							"name": "newOwner",
							"type": "address"
						}
					],
					"name": "OwnershipTransferStarted",
					"type": "event"
				},
				{
					"anonymous": false,
					"inputs": [
						{
							"indexed": true,
							"internalType": "address",
							"name": "previousOwner",
							"type": "address"
						},
						{
							"indexed": true,
							"internalType": "address",
							"name": "newOwner",
							"type": "address"
						}
					],
					"name": "OwnershipTransferred",
					"type": "event"
				},
				{
					"anonymous": false,
					"inputs": [
						{
							"indexed": true,
							"internalType": "address",
							"name": "PantheonAddress",
							"type": "address"
						}
					],
					"name": "PantheonAddressUpdated",
					"type": "event"
				},
				{
					"anonymous": false,
					"inputs": [
						{
							"indexed": true,
							"internalType": "uint256",
							"name": "ProfitDivider",
							"type": "uint256"
						}
					],
					"name": "ProfitDividerUpdated",
					"type": "event"
				},
				{
					"inputs": [],
					"name": "acceptOwnership",
					"outputs": [],
					"stateMutability": "nonpayable",
					"type": "function"
				},
				{
					"inputs": [],
					"name": "owner",
					"outputs": [
						{
							"internalType": "address",
							"name": "",
							"type": "address"
						}
					],
					"stateMutability": "view",
					"type": "function"
				},
				{
					"inputs": [],
					"name": "pendingOwner",
					"outputs": [
						{
							"internalType": "address",
							"name": "",
							"type": "address"
						}
					],
					"stateMutability": "view",
					"type": "function"
				},
				{
					"inputs": [],
					"name": "renounceOwnership",
					"outputs": [],
					"stateMutability": "nonpayable",
					"type": "function"
				},
				{
					"inputs": [
						{
							"internalType": "address",
							"name": "_address",
							"type": "address"
						}
					],
					"name": "setBribingWallet",
					"outputs": [],
					"stateMutability": "nonpayable",
					"type": "function"
				},
				{
					"inputs": [
						{
							"internalType": "address",
							"name": "_address",
							"type": "address"
						}
					],
					"name": "setEqualDaoWallet",
					"outputs": [],
					"stateMutability": "nonpayable",
					"type": "function"
				},
				{
					"inputs": [
						{
							"internalType": "address",
							"name": "_address",
							"type": "address"
						}
					],
					"name": "setPantheonWallet",
					"outputs": [],
					"stateMutability": "nonpayable",
					"type": "function"
				},
				{
					"inputs": [
						{
							"internalType": "uint256",
							"name": "_value",
							"type": "uint256"
						}
					],
					"name": "setProfitDivider",
					"outputs": [],
					"stateMutability": "nonpayable",
					"type": "function"
				},
				{
					"inputs": [],
					"name": "splitFees",
					"outputs": [],
					"stateMutability": "nonpayable",
					"type": "function"
				},
				{
					"inputs": [
						{
							"internalType": "address",
							"name": "newOwner",
							"type": "address"
						}
					],
					"name": "transferOwnership",
					"outputs": [],
					"stateMutability": "nonpayable",
					"type": "function"
				}
			],
			"devdoc": {
				"errors": {
					"CantSetAddressZero()": [
						{
							"custom:section": "** ERRORS **"
						}
					]
				},
				"events": {
					"FeeSent(uint256,uint256,uint256)": {
						"custom:section": "** EVENTS **"
					}
				},
				"kind": "dev",
				"methods": {
					"acceptOwnership()": {
						"details": "The new owner accepts the ownership transfer."
					},
					"constructor": {
						"custom:section": "** CONSTRUCTOR **"
					},
					"owner()": {
						"details": "Returns the address of the current owner."
					},
					"pendingOwner()": {
						"details": "Returns the address of the pending owner."
					},
					"renounceOwnership()": {
						"details": "Leaves the contract without owner. It will not be possible to call `onlyOwner` functions. Can only be called by the current owner. NOTE: Renouncing ownership will leave the contract without an owner, thereby disabling any functionality that is only available to the owner."
					},
					"transferOwnership(address)": {
						"details": "Starts the ownership transfer of the contract to a new account. Replaces the pending transfer if there is one. Can only be called by the current owner."
					}
				},
				"stateVariables": {
					"BRIBES": {
						"custom:section": "** CONSTANTS **"
					},
					"_PTOKEN": {
						"custom:section": "** IMMUTABLES **"
					}
				},
				"version": 1
			},
			"evm": {
				"assembly": "    /* \"FeeSplitter.sol\":412:3684  contract FeeSplitter is Ownable2Step, ReentrancyGuard {... */\n  mstore(0x40, 0xa0)\n    /* \"FeeSplitter.sol\":1598:1671  constructor(address _pToken) {... */\n  callvalue\n  dup1\n  iszero\n  tag_1\n  jumpi\n  0x00\n  dup1\n  revert\ntag_1:\n  pop\n  mload(0x40)\n  sub(codesize, bytecodeSize)\n  dup1\n  bytecodeSize\n  dup4\n  codecopy\n  dup2\n  dup2\n  add\n  0x40\n  mstore\n  dup2\n  add\n  swap1\n  tag_2\n  swap2\n  swap1\n  tag_3\n  jump\t// in\ntag_2:\n    /* \"@openzeppelin/contracts@v4.9.3/access/Ownable.sol\":936:968  _transferOwnership(_msgSender()) */\n  tag_8\n    /* \"@openzeppelin/contracts@v4.9.3/access/Ownable.sol\":955:967  _msgSender() */\n  tag_9\n    /* \"@openzeppelin/contracts@v4.9.3/access/Ownable.sol\":955:965  _msgSender */\n  shl(0x20, tag_10)\n    /* \"@openzeppelin/contracts@v4.9.3/access/Ownable.sol\":955:967  _msgSender() */\n  0x20\n  shr\n  jump\t// in\ntag_9:\n    /* \"@openzeppelin/contracts@v4.9.3/access/Ownable.sol\":936:954  _transferOwnership */\n  shl(0x20, tag_11)\n    /* \"@openzeppelin/contracts@v4.9.3/access/Ownable.sol\":936:968  _transferOwnership(_msgSender()) */\n  0x20\n  shr\n  jump\t// in\ntag_8:\n    /* \"@openzeppelin/contracts@v4.9.3/security/ReentrancyGuard.sol\":1716:1717  1 */\n  0x01\n    /* \"@openzeppelin/contracts@v4.9.3/security/ReentrancyGuard.sol\":1821:1828  _status */\n  0x02\n    /* \"@openzeppelin/contracts@v4.9.3/security/ReentrancyGuard.sol\":1821:1843  _status = _NOT_ENTERED */\n  dup2\n  swap1\n  sstore\n  pop\n    /* \"FeeSplitter.sol\":1655:1662  _pToken */\n  dup1\n    /* \"FeeSplitter.sol\":1638:1663  _PTOKEN = IERC20(_pToken) */\n  0xffffffffffffffffffffffffffffffffffffffff\n  and\n  0x80\n  dup2\n  0xffffffffffffffffffffffffffffffffffffffff\n  and\n  dup2\n  mstore\n  pop\n  pop\n    /* \"FeeSplitter.sol\":1598:1671  constructor(address _pToken) {... */\n  pop\n    /* \"FeeSplitter.sol\":412:3684  contract FeeSplitter is Ownable2Step, ReentrancyGuard {... */\n  jump(tag_14)\n    /* \"@openzeppelin/contracts@v4.9.3/utils/Context.sol\":640:736  function _msgSender() internal view virtual returns (address) {... */\ntag_10:\n    /* \"@openzeppelin/contracts@v4.9.3/utils/Context.sol\":693:700  address */\n  0x00\n    /* \"@openzeppelin/contracts@v4.9.3/utils/Context.sol\":719:729  msg.sender */\n  caller\n    /* \"@openzeppelin/contracts@v4.9.3/utils/Context.sol\":712:729  return msg.sender */\n  swap1\n  pop\n    /* \"@openzeppelin/contracts@v4.9.3/utils/Context.sol\":640:736  function _msgSender() internal view virtual returns (address) {... */\n  swap1\n  jump\t// out\n    /* \"@openzeppelin/contracts@v4.9.3/access/Ownable2Step.sol\":1501:1654  function _transferOwnership(address newOwner) internal virtual override {... */\ntag_11:\n    /* \"@openzeppelin/contracts@v4.9.3/access/Ownable2Step.sol\":1590:1603  _pendingOwner */\n  0x01\n  0x00\n    /* \"@openzeppelin/contracts@v4.9.3/access/Ownable2Step.sol\":1583:1603  delete _pendingOwner */\n  0x0100\n  exp\n  dup2\n  sload\n  swap1\n  0xffffffffffffffffffffffffffffffffffffffff\n  mul\n  not\n  and\n  swap1\n  sstore\n    /* \"@openzeppelin/contracts@v4.9.3/access/Ownable2Step.sol\":1613:1647  super._transferOwnership(newOwner) */\n  tag_17\n    /* \"@openzeppelin/contracts@v4.9.3/access/Ownable2Step.sol\":1638:1646  newOwner */\n  dup2\n    /* \"@openzeppelin/contracts@v4.9.3/access/Ownable2Step.sol\":1613:1637  super._transferOwnership */\n  shl(0x20, tag_18)\n    /* \"@openzeppelin/contracts@v4.9.3/access/Ownable2Step.sol\":1613:1647  super._transferOwnership(newOwner) */\n  0x20\n  shr\n  jump\t// in\ntag_17:\n    /* \"@openzeppelin/contracts@v4.9.3/access/Ownable2Step.sol\":1501:1654  function _transferOwnership(address newOwner) internal virtual override {... */\n  pop\n  jump\t// out\n    /* \"@openzeppelin/contracts@v4.9.3/access/Ownable.sol\":2426:2613  function _transferOwnership(address newOwner) internal virtual {... */\ntag_18:\n    /* \"@openzeppelin/contracts@v4.9.3/access/Ownable.sol\":2499:2515  address oldOwner */\n  0x00\n    /* \"@openzeppelin/contracts@v4.9.3/access/Ownable.sol\":2518:2524  _owner */\n  dup1\n  0x00\n  swap1\n  sload\n  swap1\n  0x0100\n  exp\n  swap1\n  div\n  0xffffffffffffffffffffffffffffffffffffffff\n  and\n    /* \"@openzeppelin/contracts@v4.9.3/access/Ownable.sol\":2499:2524  address oldOwner = _owner */\n  swap1\n  pop\n    /* \"@openzeppelin/contracts@v4.9.3/access/Ownable.sol\":2543:2551  newOwner */\n  dup2\n    /* \"@openzeppelin/contracts@v4.9.3/access/Ownable.sol\":2534:2540  _owner */\n  0x00\n  dup1\n    /* \"@openzeppelin/contracts@v4.9.3/access/Ownable.sol\":2534:2551  _owner = newOwner */\n  0x0100\n  exp\n  dup2\n  sload\n  dup2\n  0xffffffffffffffffffffffffffffffffffffffff\n  mul\n  not\n  and\n  swap1\n  dup4\n  0xffffffffffffffffffffffffffffffffffffffff\n  and\n  mul\n  or\n  swap1\n  sstore\n  pop\n    /* \"@openzeppelin/contracts@v4.9.3/access/Ownable.sol\":2597:2605  newOwner */\n  dup2\n    /* \"@openzeppelin/contracts@v4.9.3/access/Ownable.sol\":2566:2606  OwnershipTransferred(oldOwner, newOwner) */\n  0xffffffffffffffffffffffffffffffffffffffff\n  and\n    /* \"@openzeppelin/contracts@v4.9.3/access/Ownable.sol\":2587:2595  oldOwner */\n  dup2\n    /* \"@openzeppelin/contracts@v4.9.3/access/Ownable.sol\":2566:2606  OwnershipTransferred(oldOwner, newOwner) */\n  0xffffffffffffffffffffffffffffffffffffffff\n  and\n  0x8be0079c531659141344cd1fd0a4f28419497f9722a3daafe3b4186f6b6457e0\n  mload(0x40)\n  mload(0x40)\n  dup1\n  swap2\n  sub\n  swap1\n  log3\n    /* \"@openzeppelin/contracts@v4.9.3/access/Ownable.sol\":2489:2613  {... */\n  pop\n    /* \"@openzeppelin/contracts@v4.9.3/access/Ownable.sol\":2426:2613  function _transferOwnership(address newOwner) internal virtual {... */\n  pop\n  jump\t// out\n    /* \"#utility.yul\":88:205   */\ntag_21:\n    /* \"#utility.yul\":197:198   */\n  0x00\n    /* \"#utility.yul\":194:195   */\n  dup1\n    /* \"#utility.yul\":187:199   */\n  revert\n    /* \"#utility.yul\":334:460   */\ntag_23:\n    /* \"#utility.yul\":371:378   */\n  0x00\n    /* \"#utility.yul\":411:453   */\n  0xffffffffffffffffffffffffffffffffffffffff\n    /* \"#utility.yul\":404:409   */\n  dup3\n    /* \"#utility.yul\":400:454   */\n  and\n    /* \"#utility.yul\":389:454   */\n  swap1\n  pop\n    /* \"#utility.yul\":334:460   */\n  swap2\n  swap1\n  pop\n  jump\t// out\n    /* \"#utility.yul\":466:562   */\ntag_24:\n    /* \"#utility.yul\":503:510   */\n  0x00\n    /* \"#utility.yul\":532:556   */\n  tag_33\n    /* \"#utility.yul\":550:555   */\n  dup3\n    /* \"#utility.yul\":532:556   */\n  tag_23\n  jump\t// in\ntag_33:\n    /* \"#utility.yul\":521:556   */\n  swap1\n  pop\n    /* \"#utility.yul\":466:562   */\n  swap2\n  swap1\n  pop\n  jump\t// out\n    /* \"#utility.yul\":568:690   */\ntag_25:\n    /* \"#utility.yul\":641:665   */\n  tag_35\n    /* \"#utility.yul\":659:664   */\n  dup2\n    /* \"#utility.yul\":641:665   */\n  tag_24\n  jump\t// in\ntag_35:\n    /* \"#utility.yul\":634:639   */\n  dup2\n    /* \"#utility.yul\":631:666   */\n  eq\n    /* \"#utility.yul\":621:684   */\n  tag_36\n  jumpi\n    /* \"#utility.yul\":680:681   */\n  0x00\n    /* \"#utility.yul\":677:678   */\n  dup1\n    /* \"#utility.yul\":670:682   */\n  revert\n    /* \"#utility.yul\":621:684   */\ntag_36:\n    /* \"#utility.yul\":568:690   */\n  pop\n  jump\t// out\n    /* \"#utility.yul\":696:839   */\ntag_26:\n    /* \"#utility.yul\":753:758   */\n  0x00\n    /* \"#utility.yul\":784:790   */\n  dup2\n    /* \"#utility.yul\":778:791   */\n  mload\n    /* \"#utility.yul\":769:791   */\n  swap1\n  pop\n    /* \"#utility.yul\":800:833   */\n  tag_38\n    /* \"#utility.yul\":827:832   */\n  dup2\n    /* \"#utility.yul\":800:833   */\n  tag_25\n  jump\t// in\ntag_38:\n    /* \"#utility.yul\":696:839   */\n  swap3\n  swap2\n  pop\n  pop\n  jump\t// out\n    /* \"#utility.yul\":845:1196   */\ntag_3:\n    /* \"#utility.yul\":915:921   */\n  0x00\n    /* \"#utility.yul\":964:966   */\n  0x20\n    /* \"#utility.yul\":952:961   */\n  dup3\n    /* \"#utility.yul\":943:950   */\n  dup5\n    /* \"#utility.yul\":939:962   */\n  sub\n    /* \"#utility.yul\":935:967   */\n  slt\n    /* \"#utility.yul\":932:1051   */\n  iszero\n  tag_40\n  jumpi\n    /* \"#utility.yul\":970:1049   */\n  tag_41\n  tag_21\n  jump\t// in\ntag_41:\n    /* \"#utility.yul\":932:1051   */\ntag_40:\n    /* \"#utility.yul\":1090:1091   */\n  0x00\n    /* \"#utility.yul\":1115:1179   */\n  tag_42\n    /* \"#utility.yul\":1171:1178   */\n  dup5\n    /* \"#utility.yul\":1162:1168   */\n  dup3\n    /* \"#utility.yul\":1151:1160   */\n  dup6\n    /* \"#utility.yul\":1147:1169   */\n  add\n    /* \"#utility.yul\":1115:1179   */\n  tag_26\n  jump\t// in\ntag_42:\n    /* \"#utility.yul\":1105:1179   */\n  swap2\n  pop\n    /* \"#utility.yul\":1061:1189   */\n  pop\n    /* \"#utility.yul\":845:1196   */\n  swap3\n  swap2\n  pop\n  pop\n  jump\t// out\n    /* \"FeeSplitter.sol\":412:3684  contract FeeSplitter is Ownable2Step, ReentrancyGuard {... */\ntag_14:\n  mload(0x80)\n  codecopy(0x00, dataOffset(sub_0), dataSize(sub_0))\n  0x00\n  assignImmutable(\"0x7173bb0c0c341c627c9734f9095ef27b00afaca222d0fccf9d280fbad8b7c078\")\n  return(0x00, dataSize(sub_0))\nstop\n\nsub_0: assembly {\n        /* \"FeeSplitter.sol\":412:3684  contract FeeSplitter is Ownable2Step, ReentrancyGuard {... */\n      mstore(0x40, 0x80)\n      callvalue\n      dup1\n      iszero\n      tag_1\n      jumpi\n      0x00\n      dup1\n      revert\n    tag_1:\n      pop\n      jumpi(tag_2, lt(calldatasize, 0x04))\n      shr(0xe0, calldataload(0x00))\n      dup1\n      0x9752b3b2\n      gt\n      tag_13\n      jumpi\n      dup1\n      0x9752b3b2\n      eq\n      tag_8\n      jumpi\n      dup1\n      0xe30c3978\n      eq\n      tag_9\n      jumpi\n      dup1\n      0xe7fcd45d\n      eq\n      tag_10\n      jumpi\n      dup1\n      0xf2fde38b\n      eq\n      tag_11\n      jumpi\n      dup1\n      0xf6151089\n      eq\n      tag_12\n      jumpi\n      jump(tag_2)\n    tag_13:\n      dup1\n      0x1f068108\n      eq\n      tag_3\n      jumpi\n      dup1\n      0x715018a6\n      eq\n      tag_4\n      jumpi\n      dup1\n      0x79ba5097\n      eq\n      tag_5\n      jumpi\n      dup1\n      0x8da5cb5b\n      eq\n      tag_6\n      jumpi\n      dup1\n      0x8f88f261\n      eq\n      tag_7\n      jumpi\n    tag_2:\n      0x00\n      dup1\n      revert\n        /* \"FeeSplitter.sol\":3148:3369  function setPantheonWallet(address _address) external onlyOwner {... */\n    tag_3:\n      tag_14\n      0x04\n      dup1\n      calldatasize\n      sub\n      dup2\n      add\n      swap1\n      tag_15\n      swap2\n      swap1\n      tag_16\n      jump\t// in\n    tag_15:\n      tag_17\n      jump\t// in\n    tag_14:\n      stop\n        /* \"@openzeppelin/contracts@v4.9.3/access/Ownable.sol\":1824:1925  function renounceOwnership() public virtual onlyOwner {... */\n    tag_4:\n      tag_18\n      tag_19\n      jump\t// in\n    tag_18:\n      stop\n        /* \"@openzeppelin/contracts@v4.9.3/access/Ownable2Step.sol\":1734:1946  function acceptOwnership() public virtual {... */\n    tag_5:\n      tag_20\n      tag_21\n      jump\t// in\n    tag_20:\n      stop\n        /* \"@openzeppelin/contracts@v4.9.3/access/Ownable.sol\":1201:1286  function owner() public view virtual returns (address) {... */\n    tag_6:\n      tag_22\n      tag_23\n      jump\t// in\n    tag_22:\n      mload(0x40)\n      tag_24\n      swap2\n      swap1\n      tag_25\n      jump\t// in\n    tag_24:\n      mload(0x40)\n      dup1\n      swap2\n      sub\n      swap1\n      return\n        /* \"FeeSplitter.sol\":3460:3681  function setEqualDaoWallet(address _address) external onlyOwner {... */\n    tag_7:\n      tag_26\n      0x04\n      dup1\n      calldatasize\n      sub\n      dup2\n      add\n      swap1\n      tag_27\n      swap2\n      swap1\n      tag_16\n      jump\t// in\n    tag_27:\n      tag_28\n      jump\t// in\n    tag_26:\n      stop\n        /* \"FeeSplitter.sol\":2836:3053  function setBribingWallet(address _address) external onlyOwner {... */\n    tag_8:\n      tag_29\n      0x04\n      dup1\n      calldatasize\n      sub\n      dup2\n      add\n      swap1\n      tag_30\n      swap2\n      swap1\n      tag_16\n      jump\t// in\n    tag_30:\n      tag_31\n      jump\t// in\n    tag_29:\n      stop\n        /* \"@openzeppelin/contracts@v4.9.3/access/Ownable2Step.sol\":847:946  function pendingOwner() public view virtual returns (address) {... */\n    tag_9:\n      tag_32\n      tag_33\n      jump\t// in\n    tag_32:\n      mload(0x40)\n      tag_34\n      swap2\n      swap1\n      tag_25\n      jump\t// in\n    tag_34:\n      mload(0x40)\n      dup1\n      swap2\n      sub\n      swap1\n      return\n        /* \"FeeSplitter.sol\":2539:2742  function setProfitDivider(uint256 _value) external onlyOwner {... */\n    tag_10:\n      tag_35\n      0x04\n      dup1\n      calldatasize\n      sub\n      dup2\n      add\n      swap1\n      tag_36\n      swap2\n      swap1\n      tag_37\n      jump\t// in\n    tag_36:\n      tag_38\n      jump\t// in\n    tag_35:\n      stop\n        /* \"@openzeppelin/contracts@v4.9.3/access/Ownable2Step.sol\":1139:1317  function transferOwnership(address newOwner) public virtual override onlyOwner {... */\n    tag_11:\n      tag_39\n      0x04\n      dup1\n      calldatasize\n      sub\n      dup2\n      add\n      swap1\n      tag_40\n      swap2\n      swap1\n      tag_16\n      jump\t// in\n    tag_40:\n      tag_41\n      jump\t// in\n    tag_39:\n      stop\n        /* \"FeeSplitter.sol\":1921:2364  function splitFees() external onlyOwner {... */\n    tag_12:\n      tag_42\n      tag_43\n      jump\t// in\n    tag_42:\n      stop\n        /* \"FeeSplitter.sol\":3148:3369  function setPantheonWallet(address _address) external onlyOwner {... */\n    tag_17:\n        /* \"@openzeppelin/contracts@v4.9.3/access/Ownable.sol\":1094:1107  _checkOwner() */\n      tag_45\n        /* \"@openzeppelin/contracts@v4.9.3/access/Ownable.sol\":1094:1105  _checkOwner */\n      tag_46\n        /* \"@openzeppelin/contracts@v4.9.3/access/Ownable.sol\":1094:1107  _checkOwner() */\n      jump\t// in\n    tag_45:\n        /* \"FeeSplitter.sol\":3246:3249  0x0 */\n      0x00\n        /* \"FeeSplitter.sol\":3226:3250  _address == address(0x0) */\n      0xffffffffffffffffffffffffffffffffffffffff\n      and\n        /* \"FeeSplitter.sol\":3226:3234  _address */\n      dup2\n        /* \"FeeSplitter.sol\":3226:3250  _address == address(0x0) */\n      0xffffffffffffffffffffffffffffffffffffffff\n      and\n      sub\n        /* \"FeeSplitter.sol\":3223:3279  if(_address == address(0x0)) revert CantSetAddressZero() */\n      tag_48\n      jumpi\n        /* \"FeeSplitter.sol\":3259:3279  CantSetAddressZero() */\n      mload(0x40)\n      0x842090f100000000000000000000000000000000000000000000000000000000\n      dup2\n      mstore\n      0x04\n      add\n      mload(0x40)\n      dup1\n      swap2\n      sub\n      swap1\n      revert\n        /* \"FeeSplitter.sol\":3223:3279  if(_address == address(0x0)) revert CantSetAddressZero() */\n    tag_48:\n        /* \"FeeSplitter.sol\":3302:3310  _address */\n      dup1\n        /* \"FeeSplitter.sol\":3290:3298  PANTHEON */\n      0x04\n      0x00\n        /* \"FeeSplitter.sol\":3290:3311  PANTHEON = (_address) */\n      0x0100\n      exp\n      dup2\n      sload\n      dup2\n      0xffffffffffffffffffffffffffffffffffffffff\n      mul\n      not\n      and\n      swap1\n      dup4\n      0xffffffffffffffffffffffffffffffffffffffff\n      and\n      mul\n      or\n      swap1\n      sstore\n      pop\n        /* \"FeeSplitter.sol\":3352:3360  _address */\n      dup1\n        /* \"FeeSplitter.sol\":3329:3361  PantheonAddressUpdated(_address) */\n      0xffffffffffffffffffffffffffffffffffffffff\n      and\n      0x0cd19529020fd81d84beeae5290e80cef2820b494e9aedf821b3c45b8110d7df\n      mload(0x40)\n      mload(0x40)\n      dup1\n      swap2\n      sub\n      swap1\n      log2\n        /* \"FeeSplitter.sol\":3148:3369  function setPantheonWallet(address _address) external onlyOwner {... */\n      pop\n      jump\t// out\n        /* \"@openzeppelin/contracts@v4.9.3/access/Ownable.sol\":1824:1925  function renounceOwnership() public virtual onlyOwner {... */\n    tag_19:\n        /* \"@openzeppelin/contracts@v4.9.3/access/Ownable.sol\":1094:1107  _checkOwner() */\n      tag_50\n        /* \"@openzeppelin/contracts@v4.9.3/access/Ownable.sol\":1094:1105  _checkOwner */\n      tag_46\n        /* \"@openzeppelin/contracts@v4.9.3/access/Ownable.sol\":1094:1107  _checkOwner() */\n      jump\t// in\n    tag_50:\n        /* \"@openzeppelin/contracts@v4.9.3/access/Ownable.sol\":1888:1918  _transferOwnership(address(0)) */\n      tag_52\n        /* \"@openzeppelin/contracts@v4.9.3/access/Ownable.sol\":1915:1916  0 */\n      0x00\n        /* \"@openzeppelin/contracts@v4.9.3/access/Ownable.sol\":1888:1906  _transferOwnership */\n      tag_53\n        /* \"@openzeppelin/contracts@v4.9.3/access/Ownable.sol\":1888:1918  _transferOwnership(address(0)) */\n      jump\t// in\n    tag_52:\n        /* \"@openzeppelin/contracts@v4.9.3/access/Ownable.sol\":1824:1925  function renounceOwnership() public virtual onlyOwner {... */\n      jump\t// out\n        /* \"@openzeppelin/contracts@v4.9.3/access/Ownable2Step.sol\":1734:1946  function acceptOwnership() public virtual {... */\n    tag_21:\n        /* \"@openzeppelin/contracts@v4.9.3/access/Ownable2Step.sol\":1786:1800  address sender */\n      0x00\n        /* \"@openzeppelin/contracts@v4.9.3/access/Ownable2Step.sol\":1803:1815  _msgSender() */\n      tag_55\n        /* \"@openzeppelin/contracts@v4.9.3/access/Ownable2Step.sol\":1803:1813  _msgSender */\n      tag_56\n        /* \"@openzeppelin/contracts@v4.9.3/access/Ownable2Step.sol\":1803:1815  _msgSender() */\n      jump\t// in\n    tag_55:\n        /* \"@openzeppelin/contracts@v4.9.3/access/Ownable2Step.sol\":1786:1815  address sender = _msgSender() */\n      swap1\n      pop\n        /* \"@openzeppelin/contracts@v4.9.3/access/Ownable2Step.sol\":1851:1857  sender */\n      dup1\n        /* \"@openzeppelin/contracts@v4.9.3/access/Ownable2Step.sol\":1833:1857  pendingOwner() == sender */\n      0xffffffffffffffffffffffffffffffffffffffff\n      and\n        /* \"@openzeppelin/contracts@v4.9.3/access/Ownable2Step.sol\":1833:1847  pendingOwner() */\n      tag_57\n        /* \"@openzeppelin/contracts@v4.9.3/access/Ownable2Step.sol\":1833:1845  pendingOwner */\n      tag_33\n        /* \"@openzeppelin/contracts@v4.9.3/access/Ownable2Step.sol\":1833:1847  pendingOwner() */\n      jump\t// in\n    tag_57:\n        /* \"@openzeppelin/contracts@v4.9.3/access/Ownable2Step.sol\":1833:1857  pendingOwner() == sender */\n      0xffffffffffffffffffffffffffffffffffffffff\n      and\n      eq\n        /* \"@openzeppelin/contracts@v4.9.3/access/Ownable2Step.sol\":1825:1903  require(pendingOwner() == sender, \"Ownable2Step: caller is not the new owner\") */\n      tag_58\n      jumpi\n      mload(0x40)\n      0x08c379a000000000000000000000000000000000000000000000000000000000\n      dup2\n      mstore\n      0x04\n      add\n      tag_59\n      swap1\n      tag_60\n      jump\t// in\n    tag_59:\n      mload(0x40)\n      dup1\n      swap2\n      sub\n      swap1\n      revert\n    tag_58:\n        /* \"@openzeppelin/contracts@v4.9.3/access/Ownable2Step.sol\":1913:1939  _transferOwnership(sender) */\n      tag_61\n        /* \"@openzeppelin/contracts@v4.9.3/access/Ownable2Step.sol\":1932:1938  sender */\n      dup2\n        /* \"@openzeppelin/contracts@v4.9.3/access/Ownable2Step.sol\":1913:1931  _transferOwnership */\n      tag_53\n        /* \"@openzeppelin/contracts@v4.9.3/access/Ownable2Step.sol\":1913:1939  _transferOwnership(sender) */\n      jump\t// in\n    tag_61:\n        /* \"@openzeppelin/contracts@v4.9.3/access/Ownable2Step.sol\":1776:1946  {... */\n      pop\n        /* \"@openzeppelin/contracts@v4.9.3/access/Ownable2Step.sol\":1734:1946  function acceptOwnership() public virtual {... */\n      jump\t// out\n        /* \"@openzeppelin/contracts@v4.9.3/access/Ownable.sol\":1201:1286  function owner() public view virtual returns (address) {... */\n    tag_23:\n        /* \"@openzeppelin/contracts@v4.9.3/access/Ownable.sol\":1247:1254  address */\n      0x00\n        /* \"@openzeppelin/contracts@v4.9.3/access/Ownable.sol\":1273:1279  _owner */\n      dup1\n      0x00\n      swap1\n      sload\n      swap1\n      0x0100\n      exp\n      swap1\n      div\n      0xffffffffffffffffffffffffffffffffffffffff\n      and\n        /* \"@openzeppelin/contracts@v4.9.3/access/Ownable.sol\":1266:1279  return _owner */\n      swap1\n      pop\n        /* \"@openzeppelin/contracts@v4.9.3/access/Ownable.sol\":1201:1286  function owner() public view virtual returns (address) {... */\n      swap1\n      jump\t// out\n        /* \"FeeSplitter.sol\":3460:3681  function setEqualDaoWallet(address _address) external onlyOwner {... */\n    tag_28:\n        /* \"@openzeppelin/contracts@v4.9.3/access/Ownable.sol\":1094:1107  _checkOwner() */\n      tag_64\n        /* \"@openzeppelin/contracts@v4.9.3/access/Ownable.sol\":1094:1105  _checkOwner */\n      tag_46\n        /* \"@openzeppelin/contracts@v4.9.3/access/Ownable.sol\":1094:1107  _checkOwner() */\n      jump\t// in\n    tag_64:\n        /* \"FeeSplitter.sol\":3558:3561  0x0 */\n      0x00\n        /* \"FeeSplitter.sol\":3538:3562  _address == address(0x0) */\n      0xffffffffffffffffffffffffffffffffffffffff\n      and\n        /* \"FeeSplitter.sol\":3538:3546  _address */\n      dup2\n        /* \"FeeSplitter.sol\":3538:3562  _address == address(0x0) */\n      0xffffffffffffffffffffffffffffffffffffffff\n      and\n      sub\n        /* \"FeeSplitter.sol\":3535:3591  if(_address == address(0x0)) revert CantSetAddressZero() */\n      tag_66\n      jumpi\n        /* \"FeeSplitter.sol\":3571:3591  CantSetAddressZero() */\n      mload(0x40)\n      0x842090f100000000000000000000000000000000000000000000000000000000\n      dup2\n      mstore\n      0x04\n      add\n      mload(0x40)\n      dup1\n      swap2\n      sub\n      swap1\n      revert\n        /* \"FeeSplitter.sol\":3535:3591  if(_address == address(0x0)) revert CantSetAddressZero() */\n    tag_66:\n        /* \"FeeSplitter.sol\":3614:3622  _address */\n      dup1\n        /* \"FeeSplitter.sol\":3602:3610  EQUALDAO */\n      0x05\n      0x00\n        /* \"FeeSplitter.sol\":3602:3623  EQUALDAO = (_address) */\n      0x0100\n      exp\n      dup2\n      sload\n      dup2\n      0xffffffffffffffffffffffffffffffffffffffff\n      mul\n      not\n      and\n      swap1\n      dup4\n      0xffffffffffffffffffffffffffffffffffffffff\n      and\n      mul\n      or\n      swap1\n      sstore\n      pop\n        /* \"FeeSplitter.sol\":3664:3672  _address */\n      dup1\n        /* \"FeeSplitter.sol\":3641:3673  EqualDaoAddressUpdated(_address) */\n      0xffffffffffffffffffffffffffffffffffffffff\n      and\n      0x203661c8635f7afb5f15d76e6b159110290d075ad62b4ee9ff9a7ab94187d4bd\n      mload(0x40)\n      mload(0x40)\n      dup1\n      swap2\n      sub\n      swap1\n      log2\n        /* \"FeeSplitter.sol\":3460:3681  function setEqualDaoWallet(address _address) external onlyOwner {... */\n      pop\n      jump\t// out\n        /* \"FeeSplitter.sol\":2836:3053  function setBribingWallet(address _address) external onlyOwner {... */\n    tag_31:\n        /* \"@openzeppelin/contracts@v4.9.3/access/Ownable.sol\":1094:1107  _checkOwner() */\n      tag_68\n        /* \"@openzeppelin/contracts@v4.9.3/access/Ownable.sol\":1094:1105  _checkOwner */\n      tag_46\n        /* \"@openzeppelin/contracts@v4.9.3/access/Ownable.sol\":1094:1107  _checkOwner() */\n      jump\t// in\n    tag_68:\n        /* \"FeeSplitter.sol\":2933:2936  0x0 */\n      0x00\n        /* \"FeeSplitter.sol\":2913:2937  _address == address(0x0) */\n      0xffffffffffffffffffffffffffffffffffffffff\n      and\n        /* \"FeeSplitter.sol\":2913:2921  _address */\n      dup2\n        /* \"FeeSplitter.sol\":2913:2937  _address == address(0x0) */\n      0xffffffffffffffffffffffffffffffffffffffff\n      and\n      sub\n        /* \"FeeSplitter.sol\":2910:2966  if(_address == address(0x0)) revert CantSetAddressZero() */\n      tag_70\n      jumpi\n        /* \"FeeSplitter.sol\":2946:2966  CantSetAddressZero() */\n      mload(0x40)\n      0x842090f100000000000000000000000000000000000000000000000000000000\n      dup2\n      mstore\n      0x04\n      add\n      mload(0x40)\n      dup1\n      swap2\n      sub\n      swap1\n      revert\n        /* \"FeeSplitter.sol\":2910:2966  if(_address == address(0x0)) revert CantSetAddressZero() */\n    tag_70:\n        /* \"FeeSplitter.sol\":2987:2995  _address */\n      dup1\n        /* \"FeeSplitter.sol\":2977:2983  BRIBES */\n      0x03\n      0x00\n        /* \"FeeSplitter.sol\":2977:2996  BRIBES = (_address) */\n      0x0100\n      exp\n      dup2\n      sload\n      dup2\n      0xffffffffffffffffffffffffffffffffffffffff\n      mul\n      not\n      and\n      swap1\n      dup4\n      0xffffffffffffffffffffffffffffffffffffffff\n      and\n      mul\n      or\n      swap1\n      sstore\n      pop\n        /* \"FeeSplitter.sol\":3036:3044  _address */\n      dup1\n        /* \"FeeSplitter.sol\":3014:3045  BribingAddressUpdated(_address) */\n      0xffffffffffffffffffffffffffffffffffffffff\n      and\n      0x170b0500ccf8a13146ecd9838c59849129b54beda77dadbe500b8817cdc8d368\n      mload(0x40)\n      mload(0x40)\n      dup1\n      swap2\n      sub\n      swap1\n      log2\n        /* \"FeeSplitter.sol\":2836:3053  function setBribingWallet(address _address) external onlyOwner {... */\n      pop\n      jump\t// out\n        /* \"@openzeppelin/contracts@v4.9.3/access/Ownable2Step.sol\":847:946  function pendingOwner() public view virtual returns (address) {... */\n    tag_33:\n        /* \"@openzeppelin/contracts@v4.9.3/access/Ownable2Step.sol\":900:907  address */\n      0x00\n        /* \"@openzeppelin/contracts@v4.9.3/access/Ownable2Step.sol\":926:939  _pendingOwner */\n      0x01\n      0x00\n      swap1\n      sload\n      swap1\n      0x0100\n      exp\n      swap1\n      div\n      0xffffffffffffffffffffffffffffffffffffffff\n      and\n        /* \"@openzeppelin/contracts@v4.9.3/access/Ownable2Step.sol\":919:939  return _pendingOwner */\n      swap1\n      pop\n        /* \"@openzeppelin/contracts@v4.9.3/access/Ownable2Step.sol\":847:946  function pendingOwner() public view virtual returns (address) {... */\n      swap1\n      jump\t// out\n        /* \"FeeSplitter.sol\":2539:2742  function setProfitDivider(uint256 _value) external onlyOwner {... */\n    tag_38:\n        /* \"@openzeppelin/contracts@v4.9.3/access/Ownable.sol\":1094:1107  _checkOwner() */\n      tag_73\n        /* \"@openzeppelin/contracts@v4.9.3/access/Ownable.sol\":1094:1105  _checkOwner */\n      tag_46\n        /* \"@openzeppelin/contracts@v4.9.3/access/Ownable.sol\":1094:1107  _checkOwner() */\n      jump\t// in\n    tag_73:\n        /* \"FeeSplitter.sol\":2624:2625  0 */\n      0x00\n        /* \"FeeSplitter.sol\":2614:2620  _value */\n      dup2\n        /* \"FeeSplitter.sol\":2614:2625  _value == 0 */\n      sub\n        /* \"FeeSplitter.sol\":2611:2653  if(_value == 0) revert ZeroProfitDivider() */\n      tag_75\n      jumpi\n        /* \"FeeSplitter.sol\":2634:2653  ZeroProfitDivider() */\n      mload(0x40)\n      0xc830261600000000000000000000000000000000000000000000000000000000\n      dup2\n      mstore\n      0x04\n      add\n      mload(0x40)\n      dup1\n      swap2\n      sub\n      swap1\n      revert\n        /* \"FeeSplitter.sol\":2611:2653  if(_value == 0) revert ZeroProfitDivider() */\n    tag_75:\n        /* \"FeeSplitter.sol\":2682:2688  _value */\n      dup1\n        /* \"FeeSplitter.sol\":2666:2679  ProfitDivider */\n      0x06\n        /* \"FeeSplitter.sol\":2666:2688  ProfitDivider = _value */\n      dup2\n      swap1\n      sstore\n      pop\n        /* \"FeeSplitter.sol\":2727:2733  _value */\n      dup1\n        /* \"FeeSplitter.sol\":2706:2734  ProfitDividerUpdated(_value) */\n      0x3d5a337607048974766ec58e2109261b4871329988d9615e7051bae635c38a60\n      mload(0x40)\n      mload(0x40)\n      dup1\n      swap2\n      sub\n      swap1\n      log2\n        /* \"FeeSplitter.sol\":2539:2742  function setProfitDivider(uint256 _value) external onlyOwner {... */\n      pop\n      jump\t// out\n        /* \"@openzeppelin/contracts@v4.9.3/access/Ownable2Step.sol\":1139:1317  function transferOwnership(address newOwner) public virtual override onlyOwner {... */\n    tag_41:\n        /* \"@openzeppelin/contracts@v4.9.3/access/Ownable.sol\":1094:1107  _checkOwner() */\n      tag_77\n        /* \"@openzeppelin/contracts@v4.9.3/access/Ownable.sol\":1094:1105  _checkOwner */\n      tag_46\n        /* \"@openzeppelin/contracts@v4.9.3/access/Ownable.sol\":1094:1107  _checkOwner() */\n      jump\t// in\n    tag_77:\n        /* \"@openzeppelin/contracts@v4.9.3/access/Ownable2Step.sol\":1244:1252  newOwner */\n      dup1\n        /* \"@openzeppelin/contracts@v4.9.3/access/Ownable2Step.sol\":1228:1241  _pendingOwner */\n      0x01\n      0x00\n        /* \"@openzeppelin/contracts@v4.9.3/access/Ownable2Step.sol\":1228:1252  _pendingOwner = newOwner */\n      0x0100\n      exp\n      dup2\n      sload\n      dup2\n      0xffffffffffffffffffffffffffffffffffffffff\n      mul\n      not\n      and\n      swap1\n      dup4\n      0xffffffffffffffffffffffffffffffffffffffff\n      and\n      mul\n      or\n      swap1\n      sstore\n      pop\n        /* \"@openzeppelin/contracts@v4.9.3/access/Ownable2Step.sol\":1301:1309  newOwner */\n      dup1\n        /* \"@openzeppelin/contracts@v4.9.3/access/Ownable2Step.sol\":1267:1310  OwnershipTransferStarted(owner(), newOwner) */\n      0xffffffffffffffffffffffffffffffffffffffff\n      and\n        /* \"@openzeppelin/contracts@v4.9.3/access/Ownable2Step.sol\":1292:1299  owner() */\n      tag_79\n        /* \"@openzeppelin/contracts@v4.9.3/access/Ownable2Step.sol\":1292:1297  owner */\n      tag_23\n        /* \"@openzeppelin/contracts@v4.9.3/access/Ownable2Step.sol\":1292:1299  owner() */\n      jump\t// in\n    tag_79:\n        /* \"@openzeppelin/contracts@v4.9.3/access/Ownable2Step.sol\":1267:1310  OwnershipTransferStarted(owner(), newOwner) */\n      0xffffffffffffffffffffffffffffffffffffffff\n      and\n      0x38d16b8cac22d99fc7c124b9cd0de2d3fa1faef420bfe791d8c362d765e22700\n      mload(0x40)\n      mload(0x40)\n      dup1\n      swap2\n      sub\n      swap1\n      log3\n        /* \"@openzeppelin/contracts@v4.9.3/access/Ownable2Step.sol\":1139:1317  function transferOwnership(address newOwner) public virtual override onlyOwner {... */\n      pop\n      jump\t// out\n        /* \"FeeSplitter.sol\":1921:2364  function splitFees() external onlyOwner {... */\n    tag_43:\n        /* \"@openzeppelin/contracts@v4.9.3/access/Ownable.sol\":1094:1107  _checkOwner() */\n      tag_81\n        /* \"@openzeppelin/contracts@v4.9.3/access/Ownable.sol\":1094:1105  _checkOwner */\n      tag_46\n        /* \"@openzeppelin/contracts@v4.9.3/access/Ownable.sol\":1094:1107  _checkOwner() */\n      jump\t// in\n    tag_81:\n        /* \"FeeSplitter.sol\":1972:1986  uint256 profit */\n      0x00\n        /* \"FeeSplitter.sol\":2024:2037  ProfitDivider */\n      sload(0x06)\n        /* \"FeeSplitter.sol\":1989:1996  _PTOKEN */\n      immutable(\"0x7173bb0c0c341c627c9734f9095ef27b00afaca222d0fccf9d280fbad8b7c078\")\n        /* \"FeeSplitter.sol\":1989:2006  _PTOKEN.balanceOf */\n      0xffffffffffffffffffffffffffffffffffffffff\n      and\n      0x70a08231\n        /* \"FeeSplitter.sol\":2015:2019  this */\n      address\n        /* \"FeeSplitter.sol\":1989:2021  _PTOKEN.balanceOf(address(this)) */\n      mload(0x40)\n      dup3\n      0xffffffff\n      and\n      0xe0\n      shl\n      dup2\n      mstore\n      0x04\n      add\n      tag_83\n      swap2\n      swap1\n      tag_25\n      jump\t// in\n    tag_83:\n      0x20\n      mload(0x40)\n      dup1\n      dup4\n      sub\n      dup2\n      dup7\n      gas\n      staticcall\n      iszero\n      dup1\n      iszero\n      tag_85\n      jumpi\n      returndatasize\n      0x00\n      dup1\n      returndatacopy\n      revert(0x00, returndatasize)\n    tag_85:\n      pop\n      pop\n      pop\n      pop\n      mload(0x40)\n      returndatasize\n      not(0x1f)\n      0x1f\n      dup3\n      add\n      and\n      dup3\n      add\n      dup1\n      0x40\n      mstore\n      pop\n      dup2\n      add\n      swap1\n      tag_86\n      swap2\n      swap1\n      tag_87\n      jump\t// in\n    tag_86:\n        /* \"FeeSplitter.sol\":1989:2037  _PTOKEN.balanceOf(address(this)) / ProfitDivider */\n      tag_88\n      swap2\n      swap1\n      tag_89\n      jump\t// in\n    tag_88:\n        /* \"FeeSplitter.sol\":1972:2037  uint256 profit = _PTOKEN.balanceOf(address(this)) / ProfitDivider */\n      swap1\n      pop\n        /* \"FeeSplitter.sol\":2050:2103  SafeERC20.safeTransfer(_PTOKEN, EQUALDAO, profit / 2) */\n      tag_90\n        /* \"FeeSplitter.sol\":2073:2080  _PTOKEN */\n      immutable(\"0x7173bb0c0c341c627c9734f9095ef27b00afaca222d0fccf9d280fbad8b7c078\")\n        /* \"FeeSplitter.sol\":2082:2090  EQUALDAO */\n      0x05\n      0x00\n      swap1\n      sload\n      swap1\n      0x0100\n      exp\n      swap1\n      div\n      0xffffffffffffffffffffffffffffffffffffffff\n      and\n        /* \"FeeSplitter.sol\":2101:2102  2 */\n      0x02\n        /* \"FeeSplitter.sol\":2092:2098  profit */\n      dup5\n        /* \"FeeSplitter.sol\":2092:2102  profit / 2 */\n      tag_91\n      swap2\n      swap1\n      tag_89\n      jump\t// in\n    tag_91:\n        /* \"FeeSplitter.sol\":2050:2072  SafeERC20.safeTransfer */\n      tag_92\n        /* \"FeeSplitter.sol\":2050:2103  SafeERC20.safeTransfer(_PTOKEN, EQUALDAO, profit / 2) */\n      jump\t// in\n    tag_90:\n        /* \"FeeSplitter.sol\":2114:2167  SafeERC20.safeTransfer(_PTOKEN, PANTHEON, profit / 2) */\n      tag_93\n        /* \"FeeSplitter.sol\":2137:2144  _PTOKEN */\n      immutable(\"0x7173bb0c0c341c627c9734f9095ef27b00afaca222d0fccf9d280fbad8b7c078\")\n        /* \"FeeSplitter.sol\":2146:2154  PANTHEON */\n      0x04\n      0x00\n      swap1\n      sload\n      swap1\n      0x0100\n      exp\n      swap1\n      div\n      0xffffffffffffffffffffffffffffffffffffffff\n      and\n        /* \"FeeSplitter.sol\":2165:2166  2 */\n      0x02\n        /* \"FeeSplitter.sol\":2156:2162  profit */\n      dup5\n        /* \"FeeSplitter.sol\":2156:2166  profit / 2 */\n      tag_94\n      swap2\n      swap1\n      tag_89\n      jump\t// in\n    tag_94:\n        /* \"FeeSplitter.sol\":2114:2136  SafeERC20.safeTransfer */\n      tag_92\n        /* \"FeeSplitter.sol\":2114:2167  SafeERC20.safeTransfer(_PTOKEN, PANTHEON, profit / 2) */\n      jump\t// in\n    tag_93:\n        /* \"FeeSplitter.sol\":2180:2197  uint256 remaining */\n      0x00\n        /* \"FeeSplitter.sol\":2200:2207  _PTOKEN */\n      immutable(\"0x7173bb0c0c341c627c9734f9095ef27b00afaca222d0fccf9d280fbad8b7c078\")\n        /* \"FeeSplitter.sol\":2200:2217  _PTOKEN.balanceOf */\n      0xffffffffffffffffffffffffffffffffffffffff\n      and\n      0x70a08231\n        /* \"FeeSplitter.sol\":2226:2230  this */\n      address\n        /* \"FeeSplitter.sol\":2200:2232  _PTOKEN.balanceOf(address(this)) */\n      mload(0x40)\n      dup3\n      0xffffffff\n      and\n      0xe0\n      shl\n      dup2\n      mstore\n      0x04\n      add\n      tag_95\n      swap2\n      swap1\n      tag_25\n      jump\t// in\n    tag_95:\n      0x20\n      mload(0x40)\n      dup1\n      dup4\n      sub\n      dup2\n      dup7\n      gas\n      staticcall\n      iszero\n      dup1\n      iszero\n      tag_97\n      jumpi\n      returndatasize\n      0x00\n      dup1\n      returndatacopy\n      revert(0x00, returndatasize)\n    tag_97:\n      pop\n      pop\n      pop\n      pop\n      mload(0x40)\n      returndatasize\n      not(0x1f)\n      0x1f\n      dup3\n      add\n      and\n      dup3\n      add\n      dup1\n      0x40\n      mstore\n      pop\n      dup2\n      add\n      swap1\n      tag_98\n      swap2\n      swap1\n      tag_87\n      jump\t// in\n    tag_98:\n        /* \"FeeSplitter.sol\":2180:2232  uint256 remaining = _PTOKEN.balanceOf(address(this)) */\n      swap1\n      pop\n        /* \"FeeSplitter.sol\":2245:2295  SafeERC20.safeTransfer(_PTOKEN, BRIBES, remaining) */\n      tag_99\n        /* \"FeeSplitter.sol\":2268:2275  _PTOKEN */\n      immutable(\"0x7173bb0c0c341c627c9734f9095ef27b00afaca222d0fccf9d280fbad8b7c078\")\n        /* \"FeeSplitter.sol\":2277:2283  BRIBES */\n      0x03\n      0x00\n      swap1\n      sload\n      swap1\n      0x0100\n      exp\n      swap1\n      div\n      0xffffffffffffffffffffffffffffffffffffffff\n      and\n        /* \"FeeSplitter.sol\":2285:2294  remaining */\n      dup4\n        /* \"FeeSplitter.sol\":2245:2267  SafeERC20.safeTransfer */\n      tag_92\n        /* \"FeeSplitter.sol\":2245:2295  SafeERC20.safeTransfer(_PTOKEN, BRIBES, remaining) */\n      jump\t// in\n    tag_99:\n        /* \"FeeSplitter.sol\":2346:2355  remaining */\n      dup1\n        /* \"FeeSplitter.sol\":2338:2344  profit */\n      dup3\n        /* \"FeeSplitter.sol\":2321:2336  block.timestamp */\n      timestamp\n        /* \"FeeSplitter.sol\":2313:2356  FeeSent(block.timestamp, profit, remaining) */\n      0x50efd2f2f250964da5961d710f9e330ea396faec8ef1e3dad48ff354a629d382\n      mload(0x40)\n      mload(0x40)\n      dup1\n      swap2\n      sub\n      swap1\n      log4\n        /* \"FeeSplitter.sol\":1961:2364  {... */\n      pop\n      pop\n        /* \"FeeSplitter.sol\":1921:2364  function splitFees() external onlyOwner {... */\n      jump\t// out\n        /* \"@openzeppelin/contracts@v4.9.3/access/Ownable.sol\":1359:1489  function _checkOwner() internal view virtual {... */\n    tag_46:\n        /* \"@openzeppelin/contracts@v4.9.3/access/Ownable.sol\":1433:1445  _msgSender() */\n      tag_101\n        /* \"@openzeppelin/contracts@v4.9.3/access/Ownable.sol\":1433:1443  _msgSender */\n      tag_56\n        /* \"@openzeppelin/contracts@v4.9.3/access/Ownable.sol\":1433:1445  _msgSender() */\n      jump\t// in\n    tag_101:\n        /* \"@openzeppelin/contracts@v4.9.3/access/Ownable.sol\":1422:1445  owner() == _msgSender() */\n      0xffffffffffffffffffffffffffffffffffffffff\n      and\n        /* \"@openzeppelin/contracts@v4.9.3/access/Ownable.sol\":1422:1429  owner() */\n      tag_102\n        /* \"@openzeppelin/contracts@v4.9.3/access/Ownable.sol\":1422:1427  owner */\n      tag_23\n        /* \"@openzeppelin/contracts@v4.9.3/access/Ownable.sol\":1422:1429  owner() */\n      jump\t// in\n    tag_102:\n        /* \"@openzeppelin/contracts@v4.9.3/access/Ownable.sol\":1422:1445  owner() == _msgSender() */\n      0xffffffffffffffffffffffffffffffffffffffff\n      and\n      eq\n        /* \"@openzeppelin/contracts@v4.9.3/access/Ownable.sol\":1414:1482  require(owner() == _msgSender(), \"Ownable: caller is not the owner\") */\n      tag_103\n      jumpi\n      mload(0x40)\n      0x08c379a000000000000000000000000000000000000000000000000000000000\n      dup2\n      mstore\n      0x04\n      add\n      tag_104\n      swap1\n      tag_105\n      jump\t// in\n    tag_104:\n      mload(0x40)\n      dup1\n      swap2\n      sub\n      swap1\n      revert\n    tag_103:\n        /* \"@openzeppelin/contracts@v4.9.3/access/Ownable.sol\":1359:1489  function _checkOwner() internal view virtual {... */\n      jump\t// out\n        /* \"@openzeppelin/contracts@v4.9.3/access/Ownable2Step.sol\":1501:1654  function _transferOwnership(address newOwner) internal virtual override {... */\n    tag_53:\n        /* \"@openzeppelin/contracts@v4.9.3/access/Ownable2Step.sol\":1590:1603  _pendingOwner */\n      0x01\n      0x00\n        /* \"@openzeppelin/contracts@v4.9.3/access/Ownable2Step.sol\":1583:1603  delete _pendingOwner */\n      0x0100\n      exp\n      dup2\n      sload\n      swap1\n      0xffffffffffffffffffffffffffffffffffffffff\n      mul\n      not\n      and\n      swap1\n      sstore\n        /* \"@openzeppelin/contracts@v4.9.3/access/Ownable2Step.sol\":1613:1647  super._transferOwnership(newOwner) */\n      tag_107\n        /* \"@openzeppelin/contracts@v4.9.3/access/Ownable2Step.sol\":1638:1646  newOwner */\n      dup2\n        /* \"@openzeppelin/contracts@v4.9.3/access/Ownable2Step.sol\":1613:1637  super._transferOwnership */\n      tag_108\n        /* \"@openzeppelin/contracts@v4.9.3/access/Ownable2Step.sol\":1613:1647  super._transferOwnership(newOwner) */\n      jump\t// in\n    tag_107:\n        /* \"@openzeppelin/contracts@v4.9.3/access/Ownable2Step.sol\":1501:1654  function _transferOwnership(address newOwner) internal virtual override {... */\n      pop\n      jump\t// out\n        /* \"@openzeppelin/contracts@v4.9.3/utils/Context.sol\":640:736  function _msgSender() internal view virtual returns (address) {... */\n    tag_56:\n        /* \"@openzeppelin/contracts@v4.9.3/utils/Context.sol\":693:700  address */\n      0x00\n        /* \"@openzeppelin/contracts@v4.9.3/utils/Context.sol\":719:729  msg.sender */\n      caller\n        /* \"@openzeppelin/contracts@v4.9.3/utils/Context.sol\":712:729  return msg.sender */\n      swap1\n      pop\n        /* \"@openzeppelin/contracts@v4.9.3/utils/Context.sol\":640:736  function _msgSender() internal view virtual returns (address) {... */\n      swap1\n      jump\t// out\n        /* \"@openzeppelin/contracts@v4.9.3/token/ERC20/utils/SafeERC20.sol\":941:1116  function safeTransfer(IERC20 token, address to, uint256 value) internal {... */\n    tag_92:\n        /* \"@openzeppelin/contracts@v4.9.3/token/ERC20/utils/SafeERC20.sol\":1023:1109  _callOptionalReturn(token, abi.encodeWithSelector(token.transfer.selector, to, value)) */\n      tag_111\n        /* \"@openzeppelin/contracts@v4.9.3/token/ERC20/utils/SafeERC20.sol\":1043:1048  token */\n      dup4\n        /* \"@openzeppelin/contracts@v4.9.3/token/ERC20/utils/SafeERC20.sol\":1073:1096  token.transfer.selector */\n      shl(0xe0, 0xa9059cbb)\n        /* \"@openzeppelin/contracts@v4.9.3/token/ERC20/utils/SafeERC20.sol\":1098:1100  to */\n      dup5\n        /* \"@openzeppelin/contracts@v4.9.3/token/ERC20/utils/SafeERC20.sol\":1102:1107  value */\n      dup5\n        /* \"@openzeppelin/contracts@v4.9.3/token/ERC20/utils/SafeERC20.sol\":1050:1108  abi.encodeWithSelector(token.transfer.selector, to, value) */\n      add(0x24, mload(0x40))\n      tag_112\n      swap3\n      swap2\n      swap1\n      tag_113\n      jump\t// in\n    tag_112:\n      mload(0x40)\n      0x20\n      dup2\n      dup4\n      sub\n      sub\n      dup2\n      mstore\n      swap1\n      0x40\n      mstore\n      swap1\n      not(0xffffffffffffffffffffffffffffffffffffffffffffffffffffffff)\n      and\n      0x20\n      dup3\n      add\n      dup1\n      mload\n      0xffffffffffffffffffffffffffffffffffffffffffffffffffffffff\n      dup4\n      dup2\n      dup4\n      and\n      or\n      dup4\n      mstore\n      pop\n      pop\n      pop\n      pop\n        /* \"@openzeppelin/contracts@v4.9.3/token/ERC20/utils/SafeERC20.sol\":1023:1042  _callOptionalReturn */\n      tag_114\n        /* \"@openzeppelin/contracts@v4.9.3/token/ERC20/utils/SafeERC20.sol\":1023:1109  _callOptionalReturn(token, abi.encodeWithSelector(token.transfer.selector, to, value)) */\n      jump\t// in\n    tag_111:\n        /* \"@openzeppelin/contracts@v4.9.3/token/ERC20/utils/SafeERC20.sol\":941:1116  function safeTransfer(IERC20 token, address to, uint256 value) internal {... */\n      pop\n      pop\n      pop\n      jump\t// out\n        /* \"@openzeppelin/contracts@v4.9.3/access/Ownable.sol\":2426:2613  function _transferOwnership(address newOwner) internal virtual {... */\n    tag_108:\n        /* \"@openzeppelin/contracts@v4.9.3/access/Ownable.sol\":2499:2515  address oldOwner */\n      0x00\n        /* \"@openzeppelin/contracts@v4.9.3/access/Ownable.sol\":2518:2524  _owner */\n      dup1\n      0x00\n      swap1\n      sload\n      swap1\n      0x0100\n      exp\n      swap1\n      div\n      0xffffffffffffffffffffffffffffffffffffffff\n      and\n        /* \"@openzeppelin/contracts@v4.9.3/access/Ownable.sol\":2499:2524  address oldOwner = _owner */\n      swap1\n      pop\n        /* \"@openzeppelin/contracts@v4.9.3/access/Ownable.sol\":2543:2551  newOwner */\n      dup2\n        /* \"@openzeppelin/contracts@v4.9.3/access/Ownable.sol\":2534:2540  _owner */\n      0x00\n      dup1\n        /* \"@openzeppelin/contracts@v4.9.3/access/Ownable.sol\":2534:2551  _owner = newOwner */\n      0x0100\n      exp\n      dup2\n      sload\n      dup2\n      0xffffffffffffffffffffffffffffffffffffffff\n      mul\n      not\n      and\n      swap1\n      dup4\n      0xffffffffffffffffffffffffffffffffffffffff\n      and\n      mul\n      or\n      swap1\n      sstore\n      pop\n        /* \"@openzeppelin/contracts@v4.9.3/access/Ownable.sol\":2597:2605  newOwner */\n      dup2\n        /* \"@openzeppelin/contracts@v4.9.3/access/Ownable.sol\":2566:2606  OwnershipTransferred(oldOwner, newOwner) */\n      0xffffffffffffffffffffffffffffffffffffffff\n      and\n        /* \"@openzeppelin/contracts@v4.9.3/access/Ownable.sol\":2587:2595  oldOwner */\n      dup2\n        /* \"@openzeppelin/contracts@v4.9.3/access/Ownable.sol\":2566:2606  OwnershipTransferred(oldOwner, newOwner) */\n      0xffffffffffffffffffffffffffffffffffffffff\n      and\n      0x8be0079c531659141344cd1fd0a4f28419497f9722a3daafe3b4186f6b6457e0\n      mload(0x40)\n      mload(0x40)\n      dup1\n      swap2\n      sub\n      swap1\n      log3\n        /* \"@openzeppelin/contracts@v4.9.3/access/Ownable.sol\":2489:2613  {... */\n      pop\n        /* \"@openzeppelin/contracts@v4.9.3/access/Ownable.sol\":2426:2613  function _transferOwnership(address newOwner) internal virtual {... */\n      pop\n      jump\t// out\n        /* \"@openzeppelin/contracts@v4.9.3/token/ERC20/utils/SafeERC20.sol\":5196:5838  function _callOptionalReturn(IERC20 token, bytes memory data) private {... */\n    tag_114:\n        /* \"@openzeppelin/contracts@v4.9.3/token/ERC20/utils/SafeERC20.sol\":5615:5638  bytes memory returndata */\n      0x00\n        /* \"@openzeppelin/contracts@v4.9.3/token/ERC20/utils/SafeERC20.sol\":5641:5710  address(token).functionCall(data, \"SafeERC20: low-level call failed\") */\n      tag_117\n        /* \"@openzeppelin/contracts@v4.9.3/token/ERC20/utils/SafeERC20.sol\":5669:5673  data */\n      dup3\n        /* \"@openzeppelin/contracts@v4.9.3/token/ERC20/utils/SafeERC20.sol\":5641:5710  address(token).functionCall(data, \"SafeERC20: low-level call failed\") */\n      mload(0x40)\n      dup1\n      0x40\n      add\n      0x40\n      mstore\n      dup1\n      0x20\n      dup2\n      mstore\n      0x20\n      add\n      0x5361666545524332303a206c6f772d6c6576656c2063616c6c206661696c6564\n      dup2\n      mstore\n      pop\n        /* \"@openzeppelin/contracts@v4.9.3/token/ERC20/utils/SafeERC20.sol\":5649:5654  token */\n      dup6\n        /* \"@openzeppelin/contracts@v4.9.3/token/ERC20/utils/SafeERC20.sol\":5641:5668  address(token).functionCall */\n      0xffffffffffffffffffffffffffffffffffffffff\n      and\n      tag_118\n      swap1\n        /* \"@openzeppelin/contracts@v4.9.3/token/ERC20/utils/SafeERC20.sol\":5641:5710  address(token).functionCall(data, \"SafeERC20: low-level call failed\") */\n      swap3\n      swap2\n      swap1\n      0xffffffff\n      and\n      jump\t// in\n    tag_117:\n        /* \"@openzeppelin/contracts@v4.9.3/token/ERC20/utils/SafeERC20.sol\":5615:5710  bytes memory returndata = address(token).functionCall(data, \"SafeERC20: low-level call failed\") */\n      swap1\n      pop\n        /* \"@openzeppelin/contracts@v4.9.3/token/ERC20/utils/SafeERC20.sol\":5749:5750  0 */\n      0x00\n        /* \"@openzeppelin/contracts@v4.9.3/token/ERC20/utils/SafeERC20.sol\":5728:5738  returndata */\n      dup2\n        /* \"@openzeppelin/contracts@v4.9.3/token/ERC20/utils/SafeERC20.sol\":5728:5745  returndata.length */\n      mload\n        /* \"@openzeppelin/contracts@v4.9.3/token/ERC20/utils/SafeERC20.sol\":5728:5750  returndata.length == 0 */\n      eq\n        /* \"@openzeppelin/contracts@v4.9.3/token/ERC20/utils/SafeERC20.sol\":5728:5784  returndata.length == 0 || abi.decode(returndata, (bool)) */\n      dup1\n      tag_119\n      jumpi\n      pop\n        /* \"@openzeppelin/contracts@v4.9.3/token/ERC20/utils/SafeERC20.sol\":5765:5775  returndata */\n      dup1\n        /* \"@openzeppelin/contracts@v4.9.3/token/ERC20/utils/SafeERC20.sol\":5754:5784  abi.decode(returndata, (bool)) */\n      dup1\n      0x20\n      add\n      swap1\n      mload\n      dup2\n      add\n      swap1\n      tag_120\n      swap2\n      swap1\n      tag_121\n      jump\t// in\n    tag_120:\n        /* \"@openzeppelin/contracts@v4.9.3/token/ERC20/utils/SafeERC20.sol\":5728:5784  returndata.length == 0 || abi.decode(returndata, (bool)) */\n    tag_119:\n        /* \"@openzeppelin/contracts@v4.9.3/token/ERC20/utils/SafeERC20.sol\":5720:5831  require(returndata.length == 0 || abi.decode(returndata, (bool)), \"SafeERC20: ERC20 operation did not succeed\") */\n      tag_122\n      jumpi\n      mload(0x40)\n      0x08c379a000000000000000000000000000000000000000000000000000000000\n      dup2\n      mstore\n      0x04\n      add\n      tag_123\n      swap1\n      tag_124\n      jump\t// in\n    tag_123:\n      mload(0x40)\n      dup1\n      swap2\n      sub\n      swap1\n      revert\n    tag_122:\n        /* \"@openzeppelin/contracts@v4.9.3/token/ERC20/utils/SafeERC20.sol\":5266:5838  {... */\n      pop\n        /* \"@openzeppelin/contracts@v4.9.3/token/ERC20/utils/SafeERC20.sol\":5196:5838  function _callOptionalReturn(IERC20 token, bytes memory data) private {... */\n      pop\n      pop\n      jump\t// out\n        /* \"@openzeppelin/contracts@v4.9.3/utils/Address.sol\":4108:4331  function functionCall(... */\n    tag_118:\n        /* \"@openzeppelin/contracts@v4.9.3/utils/Address.sol\":4241:4253  bytes memory */\n      0x60\n        /* \"@openzeppelin/contracts@v4.9.3/utils/Address.sol\":4272:4324  functionCallWithValue(target, data, 0, errorMessage) */\n      tag_126\n        /* \"@openzeppelin/contracts@v4.9.3/utils/Address.sol\":4294:4300  target */\n      dup5\n        /* \"@openzeppelin/contracts@v4.9.3/utils/Address.sol\":4302:4306  data */\n      dup5\n        /* \"@openzeppelin/contracts@v4.9.3/utils/Address.sol\":4308:4309  0 */\n      0x00\n        /* \"@openzeppelin/contracts@v4.9.3/utils/Address.sol\":4311:4323  errorMessage */\n      dup6\n        /* \"@openzeppelin/contracts@v4.9.3/utils/Address.sol\":4272:4293  functionCallWithValue */\n      tag_127\n        /* \"@openzeppelin/contracts@v4.9.3/utils/Address.sol\":4272:4324  functionCallWithValue(target, data, 0, errorMessage) */\n      jump\t// in\n    tag_126:\n        /* \"@openzeppelin/contracts@v4.9.3/utils/Address.sol\":4265:4324  return functionCallWithValue(target, data, 0, errorMessage) */\n      swap1\n      pop\n        /* \"@openzeppelin/contracts@v4.9.3/utils/Address.sol\":4108:4331  function functionCall(... */\n      swap4\n      swap3\n      pop\n      pop\n      pop\n      jump\t// out\n        /* \"@openzeppelin/contracts@v4.9.3/utils/Address.sol\":5165:5611  function functionCallWithValue(... */\n    tag_127:\n        /* \"@openzeppelin/contracts@v4.9.3/utils/Address.sol\":5330:5342  bytes memory */\n      0x60\n        /* \"@openzeppelin/contracts@v4.9.3/utils/Address.sol\":5387:5392  value */\n      dup3\n        /* \"@openzeppelin/contracts@v4.9.3/utils/Address.sol\":5362:5383  address(this).balance */\n      selfbalance\n        /* \"@openzeppelin/contracts@v4.9.3/utils/Address.sol\":5362:5392  address(this).balance >= value */\n      lt\n      iszero\n        /* \"@openzeppelin/contracts@v4.9.3/utils/Address.sol\":5354:5435  require(address(this).balance >= value, \"Address: insufficient balance for call\") */\n      tag_129\n      jumpi\n      mload(0x40)\n      0x08c379a000000000000000000000000000000000000000000000000000000000\n      dup2\n      mstore\n      0x04\n      add\n      tag_130\n      swap1\n      tag_131\n      jump\t// in\n    tag_130:\n      mload(0x40)\n      dup1\n      swap2\n      sub\n      swap1\n      revert\n    tag_129:\n        /* \"@openzeppelin/contracts@v4.9.3/utils/Address.sol\":5446:5458  bool success */\n      0x00\n        /* \"@openzeppelin/contracts@v4.9.3/utils/Address.sol\":5460:5483  bytes memory returndata */\n      dup1\n        /* \"@openzeppelin/contracts@v4.9.3/utils/Address.sol\":5487:5493  target */\n      dup7\n        /* \"@openzeppelin/contracts@v4.9.3/utils/Address.sol\":5487:5498  target.call */\n      0xffffffffffffffffffffffffffffffffffffffff\n      and\n        /* \"@openzeppelin/contracts@v4.9.3/utils/Address.sol\":5506:5511  value */\n      dup6\n        /* \"@openzeppelin/contracts@v4.9.3/utils/Address.sol\":5513:5517  data */\n      dup8\n        /* \"@openzeppelin/contracts@v4.9.3/utils/Address.sol\":5487:5518  target.call{value: value}(data) */\n      mload(0x40)\n      tag_132\n      swap2\n      swap1\n      tag_133\n      jump\t// in\n    tag_132:\n      0x00\n      mload(0x40)\n      dup1\n      dup4\n      sub\n      dup2\n      dup6\n      dup8\n      gas\n      call\n      swap3\n      pop\n      pop\n      pop\n      returndatasize\n      dup1\n      0x00\n      dup2\n      eq\n      tag_136\n      jumpi\n      mload(0x40)\n      swap2\n      pop\n      and(add(returndatasize, 0x3f), not(0x1f))\n      dup3\n      add\n      0x40\n      mstore\n      returndatasize\n      dup3\n      mstore\n      returndatasize\n      0x00\n      0x20\n      dup5\n      add\n      returndatacopy\n      jump(tag_135)\n    tag_136:\n      0x60\n      swap2\n      pop\n    tag_135:\n      pop\n        /* \"@openzeppelin/contracts@v4.9.3/utils/Address.sol\":5445:5518  (bool success, bytes memory returndata) = target.call{value: value}(data) */\n      swap2\n      pop\n      swap2\n      pop\n        /* \"@openzeppelin/contracts@v4.9.3/utils/Address.sol\":5535:5604  verifyCallResultFromTarget(target, success, returndata, errorMessage) */\n      tag_137\n        /* \"@openzeppelin/contracts@v4.9.3/utils/Address.sol\":5562:5568  target */\n      dup8\n        /* \"@openzeppelin/contracts@v4.9.3/utils/Address.sol\":5570:5577  success */\n      dup4\n        /* \"@openzeppelin/contracts@v4.9.3/utils/Address.sol\":5579:5589  returndata */\n      dup4\n        /* \"@openzeppelin/contracts@v4.9.3/utils/Address.sol\":5591:5603  errorMessage */\n      dup8\n        /* \"@openzeppelin/contracts@v4.9.3/utils/Address.sol\":5535:5561  verifyCallResultFromTarget */\n      tag_138\n        /* \"@openzeppelin/contracts@v4.9.3/utils/Address.sol\":5535:5604  verifyCallResultFromTarget(target, success, returndata, errorMessage) */\n      jump\t// in\n    tag_137:\n        /* \"@openzeppelin/contracts@v4.9.3/utils/Address.sol\":5528:5604  return verifyCallResultFromTarget(target, success, returndata, errorMessage) */\n      swap3\n      pop\n      pop\n      pop\n        /* \"@openzeppelin/contracts@v4.9.3/utils/Address.sol\":5165:5611  function functionCallWithValue(... */\n      swap5\n      swap4\n      pop\n      pop\n      pop\n      pop\n      jump\t// out\n        /* \"@openzeppelin/contracts@v4.9.3/utils/Address.sol\":7671:8299  function verifyCallResultFromTarget(... */\n    tag_138:\n        /* \"@openzeppelin/contracts@v4.9.3/utils/Address.sol\":7851:7863  bytes memory */\n      0x60\n        /* \"@openzeppelin/contracts@v4.9.3/utils/Address.sol\":7879:7886  success */\n      dup4\n        /* \"@openzeppelin/contracts@v4.9.3/utils/Address.sol\":7875:8293  if (success) {... */\n      iszero\n      tag_140\n      jumpi\n        /* \"@openzeppelin/contracts@v4.9.3/utils/Address.sol\":7927:7928  0 */\n      0x00\n        /* \"@openzeppelin/contracts@v4.9.3/utils/Address.sol\":7906:7916  returndata */\n      dup4\n        /* \"@openzeppelin/contracts@v4.9.3/utils/Address.sol\":7906:7923  returndata.length */\n      mload\n        /* \"@openzeppelin/contracts@v4.9.3/utils/Address.sol\":7906:7928  returndata.length == 0 */\n      sub\n        /* \"@openzeppelin/contracts@v4.9.3/utils/Address.sol\":7902:8188  if (returndata.length == 0) {... */\n      tag_141\n      jumpi\n        /* \"@openzeppelin/contracts@v4.9.3/utils/Address.sol\":8121:8139  isContract(target) */\n      tag_142\n        /* \"@openzeppelin/contracts@v4.9.3/utils/Address.sol\":8132:8138  target */\n      dup6\n        /* \"@openzeppelin/contracts@v4.9.3/utils/Address.sol\":8121:8131  isContract */\n      tag_143\n        /* \"@openzeppelin/contracts@v4.9.3/utils/Address.sol\":8121:8139  isContract(target) */\n      jump\t// in\n    tag_142:\n        /* \"@openzeppelin/contracts@v4.9.3/utils/Address.sol\":8113:8173  require(isContract(target), \"Address: call to non-contract\") */\n      tag_144\n      jumpi\n      mload(0x40)\n      0x08c379a000000000000000000000000000000000000000000000000000000000\n      dup2\n      mstore\n      0x04\n      add\n      tag_145\n      swap1\n      tag_146\n      jump\t// in\n    tag_145:\n      mload(0x40)\n      dup1\n      swap2\n      sub\n      swap1\n      revert\n    tag_144:\n        /* \"@openzeppelin/contracts@v4.9.3/utils/Address.sol\":7902:8188  if (returndata.length == 0) {... */\n    tag_141:\n        /* \"@openzeppelin/contracts@v4.9.3/utils/Address.sol\":8208:8218  returndata */\n      dup3\n        /* \"@openzeppelin/contracts@v4.9.3/utils/Address.sol\":8201:8218  return returndata */\n      swap1\n      pop\n      jump(tag_139)\n        /* \"@openzeppelin/contracts@v4.9.3/utils/Address.sol\":7875:8293  if (success) {... */\n    tag_140:\n        /* \"@openzeppelin/contracts@v4.9.3/utils/Address.sol\":8249:8282  _revert(returndata, errorMessage) */\n      tag_148\n        /* \"@openzeppelin/contracts@v4.9.3/utils/Address.sol\":8257:8267  returndata */\n      dup4\n        /* \"@openzeppelin/contracts@v4.9.3/utils/Address.sol\":8269:8281  errorMessage */\n      dup4\n        /* \"@openzeppelin/contracts@v4.9.3/utils/Address.sol\":8249:8256  _revert */\n      tag_149\n        /* \"@openzeppelin/contracts@v4.9.3/utils/Address.sol\":8249:8282  _revert(returndata, errorMessage) */\n      jump\t// in\n    tag_148:\n        /* \"@openzeppelin/contracts@v4.9.3/utils/Address.sol\":7671:8299  function verifyCallResultFromTarget(... */\n    tag_139:\n      swap5\n      swap4\n      pop\n      pop\n      pop\n      pop\n      jump\t// out\n        /* \"@openzeppelin/contracts@v4.9.3/utils/Address.sol\":1412:1732  function isContract(address account) internal view returns (bool) {... */\n    tag_143:\n        /* \"@openzeppelin/contracts@v4.9.3/utils/Address.sol\":1472:1476  bool */\n      0x00\n        /* \"@openzeppelin/contracts@v4.9.3/utils/Address.sol\":1724:1725  0 */\n      dup1\n        /* \"@openzeppelin/contracts@v4.9.3/utils/Address.sol\":1702:1709  account */\n      dup3\n        /* \"@openzeppelin/contracts@v4.9.3/utils/Address.sol\":1702:1721  account.code.length */\n      0xffffffffffffffffffffffffffffffffffffffff\n      and\n      extcodesize\n        /* \"@openzeppelin/contracts@v4.9.3/utils/Address.sol\":1702:1725  account.code.length > 0 */\n      gt\n        /* \"@openzeppelin/contracts@v4.9.3/utils/Address.sol\":1695:1725  return account.code.length > 0 */\n      swap1\n      pop\n        /* \"@openzeppelin/contracts@v4.9.3/utils/Address.sol\":1412:1732  function isContract(address account) internal view returns (bool) {... */\n      swap2\n      swap1\n      pop\n      jump\t// out\n        /* \"@openzeppelin/contracts@v4.9.3/utils/Address.sol\":8821:9361  function _revert(bytes memory returndata, string memory errorMessage) private pure {... */\n    tag_149:\n        /* \"@openzeppelin/contracts@v4.9.3/utils/Address.sol\":9000:9001  0 */\n      0x00\n        /* \"@openzeppelin/contracts@v4.9.3/utils/Address.sol\":8980:8990  returndata */\n      dup3\n        /* \"@openzeppelin/contracts@v4.9.3/utils/Address.sol\":8980:8997  returndata.length */\n      mload\n        /* \"@openzeppelin/contracts@v4.9.3/utils/Address.sol\":8980:9001  returndata.length > 0 */\n      gt\n        /* \"@openzeppelin/contracts@v4.9.3/utils/Address.sol\":8976:9355  if (returndata.length > 0) {... */\n      iszero\n      tag_152\n      jumpi\n        /* \"@openzeppelin/contracts@v4.9.3/utils/Address.sol\":9208:9218  returndata */\n      dup2\n        /* \"@openzeppelin/contracts@v4.9.3/utils/Address.sol\":9202:9219  mload(returndata) */\n      mload\n        /* \"@openzeppelin/contracts@v4.9.3/utils/Address.sol\":9264:9279  returndata_size */\n      dup1\n        /* \"@openzeppelin/contracts@v4.9.3/utils/Address.sol\":9251:9261  returndata */\n      dup4\n        /* \"@openzeppelin/contracts@v4.9.3/utils/Address.sol\":9247:9249  32 */\n      0x20\n        /* \"@openzeppelin/contracts@v4.9.3/utils/Address.sol\":9243:9262  add(32, returndata) */\n      add\n        /* \"@openzeppelin/contracts@v4.9.3/utils/Address.sol\":9236:9280  revert(add(32, returndata), returndata_size) */\n      revert\n        /* \"@openzeppelin/contracts@v4.9.3/utils/Address.sol\":8976:9355  if (returndata.length > 0) {... */\n    tag_152:\n        /* \"@openzeppelin/contracts@v4.9.3/utils/Address.sol\":9331:9343  errorMessage */\n      dup1\n        /* \"@openzeppelin/contracts@v4.9.3/utils/Address.sol\":9324:9344  revert(errorMessage) */\n      mload(0x40)\n      0x08c379a000000000000000000000000000000000000000000000000000000000\n      dup2\n      mstore\n      0x04\n      add\n      tag_154\n      swap2\n      swap1\n      tag_155\n      jump\t// in\n    tag_154:\n      mload(0x40)\n      dup1\n      swap2\n      sub\n      swap1\n      revert\n        /* \"#utility.yul\":88:205   */\n    tag_157:\n        /* \"#utility.yul\":197:198   */\n      0x00\n        /* \"#utility.yul\":194:195   */\n      dup1\n        /* \"#utility.yul\":187:199   */\n      revert\n        /* \"#utility.yul\":334:460   */\n    tag_159:\n        /* \"#utility.yul\":371:378   */\n      0x00\n        /* \"#utility.yul\":411:453   */\n      0xffffffffffffffffffffffffffffffffffffffff\n        /* \"#utility.yul\":404:409   */\n      dup3\n        /* \"#utility.yul\":400:454   */\n      and\n        /* \"#utility.yul\":389:454   */\n      swap1\n      pop\n        /* \"#utility.yul\":334:460   */\n      swap2\n      swap1\n      pop\n      jump\t// out\n        /* \"#utility.yul\":466:562   */\n    tag_160:\n        /* \"#utility.yul\":503:510   */\n      0x00\n        /* \"#utility.yul\":532:556   */\n      tag_198\n        /* \"#utility.yul\":550:555   */\n      dup3\n        /* \"#utility.yul\":532:556   */\n      tag_159\n      jump\t// in\n    tag_198:\n        /* \"#utility.yul\":521:556   */\n      swap1\n      pop\n        /* \"#utility.yul\":466:562   */\n      swap2\n      swap1\n      pop\n      jump\t// out\n        /* \"#utility.yul\":568:690   */\n    tag_161:\n        /* \"#utility.yul\":641:665   */\n      tag_200\n        /* \"#utility.yul\":659:664   */\n      dup2\n        /* \"#utility.yul\":641:665   */\n      tag_160\n      jump\t// in\n    tag_200:\n        /* \"#utility.yul\":634:639   */\n      dup2\n        /* \"#utility.yul\":631:666   */\n      eq\n        /* \"#utility.yul\":621:684   */\n      tag_201\n      jumpi\n        /* \"#utility.yul\":680:681   */\n      0x00\n        /* \"#utility.yul\":677:678   */\n      dup1\n        /* \"#utility.yul\":670:682   */\n      revert\n        /* \"#utility.yul\":621:684   */\n    tag_201:\n        /* \"#utility.yul\":568:690   */\n      pop\n      jump\t// out\n        /* \"#utility.yul\":696:835   */\n    tag_162:\n        /* \"#utility.yul\":742:747   */\n      0x00\n        /* \"#utility.yul\":780:786   */\n      dup2\n        /* \"#utility.yul\":767:787   */\n      calldataload\n        /* \"#utility.yul\":758:787   */\n      swap1\n      pop\n        /* \"#utility.yul\":796:829   */\n      tag_203\n        /* \"#utility.yul\":823:828   */\n      dup2\n        /* \"#utility.yul\":796:829   */\n      tag_161\n      jump\t// in\n    tag_203:\n        /* \"#utility.yul\":696:835   */\n      swap3\n      swap2\n      pop\n      pop\n      jump\t// out\n        /* \"#utility.yul\":841:1170   */\n    tag_16:\n        /* \"#utility.yul\":900:906   */\n      0x00\n        /* \"#utility.yul\":949:951   */\n      0x20\n        /* \"#utility.yul\":937:946   */\n      dup3\n        /* \"#utility.yul\":928:935   */\n      dup5\n        /* \"#utility.yul\":924:947   */\n      sub\n        /* \"#utility.yul\":920:952   */\n      slt\n        /* \"#utility.yul\":917:1036   */\n      iszero\n      tag_205\n      jumpi\n        /* \"#utility.yul\":955:1034   */\n      tag_206\n      tag_157\n      jump\t// in\n    tag_206:\n        /* \"#utility.yul\":917:1036   */\n    tag_205:\n        /* \"#utility.yul\":1075:1076   */\n      0x00\n        /* \"#utility.yul\":1100:1153   */\n      tag_207\n        /* \"#utility.yul\":1145:1152   */\n      dup5\n        /* \"#utility.yul\":1136:1142   */\n      dup3\n        /* \"#utility.yul\":1125:1134   */\n      dup6\n        /* \"#utility.yul\":1121:1143   */\n      add\n        /* \"#utility.yul\":1100:1153   */\n      tag_162\n      jump\t// in\n    tag_207:\n        /* \"#utility.yul\":1090:1153   */\n      swap2\n      pop\n        /* \"#utility.yul\":1046:1163   */\n      pop\n        /* \"#utility.yul\":841:1170   */\n      swap3\n      swap2\n      pop\n      pop\n      jump\t// out\n        /* \"#utility.yul\":1176:1294   */\n    tag_163:\n        /* \"#utility.yul\":1263:1287   */\n      tag_209\n        /* \"#utility.yul\":1281:1286   */\n      dup2\n        /* \"#utility.yul\":1263:1287   */\n      tag_160\n      jump\t// in\n    tag_209:\n        /* \"#utility.yul\":1258:1261   */\n      dup3\n        /* \"#utility.yul\":1251:1288   */\n      mstore\n        /* \"#utility.yul\":1176:1294   */\n      pop\n      pop\n      jump\t// out\n        /* \"#utility.yul\":1300:1522   */\n    tag_25:\n        /* \"#utility.yul\":1393:1397   */\n      0x00\n        /* \"#utility.yul\":1431:1433   */\n      0x20\n        /* \"#utility.yul\":1420:1429   */\n      dup3\n        /* \"#utility.yul\":1416:1434   */\n      add\n        /* \"#utility.yul\":1408:1434   */\n      swap1\n      pop\n        /* \"#utility.yul\":1444:1515   */\n      tag_211\n        /* \"#utility.yul\":1512:1513   */\n      0x00\n        /* \"#utility.yul\":1501:1510   */\n      dup4\n        /* \"#utility.yul\":1497:1514   */\n      add\n        /* \"#utility.yul\":1488:1494   */\n      dup5\n        /* \"#utility.yul\":1444:1515   */\n      tag_163\n      jump\t// in\n    tag_211:\n        /* \"#utility.yul\":1300:1522   */\n      swap3\n      swap2\n      pop\n      pop\n      jump\t// out\n        /* \"#utility.yul\":1528:1605   */\n    tag_164:\n        /* \"#utility.yul\":1565:1572   */\n      0x00\n        /* \"#utility.yul\":1594:1599   */\n      dup2\n        /* \"#utility.yul\":1583:1599   */\n      swap1\n      pop\n        /* \"#utility.yul\":1528:1605   */\n      swap2\n      swap1\n      pop\n      jump\t// out\n        /* \"#utility.yul\":1611:1733   */\n    tag_165:\n        /* \"#utility.yul\":1684:1708   */\n      tag_214\n        /* \"#utility.yul\":1702:1707   */\n      dup2\n        /* \"#utility.yul\":1684:1708   */\n      tag_164\n      jump\t// in\n    tag_214:\n        /* \"#utility.yul\":1677:1682   */\n      dup2\n        /* \"#utility.yul\":1674:1709   */\n      eq\n        /* \"#utility.yul\":1664:1727   */\n      tag_215\n      jumpi\n        /* \"#utility.yul\":1723:1724   */\n      0x00\n        /* \"#utility.yul\":1720:1721   */\n      dup1\n        /* \"#utility.yul\":1713:1725   */\n      revert\n        /* \"#utility.yul\":1664:1727   */\n    tag_215:\n        /* \"#utility.yul\":1611:1733   */\n      pop\n      jump\t// out\n        /* \"#utility.yul\":1739:1878   */\n    tag_166:\n        /* \"#utility.yul\":1785:1790   */\n      0x00\n        /* \"#utility.yul\":1823:1829   */\n      dup2\n        /* \"#utility.yul\":1810:1830   */\n      calldataload\n        /* \"#utility.yul\":1801:1830   */\n      swap1\n      pop\n        /* \"#utility.yul\":1839:1872   */\n      tag_217\n        /* \"#utility.yul\":1866:1871   */\n      dup2\n        /* \"#utility.yul\":1839:1872   */\n      tag_165\n      jump\t// in\n    tag_217:\n        /* \"#utility.yul\":1739:1878   */\n      swap3\n      swap2\n      pop\n      pop\n      jump\t// out\n        /* \"#utility.yul\":1884:2213   */\n    tag_37:\n        /* \"#utility.yul\":1943:1949   */\n      0x00\n        /* \"#utility.yul\":1992:1994   */\n      0x20\n        /* \"#utility.yul\":1980:1989   */\n      dup3\n        /* \"#utility.yul\":1971:1978   */\n      dup5\n        /* \"#utility.yul\":1967:1990   */\n      sub\n        /* \"#utility.yul\":1963:1995   */\n      slt\n        /* \"#utility.yul\":1960:2079   */\n      iszero\n      tag_219\n      jumpi\n        /* \"#utility.yul\":1998:2077   */\n      tag_220\n      tag_157\n      jump\t// in\n    tag_220:\n        /* \"#utility.yul\":1960:2079   */\n    tag_219:\n        /* \"#utility.yul\":2118:2119   */\n      0x00\n        /* \"#utility.yul\":2143:2196   */\n      tag_221\n        /* \"#utility.yul\":2188:2195   */\n      dup5\n        /* \"#utility.yul\":2179:2185   */\n      dup3\n        /* \"#utility.yul\":2168:2177   */\n      dup6\n        /* \"#utility.yul\":2164:2186   */\n      add\n        /* \"#utility.yul\":2143:2196   */\n      tag_166\n      jump\t// in\n    tag_221:\n        /* \"#utility.yul\":2133:2196   */\n      swap2\n      pop\n        /* \"#utility.yul\":2089:2206   */\n      pop\n        /* \"#utility.yul\":1884:2213   */\n      swap3\n      swap2\n      pop\n      pop\n      jump\t// out\n        /* \"#utility.yul\":2219:2388   */\n    tag_167:\n        /* \"#utility.yul\":2303:2314   */\n      0x00\n        /* \"#utility.yul\":2337:2343   */\n      dup3\n        /* \"#utility.yul\":2332:2335   */\n      dup3\n        /* \"#utility.yul\":2325:2344   */\n      mstore\n        /* \"#utility.yul\":2377:2381   */\n      0x20\n        /* \"#utility.yul\":2372:2375   */\n      dup3\n        /* \"#utility.yul\":2368:2382   */\n      add\n        /* \"#utility.yul\":2353:2382   */\n      swap1\n      pop\n        /* \"#utility.yul\":2219:2388   */\n      swap3\n      swap2\n      pop\n      pop\n      jump\t// out\n        /* \"#utility.yul\":2394:2622   */\n    tag_168:\n        /* \"#utility.yul\":2534:2568   */\n      0x4f776e61626c6532537465703a2063616c6c6572206973206e6f742074686520\n        /* \"#utility.yul\":2530:2531   */\n      0x00\n        /* \"#utility.yul\":2522:2528   */\n      dup3\n        /* \"#utility.yul\":2518:2532   */\n      add\n        /* \"#utility.yul\":2511:2569   */\n      mstore\n        /* \"#utility.yul\":2603:2614   */\n      0x6e6577206f776e65720000000000000000000000000000000000000000000000\n        /* \"#utility.yul\":2598:2600   */\n      0x20\n        /* \"#utility.yul\":2590:2596   */\n      dup3\n        /* \"#utility.yul\":2586:2601   */\n      add\n        /* \"#utility.yul\":2579:2615   */\n      mstore\n        /* \"#utility.yul\":2394:2622   */\n      pop\n      jump\t// out\n        /* \"#utility.yul\":2628:2994   */\n    tag_169:\n        /* \"#utility.yul\":2770:2773   */\n      0x00\n        /* \"#utility.yul\":2791:2858   */\n      tag_225\n        /* \"#utility.yul\":2855:2857   */\n      0x29\n        /* \"#utility.yul\":2850:2853   */\n      dup4\n        /* \"#utility.yul\":2791:2858   */\n      tag_167\n      jump\t// in\n    tag_225:\n        /* \"#utility.yul\":2784:2858   */\n      swap2\n      pop\n        /* \"#utility.yul\":2867:2960   */\n      tag_226\n        /* \"#utility.yul\":2956:2959   */\n      dup3\n        /* \"#utility.yul\":2867:2960   */\n      tag_168\n      jump\t// in\n    tag_226:\n        /* \"#utility.yul\":2985:2987   */\n      0x40\n        /* \"#utility.yul\":2980:2983   */\n      dup3\n        /* \"#utility.yul\":2976:2988   */\n      add\n        /* \"#utility.yul\":2969:2988   */\n      swap1\n      pop\n        /* \"#utility.yul\":2628:2994   */\n      swap2\n      swap1\n      pop\n      jump\t// out\n        /* \"#utility.yul\":3000:3419   */\n    tag_60:\n        /* \"#utility.yul\":3166:3170   */\n      0x00\n        /* \"#utility.yul\":3204:3206   */\n      0x20\n        /* \"#utility.yul\":3193:3202   */\n      dup3\n        /* \"#utility.yul\":3189:3207   */\n      add\n        /* \"#utility.yul\":3181:3207   */\n      swap1\n      pop\n        /* \"#utility.yul\":3253:3262   */\n      dup2\n        /* \"#utility.yul\":3247:3251   */\n      dup2\n        /* \"#utility.yul\":3243:3263   */\n      sub\n        /* \"#utility.yul\":3239:3240   */\n      0x00\n        /* \"#utility.yul\":3228:3237   */\n      dup4\n        /* \"#utility.yul\":3224:3241   */\n      add\n        /* \"#utility.yul\":3217:3264   */\n      mstore\n        /* \"#utility.yul\":3281:3412   */\n      tag_228\n        /* \"#utility.yul\":3407:3411   */\n      dup2\n        /* \"#utility.yul\":3281:3412   */\n      tag_169\n      jump\t// in\n    tag_228:\n        /* \"#utility.yul\":3273:3412   */\n      swap1\n      pop\n        /* \"#utility.yul\":3000:3419   */\n      swap2\n      swap1\n      pop\n      jump\t// out\n        /* \"#utility.yul\":3425:3568   */\n    tag_170:\n        /* \"#utility.yul\":3482:3487   */\n      0x00\n        /* \"#utility.yul\":3513:3519   */\n      dup2\n        /* \"#utility.yul\":3507:3520   */\n      mload\n        /* \"#utility.yul\":3498:3520   */\n      swap1\n      pop\n        /* \"#utility.yul\":3529:3562   */\n      tag_230\n        /* \"#utility.yul\":3556:3561   */\n      dup2\n        /* \"#utility.yul\":3529:3562   */\n      tag_165\n      jump\t// in\n    tag_230:\n        /* \"#utility.yul\":3425:3568   */\n      swap3\n      swap2\n      pop\n      pop\n      jump\t// out\n        /* \"#utility.yul\":3574:3925   */\n    tag_87:\n        /* \"#utility.yul\":3644:3650   */\n      0x00\n        /* \"#utility.yul\":3693:3695   */\n      0x20\n        /* \"#utility.yul\":3681:3690   */\n      dup3\n        /* \"#utility.yul\":3672:3679   */\n      dup5\n        /* \"#utility.yul\":3668:3691   */\n      sub\n        /* \"#utility.yul\":3664:3696   */\n      slt\n        /* \"#utility.yul\":3661:3780   */\n      iszero\n      tag_232\n      jumpi\n        /* \"#utility.yul\":3699:3778   */\n      tag_233\n      tag_157\n      jump\t// in\n    tag_233:\n        /* \"#utility.yul\":3661:3780   */\n    tag_232:\n        /* \"#utility.yul\":3819:3820   */\n      0x00\n        /* \"#utility.yul\":3844:3908   */\n      tag_234\n        /* \"#utility.yul\":3900:3907   */\n      dup5\n        /* \"#utility.yul\":3891:3897   */\n      dup3\n        /* \"#utility.yul\":3880:3889   */\n      dup6\n        /* \"#utility.yul\":3876:3898   */\n      add\n        /* \"#utility.yul\":3844:3908   */\n      tag_170\n      jump\t// in\n    tag_234:\n        /* \"#utility.yul\":3834:3908   */\n      swap2\n      pop\n        /* \"#utility.yul\":3790:3918   */\n      pop\n        /* \"#utility.yul\":3574:3925   */\n      swap3\n      swap2\n      pop\n      pop\n      jump\t// out\n        /* \"#utility.yul\":3931:4111   */\n    tag_171:\n        /* \"#utility.yul\":3979:4056   */\n      0x4e487b7100000000000000000000000000000000000000000000000000000000\n        /* \"#utility.yul\":3976:3977   */\n      0x00\n        /* \"#utility.yul\":3969:4057   */\n      mstore\n        /* \"#utility.yul\":4076:4080   */\n      0x12\n        /* \"#utility.yul\":4073:4074   */\n      0x04\n        /* \"#utility.yul\":4066:4081   */\n      mstore\n        /* \"#utility.yul\":4100:4104   */\n      0x24\n        /* \"#utility.yul\":4097:4098   */\n      0x00\n        /* \"#utility.yul\":4090:4105   */\n      revert\n        /* \"#utility.yul\":4303:4488   */\n    tag_89:\n        /* \"#utility.yul\":4343:4344   */\n      0x00\n        /* \"#utility.yul\":4360:4380   */\n      tag_238\n        /* \"#utility.yul\":4378:4379   */\n      dup3\n        /* \"#utility.yul\":4360:4380   */\n      tag_164\n      jump\t// in\n    tag_238:\n        /* \"#utility.yul\":4355:4380   */\n      swap2\n      pop\n        /* \"#utility.yul\":4394:4414   */\n      tag_239\n        /* \"#utility.yul\":4412:4413   */\n      dup4\n        /* \"#utility.yul\":4394:4414   */\n      tag_164\n      jump\t// in\n    tag_239:\n        /* \"#utility.yul\":4389:4414   */\n      swap3\n      pop\n        /* \"#utility.yul\":4433:4434   */\n      dup3\n        /* \"#utility.yul\":4423:4458   */\n      tag_240\n      jumpi\n        /* \"#utility.yul\":4438:4456   */\n      tag_241\n      tag_171\n      jump\t// in\n    tag_241:\n        /* \"#utility.yul\":4423:4458   */\n    tag_240:\n        /* \"#utility.yul\":4480:4481   */\n      dup3\n        /* \"#utility.yul\":4477:4478   */\n      dup3\n        /* \"#utility.yul\":4473:4482   */\n      div\n        /* \"#utility.yul\":4468:4482   */\n      swap1\n      pop\n        /* \"#utility.yul\":4303:4488   */\n      swap3\n      swap2\n      pop\n      pop\n      jump\t// out\n        /* \"#utility.yul\":4494:4676   */\n    tag_173:\n        /* \"#utility.yul\":4634:4668   */\n      0x4f776e61626c653a2063616c6c6572206973206e6f7420746865206f776e6572\n        /* \"#utility.yul\":4630:4631   */\n      0x00\n        /* \"#utility.yul\":4622:4628   */\n      dup3\n        /* \"#utility.yul\":4618:4632   */\n      add\n        /* \"#utility.yul\":4611:4669   */\n      mstore\n        /* \"#utility.yul\":4494:4676   */\n      pop\n      jump\t// out\n        /* \"#utility.yul\":4682:5048   */\n    tag_174:\n        /* \"#utility.yul\":4824:4827   */\n      0x00\n        /* \"#utility.yul\":4845:4912   */\n      tag_244\n        /* \"#utility.yul\":4909:4911   */\n      0x20\n        /* \"#utility.yul\":4904:4907   */\n      dup4\n        /* \"#utility.yul\":4845:4912   */\n      tag_167\n      jump\t// in\n    tag_244:\n        /* \"#utility.yul\":4838:4912   */\n      swap2\n      pop\n        /* \"#utility.yul\":4921:5014   */\n      tag_245\n        /* \"#utility.yul\":5010:5013   */\n      dup3\n        /* \"#utility.yul\":4921:5014   */\n      tag_173\n      jump\t// in\n    tag_245:\n        /* \"#utility.yul\":5039:5041   */\n      0x20\n        /* \"#utility.yul\":5034:5037   */\n      dup3\n        /* \"#utility.yul\":5030:5042   */\n      add\n        /* \"#utility.yul\":5023:5042   */\n      swap1\n      pop\n        /* \"#utility.yul\":4682:5048   */\n      swap2\n      swap1\n      pop\n      jump\t// out\n        /* \"#utility.yul\":5054:5473   */\n    tag_105:\n        /* \"#utility.yul\":5220:5224   */\n      0x00\n        /* \"#utility.yul\":5258:5260   */\n      0x20\n        /* \"#utility.yul\":5247:5256   */\n      dup3\n        /* \"#utility.yul\":5243:5261   */\n      add\n        /* \"#utility.yul\":5235:5261   */\n      swap1\n      pop\n        /* \"#utility.yul\":5307:5316   */\n      dup2\n        /* \"#utility.yul\":5301:5305   */\n      dup2\n        /* \"#utility.yul\":5297:5317   */\n      sub\n        /* \"#utility.yul\":5293:5294   */\n      0x00\n        /* \"#utility.yul\":5282:5291   */\n      dup4\n        /* \"#utility.yul\":5278:5295   */\n      add\n        /* \"#utility.yul\":5271:5318   */\n      mstore\n        /* \"#utility.yul\":5335:5466   */\n      tag_247\n        /* \"#utility.yul\":5461:5465   */\n      dup2\n        /* \"#utility.yul\":5335:5466   */\n      tag_174\n      jump\t// in\n    tag_247:\n        /* \"#utility.yul\":5327:5466   */\n      swap1\n      pop\n        /* \"#utility.yul\":5054:5473   */\n      swap2\n      swap1\n      pop\n      jump\t// out\n        /* \"#utility.yul\":5479:5597   */\n    tag_175:\n        /* \"#utility.yul\":5566:5590   */\n      tag_249\n        /* \"#utility.yul\":5584:5589   */\n      dup2\n        /* \"#utility.yul\":5566:5590   */\n      tag_164\n      jump\t// in\n    tag_249:\n        /* \"#utility.yul\":5561:5564   */\n      dup3\n        /* \"#utility.yul\":5554:5591   */\n      mstore\n        /* \"#utility.yul\":5479:5597   */\n      pop\n      pop\n      jump\t// out\n        /* \"#utility.yul\":5603:5935   */\n    tag_113:\n        /* \"#utility.yul\":5724:5728   */\n      0x00\n        /* \"#utility.yul\":5762:5764   */\n      0x40\n        /* \"#utility.yul\":5751:5760   */\n      dup3\n        /* \"#utility.yul\":5747:5765   */\n      add\n        /* \"#utility.yul\":5739:5765   */\n      swap1\n      pop\n        /* \"#utility.yul\":5775:5846   */\n      tag_251\n        /* \"#utility.yul\":5843:5844   */\n      0x00\n        /* \"#utility.yul\":5832:5841   */\n      dup4\n        /* \"#utility.yul\":5828:5845   */\n      add\n        /* \"#utility.yul\":5819:5825   */\n      dup6\n        /* \"#utility.yul\":5775:5846   */\n      tag_163\n      jump\t// in\n    tag_251:\n        /* \"#utility.yul\":5856:5928   */\n      tag_252\n        /* \"#utility.yul\":5924:5926   */\n      0x20\n        /* \"#utility.yul\":5913:5922   */\n      dup4\n        /* \"#utility.yul\":5909:5927   */\n      add\n        /* \"#utility.yul\":5900:5906   */\n      dup5\n        /* \"#utility.yul\":5856:5928   */\n      tag_175\n      jump\t// in\n    tag_252:\n        /* \"#utility.yul\":5603:5935   */\n      swap4\n      swap3\n      pop\n      pop\n      pop\n      jump\t// out\n        /* \"#utility.yul\":5941:6031   */\n    tag_176:\n        /* \"#utility.yul\":5975:5982   */\n      0x00\n        /* \"#utility.yul\":6018:6023   */\n      dup2\n        /* \"#utility.yul\":6011:6024   */\n      iszero\n        /* \"#utility.yul\":6004:6025   */\n      iszero\n        /* \"#utility.yul\":5993:6025   */\n      swap1\n      pop\n        /* \"#utility.yul\":5941:6031   */\n      swap2\n      swap1\n      pop\n      jump\t// out\n        /* \"#utility.yul\":6037:6153   */\n    tag_177:\n        /* \"#utility.yul\":6107:6128   */\n      tag_255\n        /* \"#utility.yul\":6122:6127   */\n      dup2\n        /* \"#utility.yul\":6107:6128   */\n      tag_176\n      jump\t// in\n    tag_255:\n        /* \"#utility.yul\":6100:6105   */\n      dup2\n        /* \"#utility.yul\":6097:6129   */\n      eq\n        /* \"#utility.yul\":6087:6147   */\n      tag_256\n      jumpi\n        /* \"#utility.yul\":6143:6144   */\n      0x00\n        /* \"#utility.yul\":6140:6141   */\n      dup1\n        /* \"#utility.yul\":6133:6145   */\n      revert\n        /* \"#utility.yul\":6087:6147   */\n    tag_256:\n        /* \"#utility.yul\":6037:6153   */\n      pop\n      jump\t// out\n        /* \"#utility.yul\":6159:6296   */\n    tag_178:\n        /* \"#utility.yul\":6213:6218   */\n      0x00\n        /* \"#utility.yul\":6244:6250   */\n      dup2\n        /* \"#utility.yul\":6238:6251   */\n      mload\n        /* \"#utility.yul\":6229:6251   */\n      swap1\n      pop\n        /* \"#utility.yul\":6260:6290   */\n      tag_258\n        /* \"#utility.yul\":6284:6289   */\n      dup2\n        /* \"#utility.yul\":6260:6290   */\n      tag_177\n      jump\t// in\n    tag_258:\n        /* \"#utility.yul\":6159:6296   */\n      swap3\n      swap2\n      pop\n      pop\n      jump\t// out\n        /* \"#utility.yul\":6302:6647   */\n    tag_121:\n        /* \"#utility.yul\":6369:6375   */\n      0x00\n        /* \"#utility.yul\":6418:6420   */\n      0x20\n        /* \"#utility.yul\":6406:6415   */\n      dup3\n        /* \"#utility.yul\":6397:6404   */\n      dup5\n        /* \"#utility.yul\":6393:6416   */\n      sub\n        /* \"#utility.yul\":6389:6421   */\n      slt\n        /* \"#utility.yul\":6386:6505   */\n      iszero\n      tag_260\n      jumpi\n        /* \"#utility.yul\":6424:6503   */\n      tag_261\n      tag_157\n      jump\t// in\n    tag_261:\n        /* \"#utility.yul\":6386:6505   */\n    tag_260:\n        /* \"#utility.yul\":6544:6545   */\n      0x00\n        /* \"#utility.yul\":6569:6630   */\n      tag_262\n        /* \"#utility.yul\":6622:6629   */\n      dup5\n        /* \"#utility.yul\":6613:6619   */\n      dup3\n        /* \"#utility.yul\":6602:6611   */\n      dup6\n        /* \"#utility.yul\":6598:6620   */\n      add\n        /* \"#utility.yul\":6569:6630   */\n      tag_178\n      jump\t// in\n    tag_262:\n        /* \"#utility.yul\":6559:6630   */\n      swap2\n      pop\n        /* \"#utility.yul\":6515:6640   */\n      pop\n        /* \"#utility.yul\":6302:6647   */\n      swap3\n      swap2\n      pop\n      pop\n      jump\t// out\n        /* \"#utility.yul\":6653:6882   */\n    tag_179:\n        /* \"#utility.yul\":6793:6827   */\n      0x5361666545524332303a204552433230206f7065726174696f6e20646964206e\n        /* \"#utility.yul\":6789:6790   */\n      0x00\n        /* \"#utility.yul\":6781:6787   */\n      dup3\n        /* \"#utility.yul\":6777:6791   */\n      add\n        /* \"#utility.yul\":6770:6828   */\n      mstore\n        /* \"#utility.yul\":6862:6874   */\n      0x6f74207375636365656400000000000000000000000000000000000000000000\n        /* \"#utility.yul\":6857:6859   */\n      0x20\n        /* \"#utility.yul\":6849:6855   */\n      dup3\n        /* \"#utility.yul\":6845:6860   */\n      add\n        /* \"#utility.yul\":6838:6875   */\n      mstore\n        /* \"#utility.yul\":6653:6882   */\n      pop\n      jump\t// out\n        /* \"#utility.yul\":6888:7254   */\n    tag_180:\n        /* \"#utility.yul\":7030:7033   */\n      0x00\n        /* \"#utility.yul\":7051:7118   */\n      tag_265\n        /* \"#utility.yul\":7115:7117   */\n      0x2a\n        /* \"#utility.yul\":7110:7113   */\n      dup4\n        /* \"#utility.yul\":7051:7118   */\n      tag_167\n      jump\t// in\n    tag_265:\n        /* \"#utility.yul\":7044:7118   */\n      swap2\n      pop\n        /* \"#utility.yul\":7127:7220   */\n      tag_266\n        /* \"#utility.yul\":7216:7219   */\n      dup3\n        /* \"#utility.yul\":7127:7220   */\n      tag_179\n      jump\t// in\n    tag_266:\n        /* \"#utility.yul\":7245:7247   */\n      0x40\n        /* \"#utility.yul\":7240:7243   */\n      dup3\n        /* \"#utility.yul\":7236:7248   */\n      add\n        /* \"#utility.yul\":7229:7248   */\n      swap1\n      pop\n        /* \"#utility.yul\":6888:7254   */\n      swap2\n      swap1\n      pop\n      jump\t// out\n        /* \"#utility.yul\":7260:7679   */\n    tag_124:\n        /* \"#utility.yul\":7426:7430   */\n      0x00\n        /* \"#utility.yul\":7464:7466   */\n      0x20\n        /* \"#utility.yul\":7453:7462   */\n      dup3\n        /* \"#utility.yul\":7449:7467   */\n      add\n        /* \"#utility.yul\":7441:7467   */\n      swap1\n      pop\n        /* \"#utility.yul\":7513:7522   */\n      dup2\n        /* \"#utility.yul\":7507:7511   */\n      dup2\n        /* \"#utility.yul\":7503:7523   */\n      sub\n        /* \"#utility.yul\":7499:7500   */\n      0x00\n        /* \"#utility.yul\":7488:7497   */\n      dup4\n        /* \"#utility.yul\":7484:7501   */\n      add\n        /* \"#utility.yul\":7477:7524   */\n      mstore\n        /* \"#utility.yul\":7541:7672   */\n      tag_268\n        /* \"#utility.yul\":7667:7671   */\n      dup2\n        /* \"#utility.yul\":7541:7672   */\n      tag_180\n      jump\t// in\n    tag_268:\n        /* \"#utility.yul\":7533:7672   */\n      swap1\n      pop\n        /* \"#utility.yul\":7260:7679   */\n      swap2\n      swap1\n      pop\n      jump\t// out\n        /* \"#utility.yul\":7685:7910   */\n    tag_181:\n        /* \"#utility.yul\":7825:7859   */\n      0x416464726573733a20696e73756666696369656e742062616c616e636520666f\n        /* \"#utility.yul\":7821:7822   */\n      0x00\n        /* \"#utility.yul\":7813:7819   */\n      dup3\n        /* \"#utility.yul\":7809:7823   */\n      add\n        /* \"#utility.yul\":7802:7860   */\n      mstore\n        /* \"#utility.yul\":7894:7902   */\n      0x722063616c6c0000000000000000000000000000000000000000000000000000\n        /* \"#utility.yul\":7889:7891   */\n      0x20\n        /* \"#utility.yul\":7881:7887   */\n      dup3\n        /* \"#utility.yul\":7877:7892   */\n      add\n        /* \"#utility.yul\":7870:7903   */\n      mstore\n        /* \"#utility.yul\":7685:7910   */\n      pop\n      jump\t// out\n        /* \"#utility.yul\":7916:8282   */\n    tag_182:\n        /* \"#utility.yul\":8058:8061   */\n      0x00\n        /* \"#utility.yul\":8079:8146   */\n      tag_271\n        /* \"#utility.yul\":8143:8145   */\n      0x26\n        /* \"#utility.yul\":8138:8141   */\n      dup4\n        /* \"#utility.yul\":8079:8146   */\n      tag_167\n      jump\t// in\n    tag_271:\n        /* \"#utility.yul\":8072:8146   */\n      swap2\n      pop\n        /* \"#utility.yul\":8155:8248   */\n      tag_272\n        /* \"#utility.yul\":8244:8247   */\n      dup3\n        /* \"#utility.yul\":8155:8248   */\n      tag_181\n      jump\t// in\n    tag_272:\n        /* \"#utility.yul\":8273:8275   */\n      0x40\n        /* \"#utility.yul\":8268:8271   */\n      dup3\n        /* \"#utility.yul\":8264:8276   */\n      add\n        /* \"#utility.yul\":8257:8276   */\n      swap1\n      pop\n        /* \"#utility.yul\":7916:8282   */\n      swap2\n      swap1\n      pop\n      jump\t// out\n        /* \"#utility.yul\":8288:8707   */\n    tag_131:\n        /* \"#utility.yul\":8454:8458   */\n      0x00\n        /* \"#utility.yul\":8492:8494   */\n      0x20\n        /* \"#utility.yul\":8481:8490   */\n      dup3\n        /* \"#utility.yul\":8477:8495   */\n      add\n        /* \"#utility.yul\":8469:8495   */\n      swap1\n      pop\n        /* \"#utility.yul\":8541:8550   */\n      dup2\n        /* \"#utility.yul\":8535:8539   */\n      dup2\n        /* \"#utility.yul\":8531:8551   */\n      sub\n        /* \"#utility.yul\":8527:8528   */\n      0x00\n        /* \"#utility.yul\":8516:8525   */\n      dup4\n        /* \"#utility.yul\":8512:8529   */\n      add\n        /* \"#utility.yul\":8505:8552   */\n      mstore\n        /* \"#utility.yul\":8569:8700   */\n      tag_274\n        /* \"#utility.yul\":8695:8699   */\n      dup2\n        /* \"#utility.yul\":8569:8700   */\n      tag_182\n      jump\t// in\n    tag_274:\n        /* \"#utility.yul\":8561:8700   */\n      swap1\n      pop\n        /* \"#utility.yul\":8288:8707   */\n      swap2\n      swap1\n      pop\n      jump\t// out\n        /* \"#utility.yul\":8713:8811   */\n    tag_183:\n        /* \"#utility.yul\":8764:8770   */\n      0x00\n        /* \"#utility.yul\":8798:8803   */\n      dup2\n        /* \"#utility.yul\":8792:8804   */\n      mload\n        /* \"#utility.yul\":8782:8804   */\n      swap1\n      pop\n        /* \"#utility.yul\":8713:8811   */\n      swap2\n      swap1\n      pop\n      jump\t// out\n        /* \"#utility.yul\":8817:8964   */\n    tag_184:\n        /* \"#utility.yul\":8918:8929   */\n      0x00\n        /* \"#utility.yul\":8955:8958   */\n      dup2\n        /* \"#utility.yul\":8940:8958   */\n      swap1\n      pop\n        /* \"#utility.yul\":8817:8964   */\n      swap3\n      swap2\n      pop\n      pop\n      jump\t// out\n        /* \"#utility.yul\":8970:9216   */\n    tag_185:\n        /* \"#utility.yul\":9051:9052   */\n      0x00\n        /* \"#utility.yul\":9061:9174   */\n    tag_278:\n        /* \"#utility.yul\":9075:9081   */\n      dup4\n        /* \"#utility.yul\":9072:9073   */\n      dup2\n        /* \"#utility.yul\":9069:9082   */\n      lt\n        /* \"#utility.yul\":9061:9174   */\n      iszero\n      tag_280\n      jumpi\n        /* \"#utility.yul\":9160:9161   */\n      dup1\n        /* \"#utility.yul\":9155:9158   */\n      dup3\n        /* \"#utility.yul\":9151:9162   */\n      add\n        /* \"#utility.yul\":9145:9163   */\n      mload\n        /* \"#utility.yul\":9141:9142   */\n      dup2\n        /* \"#utility.yul\":9136:9139   */\n      dup5\n        /* \"#utility.yul\":9132:9143   */\n      add\n        /* \"#utility.yul\":9125:9164   */\n      mstore\n        /* \"#utility.yul\":9097:9099   */\n      0x20\n        /* \"#utility.yul\":9094:9095   */\n      dup2\n        /* \"#utility.yul\":9090:9100   */\n      add\n        /* \"#utility.yul\":9085:9100   */\n      swap1\n      pop\n        /* \"#utility.yul\":9061:9174   */\n      jump(tag_278)\n    tag_280:\n        /* \"#utility.yul\":9208:9209   */\n      0x00\n        /* \"#utility.yul\":9199:9205   */\n      dup5\n        /* \"#utility.yul\":9194:9197   */\n      dup5\n        /* \"#utility.yul\":9190:9206   */\n      add\n        /* \"#utility.yul\":9183:9210   */\n      mstore\n        /* \"#utility.yul\":9032:9216   */\n      pop\n        /* \"#utility.yul\":8970:9216   */\n      pop\n      pop\n      pop\n      jump\t// out\n        /* \"#utility.yul\":9222:9608   */\n    tag_186:\n        /* \"#utility.yul\":9326:9329   */\n      0x00\n        /* \"#utility.yul\":9354:9392   */\n      tag_282\n        /* \"#utility.yul\":9386:9391   */\n      dup3\n        /* \"#utility.yul\":9354:9392   */\n      tag_183\n      jump\t// in\n    tag_282:\n        /* \"#utility.yul\":9408:9496   */\n      tag_283\n        /* \"#utility.yul\":9489:9495   */\n      dup2\n        /* \"#utility.yul\":9484:9487   */\n      dup6\n        /* \"#utility.yul\":9408:9496   */\n      tag_184\n      jump\t// in\n    tag_283:\n        /* \"#utility.yul\":9401:9496   */\n      swap4\n      pop\n        /* \"#utility.yul\":9505:9570   */\n      tag_284\n        /* \"#utility.yul\":9563:9569   */\n      dup2\n        /* \"#utility.yul\":9558:9561   */\n      dup6\n        /* \"#utility.yul\":9551:9555   */\n      0x20\n        /* \"#utility.yul\":9544:9549   */\n      dup7\n        /* \"#utility.yul\":9540:9556   */\n      add\n        /* \"#utility.yul\":9505:9570   */\n      tag_185\n      jump\t// in\n    tag_284:\n        /* \"#utility.yul\":9595:9601   */\n      dup1\n        /* \"#utility.yul\":9590:9593   */\n      dup5\n        /* \"#utility.yul\":9586:9602   */\n      add\n        /* \"#utility.yul\":9579:9602   */\n      swap2\n      pop\n        /* \"#utility.yul\":9330:9608   */\n      pop\n        /* \"#utility.yul\":9222:9608   */\n      swap3\n      swap2\n      pop\n      pop\n      jump\t// out\n        /* \"#utility.yul\":9614:9885   */\n    tag_133:\n        /* \"#utility.yul\":9744:9747   */\n      0x00\n        /* \"#utility.yul\":9766:9859   */\n      tag_286\n        /* \"#utility.yul\":9855:9858   */\n      dup3\n        /* \"#utility.yul\":9846:9852   */\n      dup5\n        /* \"#utility.yul\":9766:9859   */\n      tag_186\n      jump\t// in\n    tag_286:\n        /* \"#utility.yul\":9759:9859   */\n      swap2\n      pop\n        /* \"#utility.yul\":9876:9879   */\n      dup2\n        /* \"#utility.yul\":9869:9879   */\n      swap1\n      pop\n        /* \"#utility.yul\":9614:9885   */\n      swap3\n      swap2\n      pop\n      pop\n      jump\t// out\n        /* \"#utility.yul\":9891:10070   */\n    tag_187:\n        /* \"#utility.yul\":10031:10062   */\n      0x416464726573733a2063616c6c20746f206e6f6e2d636f6e7472616374000000\n        /* \"#utility.yul\":10027:10028   */\n      0x00\n        /* \"#utility.yul\":10019:10025   */\n      dup3\n        /* \"#utility.yul\":10015:10029   */\n      add\n        /* \"#utility.yul\":10008:10063   */\n      mstore\n        /* \"#utility.yul\":9891:10070   */\n      pop\n      jump\t// out\n        /* \"#utility.yul\":10076:10442   */\n    tag_188:\n        /* \"#utility.yul\":10218:10221   */\n      0x00\n        /* \"#utility.yul\":10239:10306   */\n      tag_289\n        /* \"#utility.yul\":10303:10305   */\n      0x1d\n        /* \"#utility.yul\":10298:10301   */\n      dup4\n        /* \"#utility.yul\":10239:10306   */\n      tag_167\n      jump\t// in\n    tag_289:\n        /* \"#utility.yul\":10232:10306   */\n      swap2\n      pop\n        /* \"#utility.yul\":10315:10408   */\n      tag_290\n        /* \"#utility.yul\":10404:10407   */\n      dup3\n        /* \"#utility.yul\":10315:10408   */\n      tag_187\n      jump\t// in\n    tag_290:\n        /* \"#utility.yul\":10433:10435   */\n      0x20\n        /* \"#utility.yul\":10428:10431   */\n      dup3\n        /* \"#utility.yul\":10424:10436   */\n      add\n        /* \"#utility.yul\":10417:10436   */\n      swap1\n      pop\n        /* \"#utility.yul\":10076:10442   */\n      swap2\n      swap1\n      pop\n      jump\t// out\n        /* \"#utility.yul\":10448:10867   */\n    tag_146:\n        /* \"#utility.yul\":10614:10618   */\n      0x00\n        /* \"#utility.yul\":10652:10654   */\n      0x20\n        /* \"#utility.yul\":10641:10650   */\n      dup3\n        /* \"#utility.yul\":10637:10655   */\n      add\n        /* \"#utility.yul\":10629:10655   */\n      swap1\n      pop\n        /* \"#utility.yul\":10701:10710   */\n      dup2\n        /* \"#utility.yul\":10695:10699   */\n      dup2\n        /* \"#utility.yul\":10691:10711   */\n      sub\n        /* \"#utility.yul\":10687:10688   */\n      0x00\n        /* \"#utility.yul\":10676:10685   */\n      dup4\n        /* \"#utility.yul\":10672:10689   */\n      add\n        /* \"#utility.yul\":10665:10712   */\n      mstore\n        /* \"#utility.yul\":10729:10860   */\n      tag_292\n        /* \"#utility.yul\":10855:10859   */\n      dup2\n        /* \"#utility.yul\":10729:10860   */\n      tag_188\n      jump\t// in\n    tag_292:\n        /* \"#utility.yul\":10721:10860   */\n      swap1\n      pop\n        /* \"#utility.yul\":10448:10867   */\n      swap2\n      swap1\n      pop\n      jump\t// out\n        /* \"#utility.yul\":10873:10972   */\n    tag_189:\n        /* \"#utility.yul\":10925:10931   */\n      0x00\n        /* \"#utility.yul\":10959:10964   */\n      dup2\n        /* \"#utility.yul\":10953:10965   */\n      mload\n        /* \"#utility.yul\":10943:10965   */\n      swap1\n      pop\n        /* \"#utility.yul\":10873:10972   */\n      swap2\n      swap1\n      pop\n      jump\t// out\n        /* \"#utility.yul\":10978:11080   */\n    tag_190:\n        /* \"#utility.yul\":11019:11025   */\n      0x00\n        /* \"#utility.yul\":11070:11072   */\n      0x1f\n        /* \"#utility.yul\":11066:11073   */\n      not\n        /* \"#utility.yul\":11061:11063   */\n      0x1f\n        /* \"#utility.yul\":11054:11059   */\n      dup4\n        /* \"#utility.yul\":11050:11064   */\n      add\n        /* \"#utility.yul\":11046:11074   */\n      and\n        /* \"#utility.yul\":11036:11074   */\n      swap1\n      pop\n        /* \"#utility.yul\":10978:11080   */\n      swap2\n      swap1\n      pop\n      jump\t// out\n        /* \"#utility.yul\":11086:11463   */\n    tag_191:\n        /* \"#utility.yul\":11174:11177   */\n      0x00\n        /* \"#utility.yul\":11202:11241   */\n      tag_296\n        /* \"#utility.yul\":11235:11240   */\n      dup3\n        /* \"#utility.yul\":11202:11241   */\n      tag_189\n      jump\t// in\n    tag_296:\n        /* \"#utility.yul\":11257:11328   */\n      tag_297\n        /* \"#utility.yul\":11321:11327   */\n      dup2\n        /* \"#utility.yul\":11316:11319   */\n      dup6\n        /* \"#utility.yul\":11257:11328   */\n      tag_167\n      jump\t// in\n    tag_297:\n        /* \"#utility.yul\":11250:11328   */\n      swap4\n      pop\n        /* \"#utility.yul\":11337:11402   */\n      tag_298\n        /* \"#utility.yul\":11395:11401   */\n      dup2\n        /* \"#utility.yul\":11390:11393   */\n      dup6\n        /* \"#utility.yul\":11383:11387   */\n      0x20\n        /* \"#utility.yul\":11376:11381   */\n      dup7\n        /* \"#utility.yul\":11372:11388   */\n      add\n        /* \"#utility.yul\":11337:11402   */\n      tag_185\n      jump\t// in\n    tag_298:\n        /* \"#utility.yul\":11427:11456   */\n      tag_299\n        /* \"#utility.yul\":11449:11455   */\n      dup2\n        /* \"#utility.yul\":11427:11456   */\n      tag_190\n      jump\t// in\n    tag_299:\n        /* \"#utility.yul\":11422:11425   */\n      dup5\n        /* \"#utility.yul\":11418:11457   */\n      add\n        /* \"#utility.yul\":11411:11457   */\n      swap2\n      pop\n        /* \"#utility.yul\":11178:11463   */\n      pop\n        /* \"#utility.yul\":11086:11463   */\n      swap3\n      swap2\n      pop\n      pop\n      jump\t// out\n        /* \"#utility.yul\":11469:11782   */\n    tag_155:\n        /* \"#utility.yul\":11582:11586   */\n      0x00\n        /* \"#utility.yul\":11620:11622   */\n      0x20\n        /* \"#utility.yul\":11609:11618   */\n      dup3\n        /* \"#utility.yul\":11605:11623   */\n      add\n        /* \"#utility.yul\":11597:11623   */\n      swap1\n      pop\n        /* \"#utility.yul\":11669:11678   */\n      dup2\n        /* \"#utility.yul\":11663:11667   */\n      dup2\n        /* \"#utility.yul\":11659:11679   */\n      sub\n        /* \"#utility.yul\":11655:11656   */\n      0x00\n        /* \"#utility.yul\":11644:11653   */\n      dup4\n        /* \"#utility.yul\":11640:11657   */\n      add\n        /* \"#utility.yul\":11633:11680   */\n      mstore\n        /* \"#utility.yul\":11697:11775   */\n      tag_301\n        /* \"#utility.yul\":11770:11774   */\n      dup2\n        /* \"#utility.yul\":11761:11767   */\n      dup5\n        /* \"#utility.yul\":11697:11775   */\n      tag_191\n      jump\t// in\n    tag_301:\n        /* \"#utility.yul\":11689:11775   */\n      swap1\n      pop\n        /* \"#utility.yul\":11469:11782   */\n      swap3\n      swap2\n      pop\n      pop\n      jump\t// out\n\n    auxdata: 0xa2646970667358221220f3dbc4363be54eac4fdd9944f064cab0f715fb80120ec8fb91c0f553ecc7e79a64736f6c63430008130033\n}\n",
				"bytecode": {
					"linkReferences": {},
					"object": "60a06040523480156200001157600080fd5b506040516200163e3803806200163e833981810160405281019062000037919062000209565b620000576200004b6200009a60201b60201c565b620000a260201b60201c565b60016002819055508073ffffffffffffffffffffffffffffffffffffffff1660808173ffffffffffffffffffffffffffffffffffffffff1681525050506200023b565b600033905090565b600160006101000a81549073ffffffffffffffffffffffffffffffffffffffff0219169055620000d881620000db60201b60201c565b50565b60008060009054906101000a900473ffffffffffffffffffffffffffffffffffffffff169050816000806101000a81548173ffffffffffffffffffffffffffffffffffffffff021916908373ffffffffffffffffffffffffffffffffffffffff1602179055508173ffffffffffffffffffffffffffffffffffffffff168173ffffffffffffffffffffffffffffffffffffffff167f8be0079c531659141344cd1fd0a4f28419497f9722a3daafe3b4186f6b6457e060405160405180910390a35050565b600080fd5b600073ffffffffffffffffffffffffffffffffffffffff82169050919050565b6000620001d182620001a4565b9050919050565b620001e381620001c4565b8114620001ef57600080fd5b50565b6000815190506200020381620001d8565b92915050565b6000602082840312156200022257620002216200019f565b5b60006200023284828501620001f2565b91505092915050565b6080516113cb62000273600039600081816106910152818161073a01528181610793015281816107eb015261088a01526113cb6000f3fe608060405234801561001057600080fd5b506004361061009e5760003560e01c80639752b3b2116100665780639752b3b21461010d578063e30c397814610129578063e7fcd45d14610147578063f2fde38b14610163578063f61510891461017f5761009e565b80631f068108146100a3578063715018a6146100bf57806379ba5097146100c95780638da5cb5b146100d35780638f88f261146100f1575b600080fd5b6100bd60048036038101906100b89190610dfe565b610189565b005b6100c761027e565b005b6100d1610292565b005b6100db61031f565b6040516100e89190610e3a565b60405180910390f35b61010b60048036038101906101069190610dfe565b610348565b005b61012760048036038101906101229190610dfe565b61043d565b005b610131610532565b60405161013e9190610e3a565b60405180910390f35b610161600480360381019061015c9190610e8b565b61055c565b005b61017d60048036038101906101789190610dfe565b6105d5565b005b610187610682565b005b610191610905565b600073ffffffffffffffffffffffffffffffffffffffff168173ffffffffffffffffffffffffffffffffffffffff16036101f7576040517f842090f100000000000000000000000000000000000000000000000000000000815260040160405180910390fd5b80600460006101000a81548173ffffffffffffffffffffffffffffffffffffffff021916908373ffffffffffffffffffffffffffffffffffffffff1602179055508073ffffffffffffffffffffffffffffffffffffffff167f0cd19529020fd81d84beeae5290e80cef2820b494e9aedf821b3c45b8110d7df60405160405180910390a250565b610286610905565b6102906000610983565b565b600061029c6109b4565b90508073ffffffffffffffffffffffffffffffffffffffff166102bd610532565b73ffffffffffffffffffffffffffffffffffffffff1614610313576040517f08c379a000000000000000000000000000000000000000000000000000000000815260040161030a90610f3b565b60405180910390fd5b61031c81610983565b50565b60008060009054906101000a900473ffffffffffffffffffffffffffffffffffffffff16905090565b610350610905565b600073ffffffffffffffffffffffffffffffffffffffff168173ffffffffffffffffffffffffffffffffffffffff16036103b6576040517f842090f100000000000000000000000000000000000000000000000000000000815260040160405180910390fd5b80600560006101000a81548173ffffffffffffffffffffffffffffffffffffffff021916908373ffffffffffffffffffffffffffffffffffffffff1602179055508073ffffffffffffffffffffffffffffffffffffffff167f203661c8635f7afb5f15d76e6b159110290d075ad62b4ee9ff9a7ab94187d4bd60405160405180910390a250565b610445610905565b600073ffffffffffffffffffffffffffffffffffffffff168173ffffffffffffffffffffffffffffffffffffffff16036104ab576040517f842090f100000000000000000000000000000000000000000000000000000000815260040160405180910390fd5b80600360006101000a81548173ffffffffffffffffffffffffffffffffffffffff021916908373ffffffffffffffffffffffffffffffffffffffff1602179055508073ffffffffffffffffffffffffffffffffffffffff167f170b0500ccf8a13146ecd9838c59849129b54beda77dadbe500b8817cdc8d36860405160405180910390a250565b6000600160009054906101000a900473ffffffffffffffffffffffffffffffffffffffff16905090565b610564610905565b6000810361059e576040517fc830261600000000000000000000000000000000000000000000000000000000815260040160405180910390fd5b80600681905550807f3d5a337607048974766ec58e2109261b4871329988d9615e7051bae635c38a6060405160405180910390a250565b6105dd610905565b80600160006101000a81548173ffffffffffffffffffffffffffffffffffffffff021916908373ffffffffffffffffffffffffffffffffffffffff1602179055508073ffffffffffffffffffffffffffffffffffffffff1661063d61031f565b73ffffffffffffffffffffffffffffffffffffffff167f38d16b8cac22d99fc7c124b9cd0de2d3fa1faef420bfe791d8c362d765e2270060405160405180910390a350565b61068a610905565b60006006547f000000000000000000000000000000000000000000000000000000000000000073ffffffffffffffffffffffffffffffffffffffff166370a08231306040518263ffffffff1660e01b81526004016106e89190610e3a565b602060405180830381865afa158015610705573d6000803e3d6000fd5b505050506040513d601f19601f820116820180604052508101906107299190610f70565b6107339190610fcc565b905061078e7f0000000000000000000000000000000000000000000000000000000000000000600560009054906101000a900473ffffffffffffffffffffffffffffffffffffffff166002846107899190610fcc565b6109bc565b6107e77f0000000000000000000000000000000000000000000000000000000000000000600460009054906101000a900473ffffffffffffffffffffffffffffffffffffffff166002846107e29190610fcc565b6109bc565b60007f000000000000000000000000000000000000000000000000000000000000000073ffffffffffffffffffffffffffffffffffffffff166370a08231306040518263ffffffff1660e01b81526004016108429190610e3a565b602060405180830381865afa15801561085f573d6000803e3d6000fd5b505050506040513d601f19601f820116820180604052508101906108839190610f70565b90506108d27f0000000000000000000000000000000000000000000000000000000000000000600360009054906101000a900473ffffffffffffffffffffffffffffffffffffffff16836109bc565b8082427f50efd2f2f250964da5961d710f9e330ea396faec8ef1e3dad48ff354a629d38260405160405180910390a45050565b61090d6109b4565b73ffffffffffffffffffffffffffffffffffffffff1661092b61031f565b73ffffffffffffffffffffffffffffffffffffffff1614610981576040517f08c379a000000000000000000000000000000000000000000000000000000000815260040161097890611049565b60405180910390fd5b565b600160006101000a81549073ffffffffffffffffffffffffffffffffffffffff02191690556109b181610a42565b50565b600033905090565b610a3d8363a9059cbb60e01b84846040516024016109db929190611078565b604051602081830303815290604052907bffffffffffffffffffffffffffffffffffffffffffffffffffffffff19166020820180517bffffffffffffffffffffffffffffffffffffffffffffffffffffffff8381831617835250505050610b06565b505050565b60008060009054906101000a900473ffffffffffffffffffffffffffffffffffffffff169050816000806101000a81548173ffffffffffffffffffffffffffffffffffffffff021916908373ffffffffffffffffffffffffffffffffffffffff1602179055508173ffffffffffffffffffffffffffffffffffffffff168173ffffffffffffffffffffffffffffffffffffffff167f8be0079c531659141344cd1fd0a4f28419497f9722a3daafe3b4186f6b6457e060405160405180910390a35050565b6000610b68826040518060400160405280602081526020017f5361666545524332303a206c6f772d6c6576656c2063616c6c206661696c65648152508573ffffffffffffffffffffffffffffffffffffffff16610bce9092919063ffffffff16565b9050600081511480610b8a575080806020019051810190610b8991906110d9565b5b610bc9576040517f08c379a0000000000000000000000000000000000000000000000000000000008152600401610bc090611178565b60405180910390fd5b505050565b6060610bdd8484600085610be6565b90509392505050565b606082471015610c2b576040517f08c379a0000000000000000000000000000000000000000000000000000000008152600401610c229061120a565b60405180910390fd5b6000808673ffffffffffffffffffffffffffffffffffffffff168587604051610c54919061129b565b60006040518083038185875af1925050503d8060008114610c91576040519150601f19603f3d011682016040523d82523d6000602084013e610c96565b606091505b5091509150610ca787838387610cb3565b92505050949350505050565b60608315610d15576000835103610d0d57610ccd85610d28565b610d0c576040517f08c379a0000000000000000000000000000000000000000000000000000000008152600401610d03906112fe565b60405180910390fd5b5b829050610d20565b610d1f8383610d4b565b5b949350505050565b6000808273ffffffffffffffffffffffffffffffffffffffff163b119050919050565b600082511115610d5e5781518083602001fd5b806040517f08c379a0000000000000000000000000000000000000000000000000000000008152600401610d929190611373565b60405180910390fd5b600080fd5b600073ffffffffffffffffffffffffffffffffffffffff82169050919050565b6000610dcb82610da0565b9050919050565b610ddb81610dc0565b8114610de657600080fd5b50565b600081359050610df881610dd2565b92915050565b600060208284031215610e1457610e13610d9b565b5b6000610e2284828501610de9565b91505092915050565b610e3481610dc0565b82525050565b6000602082019050610e4f6000830184610e2b565b92915050565b6000819050919050565b610e6881610e55565b8114610e7357600080fd5b50565b600081359050610e8581610e5f565b92915050565b600060208284031215610ea157610ea0610d9b565b5b6000610eaf84828501610e76565b91505092915050565b600082825260208201905092915050565b7f4f776e61626c6532537465703a2063616c6c6572206973206e6f74207468652060008201527f6e6577206f776e65720000000000000000000000000000000000000000000000602082015250565b6000610f25602983610eb8565b9150610f3082610ec9565b604082019050919050565b60006020820190508181036000830152610f5481610f18565b9050919050565b600081519050610f6a81610e5f565b92915050565b600060208284031215610f8657610f85610d9b565b5b6000610f9484828501610f5b565b91505092915050565b7f4e487b7100000000000000000000000000000000000000000000000000000000600052601260045260246000fd5b6000610fd782610e55565b9150610fe283610e55565b925082610ff257610ff1610f9d565b5b828204905092915050565b7f4f776e61626c653a2063616c6c6572206973206e6f7420746865206f776e6572600082015250565b6000611033602083610eb8565b915061103e82610ffd565b602082019050919050565b6000602082019050818103600083015261106281611026565b9050919050565b61107281610e55565b82525050565b600060408201905061108d6000830185610e2b565b61109a6020830184611069565b9392505050565b60008115159050919050565b6110b6816110a1565b81146110c157600080fd5b50565b6000815190506110d3816110ad565b92915050565b6000602082840312156110ef576110ee610d9b565b5b60006110fd848285016110c4565b91505092915050565b7f5361666545524332303a204552433230206f7065726174696f6e20646964206e60008201527f6f74207375636365656400000000000000000000000000000000000000000000602082015250565b6000611162602a83610eb8565b915061116d82611106565b604082019050919050565b6000602082019050818103600083015261119181611155565b9050919050565b7f416464726573733a20696e73756666696369656e742062616c616e636520666f60008201527f722063616c6c0000000000000000000000000000000000000000000000000000602082015250565b60006111f4602683610eb8565b91506111ff82611198565b604082019050919050565b60006020820190508181036000830152611223816111e7565b9050919050565b600081519050919050565b600081905092915050565b60005b8381101561125e578082015181840152602081019050611243565b60008484015250505050565b60006112758261122a565b61127f8185611235565b935061128f818560208601611240565b80840191505092915050565b60006112a7828461126a565b915081905092915050565b7f416464726573733a2063616c6c20746f206e6f6e2d636f6e7472616374000000600082015250565b60006112e8601d83610eb8565b91506112f3826112b2565b602082019050919050565b60006020820190508181036000830152611317816112db565b9050919050565b600081519050919050565b6000601f19601f8301169050919050565b60006113458261131e565b61134f8185610eb8565b935061135f818560208601611240565b61136881611329565b840191505092915050565b6000602082019050818103600083015261138d818461133a565b90509291505056fea2646970667358221220f3dbc4363be54eac4fdd9944f064cab0f715fb80120ec8fb91c0f553ecc7e79a64736f6c63430008130033",
					"opcodes": "PUSH1 0xA0 PUSH1 0x40 MSTORE CALLVALUE DUP1 ISZERO PUSH3 0x11 JUMPI PUSH1 0x0 DUP1 REVERT JUMPDEST POP PUSH1 0x40 MLOAD PUSH3 0x163E CODESIZE SUB DUP1 PUSH3 0x163E DUP4 CODECOPY DUP2 DUP2 ADD PUSH1 0x40 MSTORE DUP2 ADD SWAP1 PUSH3 0x37 SWAP2 SWAP1 PUSH3 0x209 JUMP JUMPDEST PUSH3 0x57 PUSH3 0x4B PUSH3 0x9A PUSH1 0x20 SHL PUSH1 0x20 SHR JUMP JUMPDEST PUSH3 0xA2 PUSH1 0x20 SHL PUSH1 0x20 SHR JUMP JUMPDEST PUSH1 0x1 PUSH1 0x2 DUP2 SWAP1 SSTORE POP DUP1 PUSH20 0xFFFFFFFFFFFFFFFFFFFFFFFFFFFFFFFFFFFFFFFF AND PUSH1 0x80 DUP2 PUSH20 0xFFFFFFFFFFFFFFFFFFFFFFFFFFFFFFFFFFFFFFFF AND DUP2 MSTORE POP POP POP PUSH3 0x23B JUMP JUMPDEST PUSH1 0x0 CALLER SWAP1 POP SWAP1 JUMP JUMPDEST PUSH1 0x1 PUSH1 0x0 PUSH2 0x100 EXP DUP2 SLOAD SWAP1 PUSH20 0xFFFFFFFFFFFFFFFFFFFFFFFFFFFFFFFFFFFFFFFF MUL NOT AND SWAP1 SSTORE PUSH3 0xD8 DUP2 PUSH3 0xDB PUSH1 0x20 SHL PUSH1 0x20 SHR JUMP JUMPDEST POP JUMP JUMPDEST PUSH1 0x0 DUP1 PUSH1 0x0 SWAP1 SLOAD SWAP1 PUSH2 0x100 EXP SWAP1 DIV PUSH20 0xFFFFFFFFFFFFFFFFFFFFFFFFFFFFFFFFFFFFFFFF AND SWAP1 POP DUP2 PUSH1 0x0 DUP1 PUSH2 0x100 EXP DUP2 SLOAD DUP2 PUSH20 0xFFFFFFFFFFFFFFFFFFFFFFFFFFFFFFFFFFFFFFFF MUL NOT AND SWAP1 DUP4 PUSH20 0xFFFFFFFFFFFFFFFFFFFFFFFFFFFFFFFFFFFFFFFF AND MUL OR SWAP1 SSTORE POP DUP2 PUSH20 0xFFFFFFFFFFFFFFFFFFFFFFFFFFFFFFFFFFFFFFFF AND DUP2 PUSH20 0xFFFFFFFFFFFFFFFFFFFFFFFFFFFFFFFFFFFFFFFF AND PUSH32 0x8BE0079C531659141344CD1FD0A4F28419497F9722A3DAAFE3B4186F6B6457E0 PUSH1 0x40 MLOAD PUSH1 0x40 MLOAD DUP1 SWAP2 SUB SWAP1 LOG3 POP POP JUMP JUMPDEST PUSH1 0x0 DUP1 REVERT JUMPDEST PUSH1 0x0 PUSH20 0xFFFFFFFFFFFFFFFFFFFFFFFFFFFFFFFFFFFFFFFF DUP3 AND SWAP1 POP SWAP2 SWAP1 POP JUMP JUMPDEST PUSH1 0x0 PUSH3 0x1D1 DUP3 PUSH3 0x1A4 JUMP JUMPDEST SWAP1 POP SWAP2 SWAP1 POP JUMP JUMPDEST PUSH3 0x1E3 DUP2 PUSH3 0x1C4 JUMP JUMPDEST DUP2 EQ PUSH3 0x1EF JUMPI PUSH1 0x0 DUP1 REVERT JUMPDEST POP JUMP JUMPDEST PUSH1 0x0 DUP2 MLOAD SWAP1 POP PUSH3 0x203 DUP2 PUSH3 0x1D8 JUMP JUMPDEST SWAP3 SWAP2 POP POP JUMP JUMPDEST PUSH1 0x0 PUSH1 0x20 DUP3 DUP5 SUB SLT ISZERO PUSH3 0x222 JUMPI PUSH3 0x221 PUSH3 0x19F JUMP JUMPDEST JUMPDEST PUSH1 0x0 PUSH3 0x232 DUP5 DUP3 DUP6 ADD PUSH3 0x1F2 JUMP JUMPDEST SWAP2 POP POP SWAP3 SWAP2 POP POP JUMP JUMPDEST PUSH1 0x80 MLOAD PUSH2 0x13CB PUSH3 0x273 PUSH1 0x0 CODECOPY PUSH1 0x0 DUP2 DUP2 PUSH2 0x691 ADD MSTORE DUP2 DUP2 PUSH2 0x73A ADD MSTORE DUP2 DUP2 PUSH2 0x793 ADD MSTORE DUP2 DUP2 PUSH2 0x7EB ADD MSTORE PUSH2 0x88A ADD MSTORE PUSH2 0x13CB PUSH1 0x0 RETURN INVALID PUSH1 0x80 PUSH1 0x40 MSTORE CALLVALUE DUP1 ISZERO PUSH2 0x10 JUMPI PUSH1 0x0 DUP1 REVERT JUMPDEST POP PUSH1 0x4 CALLDATASIZE LT PUSH2 0x9E JUMPI PUSH1 0x0 CALLDATALOAD PUSH1 0xE0 SHR DUP1 PUSH4 0x9752B3B2 GT PUSH2 0x66 JUMPI DUP1 PUSH4 0x9752B3B2 EQ PUSH2 0x10D JUMPI DUP1 PUSH4 0xE30C3978 EQ PUSH2 0x129 JUMPI DUP1 PUSH4 0xE7FCD45D EQ PUSH2 0x147 JUMPI DUP1 PUSH4 0xF2FDE38B EQ PUSH2 0x163 JUMPI DUP1 PUSH4 0xF6151089 EQ PUSH2 0x17F JUMPI PUSH2 0x9E JUMP JUMPDEST DUP1 PUSH4 0x1F068108 EQ PUSH2 0xA3 JUMPI DUP1 PUSH4 0x715018A6 EQ PUSH2 0xBF JUMPI DUP1 PUSH4 0x79BA5097 EQ PUSH2 0xC9 JUMPI DUP1 PUSH4 0x8DA5CB5B EQ PUSH2 0xD3 JUMPI DUP1 PUSH4 0x8F88F261 EQ PUSH2 0xF1 JUMPI JUMPDEST PUSH1 0x0 DUP1 REVERT JUMPDEST PUSH2 0xBD PUSH1 0x4 DUP1 CALLDATASIZE SUB DUP2 ADD SWAP1 PUSH2 0xB8 SWAP2 SWAP1 PUSH2 0xDFE JUMP JUMPDEST PUSH2 0x189 JUMP JUMPDEST STOP JUMPDEST PUSH2 0xC7 PUSH2 0x27E JUMP JUMPDEST STOP JUMPDEST PUSH2 0xD1 PUSH2 0x292 JUMP JUMPDEST STOP JUMPDEST PUSH2 0xDB PUSH2 0x31F JUMP JUMPDEST PUSH1 0x40 MLOAD PUSH2 0xE8 SWAP2 SWAP1 PUSH2 0xE3A JUMP JUMPDEST PUSH1 0x40 MLOAD DUP1 SWAP2 SUB SWAP1 RETURN JUMPDEST PUSH2 0x10B PUSH1 0x4 DUP1 CALLDATASIZE SUB DUP2 ADD SWAP1 PUSH2 0x106 SWAP2 SWAP1 PUSH2 0xDFE JUMP JUMPDEST PUSH2 0x348 JUMP JUMPDEST STOP JUMPDEST PUSH2 0x127 PUSH1 0x4 DUP1 CALLDATASIZE SUB DUP2 ADD SWAP1 PUSH2 0x122 SWAP2 SWAP1 PUSH2 0xDFE JUMP JUMPDEST PUSH2 0x43D JUMP JUMPDEST STOP JUMPDEST PUSH2 0x131 PUSH2 0x532 JUMP JUMPDEST PUSH1 0x40 MLOAD PUSH2 0x13E SWAP2 SWAP1 PUSH2 0xE3A JUMP JUMPDEST PUSH1 0x40 MLOAD DUP1 SWAP2 SUB SWAP1 RETURN JUMPDEST PUSH2 0x161 PUSH1 0x4 DUP1 CALLDATASIZE SUB DUP2 ADD SWAP1 PUSH2 0x15C SWAP2 SWAP1 PUSH2 0xE8B JUMP JUMPDEST PUSH2 0x55C JUMP JUMPDEST STOP JUMPDEST PUSH2 0x17D PUSH1 0x4 DUP1 CALLDATASIZE SUB DUP2 ADD SWAP1 PUSH2 0x178 SWAP2 SWAP1 PUSH2 0xDFE JUMP JUMPDEST PUSH2 0x5D5 JUMP JUMPDEST STOP JUMPDEST PUSH2 0x187 PUSH2 0x682 JUMP JUMPDEST STOP JUMPDEST PUSH2 0x191 PUSH2 0x905 JUMP JUMPDEST PUSH1 0x0 PUSH20 0xFFFFFFFFFFFFFFFFFFFFFFFFFFFFFFFFFFFFFFFF AND DUP2 PUSH20 0xFFFFFFFFFFFFFFFFFFFFFFFFFFFFFFFFFFFFFFFF AND SUB PUSH2 0x1F7 JUMPI PUSH1 0x40 MLOAD PUSH32 0x842090F100000000000000000000000000000000000000000000000000000000 DUP2 MSTORE PUSH1 0x4 ADD PUSH1 0x40 MLOAD DUP1 SWAP2 SUB SWAP1 REVERT JUMPDEST DUP1 PUSH1 0x4 PUSH1 0x0 PUSH2 0x100 EXP DUP2 SLOAD DUP2 PUSH20 0xFFFFFFFFFFFFFFFFFFFFFFFFFFFFFFFFFFFFFFFF MUL NOT AND SWAP1 DUP4 PUSH20 0xFFFFFFFFFFFFFFFFFFFFFFFFFFFFFFFFFFFFFFFF AND MUL OR SWAP1 SSTORE POP DUP1 PUSH20 0xFFFFFFFFFFFFFFFFFFFFFFFFFFFFFFFFFFFFFFFF AND PUSH32 0xCD19529020FD81D84BEEAE5290E80CEF2820B494E9AEDF821B3C45B8110D7DF PUSH1 0x40 MLOAD PUSH1 0x40 MLOAD DUP1 SWAP2 SUB SWAP1 LOG2 POP JUMP JUMPDEST PUSH2 0x286 PUSH2 0x905 JUMP JUMPDEST PUSH2 0x290 PUSH1 0x0 PUSH2 0x983 JUMP JUMPDEST JUMP JUMPDEST PUSH1 0x0 PUSH2 0x29C PUSH2 0x9B4 JUMP JUMPDEST SWAP1 POP DUP1 PUSH20 0xFFFFFFFFFFFFFFFFFFFFFFFFFFFFFFFFFFFFFFFF AND PUSH2 0x2BD PUSH2 0x532 JUMP JUMPDEST PUSH20 0xFFFFFFFFFFFFFFFFFFFFFFFFFFFFFFFFFFFFFFFF AND EQ PUSH2 0x313 JUMPI PUSH1 0x40 MLOAD PUSH32 0x8C379A000000000000000000000000000000000000000000000000000000000 DUP2 MSTORE PUSH1 0x4 ADD PUSH2 0x30A SWAP1 PUSH2 0xF3B JUMP JUMPDEST PUSH1 0x40 MLOAD DUP1 SWAP2 SUB SWAP1 REVERT JUMPDEST PUSH2 0x31C DUP2 PUSH2 0x983 JUMP JUMPDEST POP JUMP JUMPDEST PUSH1 0x0 DUP1 PUSH1 0x0 SWAP1 SLOAD SWAP1 PUSH2 0x100 EXP SWAP1 DIV PUSH20 0xFFFFFFFFFFFFFFFFFFFFFFFFFFFFFFFFFFFFFFFF AND SWAP1 POP SWAP1 JUMP JUMPDEST PUSH2 0x350 PUSH2 0x905 JUMP JUMPDEST PUSH1 0x0 PUSH20 0xFFFFFFFFFFFFFFFFFFFFFFFFFFFFFFFFFFFFFFFF AND DUP2 PUSH20 0xFFFFFFFFFFFFFFFFFFFFFFFFFFFFFFFFFFFFFFFF AND SUB PUSH2 0x3B6 JUMPI PUSH1 0x40 MLOAD PUSH32 0x842090F100000000000000000000000000000000000000000000000000000000 DUP2 MSTORE PUSH1 0x4 ADD PUSH1 0x40 MLOAD DUP1 SWAP2 SUB SWAP1 REVERT JUMPDEST DUP1 PUSH1 0x5 PUSH1 0x0 PUSH2 0x100 EXP DUP2 SLOAD DUP2 PUSH20 0xFFFFFFFFFFFFFFFFFFFFFFFFFFFFFFFFFFFFFFFF MUL NOT AND SWAP1 DUP4 PUSH20 0xFFFFFFFFFFFFFFFFFFFFFFFFFFFFFFFFFFFFFFFF AND MUL OR SWAP1 SSTORE POP DUP1 PUSH20 0xFFFFFFFFFFFFFFFFFFFFFFFFFFFFFFFFFFFFFFFF AND PUSH32 0x203661C8635F7AFB5F15D76E6B159110290D075AD62B4EE9FF9A7AB94187D4BD PUSH1 0x40 MLOAD PUSH1 0x40 MLOAD DUP1 SWAP2 SUB SWAP1 LOG2 POP JUMP JUMPDEST PUSH2 0x445 PUSH2 0x905 JUMP JUMPDEST PUSH1 0x0 PUSH20 0xFFFFFFFFFFFFFFFFFFFFFFFFFFFFFFFFFFFFFFFF AND DUP2 PUSH20 0xFFFFFFFFFFFFFFFFFFFFFFFFFFFFFFFFFFFFFFFF AND SUB PUSH2 0x4AB JUMPI PUSH1 0x40 MLOAD PUSH32 0x842090F100000000000000000000000000000000000000000000000000000000 DUP2 MSTORE PUSH1 0x4 ADD PUSH1 0x40 MLOAD DUP1 SWAP2 SUB SWAP1 REVERT JUMPDEST DUP1 PUSH1 0x3 PUSH1 0x0 PUSH2 0x100 EXP DUP2 SLOAD DUP2 PUSH20 0xFFFFFFFFFFFFFFFFFFFFFFFFFFFFFFFFFFFFFFFF MUL NOT AND SWAP1 DUP4 PUSH20 0xFFFFFFFFFFFFFFFFFFFFFFFFFFFFFFFFFFFFFFFF AND MUL OR SWAP1 SSTORE POP DUP1 PUSH20 0xFFFFFFFFFFFFFFFFFFFFFFFFFFFFFFFFFFFFFFFF AND PUSH32 0x170B0500CCF8A13146ECD9838C59849129B54BEDA77DADBE500B8817CDC8D368 PUSH1 0x40 MLOAD PUSH1 0x40 MLOAD DUP1 SWAP2 SUB SWAP1 LOG2 POP JUMP JUMPDEST PUSH1 0x0 PUSH1 0x1 PUSH1 0x0 SWAP1 SLOAD SWAP1 PUSH2 0x100 EXP SWAP1 DIV PUSH20 0xFFFFFFFFFFFFFFFFFFFFFFFFFFFFFFFFFFFFFFFF AND SWAP1 POP SWAP1 JUMP JUMPDEST PUSH2 0x564 PUSH2 0x905 JUMP JUMPDEST PUSH1 0x0 DUP2 SUB PUSH2 0x59E JUMPI PUSH1 0x40 MLOAD PUSH32 0xC830261600000000000000000000000000000000000000000000000000000000 DUP2 MSTORE PUSH1 0x4 ADD PUSH1 0x40 MLOAD DUP1 SWAP2 SUB SWAP1 REVERT JUMPDEST DUP1 PUSH1 0x6 DUP2 SWAP1 SSTORE POP DUP1 PUSH32 0x3D5A337607048974766EC58E2109261B4871329988D9615E7051BAE635C38A60 PUSH1 0x40 MLOAD PUSH1 0x40 MLOAD DUP1 SWAP2 SUB SWAP1 LOG2 POP JUMP JUMPDEST PUSH2 0x5DD PUSH2 0x905 JUMP JUMPDEST DUP1 PUSH1 0x1 PUSH1 0x0 PUSH2 0x100 EXP DUP2 SLOAD DUP2 PUSH20 0xFFFFFFFFFFFFFFFFFFFFFFFFFFFFFFFFFFFFFFFF MUL NOT AND SWAP1 DUP4 PUSH20 0xFFFFFFFFFFFFFFFFFFFFFFFFFFFFFFFFFFFFFFFF AND MUL OR SWAP1 SSTORE POP DUP1 PUSH20 0xFFFFFFFFFFFFFFFFFFFFFFFFFFFFFFFFFFFFFFFF AND PUSH2 0x63D PUSH2 0x31F JUMP JUMPDEST PUSH20 0xFFFFFFFFFFFFFFFFFFFFFFFFFFFFFFFFFFFFFFFF AND PUSH32 0x38D16B8CAC22D99FC7C124B9CD0DE2D3FA1FAEF420BFE791D8C362D765E22700 PUSH1 0x40 MLOAD PUSH1 0x40 MLOAD DUP1 SWAP2 SUB SWAP1 LOG3 POP JUMP JUMPDEST PUSH2 0x68A PUSH2 0x905 JUMP JUMPDEST PUSH1 0x0 PUSH1 0x6 SLOAD PUSH32 0x0 PUSH20 0xFFFFFFFFFFFFFFFFFFFFFFFFFFFFFFFFFFFFFFFF AND PUSH4 0x70A08231 ADDRESS PUSH1 0x40 MLOAD DUP3 PUSH4 0xFFFFFFFF AND PUSH1 0xE0 SHL DUP2 MSTORE PUSH1 0x4 ADD PUSH2 0x6E8 SWAP2 SWAP1 PUSH2 0xE3A JUMP JUMPDEST PUSH1 0x20 PUSH1 0x40 MLOAD DUP1 DUP4 SUB DUP2 DUP7 GAS STATICCALL ISZERO DUP1 ISZERO PUSH2 0x705 JUMPI RETURNDATASIZE PUSH1 0x0 DUP1 RETURNDATACOPY RETURNDATASIZE PUSH1 0x0 REVERT JUMPDEST POP POP POP POP PUSH1 0x40 MLOAD RETURNDATASIZE PUSH1 0x1F NOT PUSH1 0x1F DUP3 ADD AND DUP3 ADD DUP1 PUSH1 0x40 MSTORE POP DUP2 ADD SWAP1 PUSH2 0x729 SWAP2 SWAP1 PUSH2 0xF70 JUMP JUMPDEST PUSH2 0x733 SWAP2 SWAP1 PUSH2 0xFCC JUMP JUMPDEST SWAP1 POP PUSH2 0x78E PUSH32 0x0 PUSH1 0x5 PUSH1 0x0 SWAP1 SLOAD SWAP1 PUSH2 0x100 EXP SWAP1 DIV PUSH20 0xFFFFFFFFFFFFFFFFFFFFFFFFFFFFFFFFFFFFFFFF AND PUSH1 0x2 DUP5 PUSH2 0x789 SWAP2 SWAP1 PUSH2 0xFCC JUMP JUMPDEST PUSH2 0x9BC JUMP JUMPDEST PUSH2 0x7E7 PUSH32 0x0 PUSH1 0x4 PUSH1 0x0 SWAP1 SLOAD SWAP1 PUSH2 0x100 EXP SWAP1 DIV PUSH20 0xFFFFFFFFFFFFFFFFFFFFFFFFFFFFFFFFFFFFFFFF AND PUSH1 0x2 DUP5 PUSH2 0x7E2 SWAP2 SWAP1 PUSH2 0xFCC JUMP JUMPDEST PUSH2 0x9BC JUMP JUMPDEST PUSH1 0x0 PUSH32 0x0 PUSH20 0xFFFFFFFFFFFFFFFFFFFFFFFFFFFFFFFFFFFFFFFF AND PUSH4 0x70A08231 ADDRESS PUSH1 0x40 MLOAD DUP3 PUSH4 0xFFFFFFFF AND PUSH1 0xE0 SHL DUP2 MSTORE PUSH1 0x4 ADD PUSH2 0x842 SWAP2 SWAP1 PUSH2 0xE3A JUMP JUMPDEST PUSH1 0x20 PUSH1 0x40 MLOAD DUP1 DUP4 SUB DUP2 DUP7 GAS STATICCALL ISZERO DUP1 ISZERO PUSH2 0x85F JUMPI RETURNDATASIZE PUSH1 0x0 DUP1 RETURNDATACOPY RETURNDATASIZE PUSH1 0x0 REVERT JUMPDEST POP POP POP POP PUSH1 0x40 MLOAD RETURNDATASIZE PUSH1 0x1F NOT PUSH1 0x1F DUP3 ADD AND DUP3 ADD DUP1 PUSH1 0x40 MSTORE POP DUP2 ADD SWAP1 PUSH2 0x883 SWAP2 SWAP1 PUSH2 0xF70 JUMP JUMPDEST SWAP1 POP PUSH2 0x8D2 PUSH32 0x0 PUSH1 0x3 PUSH1 0x0 SWAP1 SLOAD SWAP1 PUSH2 0x100 EXP SWAP1 DIV PUSH20 0xFFFFFFFFFFFFFFFFFFFFFFFFFFFFFFFFFFFFFFFF AND DUP4 PUSH2 0x9BC JUMP JUMPDEST DUP1 DUP3 TIMESTAMP PUSH32 0x50EFD2F2F250964DA5961D710F9E330EA396FAEC8EF1E3DAD48FF354A629D382 PUSH1 0x40 MLOAD PUSH1 0x40 MLOAD DUP1 SWAP2 SUB SWAP1 LOG4 POP POP JUMP JUMPDEST PUSH2 0x90D PUSH2 0x9B4 JUMP JUMPDEST PUSH20 0xFFFFFFFFFFFFFFFFFFFFFFFFFFFFFFFFFFFFFFFF AND PUSH2 0x92B PUSH2 0x31F JUMP JUMPDEST PUSH20 0xFFFFFFFFFFFFFFFFFFFFFFFFFFFFFFFFFFFFFFFF AND EQ PUSH2 0x981 JUMPI PUSH1 0x40 MLOAD PUSH32 0x8C379A000000000000000000000000000000000000000000000000000000000 DUP2 MSTORE PUSH1 0x4 ADD PUSH2 0x978 SWAP1 PUSH2 0x1049 JUMP JUMPDEST PUSH1 0x40 MLOAD DUP1 SWAP2 SUB SWAP1 REVERT JUMPDEST JUMP JUMPDEST PUSH1 0x1 PUSH1 0x0 PUSH2 0x100 EXP DUP2 SLOAD SWAP1 PUSH20 0xFFFFFFFFFFFFFFFFFFFFFFFFFFFFFFFFFFFFFFFF MUL NOT AND SWAP1 SSTORE PUSH2 0x9B1 DUP2 PUSH2 0xA42 JUMP JUMPDEST POP JUMP JUMPDEST PUSH1 0x0 CALLER SWAP1 POP SWAP1 JUMP JUMPDEST PUSH2 0xA3D DUP4 PUSH4 0xA9059CBB PUSH1 0xE0 SHL DUP5 DUP5 PUSH1 0x40 MLOAD PUSH1 0x24 ADD PUSH2 0x9DB SWAP3 SWAP2 SWAP1 PUSH2 0x1078 JUMP JUMPDEST PUSH1 0x40 MLOAD PUSH1 0x20 DUP2 DUP4 SUB SUB DUP2 MSTORE SWAP1 PUSH1 0x40 MSTORE SWAP1 PUSH28 0xFFFFFFFFFFFFFFFFFFFFFFFFFFFFFFFFFFFFFFFFFFFFFFFFFFFFFFFF NOT AND PUSH1 0x20 DUP3 ADD DUP1 MLOAD PUSH28 0xFFFFFFFFFFFFFFFFFFFFFFFFFFFFFFFFFFFFFFFFFFFFFFFFFFFFFFFF DUP4 DUP2 DUP4 AND OR DUP4 MSTORE POP POP POP POP PUSH2 0xB06 JUMP JUMPDEST POP POP POP JUMP JUMPDEST PUSH1 0x0 DUP1 PUSH1 0x0 SWAP1 SLOAD SWAP1 PUSH2 0x100 EXP SWAP1 DIV PUSH20 0xFFFFFFFFFFFFFFFFFFFFFFFFFFFFFFFFFFFFFFFF AND SWAP1 POP DUP2 PUSH1 0x0 DUP1 PUSH2 0x100 EXP DUP2 SLOAD DUP2 PUSH20 0xFFFFFFFFFFFFFFFFFFFFFFFFFFFFFFFFFFFFFFFF MUL NOT AND SWAP1 DUP4 PUSH20 0xFFFFFFFFFFFFFFFFFFFFFFFFFFFFFFFFFFFFFFFF AND MUL OR SWAP1 SSTORE POP DUP2 PUSH20 0xFFFFFFFFFFFFFFFFFFFFFFFFFFFFFFFFFFFFFFFF AND DUP2 PUSH20 0xFFFFFFFFFFFFFFFFFFFFFFFFFFFFFFFFFFFFFFFF AND PUSH32 0x8BE0079C531659141344CD1FD0A4F28419497F9722A3DAAFE3B4186F6B6457E0 PUSH1 0x40 MLOAD PUSH1 0x40 MLOAD DUP1 SWAP2 SUB SWAP1 LOG3 POP POP JUMP JUMPDEST PUSH1 0x0 PUSH2 0xB68 DUP3 PUSH1 0x40 MLOAD DUP1 PUSH1 0x40 ADD PUSH1 0x40 MSTORE DUP1 PUSH1 0x20 DUP2 MSTORE PUSH1 0x20 ADD PUSH32 0x5361666545524332303A206C6F772D6C6576656C2063616C6C206661696C6564 DUP2 MSTORE POP DUP6 PUSH20 0xFFFFFFFFFFFFFFFFFFFFFFFFFFFFFFFFFFFFFFFF AND PUSH2 0xBCE SWAP1 SWAP3 SWAP2 SWAP1 PUSH4 0xFFFFFFFF AND JUMP JUMPDEST SWAP1 POP PUSH1 0x0 DUP2 MLOAD EQ DUP1 PUSH2 0xB8A JUMPI POP DUP1 DUP1 PUSH1 0x20 ADD SWAP1 MLOAD DUP2 ADD SWAP1 PUSH2 0xB89 SWAP2 SWAP1 PUSH2 0x10D9 JUMP JUMPDEST JUMPDEST PUSH2 0xBC9 JUMPI PUSH1 0x40 MLOAD PUSH32 0x8C379A000000000000000000000000000000000000000000000000000000000 DUP2 MSTORE PUSH1 0x4 ADD PUSH2 0xBC0 SWAP1 PUSH2 0x1178 JUMP JUMPDEST PUSH1 0x40 MLOAD DUP1 SWAP2 SUB SWAP1 REVERT JUMPDEST POP POP POP JUMP JUMPDEST PUSH1 0x60 PUSH2 0xBDD DUP5 DUP5 PUSH1 0x0 DUP6 PUSH2 0xBE6 JUMP JUMPDEST SWAP1 POP SWAP4 SWAP3 POP POP POP JUMP JUMPDEST PUSH1 0x60 DUP3 SELFBALANCE LT ISZERO PUSH2 0xC2B JUMPI PUSH1 0x40 MLOAD PUSH32 0x8C379A000000000000000000000000000000000000000000000000000000000 DUP2 MSTORE PUSH1 0x4 ADD PUSH2 0xC22 SWAP1 PUSH2 0x120A JUMP JUMPDEST PUSH1 0x40 MLOAD DUP1 SWAP2 SUB SWAP1 REVERT JUMPDEST PUSH1 0x0 DUP1 DUP7 PUSH20 0xFFFFFFFFFFFFFFFFFFFFFFFFFFFFFFFFFFFFFFFF AND DUP6 DUP8 PUSH1 0x40 MLOAD PUSH2 0xC54 SWAP2 SWAP1 PUSH2 0x129B JUMP JUMPDEST PUSH1 0x0 PUSH1 0x40 MLOAD DUP1 DUP4 SUB DUP2 DUP6 DUP8 GAS CALL SWAP3 POP POP POP RETURNDATASIZE DUP1 PUSH1 0x0 DUP2 EQ PUSH2 0xC91 JUMPI PUSH1 0x40 MLOAD SWAP2 POP PUSH1 0x1F NOT PUSH1 0x3F RETURNDATASIZE ADD AND DUP3 ADD PUSH1 0x40 MSTORE RETURNDATASIZE DUP3 MSTORE RETURNDATASIZE PUSH1 0x0 PUSH1 0x20 DUP5 ADD RETURNDATACOPY PUSH2 0xC96 JUMP JUMPDEST PUSH1 0x60 SWAP2 POP JUMPDEST POP SWAP2 POP SWAP2 POP PUSH2 0xCA7 DUP8 DUP4 DUP4 DUP8 PUSH2 0xCB3 JUMP JUMPDEST SWAP3 POP POP POP SWAP5 SWAP4 POP POP POP POP JUMP JUMPDEST PUSH1 0x60 DUP4 ISZERO PUSH2 0xD15 JUMPI PUSH1 0x0 DUP4 MLOAD SUB PUSH2 0xD0D JUMPI PUSH2 0xCCD DUP6 PUSH2 0xD28 JUMP JUMPDEST PUSH2 0xD0C JUMPI PUSH1 0x40 MLOAD PUSH32 0x8C379A000000000000000000000000000000000000000000000000000000000 DUP2 MSTORE PUSH1 0x4 ADD PUSH2 0xD03 SWAP1 PUSH2 0x12FE JUMP JUMPDEST PUSH1 0x40 MLOAD DUP1 SWAP2 SUB SWAP1 REVERT JUMPDEST JUMPDEST DUP3 SWAP1 POP PUSH2 0xD20 JUMP JUMPDEST PUSH2 0xD1F DUP4 DUP4 PUSH2 0xD4B JUMP JUMPDEST JUMPDEST SWAP5 SWAP4 POP POP POP POP JUMP JUMPDEST PUSH1 0x0 DUP1 DUP3 PUSH20 0xFFFFFFFFFFFFFFFFFFFFFFFFFFFFFFFFFFFFFFFF AND EXTCODESIZE GT SWAP1 POP SWAP2 SWAP1 POP JUMP JUMPDEST PUSH1 0x0 DUP3 MLOAD GT ISZERO PUSH2 0xD5E JUMPI DUP2 MLOAD DUP1 DUP4 PUSH1 0x20 ADD REVERT JUMPDEST DUP1 PUSH1 0x40 MLOAD PUSH32 0x8C379A000000000000000000000000000000000000000000000000000000000 DUP2 MSTORE PUSH1 0x4 ADD PUSH2 0xD92 SWAP2 SWAP1 PUSH2 0x1373 JUMP JUMPDEST PUSH1 0x40 MLOAD DUP1 SWAP2 SUB SWAP1 REVERT JUMPDEST PUSH1 0x0 DUP1 REVERT JUMPDEST PUSH1 0x0 PUSH20 0xFFFFFFFFFFFFFFFFFFFFFFFFFFFFFFFFFFFFFFFF DUP3 AND SWAP1 POP SWAP2 SWAP1 POP JUMP JUMPDEST PUSH1 0x0 PUSH2 0xDCB DUP3 PUSH2 0xDA0 JUMP JUMPDEST SWAP1 POP SWAP2 SWAP1 POP JUMP JUMPDEST PUSH2 0xDDB DUP2 PUSH2 0xDC0 JUMP JUMPDEST DUP2 EQ PUSH2 0xDE6 JUMPI PUSH1 0x0 DUP1 REVERT JUMPDEST POP JUMP JUMPDEST PUSH1 0x0 DUP2 CALLDATALOAD SWAP1 POP PUSH2 0xDF8 DUP2 PUSH2 0xDD2 JUMP JUMPDEST SWAP3 SWAP2 POP POP JUMP JUMPDEST PUSH1 0x0 PUSH1 0x20 DUP3 DUP5 SUB SLT ISZERO PUSH2 0xE14 JUMPI PUSH2 0xE13 PUSH2 0xD9B JUMP JUMPDEST JUMPDEST PUSH1 0x0 PUSH2 0xE22 DUP5 DUP3 DUP6 ADD PUSH2 0xDE9 JUMP JUMPDEST SWAP2 POP POP SWAP3 SWAP2 POP POP JUMP JUMPDEST PUSH2 0xE34 DUP2 PUSH2 0xDC0 JUMP JUMPDEST DUP3 MSTORE POP POP JUMP JUMPDEST PUSH1 0x0 PUSH1 0x20 DUP3 ADD SWAP1 POP PUSH2 0xE4F PUSH1 0x0 DUP4 ADD DUP5 PUSH2 0xE2B JUMP JUMPDEST SWAP3 SWAP2 POP POP JUMP JUMPDEST PUSH1 0x0 DUP2 SWAP1 POP SWAP2 SWAP1 POP JUMP JUMPDEST PUSH2 0xE68 DUP2 PUSH2 0xE55 JUMP JUMPDEST DUP2 EQ PUSH2 0xE73 JUMPI PUSH1 0x0 DUP1 REVERT JUMPDEST POP JUMP JUMPDEST PUSH1 0x0 DUP2 CALLDATALOAD SWAP1 POP PUSH2 0xE85 DUP2 PUSH2 0xE5F JUMP JUMPDEST SWAP3 SWAP2 POP POP JUMP JUMPDEST PUSH1 0x0 PUSH1 0x20 DUP3 DUP5 SUB SLT ISZERO PUSH2 0xEA1 JUMPI PUSH2 0xEA0 PUSH2 0xD9B JUMP JUMPDEST JUMPDEST PUSH1 0x0 PUSH2 0xEAF DUP5 DUP3 DUP6 ADD PUSH2 0xE76 JUMP JUMPDEST SWAP2 POP POP SWAP3 SWAP2 POP POP JUMP JUMPDEST PUSH1 0x0 DUP3 DUP3 MSTORE PUSH1 0x20 DUP3 ADD SWAP1 POP SWAP3 SWAP2 POP POP JUMP JUMPDEST PUSH32 0x4F776E61626C6532537465703A2063616C6C6572206973206E6F742074686520 PUSH1 0x0 DUP3 ADD MSTORE PUSH32 0x6E6577206F776E65720000000000000000000000000000000000000000000000 PUSH1 0x20 DUP3 ADD MSTORE POP JUMP JUMPDEST PUSH1 0x0 PUSH2 0xF25 PUSH1 0x29 DUP4 PUSH2 0xEB8 JUMP JUMPDEST SWAP2 POP PUSH2 0xF30 DUP3 PUSH2 0xEC9 JUMP JUMPDEST PUSH1 0x40 DUP3 ADD SWAP1 POP SWAP2 SWAP1 POP JUMP JUMPDEST PUSH1 0x0 PUSH1 0x20 DUP3 ADD SWAP1 POP DUP2 DUP2 SUB PUSH1 0x0 DUP4 ADD MSTORE PUSH2 0xF54 DUP2 PUSH2 0xF18 JUMP JUMPDEST SWAP1 POP SWAP2 SWAP1 POP JUMP JUMPDEST PUSH1 0x0 DUP2 MLOAD SWAP1 POP PUSH2 0xF6A DUP2 PUSH2 0xE5F JUMP JUMPDEST SWAP3 SWAP2 POP POP JUMP JUMPDEST PUSH1 0x0 PUSH1 0x20 DUP3 DUP5 SUB SLT ISZERO PUSH2 0xF86 JUMPI PUSH2 0xF85 PUSH2 0xD9B JUMP JUMPDEST JUMPDEST PUSH1 0x0 PUSH2 0xF94 DUP5 DUP3 DUP6 ADD PUSH2 0xF5B JUMP JUMPDEST SWAP2 POP POP SWAP3 SWAP2 POP POP JUMP JUMPDEST PUSH32 0x4E487B7100000000000000000000000000000000000000000000000000000000 PUSH1 0x0 MSTORE PUSH1 0x12 PUSH1 0x4 MSTORE PUSH1 0x24 PUSH1 0x0 REVERT JUMPDEST PUSH1 0x0 PUSH2 0xFD7 DUP3 PUSH2 0xE55 JUMP JUMPDEST SWAP2 POP PUSH2 0xFE2 DUP4 PUSH2 0xE55 JUMP JUMPDEST SWAP3 POP DUP3 PUSH2 0xFF2 JUMPI PUSH2 0xFF1 PUSH2 0xF9D JUMP JUMPDEST JUMPDEST DUP3 DUP3 DIV SWAP1 POP SWAP3 SWAP2 POP POP JUMP JUMPDEST PUSH32 0x4F776E61626C653A2063616C6C6572206973206E6F7420746865206F776E6572 PUSH1 0x0 DUP3 ADD MSTORE POP JUMP JUMPDEST PUSH1 0x0 PUSH2 0x1033 PUSH1 0x20 DUP4 PUSH2 0xEB8 JUMP JUMPDEST SWAP2 POP PUSH2 0x103E DUP3 PUSH2 0xFFD JUMP JUMPDEST PUSH1 0x20 DUP3 ADD SWAP1 POP SWAP2 SWAP1 POP JUMP JUMPDEST PUSH1 0x0 PUSH1 0x20 DUP3 ADD SWAP1 POP DUP2 DUP2 SUB PUSH1 0x0 DUP4 ADD MSTORE PUSH2 0x1062 DUP2 PUSH2 0x1026 JUMP JUMPDEST SWAP1 POP SWAP2 SWAP1 POP JUMP JUMPDEST PUSH2 0x1072 DUP2 PUSH2 0xE55 JUMP JUMPDEST DUP3 MSTORE POP POP JUMP JUMPDEST PUSH1 0x0 PUSH1 0x40 DUP3 ADD SWAP1 POP PUSH2 0x108D PUSH1 0x0 DUP4 ADD DUP6 PUSH2 0xE2B JUMP JUMPDEST PUSH2 0x109A PUSH1 0x20 DUP4 ADD DUP5 PUSH2 0x1069 JUMP JUMPDEST SWAP4 SWAP3 POP POP POP JUMP JUMPDEST PUSH1 0x0 DUP2 ISZERO ISZERO SWAP1 POP SWAP2 SWAP1 POP JUMP JUMPDEST PUSH2 0x10B6 DUP2 PUSH2 0x10A1 JUMP JUMPDEST DUP2 EQ PUSH2 0x10C1 JUMPI PUSH1 0x0 DUP1 REVERT JUMPDEST POP JUMP JUMPDEST PUSH1 0x0 DUP2 MLOAD SWAP1 POP PUSH2 0x10D3 DUP2 PUSH2 0x10AD JUMP JUMPDEST SWAP3 SWAP2 POP POP JUMP JUMPDEST PUSH1 0x0 PUSH1 0x20 DUP3 DUP5 SUB SLT ISZERO PUSH2 0x10EF JUMPI PUSH2 0x10EE PUSH2 0xD9B JUMP JUMPDEST JUMPDEST PUSH1 0x0 PUSH2 0x10FD DUP5 DUP3 DUP6 ADD PUSH2 0x10C4 JUMP JUMPDEST SWAP2 POP POP SWAP3 SWAP2 POP POP JUMP JUMPDEST PUSH32 0x5361666545524332303A204552433230206F7065726174696F6E20646964206E PUSH1 0x0 DUP3 ADD MSTORE PUSH32 0x6F74207375636365656400000000000000000000000000000000000000000000 PUSH1 0x20 DUP3 ADD MSTORE POP JUMP JUMPDEST PUSH1 0x0 PUSH2 0x1162 PUSH1 0x2A DUP4 PUSH2 0xEB8 JUMP JUMPDEST SWAP2 POP PUSH2 0x116D DUP3 PUSH2 0x1106 JUMP JUMPDEST PUSH1 0x40 DUP3 ADD SWAP1 POP SWAP2 SWAP1 POP JUMP JUMPDEST PUSH1 0x0 PUSH1 0x20 DUP3 ADD SWAP1 POP DUP2 DUP2 SUB PUSH1 0x0 DUP4 ADD MSTORE PUSH2 0x1191 DUP2 PUSH2 0x1155 JUMP JUMPDEST SWAP1 POP SWAP2 SWAP1 POP JUMP JUMPDEST PUSH32 0x416464726573733A20696E73756666696369656E742062616C616E636520666F PUSH1 0x0 DUP3 ADD MSTORE PUSH32 0x722063616C6C0000000000000000000000000000000000000000000000000000 PUSH1 0x20 DUP3 ADD MSTORE POP JUMP JUMPDEST PUSH1 0x0 PUSH2 0x11F4 PUSH1 0x26 DUP4 PUSH2 0xEB8 JUMP JUMPDEST SWAP2 POP PUSH2 0x11FF DUP3 PUSH2 0x1198 JUMP JUMPDEST PUSH1 0x40 DUP3 ADD SWAP1 POP SWAP2 SWAP1 POP JUMP JUMPDEST PUSH1 0x0 PUSH1 0x20 DUP3 ADD SWAP1 POP DUP2 DUP2 SUB PUSH1 0x0 DUP4 ADD MSTORE PUSH2 0x1223 DUP2 PUSH2 0x11E7 JUMP JUMPDEST SWAP1 POP SWAP2 SWAP1 POP JUMP JUMPDEST PUSH1 0x0 DUP2 MLOAD SWAP1 POP SWAP2 SWAP1 POP JUMP JUMPDEST PUSH1 0x0 DUP2 SWAP1 POP SWAP3 SWAP2 POP POP JUMP JUMPDEST PUSH1 0x0 JUMPDEST DUP4 DUP2 LT ISZERO PUSH2 0x125E JUMPI DUP1 DUP3 ADD MLOAD DUP2 DUP5 ADD MSTORE PUSH1 0x20 DUP2 ADD SWAP1 POP PUSH2 0x1243 JUMP JUMPDEST PUSH1 0x0 DUP5 DUP5 ADD MSTORE POP POP POP POP JUMP JUMPDEST PUSH1 0x0 PUSH2 0x1275 DUP3 PUSH2 0x122A JUMP JUMPDEST PUSH2 0x127F DUP2 DUP6 PUSH2 0x1235 JUMP JUMPDEST SWAP4 POP PUSH2 0x128F DUP2 DUP6 PUSH1 0x20 DUP7 ADD PUSH2 0x1240 JUMP JUMPDEST DUP1 DUP5 ADD SWAP2 POP POP SWAP3 SWAP2 POP POP JUMP JUMPDEST PUSH1 0x0 PUSH2 0x12A7 DUP3 DUP5 PUSH2 0x126A JUMP JUMPDEST SWAP2 POP DUP2 SWAP1 POP SWAP3 SWAP2 POP POP JUMP JUMPDEST PUSH32 0x416464726573733A2063616C6C20746F206E6F6E2D636F6E7472616374000000 PUSH1 0x0 DUP3 ADD MSTORE POP JUMP JUMPDEST PUSH1 0x0 PUSH2 0x12E8 PUSH1 0x1D DUP4 PUSH2 0xEB8 JUMP JUMPDEST SWAP2 POP PUSH2 0x12F3 DUP3 PUSH2 0x12B2 JUMP JUMPDEST PUSH1 0x20 DUP3 ADD SWAP1 POP SWAP2 SWAP1 POP JUMP JUMPDEST PUSH1 0x0 PUSH1 0x20 DUP3 ADD SWAP1 POP DUP2 DUP2 SUB PUSH1 0x0 DUP4 ADD MSTORE PUSH2 0x1317 DUP2 PUSH2 0x12DB JUMP JUMPDEST SWAP1 POP SWAP2 SWAP1 POP JUMP JUMPDEST PUSH1 0x0 DUP2 MLOAD SWAP1 POP SWAP2 SWAP1 POP JUMP JUMPDEST PUSH1 0x0 PUSH1 0x1F NOT PUSH1 0x1F DUP4 ADD AND SWAP1 POP SWAP2 SWAP1 POP JUMP JUMPDEST PUSH1 0x0 PUSH2 0x1345 DUP3 PUSH2 0x131E JUMP JUMPDEST PUSH2 0x134F DUP2 DUP6 PUSH2 0xEB8 JUMP JUMPDEST SWAP4 POP PUSH2 0x135F DUP2 DUP6 PUSH1 0x20 DUP7 ADD PUSH2 0x1240 JUMP JUMPDEST PUSH2 0x1368 DUP2 PUSH2 0x1329 JUMP JUMPDEST DUP5 ADD SWAP2 POP POP SWAP3 SWAP2 POP POP JUMP JUMPDEST PUSH1 0x0 PUSH1 0x20 DUP3 ADD SWAP1 POP DUP2 DUP2 SUB PUSH1 0x0 DUP4 ADD MSTORE PUSH2 0x138D DUP2 DUP5 PUSH2 0x133A JUMP JUMPDEST SWAP1 POP SWAP3 SWAP2 POP POP JUMP INVALID LOG2 PUSH5 0x6970667358 0x22 SLT KECCAK256 RETURN 0xDB 0xC4 CALLDATASIZE EXTCODESIZE 0xE5 0x4E 0xAC 0x4F 0xDD SWAP10 PREVRANDAO CREATE PUSH5 0xCAB0F715FB DUP1 SLT 0xE 0xC8 0xFB SWAP2 0xC0 CREATE2 MSTORE8 0xEC 0xC7 0xE7 SWAP11 PUSH5 0x736F6C6343 STOP ADDMOD SGT STOP CALLER "
				},
				"gasEstimates": {
					"creation": {
						"codeDepositCost": "1013400",
						"executionCost": "infinite",
						"totalCost": "infinite"
					},
					"external": {
						"acceptOwnership()": "54703",
						"owner()": "2589",
						"pendingOwner()": "2544",
						"renounceOwnership()": "54692",
						"setBribingWallet(address)": "28182",
						"setEqualDaoWallet(address)": "28271",
						"setPantheonWallet(address)": "28183",
						"setProfitDivider(uint256)": "26006",
						"splitFees()": "infinite",
						"transferOwnership(address)": "infinite"
					}
				},
				"methodIdentifiers": {
					"acceptOwnership()": "79ba5097",
					"owner()": "8da5cb5b",
					"pendingOwner()": "e30c3978",
					"renounceOwnership()": "715018a6",
					"setBribingWallet(address)": "9752b3b2",
					"setEqualDaoWallet(address)": "8f88f261",
					"setPantheonWallet(address)": "1f068108",
					"setProfitDivider(uint256)": "e7fcd45d",
					"splitFees()": "f6151089",
					"transferOwnership(address)": "f2fde38b"
				}
			},
			"storageLayout": {
				"storage": [
					{
						"astId": 7,
						"contract": "FeeSplitter.sol:FeeSplitter",
						"label": "_owner",
						"offset": 0,
						"slot": "0",
						"type": "t_address"
					},
					{
						"astId": 120,
						"contract": "FeeSplitter.sol:FeeSplitter",
						"label": "_pendingOwner",
						"offset": 0,
						"slot": "1",
						"type": "t_address"
					},
					{
						"astId": 206,
						"contract": "FeeSplitter.sol:FeeSplitter",
						"label": "_status",
						"offset": 0,
						"slot": "2",
						"type": "t_uint256"
					},
					{
						"astId": 1132,
						"contract": "FeeSplitter.sol:FeeSplitter",
						"label": "BRIBES",
						"offset": 0,
						"slot": "3",
						"type": "t_address"
					},
					{
						"astId": 1134,
						"contract": "FeeSplitter.sol:FeeSplitter",
						"label": "PANTHEON",
						"offset": 0,
						"slot": "4",
						"type": "t_address"
					},
					{
						"astId": 1136,
						"contract": "FeeSplitter.sol:FeeSplitter",
						"label": "EQUALDAO",
						"offset": 0,
						"slot": "5",
						"type": "t_address"
					},
					{
						"astId": 1138,
						"contract": "FeeSplitter.sol:FeeSplitter",
						"label": "ProfitDivider",
						"offset": 0,
						"slot": "6",
						"type": "t_uint256"
					}
				],
				"types": {
					"t_address": {
						"encoding": "inplace",
						"label": "address",
						"numberOfBytes": "20"
					},
					"t_uint256": {
						"encoding": "inplace",
						"label": "uint256",
						"numberOfBytes": "32"
					}
				}
			},
			"userdoc": {
				"kind": "user",
				"methods": {
					"setBribingWallet(address)": {
						"notice": "this function lets the owner set the Bribing Wallet"
					},
					"setEqualDaoWallet(address)": {
						"notice": "this function lets the owner set the =DAO Wallet"
					},
					"setPantheonWallet(address)": {
						"notice": "this function lets the owner set the Pantheon Wallet"
					},
					"setProfitDivider(uint256)": {
						"notice": "this function lets the owner set the ProfitDivider variable that is used to calculate the amount sent to the Pantheon & =DAO wallets"
					},
					"splitFees()": {
						"notice": "this function splits the revenue generated by pTOKEN.sol into the Bribing Wallet and the Pantheon & =DAO wallets"
					}
				},
				"version": 1
			}
		}
	}
}