{
	"FeeSplitter.sol": {
		"FeeSplitter": {
			"abi": [
				{
					"inputs": [
						{
							"internalType": "address",
							"name": "_pToken",
							"type": "address"
						}
					],
					"stateMutability": "nonpayable",
					"type": "constructor"
				},
				{
					"inputs": [],
					"name": "CantSetAddressZero",
					"type": "error"
				},
				{
					"inputs": [],
					"name": "ZeroProfitDivider",
					"type": "error"
				},
				{
					"anonymous": false,
					"inputs": [
						{
							"indexed": true,
							"internalType": "address",
							"name": "BribingAddress",
							"type": "address"
						}
					],
					"name": "BribingAddressUpdated",
					"type": "event"
				},
				{
					"anonymous": false,
					"inputs": [
						{
							"indexed": true,
							"internalType": "address",
							"name": "EqualDaoAddress",
							"type": "address"
						}
					],
					"name": "EqualDaoAddressUpdated",
					"type": "event"
				},
				{
					"anonymous": false,
					"inputs": [
						{
							"indexed": true,
							"internalType": "uint256",
							"name": "time",
							"type": "uint256"
						},
						{
							"indexed": true,
							"internalType": "uint256",
							"name": "AmountSentToPantheonAndEqualDao",
							"type": "uint256"
						},
						{
							"indexed": true,
							"internalType": "uint256",
							"name": "AmountSentToBribing",
							"type": "uint256"
						}
					],
					"name": "FeeSent",
					"type": "event"
				},
				{
					"anonymous": false,
					"inputs": [
						{
							"indexed": true,
							"internalType": "address",
							"name": "previousOwner",
							"type": "address"
						},
						{
							"indexed": true,
							"internalType": "address",
							"name": "newOwner",
							"type": "address"
						}
					],
					"name": "OwnershipTransferStarted",
					"type": "event"
				},
				{
					"anonymous": false,
					"inputs": [
						{
							"indexed": true,
							"internalType": "address",
							"name": "previousOwner",
							"type": "address"
						},
						{
							"indexed": true,
							"internalType": "address",
							"name": "newOwner",
							"type": "address"
						}
					],
					"name": "OwnershipTransferred",
					"type": "event"
				},
				{
					"anonymous": false,
					"inputs": [
						{
							"indexed": true,
							"internalType": "address",
							"name": "PantheonAddress",
							"type": "address"
						}
					],
					"name": "PantheonAddressUpdated",
					"type": "event"
				},
				{
					"anonymous": false,
					"inputs": [
						{
							"indexed": true,
							"internalType": "uint256",
							"name": "ProfitDivider",
							"type": "uint256"
						}
					],
					"name": "ProfitDividerUpdated",
					"type": "event"
				},
				{
					"inputs": [],
					"name": "acceptOwnership",
					"outputs": [],
					"stateMutability": "nonpayable",
					"type": "function"
				},
				{
					"inputs": [],
					"name": "owner",
					"outputs": [
						{
							"internalType": "address",
							"name": "",
							"type": "address"
						}
					],
					"stateMutability": "view",
					"type": "function"
				},
				{
					"inputs": [],
					"name": "pendingOwner",
					"outputs": [
						{
							"internalType": "address",
							"name": "",
							"type": "address"
						}
					],
					"stateMutability": "view",
					"type": "function"
				},
				{
					"inputs": [],
					"name": "renounceOwnership",
					"outputs": [],
					"stateMutability": "nonpayable",
					"type": "function"
				},
				{
					"inputs": [
						{
							"internalType": "address",
							"name": "_address",
							"type": "address"
						}
					],
					"name": "setBribingWallet",
					"outputs": [],
					"stateMutability": "nonpayable",
					"type": "function"
				},
				{
					"inputs": [
						{
							"internalType": "address",
							"name": "_address",
							"type": "address"
						}
					],
					"name": "setEqualDaoWallet",
					"outputs": [],
					"stateMutability": "nonpayable",
					"type": "function"
				},
				{
					"inputs": [
						{
							"internalType": "address",
							"name": "_address",
							"type": "address"
						}
					],
					"name": "setPantheonWallet",
					"outputs": [],
					"stateMutability": "nonpayable",
					"type": "function"
				},
				{
					"inputs": [
						{
							"internalType": "uint256",
							"name": "_value",
							"type": "uint256"
						}
					],
					"name": "setProfitDivider",
					"outputs": [],
					"stateMutability": "nonpayable",
					"type": "function"
				},
				{
					"inputs": [],
					"name": "splitFees",
					"outputs": [],
					"stateMutability": "nonpayable",
					"type": "function"
				},
				{
					"inputs": [],
					"name": "totalBribes",
					"outputs": [
						{
							"internalType": "uint256",
							"name": "",
							"type": "uint256"
						}
					],
					"stateMutability": "view",
					"type": "function"
				},
				{
					"inputs": [
						{
							"internalType": "address",
							"name": "newOwner",
							"type": "address"
						}
					],
					"name": "transferOwnership",
					"outputs": [],
					"stateMutability": "nonpayable",
					"type": "function"
				}
			],
			"devdoc": {
				"errors": {
					"CantSetAddressZero()": [
						{
							"custom:section": "** ERRORS **"
						}
					]
				},
				"events": {
					"FeeSent(uint256,uint256,uint256)": {
						"custom:section": "** EVENTS **"
					}
				},
				"kind": "dev",
				"methods": {
					"acceptOwnership()": {
						"details": "The new owner accepts the ownership transfer."
					},
					"constructor": {
						"custom:section": "** CONSTRUCTOR **"
					},
					"owner()": {
						"details": "Returns the address of the current owner."
					},
					"pendingOwner()": {
						"details": "Returns the address of the pending owner."
					},
					"renounceOwnership()": {
						"details": "Leaves the contract without owner. It will not be possible to call `onlyOwner` functions. Can only be called by the current owner. NOTE: Renouncing ownership will leave the contract without an owner, thereby disabling any functionality that is only available to the owner."
					},
					"transferOwnership(address)": {
						"details": "Starts the ownership transfer of the contract to a new account. Replaces the pending transfer if there is one. Can only be called by the current owner."
					}
				},
				"stateVariables": {
					"BRIBES": {
						"custom:section": "** PRIVATE VARIABLES **"
					},
					"_PTOKEN": {
						"custom:section": "** IMMUTABLES **"
					},
					"totalBribes": {
						"custom:section": "** PUBLIC VARIABLES **"
					}
				},
				"version": 1
			},
			"evm": {
				"assembly": "    /* \"FeeSplitter.sol\":412:3862  contract FeeSplitter is Ownable2Step, ReentrancyGuard {... */\n  mstore(0x40, 0xa0)\n    /* \"FeeSplitter.sol\":1732:1805  constructor(address _pToken) {... */\n  callvalue\n  dup1\n  iszero\n  tag_1\n  jumpi\n  0x00\n  dup1\n  revert\ntag_1:\n  pop\n  mload(0x40)\n  sub(codesize, bytecodeSize)\n  dup1\n  bytecodeSize\n  dup4\n  codecopy\n  dup2\n  dup2\n  add\n  0x40\n  mstore\n  dup2\n  add\n  swap1\n  tag_2\n  swap2\n  swap1\n  tag_3\n  jump\t// in\ntag_2:\n    /* \"@openzeppelin/contracts@v4.9.3/access/Ownable.sol\":936:968  _transferOwnership(_msgSender()) */\n  tag_8\n    /* \"@openzeppelin/contracts@v4.9.3/access/Ownable.sol\":955:967  _msgSender() */\n  tag_9\n    /* \"@openzeppelin/contracts@v4.9.3/access/Ownable.sol\":955:965  _msgSender */\n  shl(0x20, tag_10)\n    /* \"@openzeppelin/contracts@v4.9.3/access/Ownable.sol\":955:967  _msgSender() */\n  0x20\n  shr\n  jump\t// in\ntag_9:\n    /* \"@openzeppelin/contracts@v4.9.3/access/Ownable.sol\":936:954  _transferOwnership */\n  shl(0x20, tag_11)\n    /* \"@openzeppelin/contracts@v4.9.3/access/Ownable.sol\":936:968  _transferOwnership(_msgSender()) */\n  0x20\n  shr\n  jump\t// in\ntag_8:\n    /* \"@openzeppelin/contracts@v4.9.3/security/ReentrancyGuard.sol\":1716:1717  1 */\n  0x01\n    /* \"@openzeppelin/contracts@v4.9.3/security/ReentrancyGuard.sol\":1821:1828  _status */\n  0x02\n    /* \"@openzeppelin/contracts@v4.9.3/security/ReentrancyGuard.sol\":1821:1843  _status = _NOT_ENTERED */\n  dup2\n  swap1\n  sstore\n  pop\n    /* \"FeeSplitter.sol\":1789:1796  _pToken */\n  dup1\n    /* \"FeeSplitter.sol\":1772:1797  _PTOKEN = IERC20(_pToken) */\n  0xffffffffffffffffffffffffffffffffffffffff\n  and\n  0x80\n  dup2\n  0xffffffffffffffffffffffffffffffffffffffff\n  and\n  dup2\n  mstore\n  pop\n  pop\n    /* \"FeeSplitter.sol\":1732:1805  constructor(address _pToken) {... */\n  pop\n    /* \"FeeSplitter.sol\":412:3862  contract FeeSplitter is Ownable2Step, ReentrancyGuard {... */\n  jump(tag_14)\n    /* \"@openzeppelin/contracts@v4.9.3/utils/Context.sol\":640:736  function _msgSender() internal view virtual returns (address) {... */\ntag_10:\n    /* \"@openzeppelin/contracts@v4.9.3/utils/Context.sol\":693:700  address */\n  0x00\n    /* \"@openzeppelin/contracts@v4.9.3/utils/Context.sol\":719:729  msg.sender */\n  caller\n    /* \"@openzeppelin/contracts@v4.9.3/utils/Context.sol\":712:729  return msg.sender */\n  swap1\n  pop\n    /* \"@openzeppelin/contracts@v4.9.3/utils/Context.sol\":640:736  function _msgSender() internal view virtual returns (address) {... */\n  swap1\n  jump\t// out\n    /* \"@openzeppelin/contracts@v4.9.3/access/Ownable2Step.sol\":1501:1654  function _transferOwnership(address newOwner) internal virtual override {... */\ntag_11:\n    /* \"@openzeppelin/contracts@v4.9.3/access/Ownable2Step.sol\":1590:1603  _pendingOwner */\n  0x01\n  0x00\n    /* \"@openzeppelin/contracts@v4.9.3/access/Ownable2Step.sol\":1583:1603  delete _pendingOwner */\n  0x0100\n  exp\n  dup2\n  sload\n  swap1\n  0xffffffffffffffffffffffffffffffffffffffff\n  mul\n  not\n  and\n  swap1\n  sstore\n    /* \"@openzeppelin/contracts@v4.9.3/access/Ownable2Step.sol\":1613:1647  super._transferOwnership(newOwner) */\n  tag_17\n    /* \"@openzeppelin/contracts@v4.9.3/access/Ownable2Step.sol\":1638:1646  newOwner */\n  dup2\n    /* \"@openzeppelin/contracts@v4.9.3/access/Ownable2Step.sol\":1613:1637  super._transferOwnership */\n  or(tag_0_49, shl(0x20, tag_18))\n    /* \"@openzeppelin/contracts@v4.9.3/access/Ownable2Step.sol\":1613:1647  super._transferOwnership(newOwner) */\n  0x20\n  shr\n  jump\t// in\ntag_17:\n    /* \"@openzeppelin/contracts@v4.9.3/access/Ownable2Step.sol\":1501:1654  function _transferOwnership(address newOwner) internal virtual override {... */\n  pop\n  jump\t// out\n    /* \"@openzeppelin/contracts@v4.9.3/access/Ownable.sol\":2426:2613  function _transferOwnership(address newOwner) internal virtual {... */\ntag_18:\n    /* \"@openzeppelin/contracts@v4.9.3/access/Ownable.sol\":2499:2515  address oldOwner */\n  0x00\n    /* \"@openzeppelin/contracts@v4.9.3/access/Ownable.sol\":2518:2524  _owner */\n  dup1\n  0x00\n  swap1\n  sload\n  swap1\n  0x0100\n  exp\n  swap1\n  div\n  0xffffffffffffffffffffffffffffffffffffffff\n  and\n    /* \"@openzeppelin/contracts@v4.9.3/access/Ownable.sol\":2499:2524  address oldOwner = _owner */\n  swap1\n  pop\n    /* \"@openzeppelin/contracts@v4.9.3/access/Ownable.sol\":2543:2551  newOwner */\n  dup2\n    /* \"@openzeppelin/contracts@v4.9.3/access/Ownable.sol\":2534:2540  _owner */\n  0x00\n  dup1\n    /* \"@openzeppelin/contracts@v4.9.3/access/Ownable.sol\":2534:2551  _owner = newOwner */\n  0x0100\n  exp\n  dup2\n  sload\n  dup2\n  0xffffffffffffffffffffffffffffffffffffffff\n  mul\n  not\n  and\n  swap1\n  dup4\n  0xffffffffffffffffffffffffffffffffffffffff\n  and\n  mul\n  or\n  swap1\n  sstore\n  pop\n    /* \"@openzeppelin/contracts@v4.9.3/access/Ownable.sol\":2597:2605  newOwner */\n  dup2\n    /* \"@openzeppelin/contracts@v4.9.3/access/Ownable.sol\":2566:2606  OwnershipTransferred(oldOwner, newOwner) */\n  0xffffffffffffffffffffffffffffffffffffffff\n  and\n    /* \"@openzeppelin/contracts@v4.9.3/access/Ownable.sol\":2587:2595  oldOwner */\n  dup2\n    /* \"@openzeppelin/contracts@v4.9.3/access/Ownable.sol\":2566:2606  OwnershipTransferred(oldOwner, newOwner) */\n  0xffffffffffffffffffffffffffffffffffffffff\n  and\n  0x8be0079c531659141344cd1fd0a4f28419497f9722a3daafe3b4186f6b6457e0\n  mload(0x40)\n  mload(0x40)\n  dup1\n  swap2\n  sub\n  swap1\n  log3\n    /* \"@openzeppelin/contracts@v4.9.3/access/Ownable.sol\":2489:2613  {... */\n  pop\n    /* \"@openzeppelin/contracts@v4.9.3/access/Ownable.sol\":2426:2613  function _transferOwnership(address newOwner) internal virtual {... */\n  pop\n  jump\t// out\n    /* \"#utility.yul\":88:205   */\ntag_21:\n    /* \"#utility.yul\":197:198   */\n  0x00\n    /* \"#utility.yul\":194:195   */\n  dup1\n    /* \"#utility.yul\":187:199   */\n  revert\n    /* \"#utility.yul\":334:460   */\ntag_23:\n    /* \"#utility.yul\":371:378   */\n  0x00\n    /* \"#utility.yul\":411:453   */\n  0xffffffffffffffffffffffffffffffffffffffff\n    /* \"#utility.yul\":404:409   */\n  dup3\n    /* \"#utility.yul\":400:454   */\n  and\n    /* \"#utility.yul\":389:454   */\n  swap1\n  pop\n    /* \"#utility.yul\":334:460   */\n  swap2\n  swap1\n  pop\n  jump\t// out\n    /* \"#utility.yul\":466:562   */\ntag_24:\n    /* \"#utility.yul\":503:510   */\n  0x00\n    /* \"#utility.yul\":532:556   */\n  tag_33\n    /* \"#utility.yul\":550:555   */\n  dup3\n    /* \"#utility.yul\":532:556   */\n  tag_23\n  jump\t// in\ntag_33:\n    /* \"#utility.yul\":521:556   */\n  swap1\n  pop\n    /* \"#utility.yul\":466:562   */\n  swap2\n  swap1\n  pop\n  jump\t// out\n    /* \"#utility.yul\":568:690   */\ntag_25:\n    /* \"#utility.yul\":641:665   */\n  tag_35\n    /* \"#utility.yul\":659:664   */\n  dup2\n    /* \"#utility.yul\":641:665   */\n  tag_24\n  jump\t// in\ntag_35:\n    /* \"#utility.yul\":634:639   */\n  dup2\n    /* \"#utility.yul\":631:666   */\n  eq\n    /* \"#utility.yul\":621:684   */\n  tag_36\n  jumpi\n    /* \"#utility.yul\":680:681   */\n  0x00\n    /* \"#utility.yul\":677:678   */\n  dup1\n    /* \"#utility.yul\":670:682   */\n  revert\n    /* \"#utility.yul\":621:684   */\ntag_36:\n    /* \"#utility.yul\":568:690   */\n  pop\n  jump\t// out\n    /* \"#utility.yul\":696:839   */\ntag_26:\n    /* \"#utility.yul\":753:758   */\n  0x00\n    /* \"#utility.yul\":784:790   */\n  dup2\n    /* \"#utility.yul\":778:791   */\n  mload\n    /* \"#utility.yul\":769:791   */\n  swap1\n  pop\n    /* \"#utility.yul\":800:833   */\n  tag_38\n    /* \"#utility.yul\":827:832   */\n  dup2\n    /* \"#utility.yul\":800:833   */\n  tag_25\n  jump\t// in\ntag_38:\n    /* \"#utility.yul\":696:839   */\n  swap3\n  swap2\n  pop\n  pop\n  jump\t// out\n    /* \"#utility.yul\":845:1196   */\ntag_3:\n    /* \"#utility.yul\":915:921   */\n  0x00\n    /* \"#utility.yul\":964:966   */\n  0x20\n    /* \"#utility.yul\":952:961   */\n  dup3\n    /* \"#utility.yul\":943:950   */\n  dup5\n    /* \"#utility.yul\":939:962   */\n  sub\n    /* \"#utility.yul\":935:967   */\n  slt\n    /* \"#utility.yul\":932:1051   */\n  iszero\n  tag_40\n  jumpi\n    /* \"#utility.yul\":970:1049   */\n  tag_41\n  tag_21\n  jump\t// in\ntag_41:\n    /* \"#utility.yul\":932:1051   */\ntag_40:\n    /* \"#utility.yul\":1090:1091   */\n  0x00\n    /* \"#utility.yul\":1115:1179   */\n  tag_42\n    /* \"#utility.yul\":1171:1178   */\n  dup5\n    /* \"#utility.yul\":1162:1168   */\n  dup3\n    /* \"#utility.yul\":1151:1160   */\n  dup6\n    /* \"#utility.yul\":1147:1169   */\n  add\n    /* \"#utility.yul\":1115:1179   */\n  tag_26\n  jump\t// in\ntag_42:\n    /* \"#utility.yul\":1105:1179   */\n  swap2\n  pop\n    /* \"#utility.yul\":1061:1189   */\n  pop\n    /* \"#utility.yul\":845:1196   */\n  swap3\n  swap2\n  pop\n  pop\n  jump\t// out\n    /* \"FeeSplitter.sol\":412:3862  contract FeeSplitter is Ownable2Step, ReentrancyGuard {... */\ntag_14:\n  mload(0x80)\n  codecopy(0x00, dataOffset(sub_0), dataSize(sub_0))\n  0x00\n  assignImmutable(\"0x7173bb0c0c341c627c9734f9095ef27b00afaca222d0fccf9d280fbad8b7c078\")\n  return(0x00, dataSize(sub_0))\nstop\n\nsub_0: assembly {\n        /* \"FeeSplitter.sol\":412:3862  contract FeeSplitter is Ownable2Step, ReentrancyGuard {... */\n      mstore(0x40, 0x80)\n      callvalue\n      dup1\n      iszero\n      tag_1\n      jumpi\n      0x00\n      dup1\n      revert\n    tag_1:\n      pop\n      jumpi(tag_2, lt(calldatasize, 0x04))\n      shr(0xe0, calldataload(0x00))\n      dup1\n      0x9752b3b2\n      gt\n      tag_14\n      jumpi\n      dup1\n      0x9752b3b2\n      eq\n      tag_8\n      jumpi\n      dup1\n      0x979e9056\n      eq\n      tag_9\n      jumpi\n      dup1\n      0xe30c3978\n      eq\n      tag_10\n      jumpi\n      dup1\n      0xe7fcd45d\n      eq\n      tag_11\n      jumpi\n      dup1\n      0xf2fde38b\n      eq\n      tag_12\n      jumpi\n      dup1\n      0xf6151089\n      eq\n      tag_13\n      jumpi\n      jump(tag_2)\n    tag_14:\n      dup1\n      0x1f068108\n      eq\n      tag_3\n      jumpi\n      dup1\n      0x715018a6\n      eq\n      tag_4\n      jumpi\n      dup1\n      0x79ba5097\n      eq\n      tag_5\n      jumpi\n      dup1\n      0x8da5cb5b\n      eq\n      tag_6\n      jumpi\n      dup1\n      0x8f88f261\n      eq\n      tag_7\n      jumpi\n    tag_2:\n      0x00\n      dup1\n      revert\n        /* \"FeeSplitter.sol\":3326:3547  function setPantheonWallet(address _address) external onlyOwner {... */\n    tag_3:\n      tag_15\n      0x04\n      dup1\n      calldatasize\n      sub\n      dup2\n      add\n      swap1\n      tag_16\n      swap2\n      swap1\n      tag_17\n      jump\t// in\n    tag_16:\n      tag_18\n      jump\t// in\n    tag_15:\n      stop\n        /* \"@openzeppelin/contracts@v4.9.3/access/Ownable.sol\":1824:1925  function renounceOwnership() public virtual onlyOwner {... */\n    tag_4:\n      tag_19\n      tag_20\n      jump\t// in\n    tag_19:\n      stop\n        /* \"@openzeppelin/contracts@v4.9.3/access/Ownable2Step.sol\":1734:1946  function acceptOwnership() public virtual {... */\n    tag_5:\n      tag_21\n      tag_22\n      jump\t// in\n    tag_21:\n      stop\n        /* \"@openzeppelin/contracts@v4.9.3/access/Ownable.sol\":1201:1286  function owner() public view virtual returns (address) {... */\n    tag_6:\n      tag_23\n      tag_24\n      jump\t// in\n    tag_23:\n      mload(0x40)\n      tag_25\n      swap2\n      swap1\n      tag_26\n      jump\t// in\n    tag_25:\n      mload(0x40)\n      dup1\n      swap2\n      sub\n      swap1\n      return\n        /* \"FeeSplitter.sol\":3638:3859  function setEqualDaoWallet(address _address) external onlyOwner {... */\n    tag_7:\n      tag_27\n      0x04\n      dup1\n      calldatasize\n      sub\n      dup2\n      add\n      swap1\n      tag_28\n      swap2\n      swap1\n      tag_17\n      jump\t// in\n    tag_28:\n      tag_29\n      jump\t// in\n    tag_27:\n      stop\n        /* \"FeeSplitter.sol\":3014:3231  function setBribingWallet(address _address) external onlyOwner {... */\n    tag_8:\n      tag_30\n      0x04\n      dup1\n      calldatasize\n      sub\n      dup2\n      add\n      swap1\n      tag_31\n      swap2\n      swap1\n      tag_17\n      jump\t// in\n    tag_31:\n      tag_32\n      jump\t// in\n    tag_30:\n      stop\n        /* \"FeeSplitter.sol\":1098:1124  uint256 public totalBribes */\n    tag_9:\n      tag_33\n      tag_34\n      jump\t// in\n    tag_33:\n      mload(0x40)\n      tag_35\n      swap2\n      swap1\n      tag_36\n      jump\t// in\n    tag_35:\n      mload(0x40)\n      dup1\n      swap2\n      sub\n      swap1\n      return\n        /* \"@openzeppelin/contracts@v4.9.3/access/Ownable2Step.sol\":847:946  function pendingOwner() public view virtual returns (address) {... */\n    tag_10:\n      tag_37\n      tag_38\n      jump\t// in\n    tag_37:\n      mload(0x40)\n      tag_39\n      swap2\n      swap1\n      tag_26\n      jump\t// in\n    tag_39:\n      mload(0x40)\n      dup1\n      swap2\n      sub\n      swap1\n      return\n        /* \"FeeSplitter.sol\":2717:2920  function setProfitDivider(uint256 _value) external onlyOwner {... */\n    tag_11:\n      tag_40\n      0x04\n      dup1\n      calldatasize\n      sub\n      dup2\n      add\n      swap1\n      tag_41\n      swap2\n      swap1\n      tag_42\n      jump\t// in\n    tag_41:\n      tag_43\n      jump\t// in\n    tag_40:\n      stop\n        /* \"@openzeppelin/contracts@v4.9.3/access/Ownable2Step.sol\":1139:1317  function transferOwnership(address newOwner) public virtual override onlyOwner {... */\n    tag_12:\n      tag_44\n      0x04\n      dup1\n      calldatasize\n      sub\n      dup2\n      add\n      swap1\n      tag_45\n      swap2\n      swap1\n      tag_17\n      jump\t// in\n    tag_45:\n      tag_46\n      jump\t// in\n    tag_44:\n      stop\n        /* \"FeeSplitter.sol\":2055:2542  function splitFees() external onlyOwner {... */\n    tag_13:\n      tag_47\n      tag_48\n      jump\t// in\n    tag_47:\n      stop\n        /* \"FeeSplitter.sol\":3326:3547  function setPantheonWallet(address _address) external onlyOwner {... */\n    tag_18:\n        /* \"@openzeppelin/contracts@v4.9.3/access/Ownable.sol\":1094:1107  _checkOwner() */\n      tag_51\n        /* \"@openzeppelin/contracts@v4.9.3/access/Ownable.sol\":1094:1105  _checkOwner */\n      tag_52\n        /* \"@openzeppelin/contracts@v4.9.3/access/Ownable.sol\":1094:1107  _checkOwner() */\n      jump\t// in\n    tag_51:\n        /* \"FeeSplitter.sol\":3424:3427  0x0 */\n      0x00\n        /* \"FeeSplitter.sol\":3404:3428  _address == address(0x0) */\n      0xffffffffffffffffffffffffffffffffffffffff\n      and\n        /* \"FeeSplitter.sol\":3404:3412  _address */\n      dup2\n        /* \"FeeSplitter.sol\":3404:3428  _address == address(0x0) */\n      0xffffffffffffffffffffffffffffffffffffffff\n      and\n      sub\n        /* \"FeeSplitter.sol\":3401:3457  if(_address == address(0x0)) revert CantSetAddressZero() */\n      tag_54\n      jumpi\n        /* \"FeeSplitter.sol\":3437:3457  CantSetAddressZero() */\n      mload(0x40)\n      0x842090f100000000000000000000000000000000000000000000000000000000\n      dup2\n      mstore\n      0x04\n      add\n      mload(0x40)\n      dup1\n      swap2\n      sub\n      swap1\n      revert\n        /* \"FeeSplitter.sol\":3401:3457  if(_address == address(0x0)) revert CantSetAddressZero() */\n    tag_54:\n        /* \"FeeSplitter.sol\":3480:3488  _address */\n      dup1\n        /* \"FeeSplitter.sol\":3468:3476  PANTHEON */\n      0x04\n      0x00\n        /* \"FeeSplitter.sol\":3468:3489  PANTHEON = (_address) */\n      0x0100\n      exp\n      dup2\n      sload\n      dup2\n      0xffffffffffffffffffffffffffffffffffffffff\n      mul\n      not\n      and\n      swap1\n      dup4\n      0xffffffffffffffffffffffffffffffffffffffff\n      and\n      mul\n      or\n      swap1\n      sstore\n      pop\n        /* \"FeeSplitter.sol\":3530:3538  _address */\n      dup1\n        /* \"FeeSplitter.sol\":3507:3539  PantheonAddressUpdated(_address) */\n      0xffffffffffffffffffffffffffffffffffffffff\n      and\n      0x0cd19529020fd81d84beeae5290e80cef2820b494e9aedf821b3c45b8110d7df\n      mload(0x40)\n      mload(0x40)\n      dup1\n      swap2\n      sub\n      swap1\n      log2\n        /* \"FeeSplitter.sol\":3326:3547  function setPantheonWallet(address _address) external onlyOwner {... */\n      pop\n      jump\t// out\n        /* \"@openzeppelin/contracts@v4.9.3/access/Ownable.sol\":1824:1925  function renounceOwnership() public virtual onlyOwner {... */\n    tag_20:\n        /* \"@openzeppelin/contracts@v4.9.3/access/Ownable.sol\":1094:1107  _checkOwner() */\n      tag_56\n        /* \"@openzeppelin/contracts@v4.9.3/access/Ownable.sol\":1094:1105  _checkOwner */\n      tag_52\n        /* \"@openzeppelin/contracts@v4.9.3/access/Ownable.sol\":1094:1107  _checkOwner() */\n      jump\t// in\n    tag_56:\n        /* \"@openzeppelin/contracts@v4.9.3/access/Ownable.sol\":1888:1918  _transferOwnership(address(0)) */\n      tag_58\n        /* \"@openzeppelin/contracts@v4.9.3/access/Ownable.sol\":1915:1916  0 */\n      0x00\n        /* \"@openzeppelin/contracts@v4.9.3/access/Ownable.sol\":1888:1906  _transferOwnership */\n      tag_59\n        /* \"@openzeppelin/contracts@v4.9.3/access/Ownable.sol\":1888:1918  _transferOwnership(address(0)) */\n      jump\t// in\n    tag_58:\n        /* \"@openzeppelin/contracts@v4.9.3/access/Ownable.sol\":1824:1925  function renounceOwnership() public virtual onlyOwner {... */\n      jump\t// out\n        /* \"@openzeppelin/contracts@v4.9.3/access/Ownable2Step.sol\":1734:1946  function acceptOwnership() public virtual {... */\n    tag_22:\n        /* \"@openzeppelin/contracts@v4.9.3/access/Ownable2Step.sol\":1786:1800  address sender */\n      0x00\n        /* \"@openzeppelin/contracts@v4.9.3/access/Ownable2Step.sol\":1803:1815  _msgSender() */\n      tag_61\n        /* \"@openzeppelin/contracts@v4.9.3/access/Ownable2Step.sol\":1803:1813  _msgSender */\n      tag_62\n        /* \"@openzeppelin/contracts@v4.9.3/access/Ownable2Step.sol\":1803:1815  _msgSender() */\n      jump\t// in\n    tag_61:\n        /* \"@openzeppelin/contracts@v4.9.3/access/Ownable2Step.sol\":1786:1815  address sender = _msgSender() */\n      swap1\n      pop\n        /* \"@openzeppelin/contracts@v4.9.3/access/Ownable2Step.sol\":1851:1857  sender */\n      dup1\n        /* \"@openzeppelin/contracts@v4.9.3/access/Ownable2Step.sol\":1833:1857  pendingOwner() == sender */\n      0xffffffffffffffffffffffffffffffffffffffff\n      and\n        /* \"@openzeppelin/contracts@v4.9.3/access/Ownable2Step.sol\":1833:1847  pendingOwner() */\n      tag_63\n        /* \"@openzeppelin/contracts@v4.9.3/access/Ownable2Step.sol\":1833:1845  pendingOwner */\n      tag_38\n        /* \"@openzeppelin/contracts@v4.9.3/access/Ownable2Step.sol\":1833:1847  pendingOwner() */\n      jump\t// in\n    tag_63:\n        /* \"@openzeppelin/contracts@v4.9.3/access/Ownable2Step.sol\":1833:1857  pendingOwner() == sender */\n      0xffffffffffffffffffffffffffffffffffffffff\n      and\n      eq\n        /* \"@openzeppelin/contracts@v4.9.3/access/Ownable2Step.sol\":1825:1903  require(pendingOwner() == sender, \"Ownable2Step: caller is not the new owner\") */\n      tag_64\n      jumpi\n      mload(0x40)\n      0x08c379a000000000000000000000000000000000000000000000000000000000\n      dup2\n      mstore\n      0x04\n      add\n      tag_65\n      swap1\n      tag_66\n      jump\t// in\n    tag_65:\n      mload(0x40)\n      dup1\n      swap2\n      sub\n      swap1\n      revert\n    tag_64:\n        /* \"@openzeppelin/contracts@v4.9.3/access/Ownable2Step.sol\":1913:1939  _transferOwnership(sender) */\n      tag_67\n        /* \"@openzeppelin/contracts@v4.9.3/access/Ownable2Step.sol\":1932:1938  sender */\n      dup2\n        /* \"@openzeppelin/contracts@v4.9.3/access/Ownable2Step.sol\":1913:1931  _transferOwnership */\n      tag_59\n        /* \"@openzeppelin/contracts@v4.9.3/access/Ownable2Step.sol\":1913:1939  _transferOwnership(sender) */\n      jump\t// in\n    tag_67:\n        /* \"@openzeppelin/contracts@v4.9.3/access/Ownable2Step.sol\":1776:1946  {... */\n      pop\n        /* \"@openzeppelin/contracts@v4.9.3/access/Ownable2Step.sol\":1734:1946  function acceptOwnership() public virtual {... */\n      jump\t// out\n        /* \"@openzeppelin/contracts@v4.9.3/access/Ownable.sol\":1201:1286  function owner() public view virtual returns (address) {... */\n    tag_24:\n        /* \"@openzeppelin/contracts@v4.9.3/access/Ownable.sol\":1247:1254  address */\n      0x00\n        /* \"@openzeppelin/contracts@v4.9.3/access/Ownable.sol\":1273:1279  _owner */\n      dup1\n      0x00\n      swap1\n      sload\n      swap1\n      0x0100\n      exp\n      swap1\n      div\n      0xffffffffffffffffffffffffffffffffffffffff\n      and\n        /* \"@openzeppelin/contracts@v4.9.3/access/Ownable.sol\":1266:1279  return _owner */\n      swap1\n      pop\n        /* \"@openzeppelin/contracts@v4.9.3/access/Ownable.sol\":1201:1286  function owner() public view virtual returns (address) {... */\n      swap1\n      jump\t// out\n        /* \"FeeSplitter.sol\":3638:3859  function setEqualDaoWallet(address _address) external onlyOwner {... */\n    tag_29:\n        /* \"@openzeppelin/contracts@v4.9.3/access/Ownable.sol\":1094:1107  _checkOwner() */\n      tag_70\n        /* \"@openzeppelin/contracts@v4.9.3/access/Ownable.sol\":1094:1105  _checkOwner */\n      tag_52\n        /* \"@openzeppelin/contracts@v4.9.3/access/Ownable.sol\":1094:1107  _checkOwner() */\n      jump\t// in\n    tag_70:\n        /* \"FeeSplitter.sol\":3736:3739  0x0 */\n      0x00\n        /* \"FeeSplitter.sol\":3716:3740  _address == address(0x0) */\n      0xffffffffffffffffffffffffffffffffffffffff\n      and\n        /* \"FeeSplitter.sol\":3716:3724  _address */\n      dup2\n        /* \"FeeSplitter.sol\":3716:3740  _address == address(0x0) */\n      0xffffffffffffffffffffffffffffffffffffffff\n      and\n      sub\n        /* \"FeeSplitter.sol\":3713:3769  if(_address == address(0x0)) revert CantSetAddressZero() */\n      tag_72\n      jumpi\n        /* \"FeeSplitter.sol\":3749:3769  CantSetAddressZero() */\n      mload(0x40)\n      0x842090f100000000000000000000000000000000000000000000000000000000\n      dup2\n      mstore\n      0x04\n      add\n      mload(0x40)\n      dup1\n      swap2\n      sub\n      swap1\n      revert\n        /* \"FeeSplitter.sol\":3713:3769  if(_address == address(0x0)) revert CantSetAddressZero() */\n    tag_72:\n        /* \"FeeSplitter.sol\":3792:3800  _address */\n      dup1\n        /* \"FeeSplitter.sol\":3780:3788  EQUALDAO */\n      0x05\n      0x00\n        /* \"FeeSplitter.sol\":3780:3801  EQUALDAO = (_address) */\n      0x0100\n      exp\n      dup2\n      sload\n      dup2\n      0xffffffffffffffffffffffffffffffffffffffff\n      mul\n      not\n      and\n      swap1\n      dup4\n      0xffffffffffffffffffffffffffffffffffffffff\n      and\n      mul\n      or\n      swap1\n      sstore\n      pop\n        /* \"FeeSplitter.sol\":3842:3850  _address */\n      dup1\n        /* \"FeeSplitter.sol\":3819:3851  EqualDaoAddressUpdated(_address) */\n      0xffffffffffffffffffffffffffffffffffffffff\n      and\n      0x203661c8635f7afb5f15d76e6b159110290d075ad62b4ee9ff9a7ab94187d4bd\n      mload(0x40)\n      mload(0x40)\n      dup1\n      swap2\n      sub\n      swap1\n      log2\n        /* \"FeeSplitter.sol\":3638:3859  function setEqualDaoWallet(address _address) external onlyOwner {... */\n      pop\n      jump\t// out\n        /* \"FeeSplitter.sol\":3014:3231  function setBribingWallet(address _address) external onlyOwner {... */\n    tag_32:\n        /* \"@openzeppelin/contracts@v4.9.3/access/Ownable.sol\":1094:1107  _checkOwner() */\n      tag_74\n        /* \"@openzeppelin/contracts@v4.9.3/access/Ownable.sol\":1094:1105  _checkOwner */\n      tag_52\n        /* \"@openzeppelin/contracts@v4.9.3/access/Ownable.sol\":1094:1107  _checkOwner() */\n      jump\t// in\n    tag_74:\n        /* \"FeeSplitter.sol\":3111:3114  0x0 */\n      0x00\n        /* \"FeeSplitter.sol\":3091:3115  _address == address(0x0) */\n      0xffffffffffffffffffffffffffffffffffffffff\n      and\n        /* \"FeeSplitter.sol\":3091:3099  _address */\n      dup2\n        /* \"FeeSplitter.sol\":3091:3115  _address == address(0x0) */\n      0xffffffffffffffffffffffffffffffffffffffff\n      and\n      sub\n        /* \"FeeSplitter.sol\":3088:3144  if(_address == address(0x0)) revert CantSetAddressZero() */\n      tag_76\n      jumpi\n        /* \"FeeSplitter.sol\":3124:3144  CantSetAddressZero() */\n      mload(0x40)\n      0x842090f100000000000000000000000000000000000000000000000000000000\n      dup2\n      mstore\n      0x04\n      add\n      mload(0x40)\n      dup1\n      swap2\n      sub\n      swap1\n      revert\n        /* \"FeeSplitter.sol\":3088:3144  if(_address == address(0x0)) revert CantSetAddressZero() */\n    tag_76:\n        /* \"FeeSplitter.sol\":3165:3173  _address */\n      dup1\n        /* \"FeeSplitter.sol\":3155:3161  BRIBES */\n      0x03\n      0x00\n        /* \"FeeSplitter.sol\":3155:3174  BRIBES = (_address) */\n      0x0100\n      exp\n      dup2\n      sload\n      dup2\n      0xffffffffffffffffffffffffffffffffffffffff\n      mul\n      not\n      and\n      swap1\n      dup4\n      0xffffffffffffffffffffffffffffffffffffffff\n      and\n      mul\n      or\n      swap1\n      sstore\n      pop\n        /* \"FeeSplitter.sol\":3214:3222  _address */\n      dup1\n        /* \"FeeSplitter.sol\":3192:3223  BribingAddressUpdated(_address) */\n      0xffffffffffffffffffffffffffffffffffffffff\n      and\n      0x170b0500ccf8a13146ecd9838c59849129b54beda77dadbe500b8817cdc8d368\n      mload(0x40)\n      mload(0x40)\n      dup1\n      swap2\n      sub\n      swap1\n      log2\n        /* \"FeeSplitter.sol\":3014:3231  function setBribingWallet(address _address) external onlyOwner {... */\n      pop\n      jump\t// out\n        /* \"FeeSplitter.sol\":1098:1124  uint256 public totalBribes */\n    tag_34:\n      sload(0x07)\n      dup2\n      jump\t// out\n        /* \"@openzeppelin/contracts@v4.9.3/access/Ownable2Step.sol\":847:946  function pendingOwner() public view virtual returns (address) {... */\n    tag_38:\n        /* \"@openzeppelin/contracts@v4.9.3/access/Ownable2Step.sol\":900:907  address */\n      0x00\n        /* \"@openzeppelin/contracts@v4.9.3/access/Ownable2Step.sol\":926:939  _pendingOwner */\n      0x01\n      0x00\n      swap1\n      sload\n      swap1\n      0x0100\n      exp\n      swap1\n      div\n      0xffffffffffffffffffffffffffffffffffffffff\n      and\n        /* \"@openzeppelin/contracts@v4.9.3/access/Ownable2Step.sol\":919:939  return _pendingOwner */\n      swap1\n      pop\n        /* \"@openzeppelin/contracts@v4.9.3/access/Ownable2Step.sol\":847:946  function pendingOwner() public view virtual returns (address) {... */\n      swap1\n      jump\t// out\n        /* \"FeeSplitter.sol\":2717:2920  function setProfitDivider(uint256 _value) external onlyOwner {... */\n    tag_43:\n        /* \"@openzeppelin/contracts@v4.9.3/access/Ownable.sol\":1094:1107  _checkOwner() */\n      tag_79\n        /* \"@openzeppelin/contracts@v4.9.3/access/Ownable.sol\":1094:1105  _checkOwner */\n      tag_52\n        /* \"@openzeppelin/contracts@v4.9.3/access/Ownable.sol\":1094:1107  _checkOwner() */\n      jump\t// in\n    tag_79:\n        /* \"FeeSplitter.sol\":2802:2803  0 */\n      0x00\n        /* \"FeeSplitter.sol\":2792:2798  _value */\n      dup2\n        /* \"FeeSplitter.sol\":2792:2803  _value == 0 */\n      sub\n        /* \"FeeSplitter.sol\":2789:2831  if(_value == 0) revert ZeroProfitDivider() */\n      tag_81\n      jumpi\n        /* \"FeeSplitter.sol\":2812:2831  ZeroProfitDivider() */\n      mload(0x40)\n      0xc830261600000000000000000000000000000000000000000000000000000000\n      dup2\n      mstore\n      0x04\n      add\n      mload(0x40)\n      dup1\n      swap2\n      sub\n      swap1\n      revert\n        /* \"FeeSplitter.sol\":2789:2831  if(_value == 0) revert ZeroProfitDivider() */\n    tag_81:\n        /* \"FeeSplitter.sol\":2860:2866  _value */\n      dup1\n        /* \"FeeSplitter.sol\":2844:2857  ProfitDivider */\n      0x06\n        /* \"FeeSplitter.sol\":2844:2866  ProfitDivider = _value */\n      dup2\n      swap1\n      sstore\n      pop\n        /* \"FeeSplitter.sol\":2905:2911  _value */\n      dup1\n        /* \"FeeSplitter.sol\":2884:2912  ProfitDividerUpdated(_value) */\n      0x3d5a337607048974766ec58e2109261b4871329988d9615e7051bae635c38a60\n      mload(0x40)\n      mload(0x40)\n      dup1\n      swap2\n      sub\n      swap1\n      log2\n        /* \"FeeSplitter.sol\":2717:2920  function setProfitDivider(uint256 _value) external onlyOwner {... */\n      pop\n      jump\t// out\n        /* \"@openzeppelin/contracts@v4.9.3/access/Ownable2Step.sol\":1139:1317  function transferOwnership(address newOwner) public virtual override onlyOwner {... */\n    tag_46:\n        /* \"@openzeppelin/contracts@v4.9.3/access/Ownable.sol\":1094:1107  _checkOwner() */\n      tag_83\n        /* \"@openzeppelin/contracts@v4.9.3/access/Ownable.sol\":1094:1105  _checkOwner */\n      tag_52\n        /* \"@openzeppelin/contracts@v4.9.3/access/Ownable.sol\":1094:1107  _checkOwner() */\n      jump\t// in\n    tag_83:\n        /* \"@openzeppelin/contracts@v4.9.3/access/Ownable2Step.sol\":1244:1252  newOwner */\n      dup1\n        /* \"@openzeppelin/contracts@v4.9.3/access/Ownable2Step.sol\":1228:1241  _pendingOwner */\n      0x01\n      0x00\n        /* \"@openzeppelin/contracts@v4.9.3/access/Ownable2Step.sol\":1228:1252  _pendingOwner = newOwner */\n      0x0100\n      exp\n      dup2\n      sload\n      dup2\n      0xffffffffffffffffffffffffffffffffffffffff\n      mul\n      not\n      and\n      swap1\n      dup4\n      0xffffffffffffffffffffffffffffffffffffffff\n      and\n      mul\n      or\n      swap1\n      sstore\n      pop\n        /* \"@openzeppelin/contracts@v4.9.3/access/Ownable2Step.sol\":1301:1309  newOwner */\n      dup1\n        /* \"@openzeppelin/contracts@v4.9.3/access/Ownable2Step.sol\":1267:1310  OwnershipTransferStarted(owner(), newOwner) */\n      0xffffffffffffffffffffffffffffffffffffffff\n      and\n        /* \"@openzeppelin/contracts@v4.9.3/access/Ownable2Step.sol\":1292:1299  owner() */\n      tag_85\n        /* \"@openzeppelin/contracts@v4.9.3/access/Ownable2Step.sol\":1292:1297  owner */\n      tag_24\n        /* \"@openzeppelin/contracts@v4.9.3/access/Ownable2Step.sol\":1292:1299  owner() */\n      jump\t// in\n    tag_85:\n        /* \"@openzeppelin/contracts@v4.9.3/access/Ownable2Step.sol\":1267:1310  OwnershipTransferStarted(owner(), newOwner) */\n      0xffffffffffffffffffffffffffffffffffffffff\n      and\n      0x38d16b8cac22d99fc7c124b9cd0de2d3fa1faef420bfe791d8c362d765e22700\n      mload(0x40)\n      mload(0x40)\n      dup1\n      swap2\n      sub\n      swap1\n      log3\n        /* \"@openzeppelin/contracts@v4.9.3/access/Ownable2Step.sol\":1139:1317  function transferOwnership(address newOwner) public virtual override onlyOwner {... */\n      pop\n      jump\t// out\n        /* \"FeeSplitter.sol\":2055:2542  function splitFees() external onlyOwner {... */\n    tag_48:\n        /* \"@openzeppelin/contracts@v4.9.3/access/Ownable.sol\":1094:1107  _checkOwner() */\n      tag_87\n        /* \"@openzeppelin/contracts@v4.9.3/access/Ownable.sol\":1094:1105  _checkOwner */\n      tag_52\n        /* \"@openzeppelin/contracts@v4.9.3/access/Ownable.sol\":1094:1107  _checkOwner() */\n      jump\t// in\n    tag_87:\n        /* \"FeeSplitter.sol\":2106:2120  uint256 profit */\n      0x00\n        /* \"FeeSplitter.sol\":2167:2180  ProfitDivider */\n      sload(0x06)\n        /* \"FeeSplitter.sol\":2159:2162  100 */\n      0x64\n        /* \"FeeSplitter.sol\":2124:2131  _PTOKEN */\n      immutable(\"0x7173bb0c0c341c627c9734f9095ef27b00afaca222d0fccf9d280fbad8b7c078\")\n        /* \"FeeSplitter.sol\":2124:2141  _PTOKEN.balanceOf */\n      0xffffffffffffffffffffffffffffffffffffffff\n      and\n      0x70a08231\n        /* \"FeeSplitter.sol\":2150:2154  this */\n      address\n        /* \"FeeSplitter.sol\":2124:2156  _PTOKEN.balanceOf(address(this)) */\n      mload(0x40)\n      dup3\n      0xffffffff\n      and\n      0xe0\n      shl\n      dup2\n      mstore\n      0x04\n      add\n      tag_89\n      swap2\n      swap1\n      tag_26\n      jump\t// in\n    tag_89:\n      0x20\n      mload(0x40)\n      dup1\n      dup4\n      sub\n      dup2\n      dup7\n      gas\n      staticcall\n      iszero\n      dup1\n      iszero\n      tag_91\n      jumpi\n      returndatasize\n      0x00\n      dup1\n      returndatacopy\n      revert(0x00, returndatasize)\n    tag_91:\n      pop\n      pop\n      pop\n      pop\n      mload(0x40)\n      returndatasize\n      not(0x1f)\n      0x1f\n      dup3\n      add\n      and\n      dup3\n      add\n      dup1\n      0x40\n      mstore\n      pop\n      dup2\n      add\n      swap1\n      tag_92\n      swap2\n      swap1\n      tag_93\n      jump\t// in\n    tag_92:\n        /* \"FeeSplitter.sol\":2124:2162  _PTOKEN.balanceOf(address(this)) * 100 */\n      tag_94\n      swap2\n      swap1\n      tag_95\n      jump\t// in\n    tag_94:\n        /* \"FeeSplitter.sol\":2123:2180  (_PTOKEN.balanceOf(address(this)) * 100 ) / ProfitDivider */\n      tag_96\n      swap2\n      swap1\n      tag_97\n      jump\t// in\n    tag_96:\n        /* \"FeeSplitter.sol\":2106:2180  uint256 profit = (_PTOKEN.balanceOf(address(this)) * 100 ) / ProfitDivider */\n      swap1\n      pop\n        /* \"FeeSplitter.sol\":2193:2246  SafeERC20.safeTransfer(_PTOKEN, EQUALDAO, profit / 2) */\n      tag_98\n        /* \"FeeSplitter.sol\":2216:2223  _PTOKEN */\n      immutable(\"0x7173bb0c0c341c627c9734f9095ef27b00afaca222d0fccf9d280fbad8b7c078\")\n        /* \"FeeSplitter.sol\":2225:2233  EQUALDAO */\n      0x05\n      0x00\n      swap1\n      sload\n      swap1\n      0x0100\n      exp\n      swap1\n      div\n      0xffffffffffffffffffffffffffffffffffffffff\n      and\n        /* \"FeeSplitter.sol\":2244:2245  2 */\n      0x02\n        /* \"FeeSplitter.sol\":2235:2241  profit */\n      dup5\n        /* \"FeeSplitter.sol\":2235:2245  profit / 2 */\n      tag_99\n      swap2\n      swap1\n      tag_97\n      jump\t// in\n    tag_99:\n        /* \"FeeSplitter.sol\":2193:2215  SafeERC20.safeTransfer */\n      tag_100\n        /* \"FeeSplitter.sol\":2193:2246  SafeERC20.safeTransfer(_PTOKEN, EQUALDAO, profit / 2) */\n      jump\t// in\n    tag_98:\n        /* \"FeeSplitter.sol\":2257:2310  SafeERC20.safeTransfer(_PTOKEN, PANTHEON, profit / 2) */\n      tag_101\n        /* \"FeeSplitter.sol\":2280:2287  _PTOKEN */\n      immutable(\"0x7173bb0c0c341c627c9734f9095ef27b00afaca222d0fccf9d280fbad8b7c078\")\n        /* \"FeeSplitter.sol\":2289:2297  PANTHEON */\n      0x04\n      0x00\n      swap1\n      sload\n      swap1\n      0x0100\n      exp\n      swap1\n      div\n      0xffffffffffffffffffffffffffffffffffffffff\n      and\n        /* \"FeeSplitter.sol\":2308:2309  2 */\n      0x02\n        /* \"FeeSplitter.sol\":2299:2305  profit */\n      dup5\n        /* \"FeeSplitter.sol\":2299:2309  profit / 2 */\n      tag_102\n      swap2\n      swap1\n      tag_97\n      jump\t// in\n    tag_102:\n        /* \"FeeSplitter.sol\":2257:2279  SafeERC20.safeTransfer */\n      tag_100\n        /* \"FeeSplitter.sol\":2257:2310  SafeERC20.safeTransfer(_PTOKEN, PANTHEON, profit / 2) */\n      jump\t// in\n    tag_101:\n        /* \"FeeSplitter.sol\":2323:2340  uint256 remaining */\n      0x00\n        /* \"FeeSplitter.sol\":2343:2350  _PTOKEN */\n      immutable(\"0x7173bb0c0c341c627c9734f9095ef27b00afaca222d0fccf9d280fbad8b7c078\")\n        /* \"FeeSplitter.sol\":2343:2360  _PTOKEN.balanceOf */\n      0xffffffffffffffffffffffffffffffffffffffff\n      and\n      0x70a08231\n        /* \"FeeSplitter.sol\":2369:2373  this */\n      address\n        /* \"FeeSplitter.sol\":2343:2375  _PTOKEN.balanceOf(address(this)) */\n      mload(0x40)\n      dup3\n      0xffffffff\n      and\n      0xe0\n      shl\n      dup2\n      mstore\n      0x04\n      add\n      tag_103\n      swap2\n      swap1\n      tag_26\n      jump\t// in\n    tag_103:\n      0x20\n      mload(0x40)\n      dup1\n      dup4\n      sub\n      dup2\n      dup7\n      gas\n      staticcall\n      iszero\n      dup1\n      iszero\n      tag_105\n      jumpi\n      returndatasize\n      0x00\n      dup1\n      returndatacopy\n      revert(0x00, returndatasize)\n    tag_105:\n      pop\n      pop\n      pop\n      pop\n      mload(0x40)\n      returndatasize\n      not(0x1f)\n      0x1f\n      dup3\n      add\n      and\n      dup3\n      add\n      dup1\n      0x40\n      mstore\n      pop\n      dup2\n      add\n      swap1\n      tag_106\n      swap2\n      swap1\n      tag_93\n      jump\t// in\n    tag_106:\n        /* \"FeeSplitter.sol\":2323:2375  uint256 remaining = _PTOKEN.balanceOf(address(this)) */\n      swap1\n      pop\n        /* \"FeeSplitter.sol\":2388:2438  SafeERC20.safeTransfer(_PTOKEN, BRIBES, remaining) */\n      tag_107\n        /* \"FeeSplitter.sol\":2411:2418  _PTOKEN */\n      immutable(\"0x7173bb0c0c341c627c9734f9095ef27b00afaca222d0fccf9d280fbad8b7c078\")\n        /* \"FeeSplitter.sol\":2420:2426  BRIBES */\n      0x03\n      0x00\n      swap1\n      sload\n      swap1\n      0x0100\n      exp\n      swap1\n      div\n      0xffffffffffffffffffffffffffffffffffffffff\n      and\n        /* \"FeeSplitter.sol\":2428:2437  remaining */\n      dup4\n        /* \"FeeSplitter.sol\":2388:2410  SafeERC20.safeTransfer */\n      tag_100\n        /* \"FeeSplitter.sol\":2388:2438  SafeERC20.safeTransfer(_PTOKEN, BRIBES, remaining) */\n      jump\t// in\n    tag_107:\n        /* \"FeeSplitter.sol\":2464:2473  remaining */\n      dup1\n        /* \"FeeSplitter.sol\":2449:2460  totalBribes */\n      0x07\n      0x00\n        /* \"FeeSplitter.sol\":2449:2473  totalBribes += remaining */\n      dup3\n      dup3\n      sload\n      tag_108\n      swap2\n      swap1\n      tag_109\n      jump\t// in\n    tag_108:\n      swap3\n      pop\n      pop\n      dup2\n      swap1\n      sstore\n      pop\n        /* \"FeeSplitter.sol\":2524:2533  remaining */\n      dup1\n        /* \"FeeSplitter.sol\":2516:2522  profit */\n      dup3\n        /* \"FeeSplitter.sol\":2499:2514  block.timestamp */\n      timestamp\n        /* \"FeeSplitter.sol\":2491:2534  FeeSent(block.timestamp, profit, remaining) */\n      0x50efd2f2f250964da5961d710f9e330ea396faec8ef1e3dad48ff354a629d382\n      mload(0x40)\n      mload(0x40)\n      dup1\n      swap2\n      sub\n      swap1\n      log4\n        /* \"FeeSplitter.sol\":2095:2542  {... */\n      pop\n      pop\n        /* \"FeeSplitter.sol\":2055:2542  function splitFees() external onlyOwner {... */\n      jump\t// out\n        /* \"@openzeppelin/contracts@v4.9.3/access/Ownable.sol\":2426:2613  function _transferOwnership(address newOwner) internal virtual {... */\n    tag_49:\n        /* \"@openzeppelin/contracts@v4.9.3/access/Ownable.sol\":2499:2515  address oldOwner */\n      0x00\n        /* \"@openzeppelin/contracts@v4.9.3/access/Ownable.sol\":2518:2524  _owner */\n      dup1\n      0x00\n      swap1\n      sload\n      swap1\n      0x0100\n      exp\n      swap1\n      div\n      0xffffffffffffffffffffffffffffffffffffffff\n      and\n        /* \"@openzeppelin/contracts@v4.9.3/access/Ownable.sol\":2499:2524  address oldOwner = _owner */\n      swap1\n      pop\n        /* \"@openzeppelin/contracts@v4.9.3/access/Ownable.sol\":2543:2551  newOwner */\n      dup2\n        /* \"@openzeppelin/contracts@v4.9.3/access/Ownable.sol\":2534:2540  _owner */\n      0x00\n      dup1\n        /* \"@openzeppelin/contracts@v4.9.3/access/Ownable.sol\":2534:2551  _owner = newOwner */\n      0x0100\n      exp\n      dup2\n      sload\n      dup2\n      0xffffffffffffffffffffffffffffffffffffffff\n      mul\n      not\n      and\n      swap1\n      dup4\n      0xffffffffffffffffffffffffffffffffffffffff\n      and\n      mul\n      or\n      swap1\n      sstore\n      pop\n        /* \"@openzeppelin/contracts@v4.9.3/access/Ownable.sol\":2597:2605  newOwner */\n      dup2\n        /* \"@openzeppelin/contracts@v4.9.3/access/Ownable.sol\":2566:2606  OwnershipTransferred(oldOwner, newOwner) */\n      0xffffffffffffffffffffffffffffffffffffffff\n      and\n        /* \"@openzeppelin/contracts@v4.9.3/access/Ownable.sol\":2587:2595  oldOwner */\n      dup2\n        /* \"@openzeppelin/contracts@v4.9.3/access/Ownable.sol\":2566:2606  OwnershipTransferred(oldOwner, newOwner) */\n      0xffffffffffffffffffffffffffffffffffffffff\n      and\n      0x8be0079c531659141344cd1fd0a4f28419497f9722a3daafe3b4186f6b6457e0\n      mload(0x40)\n      mload(0x40)\n      dup1\n      swap2\n      sub\n      swap1\n      log3\n        /* \"@openzeppelin/contracts@v4.9.3/access/Ownable.sol\":2489:2613  {... */\n      pop\n        /* \"@openzeppelin/contracts@v4.9.3/access/Ownable.sol\":2426:2613  function _transferOwnership(address newOwner) internal virtual {... */\n      pop\n      jump\t// out\n        /* \"@openzeppelin/contracts@v4.9.3/access/Ownable.sol\":1359:1489  function _checkOwner() internal view virtual {... */\n    tag_52:\n        /* \"@openzeppelin/contracts@v4.9.3/access/Ownable.sol\":1433:1445  _msgSender() */\n      tag_112\n        /* \"@openzeppelin/contracts@v4.9.3/access/Ownable.sol\":1433:1443  _msgSender */\n      tag_62\n        /* \"@openzeppelin/contracts@v4.9.3/access/Ownable.sol\":1433:1445  _msgSender() */\n      jump\t// in\n    tag_112:\n        /* \"@openzeppelin/contracts@v4.9.3/access/Ownable.sol\":1422:1445  owner() == _msgSender() */\n      0xffffffffffffffffffffffffffffffffffffffff\n      and\n        /* \"@openzeppelin/contracts@v4.9.3/access/Ownable.sol\":1422:1429  owner() */\n      tag_113\n        /* \"@openzeppelin/contracts@v4.9.3/access/Ownable.sol\":1422:1427  owner */\n      tag_24\n        /* \"@openzeppelin/contracts@v4.9.3/access/Ownable.sol\":1422:1429  owner() */\n      jump\t// in\n    tag_113:\n        /* \"@openzeppelin/contracts@v4.9.3/access/Ownable.sol\":1422:1445  owner() == _msgSender() */\n      0xffffffffffffffffffffffffffffffffffffffff\n      and\n      eq\n        /* \"@openzeppelin/contracts@v4.9.3/access/Ownable.sol\":1414:1482  require(owner() == _msgSender(), \"Ownable: caller is not the owner\") */\n      tag_114\n      jumpi\n      mload(0x40)\n      0x08c379a000000000000000000000000000000000000000000000000000000000\n      dup2\n      mstore\n      0x04\n      add\n      tag_115\n      swap1\n      tag_116\n      jump\t// in\n    tag_115:\n      mload(0x40)\n      dup1\n      swap2\n      sub\n      swap1\n      revert\n    tag_114:\n        /* \"@openzeppelin/contracts@v4.9.3/access/Ownable.sol\":1359:1489  function _checkOwner() internal view virtual {... */\n      jump\t// out\n        /* \"@openzeppelin/contracts@v4.9.3/access/Ownable2Step.sol\":1501:1654  function _transferOwnership(address newOwner) internal virtual override {... */\n    tag_59:\n        /* \"@openzeppelin/contracts@v4.9.3/access/Ownable2Step.sol\":1590:1603  _pendingOwner */\n      0x01\n      0x00\n        /* \"@openzeppelin/contracts@v4.9.3/access/Ownable2Step.sol\":1583:1603  delete _pendingOwner */\n      0x0100\n      exp\n      dup2\n      sload\n      swap1\n      0xffffffffffffffffffffffffffffffffffffffff\n      mul\n      not\n      and\n      swap1\n      sstore\n        /* \"@openzeppelin/contracts@v4.9.3/access/Ownable2Step.sol\":1613:1647  super._transferOwnership(newOwner) */\n      tag_118\n        /* \"@openzeppelin/contracts@v4.9.3/access/Ownable2Step.sol\":1638:1646  newOwner */\n      dup2\n        /* \"@openzeppelin/contracts@v4.9.3/access/Ownable2Step.sol\":1613:1637  super._transferOwnership */\n      tag_49\n        /* \"@openzeppelin/contracts@v4.9.3/access/Ownable2Step.sol\":1613:1647  super._transferOwnership(newOwner) */\n      jump\t// in\n    tag_118:\n        /* \"@openzeppelin/contracts@v4.9.3/access/Ownable2Step.sol\":1501:1654  function _transferOwnership(address newOwner) internal virtual override {... */\n      pop\n      jump\t// out\n        /* \"@openzeppelin/contracts@v4.9.3/utils/Context.sol\":640:736  function _msgSender() internal view virtual returns (address) {... */\n    tag_62:\n        /* \"@openzeppelin/contracts@v4.9.3/utils/Context.sol\":693:700  address */\n      0x00\n        /* \"@openzeppelin/contracts@v4.9.3/utils/Context.sol\":719:729  msg.sender */\n      caller\n        /* \"@openzeppelin/contracts@v4.9.3/utils/Context.sol\":712:729  return msg.sender */\n      swap1\n      pop\n        /* \"@openzeppelin/contracts@v4.9.3/utils/Context.sol\":640:736  function _msgSender() internal view virtual returns (address) {... */\n      swap1\n      jump\t// out\n        /* \"@openzeppelin/contracts@v4.9.3/token/ERC20/utils/SafeERC20.sol\":941:1116  function safeTransfer(IERC20 token, address to, uint256 value) internal {... */\n    tag_100:\n        /* \"@openzeppelin/contracts@v4.9.3/token/ERC20/utils/SafeERC20.sol\":1023:1109  _callOptionalReturn(token, abi.encodeWithSelector(token.transfer.selector, to, value)) */\n      tag_121\n        /* \"@openzeppelin/contracts@v4.9.3/token/ERC20/utils/SafeERC20.sol\":1043:1048  token */\n      dup4\n        /* \"@openzeppelin/contracts@v4.9.3/token/ERC20/utils/SafeERC20.sol\":1073:1096  token.transfer.selector */\n      shl(0xe0, 0xa9059cbb)\n        /* \"@openzeppelin/contracts@v4.9.3/token/ERC20/utils/SafeERC20.sol\":1098:1100  to */\n      dup5\n        /* \"@openzeppelin/contracts@v4.9.3/token/ERC20/utils/SafeERC20.sol\":1102:1107  value */\n      dup5\n        /* \"@openzeppelin/contracts@v4.9.3/token/ERC20/utils/SafeERC20.sol\":1050:1108  abi.encodeWithSelector(token.transfer.selector, to, value) */\n      add(0x24, mload(0x40))\n      tag_122\n      swap3\n      swap2\n      swap1\n      tag_123\n      jump\t// in\n    tag_122:\n      mload(0x40)\n      0x20\n      dup2\n      dup4\n      sub\n      sub\n      dup2\n      mstore\n      swap1\n      0x40\n      mstore\n      swap1\n      not(0xffffffffffffffffffffffffffffffffffffffffffffffffffffffff)\n      and\n      0x20\n      dup3\n      add\n      dup1\n      mload\n      0xffffffffffffffffffffffffffffffffffffffffffffffffffffffff\n      dup4\n      dup2\n      dup4\n      and\n      or\n      dup4\n      mstore\n      pop\n      pop\n      pop\n      pop\n        /* \"@openzeppelin/contracts@v4.9.3/token/ERC20/utils/SafeERC20.sol\":1023:1042  _callOptionalReturn */\n      tag_124\n        /* \"@openzeppelin/contracts@v4.9.3/token/ERC20/utils/SafeERC20.sol\":1023:1109  _callOptionalReturn(token, abi.encodeWithSelector(token.transfer.selector, to, value)) */\n      jump\t// in\n    tag_121:\n        /* \"@openzeppelin/contracts@v4.9.3/token/ERC20/utils/SafeERC20.sol\":941:1116  function safeTransfer(IERC20 token, address to, uint256 value) internal {... */\n      pop\n      pop\n      pop\n      jump\t// out\n        /* \"@openzeppelin/contracts@v4.9.3/token/ERC20/utils/SafeERC20.sol\":5196:5838  function _callOptionalReturn(IERC20 token, bytes memory data) private {... */\n    tag_124:\n        /* \"@openzeppelin/contracts@v4.9.3/token/ERC20/utils/SafeERC20.sol\":5615:5638  bytes memory returndata */\n      0x00\n        /* \"@openzeppelin/contracts@v4.9.3/token/ERC20/utils/SafeERC20.sol\":5641:5710  address(token).functionCall(data, \"SafeERC20: low-level call failed\") */\n      tag_126\n        /* \"@openzeppelin/contracts@v4.9.3/token/ERC20/utils/SafeERC20.sol\":5669:5673  data */\n      dup3\n        /* \"@openzeppelin/contracts@v4.9.3/token/ERC20/utils/SafeERC20.sol\":5641:5710  address(token).functionCall(data, \"SafeERC20: low-level call failed\") */\n      mload(0x40)\n      dup1\n      0x40\n      add\n      0x40\n      mstore\n      dup1\n      0x20\n      dup2\n      mstore\n      0x20\n      add\n      0x5361666545524332303a206c6f772d6c6576656c2063616c6c206661696c6564\n      dup2\n      mstore\n      pop\n        /* \"@openzeppelin/contracts@v4.9.3/token/ERC20/utils/SafeERC20.sol\":5649:5654  token */\n      dup6\n        /* \"@openzeppelin/contracts@v4.9.3/token/ERC20/utils/SafeERC20.sol\":5641:5668  address(token).functionCall */\n      0xffffffffffffffffffffffffffffffffffffffff\n      and\n      tag_127\n      swap1\n        /* \"@openzeppelin/contracts@v4.9.3/token/ERC20/utils/SafeERC20.sol\":5641:5710  address(token).functionCall(data, \"SafeERC20: low-level call failed\") */\n      swap3\n      swap2\n      swap1\n      0xffffffff\n      and\n      jump\t// in\n    tag_126:\n        /* \"@openzeppelin/contracts@v4.9.3/token/ERC20/utils/SafeERC20.sol\":5615:5710  bytes memory returndata = address(token).functionCall(data, \"SafeERC20: low-level call failed\") */\n      swap1\n      pop\n        /* \"@openzeppelin/contracts@v4.9.3/token/ERC20/utils/SafeERC20.sol\":5749:5750  0 */\n      0x00\n        /* \"@openzeppelin/contracts@v4.9.3/token/ERC20/utils/SafeERC20.sol\":5728:5738  returndata */\n      dup2\n        /* \"@openzeppelin/contracts@v4.9.3/token/ERC20/utils/SafeERC20.sol\":5728:5745  returndata.length */\n      mload\n        /* \"@openzeppelin/contracts@v4.9.3/token/ERC20/utils/SafeERC20.sol\":5728:5750  returndata.length == 0 */\n      eq\n        /* \"@openzeppelin/contracts@v4.9.3/token/ERC20/utils/SafeERC20.sol\":5728:5784  returndata.length == 0 || abi.decode(returndata, (bool)) */\n      dup1\n      tag_128\n      jumpi\n      pop\n        /* \"@openzeppelin/contracts@v4.9.3/token/ERC20/utils/SafeERC20.sol\":5765:5775  returndata */\n      dup1\n        /* \"@openzeppelin/contracts@v4.9.3/token/ERC20/utils/SafeERC20.sol\":5754:5784  abi.decode(returndata, (bool)) */\n      dup1\n      0x20\n      add\n      swap1\n      mload\n      dup2\n      add\n      swap1\n      tag_129\n      swap2\n      swap1\n      tag_130\n      jump\t// in\n    tag_129:\n        /* \"@openzeppelin/contracts@v4.9.3/token/ERC20/utils/SafeERC20.sol\":5728:5784  returndata.length == 0 || abi.decode(returndata, (bool)) */\n    tag_128:\n        /* \"@openzeppelin/contracts@v4.9.3/token/ERC20/utils/SafeERC20.sol\":5720:5831  require(returndata.length == 0 || abi.decode(returndata, (bool)), \"SafeERC20: ERC20 operation did not succeed\") */\n      tag_131\n      jumpi\n      mload(0x40)\n      0x08c379a000000000000000000000000000000000000000000000000000000000\n      dup2\n      mstore\n      0x04\n      add\n      tag_132\n      swap1\n      tag_133\n      jump\t// in\n    tag_132:\n      mload(0x40)\n      dup1\n      swap2\n      sub\n      swap1\n      revert\n    tag_131:\n        /* \"@openzeppelin/contracts@v4.9.3/token/ERC20/utils/SafeERC20.sol\":5266:5838  {... */\n      pop\n        /* \"@openzeppelin/contracts@v4.9.3/token/ERC20/utils/SafeERC20.sol\":5196:5838  function _callOptionalReturn(IERC20 token, bytes memory data) private {... */\n      pop\n      pop\n      jump\t// out\n        /* \"@openzeppelin/contracts@v4.9.3/utils/Address.sol\":4108:4331  function functionCall(... */\n    tag_127:\n        /* \"@openzeppelin/contracts@v4.9.3/utils/Address.sol\":4241:4253  bytes memory */\n      0x60\n        /* \"@openzeppelin/contracts@v4.9.3/utils/Address.sol\":4272:4324  functionCallWithValue(target, data, 0, errorMessage) */\n      tag_135\n        /* \"@openzeppelin/contracts@v4.9.3/utils/Address.sol\":4294:4300  target */\n      dup5\n        /* \"@openzeppelin/contracts@v4.9.3/utils/Address.sol\":4302:4306  data */\n      dup5\n        /* \"@openzeppelin/contracts@v4.9.3/utils/Address.sol\":4308:4309  0 */\n      0x00\n        /* \"@openzeppelin/contracts@v4.9.3/utils/Address.sol\":4311:4323  errorMessage */\n      dup6\n        /* \"@openzeppelin/contracts@v4.9.3/utils/Address.sol\":4272:4293  functionCallWithValue */\n      tag_136\n        /* \"@openzeppelin/contracts@v4.9.3/utils/Address.sol\":4272:4324  functionCallWithValue(target, data, 0, errorMessage) */\n      jump\t// in\n    tag_135:\n        /* \"@openzeppelin/contracts@v4.9.3/utils/Address.sol\":4265:4324  return functionCallWithValue(target, data, 0, errorMessage) */\n      swap1\n      pop\n        /* \"@openzeppelin/contracts@v4.9.3/utils/Address.sol\":4108:4331  function functionCall(... */\n      swap4\n      swap3\n      pop\n      pop\n      pop\n      jump\t// out\n        /* \"@openzeppelin/contracts@v4.9.3/utils/Address.sol\":5165:5611  function functionCallWithValue(... */\n    tag_136:\n        /* \"@openzeppelin/contracts@v4.9.3/utils/Address.sol\":5330:5342  bytes memory */\n      0x60\n        /* \"@openzeppelin/contracts@v4.9.3/utils/Address.sol\":5387:5392  value */\n      dup3\n        /* \"@openzeppelin/contracts@v4.9.3/utils/Address.sol\":5362:5383  address(this).balance */\n      selfbalance\n        /* \"@openzeppelin/contracts@v4.9.3/utils/Address.sol\":5362:5392  address(this).balance >= value */\n      lt\n      iszero\n        /* \"@openzeppelin/contracts@v4.9.3/utils/Address.sol\":5354:5435  require(address(this).balance >= value, \"Address: insufficient balance for call\") */\n      tag_138\n      jumpi\n      mload(0x40)\n      0x08c379a000000000000000000000000000000000000000000000000000000000\n      dup2\n      mstore\n      0x04\n      add\n      tag_139\n      swap1\n      tag_140\n      jump\t// in\n    tag_139:\n      mload(0x40)\n      dup1\n      swap2\n      sub\n      swap1\n      revert\n    tag_138:\n        /* \"@openzeppelin/contracts@v4.9.3/utils/Address.sol\":5446:5458  bool success */\n      0x00\n        /* \"@openzeppelin/contracts@v4.9.3/utils/Address.sol\":5460:5483  bytes memory returndata */\n      dup1\n        /* \"@openzeppelin/contracts@v4.9.3/utils/Address.sol\":5487:5493  target */\n      dup7\n        /* \"@openzeppelin/contracts@v4.9.3/utils/Address.sol\":5487:5498  target.call */\n      0xffffffffffffffffffffffffffffffffffffffff\n      and\n        /* \"@openzeppelin/contracts@v4.9.3/utils/Address.sol\":5506:5511  value */\n      dup6\n        /* \"@openzeppelin/contracts@v4.9.3/utils/Address.sol\":5513:5517  data */\n      dup8\n        /* \"@openzeppelin/contracts@v4.9.3/utils/Address.sol\":5487:5518  target.call{value: value}(data) */\n      mload(0x40)\n      tag_141\n      swap2\n      swap1\n      tag_142\n      jump\t// in\n    tag_141:\n      0x00\n      mload(0x40)\n      dup1\n      dup4\n      sub\n      dup2\n      dup6\n      dup8\n      gas\n      call\n      swap3\n      pop\n      pop\n      pop\n      returndatasize\n      dup1\n      0x00\n      dup2\n      eq\n      tag_145\n      jumpi\n      mload(0x40)\n      swap2\n      pop\n      and(add(returndatasize, 0x3f), not(0x1f))\n      dup3\n      add\n      0x40\n      mstore\n      returndatasize\n      dup3\n      mstore\n      returndatasize\n      0x00\n      0x20\n      dup5\n      add\n      returndatacopy\n      jump(tag_144)\n    tag_145:\n      0x60\n      swap2\n      pop\n    tag_144:\n      pop\n        /* \"@openzeppelin/contracts@v4.9.3/utils/Address.sol\":5445:5518  (bool success, bytes memory returndata) = target.call{value: value}(data) */\n      swap2\n      pop\n      swap2\n      pop\n        /* \"@openzeppelin/contracts@v4.9.3/utils/Address.sol\":5535:5604  verifyCallResultFromTarget(target, success, returndata, errorMessage) */\n      tag_146\n        /* \"@openzeppelin/contracts@v4.9.3/utils/Address.sol\":5562:5568  target */\n      dup8\n        /* \"@openzeppelin/contracts@v4.9.3/utils/Address.sol\":5570:5577  success */\n      dup4\n        /* \"@openzeppelin/contracts@v4.9.3/utils/Address.sol\":5579:5589  returndata */\n      dup4\n        /* \"@openzeppelin/contracts@v4.9.3/utils/Address.sol\":5591:5603  errorMessage */\n      dup8\n        /* \"@openzeppelin/contracts@v4.9.3/utils/Address.sol\":5535:5561  verifyCallResultFromTarget */\n      tag_147\n        /* \"@openzeppelin/contracts@v4.9.3/utils/Address.sol\":5535:5604  verifyCallResultFromTarget(target, success, returndata, errorMessage) */\n      jump\t// in\n    tag_146:\n        /* \"@openzeppelin/contracts@v4.9.3/utils/Address.sol\":5528:5604  return verifyCallResultFromTarget(target, success, returndata, errorMessage) */\n      swap3\n      pop\n      pop\n      pop\n        /* \"@openzeppelin/contracts@v4.9.3/utils/Address.sol\":5165:5611  function functionCallWithValue(... */\n      swap5\n      swap4\n      pop\n      pop\n      pop\n      pop\n      jump\t// out\n        /* \"@openzeppelin/contracts@v4.9.3/utils/Address.sol\":7671:8299  function verifyCallResultFromTarget(... */\n    tag_147:\n        /* \"@openzeppelin/contracts@v4.9.3/utils/Address.sol\":7851:7863  bytes memory */\n      0x60\n        /* \"@openzeppelin/contracts@v4.9.3/utils/Address.sol\":7879:7886  success */\n      dup4\n        /* \"@openzeppelin/contracts@v4.9.3/utils/Address.sol\":7875:8293  if (success) {... */\n      iszero\n      tag_149\n      jumpi\n        /* \"@openzeppelin/contracts@v4.9.3/utils/Address.sol\":7927:7928  0 */\n      0x00\n        /* \"@openzeppelin/contracts@v4.9.3/utils/Address.sol\":7906:7916  returndata */\n      dup4\n        /* \"@openzeppelin/contracts@v4.9.3/utils/Address.sol\":7906:7923  returndata.length */\n      mload\n        /* \"@openzeppelin/contracts@v4.9.3/utils/Address.sol\":7906:7928  returndata.length == 0 */\n      sub\n        /* \"@openzeppelin/contracts@v4.9.3/utils/Address.sol\":7902:8188  if (returndata.length == 0) {... */\n      tag_150\n      jumpi\n        /* \"@openzeppelin/contracts@v4.9.3/utils/Address.sol\":8121:8139  isContract(target) */\n      tag_151\n        /* \"@openzeppelin/contracts@v4.9.3/utils/Address.sol\":8132:8138  target */\n      dup6\n        /* \"@openzeppelin/contracts@v4.9.3/utils/Address.sol\":8121:8131  isContract */\n      tag_152\n        /* \"@openzeppelin/contracts@v4.9.3/utils/Address.sol\":8121:8139  isContract(target) */\n      jump\t// in\n    tag_151:\n        /* \"@openzeppelin/contracts@v4.9.3/utils/Address.sol\":8113:8173  require(isContract(target), \"Address: call to non-contract\") */\n      tag_153\n      jumpi\n      mload(0x40)\n      0x08c379a000000000000000000000000000000000000000000000000000000000\n      dup2\n      mstore\n      0x04\n      add\n      tag_154\n      swap1\n      tag_155\n      jump\t// in\n    tag_154:\n      mload(0x40)\n      dup1\n      swap2\n      sub\n      swap1\n      revert\n    tag_153:\n        /* \"@openzeppelin/contracts@v4.9.3/utils/Address.sol\":7902:8188  if (returndata.length == 0) {... */\n    tag_150:\n        /* \"@openzeppelin/contracts@v4.9.3/utils/Address.sol\":8208:8218  returndata */\n      dup3\n        /* \"@openzeppelin/contracts@v4.9.3/utils/Address.sol\":8201:8218  return returndata */\n      swap1\n      pop\n      jump(tag_148)\n        /* \"@openzeppelin/contracts@v4.9.3/utils/Address.sol\":7875:8293  if (success) {... */\n    tag_149:\n        /* \"@openzeppelin/contracts@v4.9.3/utils/Address.sol\":8249:8282  _revert(returndata, errorMessage) */\n      tag_157\n        /* \"@openzeppelin/contracts@v4.9.3/utils/Address.sol\":8257:8267  returndata */\n      dup4\n        /* \"@openzeppelin/contracts@v4.9.3/utils/Address.sol\":8269:8281  errorMessage */\n      dup4\n        /* \"@openzeppelin/contracts@v4.9.3/utils/Address.sol\":8249:8256  _revert */\n      tag_158\n        /* \"@openzeppelin/contracts@v4.9.3/utils/Address.sol\":8249:8282  _revert(returndata, errorMessage) */\n      jump\t// in\n    tag_157:\n        /* \"@openzeppelin/contracts@v4.9.3/utils/Address.sol\":7671:8299  function verifyCallResultFromTarget(... */\n    tag_148:\n      swap5\n      swap4\n      pop\n      pop\n      pop\n      pop\n      jump\t// out\n        /* \"@openzeppelin/contracts@v4.9.3/utils/Address.sol\":1412:1732  function isContract(address account) internal view returns (bool) {... */\n    tag_152:\n        /* \"@openzeppelin/contracts@v4.9.3/utils/Address.sol\":1472:1476  bool */\n      0x00\n        /* \"@openzeppelin/contracts@v4.9.3/utils/Address.sol\":1724:1725  0 */\n      dup1\n        /* \"@openzeppelin/contracts@v4.9.3/utils/Address.sol\":1702:1709  account */\n      dup3\n        /* \"@openzeppelin/contracts@v4.9.3/utils/Address.sol\":1702:1721  account.code.length */\n      0xffffffffffffffffffffffffffffffffffffffff\n      and\n      extcodesize\n        /* \"@openzeppelin/contracts@v4.9.3/utils/Address.sol\":1702:1725  account.code.length > 0 */\n      gt\n        /* \"@openzeppelin/contracts@v4.9.3/utils/Address.sol\":1695:1725  return account.code.length > 0 */\n      swap1\n      pop\n        /* \"@openzeppelin/contracts@v4.9.3/utils/Address.sol\":1412:1732  function isContract(address account) internal view returns (bool) {... */\n      swap2\n      swap1\n      pop\n      jump\t// out\n        /* \"@openzeppelin/contracts@v4.9.3/utils/Address.sol\":8821:9361  function _revert(bytes memory returndata, string memory errorMessage) private pure {... */\n    tag_158:\n        /* \"@openzeppelin/contracts@v4.9.3/utils/Address.sol\":9000:9001  0 */\n      0x00\n        /* \"@openzeppelin/contracts@v4.9.3/utils/Address.sol\":8980:8990  returndata */\n      dup3\n        /* \"@openzeppelin/contracts@v4.9.3/utils/Address.sol\":8980:8997  returndata.length */\n      mload\n        /* \"@openzeppelin/contracts@v4.9.3/utils/Address.sol\":8980:9001  returndata.length > 0 */\n      gt\n        /* \"@openzeppelin/contracts@v4.9.3/utils/Address.sol\":8976:9355  if (returndata.length > 0) {... */\n      iszero\n      tag_161\n      jumpi\n        /* \"@openzeppelin/contracts@v4.9.3/utils/Address.sol\":9208:9218  returndata */\n      dup2\n        /* \"@openzeppelin/contracts@v4.9.3/utils/Address.sol\":9202:9219  mload(returndata) */\n      mload\n        /* \"@openzeppelin/contracts@v4.9.3/utils/Address.sol\":9264:9279  returndata_size */\n      dup1\n        /* \"@openzeppelin/contracts@v4.9.3/utils/Address.sol\":9251:9261  returndata */\n      dup4\n        /* \"@openzeppelin/contracts@v4.9.3/utils/Address.sol\":9247:9249  32 */\n      0x20\n        /* \"@openzeppelin/contracts@v4.9.3/utils/Address.sol\":9243:9262  add(32, returndata) */\n      add\n        /* \"@openzeppelin/contracts@v4.9.3/utils/Address.sol\":9236:9280  revert(add(32, returndata), returndata_size) */\n      revert\n        /* \"@openzeppelin/contracts@v4.9.3/utils/Address.sol\":8976:9355  if (returndata.length > 0) {... */\n    tag_161:\n        /* \"@openzeppelin/contracts@v4.9.3/utils/Address.sol\":9331:9343  errorMessage */\n      dup1\n        /* \"@openzeppelin/contracts@v4.9.3/utils/Address.sol\":9324:9344  revert(errorMessage) */\n      mload(0x40)\n      0x08c379a000000000000000000000000000000000000000000000000000000000\n      dup2\n      mstore\n      0x04\n      add\n      tag_163\n      swap2\n      swap1\n      tag_164\n      jump\t// in\n    tag_163:\n      mload(0x40)\n      dup1\n      swap2\n      sub\n      swap1\n      revert\n        /* \"#utility.yul\":88:205   */\n    tag_166:\n        /* \"#utility.yul\":197:198   */\n      0x00\n        /* \"#utility.yul\":194:195   */\n      dup1\n        /* \"#utility.yul\":187:199   */\n      revert\n        /* \"#utility.yul\":334:460   */\n    tag_168:\n        /* \"#utility.yul\":371:378   */\n      0x00\n        /* \"#utility.yul\":411:453   */\n      0xffffffffffffffffffffffffffffffffffffffff\n        /* \"#utility.yul\":404:409   */\n      dup3\n        /* \"#utility.yul\":400:454   */\n      and\n        /* \"#utility.yul\":389:454   */\n      swap1\n      pop\n        /* \"#utility.yul\":334:460   */\n      swap2\n      swap1\n      pop\n      jump\t// out\n        /* \"#utility.yul\":466:562   */\n    tag_169:\n        /* \"#utility.yul\":503:510   */\n      0x00\n        /* \"#utility.yul\":532:556   */\n      tag_207\n        /* \"#utility.yul\":550:555   */\n      dup3\n        /* \"#utility.yul\":532:556   */\n      tag_168\n      jump\t// in\n    tag_207:\n        /* \"#utility.yul\":521:556   */\n      swap1\n      pop\n        /* \"#utility.yul\":466:562   */\n      swap2\n      swap1\n      pop\n      jump\t// out\n        /* \"#utility.yul\":568:690   */\n    tag_170:\n        /* \"#utility.yul\":641:665   */\n      tag_209\n        /* \"#utility.yul\":659:664   */\n      dup2\n        /* \"#utility.yul\":641:665   */\n      tag_169\n      jump\t// in\n    tag_209:\n        /* \"#utility.yul\":634:639   */\n      dup2\n        /* \"#utility.yul\":631:666   */\n      eq\n        /* \"#utility.yul\":621:684   */\n      tag_210\n      jumpi\n        /* \"#utility.yul\":680:681   */\n      0x00\n        /* \"#utility.yul\":677:678   */\n      dup1\n        /* \"#utility.yul\":670:682   */\n      revert\n        /* \"#utility.yul\":621:684   */\n    tag_210:\n        /* \"#utility.yul\":568:690   */\n      pop\n      jump\t// out\n        /* \"#utility.yul\":696:835   */\n    tag_171:\n        /* \"#utility.yul\":742:747   */\n      0x00\n        /* \"#utility.yul\":780:786   */\n      dup2\n        /* \"#utility.yul\":767:787   */\n      calldataload\n        /* \"#utility.yul\":758:787   */\n      swap1\n      pop\n        /* \"#utility.yul\":796:829   */\n      tag_212\n        /* \"#utility.yul\":823:828   */\n      dup2\n        /* \"#utility.yul\":796:829   */\n      tag_170\n      jump\t// in\n    tag_212:\n        /* \"#utility.yul\":696:835   */\n      swap3\n      swap2\n      pop\n      pop\n      jump\t// out\n        /* \"#utility.yul\":841:1170   */\n    tag_17:\n        /* \"#utility.yul\":900:906   */\n      0x00\n        /* \"#utility.yul\":949:951   */\n      0x20\n        /* \"#utility.yul\":937:946   */\n      dup3\n        /* \"#utility.yul\":928:935   */\n      dup5\n        /* \"#utility.yul\":924:947   */\n      sub\n        /* \"#utility.yul\":920:952   */\n      slt\n        /* \"#utility.yul\":917:1036   */\n      iszero\n      tag_214\n      jumpi\n        /* \"#utility.yul\":955:1034   */\n      tag_215\n      tag_166\n      jump\t// in\n    tag_215:\n        /* \"#utility.yul\":917:1036   */\n    tag_214:\n        /* \"#utility.yul\":1075:1076   */\n      0x00\n        /* \"#utility.yul\":1100:1153   */\n      tag_216\n        /* \"#utility.yul\":1145:1152   */\n      dup5\n        /* \"#utility.yul\":1136:1142   */\n      dup3\n        /* \"#utility.yul\":1125:1134   */\n      dup6\n        /* \"#utility.yul\":1121:1143   */\n      add\n        /* \"#utility.yul\":1100:1153   */\n      tag_171\n      jump\t// in\n    tag_216:\n        /* \"#utility.yul\":1090:1153   */\n      swap2\n      pop\n        /* \"#utility.yul\":1046:1163   */\n      pop\n        /* \"#utility.yul\":841:1170   */\n      swap3\n      swap2\n      pop\n      pop\n      jump\t// out\n        /* \"#utility.yul\":1176:1294   */\n    tag_172:\n        /* \"#utility.yul\":1263:1287   */\n      tag_218\n        /* \"#utility.yul\":1281:1286   */\n      dup2\n        /* \"#utility.yul\":1263:1287   */\n      tag_169\n      jump\t// in\n    tag_218:\n        /* \"#utility.yul\":1258:1261   */\n      dup3\n        /* \"#utility.yul\":1251:1288   */\n      mstore\n        /* \"#utility.yul\":1176:1294   */\n      pop\n      pop\n      jump\t// out\n        /* \"#utility.yul\":1300:1522   */\n    tag_26:\n        /* \"#utility.yul\":1393:1397   */\n      0x00\n        /* \"#utility.yul\":1431:1433   */\n      0x20\n        /* \"#utility.yul\":1420:1429   */\n      dup3\n        /* \"#utility.yul\":1416:1434   */\n      add\n        /* \"#utility.yul\":1408:1434   */\n      swap1\n      pop\n        /* \"#utility.yul\":1444:1515   */\n      tag_220\n        /* \"#utility.yul\":1512:1513   */\n      0x00\n        /* \"#utility.yul\":1501:1510   */\n      dup4\n        /* \"#utility.yul\":1497:1514   */\n      add\n        /* \"#utility.yul\":1488:1494   */\n      dup5\n        /* \"#utility.yul\":1444:1515   */\n      tag_172\n      jump\t// in\n    tag_220:\n        /* \"#utility.yul\":1300:1522   */\n      swap3\n      swap2\n      pop\n      pop\n      jump\t// out\n        /* \"#utility.yul\":1528:1605   */\n    tag_173:\n        /* \"#utility.yul\":1565:1572   */\n      0x00\n        /* \"#utility.yul\":1594:1599   */\n      dup2\n        /* \"#utility.yul\":1583:1599   */\n      swap1\n      pop\n        /* \"#utility.yul\":1528:1605   */\n      swap2\n      swap1\n      pop\n      jump\t// out\n        /* \"#utility.yul\":1611:1729   */\n    tag_174:\n        /* \"#utility.yul\":1698:1722   */\n      tag_223\n        /* \"#utility.yul\":1716:1721   */\n      dup2\n        /* \"#utility.yul\":1698:1722   */\n      tag_173\n      jump\t// in\n    tag_223:\n        /* \"#utility.yul\":1693:1696   */\n      dup3\n        /* \"#utility.yul\":1686:1723   */\n      mstore\n        /* \"#utility.yul\":1611:1729   */\n      pop\n      pop\n      jump\t// out\n        /* \"#utility.yul\":1735:1957   */\n    tag_36:\n        /* \"#utility.yul\":1828:1832   */\n      0x00\n        /* \"#utility.yul\":1866:1868   */\n      0x20\n        /* \"#utility.yul\":1855:1864   */\n      dup3\n        /* \"#utility.yul\":1851:1869   */\n      add\n        /* \"#utility.yul\":1843:1869   */\n      swap1\n      pop\n        /* \"#utility.yul\":1879:1950   */\n      tag_225\n        /* \"#utility.yul\":1947:1948   */\n      0x00\n        /* \"#utility.yul\":1936:1945   */\n      dup4\n        /* \"#utility.yul\":1932:1949   */\n      add\n        /* \"#utility.yul\":1923:1929   */\n      dup5\n        /* \"#utility.yul\":1879:1950   */\n      tag_174\n      jump\t// in\n    tag_225:\n        /* \"#utility.yul\":1735:1957   */\n      swap3\n      swap2\n      pop\n      pop\n      jump\t// out\n        /* \"#utility.yul\":1963:2085   */\n    tag_175:\n        /* \"#utility.yul\":2036:2060   */\n      tag_227\n        /* \"#utility.yul\":2054:2059   */\n      dup2\n        /* \"#utility.yul\":2036:2060   */\n      tag_173\n      jump\t// in\n    tag_227:\n        /* \"#utility.yul\":2029:2034   */\n      dup2\n        /* \"#utility.yul\":2026:2061   */\n      eq\n        /* \"#utility.yul\":2016:2079   */\n      tag_228\n      jumpi\n        /* \"#utility.yul\":2075:2076   */\n      0x00\n        /* \"#utility.yul\":2072:2073   */\n      dup1\n        /* \"#utility.yul\":2065:2077   */\n      revert\n        /* \"#utility.yul\":2016:2079   */\n    tag_228:\n        /* \"#utility.yul\":1963:2085   */\n      pop\n      jump\t// out\n        /* \"#utility.yul\":2091:2230   */\n    tag_176:\n        /* \"#utility.yul\":2137:2142   */\n      0x00\n        /* \"#utility.yul\":2175:2181   */\n      dup2\n        /* \"#utility.yul\":2162:2182   */\n      calldataload\n        /* \"#utility.yul\":2153:2182   */\n      swap1\n      pop\n        /* \"#utility.yul\":2191:2224   */\n      tag_230\n        /* \"#utility.yul\":2218:2223   */\n      dup2\n        /* \"#utility.yul\":2191:2224   */\n      tag_175\n      jump\t// in\n    tag_230:\n        /* \"#utility.yul\":2091:2230   */\n      swap3\n      swap2\n      pop\n      pop\n      jump\t// out\n        /* \"#utility.yul\":2236:2565   */\n    tag_42:\n        /* \"#utility.yul\":2295:2301   */\n      0x00\n        /* \"#utility.yul\":2344:2346   */\n      0x20\n        /* \"#utility.yul\":2332:2341   */\n      dup3\n        /* \"#utility.yul\":2323:2330   */\n      dup5\n        /* \"#utility.yul\":2319:2342   */\n      sub\n        /* \"#utility.yul\":2315:2347   */\n      slt\n        /* \"#utility.yul\":2312:2431   */\n      iszero\n      tag_232\n      jumpi\n        /* \"#utility.yul\":2350:2429   */\n      tag_233\n      tag_166\n      jump\t// in\n    tag_233:\n        /* \"#utility.yul\":2312:2431   */\n    tag_232:\n        /* \"#utility.yul\":2470:2471   */\n      0x00\n        /* \"#utility.yul\":2495:2548   */\n      tag_234\n        /* \"#utility.yul\":2540:2547   */\n      dup5\n        /* \"#utility.yul\":2531:2537   */\n      dup3\n        /* \"#utility.yul\":2520:2529   */\n      dup6\n        /* \"#utility.yul\":2516:2538   */\n      add\n        /* \"#utility.yul\":2495:2548   */\n      tag_176\n      jump\t// in\n    tag_234:\n        /* \"#utility.yul\":2485:2548   */\n      swap2\n      pop\n        /* \"#utility.yul\":2441:2558   */\n      pop\n        /* \"#utility.yul\":2236:2565   */\n      swap3\n      swap2\n      pop\n      pop\n      jump\t// out\n        /* \"#utility.yul\":2571:2740   */\n    tag_177:\n        /* \"#utility.yul\":2655:2666   */\n      0x00\n        /* \"#utility.yul\":2689:2695   */\n      dup3\n        /* \"#utility.yul\":2684:2687   */\n      dup3\n        /* \"#utility.yul\":2677:2696   */\n      mstore\n        /* \"#utility.yul\":2729:2733   */\n      0x20\n        /* \"#utility.yul\":2724:2727   */\n      dup3\n        /* \"#utility.yul\":2720:2734   */\n      add\n        /* \"#utility.yul\":2705:2734   */\n      swap1\n      pop\n        /* \"#utility.yul\":2571:2740   */\n      swap3\n      swap2\n      pop\n      pop\n      jump\t// out\n        /* \"#utility.yul\":2746:2974   */\n    tag_178:\n        /* \"#utility.yul\":2886:2920   */\n      0x4f776e61626c6532537465703a2063616c6c6572206973206e6f742074686520\n        /* \"#utility.yul\":2882:2883   */\n      0x00\n        /* \"#utility.yul\":2874:2880   */\n      dup3\n        /* \"#utility.yul\":2870:2884   */\n      add\n        /* \"#utility.yul\":2863:2921   */\n      mstore\n        /* \"#utility.yul\":2955:2966   */\n      0x6e6577206f776e65720000000000000000000000000000000000000000000000\n        /* \"#utility.yul\":2950:2952   */\n      0x20\n        /* \"#utility.yul\":2942:2948   */\n      dup3\n        /* \"#utility.yul\":2938:2953   */\n      add\n        /* \"#utility.yul\":2931:2967   */\n      mstore\n        /* \"#utility.yul\":2746:2974   */\n      pop\n      jump\t// out\n        /* \"#utility.yul\":2980:3346   */\n    tag_179:\n        /* \"#utility.yul\":3122:3125   */\n      0x00\n        /* \"#utility.yul\":3143:3210   */\n      tag_238\n        /* \"#utility.yul\":3207:3209   */\n      0x29\n        /* \"#utility.yul\":3202:3205   */\n      dup4\n        /* \"#utility.yul\":3143:3210   */\n      tag_177\n      jump\t// in\n    tag_238:\n        /* \"#utility.yul\":3136:3210   */\n      swap2\n      pop\n        /* \"#utility.yul\":3219:3312   */\n      tag_239\n        /* \"#utility.yul\":3308:3311   */\n      dup3\n        /* \"#utility.yul\":3219:3312   */\n      tag_178\n      jump\t// in\n    tag_239:\n        /* \"#utility.yul\":3337:3339   */\n      0x40\n        /* \"#utility.yul\":3332:3335   */\n      dup3\n        /* \"#utility.yul\":3328:3340   */\n      add\n        /* \"#utility.yul\":3321:3340   */\n      swap1\n      pop\n        /* \"#utility.yul\":2980:3346   */\n      swap2\n      swap1\n      pop\n      jump\t// out\n        /* \"#utility.yul\":3352:3771   */\n    tag_66:\n        /* \"#utility.yul\":3518:3522   */\n      0x00\n        /* \"#utility.yul\":3556:3558   */\n      0x20\n        /* \"#utility.yul\":3545:3554   */\n      dup3\n        /* \"#utility.yul\":3541:3559   */\n      add\n        /* \"#utility.yul\":3533:3559   */\n      swap1\n      pop\n        /* \"#utility.yul\":3605:3614   */\n      dup2\n        /* \"#utility.yul\":3599:3603   */\n      dup2\n        /* \"#utility.yul\":3595:3615   */\n      sub\n        /* \"#utility.yul\":3591:3592   */\n      0x00\n        /* \"#utility.yul\":3580:3589   */\n      dup4\n        /* \"#utility.yul\":3576:3593   */\n      add\n        /* \"#utility.yul\":3569:3616   */\n      mstore\n        /* \"#utility.yul\":3633:3764   */\n      tag_241\n        /* \"#utility.yul\":3759:3763   */\n      dup2\n        /* \"#utility.yul\":3633:3764   */\n      tag_179\n      jump\t// in\n    tag_241:\n        /* \"#utility.yul\":3625:3764   */\n      swap1\n      pop\n        /* \"#utility.yul\":3352:3771   */\n      swap2\n      swap1\n      pop\n      jump\t// out\n        /* \"#utility.yul\":3777:3920   */\n    tag_180:\n        /* \"#utility.yul\":3834:3839   */\n      0x00\n        /* \"#utility.yul\":3865:3871   */\n      dup2\n        /* \"#utility.yul\":3859:3872   */\n      mload\n        /* \"#utility.yul\":3850:3872   */\n      swap1\n      pop\n        /* \"#utility.yul\":3881:3914   */\n      tag_243\n        /* \"#utility.yul\":3908:3913   */\n      dup2\n        /* \"#utility.yul\":3881:3914   */\n      tag_175\n      jump\t// in\n    tag_243:\n        /* \"#utility.yul\":3777:3920   */\n      swap3\n      swap2\n      pop\n      pop\n      jump\t// out\n        /* \"#utility.yul\":3926:4277   */\n    tag_93:\n        /* \"#utility.yul\":3996:4002   */\n      0x00\n        /* \"#utility.yul\":4045:4047   */\n      0x20\n        /* \"#utility.yul\":4033:4042   */\n      dup3\n        /* \"#utility.yul\":4024:4031   */\n      dup5\n        /* \"#utility.yul\":4020:4043   */\n      sub\n        /* \"#utility.yul\":4016:4048   */\n      slt\n        /* \"#utility.yul\":4013:4132   */\n      iszero\n      tag_245\n      jumpi\n        /* \"#utility.yul\":4051:4130   */\n      tag_246\n      tag_166\n      jump\t// in\n    tag_246:\n        /* \"#utility.yul\":4013:4132   */\n    tag_245:\n        /* \"#utility.yul\":4171:4172   */\n      0x00\n        /* \"#utility.yul\":4196:4260   */\n      tag_247\n        /* \"#utility.yul\":4252:4259   */\n      dup5\n        /* \"#utility.yul\":4243:4249   */\n      dup3\n        /* \"#utility.yul\":4232:4241   */\n      dup6\n        /* \"#utility.yul\":4228:4250   */\n      add\n        /* \"#utility.yul\":4196:4260   */\n      tag_180\n      jump\t// in\n    tag_247:\n        /* \"#utility.yul\":4186:4260   */\n      swap2\n      pop\n        /* \"#utility.yul\":4142:4270   */\n      pop\n        /* \"#utility.yul\":3926:4277   */\n      swap3\n      swap2\n      pop\n      pop\n      jump\t// out\n        /* \"#utility.yul\":4283:4463   */\n    tag_181:\n        /* \"#utility.yul\":4331:4408   */\n      0x4e487b7100000000000000000000000000000000000000000000000000000000\n        /* \"#utility.yul\":4328:4329   */\n      0x00\n        /* \"#utility.yul\":4321:4409   */\n      mstore\n        /* \"#utility.yul\":4428:4432   */\n      0x11\n        /* \"#utility.yul\":4425:4426   */\n      0x04\n        /* \"#utility.yul\":4418:4433   */\n      mstore\n        /* \"#utility.yul\":4452:4456   */\n      0x24\n        /* \"#utility.yul\":4449:4450   */\n      0x00\n        /* \"#utility.yul\":4442:4457   */\n      revert\n        /* \"#utility.yul\":4469:4879   */\n    tag_95:\n        /* \"#utility.yul\":4509:4516   */\n      0x00\n        /* \"#utility.yul\":4532:4552   */\n      tag_250\n        /* \"#utility.yul\":4550:4551   */\n      dup3\n        /* \"#utility.yul\":4532:4552   */\n      tag_173\n      jump\t// in\n    tag_250:\n        /* \"#utility.yul\":4527:4552   */\n      swap2\n      pop\n        /* \"#utility.yul\":4566:4586   */\n      tag_251\n        /* \"#utility.yul\":4584:4585   */\n      dup4\n        /* \"#utility.yul\":4566:4586   */\n      tag_173\n      jump\t// in\n    tag_251:\n        /* \"#utility.yul\":4561:4586   */\n      swap3\n      pop\n        /* \"#utility.yul\":4621:4622   */\n      dup3\n        /* \"#utility.yul\":4618:4619   */\n      dup3\n        /* \"#utility.yul\":4614:4623   */\n      mul\n        /* \"#utility.yul\":4643:4673   */\n      tag_252\n        /* \"#utility.yul\":4661:4672   */\n      dup2\n        /* \"#utility.yul\":4643:4673   */\n      tag_173\n      jump\t// in\n    tag_252:\n        /* \"#utility.yul\":4632:4673   */\n      swap2\n      pop\n        /* \"#utility.yul\":4822:4823   */\n      dup3\n        /* \"#utility.yul\":4813:4820   */\n      dup3\n        /* \"#utility.yul\":4809:4824   */\n      div\n        /* \"#utility.yul\":4806:4807   */\n      dup5\n        /* \"#utility.yul\":4803:4825   */\n      eq\n        /* \"#utility.yul\":4783:4784   */\n      dup4\n        /* \"#utility.yul\":4776:4785   */\n      iszero\n        /* \"#utility.yul\":4756:4839   */\n      or\n        /* \"#utility.yul\":4733:4872   */\n      tag_253\n      jumpi\n        /* \"#utility.yul\":4852:4870   */\n      tag_254\n      tag_181\n      jump\t// in\n    tag_254:\n        /* \"#utility.yul\":4733:4872   */\n    tag_253:\n        /* \"#utility.yul\":4517:4879   */\n      pop\n        /* \"#utility.yul\":4469:4879   */\n      swap3\n      swap2\n      pop\n      pop\n      jump\t// out\n        /* \"#utility.yul\":4885:5065   */\n    tag_182:\n        /* \"#utility.yul\":4933:5010   */\n      0x4e487b7100000000000000000000000000000000000000000000000000000000\n        /* \"#utility.yul\":4930:4931   */\n      0x00\n        /* \"#utility.yul\":4923:5011   */\n      mstore\n        /* \"#utility.yul\":5030:5034   */\n      0x12\n        /* \"#utility.yul\":5027:5028   */\n      0x04\n        /* \"#utility.yul\":5020:5035   */\n      mstore\n        /* \"#utility.yul\":5054:5058   */\n      0x24\n        /* \"#utility.yul\":5051:5052   */\n      0x00\n        /* \"#utility.yul\":5044:5059   */\n      revert\n        /* \"#utility.yul\":5071:5256   */\n    tag_97:\n        /* \"#utility.yul\":5111:5112   */\n      0x00\n        /* \"#utility.yul\":5128:5148   */\n      tag_257\n        /* \"#utility.yul\":5146:5147   */\n      dup3\n        /* \"#utility.yul\":5128:5148   */\n      tag_173\n      jump\t// in\n    tag_257:\n        /* \"#utility.yul\":5123:5148   */\n      swap2\n      pop\n        /* \"#utility.yul\":5162:5182   */\n      tag_258\n        /* \"#utility.yul\":5180:5181   */\n      dup4\n        /* \"#utility.yul\":5162:5182   */\n      tag_173\n      jump\t// in\n    tag_258:\n        /* \"#utility.yul\":5157:5182   */\n      swap3\n      pop\n        /* \"#utility.yul\":5201:5202   */\n      dup3\n        /* \"#utility.yul\":5191:5226   */\n      tag_259\n      jumpi\n        /* \"#utility.yul\":5206:5224   */\n      tag_260\n      tag_182\n      jump\t// in\n    tag_260:\n        /* \"#utility.yul\":5191:5226   */\n    tag_259:\n        /* \"#utility.yul\":5248:5249   */\n      dup3\n        /* \"#utility.yul\":5245:5246   */\n      dup3\n        /* \"#utility.yul\":5241:5250   */\n      div\n        /* \"#utility.yul\":5236:5250   */\n      swap1\n      pop\n        /* \"#utility.yul\":5071:5256   */\n      swap3\n      swap2\n      pop\n      pop\n      jump\t// out\n        /* \"#utility.yul\":5262:5453   */\n    tag_109:\n        /* \"#utility.yul\":5302:5305   */\n      0x00\n        /* \"#utility.yul\":5321:5341   */\n      tag_262\n        /* \"#utility.yul\":5339:5340   */\n      dup3\n        /* \"#utility.yul\":5321:5341   */\n      tag_173\n      jump\t// in\n    tag_262:\n        /* \"#utility.yul\":5316:5341   */\n      swap2\n      pop\n        /* \"#utility.yul\":5355:5375   */\n      tag_263\n        /* \"#utility.yul\":5373:5374   */\n      dup4\n        /* \"#utility.yul\":5355:5375   */\n      tag_173\n      jump\t// in\n    tag_263:\n        /* \"#utility.yul\":5350:5375   */\n      swap3\n      pop\n        /* \"#utility.yul\":5398:5399   */\n      dup3\n        /* \"#utility.yul\":5395:5396   */\n      dup3\n        /* \"#utility.yul\":5391:5400   */\n      add\n        /* \"#utility.yul\":5384:5400   */\n      swap1\n      pop\n        /* \"#utility.yul\":5419:5422   */\n      dup1\n        /* \"#utility.yul\":5416:5417   */\n      dup3\n        /* \"#utility.yul\":5413:5423   */\n      gt\n        /* \"#utility.yul\":5410:5446   */\n      iszero\n      tag_264\n      jumpi\n        /* \"#utility.yul\":5426:5444   */\n      tag_265\n      tag_181\n      jump\t// in\n    tag_265:\n        /* \"#utility.yul\":5410:5446   */\n    tag_264:\n        /* \"#utility.yul\":5262:5453   */\n      swap3\n      swap2\n      pop\n      pop\n      jump\t// out\n        /* \"#utility.yul\":5459:5641   */\n    tag_183:\n        /* \"#utility.yul\":5599:5633   */\n      0x4f776e61626c653a2063616c6c6572206973206e6f7420746865206f776e6572\n        /* \"#utility.yul\":5595:5596   */\n      0x00\n        /* \"#utility.yul\":5587:5593   */\n      dup3\n        /* \"#utility.yul\":5583:5597   */\n      add\n        /* \"#utility.yul\":5576:5634   */\n      mstore\n        /* \"#utility.yul\":5459:5641   */\n      pop\n      jump\t// out\n        /* \"#utility.yul\":5647:6013   */\n    tag_184:\n        /* \"#utility.yul\":5789:5792   */\n      0x00\n        /* \"#utility.yul\":5810:5877   */\n      tag_268\n        /* \"#utility.yul\":5874:5876   */\n      0x20\n        /* \"#utility.yul\":5869:5872   */\n      dup4\n        /* \"#utility.yul\":5810:5877   */\n      tag_177\n      jump\t// in\n    tag_268:\n        /* \"#utility.yul\":5803:5877   */\n      swap2\n      pop\n        /* \"#utility.yul\":5886:5979   */\n      tag_269\n        /* \"#utility.yul\":5975:5978   */\n      dup3\n        /* \"#utility.yul\":5886:5979   */\n      tag_183\n      jump\t// in\n    tag_269:\n        /* \"#utility.yul\":6004:6006   */\n      0x20\n        /* \"#utility.yul\":5999:6002   */\n      dup3\n        /* \"#utility.yul\":5995:6007   */\n      add\n        /* \"#utility.yul\":5988:6007   */\n      swap1\n      pop\n        /* \"#utility.yul\":5647:6013   */\n      swap2\n      swap1\n      pop\n      jump\t// out\n        /* \"#utility.yul\":6019:6438   */\n    tag_116:\n        /* \"#utility.yul\":6185:6189   */\n      0x00\n        /* \"#utility.yul\":6223:6225   */\n      0x20\n        /* \"#utility.yul\":6212:6221   */\n      dup3\n        /* \"#utility.yul\":6208:6226   */\n      add\n        /* \"#utility.yul\":6200:6226   */\n      swap1\n      pop\n        /* \"#utility.yul\":6272:6281   */\n      dup2\n        /* \"#utility.yul\":6266:6270   */\n      dup2\n        /* \"#utility.yul\":6262:6282   */\n      sub\n        /* \"#utility.yul\":6258:6259   */\n      0x00\n        /* \"#utility.yul\":6247:6256   */\n      dup4\n        /* \"#utility.yul\":6243:6260   */\n      add\n        /* \"#utility.yul\":6236:6283   */\n      mstore\n        /* \"#utility.yul\":6300:6431   */\n      tag_271\n        /* \"#utility.yul\":6426:6430   */\n      dup2\n        /* \"#utility.yul\":6300:6431   */\n      tag_184\n      jump\t// in\n    tag_271:\n        /* \"#utility.yul\":6292:6431   */\n      swap1\n      pop\n        /* \"#utility.yul\":6019:6438   */\n      swap2\n      swap1\n      pop\n      jump\t// out\n        /* \"#utility.yul\":6444:6776   */\n    tag_123:\n        /* \"#utility.yul\":6565:6569   */\n      0x00\n        /* \"#utility.yul\":6603:6605   */\n      0x40\n        /* \"#utility.yul\":6592:6601   */\n      dup3\n        /* \"#utility.yul\":6588:6606   */\n      add\n        /* \"#utility.yul\":6580:6606   */\n      swap1\n      pop\n        /* \"#utility.yul\":6616:6687   */\n      tag_273\n        /* \"#utility.yul\":6684:6685   */\n      0x00\n        /* \"#utility.yul\":6673:6682   */\n      dup4\n        /* \"#utility.yul\":6669:6686   */\n      add\n        /* \"#utility.yul\":6660:6666   */\n      dup6\n        /* \"#utility.yul\":6616:6687   */\n      tag_172\n      jump\t// in\n    tag_273:\n        /* \"#utility.yul\":6697:6769   */\n      tag_274\n        /* \"#utility.yul\":6765:6767   */\n      0x20\n        /* \"#utility.yul\":6754:6763   */\n      dup4\n        /* \"#utility.yul\":6750:6768   */\n      add\n        /* \"#utility.yul\":6741:6747   */\n      dup5\n        /* \"#utility.yul\":6697:6769   */\n      tag_174\n      jump\t// in\n    tag_274:\n        /* \"#utility.yul\":6444:6776   */\n      swap4\n      swap3\n      pop\n      pop\n      pop\n      jump\t// out\n        /* \"#utility.yul\":6782:6872   */\n    tag_185:\n        /* \"#utility.yul\":6816:6823   */\n      0x00\n        /* \"#utility.yul\":6859:6864   */\n      dup2\n        /* \"#utility.yul\":6852:6865   */\n      iszero\n        /* \"#utility.yul\":6845:6866   */\n      iszero\n        /* \"#utility.yul\":6834:6866   */\n      swap1\n      pop\n        /* \"#utility.yul\":6782:6872   */\n      swap2\n      swap1\n      pop\n      jump\t// out\n        /* \"#utility.yul\":6878:6994   */\n    tag_186:\n        /* \"#utility.yul\":6948:6969   */\n      tag_277\n        /* \"#utility.yul\":6963:6968   */\n      dup2\n        /* \"#utility.yul\":6948:6969   */\n      tag_185\n      jump\t// in\n    tag_277:\n        /* \"#utility.yul\":6941:6946   */\n      dup2\n        /* \"#utility.yul\":6938:6970   */\n      eq\n        /* \"#utility.yul\":6928:6988   */\n      tag_278\n      jumpi\n        /* \"#utility.yul\":6984:6985   */\n      0x00\n        /* \"#utility.yul\":6981:6982   */\n      dup1\n        /* \"#utility.yul\":6974:6986   */\n      revert\n        /* \"#utility.yul\":6928:6988   */\n    tag_278:\n        /* \"#utility.yul\":6878:6994   */\n      pop\n      jump\t// out\n        /* \"#utility.yul\":7000:7137   */\n    tag_187:\n        /* \"#utility.yul\":7054:7059   */\n      0x00\n        /* \"#utility.yul\":7085:7091   */\n      dup2\n        /* \"#utility.yul\":7079:7092   */\n      mload\n        /* \"#utility.yul\":7070:7092   */\n      swap1\n      pop\n        /* \"#utility.yul\":7101:7131   */\n      tag_280\n        /* \"#utility.yul\":7125:7130   */\n      dup2\n        /* \"#utility.yul\":7101:7131   */\n      tag_186\n      jump\t// in\n    tag_280:\n        /* \"#utility.yul\":7000:7137   */\n      swap3\n      swap2\n      pop\n      pop\n      jump\t// out\n        /* \"#utility.yul\":7143:7488   */\n    tag_130:\n        /* \"#utility.yul\":7210:7216   */\n      0x00\n        /* \"#utility.yul\":7259:7261   */\n      0x20\n        /* \"#utility.yul\":7247:7256   */\n      dup3\n        /* \"#utility.yul\":7238:7245   */\n      dup5\n        /* \"#utility.yul\":7234:7257   */\n      sub\n        /* \"#utility.yul\":7230:7262   */\n      slt\n        /* \"#utility.yul\":7227:7346   */\n      iszero\n      tag_282\n      jumpi\n        /* \"#utility.yul\":7265:7344   */\n      tag_283\n      tag_166\n      jump\t// in\n    tag_283:\n        /* \"#utility.yul\":7227:7346   */\n    tag_282:\n        /* \"#utility.yul\":7385:7386   */\n      0x00\n        /* \"#utility.yul\":7410:7471   */\n      tag_284\n        /* \"#utility.yul\":7463:7470   */\n      dup5\n        /* \"#utility.yul\":7454:7460   */\n      dup3\n        /* \"#utility.yul\":7443:7452   */\n      dup6\n        /* \"#utility.yul\":7439:7461   */\n      add\n        /* \"#utility.yul\":7410:7471   */\n      tag_187\n      jump\t// in\n    tag_284:\n        /* \"#utility.yul\":7400:7471   */\n      swap2\n      pop\n        /* \"#utility.yul\":7356:7481   */\n      pop\n        /* \"#utility.yul\":7143:7488   */\n      swap3\n      swap2\n      pop\n      pop\n      jump\t// out\n        /* \"#utility.yul\":7494:7723   */\n    tag_188:\n        /* \"#utility.yul\":7634:7668   */\n      0x5361666545524332303a204552433230206f7065726174696f6e20646964206e\n        /* \"#utility.yul\":7630:7631   */\n      0x00\n        /* \"#utility.yul\":7622:7628   */\n      dup3\n        /* \"#utility.yul\":7618:7632   */\n      add\n        /* \"#utility.yul\":7611:7669   */\n      mstore\n        /* \"#utility.yul\":7703:7715   */\n      0x6f74207375636365656400000000000000000000000000000000000000000000\n        /* \"#utility.yul\":7698:7700   */\n      0x20\n        /* \"#utility.yul\":7690:7696   */\n      dup3\n        /* \"#utility.yul\":7686:7701   */\n      add\n        /* \"#utility.yul\":7679:7716   */\n      mstore\n        /* \"#utility.yul\":7494:7723   */\n      pop\n      jump\t// out\n        /* \"#utility.yul\":7729:8095   */\n    tag_189:\n        /* \"#utility.yul\":7871:7874   */\n      0x00\n        /* \"#utility.yul\":7892:7959   */\n      tag_287\n        /* \"#utility.yul\":7956:7958   */\n      0x2a\n        /* \"#utility.yul\":7951:7954   */\n      dup4\n        /* \"#utility.yul\":7892:7959   */\n      tag_177\n      jump\t// in\n    tag_287:\n        /* \"#utility.yul\":7885:7959   */\n      swap2\n      pop\n        /* \"#utility.yul\":7968:8061   */\n      tag_288\n        /* \"#utility.yul\":8057:8060   */\n      dup3\n        /* \"#utility.yul\":7968:8061   */\n      tag_188\n      jump\t// in\n    tag_288:\n        /* \"#utility.yul\":8086:8088   */\n      0x40\n        /* \"#utility.yul\":8081:8084   */\n      dup3\n        /* \"#utility.yul\":8077:8089   */\n      add\n        /* \"#utility.yul\":8070:8089   */\n      swap1\n      pop\n        /* \"#utility.yul\":7729:8095   */\n      swap2\n      swap1\n      pop\n      jump\t// out\n        /* \"#utility.yul\":8101:8520   */\n    tag_133:\n        /* \"#utility.yul\":8267:8271   */\n      0x00\n        /* \"#utility.yul\":8305:8307   */\n      0x20\n        /* \"#utility.yul\":8294:8303   */\n      dup3\n        /* \"#utility.yul\":8290:8308   */\n      add\n        /* \"#utility.yul\":8282:8308   */\n      swap1\n      pop\n        /* \"#utility.yul\":8354:8363   */\n      dup2\n        /* \"#utility.yul\":8348:8352   */\n      dup2\n        /* \"#utility.yul\":8344:8364   */\n      sub\n        /* \"#utility.yul\":8340:8341   */\n      0x00\n        /* \"#utility.yul\":8329:8338   */\n      dup4\n        /* \"#utility.yul\":8325:8342   */\n      add\n        /* \"#utility.yul\":8318:8365   */\n      mstore\n        /* \"#utility.yul\":8382:8513   */\n      tag_290\n        /* \"#utility.yul\":8508:8512   */\n      dup2\n        /* \"#utility.yul\":8382:8513   */\n      tag_189\n      jump\t// in\n    tag_290:\n        /* \"#utility.yul\":8374:8513   */\n      swap1\n      pop\n        /* \"#utility.yul\":8101:8520   */\n      swap2\n      swap1\n      pop\n      jump\t// out\n        /* \"#utility.yul\":8526:8751   */\n    tag_190:\n        /* \"#utility.yul\":8666:8700   */\n      0x416464726573733a20696e73756666696369656e742062616c616e636520666f\n        /* \"#utility.yul\":8662:8663   */\n      0x00\n        /* \"#utility.yul\":8654:8660   */\n      dup3\n        /* \"#utility.yul\":8650:8664   */\n      add\n        /* \"#utility.yul\":8643:8701   */\n      mstore\n        /* \"#utility.yul\":8735:8743   */\n      0x722063616c6c0000000000000000000000000000000000000000000000000000\n        /* \"#utility.yul\":8730:8732   */\n      0x20\n        /* \"#utility.yul\":8722:8728   */\n      dup3\n        /* \"#utility.yul\":8718:8733   */\n      add\n        /* \"#utility.yul\":8711:8744   */\n      mstore\n        /* \"#utility.yul\":8526:8751   */\n      pop\n      jump\t// out\n        /* \"#utility.yul\":8757:9123   */\n    tag_191:\n        /* \"#utility.yul\":8899:8902   */\n      0x00\n        /* \"#utility.yul\":8920:8987   */\n      tag_293\n        /* \"#utility.yul\":8984:8986   */\n      0x26\n        /* \"#utility.yul\":8979:8982   */\n      dup4\n        /* \"#utility.yul\":8920:8987   */\n      tag_177\n      jump\t// in\n    tag_293:\n        /* \"#utility.yul\":8913:8987   */\n      swap2\n      pop\n        /* \"#utility.yul\":8996:9089   */\n      tag_294\n        /* \"#utility.yul\":9085:9088   */\n      dup3\n        /* \"#utility.yul\":8996:9089   */\n      tag_190\n      jump\t// in\n    tag_294:\n        /* \"#utility.yul\":9114:9116   */\n      0x40\n        /* \"#utility.yul\":9109:9112   */\n      dup3\n        /* \"#utility.yul\":9105:9117   */\n      add\n        /* \"#utility.yul\":9098:9117   */\n      swap1\n      pop\n        /* \"#utility.yul\":8757:9123   */\n      swap2\n      swap1\n      pop\n      jump\t// out\n        /* \"#utility.yul\":9129:9548   */\n    tag_140:\n        /* \"#utility.yul\":9295:9299   */\n      0x00\n        /* \"#utility.yul\":9333:9335   */\n      0x20\n        /* \"#utility.yul\":9322:9331   */\n      dup3\n        /* \"#utility.yul\":9318:9336   */\n      add\n        /* \"#utility.yul\":9310:9336   */\n      swap1\n      pop\n        /* \"#utility.yul\":9382:9391   */\n      dup2\n        /* \"#utility.yul\":9376:9380   */\n      dup2\n        /* \"#utility.yul\":9372:9392   */\n      sub\n        /* \"#utility.yul\":9368:9369   */\n      0x00\n        /* \"#utility.yul\":9357:9366   */\n      dup4\n        /* \"#utility.yul\":9353:9370   */\n      add\n        /* \"#utility.yul\":9346:9393   */\n      mstore\n        /* \"#utility.yul\":9410:9541   */\n      tag_296\n        /* \"#utility.yul\":9536:9540   */\n      dup2\n        /* \"#utility.yul\":9410:9541   */\n      tag_191\n      jump\t// in\n    tag_296:\n        /* \"#utility.yul\":9402:9541   */\n      swap1\n      pop\n        /* \"#utility.yul\":9129:9548   */\n      swap2\n      swap1\n      pop\n      jump\t// out\n        /* \"#utility.yul\":9554:9652   */\n    tag_192:\n        /* \"#utility.yul\":9605:9611   */\n      0x00\n        /* \"#utility.yul\":9639:9644   */\n      dup2\n        /* \"#utility.yul\":9633:9645   */\n      mload\n        /* \"#utility.yul\":9623:9645   */\n      swap1\n      pop\n        /* \"#utility.yul\":9554:9652   */\n      swap2\n      swap1\n      pop\n      jump\t// out\n        /* \"#utility.yul\":9658:9805   */\n    tag_193:\n        /* \"#utility.yul\":9759:9770   */\n      0x00\n        /* \"#utility.yul\":9796:9799   */\n      dup2\n        /* \"#utility.yul\":9781:9799   */\n      swap1\n      pop\n        /* \"#utility.yul\":9658:9805   */\n      swap3\n      swap2\n      pop\n      pop\n      jump\t// out\n        /* \"#utility.yul\":9811:10057   */\n    tag_194:\n        /* \"#utility.yul\":9892:9893   */\n      0x00\n        /* \"#utility.yul\":9902:10015   */\n    tag_300:\n        /* \"#utility.yul\":9916:9922   */\n      dup4\n        /* \"#utility.yul\":9913:9914   */\n      dup2\n        /* \"#utility.yul\":9910:9923   */\n      lt\n        /* \"#utility.yul\":9902:10015   */\n      iszero\n      tag_302\n      jumpi\n        /* \"#utility.yul\":10001:10002   */\n      dup1\n        /* \"#utility.yul\":9996:9999   */\n      dup3\n        /* \"#utility.yul\":9992:10003   */\n      add\n        /* \"#utility.yul\":9986:10004   */\n      mload\n        /* \"#utility.yul\":9982:9983   */\n      dup2\n        /* \"#utility.yul\":9977:9980   */\n      dup5\n        /* \"#utility.yul\":9973:9984   */\n      add\n        /* \"#utility.yul\":9966:10005   */\n      mstore\n        /* \"#utility.yul\":9938:9940   */\n      0x20\n        /* \"#utility.yul\":9935:9936   */\n      dup2\n        /* \"#utility.yul\":9931:9941   */\n      add\n        /* \"#utility.yul\":9926:9941   */\n      swap1\n      pop\n        /* \"#utility.yul\":9902:10015   */\n      jump(tag_300)\n    tag_302:\n        /* \"#utility.yul\":10049:10050   */\n      0x00\n        /* \"#utility.yul\":10040:10046   */\n      dup5\n        /* \"#utility.yul\":10035:10038   */\n      dup5\n        /* \"#utility.yul\":10031:10047   */\n      add\n        /* \"#utility.yul\":10024:10051   */\n      mstore\n        /* \"#utility.yul\":9873:10057   */\n      pop\n        /* \"#utility.yul\":9811:10057   */\n      pop\n      pop\n      pop\n      jump\t// out\n        /* \"#utility.yul\":10063:10449   */\n    tag_195:\n        /* \"#utility.yul\":10167:10170   */\n      0x00\n        /* \"#utility.yul\":10195:10233   */\n      tag_304\n        /* \"#utility.yul\":10227:10232   */\n      dup3\n        /* \"#utility.yul\":10195:10233   */\n      tag_192\n      jump\t// in\n    tag_304:\n        /* \"#utility.yul\":10249:10337   */\n      tag_305\n        /* \"#utility.yul\":10330:10336   */\n      dup2\n        /* \"#utility.yul\":10325:10328   */\n      dup6\n        /* \"#utility.yul\":10249:10337   */\n      tag_193\n      jump\t// in\n    tag_305:\n        /* \"#utility.yul\":10242:10337   */\n      swap4\n      pop\n        /* \"#utility.yul\":10346:10411   */\n      tag_306\n        /* \"#utility.yul\":10404:10410   */\n      dup2\n        /* \"#utility.yul\":10399:10402   */\n      dup6\n        /* \"#utility.yul\":10392:10396   */\n      0x20\n        /* \"#utility.yul\":10385:10390   */\n      dup7\n        /* \"#utility.yul\":10381:10397   */\n      add\n        /* \"#utility.yul\":10346:10411   */\n      tag_194\n      jump\t// in\n    tag_306:\n        /* \"#utility.yul\":10436:10442   */\n      dup1\n        /* \"#utility.yul\":10431:10434   */\n      dup5\n        /* \"#utility.yul\":10427:10443   */\n      add\n        /* \"#utility.yul\":10420:10443   */\n      swap2\n      pop\n        /* \"#utility.yul\":10171:10449   */\n      pop\n        /* \"#utility.yul\":10063:10449   */\n      swap3\n      swap2\n      pop\n      pop\n      jump\t// out\n        /* \"#utility.yul\":10455:10726   */\n    tag_142:\n        /* \"#utility.yul\":10585:10588   */\n      0x00\n        /* \"#utility.yul\":10607:10700   */\n      tag_308\n        /* \"#utility.yul\":10696:10699   */\n      dup3\n        /* \"#utility.yul\":10687:10693   */\n      dup5\n        /* \"#utility.yul\":10607:10700   */\n      tag_195\n      jump\t// in\n    tag_308:\n        /* \"#utility.yul\":10600:10700   */\n      swap2\n      pop\n        /* \"#utility.yul\":10717:10720   */\n      dup2\n        /* \"#utility.yul\":10710:10720   */\n      swap1\n      pop\n        /* \"#utility.yul\":10455:10726   */\n      swap3\n      swap2\n      pop\n      pop\n      jump\t// out\n        /* \"#utility.yul\":10732:10911   */\n    tag_196:\n        /* \"#utility.yul\":10872:10903   */\n      0x416464726573733a2063616c6c20746f206e6f6e2d636f6e7472616374000000\n        /* \"#utility.yul\":10868:10869   */\n      0x00\n        /* \"#utility.yul\":10860:10866   */\n      dup3\n        /* \"#utility.yul\":10856:10870   */\n      add\n        /* \"#utility.yul\":10849:10904   */\n      mstore\n        /* \"#utility.yul\":10732:10911   */\n      pop\n      jump\t// out\n        /* \"#utility.yul\":10917:11283   */\n    tag_197:\n        /* \"#utility.yul\":11059:11062   */\n      0x00\n        /* \"#utility.yul\":11080:11147   */\n      tag_311\n        /* \"#utility.yul\":11144:11146   */\n      0x1d\n        /* \"#utility.yul\":11139:11142   */\n      dup4\n        /* \"#utility.yul\":11080:11147   */\n      tag_177\n      jump\t// in\n    tag_311:\n        /* \"#utility.yul\":11073:11147   */\n      swap2\n      pop\n        /* \"#utility.yul\":11156:11249   */\n      tag_312\n        /* \"#utility.yul\":11245:11248   */\n      dup3\n        /* \"#utility.yul\":11156:11249   */\n      tag_196\n      jump\t// in\n    tag_312:\n        /* \"#utility.yul\":11274:11276   */\n      0x20\n        /* \"#utility.yul\":11269:11272   */\n      dup3\n        /* \"#utility.yul\":11265:11277   */\n      add\n        /* \"#utility.yul\":11258:11277   */\n      swap1\n      pop\n        /* \"#utility.yul\":10917:11283   */\n      swap2\n      swap1\n      pop\n      jump\t// out\n        /* \"#utility.yul\":11289:11708   */\n    tag_155:\n        /* \"#utility.yul\":11455:11459   */\n      0x00\n        /* \"#utility.yul\":11493:11495   */\n      0x20\n        /* \"#utility.yul\":11482:11491   */\n      dup3\n        /* \"#utility.yul\":11478:11496   */\n      add\n        /* \"#utility.yul\":11470:11496   */\n      swap1\n      pop\n        /* \"#utility.yul\":11542:11551   */\n      dup2\n        /* \"#utility.yul\":11536:11540   */\n      dup2\n        /* \"#utility.yul\":11532:11552   */\n      sub\n        /* \"#utility.yul\":11528:11529   */\n      0x00\n        /* \"#utility.yul\":11517:11526   */\n      dup4\n        /* \"#utility.yul\":11513:11530   */\n      add\n        /* \"#utility.yul\":11506:11553   */\n      mstore\n        /* \"#utility.yul\":11570:11701   */\n      tag_314\n        /* \"#utility.yul\":11696:11700   */\n      dup2\n        /* \"#utility.yul\":11570:11701   */\n      tag_197\n      jump\t// in\n    tag_314:\n        /* \"#utility.yul\":11562:11701   */\n      swap1\n      pop\n        /* \"#utility.yul\":11289:11708   */\n      swap2\n      swap1\n      pop\n      jump\t// out\n        /* \"#utility.yul\":11714:11813   */\n    tag_198:\n        /* \"#utility.yul\":11766:11772   */\n      0x00\n        /* \"#utility.yul\":11800:11805   */\n      dup2\n        /* \"#utility.yul\":11794:11806   */\n      mload\n        /* \"#utility.yul\":11784:11806   */\n      swap1\n      pop\n        /* \"#utility.yul\":11714:11813   */\n      swap2\n      swap1\n      pop\n      jump\t// out\n        /* \"#utility.yul\":11819:11921   */\n    tag_199:\n        /* \"#utility.yul\":11860:11866   */\n      0x00\n        /* \"#utility.yul\":11911:11913   */\n      0x1f\n        /* \"#utility.yul\":11907:11914   */\n      not\n        /* \"#utility.yul\":11902:11904   */\n      0x1f\n        /* \"#utility.yul\":11895:11900   */\n      dup4\n        /* \"#utility.yul\":11891:11905   */\n      add\n        /* \"#utility.yul\":11887:11915   */\n      and\n        /* \"#utility.yul\":11877:11915   */\n      swap1\n      pop\n        /* \"#utility.yul\":11819:11921   */\n      swap2\n      swap1\n      pop\n      jump\t// out\n        /* \"#utility.yul\":11927:12304   */\n    tag_200:\n        /* \"#utility.yul\":12015:12018   */\n      0x00\n        /* \"#utility.yul\":12043:12082   */\n      tag_318\n        /* \"#utility.yul\":12076:12081   */\n      dup3\n        /* \"#utility.yul\":12043:12082   */\n      tag_198\n      jump\t// in\n    tag_318:\n        /* \"#utility.yul\":12098:12169   */\n      tag_319\n        /* \"#utility.yul\":12162:12168   */\n      dup2\n        /* \"#utility.yul\":12157:12160   */\n      dup6\n        /* \"#utility.yul\":12098:12169   */\n      tag_177\n      jump\t// in\n    tag_319:\n        /* \"#utility.yul\":12091:12169   */\n      swap4\n      pop\n        /* \"#utility.yul\":12178:12243   */\n      tag_320\n        /* \"#utility.yul\":12236:12242   */\n      dup2\n        /* \"#utility.yul\":12231:12234   */\n      dup6\n        /* \"#utility.yul\":12224:12228   */\n      0x20\n        /* \"#utility.yul\":12217:12222   */\n      dup7\n        /* \"#utility.yul\":12213:12229   */\n      add\n        /* \"#utility.yul\":12178:12243   */\n      tag_194\n      jump\t// in\n    tag_320:\n        /* \"#utility.yul\":12268:12297   */\n      tag_321\n        /* \"#utility.yul\":12290:12296   */\n      dup2\n        /* \"#utility.yul\":12268:12297   */\n      tag_199\n      jump\t// in\n    tag_321:\n        /* \"#utility.yul\":12263:12266   */\n      dup5\n        /* \"#utility.yul\":12259:12298   */\n      add\n        /* \"#utility.yul\":12252:12298   */\n      swap2\n      pop\n        /* \"#utility.yul\":12019:12304   */\n      pop\n        /* \"#utility.yul\":11927:12304   */\n      swap3\n      swap2\n      pop\n      pop\n      jump\t// out\n        /* \"#utility.yul\":12310:12623   */\n    tag_164:\n        /* \"#utility.yul\":12423:12427   */\n      0x00\n        /* \"#utility.yul\":12461:12463   */\n      0x20\n        /* \"#utility.yul\":12450:12459   */\n      dup3\n        /* \"#utility.yul\":12446:12464   */\n      add\n        /* \"#utility.yul\":12438:12464   */\n      swap1\n      pop\n        /* \"#utility.yul\":12510:12519   */\n      dup2\n        /* \"#utility.yul\":12504:12508   */\n      dup2\n        /* \"#utility.yul\":12500:12520   */\n      sub\n        /* \"#utility.yul\":12496:12497   */\n      0x00\n        /* \"#utility.yul\":12485:12494   */\n      dup4\n        /* \"#utility.yul\":12481:12498   */\n      add\n        /* \"#utility.yul\":12474:12521   */\n      mstore\n        /* \"#utility.yul\":12538:12616   */\n      tag_323\n        /* \"#utility.yul\":12611:12615   */\n      dup2\n        /* \"#utility.yul\":12602:12608   */\n      dup5\n        /* \"#utility.yul\":12538:12616   */\n      tag_200\n      jump\t// in\n    tag_323:\n        /* \"#utility.yul\":12530:12616   */\n      swap1\n      pop\n        /* \"#utility.yul\":12310:12623   */\n      swap3\n      swap2\n      pop\n      pop\n      jump\t// out\n\n    auxdata: 0xa2646970667358221220bd94965dd8779c9c981564d49f655be2ba1a169435fd4cfa2c51ba5f9edf757e64736f6c63430008120033\n}\n",
				"bytecode": {
					"linkReferences": {},
					"object": "60a06040523480156200001157600080fd5b50604051620017573803806200175783398181016040528101906200003791906200020e565b620000576200004b6200009a60201b60201c565b620000a260201b60201c565b60016002819055508073ffffffffffffffffffffffffffffffffffffffff1660808173ffffffffffffffffffffffffffffffffffffffff16815250505062000240565b600033905090565b600160006101000a81549073ffffffffffffffffffffffffffffffffffffffff0219169055620000dd81620000e060201b620009591760201c565b50565b60008060009054906101000a900473ffffffffffffffffffffffffffffffffffffffff169050816000806101000a81548173ffffffffffffffffffffffffffffffffffffffff021916908373ffffffffffffffffffffffffffffffffffffffff1602179055508173ffffffffffffffffffffffffffffffffffffffff168173ffffffffffffffffffffffffffffffffffffffff167f8be0079c531659141344cd1fd0a4f28419497f9722a3daafe3b4186f6b6457e060405160405180910390a35050565b600080fd5b600073ffffffffffffffffffffffffffffffffffffffff82169050919050565b6000620001d682620001a9565b9050919050565b620001e881620001c9565b8114620001f457600080fd5b50565b6000815190506200020881620001dd565b92915050565b600060208284031215620002275762000226620001a4565b5b60006200023784828501620001f7565b91505092915050565b6080516114df62000278600039600081816106c201528181610775015281816107ce0152818161082601526108c501526114df6000f3fe608060405234801561001057600080fd5b50600436106100a95760003560e01c80639752b3b2116100715780639752b3b214610118578063979e905614610134578063e30c397814610152578063e7fcd45d14610170578063f2fde38b1461018c578063f6151089146101a8576100a9565b80631f068108146100ae578063715018a6146100ca57806379ba5097146100d45780638da5cb5b146100de5780638f88f261146100fc575b600080fd5b6100c860048036038101906100c39190610e52565b6101b2565b005b6100d26102a7565b005b6100dc6102bb565b005b6100e6610348565b6040516100f39190610e8e565b60405180910390f35b61011660048036038101906101119190610e52565b610371565b005b610132600480360381019061012d9190610e52565b610466565b005b61013c61055b565b6040516101499190610ec2565b60405180910390f35b61015a610561565b6040516101679190610e8e565b60405180910390f35b61018a60048036038101906101859190610f09565b61058b565b005b6101a660048036038101906101a19190610e52565b610604565b005b6101b06106b1565b005b6101ba610a1d565b600073ffffffffffffffffffffffffffffffffffffffff168173ffffffffffffffffffffffffffffffffffffffff1603610220576040517f842090f100000000000000000000000000000000000000000000000000000000815260040160405180910390fd5b80600460006101000a81548173ffffffffffffffffffffffffffffffffffffffff021916908373ffffffffffffffffffffffffffffffffffffffff1602179055508073ffffffffffffffffffffffffffffffffffffffff167f0cd19529020fd81d84beeae5290e80cef2820b494e9aedf821b3c45b8110d7df60405160405180910390a250565b6102af610a1d565b6102b96000610a9b565b565b60006102c5610acc565b90508073ffffffffffffffffffffffffffffffffffffffff166102e6610561565b73ffffffffffffffffffffffffffffffffffffffff161461033c576040517f08c379a000000000000000000000000000000000000000000000000000000000815260040161033390610fb9565b60405180910390fd5b61034581610a9b565b50565b60008060009054906101000a900473ffffffffffffffffffffffffffffffffffffffff16905090565b610379610a1d565b600073ffffffffffffffffffffffffffffffffffffffff168173ffffffffffffffffffffffffffffffffffffffff16036103df576040517f842090f100000000000000000000000000000000000000000000000000000000815260040160405180910390fd5b80600560006101000a81548173ffffffffffffffffffffffffffffffffffffffff021916908373ffffffffffffffffffffffffffffffffffffffff1602179055508073ffffffffffffffffffffffffffffffffffffffff167f203661c8635f7afb5f15d76e6b159110290d075ad62b4ee9ff9a7ab94187d4bd60405160405180910390a250565b61046e610a1d565b600073ffffffffffffffffffffffffffffffffffffffff168173ffffffffffffffffffffffffffffffffffffffff16036104d4576040517f842090f100000000000000000000000000000000000000000000000000000000815260040160405180910390fd5b80600360006101000a81548173ffffffffffffffffffffffffffffffffffffffff021916908373ffffffffffffffffffffffffffffffffffffffff1602179055508073ffffffffffffffffffffffffffffffffffffffff167f170b0500ccf8a13146ecd9838c59849129b54beda77dadbe500b8817cdc8d36860405160405180910390a250565b60075481565b6000600160009054906101000a900473ffffffffffffffffffffffffffffffffffffffff16905090565b610593610a1d565b600081036105cd576040517fc830261600000000000000000000000000000000000000000000000000000000815260040160405180910390fd5b80600681905550807f3d5a337607048974766ec58e2109261b4871329988d9615e7051bae635c38a6060405160405180910390a250565b61060c610a1d565b80600160006101000a81548173ffffffffffffffffffffffffffffffffffffffff021916908373ffffffffffffffffffffffffffffffffffffffff1602179055508073ffffffffffffffffffffffffffffffffffffffff1661066c610348565b73ffffffffffffffffffffffffffffffffffffffff167f38d16b8cac22d99fc7c124b9cd0de2d3fa1faef420bfe791d8c362d765e2270060405160405180910390a350565b6106b9610a1d565b600060065460647f000000000000000000000000000000000000000000000000000000000000000073ffffffffffffffffffffffffffffffffffffffff166370a08231306040518263ffffffff1660e01b81526004016107199190610e8e565b602060405180830381865afa158015610736573d6000803e3d6000fd5b505050506040513d601f19601f8201168201806040525081019061075a9190610fee565b610764919061104a565b61076e91906110bb565b90506107c97f0000000000000000000000000000000000000000000000000000000000000000600560009054906101000a900473ffffffffffffffffffffffffffffffffffffffff166002846107c491906110bb565b610ad4565b6108227f0000000000000000000000000000000000000000000000000000000000000000600460009054906101000a900473ffffffffffffffffffffffffffffffffffffffff1660028461081d91906110bb565b610ad4565b60007f000000000000000000000000000000000000000000000000000000000000000073ffffffffffffffffffffffffffffffffffffffff166370a08231306040518263ffffffff1660e01b815260040161087d9190610e8e565b602060405180830381865afa15801561089a573d6000803e3d6000fd5b505050506040513d601f19601f820116820180604052508101906108be9190610fee565b905061090d7f0000000000000000000000000000000000000000000000000000000000000000600360009054906101000a900473ffffffffffffffffffffffffffffffffffffffff1683610ad4565b806007600082825461091f91906110ec565b925050819055508082427f50efd2f2f250964da5961d710f9e330ea396faec8ef1e3dad48ff354a629d38260405160405180910390a45050565b60008060009054906101000a900473ffffffffffffffffffffffffffffffffffffffff169050816000806101000a81548173ffffffffffffffffffffffffffffffffffffffff021916908373ffffffffffffffffffffffffffffffffffffffff1602179055508173ffffffffffffffffffffffffffffffffffffffff168173ffffffffffffffffffffffffffffffffffffffff167f8be0079c531659141344cd1fd0a4f28419497f9722a3daafe3b4186f6b6457e060405160405180910390a35050565b610a25610acc565b73ffffffffffffffffffffffffffffffffffffffff16610a43610348565b73ffffffffffffffffffffffffffffffffffffffff1614610a99576040517f08c379a0000000000000000000000000000000000000000000000000000000008152600401610a909061116c565b60405180910390fd5b565b600160006101000a81549073ffffffffffffffffffffffffffffffffffffffff0219169055610ac981610959565b50565b600033905090565b610b558363a9059cbb60e01b8484604051602401610af392919061118c565b604051602081830303815290604052907bffffffffffffffffffffffffffffffffffffffffffffffffffffffff19166020820180517bffffffffffffffffffffffffffffffffffffffffffffffffffffffff8381831617835250505050610b5a565b505050565b6000610bbc826040518060400160405280602081526020017f5361666545524332303a206c6f772d6c6576656c2063616c6c206661696c65648152508573ffffffffffffffffffffffffffffffffffffffff16610c229092919063ffffffff16565b9050600081511480610bde575080806020019051810190610bdd91906111ed565b5b610c1d576040517f08c379a0000000000000000000000000000000000000000000000000000000008152600401610c149061128c565b60405180910390fd5b505050565b6060610c318484600085610c3a565b90509392505050565b606082471015610c7f576040517f08c379a0000000000000000000000000000000000000000000000000000000008152600401610c769061131e565b60405180910390fd5b6000808673ffffffffffffffffffffffffffffffffffffffff168587604051610ca891906113af565b60006040518083038185875af1925050503d8060008114610ce5576040519150601f19603f3d011682016040523d82523d6000602084013e610cea565b606091505b5091509150610cfb87838387610d07565b92505050949350505050565b60608315610d69576000835103610d6157610d2185610d7c565b610d60576040517f08c379a0000000000000000000000000000000000000000000000000000000008152600401610d5790611412565b60405180910390fd5b5b829050610d74565b610d738383610d9f565b5b949350505050565b6000808273ffffffffffffffffffffffffffffffffffffffff163b119050919050565b600082511115610db25781518083602001fd5b806040517f08c379a0000000000000000000000000000000000000000000000000000000008152600401610de69190611487565b60405180910390fd5b600080fd5b600073ffffffffffffffffffffffffffffffffffffffff82169050919050565b6000610e1f82610df4565b9050919050565b610e2f81610e14565b8114610e3a57600080fd5b50565b600081359050610e4c81610e26565b92915050565b600060208284031215610e6857610e67610def565b5b6000610e7684828501610e3d565b91505092915050565b610e8881610e14565b82525050565b6000602082019050610ea36000830184610e7f565b92915050565b6000819050919050565b610ebc81610ea9565b82525050565b6000602082019050610ed76000830184610eb3565b92915050565b610ee681610ea9565b8114610ef157600080fd5b50565b600081359050610f0381610edd565b92915050565b600060208284031215610f1f57610f1e610def565b5b6000610f2d84828501610ef4565b91505092915050565b600082825260208201905092915050565b7f4f776e61626c6532537465703a2063616c6c6572206973206e6f74207468652060008201527f6e6577206f776e65720000000000000000000000000000000000000000000000602082015250565b6000610fa3602983610f36565b9150610fae82610f47565b604082019050919050565b60006020820190508181036000830152610fd281610f96565b9050919050565b600081519050610fe881610edd565b92915050565b60006020828403121561100457611003610def565b5b600061101284828501610fd9565b91505092915050565b7f4e487b7100000000000000000000000000000000000000000000000000000000600052601160045260246000fd5b600061105582610ea9565b915061106083610ea9565b925082820261106e81610ea9565b915082820484148315176110855761108461101b565b5b5092915050565b7f4e487b7100000000000000000000000000000000000000000000000000000000600052601260045260246000fd5b60006110c682610ea9565b91506110d183610ea9565b9250826110e1576110e061108c565b5b828204905092915050565b60006110f782610ea9565b915061110283610ea9565b925082820190508082111561111a5761111961101b565b5b92915050565b7f4f776e61626c653a2063616c6c6572206973206e6f7420746865206f776e6572600082015250565b6000611156602083610f36565b915061116182611120565b602082019050919050565b6000602082019050818103600083015261118581611149565b9050919050565b60006040820190506111a16000830185610e7f565b6111ae6020830184610eb3565b9392505050565b60008115159050919050565b6111ca816111b5565b81146111d557600080fd5b50565b6000815190506111e7816111c1565b92915050565b60006020828403121561120357611202610def565b5b6000611211848285016111d8565b91505092915050565b7f5361666545524332303a204552433230206f7065726174696f6e20646964206e60008201527f6f74207375636365656400000000000000000000000000000000000000000000602082015250565b6000611276602a83610f36565b91506112818261121a565b604082019050919050565b600060208201905081810360008301526112a581611269565b9050919050565b7f416464726573733a20696e73756666696369656e742062616c616e636520666f60008201527f722063616c6c0000000000000000000000000000000000000000000000000000602082015250565b6000611308602683610f36565b9150611313826112ac565b604082019050919050565b60006020820190508181036000830152611337816112fb565b9050919050565b600081519050919050565b600081905092915050565b60005b83811015611372578082015181840152602081019050611357565b60008484015250505050565b60006113898261133e565b6113938185611349565b93506113a3818560208601611354565b80840191505092915050565b60006113bb828461137e565b915081905092915050565b7f416464726573733a2063616c6c20746f206e6f6e2d636f6e7472616374000000600082015250565b60006113fc601d83610f36565b9150611407826113c6565b602082019050919050565b6000602082019050818103600083015261142b816113ef565b9050919050565b600081519050919050565b6000601f19601f8301169050919050565b600061145982611432565b6114638185610f36565b9350611473818560208601611354565b61147c8161143d565b840191505092915050565b600060208201905081810360008301526114a1818461144e565b90509291505056fea2646970667358221220bd94965dd8779c9c981564d49f655be2ba1a169435fd4cfa2c51ba5f9edf757e64736f6c63430008120033",
					"opcodes": "PUSH1 0xA0 PUSH1 0x40 MSTORE CALLVALUE DUP1 ISZERO PUSH3 0x11 JUMPI PUSH1 0x0 DUP1 REVERT JUMPDEST POP PUSH1 0x40 MLOAD PUSH3 0x1757 CODESIZE SUB DUP1 PUSH3 0x1757 DUP4 CODECOPY DUP2 DUP2 ADD PUSH1 0x40 MSTORE DUP2 ADD SWAP1 PUSH3 0x37 SWAP2 SWAP1 PUSH3 0x20E JUMP JUMPDEST PUSH3 0x57 PUSH3 0x4B PUSH3 0x9A PUSH1 0x20 SHL PUSH1 0x20 SHR JUMP JUMPDEST PUSH3 0xA2 PUSH1 0x20 SHL PUSH1 0x20 SHR JUMP JUMPDEST PUSH1 0x1 PUSH1 0x2 DUP2 SWAP1 SSTORE POP DUP1 PUSH20 0xFFFFFFFFFFFFFFFFFFFFFFFFFFFFFFFFFFFFFFFF AND PUSH1 0x80 DUP2 PUSH20 0xFFFFFFFFFFFFFFFFFFFFFFFFFFFFFFFFFFFFFFFF AND DUP2 MSTORE POP POP POP PUSH3 0x240 JUMP JUMPDEST PUSH1 0x0 CALLER SWAP1 POP SWAP1 JUMP JUMPDEST PUSH1 0x1 PUSH1 0x0 PUSH2 0x100 EXP DUP2 SLOAD SWAP1 PUSH20 0xFFFFFFFFFFFFFFFFFFFFFFFFFFFFFFFFFFFFFFFF MUL NOT AND SWAP1 SSTORE PUSH3 0xDD DUP2 PUSH3 0xE0 PUSH1 0x20 SHL PUSH3 0x959 OR PUSH1 0x20 SHR JUMP JUMPDEST POP JUMP JUMPDEST PUSH1 0x0 DUP1 PUSH1 0x0 SWAP1 SLOAD SWAP1 PUSH2 0x100 EXP SWAP1 DIV PUSH20 0xFFFFFFFFFFFFFFFFFFFFFFFFFFFFFFFFFFFFFFFF AND SWAP1 POP DUP2 PUSH1 0x0 DUP1 PUSH2 0x100 EXP DUP2 SLOAD DUP2 PUSH20 0xFFFFFFFFFFFFFFFFFFFFFFFFFFFFFFFFFFFFFFFF MUL NOT AND SWAP1 DUP4 PUSH20 0xFFFFFFFFFFFFFFFFFFFFFFFFFFFFFFFFFFFFFFFF AND MUL OR SWAP1 SSTORE POP DUP2 PUSH20 0xFFFFFFFFFFFFFFFFFFFFFFFFFFFFFFFFFFFFFFFF AND DUP2 PUSH20 0xFFFFFFFFFFFFFFFFFFFFFFFFFFFFFFFFFFFFFFFF AND PUSH32 0x8BE0079C531659141344CD1FD0A4F28419497F9722A3DAAFE3B4186F6B6457E0 PUSH1 0x40 MLOAD PUSH1 0x40 MLOAD DUP1 SWAP2 SUB SWAP1 LOG3 POP POP JUMP JUMPDEST PUSH1 0x0 DUP1 REVERT JUMPDEST PUSH1 0x0 PUSH20 0xFFFFFFFFFFFFFFFFFFFFFFFFFFFFFFFFFFFFFFFF DUP3 AND SWAP1 POP SWAP2 SWAP1 POP JUMP JUMPDEST PUSH1 0x0 PUSH3 0x1D6 DUP3 PUSH3 0x1A9 JUMP JUMPDEST SWAP1 POP SWAP2 SWAP1 POP JUMP JUMPDEST PUSH3 0x1E8 DUP2 PUSH3 0x1C9 JUMP JUMPDEST DUP2 EQ PUSH3 0x1F4 JUMPI PUSH1 0x0 DUP1 REVERT JUMPDEST POP JUMP JUMPDEST PUSH1 0x0 DUP2 MLOAD SWAP1 POP PUSH3 0x208 DUP2 PUSH3 0x1DD JUMP JUMPDEST SWAP3 SWAP2 POP POP JUMP JUMPDEST PUSH1 0x0 PUSH1 0x20 DUP3 DUP5 SUB SLT ISZERO PUSH3 0x227 JUMPI PUSH3 0x226 PUSH3 0x1A4 JUMP JUMPDEST JUMPDEST PUSH1 0x0 PUSH3 0x237 DUP5 DUP3 DUP6 ADD PUSH3 0x1F7 JUMP JUMPDEST SWAP2 POP POP SWAP3 SWAP2 POP POP JUMP JUMPDEST PUSH1 0x80 MLOAD PUSH2 0x14DF PUSH3 0x278 PUSH1 0x0 CODECOPY PUSH1 0x0 DUP2 DUP2 PUSH2 0x6C2 ADD MSTORE DUP2 DUP2 PUSH2 0x775 ADD MSTORE DUP2 DUP2 PUSH2 0x7CE ADD MSTORE DUP2 DUP2 PUSH2 0x826 ADD MSTORE PUSH2 0x8C5 ADD MSTORE PUSH2 0x14DF PUSH1 0x0 RETURN INVALID PUSH1 0x80 PUSH1 0x40 MSTORE CALLVALUE DUP1 ISZERO PUSH2 0x10 JUMPI PUSH1 0x0 DUP1 REVERT JUMPDEST POP PUSH1 0x4 CALLDATASIZE LT PUSH2 0xA9 JUMPI PUSH1 0x0 CALLDATALOAD PUSH1 0xE0 SHR DUP1 PUSH4 0x9752B3B2 GT PUSH2 0x71 JUMPI DUP1 PUSH4 0x9752B3B2 EQ PUSH2 0x118 JUMPI DUP1 PUSH4 0x979E9056 EQ PUSH2 0x134 JUMPI DUP1 PUSH4 0xE30C3978 EQ PUSH2 0x152 JUMPI DUP1 PUSH4 0xE7FCD45D EQ PUSH2 0x170 JUMPI DUP1 PUSH4 0xF2FDE38B EQ PUSH2 0x18C JUMPI DUP1 PUSH4 0xF6151089 EQ PUSH2 0x1A8 JUMPI PUSH2 0xA9 JUMP JUMPDEST DUP1 PUSH4 0x1F068108 EQ PUSH2 0xAE JUMPI DUP1 PUSH4 0x715018A6 EQ PUSH2 0xCA JUMPI DUP1 PUSH4 0x79BA5097 EQ PUSH2 0xD4 JUMPI DUP1 PUSH4 0x8DA5CB5B EQ PUSH2 0xDE JUMPI DUP1 PUSH4 0x8F88F261 EQ PUSH2 0xFC JUMPI JUMPDEST PUSH1 0x0 DUP1 REVERT JUMPDEST PUSH2 0xC8 PUSH1 0x4 DUP1 CALLDATASIZE SUB DUP2 ADD SWAP1 PUSH2 0xC3 SWAP2 SWAP1 PUSH2 0xE52 JUMP JUMPDEST PUSH2 0x1B2 JUMP JUMPDEST STOP JUMPDEST PUSH2 0xD2 PUSH2 0x2A7 JUMP JUMPDEST STOP JUMPDEST PUSH2 0xDC PUSH2 0x2BB JUMP JUMPDEST STOP JUMPDEST PUSH2 0xE6 PUSH2 0x348 JUMP JUMPDEST PUSH1 0x40 MLOAD PUSH2 0xF3 SWAP2 SWAP1 PUSH2 0xE8E JUMP JUMPDEST PUSH1 0x40 MLOAD DUP1 SWAP2 SUB SWAP1 RETURN JUMPDEST PUSH2 0x116 PUSH1 0x4 DUP1 CALLDATASIZE SUB DUP2 ADD SWAP1 PUSH2 0x111 SWAP2 SWAP1 PUSH2 0xE52 JUMP JUMPDEST PUSH2 0x371 JUMP JUMPDEST STOP JUMPDEST PUSH2 0x132 PUSH1 0x4 DUP1 CALLDATASIZE SUB DUP2 ADD SWAP1 PUSH2 0x12D SWAP2 SWAP1 PUSH2 0xE52 JUMP JUMPDEST PUSH2 0x466 JUMP JUMPDEST STOP JUMPDEST PUSH2 0x13C PUSH2 0x55B JUMP JUMPDEST PUSH1 0x40 MLOAD PUSH2 0x149 SWAP2 SWAP1 PUSH2 0xEC2 JUMP JUMPDEST PUSH1 0x40 MLOAD DUP1 SWAP2 SUB SWAP1 RETURN JUMPDEST PUSH2 0x15A PUSH2 0x561 JUMP JUMPDEST PUSH1 0x40 MLOAD PUSH2 0x167 SWAP2 SWAP1 PUSH2 0xE8E JUMP JUMPDEST PUSH1 0x40 MLOAD DUP1 SWAP2 SUB SWAP1 RETURN JUMPDEST PUSH2 0x18A PUSH1 0x4 DUP1 CALLDATASIZE SUB DUP2 ADD SWAP1 PUSH2 0x185 SWAP2 SWAP1 PUSH2 0xF09 JUMP JUMPDEST PUSH2 0x58B JUMP JUMPDEST STOP JUMPDEST PUSH2 0x1A6 PUSH1 0x4 DUP1 CALLDATASIZE SUB DUP2 ADD SWAP1 PUSH2 0x1A1 SWAP2 SWAP1 PUSH2 0xE52 JUMP JUMPDEST PUSH2 0x604 JUMP JUMPDEST STOP JUMPDEST PUSH2 0x1B0 PUSH2 0x6B1 JUMP JUMPDEST STOP JUMPDEST PUSH2 0x1BA PUSH2 0xA1D JUMP JUMPDEST PUSH1 0x0 PUSH20 0xFFFFFFFFFFFFFFFFFFFFFFFFFFFFFFFFFFFFFFFF AND DUP2 PUSH20 0xFFFFFFFFFFFFFFFFFFFFFFFFFFFFFFFFFFFFFFFF AND SUB PUSH2 0x220 JUMPI PUSH1 0x40 MLOAD PUSH32 0x842090F100000000000000000000000000000000000000000000000000000000 DUP2 MSTORE PUSH1 0x4 ADD PUSH1 0x40 MLOAD DUP1 SWAP2 SUB SWAP1 REVERT JUMPDEST DUP1 PUSH1 0x4 PUSH1 0x0 PUSH2 0x100 EXP DUP2 SLOAD DUP2 PUSH20 0xFFFFFFFFFFFFFFFFFFFFFFFFFFFFFFFFFFFFFFFF MUL NOT AND SWAP1 DUP4 PUSH20 0xFFFFFFFFFFFFFFFFFFFFFFFFFFFFFFFFFFFFFFFF AND MUL OR SWAP1 SSTORE POP DUP1 PUSH20 0xFFFFFFFFFFFFFFFFFFFFFFFFFFFFFFFFFFFFFFFF AND PUSH32 0xCD19529020FD81D84BEEAE5290E80CEF2820B494E9AEDF821B3C45B8110D7DF PUSH1 0x40 MLOAD PUSH1 0x40 MLOAD DUP1 SWAP2 SUB SWAP1 LOG2 POP JUMP JUMPDEST PUSH2 0x2AF PUSH2 0xA1D JUMP JUMPDEST PUSH2 0x2B9 PUSH1 0x0 PUSH2 0xA9B JUMP JUMPDEST JUMP JUMPDEST PUSH1 0x0 PUSH2 0x2C5 PUSH2 0xACC JUMP JUMPDEST SWAP1 POP DUP1 PUSH20 0xFFFFFFFFFFFFFFFFFFFFFFFFFFFFFFFFFFFFFFFF AND PUSH2 0x2E6 PUSH2 0x561 JUMP JUMPDEST PUSH20 0xFFFFFFFFFFFFFFFFFFFFFFFFFFFFFFFFFFFFFFFF AND EQ PUSH2 0x33C JUMPI PUSH1 0x40 MLOAD PUSH32 0x8C379A000000000000000000000000000000000000000000000000000000000 DUP2 MSTORE PUSH1 0x4 ADD PUSH2 0x333 SWAP1 PUSH2 0xFB9 JUMP JUMPDEST PUSH1 0x40 MLOAD DUP1 SWAP2 SUB SWAP1 REVERT JUMPDEST PUSH2 0x345 DUP2 PUSH2 0xA9B JUMP JUMPDEST POP JUMP JUMPDEST PUSH1 0x0 DUP1 PUSH1 0x0 SWAP1 SLOAD SWAP1 PUSH2 0x100 EXP SWAP1 DIV PUSH20 0xFFFFFFFFFFFFFFFFFFFFFFFFFFFFFFFFFFFFFFFF AND SWAP1 POP SWAP1 JUMP JUMPDEST PUSH2 0x379 PUSH2 0xA1D JUMP JUMPDEST PUSH1 0x0 PUSH20 0xFFFFFFFFFFFFFFFFFFFFFFFFFFFFFFFFFFFFFFFF AND DUP2 PUSH20 0xFFFFFFFFFFFFFFFFFFFFFFFFFFFFFFFFFFFFFFFF AND SUB PUSH2 0x3DF JUMPI PUSH1 0x40 MLOAD PUSH32 0x842090F100000000000000000000000000000000000000000000000000000000 DUP2 MSTORE PUSH1 0x4 ADD PUSH1 0x40 MLOAD DUP1 SWAP2 SUB SWAP1 REVERT JUMPDEST DUP1 PUSH1 0x5 PUSH1 0x0 PUSH2 0x100 EXP DUP2 SLOAD DUP2 PUSH20 0xFFFFFFFFFFFFFFFFFFFFFFFFFFFFFFFFFFFFFFFF MUL NOT AND SWAP1 DUP4 PUSH20 0xFFFFFFFFFFFFFFFFFFFFFFFFFFFFFFFFFFFFFFFF AND MUL OR SWAP1 SSTORE POP DUP1 PUSH20 0xFFFFFFFFFFFFFFFFFFFFFFFFFFFFFFFFFFFFFFFF AND PUSH32 0x203661C8635F7AFB5F15D76E6B159110290D075AD62B4EE9FF9A7AB94187D4BD PUSH1 0x40 MLOAD PUSH1 0x40 MLOAD DUP1 SWAP2 SUB SWAP1 LOG2 POP JUMP JUMPDEST PUSH2 0x46E PUSH2 0xA1D JUMP JUMPDEST PUSH1 0x0 PUSH20 0xFFFFFFFFFFFFFFFFFFFFFFFFFFFFFFFFFFFFFFFF AND DUP2 PUSH20 0xFFFFFFFFFFFFFFFFFFFFFFFFFFFFFFFFFFFFFFFF AND SUB PUSH2 0x4D4 JUMPI PUSH1 0x40 MLOAD PUSH32 0x842090F100000000000000000000000000000000000000000000000000000000 DUP2 MSTORE PUSH1 0x4 ADD PUSH1 0x40 MLOAD DUP1 SWAP2 SUB SWAP1 REVERT JUMPDEST DUP1 PUSH1 0x3 PUSH1 0x0 PUSH2 0x100 EXP DUP2 SLOAD DUP2 PUSH20 0xFFFFFFFFFFFFFFFFFFFFFFFFFFFFFFFFFFFFFFFF MUL NOT AND SWAP1 DUP4 PUSH20 0xFFFFFFFFFFFFFFFFFFFFFFFFFFFFFFFFFFFFFFFF AND MUL OR SWAP1 SSTORE POP DUP1 PUSH20 0xFFFFFFFFFFFFFFFFFFFFFFFFFFFFFFFFFFFFFFFF AND PUSH32 0x170B0500CCF8A13146ECD9838C59849129B54BEDA77DADBE500B8817CDC8D368 PUSH1 0x40 MLOAD PUSH1 0x40 MLOAD DUP1 SWAP2 SUB SWAP1 LOG2 POP JUMP JUMPDEST PUSH1 0x7 SLOAD DUP2 JUMP JUMPDEST PUSH1 0x0 PUSH1 0x1 PUSH1 0x0 SWAP1 SLOAD SWAP1 PUSH2 0x100 EXP SWAP1 DIV PUSH20 0xFFFFFFFFFFFFFFFFFFFFFFFFFFFFFFFFFFFFFFFF AND SWAP1 POP SWAP1 JUMP JUMPDEST PUSH2 0x593 PUSH2 0xA1D JUMP JUMPDEST PUSH1 0x0 DUP2 SUB PUSH2 0x5CD JUMPI PUSH1 0x40 MLOAD PUSH32 0xC830261600000000000000000000000000000000000000000000000000000000 DUP2 MSTORE PUSH1 0x4 ADD PUSH1 0x40 MLOAD DUP1 SWAP2 SUB SWAP1 REVERT JUMPDEST DUP1 PUSH1 0x6 DUP2 SWAP1 SSTORE POP DUP1 PUSH32 0x3D5A337607048974766EC58E2109261B4871329988D9615E7051BAE635C38A60 PUSH1 0x40 MLOAD PUSH1 0x40 MLOAD DUP1 SWAP2 SUB SWAP1 LOG2 POP JUMP JUMPDEST PUSH2 0x60C PUSH2 0xA1D JUMP JUMPDEST DUP1 PUSH1 0x1 PUSH1 0x0 PUSH2 0x100 EXP DUP2 SLOAD DUP2 PUSH20 0xFFFFFFFFFFFFFFFFFFFFFFFFFFFFFFFFFFFFFFFF MUL NOT AND SWAP1 DUP4 PUSH20 0xFFFFFFFFFFFFFFFFFFFFFFFFFFFFFFFFFFFFFFFF AND MUL OR SWAP1 SSTORE POP DUP1 PUSH20 0xFFFFFFFFFFFFFFFFFFFFFFFFFFFFFFFFFFFFFFFF AND PUSH2 0x66C PUSH2 0x348 JUMP JUMPDEST PUSH20 0xFFFFFFFFFFFFFFFFFFFFFFFFFFFFFFFFFFFFFFFF AND PUSH32 0x38D16B8CAC22D99FC7C124B9CD0DE2D3FA1FAEF420BFE791D8C362D765E22700 PUSH1 0x40 MLOAD PUSH1 0x40 MLOAD DUP1 SWAP2 SUB SWAP1 LOG3 POP JUMP JUMPDEST PUSH2 0x6B9 PUSH2 0xA1D JUMP JUMPDEST PUSH1 0x0 PUSH1 0x6 SLOAD PUSH1 0x64 PUSH32 0x0 PUSH20 0xFFFFFFFFFFFFFFFFFFFFFFFFFFFFFFFFFFFFFFFF AND PUSH4 0x70A08231 ADDRESS PUSH1 0x40 MLOAD DUP3 PUSH4 0xFFFFFFFF AND PUSH1 0xE0 SHL DUP2 MSTORE PUSH1 0x4 ADD PUSH2 0x719 SWAP2 SWAP1 PUSH2 0xE8E JUMP JUMPDEST PUSH1 0x20 PUSH1 0x40 MLOAD DUP1 DUP4 SUB DUP2 DUP7 GAS STATICCALL ISZERO DUP1 ISZERO PUSH2 0x736 JUMPI RETURNDATASIZE PUSH1 0x0 DUP1 RETURNDATACOPY RETURNDATASIZE PUSH1 0x0 REVERT JUMPDEST POP POP POP POP PUSH1 0x40 MLOAD RETURNDATASIZE PUSH1 0x1F NOT PUSH1 0x1F DUP3 ADD AND DUP3 ADD DUP1 PUSH1 0x40 MSTORE POP DUP2 ADD SWAP1 PUSH2 0x75A SWAP2 SWAP1 PUSH2 0xFEE JUMP JUMPDEST PUSH2 0x764 SWAP2 SWAP1 PUSH2 0x104A JUMP JUMPDEST PUSH2 0x76E SWAP2 SWAP1 PUSH2 0x10BB JUMP JUMPDEST SWAP1 POP PUSH2 0x7C9 PUSH32 0x0 PUSH1 0x5 PUSH1 0x0 SWAP1 SLOAD SWAP1 PUSH2 0x100 EXP SWAP1 DIV PUSH20 0xFFFFFFFFFFFFFFFFFFFFFFFFFFFFFFFFFFFFFFFF AND PUSH1 0x2 DUP5 PUSH2 0x7C4 SWAP2 SWAP1 PUSH2 0x10BB JUMP JUMPDEST PUSH2 0xAD4 JUMP JUMPDEST PUSH2 0x822 PUSH32 0x0 PUSH1 0x4 PUSH1 0x0 SWAP1 SLOAD SWAP1 PUSH2 0x100 EXP SWAP1 DIV PUSH20 0xFFFFFFFFFFFFFFFFFFFFFFFFFFFFFFFFFFFFFFFF AND PUSH1 0x2 DUP5 PUSH2 0x81D SWAP2 SWAP1 PUSH2 0x10BB JUMP JUMPDEST PUSH2 0xAD4 JUMP JUMPDEST PUSH1 0x0 PUSH32 0x0 PUSH20 0xFFFFFFFFFFFFFFFFFFFFFFFFFFFFFFFFFFFFFFFF AND PUSH4 0x70A08231 ADDRESS PUSH1 0x40 MLOAD DUP3 PUSH4 0xFFFFFFFF AND PUSH1 0xE0 SHL DUP2 MSTORE PUSH1 0x4 ADD PUSH2 0x87D SWAP2 SWAP1 PUSH2 0xE8E JUMP JUMPDEST PUSH1 0x20 PUSH1 0x40 MLOAD DUP1 DUP4 SUB DUP2 DUP7 GAS STATICCALL ISZERO DUP1 ISZERO PUSH2 0x89A JUMPI RETURNDATASIZE PUSH1 0x0 DUP1 RETURNDATACOPY RETURNDATASIZE PUSH1 0x0 REVERT JUMPDEST POP POP POP POP PUSH1 0x40 MLOAD RETURNDATASIZE PUSH1 0x1F NOT PUSH1 0x1F DUP3 ADD AND DUP3 ADD DUP1 PUSH1 0x40 MSTORE POP DUP2 ADD SWAP1 PUSH2 0x8BE SWAP2 SWAP1 PUSH2 0xFEE JUMP JUMPDEST SWAP1 POP PUSH2 0x90D PUSH32 0x0 PUSH1 0x3 PUSH1 0x0 SWAP1 SLOAD SWAP1 PUSH2 0x100 EXP SWAP1 DIV PUSH20 0xFFFFFFFFFFFFFFFFFFFFFFFFFFFFFFFFFFFFFFFF AND DUP4 PUSH2 0xAD4 JUMP JUMPDEST DUP1 PUSH1 0x7 PUSH1 0x0 DUP3 DUP3 SLOAD PUSH2 0x91F SWAP2 SWAP1 PUSH2 0x10EC JUMP JUMPDEST SWAP3 POP POP DUP2 SWAP1 SSTORE POP DUP1 DUP3 TIMESTAMP PUSH32 0x50EFD2F2F250964DA5961D710F9E330EA396FAEC8EF1E3DAD48FF354A629D382 PUSH1 0x40 MLOAD PUSH1 0x40 MLOAD DUP1 SWAP2 SUB SWAP1 LOG4 POP POP JUMP JUMPDEST PUSH1 0x0 DUP1 PUSH1 0x0 SWAP1 SLOAD SWAP1 PUSH2 0x100 EXP SWAP1 DIV PUSH20 0xFFFFFFFFFFFFFFFFFFFFFFFFFFFFFFFFFFFFFFFF AND SWAP1 POP DUP2 PUSH1 0x0 DUP1 PUSH2 0x100 EXP DUP2 SLOAD DUP2 PUSH20 0xFFFFFFFFFFFFFFFFFFFFFFFFFFFFFFFFFFFFFFFF MUL NOT AND SWAP1 DUP4 PUSH20 0xFFFFFFFFFFFFFFFFFFFFFFFFFFFFFFFFFFFFFFFF AND MUL OR SWAP1 SSTORE POP DUP2 PUSH20 0xFFFFFFFFFFFFFFFFFFFFFFFFFFFFFFFFFFFFFFFF AND DUP2 PUSH20 0xFFFFFFFFFFFFFFFFFFFFFFFFFFFFFFFFFFFFFFFF AND PUSH32 0x8BE0079C531659141344CD1FD0A4F28419497F9722A3DAAFE3B4186F6B6457E0 PUSH1 0x40 MLOAD PUSH1 0x40 MLOAD DUP1 SWAP2 SUB SWAP1 LOG3 POP POP JUMP JUMPDEST PUSH2 0xA25 PUSH2 0xACC JUMP JUMPDEST PUSH20 0xFFFFFFFFFFFFFFFFFFFFFFFFFFFFFFFFFFFFFFFF AND PUSH2 0xA43 PUSH2 0x348 JUMP JUMPDEST PUSH20 0xFFFFFFFFFFFFFFFFFFFFFFFFFFFFFFFFFFFFFFFF AND EQ PUSH2 0xA99 JUMPI PUSH1 0x40 MLOAD PUSH32 0x8C379A000000000000000000000000000000000000000000000000000000000 DUP2 MSTORE PUSH1 0x4 ADD PUSH2 0xA90 SWAP1 PUSH2 0x116C JUMP JUMPDEST PUSH1 0x40 MLOAD DUP1 SWAP2 SUB SWAP1 REVERT JUMPDEST JUMP JUMPDEST PUSH1 0x1 PUSH1 0x0 PUSH2 0x100 EXP DUP2 SLOAD SWAP1 PUSH20 0xFFFFFFFFFFFFFFFFFFFFFFFFFFFFFFFFFFFFFFFF MUL NOT AND SWAP1 SSTORE PUSH2 0xAC9 DUP2 PUSH2 0x959 JUMP JUMPDEST POP JUMP JUMPDEST PUSH1 0x0 CALLER SWAP1 POP SWAP1 JUMP JUMPDEST PUSH2 0xB55 DUP4 PUSH4 0xA9059CBB PUSH1 0xE0 SHL DUP5 DUP5 PUSH1 0x40 MLOAD PUSH1 0x24 ADD PUSH2 0xAF3 SWAP3 SWAP2 SWAP1 PUSH2 0x118C JUMP JUMPDEST PUSH1 0x40 MLOAD PUSH1 0x20 DUP2 DUP4 SUB SUB DUP2 MSTORE SWAP1 PUSH1 0x40 MSTORE SWAP1 PUSH28 0xFFFFFFFFFFFFFFFFFFFFFFFFFFFFFFFFFFFFFFFFFFFFFFFFFFFFFFFF NOT AND PUSH1 0x20 DUP3 ADD DUP1 MLOAD PUSH28 0xFFFFFFFFFFFFFFFFFFFFFFFFFFFFFFFFFFFFFFFFFFFFFFFFFFFFFFFF DUP4 DUP2 DUP4 AND OR DUP4 MSTORE POP POP POP POP PUSH2 0xB5A JUMP JUMPDEST POP POP POP JUMP JUMPDEST PUSH1 0x0 PUSH2 0xBBC DUP3 PUSH1 0x40 MLOAD DUP1 PUSH1 0x40 ADD PUSH1 0x40 MSTORE DUP1 PUSH1 0x20 DUP2 MSTORE PUSH1 0x20 ADD PUSH32 0x5361666545524332303A206C6F772D6C6576656C2063616C6C206661696C6564 DUP2 MSTORE POP DUP6 PUSH20 0xFFFFFFFFFFFFFFFFFFFFFFFFFFFFFFFFFFFFFFFF AND PUSH2 0xC22 SWAP1 SWAP3 SWAP2 SWAP1 PUSH4 0xFFFFFFFF AND JUMP JUMPDEST SWAP1 POP PUSH1 0x0 DUP2 MLOAD EQ DUP1 PUSH2 0xBDE JUMPI POP DUP1 DUP1 PUSH1 0x20 ADD SWAP1 MLOAD DUP2 ADD SWAP1 PUSH2 0xBDD SWAP2 SWAP1 PUSH2 0x11ED JUMP JUMPDEST JUMPDEST PUSH2 0xC1D JUMPI PUSH1 0x40 MLOAD PUSH32 0x8C379A000000000000000000000000000000000000000000000000000000000 DUP2 MSTORE PUSH1 0x4 ADD PUSH2 0xC14 SWAP1 PUSH2 0x128C JUMP JUMPDEST PUSH1 0x40 MLOAD DUP1 SWAP2 SUB SWAP1 REVERT JUMPDEST POP POP POP JUMP JUMPDEST PUSH1 0x60 PUSH2 0xC31 DUP5 DUP5 PUSH1 0x0 DUP6 PUSH2 0xC3A JUMP JUMPDEST SWAP1 POP SWAP4 SWAP3 POP POP POP JUMP JUMPDEST PUSH1 0x60 DUP3 SELFBALANCE LT ISZERO PUSH2 0xC7F JUMPI PUSH1 0x40 MLOAD PUSH32 0x8C379A000000000000000000000000000000000000000000000000000000000 DUP2 MSTORE PUSH1 0x4 ADD PUSH2 0xC76 SWAP1 PUSH2 0x131E JUMP JUMPDEST PUSH1 0x40 MLOAD DUP1 SWAP2 SUB SWAP1 REVERT JUMPDEST PUSH1 0x0 DUP1 DUP7 PUSH20 0xFFFFFFFFFFFFFFFFFFFFFFFFFFFFFFFFFFFFFFFF AND DUP6 DUP8 PUSH1 0x40 MLOAD PUSH2 0xCA8 SWAP2 SWAP1 PUSH2 0x13AF JUMP JUMPDEST PUSH1 0x0 PUSH1 0x40 MLOAD DUP1 DUP4 SUB DUP2 DUP6 DUP8 GAS CALL SWAP3 POP POP POP RETURNDATASIZE DUP1 PUSH1 0x0 DUP2 EQ PUSH2 0xCE5 JUMPI PUSH1 0x40 MLOAD SWAP2 POP PUSH1 0x1F NOT PUSH1 0x3F RETURNDATASIZE ADD AND DUP3 ADD PUSH1 0x40 MSTORE RETURNDATASIZE DUP3 MSTORE RETURNDATASIZE PUSH1 0x0 PUSH1 0x20 DUP5 ADD RETURNDATACOPY PUSH2 0xCEA JUMP JUMPDEST PUSH1 0x60 SWAP2 POP JUMPDEST POP SWAP2 POP SWAP2 POP PUSH2 0xCFB DUP8 DUP4 DUP4 DUP8 PUSH2 0xD07 JUMP JUMPDEST SWAP3 POP POP POP SWAP5 SWAP4 POP POP POP POP JUMP JUMPDEST PUSH1 0x60 DUP4 ISZERO PUSH2 0xD69 JUMPI PUSH1 0x0 DUP4 MLOAD SUB PUSH2 0xD61 JUMPI PUSH2 0xD21 DUP6 PUSH2 0xD7C JUMP JUMPDEST PUSH2 0xD60 JUMPI PUSH1 0x40 MLOAD PUSH32 0x8C379A000000000000000000000000000000000000000000000000000000000 DUP2 MSTORE PUSH1 0x4 ADD PUSH2 0xD57 SWAP1 PUSH2 0x1412 JUMP JUMPDEST PUSH1 0x40 MLOAD DUP1 SWAP2 SUB SWAP1 REVERT JUMPDEST JUMPDEST DUP3 SWAP1 POP PUSH2 0xD74 JUMP JUMPDEST PUSH2 0xD73 DUP4 DUP4 PUSH2 0xD9F JUMP JUMPDEST JUMPDEST SWAP5 SWAP4 POP POP POP POP JUMP JUMPDEST PUSH1 0x0 DUP1 DUP3 PUSH20 0xFFFFFFFFFFFFFFFFFFFFFFFFFFFFFFFFFFFFFFFF AND EXTCODESIZE GT SWAP1 POP SWAP2 SWAP1 POP JUMP JUMPDEST PUSH1 0x0 DUP3 MLOAD GT ISZERO PUSH2 0xDB2 JUMPI DUP2 MLOAD DUP1 DUP4 PUSH1 0x20 ADD REVERT JUMPDEST DUP1 PUSH1 0x40 MLOAD PUSH32 0x8C379A000000000000000000000000000000000000000000000000000000000 DUP2 MSTORE PUSH1 0x4 ADD PUSH2 0xDE6 SWAP2 SWAP1 PUSH2 0x1487 JUMP JUMPDEST PUSH1 0x40 MLOAD DUP1 SWAP2 SUB SWAP1 REVERT JUMPDEST PUSH1 0x0 DUP1 REVERT JUMPDEST PUSH1 0x0 PUSH20 0xFFFFFFFFFFFFFFFFFFFFFFFFFFFFFFFFFFFFFFFF DUP3 AND SWAP1 POP SWAP2 SWAP1 POP JUMP JUMPDEST PUSH1 0x0 PUSH2 0xE1F DUP3 PUSH2 0xDF4 JUMP JUMPDEST SWAP1 POP SWAP2 SWAP1 POP JUMP JUMPDEST PUSH2 0xE2F DUP2 PUSH2 0xE14 JUMP JUMPDEST DUP2 EQ PUSH2 0xE3A JUMPI PUSH1 0x0 DUP1 REVERT JUMPDEST POP JUMP JUMPDEST PUSH1 0x0 DUP2 CALLDATALOAD SWAP1 POP PUSH2 0xE4C DUP2 PUSH2 0xE26 JUMP JUMPDEST SWAP3 SWAP2 POP POP JUMP JUMPDEST PUSH1 0x0 PUSH1 0x20 DUP3 DUP5 SUB SLT ISZERO PUSH2 0xE68 JUMPI PUSH2 0xE67 PUSH2 0xDEF JUMP JUMPDEST JUMPDEST PUSH1 0x0 PUSH2 0xE76 DUP5 DUP3 DUP6 ADD PUSH2 0xE3D JUMP JUMPDEST SWAP2 POP POP SWAP3 SWAP2 POP POP JUMP JUMPDEST PUSH2 0xE88 DUP2 PUSH2 0xE14 JUMP JUMPDEST DUP3 MSTORE POP POP JUMP JUMPDEST PUSH1 0x0 PUSH1 0x20 DUP3 ADD SWAP1 POP PUSH2 0xEA3 PUSH1 0x0 DUP4 ADD DUP5 PUSH2 0xE7F JUMP JUMPDEST SWAP3 SWAP2 POP POP JUMP JUMPDEST PUSH1 0x0 DUP2 SWAP1 POP SWAP2 SWAP1 POP JUMP JUMPDEST PUSH2 0xEBC DUP2 PUSH2 0xEA9 JUMP JUMPDEST DUP3 MSTORE POP POP JUMP JUMPDEST PUSH1 0x0 PUSH1 0x20 DUP3 ADD SWAP1 POP PUSH2 0xED7 PUSH1 0x0 DUP4 ADD DUP5 PUSH2 0xEB3 JUMP JUMPDEST SWAP3 SWAP2 POP POP JUMP JUMPDEST PUSH2 0xEE6 DUP2 PUSH2 0xEA9 JUMP JUMPDEST DUP2 EQ PUSH2 0xEF1 JUMPI PUSH1 0x0 DUP1 REVERT JUMPDEST POP JUMP JUMPDEST PUSH1 0x0 DUP2 CALLDATALOAD SWAP1 POP PUSH2 0xF03 DUP2 PUSH2 0xEDD JUMP JUMPDEST SWAP3 SWAP2 POP POP JUMP JUMPDEST PUSH1 0x0 PUSH1 0x20 DUP3 DUP5 SUB SLT ISZERO PUSH2 0xF1F JUMPI PUSH2 0xF1E PUSH2 0xDEF JUMP JUMPDEST JUMPDEST PUSH1 0x0 PUSH2 0xF2D DUP5 DUP3 DUP6 ADD PUSH2 0xEF4 JUMP JUMPDEST SWAP2 POP POP SWAP3 SWAP2 POP POP JUMP JUMPDEST PUSH1 0x0 DUP3 DUP3 MSTORE PUSH1 0x20 DUP3 ADD SWAP1 POP SWAP3 SWAP2 POP POP JUMP JUMPDEST PUSH32 0x4F776E61626C6532537465703A2063616C6C6572206973206E6F742074686520 PUSH1 0x0 DUP3 ADD MSTORE PUSH32 0x6E6577206F776E65720000000000000000000000000000000000000000000000 PUSH1 0x20 DUP3 ADD MSTORE POP JUMP JUMPDEST PUSH1 0x0 PUSH2 0xFA3 PUSH1 0x29 DUP4 PUSH2 0xF36 JUMP JUMPDEST SWAP2 POP PUSH2 0xFAE DUP3 PUSH2 0xF47 JUMP JUMPDEST PUSH1 0x40 DUP3 ADD SWAP1 POP SWAP2 SWAP1 POP JUMP JUMPDEST PUSH1 0x0 PUSH1 0x20 DUP3 ADD SWAP1 POP DUP2 DUP2 SUB PUSH1 0x0 DUP4 ADD MSTORE PUSH2 0xFD2 DUP2 PUSH2 0xF96 JUMP JUMPDEST SWAP1 POP SWAP2 SWAP1 POP JUMP JUMPDEST PUSH1 0x0 DUP2 MLOAD SWAP1 POP PUSH2 0xFE8 DUP2 PUSH2 0xEDD JUMP JUMPDEST SWAP3 SWAP2 POP POP JUMP JUMPDEST PUSH1 0x0 PUSH1 0x20 DUP3 DUP5 SUB SLT ISZERO PUSH2 0x1004 JUMPI PUSH2 0x1003 PUSH2 0xDEF JUMP JUMPDEST JUMPDEST PUSH1 0x0 PUSH2 0x1012 DUP5 DUP3 DUP6 ADD PUSH2 0xFD9 JUMP JUMPDEST SWAP2 POP POP SWAP3 SWAP2 POP POP JUMP JUMPDEST PUSH32 0x4E487B7100000000000000000000000000000000000000000000000000000000 PUSH1 0x0 MSTORE PUSH1 0x11 PUSH1 0x4 MSTORE PUSH1 0x24 PUSH1 0x0 REVERT JUMPDEST PUSH1 0x0 PUSH2 0x1055 DUP3 PUSH2 0xEA9 JUMP JUMPDEST SWAP2 POP PUSH2 0x1060 DUP4 PUSH2 0xEA9 JUMP JUMPDEST SWAP3 POP DUP3 DUP3 MUL PUSH2 0x106E DUP2 PUSH2 0xEA9 JUMP JUMPDEST SWAP2 POP DUP3 DUP3 DIV DUP5 EQ DUP4 ISZERO OR PUSH2 0x1085 JUMPI PUSH2 0x1084 PUSH2 0x101B JUMP JUMPDEST JUMPDEST POP SWAP3 SWAP2 POP POP JUMP JUMPDEST PUSH32 0x4E487B7100000000000000000000000000000000000000000000000000000000 PUSH1 0x0 MSTORE PUSH1 0x12 PUSH1 0x4 MSTORE PUSH1 0x24 PUSH1 0x0 REVERT JUMPDEST PUSH1 0x0 PUSH2 0x10C6 DUP3 PUSH2 0xEA9 JUMP JUMPDEST SWAP2 POP PUSH2 0x10D1 DUP4 PUSH2 0xEA9 JUMP JUMPDEST SWAP3 POP DUP3 PUSH2 0x10E1 JUMPI PUSH2 0x10E0 PUSH2 0x108C JUMP JUMPDEST JUMPDEST DUP3 DUP3 DIV SWAP1 POP SWAP3 SWAP2 POP POP JUMP JUMPDEST PUSH1 0x0 PUSH2 0x10F7 DUP3 PUSH2 0xEA9 JUMP JUMPDEST SWAP2 POP PUSH2 0x1102 DUP4 PUSH2 0xEA9 JUMP JUMPDEST SWAP3 POP DUP3 DUP3 ADD SWAP1 POP DUP1 DUP3 GT ISZERO PUSH2 0x111A JUMPI PUSH2 0x1119 PUSH2 0x101B JUMP JUMPDEST JUMPDEST SWAP3 SWAP2 POP POP JUMP JUMPDEST PUSH32 0x4F776E61626C653A2063616C6C6572206973206E6F7420746865206F776E6572 PUSH1 0x0 DUP3 ADD MSTORE POP JUMP JUMPDEST PUSH1 0x0 PUSH2 0x1156 PUSH1 0x20 DUP4 PUSH2 0xF36 JUMP JUMPDEST SWAP2 POP PUSH2 0x1161 DUP3 PUSH2 0x1120 JUMP JUMPDEST PUSH1 0x20 DUP3 ADD SWAP1 POP SWAP2 SWAP1 POP JUMP JUMPDEST PUSH1 0x0 PUSH1 0x20 DUP3 ADD SWAP1 POP DUP2 DUP2 SUB PUSH1 0x0 DUP4 ADD MSTORE PUSH2 0x1185 DUP2 PUSH2 0x1149 JUMP JUMPDEST SWAP1 POP SWAP2 SWAP1 POP JUMP JUMPDEST PUSH1 0x0 PUSH1 0x40 DUP3 ADD SWAP1 POP PUSH2 0x11A1 PUSH1 0x0 DUP4 ADD DUP6 PUSH2 0xE7F JUMP JUMPDEST PUSH2 0x11AE PUSH1 0x20 DUP4 ADD DUP5 PUSH2 0xEB3 JUMP JUMPDEST SWAP4 SWAP3 POP POP POP JUMP JUMPDEST PUSH1 0x0 DUP2 ISZERO ISZERO SWAP1 POP SWAP2 SWAP1 POP JUMP JUMPDEST PUSH2 0x11CA DUP2 PUSH2 0x11B5 JUMP JUMPDEST DUP2 EQ PUSH2 0x11D5 JUMPI PUSH1 0x0 DUP1 REVERT JUMPDEST POP JUMP JUMPDEST PUSH1 0x0 DUP2 MLOAD SWAP1 POP PUSH2 0x11E7 DUP2 PUSH2 0x11C1 JUMP JUMPDEST SWAP3 SWAP2 POP POP JUMP JUMPDEST PUSH1 0x0 PUSH1 0x20 DUP3 DUP5 SUB SLT ISZERO PUSH2 0x1203 JUMPI PUSH2 0x1202 PUSH2 0xDEF JUMP JUMPDEST JUMPDEST PUSH1 0x0 PUSH2 0x1211 DUP5 DUP3 DUP6 ADD PUSH2 0x11D8 JUMP JUMPDEST SWAP2 POP POP SWAP3 SWAP2 POP POP JUMP JUMPDEST PUSH32 0x5361666545524332303A204552433230206F7065726174696F6E20646964206E PUSH1 0x0 DUP3 ADD MSTORE PUSH32 0x6F74207375636365656400000000000000000000000000000000000000000000 PUSH1 0x20 DUP3 ADD MSTORE POP JUMP JUMPDEST PUSH1 0x0 PUSH2 0x1276 PUSH1 0x2A DUP4 PUSH2 0xF36 JUMP JUMPDEST SWAP2 POP PUSH2 0x1281 DUP3 PUSH2 0x121A JUMP JUMPDEST PUSH1 0x40 DUP3 ADD SWAP1 POP SWAP2 SWAP1 POP JUMP JUMPDEST PUSH1 0x0 PUSH1 0x20 DUP3 ADD SWAP1 POP DUP2 DUP2 SUB PUSH1 0x0 DUP4 ADD MSTORE PUSH2 0x12A5 DUP2 PUSH2 0x1269 JUMP JUMPDEST SWAP1 POP SWAP2 SWAP1 POP JUMP JUMPDEST PUSH32 0x416464726573733A20696E73756666696369656E742062616C616E636520666F PUSH1 0x0 DUP3 ADD MSTORE PUSH32 0x722063616C6C0000000000000000000000000000000000000000000000000000 PUSH1 0x20 DUP3 ADD MSTORE POP JUMP JUMPDEST PUSH1 0x0 PUSH2 0x1308 PUSH1 0x26 DUP4 PUSH2 0xF36 JUMP JUMPDEST SWAP2 POP PUSH2 0x1313 DUP3 PUSH2 0x12AC JUMP JUMPDEST PUSH1 0x40 DUP3 ADD SWAP1 POP SWAP2 SWAP1 POP JUMP JUMPDEST PUSH1 0x0 PUSH1 0x20 DUP3 ADD SWAP1 POP DUP2 DUP2 SUB PUSH1 0x0 DUP4 ADD MSTORE PUSH2 0x1337 DUP2 PUSH2 0x12FB JUMP JUMPDEST SWAP1 POP SWAP2 SWAP1 POP JUMP JUMPDEST PUSH1 0x0 DUP2 MLOAD SWAP1 POP SWAP2 SWAP1 POP JUMP JUMPDEST PUSH1 0x0 DUP2 SWAP1 POP SWAP3 SWAP2 POP POP JUMP JUMPDEST PUSH1 0x0 JUMPDEST DUP4 DUP2 LT ISZERO PUSH2 0x1372 JUMPI DUP1 DUP3 ADD MLOAD DUP2 DUP5 ADD MSTORE PUSH1 0x20 DUP2 ADD SWAP1 POP PUSH2 0x1357 JUMP JUMPDEST PUSH1 0x0 DUP5 DUP5 ADD MSTORE POP POP POP POP JUMP JUMPDEST PUSH1 0x0 PUSH2 0x1389 DUP3 PUSH2 0x133E JUMP JUMPDEST PUSH2 0x1393 DUP2 DUP6 PUSH2 0x1349 JUMP JUMPDEST SWAP4 POP PUSH2 0x13A3 DUP2 DUP6 PUSH1 0x20 DUP7 ADD PUSH2 0x1354 JUMP JUMPDEST DUP1 DUP5 ADD SWAP2 POP POP SWAP3 SWAP2 POP POP JUMP JUMPDEST PUSH1 0x0 PUSH2 0x13BB DUP3 DUP5 PUSH2 0x137E JUMP JUMPDEST SWAP2 POP DUP2 SWAP1 POP SWAP3 SWAP2 POP POP JUMP JUMPDEST PUSH32 0x416464726573733A2063616C6C20746F206E6F6E2D636F6E7472616374000000 PUSH1 0x0 DUP3 ADD MSTORE POP JUMP JUMPDEST PUSH1 0x0 PUSH2 0x13FC PUSH1 0x1D DUP4 PUSH2 0xF36 JUMP JUMPDEST SWAP2 POP PUSH2 0x1407 DUP3 PUSH2 0x13C6 JUMP JUMPDEST PUSH1 0x20 DUP3 ADD SWAP1 POP SWAP2 SWAP1 POP JUMP JUMPDEST PUSH1 0x0 PUSH1 0x20 DUP3 ADD SWAP1 POP DUP2 DUP2 SUB PUSH1 0x0 DUP4 ADD MSTORE PUSH2 0x142B DUP2 PUSH2 0x13EF JUMP JUMPDEST SWAP1 POP SWAP2 SWAP1 POP JUMP JUMPDEST PUSH1 0x0 DUP2 MLOAD SWAP1 POP SWAP2 SWAP1 POP JUMP JUMPDEST PUSH1 0x0 PUSH1 0x1F NOT PUSH1 0x1F DUP4 ADD AND SWAP1 POP SWAP2 SWAP1 POP JUMP JUMPDEST PUSH1 0x0 PUSH2 0x1459 DUP3 PUSH2 0x1432 JUMP JUMPDEST PUSH2 0x1463 DUP2 DUP6 PUSH2 0xF36 JUMP JUMPDEST SWAP4 POP PUSH2 0x1473 DUP2 DUP6 PUSH1 0x20 DUP7 ADD PUSH2 0x1354 JUMP JUMPDEST PUSH2 0x147C DUP2 PUSH2 0x143D JUMP JUMPDEST DUP5 ADD SWAP2 POP POP SWAP3 SWAP2 POP POP JUMP JUMPDEST PUSH1 0x0 PUSH1 0x20 DUP3 ADD SWAP1 POP DUP2 DUP2 SUB PUSH1 0x0 DUP4 ADD MSTORE PUSH2 0x14A1 DUP2 DUP5 PUSH2 0x144E JUMP JUMPDEST SWAP1 POP SWAP3 SWAP2 POP POP JUMP INVALID LOG2 PUSH5 0x6970667358 0x22 SLT KECCAK256 0xBD SWAP5 SWAP7 0x5D 0xD8 PUSH24 0x9C9C981564D49F655BE2BA1A169435FD4CFA2C51BA5F9EDF PUSH22 0x7E64736F6C6343000812003300000000000000000000 "
				},
				"gasEstimates": {
					"creation": {
						"codeDepositCost": "1068600",
						"executionCost": "infinite",
						"totalCost": "infinite"
					},
					"external": {
						"acceptOwnership()": "54703",
						"owner()": "2589",
						"pendingOwner()": "2566",
						"renounceOwnership()": "54692",
						"setBribingWallet(address)": "28182",
						"setEqualDaoWallet(address)": "28271",
						"setPantheonWallet(address)": "28183",
						"setProfitDivider(uint256)": "26028",
						"splitFees()": "infinite",
						"totalBribes()": "2451",
						"transferOwnership(address)": "infinite"
					}
				},
				"methodIdentifiers": {
					"acceptOwnership()": "79ba5097",
					"owner()": "8da5cb5b",
					"pendingOwner()": "e30c3978",
					"renounceOwnership()": "715018a6",
					"setBribingWallet(address)": "9752b3b2",
					"setEqualDaoWallet(address)": "8f88f261",
					"setPantheonWallet(address)": "1f068108",
					"setProfitDivider(uint256)": "e7fcd45d",
					"splitFees()": "f6151089",
					"totalBribes()": "979e9056",
					"transferOwnership(address)": "f2fde38b"
				}
			},
			"storageLayout": {
				"storage": [
					{
						"astId": 7,
						"contract": "FeeSplitter.sol:FeeSplitter",
						"label": "_owner",
						"offset": 0,
						"slot": "0",
						"type": "t_address"
					},
					{
						"astId": 120,
						"contract": "FeeSplitter.sol:FeeSplitter",
						"label": "_pendingOwner",
						"offset": 0,
						"slot": "1",
						"type": "t_address"
					},
					{
						"astId": 206,
						"contract": "FeeSplitter.sol:FeeSplitter",
						"label": "_status",
						"offset": 0,
						"slot": "2",
						"type": "t_uint256"
					},
					{
						"astId": 1132,
						"contract": "FeeSplitter.sol:FeeSplitter",
						"label": "BRIBES",
						"offset": 0,
						"slot": "3",
						"type": "t_address"
					},
					{
						"astId": 1134,
						"contract": "FeeSplitter.sol:FeeSplitter",
						"label": "PANTHEON",
						"offset": 0,
						"slot": "4",
						"type": "t_address"
					},
					{
						"astId": 1136,
						"contract": "FeeSplitter.sol:FeeSplitter",
						"label": "EQUALDAO",
						"offset": 0,
						"slot": "5",
						"type": "t_address"
					},
					{
						"astId": 1138,
						"contract": "FeeSplitter.sol:FeeSplitter",
						"label": "ProfitDivider",
						"offset": 0,
						"slot": "6",
						"type": "t_uint256"
					},
					{
						"astId": 1141,
						"contract": "FeeSplitter.sol:FeeSplitter",
						"label": "totalBribes",
						"offset": 0,
						"slot": "7",
						"type": "t_uint256"
					}
				],
				"types": {
					"t_address": {
						"encoding": "inplace",
						"label": "address",
						"numberOfBytes": "20"
					},
					"t_uint256": {
						"encoding": "inplace",
						"label": "uint256",
						"numberOfBytes": "32"
					}
				}
			},
			"userdoc": {
				"kind": "user",
				"methods": {
					"setBribingWallet(address)": {
						"notice": "this function lets the owner set the Bribing Wallet"
					},
					"setEqualDaoWallet(address)": {
						"notice": "this function lets the owner set the =DAO Wallet"
					},
					"setPantheonWallet(address)": {
						"notice": "this function lets the owner set the Pantheon Wallet"
					},
					"setProfitDivider(uint256)": {
						"notice": "this function lets the owner set the ProfitDivider variable that is used to calculate the amount sent to the Pantheon & =DAO wallets"
					},
					"splitFees()": {
						"notice": "this function splits the revenue generated by pTOKEN.sol into the Bribing Wallet and the Pantheon & =DAO wallets"
					}
				},
				"version": 1
			}
		}
	}
}