{
	"pTOKENv2.sol": {
		"pTOKEN": {
			"abi": [
				{
					"inputs": [
						{
							"internalType": "address",
							"name": "_feeAddress",
							"type": "address"
						},
						{
							"internalType": "address",
							"name": "_backing",
							"type": "address"
						}
					],
					"stateMutability": "nonpayable",
					"type": "constructor"
				},
				{
					"inputs": [],
					"name": "ContractAlreadyFilled",
					"type": "error"
				},
				{
					"inputs": [],
					"name": "MintAndRedeemFeeNotInRange",
					"type": "error"
				},
				{
					"inputs": [],
					"name": "MustTradeOverMin",
					"type": "error"
				},
				{
					"inputs": [],
					"name": "NotStartedYet",
					"type": "error"
				},
				{
					"inputs": [],
					"name": "TeamFeeNotInRange",
					"type": "error"
				},
				{
					"inputs": [],
					"name": "ZeroAddressNotAllowed",
					"type": "error"
				},
				{
					"anonymous": false,
					"inputs": [
						{
							"indexed": true,
							"internalType": "address",
							"name": "owner",
							"type": "address"
						},
						{
							"indexed": true,
							"internalType": "address",
							"name": "spender",
							"type": "address"
						},
						{
							"indexed": false,
							"internalType": "uint256",
							"name": "value",
							"type": "uint256"
						}
					],
					"name": "Approval",
					"type": "event"
				},
				{
					"anonymous": false,
					"inputs": [
						{
							"indexed": true,
							"internalType": "address",
							"name": "newFeeAddress",
							"type": "address"
						}
					],
					"name": "FeeAddressUpdated",
					"type": "event"
				},
				{
					"anonymous": false,
					"inputs": [
						{
							"indexed": false,
							"internalType": "uint256",
							"name": "MINT_AND_REDEEM_FEE",
							"type": "uint256"
						}
					],
					"name": "MintAndRedeemFeeUpdated",
					"type": "event"
				},
				{
					"anonymous": false,
					"inputs": [
						{
							"indexed": true,
							"internalType": "address",
							"name": "previousOwner",
							"type": "address"
						},
						{
							"indexed": true,
							"internalType": "address",
							"name": "newOwner",
							"type": "address"
						}
					],
					"name": "OwnershipTransferStarted",
					"type": "event"
				},
				{
					"anonymous": false,
					"inputs": [
						{
							"indexed": true,
							"internalType": "address",
							"name": "previousOwner",
							"type": "address"
						},
						{
							"indexed": true,
							"internalType": "address",
							"name": "newOwner",
							"type": "address"
						}
					],
					"name": "OwnershipTransferred",
					"type": "event"
				},
				{
					"anonymous": false,
					"inputs": [
						{
							"indexed": true,
							"internalType": "uint256",
							"name": "time",
							"type": "uint256"
						},
						{
							"indexed": true,
							"internalType": "uint256",
							"name": "recieved",
							"type": "uint256"
						},
						{
							"indexed": true,
							"internalType": "uint256",
							"name": "sent",
							"type": "uint256"
						}
					],
					"name": "PriceAfterMint",
					"type": "event"
				},
				{
					"anonymous": false,
					"inputs": [
						{
							"indexed": true,
							"internalType": "uint256",
							"name": "time",
							"type": "uint256"
						},
						{
							"indexed": true,
							"internalType": "uint256",
							"name": "recieved",
							"type": "uint256"
						},
						{
							"indexed": true,
							"internalType": "uint256",
							"name": "sent",
							"type": "uint256"
						}
					],
					"name": "PriceAfterRedeem",
					"type": "event"
				},
				{
					"anonymous": false,
					"inputs": [
						{
							"indexed": false,
							"internalType": "uint256",
							"name": "FEES",
							"type": "uint256"
						}
					],
					"name": "TeamFeeUpdated",
					"type": "event"
				},
				{
					"anonymous": false,
					"inputs": [
						{
							"indexed": true,
							"internalType": "uint256",
							"name": "totalBackingEmergencyFixed",
							"type": "uint256"
						}
					],
					"name": "TotalBackingFixed",
					"type": "event"
				},
				{
					"anonymous": false,
					"inputs": [
						{
							"indexed": true,
							"internalType": "address",
							"name": "from",
							"type": "address"
						},
						{
							"indexed": true,
							"internalType": "address",
							"name": "to",
							"type": "address"
						},
						{
							"indexed": false,
							"internalType": "uint256",
							"name": "value",
							"type": "uint256"
						}
					],
					"name": "Transfer",
					"type": "event"
				},
				{
					"inputs": [],
					"name": "FEES",
					"outputs": [
						{
							"internalType": "uint256",
							"name": "",
							"type": "uint256"
						}
					],
					"stateMutability": "view",
					"type": "function"
				},
				{
					"inputs": [],
					"name": "MINT_AND_REDEEM_FEE",
					"outputs": [
						{
							"internalType": "uint256",
							"name": "",
							"type": "uint256"
						}
					],
					"stateMutability": "view",
					"type": "function"
				},
				{
					"inputs": [],
					"name": "_BACKING",
					"outputs": [
						{
							"internalType": "contract IERC20",
							"name": "",
							"type": "address"
						}
					],
					"stateMutability": "view",
					"type": "function"
				},
				{
					"inputs": [],
					"name": "acceptOwnership",
					"outputs": [],
					"stateMutability": "nonpayable",
					"type": "function"
				},
				{
					"inputs": [
						{
							"internalType": "address",
							"name": "owner",
							"type": "address"
						},
						{
							"internalType": "address",
							"name": "spender",
							"type": "address"
						}
					],
					"name": "allowance",
					"outputs": [
						{
							"internalType": "uint256",
							"name": "",
							"type": "uint256"
						}
					],
					"stateMutability": "view",
					"type": "function"
				},
				{
					"inputs": [
						{
							"internalType": "address",
							"name": "spender",
							"type": "address"
						},
						{
							"internalType": "uint256",
							"name": "amount",
							"type": "uint256"
						}
					],
					"name": "approve",
					"outputs": [
						{
							"internalType": "bool",
							"name": "",
							"type": "bool"
						}
					],
					"stateMutability": "nonpayable",
					"type": "function"
				},
				{
					"inputs": [
						{
							"internalType": "address",
							"name": "account",
							"type": "address"
						}
					],
					"name": "balanceOf",
					"outputs": [
						{
							"internalType": "uint256",
							"name": "",
							"type": "uint256"
						}
					],
					"stateMutability": "view",
					"type": "function"
				},
				{
					"inputs": [
						{
							"internalType": "uint256",
							"name": "amount",
							"type": "uint256"
						}
					],
					"name": "burn",
					"outputs": [],
					"stateMutability": "nonpayable",
					"type": "function"
				},
				{
					"inputs": [
						{
							"internalType": "address",
							"name": "account",
							"type": "address"
						},
						{
							"internalType": "uint256",
							"name": "amount",
							"type": "uint256"
						}
					],
					"name": "burnFrom",
					"outputs": [],
					"stateMutability": "nonpayable",
					"type": "function"
				},
				{
					"inputs": [],
					"name": "decimals",
					"outputs": [
						{
							"internalType": "uint8",
							"name": "",
							"type": "uint8"
						}
					],
					"stateMutability": "view",
					"type": "function"
				},
				{
					"inputs": [
						{
							"internalType": "address",
							"name": "spender",
							"type": "address"
						},
						{
							"internalType": "uint256",
							"name": "subtractedValue",
							"type": "uint256"
						}
					],
					"name": "decreaseAllowance",
					"outputs": [
						{
							"internalType": "bool",
							"name": "",
							"type": "bool"
						}
					],
					"stateMutability": "nonpayable",
					"type": "function"
				},
				{
					"inputs": [],
					"name": "feeAddress",
					"outputs": [
						{
							"internalType": "address payable",
							"name": "",
							"type": "address"
						}
					],
					"stateMutability": "view",
					"type": "function"
				},
				{
					"inputs": [
						{
							"internalType": "uint256",
							"name": "_value",
							"type": "uint256"
						}
					],
					"name": "fillContract",
					"outputs": [],
					"stateMutability": "nonpayable",
					"type": "function"
				},
				{
					"inputs": [
						{
							"internalType": "address",
							"name": "spender",
							"type": "address"
						},
						{
							"internalType": "uint256",
							"name": "addedValue",
							"type": "uint256"
						}
					],
					"name": "increaseAllowance",
					"outputs": [
						{
							"internalType": "bool",
							"name": "",
							"type": "bool"
						}
					],
					"stateMutability": "nonpayable",
					"type": "function"
				},
				{
					"inputs": [],
					"name": "name",
					"outputs": [
						{
							"internalType": "string",
							"name": "",
							"type": "string"
						}
					],
					"stateMutability": "view",
					"type": "function"
				},
				{
					"inputs": [],
					"name": "owner",
					"outputs": [
						{
							"internalType": "address",
							"name": "",
							"type": "address"
						}
					],
					"stateMutability": "view",
					"type": "function"
				},
				{
					"inputs": [],
					"name": "pendingOwner",
					"outputs": [
						{
							"internalType": "address",
							"name": "",
							"type": "address"
						}
					],
					"stateMutability": "view",
					"type": "function"
				},
				{
					"inputs": [],
					"name": "renounceOwnership",
					"outputs": [],
					"stateMutability": "nonpayable",
					"type": "function"
				},
				{
					"inputs": [],
					"name": "setStart",
					"outputs": [],
					"stateMutability": "nonpayable",
					"type": "function"
				},
				{
					"inputs": [],
					"name": "start",
					"outputs": [
						{
							"internalType": "bool",
							"name": "",
							"type": "bool"
						}
					],
					"stateMutability": "view",
					"type": "function"
				},
				{
					"inputs": [],
					"name": "symbol",
					"outputs": [
						{
							"internalType": "string",
							"name": "",
							"type": "string"
						}
					],
					"stateMutability": "view",
					"type": "function"
				},
				{
					"inputs": [],
					"name": "totalBacking",
					"outputs": [
						{
							"internalType": "uint256",
							"name": "",
							"type": "uint256"
						}
					],
					"stateMutability": "view",
					"type": "function"
				},
				{
					"inputs": [],
					"name": "totalSupply",
					"outputs": [
						{
							"internalType": "uint256",
							"name": "",
							"type": "uint256"
						}
					],
					"stateMutability": "view",
					"type": "function"
				},
				{
					"inputs": [
						{
							"internalType": "address",
							"name": "to",
							"type": "address"
						},
						{
							"internalType": "uint256",
							"name": "amount",
							"type": "uint256"
						}
					],
					"name": "transfer",
					"outputs": [
						{
							"internalType": "bool",
							"name": "",
							"type": "bool"
						}
					],
					"stateMutability": "nonpayable",
					"type": "function"
				},
				{
					"inputs": [
						{
							"internalType": "address",
							"name": "from",
							"type": "address"
						},
						{
							"internalType": "address",
							"name": "to",
							"type": "address"
						},
						{
							"internalType": "uint256",
							"name": "amount",
							"type": "uint256"
						}
					],
					"name": "transferFrom",
					"outputs": [
						{
							"internalType": "bool",
							"name": "",
							"type": "bool"
						}
					],
					"stateMutability": "nonpayable",
					"type": "function"
				},
				{
					"inputs": [
						{
							"internalType": "address",
							"name": "newOwner",
							"type": "address"
						}
					],
					"name": "transferOwnership",
					"outputs": [],
					"stateMutability": "nonpayable",
					"type": "function"
				}
			],
			"devdoc": {
				"author": "Michael Damiani",
				"custom:purpose": "The main purpose of pTOKENs is to generate revenue and contribute to bribing economy of ve(3;3) Dexes while being backed",
				"errors": {
					"ZeroAddressNotAllowed()": [
						{
							"custom:section": "** ERRORS **"
						}
					]
				},
				"events": {
					"Approval(address,address,uint256)": {
						"details": "Emitted when the allowance of a `spender` for an `owner` is set by a call to {approve}. `value` is the new allowance."
					},
					"PriceAfterMint(uint256,uint256,uint256)": {
						"custom:section": "** EVENTS **"
					},
					"Transfer(address,address,uint256)": {
						"details": "Emitted when `value` tokens are moved from one account (`from`) to another (`to`). Note that `value` may be zero."
					}
				},
				"kind": "dev",
				"methods": {
					"acceptOwnership()": {
						"details": "The new owner accepts the ownership transfer."
					},
					"allowance(address,address)": {
						"details": "See {IERC20-allowance}."
					},
					"approve(address,uint256)": {
						"details": "See {IERC20-approve}. NOTE: If `amount` is the maximum `uint256`, the allowance is not updated on `transferFrom`. This is semantically equivalent to an infinite approval. Requirements: - `spender` cannot be the zero address."
					},
					"balanceOf(address)": {
						"details": "See {IERC20-balanceOf}."
					},
					"burn(uint256)": {
						"details": "Destroys `amount` tokens from the caller. See {ERC20-_burn}."
					},
					"burnFrom(address,uint256)": {
						"details": "Destroys `amount` tokens from `account`, deducting from the caller's allowance. See {ERC20-_burn} and {ERC20-allowance}. Requirements: - the caller must have allowance for ``accounts``'s tokens of at least `amount`."
					},
					"constructor": {
						"custom:section": "** CONSTRUCTOR **"
					},
					"decimals()": {
						"details": "Returns the number of decimals used to get its user representation. For example, if `decimals` equals `2`, a balance of `505` tokens should be displayed to a user as `5.05` (`505 / 10 ** 2`). Tokens usually opt for a value of 18, imitating the relationship between Ether and Wei. This is the default value returned by this function, unless it's overridden. NOTE: This information is only used for _display_ purposes: it in no way affects any of the arithmetic of the contract, including {IERC20-balanceOf} and {IERC20-transfer}."
					},
					"decreaseAllowance(address,uint256)": {
						"details": "Atomically decreases the allowance granted to `spender` by the caller. This is an alternative to {approve} that can be used as a mitigation for problems described in {IERC20-approve}. Emits an {Approval} event indicating the updated allowance. Requirements: - `spender` cannot be the zero address. - `spender` must have allowance for the caller of at least `subtractedValue`."
					},
					"fillContract(uint256)": {
						"params": {
							"_value": ": Fill the contract with the first amount of _BACKING"
						}
					},
					"increaseAllowance(address,uint256)": {
						"details": "Atomically increases the allowance granted to `spender` by the caller. This is an alternative to {approve} that can be used as a mitigation for problems described in {IERC20-approve}. Emits an {Approval} event indicating the updated allowance. Requirements: - `spender` cannot be the zero address."
					},
					"name()": {
						"details": "Returns the name of the token."
					},
					"owner()": {
						"details": "Returns the address of the current owner."
					},
					"pendingOwner()": {
						"details": "Returns the address of the pending owner."
					},
					"renounceOwnership()": {
						"details": "Leaves the contract without owner. It will not be possible to call `onlyOwner` functions. Can only be called by the current owner. NOTE: Renouncing ownership will leave the contract without an owner, thereby disabling any functionality that is only available to the owner."
					},
					"symbol()": {
						"details": "Returns the symbol of the token, usually a shorter version of the name."
					},
					"totalSupply()": {
						"details": "See {IERC20-totalSupply}."
					},
					"transfer(address,uint256)": {
						"details": "See {IERC20-transfer}. Requirements: - `to` cannot be the zero address. - the caller must have a balance of at least `amount`."
					},
					"transferFrom(address,address,uint256)": {
						"details": "See {IERC20-transferFrom}. Emits an {Approval} event indicating the updated allowance. This is not required by the EIP. See the note at the beginning of {ERC20}. NOTE: Does not update the allowance if the current allowance is the maximum `uint256`. Requirements: - `from` and `to` cannot be the zero address. - `from` must have a balance of at least `amount`. - the caller must have allowance for ``from``'s tokens of at least `amount`."
					},
					"transferOwnership(address)": {
						"details": "Starts the ownership transfer of the contract to a new account. Replaces the pending transfer if there is one. Can only be called by the current owner."
					}
				},
				"stateVariables": {
					"MINT_AND_REDEEM_FEE": {
						"custom:section": "**  STATE VARIABLES **"
					},
					"_BACKING": {
						"custom:section": "** IMMUTABLES **"
					},
					"_MIN": {
						"custom:section": "** CONSTANTS **"
					}
				},
				"title": "pTOKEN, Yield bearing token backed by ERC20",
				"version": 1
			},
			"evm": {
				"assembly": "    /* \"pTOKENv2.sol\":840:4015  contract pTOKEN is ERC20Burnable, Ownable2Step, ReentrancyGuard {... */\n  mstore(0x40, 0xa0)\n    /* \"pTOKENv2.sol\":1671:1674  967 */\n  0x03c7\n    /* \"pTOKENv2.sol\":1634:1674  uint256 public MINT_AND_REDEEM_FEE = 967 */\n  0x08\n  sstore\n    /* \"pTOKENv2.sol\":1872:1874  35 */\n  0x23\n    /* \"pTOKENv2.sol\":1850:1874  uint256 public FEES = 35 */\n  0x09\n  sstore\n    /* \"pTOKENv2.sol\":2896:3229  constructor(address _feeAddress, address _backing) ERC20(\"pantheon TOKEN\", \"pTOKEN\") Ownable2Step() {... */\n  callvalue\n  dup1\n  iszero\n  tag_1\n  jumpi\n  0x00\n  dup1\n  revert\ntag_1:\n  pop\n  mload(0x40)\n  sub(codesize, bytecodeSize)\n  dup1\n  bytecodeSize\n  dup4\n  codecopy\n  dup2\n  dup2\n  add\n  0x40\n  mstore\n  dup2\n  add\n  swap1\n  tag_2\n  swap2\n  swap1\n  tag_3\n  jump\t// in\ntag_2:\n    /* \"@openzeppelin/contracts@v4.9.3/token/ERC20/ERC20.sol\":1980:2093  constructor(string memory name_, string memory symbol_) {... */\n  mload(0x40)\n  dup1\n  0x40\n  add\n  0x40\n  mstore\n  dup1\n  0x0e\n  dup2\n  mstore\n  0x20\n  add\n  0x70616e7468656f6e20544f4b454e000000000000000000000000000000000000\n  dup2\n  mstore\n  pop\n  mload(0x40)\n  dup1\n  0x40\n  add\n  0x40\n  mstore\n  dup1\n  0x06\n  dup2\n  mstore\n  0x20\n  add\n  0x70544f4b454e0000000000000000000000000000000000000000000000000000\n  dup2\n  mstore\n  pop\n    /* \"@openzeppelin/contracts@v4.9.3/token/ERC20/ERC20.sol\":2054:2059  name_ */\n  dup2\n    /* \"@openzeppelin/contracts@v4.9.3/token/ERC20/ERC20.sol\":2046:2051  _name */\n  0x03\n    /* \"@openzeppelin/contracts@v4.9.3/token/ERC20/ERC20.sol\":2046:2059  _name = name_ */\n  swap1\n  dup2\n  tag_9\n  swap2\n  swap1\n  tag_10\n  jump\t// in\ntag_9:\n  pop\n    /* \"@openzeppelin/contracts@v4.9.3/token/ERC20/ERC20.sol\":2079:2086  symbol_ */\n  dup1\n    /* \"@openzeppelin/contracts@v4.9.3/token/ERC20/ERC20.sol\":2069:2076  _symbol */\n  0x04\n    /* \"@openzeppelin/contracts@v4.9.3/token/ERC20/ERC20.sol\":2069:2086  _symbol = symbol_ */\n  swap1\n  dup2\n  tag_11\n  swap2\n  swap1\n  tag_10\n  jump\t// in\ntag_11:\n  pop\n    /* \"@openzeppelin/contracts@v4.9.3/token/ERC20/ERC20.sol\":1980:2093  constructor(string memory name_, string memory symbol_) {... */\n  pop\n  pop\n    /* \"@openzeppelin/contracts@v4.9.3/access/Ownable.sol\":936:968  _transferOwnership(_msgSender()) */\n  tag_13\n    /* \"@openzeppelin/contracts@v4.9.3/access/Ownable.sol\":955:967  _msgSender() */\n  tag_14\n    /* \"@openzeppelin/contracts@v4.9.3/access/Ownable.sol\":955:965  _msgSender */\n  shl(0x20, tag_15)\n    /* \"@openzeppelin/contracts@v4.9.3/access/Ownable.sol\":955:967  _msgSender() */\n  0x20\n  shr\n  jump\t// in\ntag_14:\n    /* \"@openzeppelin/contracts@v4.9.3/access/Ownable.sol\":936:954  _transferOwnership */\n  shl(0x20, tag_16)\n    /* \"@openzeppelin/contracts@v4.9.3/access/Ownable.sol\":936:968  _transferOwnership(_msgSender()) */\n  0x20\n  shr\n  jump\t// in\ntag_13:\n    /* \"@openzeppelin/contracts@v4.9.3/security/ReentrancyGuard.sol\":1716:1717  1 */\n  0x01\n    /* \"@openzeppelin/contracts@v4.9.3/security/ReentrancyGuard.sol\":1821:1828  _status */\n  0x07\n    /* \"@openzeppelin/contracts@v4.9.3/security/ReentrancyGuard.sol\":1821:1843  _status = _NOT_ENTERED */\n  dup2\n  swap1\n  sstore\n  pop\n    /* \"pTOKENv2.sol\":3034:3035  0 */\n  0x00\n    /* \"pTOKENv2.sol\":3011:3036  _feeAddress == address(0) */\n  0xffffffffffffffffffffffffffffffffffffffff\n  and\n    /* \"pTOKENv2.sol\":3011:3022  _feeAddress */\n  dup3\n    /* \"pTOKENv2.sol\":3011:3036  _feeAddress == address(0) */\n  0xffffffffffffffffffffffffffffffffffffffff\n  and\n  sub\n    /* \"pTOKENv2.sol\":3007:3068  if (_feeAddress == address(0)) revert ZeroAddressNotAllowed() */\n  tag_19\n  jumpi\n    /* \"pTOKENv2.sol\":3045:3068  ZeroAddressNotAllowed() */\n  mload(0x40)\n  0x8579befe00000000000000000000000000000000000000000000000000000000\n  dup2\n  mstore\n  0x04\n  add\n  mload(0x40)\n  dup1\n  swap2\n  sub\n  swap1\n  revert\n    /* \"pTOKENv2.sol\":3007:3068  if (_feeAddress == address(0)) revert ZeroAddressNotAllowed() */\ntag_19:\n    /* \"pTOKENv2.sol\":3103:3104  0 */\n  0x00\n    /* \"pTOKENv2.sol\":3083:3105  _backing == address(0) */\n  0xffffffffffffffffffffffffffffffffffffffff\n  and\n    /* \"pTOKENv2.sol\":3083:3091  _backing */\n  dup2\n    /* \"pTOKENv2.sol\":3083:3105  _backing == address(0) */\n  0xffffffffffffffffffffffffffffffffffffffff\n  and\n  sub\n    /* \"pTOKENv2.sol\":3079:3137  if (_backing == address(0)) revert ZeroAddressNotAllowed() */\n  tag_20\n  jumpi\n    /* \"pTOKENv2.sol\":3114:3137  ZeroAddressNotAllowed() */\n  mload(0x40)\n  0x8579befe00000000000000000000000000000000000000000000000000000000\n  dup2\n  mstore\n  0x04\n  add\n  mload(0x40)\n  dup1\n  swap2\n  sub\n  swap1\n  revert\n    /* \"pTOKENv2.sol\":3079:3137  if (_backing == address(0)) revert ZeroAddressNotAllowed() */\ntag_20:\n    /* \"pTOKENv2.sol\":3171:3182  _feeAddress */\n  dup2\n    /* \"pTOKENv2.sol\":3150:3160  feeAddress */\n  0x0b\n  0x00\n    /* \"pTOKENv2.sol\":3150:3183  feeAddress = payable(_feeAddress) */\n  0x0100\n  exp\n  dup2\n  sload\n  dup2\n  0xffffffffffffffffffffffffffffffffffffffff\n  mul\n  not\n  and\n  swap1\n  dup4\n  0xffffffffffffffffffffffffffffffffffffffff\n  and\n  mul\n  or\n  swap1\n  sstore\n  pop\n    /* \"pTOKENv2.sol\":3212:3220  _backing */\n  dup1\n    /* \"pTOKENv2.sol\":3194:3221  _BACKING = IERC20(_backing) */\n  0xffffffffffffffffffffffffffffffffffffffff\n  and\n  0x80\n  dup2\n  0xffffffffffffffffffffffffffffffffffffffff\n  and\n  dup2\n  mstore\n  pop\n  pop\n    /* \"pTOKENv2.sol\":2896:3229  constructor(address _feeAddress, address _backing) ERC20(\"pantheon TOKEN\", \"pTOKEN\") Ownable2Step() {... */\n  pop\n  pop\n    /* \"pTOKENv2.sol\":840:4015  contract pTOKEN is ERC20Burnable, Ownable2Step, ReentrancyGuard {... */\n  jump(tag_21)\n    /* \"@openzeppelin/contracts@v4.9.3/utils/Context.sol\":640:736  function _msgSender() internal view virtual returns (address) {... */\ntag_15:\n    /* \"@openzeppelin/contracts@v4.9.3/utils/Context.sol\":693:700  address */\n  0x00\n    /* \"@openzeppelin/contracts@v4.9.3/utils/Context.sol\":719:729  msg.sender */\n  caller\n    /* \"@openzeppelin/contracts@v4.9.3/utils/Context.sol\":712:729  return msg.sender */\n  swap1\n  pop\n    /* \"@openzeppelin/contracts@v4.9.3/utils/Context.sol\":640:736  function _msgSender() internal view virtual returns (address) {... */\n  swap1\n  jump\t// out\n    /* \"@openzeppelin/contracts@v4.9.3/access/Ownable2Step.sol\":1501:1654  function _transferOwnership(address newOwner) internal virtual override {... */\ntag_16:\n    /* \"@openzeppelin/contracts@v4.9.3/access/Ownable2Step.sol\":1590:1603  _pendingOwner */\n  0x06\n  0x00\n    /* \"@openzeppelin/contracts@v4.9.3/access/Ownable2Step.sol\":1583:1603  delete _pendingOwner */\n  0x0100\n  exp\n  dup2\n  sload\n  swap1\n  0xffffffffffffffffffffffffffffffffffffffff\n  mul\n  not\n  and\n  swap1\n  sstore\n    /* \"@openzeppelin/contracts@v4.9.3/access/Ownable2Step.sol\":1613:1647  super._transferOwnership(newOwner) */\n  tag_24\n    /* \"@openzeppelin/contracts@v4.9.3/access/Ownable2Step.sol\":1638:1646  newOwner */\n  dup2\n    /* \"@openzeppelin/contracts@v4.9.3/access/Ownable2Step.sol\":1613:1637  super._transferOwnership */\n  shl(0x20, tag_25)\n    /* \"@openzeppelin/contracts@v4.9.3/access/Ownable2Step.sol\":1613:1647  super._transferOwnership(newOwner) */\n  0x20\n  shr\n  jump\t// in\ntag_24:\n    /* \"@openzeppelin/contracts@v4.9.3/access/Ownable2Step.sol\":1501:1654  function _transferOwnership(address newOwner) internal virtual override {... */\n  pop\n  jump\t// out\n    /* \"@openzeppelin/contracts@v4.9.3/access/Ownable.sol\":2426:2613  function _transferOwnership(address newOwner) internal virtual {... */\ntag_25:\n    /* \"@openzeppelin/contracts@v4.9.3/access/Ownable.sol\":2499:2515  address oldOwner */\n  0x00\n    /* \"@openzeppelin/contracts@v4.9.3/access/Ownable.sol\":2518:2524  _owner */\n  0x05\n  0x00\n  swap1\n  sload\n  swap1\n  0x0100\n  exp\n  swap1\n  div\n  0xffffffffffffffffffffffffffffffffffffffff\n  and\n    /* \"@openzeppelin/contracts@v4.9.3/access/Ownable.sol\":2499:2524  address oldOwner = _owner */\n  swap1\n  pop\n    /* \"@openzeppelin/contracts@v4.9.3/access/Ownable.sol\":2543:2551  newOwner */\n  dup2\n    /* \"@openzeppelin/contracts@v4.9.3/access/Ownable.sol\":2534:2540  _owner */\n  0x05\n  0x00\n    /* \"@openzeppelin/contracts@v4.9.3/access/Ownable.sol\":2534:2551  _owner = newOwner */\n  0x0100\n  exp\n  dup2\n  sload\n  dup2\n  0xffffffffffffffffffffffffffffffffffffffff\n  mul\n  not\n  and\n  swap1\n  dup4\n  0xffffffffffffffffffffffffffffffffffffffff\n  and\n  mul\n  or\n  swap1\n  sstore\n  pop\n    /* \"@openzeppelin/contracts@v4.9.3/access/Ownable.sol\":2597:2605  newOwner */\n  dup2\n    /* \"@openzeppelin/contracts@v4.9.3/access/Ownable.sol\":2566:2606  OwnershipTransferred(oldOwner, newOwner) */\n  0xffffffffffffffffffffffffffffffffffffffff\n  and\n    /* \"@openzeppelin/contracts@v4.9.3/access/Ownable.sol\":2587:2595  oldOwner */\n  dup2\n    /* \"@openzeppelin/contracts@v4.9.3/access/Ownable.sol\":2566:2606  OwnershipTransferred(oldOwner, newOwner) */\n  0xffffffffffffffffffffffffffffffffffffffff\n  and\n  0x8be0079c531659141344cd1fd0a4f28419497f9722a3daafe3b4186f6b6457e0\n  mload(0x40)\n  mload(0x40)\n  dup1\n  swap2\n  sub\n  swap1\n  log3\n    /* \"@openzeppelin/contracts@v4.9.3/access/Ownable.sol\":2489:2613  {... */\n  pop\n    /* \"@openzeppelin/contracts@v4.9.3/access/Ownable.sol\":2426:2613  function _transferOwnership(address newOwner) internal virtual {... */\n  pop\n  jump\t// out\n    /* \"#utility.yul\":88:205   */\ntag_28:\n    /* \"#utility.yul\":197:198   */\n  0x00\n    /* \"#utility.yul\":194:195   */\n  dup1\n    /* \"#utility.yul\":187:199   */\n  revert\n    /* \"#utility.yul\":334:460   */\ntag_30:\n    /* \"#utility.yul\":371:378   */\n  0x00\n    /* \"#utility.yul\":411:453   */\n  0xffffffffffffffffffffffffffffffffffffffff\n    /* \"#utility.yul\":404:409   */\n  dup3\n    /* \"#utility.yul\":400:454   */\n  and\n    /* \"#utility.yul\":389:454   */\n  swap1\n  pop\n    /* \"#utility.yul\":334:460   */\n  swap2\n  swap1\n  pop\n  jump\t// out\n    /* \"#utility.yul\":466:562   */\ntag_31:\n    /* \"#utility.yul\":503:510   */\n  0x00\n    /* \"#utility.yul\":532:556   */\n  tag_60\n    /* \"#utility.yul\":550:555   */\n  dup3\n    /* \"#utility.yul\":532:556   */\n  tag_30\n  jump\t// in\ntag_60:\n    /* \"#utility.yul\":521:556   */\n  swap1\n  pop\n    /* \"#utility.yul\":466:562   */\n  swap2\n  swap1\n  pop\n  jump\t// out\n    /* \"#utility.yul\":568:690   */\ntag_32:\n    /* \"#utility.yul\":641:665   */\n  tag_62\n    /* \"#utility.yul\":659:664   */\n  dup2\n    /* \"#utility.yul\":641:665   */\n  tag_31\n  jump\t// in\ntag_62:\n    /* \"#utility.yul\":634:639   */\n  dup2\n    /* \"#utility.yul\":631:666   */\n  eq\n    /* \"#utility.yul\":621:684   */\n  tag_63\n  jumpi\n    /* \"#utility.yul\":680:681   */\n  0x00\n    /* \"#utility.yul\":677:678   */\n  dup1\n    /* \"#utility.yul\":670:682   */\n  revert\n    /* \"#utility.yul\":621:684   */\ntag_63:\n    /* \"#utility.yul\":568:690   */\n  pop\n  jump\t// out\n    /* \"#utility.yul\":696:839   */\ntag_33:\n    /* \"#utility.yul\":753:758   */\n  0x00\n    /* \"#utility.yul\":784:790   */\n  dup2\n    /* \"#utility.yul\":778:791   */\n  mload\n    /* \"#utility.yul\":769:791   */\n  swap1\n  pop\n    /* \"#utility.yul\":800:833   */\n  tag_65\n    /* \"#utility.yul\":827:832   */\n  dup2\n    /* \"#utility.yul\":800:833   */\n  tag_32\n  jump\t// in\ntag_65:\n    /* \"#utility.yul\":696:839   */\n  swap3\n  swap2\n  pop\n  pop\n  jump\t// out\n    /* \"#utility.yul\":845:1352   */\ntag_3:\n    /* \"#utility.yul\":924:930   */\n  0x00\n    /* \"#utility.yul\":932:938   */\n  dup1\n    /* \"#utility.yul\":981:983   */\n  0x40\n    /* \"#utility.yul\":969:978   */\n  dup4\n    /* \"#utility.yul\":960:967   */\n  dup6\n    /* \"#utility.yul\":956:979   */\n  sub\n    /* \"#utility.yul\":952:984   */\n  slt\n    /* \"#utility.yul\":949:1068   */\n  iszero\n  tag_67\n  jumpi\n    /* \"#utility.yul\":987:1066   */\n  tag_68\n  tag_28\n  jump\t// in\ntag_68:\n    /* \"#utility.yul\":949:1068   */\ntag_67:\n    /* \"#utility.yul\":1107:1108   */\n  0x00\n    /* \"#utility.yul\":1132:1196   */\n  tag_69\n    /* \"#utility.yul\":1188:1195   */\n  dup6\n    /* \"#utility.yul\":1179:1185   */\n  dup3\n    /* \"#utility.yul\":1168:1177   */\n  dup7\n    /* \"#utility.yul\":1164:1186   */\n  add\n    /* \"#utility.yul\":1132:1196   */\n  tag_33\n  jump\t// in\ntag_69:\n    /* \"#utility.yul\":1122:1196   */\n  swap3\n  pop\n    /* \"#utility.yul\":1078:1206   */\n  pop\n    /* \"#utility.yul\":1245:1247   */\n  0x20\n    /* \"#utility.yul\":1271:1335   */\n  tag_70\n    /* \"#utility.yul\":1327:1334   */\n  dup6\n    /* \"#utility.yul\":1318:1324   */\n  dup3\n    /* \"#utility.yul\":1307:1316   */\n  dup7\n    /* \"#utility.yul\":1303:1325   */\n  add\n    /* \"#utility.yul\":1271:1335   */\n  tag_33\n  jump\t// in\ntag_70:\n    /* \"#utility.yul\":1261:1335   */\n  swap2\n  pop\n    /* \"#utility.yul\":1216:1345   */\n  pop\n    /* \"#utility.yul\":845:1352   */\n  swap3\n  pop\n  swap3\n  swap1\n  pop\n  jump\t// out\n    /* \"#utility.yul\":1358:1457   */\ntag_34:\n    /* \"#utility.yul\":1410:1416   */\n  0x00\n    /* \"#utility.yul\":1444:1449   */\n  dup2\n    /* \"#utility.yul\":1438:1450   */\n  mload\n    /* \"#utility.yul\":1428:1450   */\n  swap1\n  pop\n    /* \"#utility.yul\":1358:1457   */\n  swap2\n  swap1\n  pop\n  jump\t// out\n    /* \"#utility.yul\":1463:1643   */\ntag_35:\n    /* \"#utility.yul\":1511:1588   */\n  0x4e487b7100000000000000000000000000000000000000000000000000000000\n    /* \"#utility.yul\":1508:1509   */\n  0x00\n    /* \"#utility.yul\":1501:1589   */\n  mstore\n    /* \"#utility.yul\":1608:1612   */\n  0x41\n    /* \"#utility.yul\":1605:1606   */\n  0x04\n    /* \"#utility.yul\":1598:1613   */\n  mstore\n    /* \"#utility.yul\":1632:1636   */\n  0x24\n    /* \"#utility.yul\":1629:1630   */\n  0x00\n    /* \"#utility.yul\":1622:1637   */\n  revert\n    /* \"#utility.yul\":1649:1829   */\ntag_36:\n    /* \"#utility.yul\":1697:1774   */\n  0x4e487b7100000000000000000000000000000000000000000000000000000000\n    /* \"#utility.yul\":1694:1695   */\n  0x00\n    /* \"#utility.yul\":1687:1775   */\n  mstore\n    /* \"#utility.yul\":1794:1798   */\n  0x22\n    /* \"#utility.yul\":1791:1792   */\n  0x04\n    /* \"#utility.yul\":1784:1799   */\n  mstore\n    /* \"#utility.yul\":1818:1822   */\n  0x24\n    /* \"#utility.yul\":1815:1816   */\n  0x00\n    /* \"#utility.yul\":1808:1823   */\n  revert\n    /* \"#utility.yul\":1835:2155   */\ntag_37:\n    /* \"#utility.yul\":1879:1885   */\n  0x00\n    /* \"#utility.yul\":1916:1917   */\n  0x02\n    /* \"#utility.yul\":1910:1914   */\n  dup3\n    /* \"#utility.yul\":1906:1918   */\n  div\n    /* \"#utility.yul\":1896:1918   */\n  swap1\n  pop\n    /* \"#utility.yul\":1963:1964   */\n  0x01\n    /* \"#utility.yul\":1957:1961   */\n  dup3\n    /* \"#utility.yul\":1953:1965   */\n  and\n    /* \"#utility.yul\":1984:2002   */\n  dup1\n    /* \"#utility.yul\":1974:2055   */\n  tag_75\n  jumpi\n    /* \"#utility.yul\":2040:2044   */\n  0x7f\n    /* \"#utility.yul\":2032:2038   */\n  dup3\n    /* \"#utility.yul\":2028:2045   */\n  and\n    /* \"#utility.yul\":2018:2045   */\n  swap2\n  pop\n    /* \"#utility.yul\":1974:2055   */\ntag_75:\n    /* \"#utility.yul\":2102:2104   */\n  0x20\n    /* \"#utility.yul\":2094:2100   */\n  dup3\n    /* \"#utility.yul\":2091:2105   */\n  lt\n    /* \"#utility.yul\":2071:2089   */\n  dup2\n    /* \"#utility.yul\":2068:2106   */\n  sub\n    /* \"#utility.yul\":2065:2149   */\n  tag_76\n  jumpi\n    /* \"#utility.yul\":2121:2139   */\n  tag_77\n  tag_36\n  jump\t// in\ntag_77:\n    /* \"#utility.yul\":2065:2149   */\ntag_76:\n    /* \"#utility.yul\":1886:2155   */\n  pop\n    /* \"#utility.yul\":1835:2155   */\n  swap2\n  swap1\n  pop\n  jump\t// out\n    /* \"#utility.yul\":2161:2302   */\ntag_38:\n    /* \"#utility.yul\":2210:2214   */\n  0x00\n    /* \"#utility.yul\":2233:2236   */\n  dup2\n    /* \"#utility.yul\":2225:2236   */\n  swap1\n  pop\n    /* \"#utility.yul\":2256:2259   */\n  dup2\n    /* \"#utility.yul\":2253:2254   */\n  0x00\n    /* \"#utility.yul\":2246:2260   */\n  mstore\n    /* \"#utility.yul\":2290:2294   */\n  0x20\n    /* \"#utility.yul\":2287:2288   */\n  0x00\n    /* \"#utility.yul\":2277:2295   */\n  keccak256\n    /* \"#utility.yul\":2269:2295   */\n  swap1\n  pop\n    /* \"#utility.yul\":2161:2302   */\n  swap2\n  swap1\n  pop\n  jump\t// out\n    /* \"#utility.yul\":2308:2401   */\ntag_39:\n    /* \"#utility.yul\":2345:2351   */\n  0x00\n    /* \"#utility.yul\":2392:2394   */\n  0x20\n    /* \"#utility.yul\":2387:2389   */\n  0x1f\n    /* \"#utility.yul\":2380:2385   */\n  dup4\n    /* \"#utility.yul\":2376:2390   */\n  add\n    /* \"#utility.yul\":2372:2395   */\n  div\n    /* \"#utility.yul\":2362:2395   */\n  swap1\n  pop\n    /* \"#utility.yul\":2308:2401   */\n  swap2\n  swap1\n  pop\n  jump\t// out\n    /* \"#utility.yul\":2407:2514   */\ntag_40:\n    /* \"#utility.yul\":2451:2459   */\n  0x00\n    /* \"#utility.yul\":2501:2506   */\n  dup3\n    /* \"#utility.yul\":2495:2499   */\n  dup3\n    /* \"#utility.yul\":2491:2507   */\n  shl\n    /* \"#utility.yul\":2470:2507   */\n  swap1\n  pop\n    /* \"#utility.yul\":2407:2514   */\n  swap3\n  swap2\n  pop\n  pop\n  jump\t// out\n    /* \"#utility.yul\":2520:2913   */\ntag_41:\n    /* \"#utility.yul\":2589:2595   */\n  0x00\n    /* \"#utility.yul\":2639:2640   */\n  0x08\n    /* \"#utility.yul\":2627:2637   */\n  dup4\n    /* \"#utility.yul\":2623:2641   */\n  mul\n    /* \"#utility.yul\":2662:2759   */\n  tag_82\n    /* \"#utility.yul\":2692:2758   */\n  0xffffffffffffffffffffffffffffffffffffffffffffffffffffffffffffffff\n    /* \"#utility.yul\":2681:2690   */\n  dup3\n    /* \"#utility.yul\":2662:2759   */\n  tag_40\n  jump\t// in\ntag_82:\n    /* \"#utility.yul\":2780:2819   */\n  tag_83\n    /* \"#utility.yul\":2810:2818   */\n  dup7\n    /* \"#utility.yul\":2799:2808   */\n  dup4\n    /* \"#utility.yul\":2780:2819   */\n  tag_40\n  jump\t// in\ntag_83:\n    /* \"#utility.yul\":2768:2819   */\n  swap6\n  pop\n    /* \"#utility.yul\":2852:2856   */\n  dup1\n    /* \"#utility.yul\":2848:2857   */\n  not\n    /* \"#utility.yul\":2841:2846   */\n  dup5\n    /* \"#utility.yul\":2837:2858   */\n  and\n    /* \"#utility.yul\":2828:2858   */\n  swap4\n  pop\n    /* \"#utility.yul\":2901:2905   */\n  dup1\n    /* \"#utility.yul\":2891:2899   */\n  dup7\n    /* \"#utility.yul\":2887:2906   */\n  and\n    /* \"#utility.yul\":2880:2885   */\n  dup5\n    /* \"#utility.yul\":2877:2907   */\n  or\n    /* \"#utility.yul\":2867:2907   */\n  swap3\n  pop\n    /* \"#utility.yul\":2596:2913   */\n  pop\n  pop\n    /* \"#utility.yul\":2520:2913   */\n  swap4\n  swap3\n  pop\n  pop\n  pop\n  jump\t// out\n    /* \"#utility.yul\":2919:2996   */\ntag_42:\n    /* \"#utility.yul\":2956:2963   */\n  0x00\n    /* \"#utility.yul\":2985:2990   */\n  dup2\n    /* \"#utility.yul\":2974:2990   */\n  swap1\n  pop\n    /* \"#utility.yul\":2919:2996   */\n  swap2\n  swap1\n  pop\n  jump\t// out\n    /* \"#utility.yul\":3002:3062   */\ntag_43:\n    /* \"#utility.yul\":3030:3033   */\n  0x00\n    /* \"#utility.yul\":3051:3056   */\n  dup2\n    /* \"#utility.yul\":3044:3056   */\n  swap1\n  pop\n    /* \"#utility.yul\":3002:3062   */\n  swap2\n  swap1\n  pop\n  jump\t// out\n    /* \"#utility.yul\":3068:3210   */\ntag_44:\n    /* \"#utility.yul\":3118:3127   */\n  0x00\n    /* \"#utility.yul\":3151:3204   */\n  tag_87\n    /* \"#utility.yul\":3169:3203   */\n  tag_88\n    /* \"#utility.yul\":3178:3202   */\n  tag_89\n    /* \"#utility.yul\":3196:3201   */\n  dup5\n    /* \"#utility.yul\":3178:3202   */\n  tag_42\n  jump\t// in\ntag_89:\n    /* \"#utility.yul\":3169:3203   */\n  tag_43\n  jump\t// in\ntag_88:\n    /* \"#utility.yul\":3151:3204   */\n  tag_42\n  jump\t// in\ntag_87:\n    /* \"#utility.yul\":3138:3204   */\n  swap1\n  pop\n    /* \"#utility.yul\":3068:3210   */\n  swap2\n  swap1\n  pop\n  jump\t// out\n    /* \"#utility.yul\":3216:3291   */\ntag_45:\n    /* \"#utility.yul\":3259:3262   */\n  0x00\n    /* \"#utility.yul\":3280:3285   */\n  dup2\n    /* \"#utility.yul\":3273:3285   */\n  swap1\n  pop\n    /* \"#utility.yul\":3216:3291   */\n  swap2\n  swap1\n  pop\n  jump\t// out\n    /* \"#utility.yul\":3297:3566   */\ntag_46:\n    /* \"#utility.yul\":3407:3446   */\n  tag_92\n    /* \"#utility.yul\":3438:3445   */\n  dup4\n    /* \"#utility.yul\":3407:3446   */\n  tag_44\n  jump\t// in\ntag_92:\n    /* \"#utility.yul\":3468:3559   */\n  tag_93\n    /* \"#utility.yul\":3517:3558   */\n  tag_94\n    /* \"#utility.yul\":3541:3557   */\n  dup3\n    /* \"#utility.yul\":3517:3558   */\n  tag_45\n  jump\t// in\ntag_94:\n    /* \"#utility.yul\":3509:3515   */\n  dup5\n    /* \"#utility.yul\":3502:3506   */\n  dup5\n    /* \"#utility.yul\":3496:3507   */\n  sload\n    /* \"#utility.yul\":3468:3559   */\n  tag_41\n  jump\t// in\ntag_93:\n    /* \"#utility.yul\":3462:3466   */\n  dup3\n    /* \"#utility.yul\":3455:3560   */\n  sstore\n    /* \"#utility.yul\":3373:3566   */\n  pop\n    /* \"#utility.yul\":3297:3566   */\n  pop\n  pop\n  pop\n  jump\t// out\n    /* \"#utility.yul\":3572:3645   */\ntag_47:\n    /* \"#utility.yul\":3617:3620   */\n  0x00\n    /* \"#utility.yul\":3572:3645   */\n  swap1\n  jump\t// out\n    /* \"#utility.yul\":3651:3840   */\ntag_48:\n    /* \"#utility.yul\":3728:3760   */\n  tag_97\n  tag_47\n  jump\t// in\ntag_97:\n    /* \"#utility.yul\":3769:3834   */\n  tag_98\n    /* \"#utility.yul\":3827:3833   */\n  dup2\n    /* \"#utility.yul\":3819:3825   */\n  dup5\n    /* \"#utility.yul\":3813:3817   */\n  dup5\n    /* \"#utility.yul\":3769:3834   */\n  tag_46\n  jump\t// in\ntag_98:\n    /* \"#utility.yul\":3704:3840   */\n  pop\n    /* \"#utility.yul\":3651:3840   */\n  pop\n  pop\n  jump\t// out\n    /* \"#utility.yul\":3846:4032   */\ntag_49:\n    /* \"#utility.yul\":3906:4026   */\ntag_100:\n    /* \"#utility.yul\":3923:3926   */\n  dup2\n    /* \"#utility.yul\":3916:3921   */\n  dup2\n    /* \"#utility.yul\":3913:3927   */\n  lt\n    /* \"#utility.yul\":3906:4026   */\n  iszero\n  tag_102\n  jumpi\n    /* \"#utility.yul\":3977:4016   */\n  tag_103\n    /* \"#utility.yul\":4014:4015   */\n  0x00\n    /* \"#utility.yul\":4007:4012   */\n  dup3\n    /* \"#utility.yul\":3977:4016   */\n  tag_48\n  jump\t// in\ntag_103:\n    /* \"#utility.yul\":3950:3951   */\n  0x01\n    /* \"#utility.yul\":3943:3948   */\n  dup2\n    /* \"#utility.yul\":3939:3952   */\n  add\n    /* \"#utility.yul\":3930:3952   */\n  swap1\n  pop\n    /* \"#utility.yul\":3906:4026   */\n  jump(tag_100)\ntag_102:\n    /* \"#utility.yul\":3846:4032   */\n  pop\n  pop\n  jump\t// out\n    /* \"#utility.yul\":4038:4581   */\ntag_50:\n    /* \"#utility.yul\":4139:4141   */\n  0x1f\n    /* \"#utility.yul\":4134:4137   */\n  dup3\n    /* \"#utility.yul\":4131:4142   */\n  gt\n    /* \"#utility.yul\":4128:4574   */\n  iszero\n  tag_105\n  jumpi\n    /* \"#utility.yul\":4173:4211   */\n  tag_106\n    /* \"#utility.yul\":4205:4210   */\n  dup2\n    /* \"#utility.yul\":4173:4211   */\n  tag_38\n  jump\t// in\ntag_106:\n    /* \"#utility.yul\":4257:4286   */\n  tag_107\n    /* \"#utility.yul\":4275:4285   */\n  dup5\n    /* \"#utility.yul\":4257:4286   */\n  tag_39\n  jump\t// in\ntag_107:\n    /* \"#utility.yul\":4247:4255   */\n  dup2\n    /* \"#utility.yul\":4243:4287   */\n  add\n    /* \"#utility.yul\":4440:4442   */\n  0x20\n    /* \"#utility.yul\":4428:4438   */\n  dup6\n    /* \"#utility.yul\":4425:4443   */\n  lt\n    /* \"#utility.yul\":4422:4471   */\n  iszero\n  tag_108\n  jumpi\n    /* \"#utility.yul\":4461:4469   */\n  dup2\n    /* \"#utility.yul\":4446:4469   */\n  swap1\n  pop\n    /* \"#utility.yul\":4422:4471   */\ntag_108:\n    /* \"#utility.yul\":4484:4564   */\n  tag_109\n    /* \"#utility.yul\":4540:4562   */\n  tag_110\n    /* \"#utility.yul\":4558:4561   */\n  dup6\n    /* \"#utility.yul\":4540:4562   */\n  tag_39\n  jump\t// in\ntag_110:\n    /* \"#utility.yul\":4530:4538   */\n  dup4\n    /* \"#utility.yul\":4526:4563   */\n  add\n    /* \"#utility.yul\":4513:4524   */\n  dup3\n    /* \"#utility.yul\":4484:4564   */\n  tag_49\n  jump\t// in\ntag_109:\n    /* \"#utility.yul\":4143:4574   */\n  pop\n  pop\n    /* \"#utility.yul\":4128:4574   */\ntag_105:\n    /* \"#utility.yul\":4038:4581   */\n  pop\n  pop\n  pop\n  jump\t// out\n    /* \"#utility.yul\":4587:4704   */\ntag_51:\n    /* \"#utility.yul\":4641:4649   */\n  0x00\n    /* \"#utility.yul\":4691:4696   */\n  dup3\n    /* \"#utility.yul\":4685:4689   */\n  dup3\n    /* \"#utility.yul\":4681:4697   */\n  shr\n    /* \"#utility.yul\":4660:4697   */\n  swap1\n  pop\n    /* \"#utility.yul\":4587:4704   */\n  swap3\n  swap2\n  pop\n  pop\n  jump\t// out\n    /* \"#utility.yul\":4710:4879   */\ntag_52:\n    /* \"#utility.yul\":4754:4760   */\n  0x00\n    /* \"#utility.yul\":4787:4838   */\n  tag_113\n    /* \"#utility.yul\":4835:4836   */\n  0x00\n    /* \"#utility.yul\":4831:4837   */\n  not\n    /* \"#utility.yul\":4823:4828   */\n  dup5\n    /* \"#utility.yul\":4820:4821   */\n  0x08\n    /* \"#utility.yul\":4816:4829   */\n  mul\n    /* \"#utility.yul\":4787:4838   */\n  tag_51\n  jump\t// in\ntag_113:\n    /* \"#utility.yul\":4783:4839   */\n  not\n    /* \"#utility.yul\":4868:4872   */\n  dup1\n    /* \"#utility.yul\":4862:4866   */\n  dup4\n    /* \"#utility.yul\":4858:4873   */\n  and\n    /* \"#utility.yul\":4848:4873   */\n  swap2\n  pop\n    /* \"#utility.yul\":4761:4879   */\n  pop\n    /* \"#utility.yul\":4710:4879   */\n  swap3\n  swap2\n  pop\n  pop\n  jump\t// out\n    /* \"#utility.yul\":4884:5179   */\ntag_53:\n    /* \"#utility.yul\":4960:4964   */\n  0x00\n    /* \"#utility.yul\":5106:5135   */\n  tag_115\n    /* \"#utility.yul\":5131:5134   */\n  dup4\n    /* \"#utility.yul\":5125:5129   */\n  dup4\n    /* \"#utility.yul\":5106:5135   */\n  tag_52\n  jump\t// in\ntag_115:\n    /* \"#utility.yul\":5098:5135   */\n  swap2\n  pop\n    /* \"#utility.yul\":5168:5171   */\n  dup3\n    /* \"#utility.yul\":5165:5166   */\n  0x02\n    /* \"#utility.yul\":5161:5172   */\n  mul\n    /* \"#utility.yul\":5155:5159   */\n  dup3\n    /* \"#utility.yul\":5152:5173   */\n  or\n    /* \"#utility.yul\":5144:5173   */\n  swap1\n  pop\n    /* \"#utility.yul\":4884:5179   */\n  swap3\n  swap2\n  pop\n  pop\n  jump\t// out\n    /* \"#utility.yul\":5184:6579   */\ntag_10:\n    /* \"#utility.yul\":5301:5338   */\n  tag_117\n    /* \"#utility.yul\":5334:5337   */\n  dup3\n    /* \"#utility.yul\":5301:5338   */\n  tag_34\n  jump\t// in\ntag_117:\n    /* \"#utility.yul\":5403:5421   */\n  0xffffffffffffffff\n    /* \"#utility.yul\":5395:5401   */\n  dup2\n    /* \"#utility.yul\":5392:5422   */\n  gt\n    /* \"#utility.yul\":5389:5445   */\n  iszero\n  tag_118\n  jumpi\n    /* \"#utility.yul\":5425:5443   */\n  tag_119\n  tag_35\n  jump\t// in\ntag_119:\n    /* \"#utility.yul\":5389:5445   */\ntag_118:\n    /* \"#utility.yul\":5469:5507   */\n  tag_120\n    /* \"#utility.yul\":5501:5505   */\n  dup3\n    /* \"#utility.yul\":5495:5506   */\n  sload\n    /* \"#utility.yul\":5469:5507   */\n  tag_37\n  jump\t// in\ntag_120:\n    /* \"#utility.yul\":5554:5621   */\n  tag_121\n    /* \"#utility.yul\":5614:5620   */\n  dup3\n    /* \"#utility.yul\":5606:5612   */\n  dup3\n    /* \"#utility.yul\":5600:5604   */\n  dup6\n    /* \"#utility.yul\":5554:5621   */\n  tag_50\n  jump\t// in\ntag_121:\n    /* \"#utility.yul\":5648:5649   */\n  0x00\n    /* \"#utility.yul\":5672:5676   */\n  0x20\n    /* \"#utility.yul\":5659:5676   */\n  swap1\n  pop\n    /* \"#utility.yul\":5704:5706   */\n  0x1f\n    /* \"#utility.yul\":5696:5702   */\n  dup4\n    /* \"#utility.yul\":5693:5707   */\n  gt\n    /* \"#utility.yul\":5721:5722   */\n  0x01\n    /* \"#utility.yul\":5716:6334   */\n  dup2\n  eq\n  tag_123\n  jumpi\n    /* \"#utility.yul\":6378:6379   */\n  0x00\n    /* \"#utility.yul\":6395:6401   */\n  dup5\n    /* \"#utility.yul\":6392:6469   */\n  iszero\n  tag_124\n  jumpi\n    /* \"#utility.yul\":6444:6453   */\n  dup3\n    /* \"#utility.yul\":6439:6442   */\n  dup8\n    /* \"#utility.yul\":6435:6454   */\n  add\n    /* \"#utility.yul\":6429:6455   */\n  mload\n    /* \"#utility.yul\":6420:6455   */\n  swap1\n  pop\n    /* \"#utility.yul\":6392:6469   */\ntag_124:\n    /* \"#utility.yul\":6495:6562   */\n  tag_125\n    /* \"#utility.yul\":6555:6561   */\n  dup6\n    /* \"#utility.yul\":6548:6553   */\n  dup3\n    /* \"#utility.yul\":6495:6562   */\n  tag_53\n  jump\t// in\ntag_125:\n    /* \"#utility.yul\":6489:6493   */\n  dup7\n    /* \"#utility.yul\":6482:6563   */\n  sstore\n    /* \"#utility.yul\":6351:6573   */\n  pop\n    /* \"#utility.yul\":5686:6573   */\n  jump(tag_122)\n    /* \"#utility.yul\":5716:6334   */\ntag_123:\n    /* \"#utility.yul\":5768:5772   */\n  0x1f\n    /* \"#utility.yul\":5764:5773   */\n  not\n    /* \"#utility.yul\":5756:5762   */\n  dup5\n    /* \"#utility.yul\":5752:5774   */\n  and\n    /* \"#utility.yul\":5802:5839   */\n  tag_126\n    /* \"#utility.yul\":5834:5838   */\n  dup7\n    /* \"#utility.yul\":5802:5839   */\n  tag_38\n  jump\t// in\ntag_126:\n    /* \"#utility.yul\":5861:5862   */\n  0x00\n    /* \"#utility.yul\":5875:6083   */\ntag_127:\n    /* \"#utility.yul\":5889:5896   */\n  dup3\n    /* \"#utility.yul\":5886:5887   */\n  dup2\n    /* \"#utility.yul\":5883:5897   */\n  lt\n    /* \"#utility.yul\":5875:6083   */\n  iszero\n  tag_129\n  jumpi\n    /* \"#utility.yul\":5968:5977   */\n  dup5\n    /* \"#utility.yul\":5963:5966   */\n  dup10\n    /* \"#utility.yul\":5959:5978   */\n  add\n    /* \"#utility.yul\":5953:5979   */\n  mload\n    /* \"#utility.yul\":5945:5951   */\n  dup3\n    /* \"#utility.yul\":5938:5980   */\n  sstore\n    /* \"#utility.yul\":6019:6020   */\n  0x01\n    /* \"#utility.yul\":6011:6017   */\n  dup3\n    /* \"#utility.yul\":6007:6021   */\n  add\n    /* \"#utility.yul\":5997:6021   */\n  swap2\n  pop\n    /* \"#utility.yul\":6066:6068   */\n  0x20\n    /* \"#utility.yul\":6055:6064   */\n  dup6\n    /* \"#utility.yul\":6051:6069   */\n  add\n    /* \"#utility.yul\":6038:6069   */\n  swap5\n  pop\n    /* \"#utility.yul\":5912:5916   */\n  0x20\n    /* \"#utility.yul\":5909:5910   */\n  dup2\n    /* \"#utility.yul\":5905:5917   */\n  add\n    /* \"#utility.yul\":5900:5917   */\n  swap1\n  pop\n    /* \"#utility.yul\":5875:6083   */\n  jump(tag_127)\ntag_129:\n    /* \"#utility.yul\":6111:6117   */\n  dup7\n    /* \"#utility.yul\":6102:6109   */\n  dup4\n    /* \"#utility.yul\":6099:6118   */\n  lt\n    /* \"#utility.yul\":6096:6275   */\n  iszero\n  tag_130\n  jumpi\n    /* \"#utility.yul\":6169:6178   */\n  dup5\n    /* \"#utility.yul\":6164:6167   */\n  dup10\n    /* \"#utility.yul\":6160:6179   */\n  add\n    /* \"#utility.yul\":6154:6180   */\n  mload\n    /* \"#utility.yul\":6212:6260   */\n  tag_131\n    /* \"#utility.yul\":6254:6258   */\n  0x1f\n    /* \"#utility.yul\":6246:6252   */\n  dup10\n    /* \"#utility.yul\":6242:6259   */\n  and\n    /* \"#utility.yul\":6231:6240   */\n  dup3\n    /* \"#utility.yul\":6212:6260   */\n  tag_52\n  jump\t// in\ntag_131:\n    /* \"#utility.yul\":6204:6210   */\n  dup4\n    /* \"#utility.yul\":6197:6261   */\n  sstore\n    /* \"#utility.yul\":6119:6275   */\n  pop\n    /* \"#utility.yul\":6096:6275   */\ntag_130:\n    /* \"#utility.yul\":6321:6322   */\n  0x01\n    /* \"#utility.yul\":6317:6318   */\n  0x02\n    /* \"#utility.yul\":6309:6315   */\n  dup9\n    /* \"#utility.yul\":6305:6319   */\n  mul\n    /* \"#utility.yul\":6301:6323   */\n  add\n    /* \"#utility.yul\":6295:6299   */\n  dup9\n    /* \"#utility.yul\":6288:6324   */\n  sstore\n    /* \"#utility.yul\":5723:6334   */\n  pop\n  pop\n  pop\n    /* \"#utility.yul\":5686:6573   */\ntag_122:\n  pop\n    /* \"#utility.yul\":5276:6579   */\n  pop\n  pop\n  pop\n    /* \"#utility.yul\":5184:6579   */\n  pop\n  pop\n  jump\t// out\n    /* \"pTOKENv2.sol\":840:4015  contract pTOKEN is ERC20Burnable, Ownable2Step, ReentrancyGuard {... */\ntag_21:\n  mload(0x80)\n  codecopy(0x00, dataOffset(sub_0), dataSize(sub_0))\n  0x00\n  assignImmutable(\"0x2adb6ba13100982fae82a6c459fdc0b83ba757ca8251e42f5db6158bc4c7e480\")\n  return(0x00, dataSize(sub_0))\nstop\n\nsub_0: assembly {\n        /* \"pTOKENv2.sol\":840:4015  contract pTOKEN is ERC20Burnable, Ownable2Step, ReentrancyGuard {... */\n      mstore(0x40, 0x80)\n      callvalue\n      dup1\n      iszero\n      tag_1\n      jumpi\n      0x00\n      dup1\n      revert\n    tag_1:\n      pop\n      jumpi(tag_2, lt(calldatasize, 0x04))\n      shr(0xe0, calldataload(0x00))\n      dup1\n      0x79cc6790\n      gt\n      tag_29\n      jumpi\n      dup1\n      0xa88df21a\n      gt\n      tag_30\n      jumpi\n      dup1\n      0xdd62ed3e\n      gt\n      tag_31\n      jumpi\n      dup1\n      0xdd62ed3e\n      eq\n      tag_25\n      jumpi\n      dup1\n      0xe30c3978\n      eq\n      tag_26\n      jumpi\n      dup1\n      0xeb2cd258\n      eq\n      tag_27\n      jumpi\n      dup1\n      0xf2fde38b\n      eq\n      tag_28\n      jumpi\n      jump(tag_2)\n    tag_31:\n      dup1\n      0xa88df21a\n      eq\n      tag_22\n      jumpi\n      dup1\n      0xa9059cbb\n      eq\n      tag_23\n      jumpi\n      dup1\n      0xbe9a6555\n      eq\n      tag_24\n      jumpi\n      jump(tag_2)\n    tag_30:\n      dup1\n      0x79cc6790\n      eq\n      tag_16\n      jumpi\n      dup1\n      0x8b7b23ee\n      eq\n      tag_17\n      jumpi\n      dup1\n      0x8da5cb5b\n      eq\n      tag_18\n      jumpi\n      dup1\n      0x92054fe7\n      eq\n      tag_19\n      jumpi\n      dup1\n      0x95d89b41\n      eq\n      tag_20\n      jumpi\n      dup1\n      0xa457c2d7\n      eq\n      tag_21\n      jumpi\n      jump(tag_2)\n    tag_29:\n      dup1\n      0x35975a37\n      gt\n      tag_32\n      jumpi\n      dup1\n      0x42966c68\n      gt\n      tag_33\n      jumpi\n      dup1\n      0x42966c68\n      eq\n      tag_12\n      jumpi\n      dup1\n      0x70a08231\n      eq\n      tag_13\n      jumpi\n      dup1\n      0x715018a6\n      eq\n      tag_14\n      jumpi\n      dup1\n      0x79ba5097\n      eq\n      tag_15\n      jumpi\n      jump(tag_2)\n    tag_33:\n      dup1\n      0x35975a37\n      eq\n      tag_9\n      jumpi\n      dup1\n      0x39509351\n      eq\n      tag_10\n      jumpi\n      dup1\n      0x41275358\n      eq\n      tag_11\n      jumpi\n      jump(tag_2)\n    tag_32:\n      dup1\n      0x029cd242\n      eq\n      tag_3\n      jumpi\n      dup1\n      0x06fdde03\n      eq\n      tag_4\n      jumpi\n      dup1\n      0x095ea7b3\n      eq\n      tag_5\n      jumpi\n      dup1\n      0x18160ddd\n      eq\n      tag_6\n      jumpi\n      dup1\n      0x23b872dd\n      eq\n      tag_7\n      jumpi\n      dup1\n      0x313ce567\n      eq\n      tag_8\n      jumpi\n    tag_2:\n      0x00\n      dup1\n      revert\n        /* \"pTOKENv2.sol\":1320:1352  IERC20 public immutable _BACKING */\n    tag_3:\n      tag_34\n      tag_35\n      jump\t// in\n    tag_34:\n      mload(0x40)\n      tag_36\n      swap2\n      swap1\n      tag_37\n      jump\t// in\n    tag_36:\n      mload(0x40)\n      dup1\n      swap2\n      sub\n      swap1\n      return\n        /* \"@openzeppelin/contracts@v4.9.3/token/ERC20/ERC20.sol\":2158:2256  function name() public view virtual override returns (string memory) {... */\n    tag_4:\n      tag_38\n      tag_39\n      jump\t// in\n    tag_38:\n      mload(0x40)\n      tag_40\n      swap2\n      swap1\n      tag_41\n      jump\t// in\n    tag_40:\n      mload(0x40)\n      dup1\n      swap2\n      sub\n      swap1\n      return\n        /* \"@openzeppelin/contracts@v4.9.3/token/ERC20/ERC20.sol\":4444:4641  function approve(address spender, uint256 amount) public virtual override returns (bool) {... */\n    tag_5:\n      tag_42\n      0x04\n      dup1\n      calldatasize\n      sub\n      dup2\n      add\n      swap1\n      tag_43\n      swap2\n      swap1\n      tag_44\n      jump\t// in\n    tag_43:\n      tag_45\n      jump\t// in\n    tag_42:\n      mload(0x40)\n      tag_46\n      swap2\n      swap1\n      tag_47\n      jump\t// in\n    tag_46:\n      mload(0x40)\n      dup1\n      swap2\n      sub\n      swap1\n      return\n        /* \"@openzeppelin/contracts@v4.9.3/token/ERC20/ERC20.sol\":3255:3361  function totalSupply() public view virtual override returns (uint256) {... */\n    tag_6:\n      tag_48\n      tag_49\n      jump\t// in\n    tag_48:\n      mload(0x40)\n      tag_50\n      swap2\n      swap1\n      tag_51\n      jump\t// in\n    tag_50:\n      mload(0x40)\n      dup1\n      swap2\n      sub\n      swap1\n      return\n        /* \"@openzeppelin/contracts@v4.9.3/token/ERC20/ERC20.sol\":5203:5459  function transferFrom(address from, address to, uint256 amount) public virtual override returns (bool) {... */\n    tag_7:\n      tag_52\n      0x04\n      dup1\n      calldatasize\n      sub\n      dup2\n      add\n      swap1\n      tag_53\n      swap2\n      swap1\n      tag_54\n      jump\t// in\n    tag_53:\n      tag_55\n      jump\t// in\n    tag_52:\n      mload(0x40)\n      tag_56\n      swap2\n      swap1\n      tag_47\n      jump\t// in\n    tag_56:\n      mload(0x40)\n      dup1\n      swap2\n      sub\n      swap1\n      return\n        /* \"@openzeppelin/contracts@v4.9.3/token/ERC20/ERC20.sol\":3104:3195  function decimals() public view virtual override returns (uint8) {... */\n    tag_8:\n      tag_57\n      tag_58\n      jump\t// in\n    tag_57:\n      mload(0x40)\n      tag_59\n      swap2\n      swap1\n      tag_60\n      jump\t// in\n    tag_59:\n      mload(0x40)\n      dup1\n      swap2\n      sub\n      swap1\n      return\n        /* \"pTOKENv2.sol\":3938:4012  function setStart() external onlyOwner {    ... */\n    tag_9:\n      tag_61\n      tag_62\n      jump\t// in\n    tag_61:\n      stop\n        /* \"@openzeppelin/contracts@v4.9.3/token/ERC20/ERC20.sol\":5854:6088  function increaseAllowance(address spender, uint256 addedValue) public virtual returns (bool) {... */\n    tag_10:\n      tag_63\n      0x04\n      dup1\n      calldatasize\n      sub\n      dup2\n      add\n      swap1\n      tag_64\n      swap2\n      swap1\n      tag_44\n      jump\t// in\n    tag_64:\n      tag_65\n      jump\t// in\n    tag_63:\n      mload(0x40)\n      tag_66\n      swap2\n      swap1\n      tag_47\n      jump\t// in\n    tag_66:\n      mload(0x40)\n      dup1\n      swap2\n      sub\n      swap1\n      return\n        /* \"pTOKENv2.sol\":2154:2187  address payable public feeAddress */\n    tag_11:\n      tag_67\n      tag_68\n      jump\t// in\n    tag_67:\n      mload(0x40)\n      tag_69\n      swap2\n      swap1\n      tag_70\n      jump\t// in\n    tag_69:\n      mload(0x40)\n      dup1\n      swap2\n      sub\n      swap1\n      return\n        /* \"@openzeppelin/contracts@v4.9.3/token/ERC20/extensions/ERC20Burnable.sol\":578:667  function burn(uint256 amount) public virtual {... */\n    tag_12:\n      tag_71\n      0x04\n      dup1\n      calldatasize\n      sub\n      dup2\n      add\n      swap1\n      tag_72\n      swap2\n      swap1\n      tag_73\n      jump\t// in\n    tag_72:\n      tag_74\n      jump\t// in\n    tag_71:\n      stop\n        /* \"@openzeppelin/contracts@v4.9.3/token/ERC20/ERC20.sol\":3419:3544  function balanceOf(address account) public view virtual override returns (uint256) {... */\n    tag_13:\n      tag_75\n      0x04\n      dup1\n      calldatasize\n      sub\n      dup2\n      add\n      swap1\n      tag_76\n      swap2\n      swap1\n      tag_77\n      jump\t// in\n    tag_76:\n      tag_78\n      jump\t// in\n    tag_75:\n      mload(0x40)\n      tag_79\n      swap2\n      swap1\n      tag_51\n      jump\t// in\n    tag_79:\n      mload(0x40)\n      dup1\n      swap2\n      sub\n      swap1\n      return\n        /* \"@openzeppelin/contracts@v4.9.3/access/Ownable.sol\":1824:1925  function renounceOwnership() public virtual onlyOwner {... */\n    tag_14:\n      tag_80\n      tag_81\n      jump\t// in\n    tag_80:\n      stop\n        /* \"@openzeppelin/contracts@v4.9.3/access/Ownable2Step.sol\":1734:1946  function acceptOwnership() public virtual {... */\n    tag_15:\n      tag_82\n      tag_83\n      jump\t// in\n    tag_82:\n      stop\n        /* \"@openzeppelin/contracts@v4.9.3/token/ERC20/extensions/ERC20Burnable.sol\":973:1134  function burnFrom(address account, uint256 amount) public virtual {... */\n    tag_16:\n      tag_84\n      0x04\n      dup1\n      calldatasize\n      sub\n      dup2\n      add\n      swap1\n      tag_85\n      swap2\n      swap1\n      tag_44\n      jump\t// in\n    tag_85:\n      tag_86\n      jump\t// in\n    tag_84:\n      stop\n        /* \"pTOKENv2.sol\":1850:1874  uint256 public FEES = 35 */\n    tag_17:\n      tag_87\n      tag_88\n      jump\t// in\n    tag_87:\n      mload(0x40)\n      tag_89\n      swap2\n      swap1\n      tag_51\n      jump\t// in\n    tag_89:\n      mload(0x40)\n      dup1\n      swap2\n      sub\n      swap1\n      return\n        /* \"@openzeppelin/contracts@v4.9.3/access/Ownable.sol\":1201:1286  function owner() public view virtual returns (address) {... */\n    tag_18:\n      tag_90\n      tag_91\n      jump\t// in\n    tag_90:\n      mload(0x40)\n      tag_92\n      swap2\n      swap1\n      tag_93\n      jump\t// in\n    tag_92:\n      mload(0x40)\n      dup1\n      swap2\n      sub\n      swap1\n      return\n        /* \"pTOKENv2.sol\":1634:1674  uint256 public MINT_AND_REDEEM_FEE = 967 */\n    tag_19:\n      tag_94\n      tag_95\n      jump\t// in\n    tag_94:\n      mload(0x40)\n      tag_96\n      swap2\n      swap1\n      tag_51\n      jump\t// in\n    tag_96:\n      mload(0x40)\n      dup1\n      swap2\n      sub\n      swap1\n      return\n        /* \"@openzeppelin/contracts@v4.9.3/token/ERC20/ERC20.sol\":2369:2471  function symbol() public view virtual override returns (string memory) {... */\n    tag_20:\n      tag_97\n      tag_98\n      jump\t// in\n    tag_97:\n      mload(0x40)\n      tag_99\n      swap2\n      swap1\n      tag_41\n      jump\t// in\n    tag_99:\n      mload(0x40)\n      dup1\n      swap2\n      sub\n      swap1\n      return\n        /* \"@openzeppelin/contracts@v4.9.3/token/ERC20/ERC20.sol\":6575:7002  function decreaseAllowance(address spender, uint256 subtractedValue) public virtual returns (bool) {... */\n    tag_21:\n      tag_100\n      0x04\n      dup1\n      calldatasize\n      sub\n      dup2\n      add\n      swap1\n      tag_101\n      swap2\n      swap1\n      tag_44\n      jump\t// in\n    tag_101:\n      tag_102\n      jump\t// in\n    tag_100:\n      mload(0x40)\n      tag_103\n      swap2\n      swap1\n      tag_47\n      jump\t// in\n    tag_103:\n      mload(0x40)\n      dup1\n      swap2\n      sub\n      swap1\n      return\n        /* \"pTOKENv2.sol\":3557:3930  function fillContract(uint256 _value) external onlyOwner {... */\n    tag_22:\n      tag_104\n      0x04\n      dup1\n      calldatasize\n      sub\n      dup2\n      add\n      swap1\n      tag_105\n      swap2\n      swap1\n      tag_73\n      jump\t// in\n    tag_105:\n      tag_106\n      jump\t// in\n    tag_104:\n      stop\n        /* \"@openzeppelin/contracts@v4.9.3/token/ERC20/ERC20.sol\":3740:3929  function transfer(address to, uint256 amount) public virtual override returns (bool) {... */\n    tag_23:\n      tag_107\n      0x04\n      dup1\n      calldatasize\n      sub\n      dup2\n      add\n      swap1\n      tag_108\n      swap2\n      swap1\n      tag_44\n      jump\t// in\n    tag_108:\n      tag_109\n      jump\t// in\n    tag_107:\n      mload(0x40)\n      tag_110\n      swap2\n      swap1\n      tag_47\n      jump\t// in\n    tag_110:\n      mload(0x40)\n      dup1\n      swap2\n      sub\n      swap1\n      return\n        /* \"pTOKENv2.sol\":2196:2213  bool public start */\n    tag_24:\n      tag_111\n      tag_112\n      jump\t// in\n    tag_111:\n      mload(0x40)\n      tag_113\n      swap2\n      swap1\n      tag_47\n      jump\t// in\n    tag_113:\n      mload(0x40)\n      dup1\n      swap2\n      sub\n      swap1\n      return\n        /* \"@openzeppelin/contracts@v4.9.3/token/ERC20/ERC20.sol\":3987:4136  function allowance(address owner, address spender) public view virtual override returns (uint256) {... */\n    tag_25:\n      tag_114\n      0x04\n      dup1\n      calldatasize\n      sub\n      dup2\n      add\n      swap1\n      tag_115\n      swap2\n      swap1\n      tag_116\n      jump\t// in\n    tag_115:\n      tag_117\n      jump\t// in\n    tag_114:\n      mload(0x40)\n      tag_118\n      swap2\n      swap1\n      tag_51\n      jump\t// in\n    tag_118:\n      mload(0x40)\n      dup1\n      swap2\n      sub\n      swap1\n      return\n        /* \"@openzeppelin/contracts@v4.9.3/access/Ownable2Step.sol\":847:946  function pendingOwner() public view virtual returns (address) {... */\n    tag_26:\n      tag_119\n      tag_120\n      jump\t// in\n    tag_119:\n      mload(0x40)\n      tag_121\n      swap2\n      swap1\n      tag_93\n      jump\t// in\n    tag_121:\n      mload(0x40)\n      dup1\n      swap2\n      sub\n      swap1\n      return\n        /* \"pTOKENv2.sol\":2120:2147  uint256 public totalBacking */\n    tag_27:\n      tag_122\n      tag_123\n      jump\t// in\n    tag_122:\n      mload(0x40)\n      tag_124\n      swap2\n      swap1\n      tag_51\n      jump\t// in\n    tag_124:\n      mload(0x40)\n      dup1\n      swap2\n      sub\n      swap1\n      return\n        /* \"@openzeppelin/contracts@v4.9.3/access/Ownable2Step.sol\":1139:1317  function transferOwnership(address newOwner) public virtual override onlyOwner {... */\n    tag_28:\n      tag_125\n      0x04\n      dup1\n      calldatasize\n      sub\n      dup2\n      add\n      swap1\n      tag_126\n      swap2\n      swap1\n      tag_77\n      jump\t// in\n    tag_126:\n      tag_127\n      jump\t// in\n    tag_125:\n      stop\n        /* \"pTOKENv2.sol\":1320:1352  IERC20 public immutable _BACKING */\n    tag_35:\n      immutable(\"0x2adb6ba13100982fae82a6c459fdc0b83ba757ca8251e42f5db6158bc4c7e480\")\n      dup2\n      jump\t// out\n        /* \"@openzeppelin/contracts@v4.9.3/token/ERC20/ERC20.sol\":2158:2256  function name() public view virtual override returns (string memory) {... */\n    tag_39:\n        /* \"@openzeppelin/contracts@v4.9.3/token/ERC20/ERC20.sol\":2212:2225  string memory */\n      0x60\n        /* \"@openzeppelin/contracts@v4.9.3/token/ERC20/ERC20.sol\":2244:2249  _name */\n      0x03\n        /* \"@openzeppelin/contracts@v4.9.3/token/ERC20/ERC20.sol\":2237:2249  return _name */\n      dup1\n      sload\n      tag_129\n      swap1\n      tag_130\n      jump\t// in\n    tag_129:\n      dup1\n      0x1f\n      add\n      0x20\n      dup1\n      swap2\n      div\n      mul\n      0x20\n      add\n      mload(0x40)\n      swap1\n      dup2\n      add\n      0x40\n      mstore\n      dup1\n      swap3\n      swap2\n      swap1\n      dup2\n      dup2\n      mstore\n      0x20\n      add\n      dup3\n      dup1\n      sload\n      tag_131\n      swap1\n      tag_130\n      jump\t// in\n    tag_131:\n      dup1\n      iszero\n      tag_132\n      jumpi\n      dup1\n      0x1f\n      lt\n      tag_133\n      jumpi\n      0x0100\n      dup1\n      dup4\n      sload\n      div\n      mul\n      dup4\n      mstore\n      swap2\n      0x20\n      add\n      swap2\n      jump(tag_132)\n    tag_133:\n      dup3\n      add\n      swap2\n      swap1\n      0x00\n      mstore\n      keccak256(0x00, 0x20)\n      swap1\n    tag_134:\n      dup2\n      sload\n      dup2\n      mstore\n      swap1\n      0x01\n      add\n      swap1\n      0x20\n      add\n      dup1\n      dup4\n      gt\n      tag_134\n      jumpi\n      dup3\n      swap1\n      sub\n      0x1f\n      and\n      dup3\n      add\n      swap2\n    tag_132:\n      pop\n      pop\n      pop\n      pop\n      pop\n      swap1\n      pop\n        /* \"@openzeppelin/contracts@v4.9.3/token/ERC20/ERC20.sol\":2158:2256  function name() public view virtual override returns (string memory) {... */\n      swap1\n      jump\t// out\n        /* \"@openzeppelin/contracts@v4.9.3/token/ERC20/ERC20.sol\":4444:4641  function approve(address spender, uint256 amount) public virtual override returns (bool) {... */\n    tag_45:\n        /* \"@openzeppelin/contracts@v4.9.3/token/ERC20/ERC20.sol\":4527:4531  bool */\n      0x00\n        /* \"@openzeppelin/contracts@v4.9.3/token/ERC20/ERC20.sol\":4543:4556  address owner */\n      dup1\n        /* \"@openzeppelin/contracts@v4.9.3/token/ERC20/ERC20.sol\":4559:4571  _msgSender() */\n      tag_136\n        /* \"@openzeppelin/contracts@v4.9.3/token/ERC20/ERC20.sol\":4559:4569  _msgSender */\n      tag_137\n        /* \"@openzeppelin/contracts@v4.9.3/token/ERC20/ERC20.sol\":4559:4571  _msgSender() */\n      jump\t// in\n    tag_136:\n        /* \"@openzeppelin/contracts@v4.9.3/token/ERC20/ERC20.sol\":4543:4571  address owner = _msgSender() */\n      swap1\n      pop\n        /* \"@openzeppelin/contracts@v4.9.3/token/ERC20/ERC20.sol\":4581:4613  _approve(owner, spender, amount) */\n      tag_138\n        /* \"@openzeppelin/contracts@v4.9.3/token/ERC20/ERC20.sol\":4590:4595  owner */\n      dup2\n        /* \"@openzeppelin/contracts@v4.9.3/token/ERC20/ERC20.sol\":4597:4604  spender */\n      dup6\n        /* \"@openzeppelin/contracts@v4.9.3/token/ERC20/ERC20.sol\":4606:4612  amount */\n      dup6\n        /* \"@openzeppelin/contracts@v4.9.3/token/ERC20/ERC20.sol\":4581:4589  _approve */\n      tag_139\n        /* \"@openzeppelin/contracts@v4.9.3/token/ERC20/ERC20.sol\":4581:4613  _approve(owner, spender, amount) */\n      jump\t// in\n    tag_138:\n        /* \"@openzeppelin/contracts@v4.9.3/token/ERC20/ERC20.sol\":4630:4634  true */\n      0x01\n        /* \"@openzeppelin/contracts@v4.9.3/token/ERC20/ERC20.sol\":4623:4634  return true */\n      swap2\n      pop\n      pop\n        /* \"@openzeppelin/contracts@v4.9.3/token/ERC20/ERC20.sol\":4444:4641  function approve(address spender, uint256 amount) public virtual override returns (bool) {... */\n      swap3\n      swap2\n      pop\n      pop\n      jump\t// out\n        /* \"@openzeppelin/contracts@v4.9.3/token/ERC20/ERC20.sol\":3255:3361  function totalSupply() public view virtual override returns (uint256) {... */\n    tag_49:\n        /* \"@openzeppelin/contracts@v4.9.3/token/ERC20/ERC20.sol\":3316:3323  uint256 */\n      0x00\n        /* \"@openzeppelin/contracts@v4.9.3/token/ERC20/ERC20.sol\":3342:3354  _totalSupply */\n      sload(0x02)\n        /* \"@openzeppelin/contracts@v4.9.3/token/ERC20/ERC20.sol\":3335:3354  return _totalSupply */\n      swap1\n      pop\n        /* \"@openzeppelin/contracts@v4.9.3/token/ERC20/ERC20.sol\":3255:3361  function totalSupply() public view virtual override returns (uint256) {... */\n      swap1\n      jump\t// out\n        /* \"@openzeppelin/contracts@v4.9.3/token/ERC20/ERC20.sol\":5203:5459  function transferFrom(address from, address to, uint256 amount) public virtual override returns (bool) {... */\n    tag_55:\n        /* \"@openzeppelin/contracts@v4.9.3/token/ERC20/ERC20.sol\":5300:5304  bool */\n      0x00\n        /* \"@openzeppelin/contracts@v4.9.3/token/ERC20/ERC20.sol\":5316:5331  address spender */\n      dup1\n        /* \"@openzeppelin/contracts@v4.9.3/token/ERC20/ERC20.sol\":5334:5346  _msgSender() */\n      tag_142\n        /* \"@openzeppelin/contracts@v4.9.3/token/ERC20/ERC20.sol\":5334:5344  _msgSender */\n      tag_137\n        /* \"@openzeppelin/contracts@v4.9.3/token/ERC20/ERC20.sol\":5334:5346  _msgSender() */\n      jump\t// in\n    tag_142:\n        /* \"@openzeppelin/contracts@v4.9.3/token/ERC20/ERC20.sol\":5316:5346  address spender = _msgSender() */\n      swap1\n      pop\n        /* \"@openzeppelin/contracts@v4.9.3/token/ERC20/ERC20.sol\":5356:5394  _spendAllowance(from, spender, amount) */\n      tag_143\n        /* \"@openzeppelin/contracts@v4.9.3/token/ERC20/ERC20.sol\":5372:5376  from */\n      dup6\n        /* \"@openzeppelin/contracts@v4.9.3/token/ERC20/ERC20.sol\":5378:5385  spender */\n      dup3\n        /* \"@openzeppelin/contracts@v4.9.3/token/ERC20/ERC20.sol\":5387:5393  amount */\n      dup6\n        /* \"@openzeppelin/contracts@v4.9.3/token/ERC20/ERC20.sol\":5356:5371  _spendAllowance */\n      tag_144\n        /* \"@openzeppelin/contracts@v4.9.3/token/ERC20/ERC20.sol\":5356:5394  _spendAllowance(from, spender, amount) */\n      jump\t// in\n    tag_143:\n        /* \"@openzeppelin/contracts@v4.9.3/token/ERC20/ERC20.sol\":5404:5431  _transfer(from, to, amount) */\n      tag_145\n        /* \"@openzeppelin/contracts@v4.9.3/token/ERC20/ERC20.sol\":5414:5418  from */\n      dup6\n        /* \"@openzeppelin/contracts@v4.9.3/token/ERC20/ERC20.sol\":5420:5422  to */\n      dup6\n        /* \"@openzeppelin/contracts@v4.9.3/token/ERC20/ERC20.sol\":5424:5430  amount */\n      dup6\n        /* \"@openzeppelin/contracts@v4.9.3/token/ERC20/ERC20.sol\":5404:5413  _transfer */\n      tag_146\n        /* \"@openzeppelin/contracts@v4.9.3/token/ERC20/ERC20.sol\":5404:5431  _transfer(from, to, amount) */\n      jump\t// in\n    tag_145:\n        /* \"@openzeppelin/contracts@v4.9.3/token/ERC20/ERC20.sol\":5448:5452  true */\n      0x01\n        /* \"@openzeppelin/contracts@v4.9.3/token/ERC20/ERC20.sol\":5441:5452  return true */\n      swap2\n      pop\n      pop\n        /* \"@openzeppelin/contracts@v4.9.3/token/ERC20/ERC20.sol\":5203:5459  function transferFrom(address from, address to, uint256 amount) public virtual override returns (bool) {... */\n      swap4\n      swap3\n      pop\n      pop\n      pop\n      jump\t// out\n        /* \"@openzeppelin/contracts@v4.9.3/token/ERC20/ERC20.sol\":3104:3195  function decimals() public view virtual override returns (uint8) {... */\n    tag_58:\n        /* \"@openzeppelin/contracts@v4.9.3/token/ERC20/ERC20.sol\":3162:3167  uint8 */\n      0x00\n        /* \"@openzeppelin/contracts@v4.9.3/token/ERC20/ERC20.sol\":3186:3188  18 */\n      0x12\n        /* \"@openzeppelin/contracts@v4.9.3/token/ERC20/ERC20.sol\":3179:3188  return 18 */\n      swap1\n      pop\n        /* \"@openzeppelin/contracts@v4.9.3/token/ERC20/ERC20.sol\":3104:3195  function decimals() public view virtual override returns (uint8) {... */\n      swap1\n      jump\t// out\n        /* \"pTOKENv2.sol\":3938:4012  function setStart() external onlyOwner {    ... */\n    tag_62:\n        /* \"@openzeppelin/contracts@v4.9.3/access/Ownable.sol\":1094:1107  _checkOwner() */\n      tag_149\n        /* \"@openzeppelin/contracts@v4.9.3/access/Ownable.sol\":1094:1105  _checkOwner */\n      tag_150\n        /* \"@openzeppelin/contracts@v4.9.3/access/Ownable.sol\":1094:1107  _checkOwner() */\n      jump\t// in\n    tag_149:\n        /* \"pTOKENv2.sol\":4000:4004  true */\n      0x01\n        /* \"pTOKENv2.sol\":3992:3997  start */\n      0x0b\n      0x14\n        /* \"pTOKENv2.sol\":3992:4004  start = true */\n      0x0100\n      exp\n      dup2\n      sload\n      dup2\n      0xff\n      mul\n      not\n      and\n      swap1\n      dup4\n      iszero\n      iszero\n      mul\n      or\n      swap1\n      sstore\n      pop\n        /* \"pTOKENv2.sol\":3938:4012  function setStart() external onlyOwner {    ... */\n      jump\t// out\n        /* \"@openzeppelin/contracts@v4.9.3/token/ERC20/ERC20.sol\":5854:6088  function increaseAllowance(address spender, uint256 addedValue) public virtual returns (bool) {... */\n    tag_65:\n        /* \"@openzeppelin/contracts@v4.9.3/token/ERC20/ERC20.sol\":5942:5946  bool */\n      0x00\n        /* \"@openzeppelin/contracts@v4.9.3/token/ERC20/ERC20.sol\":5958:5971  address owner */\n      dup1\n        /* \"@openzeppelin/contracts@v4.9.3/token/ERC20/ERC20.sol\":5974:5986  _msgSender() */\n      tag_153\n        /* \"@openzeppelin/contracts@v4.9.3/token/ERC20/ERC20.sol\":5974:5984  _msgSender */\n      tag_137\n        /* \"@openzeppelin/contracts@v4.9.3/token/ERC20/ERC20.sol\":5974:5986  _msgSender() */\n      jump\t// in\n    tag_153:\n        /* \"@openzeppelin/contracts@v4.9.3/token/ERC20/ERC20.sol\":5958:5986  address owner = _msgSender() */\n      swap1\n      pop\n        /* \"@openzeppelin/contracts@v4.9.3/token/ERC20/ERC20.sol\":5996:6060  _approve(owner, spender, allowance(owner, spender) + addedValue) */\n      tag_154\n        /* \"@openzeppelin/contracts@v4.9.3/token/ERC20/ERC20.sol\":6005:6010  owner */\n      dup2\n        /* \"@openzeppelin/contracts@v4.9.3/token/ERC20/ERC20.sol\":6012:6019  spender */\n      dup6\n        /* \"@openzeppelin/contracts@v4.9.3/token/ERC20/ERC20.sol\":6049:6059  addedValue */\n      dup6\n        /* \"@openzeppelin/contracts@v4.9.3/token/ERC20/ERC20.sol\":6021:6046  allowance(owner, spender) */\n      tag_155\n        /* \"@openzeppelin/contracts@v4.9.3/token/ERC20/ERC20.sol\":6031:6036  owner */\n      dup6\n        /* \"@openzeppelin/contracts@v4.9.3/token/ERC20/ERC20.sol\":6038:6045  spender */\n      dup10\n        /* \"@openzeppelin/contracts@v4.9.3/token/ERC20/ERC20.sol\":6021:6030  allowance */\n      tag_117\n        /* \"@openzeppelin/contracts@v4.9.3/token/ERC20/ERC20.sol\":6021:6046  allowance(owner, spender) */\n      jump\t// in\n    tag_155:\n        /* \"@openzeppelin/contracts@v4.9.3/token/ERC20/ERC20.sol\":6021:6059  allowance(owner, spender) + addedValue */\n      tag_156\n      swap2\n      swap1\n      tag_157\n      jump\t// in\n    tag_156:\n        /* \"@openzeppelin/contracts@v4.9.3/token/ERC20/ERC20.sol\":5996:6004  _approve */\n      tag_139\n        /* \"@openzeppelin/contracts@v4.9.3/token/ERC20/ERC20.sol\":5996:6060  _approve(owner, spender, allowance(owner, spender) + addedValue) */\n      jump\t// in\n    tag_154:\n        /* \"@openzeppelin/contracts@v4.9.3/token/ERC20/ERC20.sol\":6077:6081  true */\n      0x01\n        /* \"@openzeppelin/contracts@v4.9.3/token/ERC20/ERC20.sol\":6070:6081  return true */\n      swap2\n      pop\n      pop\n        /* \"@openzeppelin/contracts@v4.9.3/token/ERC20/ERC20.sol\":5854:6088  function increaseAllowance(address spender, uint256 addedValue) public virtual returns (bool) {... */\n      swap3\n      swap2\n      pop\n      pop\n      jump\t// out\n        /* \"pTOKENv2.sol\":2154:2187  address payable public feeAddress */\n    tag_68:\n      0x0b\n      0x00\n      swap1\n      sload\n      swap1\n      0x0100\n      exp\n      swap1\n      div\n      0xffffffffffffffffffffffffffffffffffffffff\n      and\n      dup2\n      jump\t// out\n        /* \"@openzeppelin/contracts@v4.9.3/token/ERC20/extensions/ERC20Burnable.sol\":578:667  function burn(uint256 amount) public virtual {... */\n    tag_74:\n        /* \"@openzeppelin/contracts@v4.9.3/token/ERC20/extensions/ERC20Burnable.sol\":633:660  _burn(_msgSender(), amount) */\n      tag_159\n        /* \"@openzeppelin/contracts@v4.9.3/token/ERC20/extensions/ERC20Burnable.sol\":639:651  _msgSender() */\n      tag_160\n        /* \"@openzeppelin/contracts@v4.9.3/token/ERC20/extensions/ERC20Burnable.sol\":639:649  _msgSender */\n      tag_137\n        /* \"@openzeppelin/contracts@v4.9.3/token/ERC20/extensions/ERC20Burnable.sol\":639:651  _msgSender() */\n      jump\t// in\n    tag_160:\n        /* \"@openzeppelin/contracts@v4.9.3/token/ERC20/extensions/ERC20Burnable.sol\":653:659  amount */\n      dup3\n        /* \"@openzeppelin/contracts@v4.9.3/token/ERC20/extensions/ERC20Burnable.sol\":633:638  _burn */\n      tag_161\n        /* \"@openzeppelin/contracts@v4.9.3/token/ERC20/extensions/ERC20Burnable.sol\":633:660  _burn(_msgSender(), amount) */\n      jump\t// in\n    tag_159:\n        /* \"@openzeppelin/contracts@v4.9.3/token/ERC20/extensions/ERC20Burnable.sol\":578:667  function burn(uint256 amount) public virtual {... */\n      pop\n      jump\t// out\n        /* \"@openzeppelin/contracts@v4.9.3/token/ERC20/ERC20.sol\":3419:3544  function balanceOf(address account) public view virtual override returns (uint256) {... */\n    tag_78:\n        /* \"@openzeppelin/contracts@v4.9.3/token/ERC20/ERC20.sol\":3493:3500  uint256 */\n      0x00\n        /* \"@openzeppelin/contracts@v4.9.3/token/ERC20/ERC20.sol\":3519:3528  _balances */\n      dup1\n        /* \"@openzeppelin/contracts@v4.9.3/token/ERC20/ERC20.sol\":3519:3537  _balances[account] */\n      0x00\n        /* \"@openzeppelin/contracts@v4.9.3/token/ERC20/ERC20.sol\":3529:3536  account */\n      dup4\n        /* \"@openzeppelin/contracts@v4.9.3/token/ERC20/ERC20.sol\":3519:3537  _balances[account] */\n      0xffffffffffffffffffffffffffffffffffffffff\n      and\n      0xffffffffffffffffffffffffffffffffffffffff\n      and\n      dup2\n      mstore\n      0x20\n      add\n      swap1\n      dup2\n      mstore\n      0x20\n      add\n      0x00\n      keccak256\n      sload\n        /* \"@openzeppelin/contracts@v4.9.3/token/ERC20/ERC20.sol\":3512:3537  return _balances[account] */\n      swap1\n      pop\n        /* \"@openzeppelin/contracts@v4.9.3/token/ERC20/ERC20.sol\":3419:3544  function balanceOf(address account) public view virtual override returns (uint256) {... */\n      swap2\n      swap1\n      pop\n      jump\t// out\n        /* \"@openzeppelin/contracts@v4.9.3/access/Ownable.sol\":1824:1925  function renounceOwnership() public virtual onlyOwner {... */\n    tag_81:\n        /* \"@openzeppelin/contracts@v4.9.3/access/Ownable.sol\":1094:1107  _checkOwner() */\n      tag_164\n        /* \"@openzeppelin/contracts@v4.9.3/access/Ownable.sol\":1094:1105  _checkOwner */\n      tag_150\n        /* \"@openzeppelin/contracts@v4.9.3/access/Ownable.sol\":1094:1107  _checkOwner() */\n      jump\t// in\n    tag_164:\n        /* \"@openzeppelin/contracts@v4.9.3/access/Ownable.sol\":1888:1918  _transferOwnership(address(0)) */\n      tag_166\n        /* \"@openzeppelin/contracts@v4.9.3/access/Ownable.sol\":1915:1916  0 */\n      0x00\n        /* \"@openzeppelin/contracts@v4.9.3/access/Ownable.sol\":1888:1906  _transferOwnership */\n      tag_167\n        /* \"@openzeppelin/contracts@v4.9.3/access/Ownable.sol\":1888:1918  _transferOwnership(address(0)) */\n      jump\t// in\n    tag_166:\n        /* \"@openzeppelin/contracts@v4.9.3/access/Ownable.sol\":1824:1925  function renounceOwnership() public virtual onlyOwner {... */\n      jump\t// out\n        /* \"@openzeppelin/contracts@v4.9.3/access/Ownable2Step.sol\":1734:1946  function acceptOwnership() public virtual {... */\n    tag_83:\n        /* \"@openzeppelin/contracts@v4.9.3/access/Ownable2Step.sol\":1786:1800  address sender */\n      0x00\n        /* \"@openzeppelin/contracts@v4.9.3/access/Ownable2Step.sol\":1803:1815  _msgSender() */\n      tag_169\n        /* \"@openzeppelin/contracts@v4.9.3/access/Ownable2Step.sol\":1803:1813  _msgSender */\n      tag_137\n        /* \"@openzeppelin/contracts@v4.9.3/access/Ownable2Step.sol\":1803:1815  _msgSender() */\n      jump\t// in\n    tag_169:\n        /* \"@openzeppelin/contracts@v4.9.3/access/Ownable2Step.sol\":1786:1815  address sender = _msgSender() */\n      swap1\n      pop\n        /* \"@openzeppelin/contracts@v4.9.3/access/Ownable2Step.sol\":1851:1857  sender */\n      dup1\n        /* \"@openzeppelin/contracts@v4.9.3/access/Ownable2Step.sol\":1833:1857  pendingOwner() == sender */\n      0xffffffffffffffffffffffffffffffffffffffff\n      and\n        /* \"@openzeppelin/contracts@v4.9.3/access/Ownable2Step.sol\":1833:1847  pendingOwner() */\n      tag_170\n        /* \"@openzeppelin/contracts@v4.9.3/access/Ownable2Step.sol\":1833:1845  pendingOwner */\n      tag_120\n        /* \"@openzeppelin/contracts@v4.9.3/access/Ownable2Step.sol\":1833:1847  pendingOwner() */\n      jump\t// in\n    tag_170:\n        /* \"@openzeppelin/contracts@v4.9.3/access/Ownable2Step.sol\":1833:1857  pendingOwner() == sender */\n      0xffffffffffffffffffffffffffffffffffffffff\n      and\n      eq\n        /* \"@openzeppelin/contracts@v4.9.3/access/Ownable2Step.sol\":1825:1903  require(pendingOwner() == sender, \"Ownable2Step: caller is not the new owner\") */\n      tag_171\n      jumpi\n      mload(0x40)\n      0x08c379a000000000000000000000000000000000000000000000000000000000\n      dup2\n      mstore\n      0x04\n      add\n      tag_172\n      swap1\n      tag_173\n      jump\t// in\n    tag_172:\n      mload(0x40)\n      dup1\n      swap2\n      sub\n      swap1\n      revert\n    tag_171:\n        /* \"@openzeppelin/contracts@v4.9.3/access/Ownable2Step.sol\":1913:1939  _transferOwnership(sender) */\n      tag_174\n        /* \"@openzeppelin/contracts@v4.9.3/access/Ownable2Step.sol\":1932:1938  sender */\n      dup2\n        /* \"@openzeppelin/contracts@v4.9.3/access/Ownable2Step.sol\":1913:1931  _transferOwnership */\n      tag_167\n        /* \"@openzeppelin/contracts@v4.9.3/access/Ownable2Step.sol\":1913:1939  _transferOwnership(sender) */\n      jump\t// in\n    tag_174:\n        /* \"@openzeppelin/contracts@v4.9.3/access/Ownable2Step.sol\":1776:1946  {... */\n      pop\n        /* \"@openzeppelin/contracts@v4.9.3/access/Ownable2Step.sol\":1734:1946  function acceptOwnership() public virtual {... */\n      jump\t// out\n        /* \"@openzeppelin/contracts@v4.9.3/token/ERC20/extensions/ERC20Burnable.sol\":973:1134  function burnFrom(address account, uint256 amount) public virtual {... */\n    tag_86:\n        /* \"@openzeppelin/contracts@v4.9.3/token/ERC20/extensions/ERC20Burnable.sol\":1049:1095  _spendAllowance(account, _msgSender(), amount) */\n      tag_176\n        /* \"@openzeppelin/contracts@v4.9.3/token/ERC20/extensions/ERC20Burnable.sol\":1065:1072  account */\n      dup3\n        /* \"@openzeppelin/contracts@v4.9.3/token/ERC20/extensions/ERC20Burnable.sol\":1074:1086  _msgSender() */\n      tag_177\n        /* \"@openzeppelin/contracts@v4.9.3/token/ERC20/extensions/ERC20Burnable.sol\":1074:1084  _msgSender */\n      tag_137\n        /* \"@openzeppelin/contracts@v4.9.3/token/ERC20/extensions/ERC20Burnable.sol\":1074:1086  _msgSender() */\n      jump\t// in\n    tag_177:\n        /* \"@openzeppelin/contracts@v4.9.3/token/ERC20/extensions/ERC20Burnable.sol\":1088:1094  amount */\n      dup4\n        /* \"@openzeppelin/contracts@v4.9.3/token/ERC20/extensions/ERC20Burnable.sol\":1049:1064  _spendAllowance */\n      tag_144\n        /* \"@openzeppelin/contracts@v4.9.3/token/ERC20/extensions/ERC20Burnable.sol\":1049:1095  _spendAllowance(account, _msgSender(), amount) */\n      jump\t// in\n    tag_176:\n        /* \"@openzeppelin/contracts@v4.9.3/token/ERC20/extensions/ERC20Burnable.sol\":1105:1127  _burn(account, amount) */\n      tag_178\n        /* \"@openzeppelin/contracts@v4.9.3/token/ERC20/extensions/ERC20Burnable.sol\":1111:1118  account */\n      dup3\n        /* \"@openzeppelin/contracts@v4.9.3/token/ERC20/extensions/ERC20Burnable.sol\":1120:1126  amount */\n      dup3\n        /* \"@openzeppelin/contracts@v4.9.3/token/ERC20/extensions/ERC20Burnable.sol\":1105:1110  _burn */\n      tag_161\n        /* \"@openzeppelin/contracts@v4.9.3/token/ERC20/extensions/ERC20Burnable.sol\":1105:1127  _burn(account, amount) */\n      jump\t// in\n    tag_178:\n        /* \"@openzeppelin/contracts@v4.9.3/token/ERC20/extensions/ERC20Burnable.sol\":973:1134  function burnFrom(address account, uint256 amount) public virtual {... */\n      pop\n      pop\n      jump\t// out\n        /* \"pTOKENv2.sol\":1850:1874  uint256 public FEES = 35 */\n    tag_88:\n      sload(0x09)\n      dup2\n      jump\t// out\n        /* \"@openzeppelin/contracts@v4.9.3/access/Ownable.sol\":1201:1286  function owner() public view virtual returns (address) {... */\n    tag_91:\n        /* \"@openzeppelin/contracts@v4.9.3/access/Ownable.sol\":1247:1254  address */\n      0x00\n        /* \"@openzeppelin/contracts@v4.9.3/access/Ownable.sol\":1273:1279  _owner */\n      0x05\n      0x00\n      swap1\n      sload\n      swap1\n      0x0100\n      exp\n      swap1\n      div\n      0xffffffffffffffffffffffffffffffffffffffff\n      and\n        /* \"@openzeppelin/contracts@v4.9.3/access/Ownable.sol\":1266:1279  return _owner */\n      swap1\n      pop\n        /* \"@openzeppelin/contracts@v4.9.3/access/Ownable.sol\":1201:1286  function owner() public view virtual returns (address) {... */\n      swap1\n      jump\t// out\n        /* \"pTOKENv2.sol\":1634:1674  uint256 public MINT_AND_REDEEM_FEE = 967 */\n    tag_95:\n      sload(0x08)\n      dup2\n      jump\t// out\n        /* \"@openzeppelin/contracts@v4.9.3/token/ERC20/ERC20.sol\":2369:2471  function symbol() public view virtual override returns (string memory) {... */\n    tag_98:\n        /* \"@openzeppelin/contracts@v4.9.3/token/ERC20/ERC20.sol\":2425:2438  string memory */\n      0x60\n        /* \"@openzeppelin/contracts@v4.9.3/token/ERC20/ERC20.sol\":2457:2464  _symbol */\n      0x04\n        /* \"@openzeppelin/contracts@v4.9.3/token/ERC20/ERC20.sol\":2450:2464  return _symbol */\n      dup1\n      sload\n      tag_181\n      swap1\n      tag_130\n      jump\t// in\n    tag_181:\n      dup1\n      0x1f\n      add\n      0x20\n      dup1\n      swap2\n      div\n      mul\n      0x20\n      add\n      mload(0x40)\n      swap1\n      dup2\n      add\n      0x40\n      mstore\n      dup1\n      swap3\n      swap2\n      swap1\n      dup2\n      dup2\n      mstore\n      0x20\n      add\n      dup3\n      dup1\n      sload\n      tag_182\n      swap1\n      tag_130\n      jump\t// in\n    tag_182:\n      dup1\n      iszero\n      tag_183\n      jumpi\n      dup1\n      0x1f\n      lt\n      tag_184\n      jumpi\n      0x0100\n      dup1\n      dup4\n      sload\n      div\n      mul\n      dup4\n      mstore\n      swap2\n      0x20\n      add\n      swap2\n      jump(tag_183)\n    tag_184:\n      dup3\n      add\n      swap2\n      swap1\n      0x00\n      mstore\n      keccak256(0x00, 0x20)\n      swap1\n    tag_185:\n      dup2\n      sload\n      dup2\n      mstore\n      swap1\n      0x01\n      add\n      swap1\n      0x20\n      add\n      dup1\n      dup4\n      gt\n      tag_185\n      jumpi\n      dup3\n      swap1\n      sub\n      0x1f\n      and\n      dup3\n      add\n      swap2\n    tag_183:\n      pop\n      pop\n      pop\n      pop\n      pop\n      swap1\n      pop\n        /* \"@openzeppelin/contracts@v4.9.3/token/ERC20/ERC20.sol\":2369:2471  function symbol() public view virtual override returns (string memory) {... */\n      swap1\n      jump\t// out\n        /* \"@openzeppelin/contracts@v4.9.3/token/ERC20/ERC20.sol\":6575:7002  function decreaseAllowance(address spender, uint256 subtractedValue) public virtual returns (bool) {... */\n    tag_102:\n        /* \"@openzeppelin/contracts@v4.9.3/token/ERC20/ERC20.sol\":6668:6672  bool */\n      0x00\n        /* \"@openzeppelin/contracts@v4.9.3/token/ERC20/ERC20.sol\":6684:6697  address owner */\n      dup1\n        /* \"@openzeppelin/contracts@v4.9.3/token/ERC20/ERC20.sol\":6700:6712  _msgSender() */\n      tag_187\n        /* \"@openzeppelin/contracts@v4.9.3/token/ERC20/ERC20.sol\":6700:6710  _msgSender */\n      tag_137\n        /* \"@openzeppelin/contracts@v4.9.3/token/ERC20/ERC20.sol\":6700:6712  _msgSender() */\n      jump\t// in\n    tag_187:\n        /* \"@openzeppelin/contracts@v4.9.3/token/ERC20/ERC20.sol\":6684:6712  address owner = _msgSender() */\n      swap1\n      pop\n        /* \"@openzeppelin/contracts@v4.9.3/token/ERC20/ERC20.sol\":6722:6746  uint256 currentAllowance */\n      0x00\n        /* \"@openzeppelin/contracts@v4.9.3/token/ERC20/ERC20.sol\":6749:6774  allowance(owner, spender) */\n      tag_188\n        /* \"@openzeppelin/contracts@v4.9.3/token/ERC20/ERC20.sol\":6759:6764  owner */\n      dup3\n        /* \"@openzeppelin/contracts@v4.9.3/token/ERC20/ERC20.sol\":6766:6773  spender */\n      dup7\n        /* \"@openzeppelin/contracts@v4.9.3/token/ERC20/ERC20.sol\":6749:6758  allowance */\n      tag_117\n        /* \"@openzeppelin/contracts@v4.9.3/token/ERC20/ERC20.sol\":6749:6774  allowance(owner, spender) */\n      jump\t// in\n    tag_188:\n        /* \"@openzeppelin/contracts@v4.9.3/token/ERC20/ERC20.sol\":6722:6774  uint256 currentAllowance = allowance(owner, spender) */\n      swap1\n      pop\n        /* \"@openzeppelin/contracts@v4.9.3/token/ERC20/ERC20.sol\":6812:6827  subtractedValue */\n      dup4\n        /* \"@openzeppelin/contracts@v4.9.3/token/ERC20/ERC20.sol\":6792:6808  currentAllowance */\n      dup2\n        /* \"@openzeppelin/contracts@v4.9.3/token/ERC20/ERC20.sol\":6792:6827  currentAllowance >= subtractedValue */\n      lt\n      iszero\n        /* \"@openzeppelin/contracts@v4.9.3/token/ERC20/ERC20.sol\":6784:6869  require(currentAllowance >= subtractedValue, \"ERC20: decreased allowance below zero\") */\n      tag_189\n      jumpi\n      mload(0x40)\n      0x08c379a000000000000000000000000000000000000000000000000000000000\n      dup2\n      mstore\n      0x04\n      add\n      tag_190\n      swap1\n      tag_191\n      jump\t// in\n    tag_190:\n      mload(0x40)\n      dup1\n      swap2\n      sub\n      swap1\n      revert\n    tag_189:\n        /* \"@openzeppelin/contracts@v4.9.3/token/ERC20/ERC20.sol\":6903:6963  _approve(owner, spender, currentAllowance - subtractedValue) */\n      tag_192\n        /* \"@openzeppelin/contracts@v4.9.3/token/ERC20/ERC20.sol\":6912:6917  owner */\n      dup3\n        /* \"@openzeppelin/contracts@v4.9.3/token/ERC20/ERC20.sol\":6919:6926  spender */\n      dup7\n        /* \"@openzeppelin/contracts@v4.9.3/token/ERC20/ERC20.sol\":6947:6962  subtractedValue */\n      dup7\n        /* \"@openzeppelin/contracts@v4.9.3/token/ERC20/ERC20.sol\":6928:6944  currentAllowance */\n      dup5\n        /* \"@openzeppelin/contracts@v4.9.3/token/ERC20/ERC20.sol\":6928:6962  currentAllowance - subtractedValue */\n      sub\n        /* \"@openzeppelin/contracts@v4.9.3/token/ERC20/ERC20.sol\":6903:6911  _approve */\n      tag_139\n        /* \"@openzeppelin/contracts@v4.9.3/token/ERC20/ERC20.sol\":6903:6963  _approve(owner, spender, currentAllowance - subtractedValue) */\n      jump\t// in\n    tag_192:\n        /* \"@openzeppelin/contracts@v4.9.3/token/ERC20/ERC20.sol\":6991:6995  true */\n      0x01\n        /* \"@openzeppelin/contracts@v4.9.3/token/ERC20/ERC20.sol\":6984:6995  return true */\n      swap3\n      pop\n      pop\n      pop\n        /* \"@openzeppelin/contracts@v4.9.3/token/ERC20/ERC20.sol\":6575:7002  function decreaseAllowance(address spender, uint256 subtractedValue) public virtual returns (bool) {... */\n      swap3\n      swap2\n      pop\n      pop\n      jump\t// out\n        /* \"pTOKENv2.sol\":3557:3930  function fillContract(uint256 _value) external onlyOwner {... */\n    tag_106:\n        /* \"@openzeppelin/contracts@v4.9.3/access/Ownable.sol\":1094:1107  _checkOwner() */\n      tag_194\n        /* \"@openzeppelin/contracts@v4.9.3/access/Ownable.sol\":1094:1105  _checkOwner */\n      tag_150\n        /* \"@openzeppelin/contracts@v4.9.3/access/Ownable.sol\":1094:1107  _checkOwner() */\n      jump\t// in\n    tag_194:\n        /* \"pTOKENv2.sol\":3638:3642  true */\n      0x01\n        /* \"pTOKENv2.sol\":3629:3642  start == true */\n      iszero\n      iszero\n        /* \"pTOKENv2.sol\":3629:3634  start */\n      0x0b\n      0x14\n      swap1\n      sload\n      swap1\n      0x0100\n      exp\n      swap1\n      div\n      0xff\n      and\n        /* \"pTOKENv2.sol\":3629:3642  start == true */\n      iszero\n      iszero\n      sub\n        /* \"pTOKENv2.sol\":3625:3674  if (start == true) revert ContractAlreadyFilled() */\n      tag_196\n      jumpi\n        /* \"pTOKENv2.sol\":3651:3674  ContractAlreadyFilled() */\n      mload(0x40)\n      0xde55c76500000000000000000000000000000000000000000000000000000000\n      dup2\n      mstore\n      0x04\n      add\n      mload(0x40)\n      dup1\n      swap2\n      sub\n      swap1\n      revert\n        /* \"pTOKENv2.sol\":3625:3674  if (start == true) revert ContractAlreadyFilled() */\n    tag_196:\n        /* \"pTOKENv2.sol\":3685:3756  SafeERC20.safeTransferFrom(_BACKING, msg.sender, address(this), _value) */\n      tag_197\n        /* \"pTOKENv2.sol\":3712:3720  _BACKING */\n      immutable(\"0x2adb6ba13100982fae82a6c459fdc0b83ba757ca8251e42f5db6158bc4c7e480\")\n        /* \"pTOKENv2.sol\":3722:3732  msg.sender */\n      caller\n        /* \"pTOKENv2.sol\":3742:3746  this */\n      address\n        /* \"pTOKENv2.sol\":3749:3755  _value */\n      dup5\n        /* \"pTOKENv2.sol\":3685:3711  SafeERC20.safeTransferFrom */\n      tag_198\n        /* \"pTOKENv2.sol\":3685:3756  SafeERC20.safeTransferFrom(_BACKING, msg.sender, address(this), _value) */\n      jump\t// in\n    tag_197:\n        /* \"pTOKENv2.sol\":3767:3792  _mint(msg.sender, _value) */\n      tag_199\n        /* \"pTOKENv2.sol\":3773:3783  msg.sender */\n      caller\n        /* \"pTOKENv2.sol\":3785:3791  _value */\n      dup3\n        /* \"pTOKENv2.sol\":3767:3772  _mint */\n      tag_200\n        /* \"pTOKENv2.sol\":3767:3792  _mint(msg.sender, _value) */\n      jump\t// in\n    tag_199:\n        /* \"pTOKENv2.sol\":3803:3861  transfer(0x000000000000000000000000000000000000dEaD, 1000) */\n      tag_201\n        /* \"pTOKENv2.sol\":3812:3854  0x000000000000000000000000000000000000dEaD */\n      0xdead\n        /* \"pTOKENv2.sol\":3856:3860  1000 */\n      0x03e8\n        /* \"pTOKENv2.sol\":3803:3811  transfer */\n      tag_109\n        /* \"pTOKENv2.sol\":3803:3861  transfer(0x000000000000000000000000000000000000dEaD, 1000) */\n      jump\t// in\n    tag_201:\n      pop\n        /* \"pTOKENv2.sol\":3889:3897  _BACKING */\n      immutable(\"0x2adb6ba13100982fae82a6c459fdc0b83ba757ca8251e42f5db6158bc4c7e480\")\n        /* \"pTOKENv2.sol\":3889:3907  _BACKING.balanceOf */\n      0xffffffffffffffffffffffffffffffffffffffff\n      and\n      0x70a08231\n        /* \"pTOKENv2.sol\":3916:3920  this */\n      address\n        /* \"pTOKENv2.sol\":3889:3922  _BACKING.balanceOf(address(this)) */\n      mload(0x40)\n      dup3\n      0xffffffff\n      and\n      0xe0\n      shl\n      dup2\n      mstore\n      0x04\n      add\n      tag_202\n      swap2\n      swap1\n      tag_93\n      jump\t// in\n    tag_202:\n      0x20\n      mload(0x40)\n      dup1\n      dup4\n      sub\n      dup2\n      dup7\n      gas\n      staticcall\n      iszero\n      dup1\n      iszero\n      tag_204\n      jumpi\n      returndatasize\n      0x00\n      dup1\n      returndatacopy\n      revert(0x00, returndatasize)\n    tag_204:\n      pop\n      pop\n      pop\n      pop\n      mload(0x40)\n      returndatasize\n      not(0x1f)\n      0x1f\n      dup3\n      add\n      and\n      dup3\n      add\n      dup1\n      0x40\n      mstore\n      pop\n      dup2\n      add\n      swap1\n      tag_205\n      swap2\n      swap1\n      tag_206\n      jump\t// in\n    tag_205:\n        /* \"pTOKENv2.sol\":3874:3886  totalBacking */\n      0x0a\n        /* \"pTOKENv2.sol\":3874:3922  totalBacking = _BACKING.balanceOf(address(this)) */\n      dup2\n      swap1\n      sstore\n      pop\n        /* \"pTOKENv2.sol\":3557:3930  function fillContract(uint256 _value) external onlyOwner {... */\n      pop\n      jump\t// out\n        /* \"@openzeppelin/contracts@v4.9.3/token/ERC20/ERC20.sol\":3740:3929  function transfer(address to, uint256 amount) public virtual override returns (bool) {... */\n    tag_109:\n        /* \"@openzeppelin/contracts@v4.9.3/token/ERC20/ERC20.sol\":3819:3823  bool */\n      0x00\n        /* \"@openzeppelin/contracts@v4.9.3/token/ERC20/ERC20.sol\":3835:3848  address owner */\n      dup1\n        /* \"@openzeppelin/contracts@v4.9.3/token/ERC20/ERC20.sol\":3851:3863  _msgSender() */\n      tag_208\n        /* \"@openzeppelin/contracts@v4.9.3/token/ERC20/ERC20.sol\":3851:3861  _msgSender */\n      tag_137\n        /* \"@openzeppelin/contracts@v4.9.3/token/ERC20/ERC20.sol\":3851:3863  _msgSender() */\n      jump\t// in\n    tag_208:\n        /* \"@openzeppelin/contracts@v4.9.3/token/ERC20/ERC20.sol\":3835:3863  address owner = _msgSender() */\n      swap1\n      pop\n        /* \"@openzeppelin/contracts@v4.9.3/token/ERC20/ERC20.sol\":3873:3901  _transfer(owner, to, amount) */\n      tag_209\n        /* \"@openzeppelin/contracts@v4.9.3/token/ERC20/ERC20.sol\":3883:3888  owner */\n      dup2\n        /* \"@openzeppelin/contracts@v4.9.3/token/ERC20/ERC20.sol\":3890:3892  to */\n      dup6\n        /* \"@openzeppelin/contracts@v4.9.3/token/ERC20/ERC20.sol\":3894:3900  amount */\n      dup6\n        /* \"@openzeppelin/contracts@v4.9.3/token/ERC20/ERC20.sol\":3873:3882  _transfer */\n      tag_146\n        /* \"@openzeppelin/contracts@v4.9.3/token/ERC20/ERC20.sol\":3873:3901  _transfer(owner, to, amount) */\n      jump\t// in\n    tag_209:\n        /* \"@openzeppelin/contracts@v4.9.3/token/ERC20/ERC20.sol\":3918:3922  true */\n      0x01\n        /* \"@openzeppelin/contracts@v4.9.3/token/ERC20/ERC20.sol\":3911:3922  return true */\n      swap2\n      pop\n      pop\n        /* \"@openzeppelin/contracts@v4.9.3/token/ERC20/ERC20.sol\":3740:3929  function transfer(address to, uint256 amount) public virtual override returns (bool) {... */\n      swap3\n      swap2\n      pop\n      pop\n      jump\t// out\n        /* \"pTOKENv2.sol\":2196:2213  bool public start */\n    tag_112:\n      0x0b\n      0x14\n      swap1\n      sload\n      swap1\n      0x0100\n      exp\n      swap1\n      div\n      0xff\n      and\n      dup2\n      jump\t// out\n        /* \"@openzeppelin/contracts@v4.9.3/token/ERC20/ERC20.sol\":3987:4136  function allowance(address owner, address spender) public view virtual override returns (uint256) {... */\n    tag_117:\n        /* \"@openzeppelin/contracts@v4.9.3/token/ERC20/ERC20.sol\":4076:4083  uint256 */\n      0x00\n        /* \"@openzeppelin/contracts@v4.9.3/token/ERC20/ERC20.sol\":4102:4113  _allowances */\n      0x01\n        /* \"@openzeppelin/contracts@v4.9.3/token/ERC20/ERC20.sol\":4102:4120  _allowances[owner] */\n      0x00\n        /* \"@openzeppelin/contracts@v4.9.3/token/ERC20/ERC20.sol\":4114:4119  owner */\n      dup5\n        /* \"@openzeppelin/contracts@v4.9.3/token/ERC20/ERC20.sol\":4102:4120  _allowances[owner] */\n      0xffffffffffffffffffffffffffffffffffffffff\n      and\n      0xffffffffffffffffffffffffffffffffffffffff\n      and\n      dup2\n      mstore\n      0x20\n      add\n      swap1\n      dup2\n      mstore\n      0x20\n      add\n      0x00\n      keccak256\n        /* \"@openzeppelin/contracts@v4.9.3/token/ERC20/ERC20.sol\":4102:4129  _allowances[owner][spender] */\n      0x00\n        /* \"@openzeppelin/contracts@v4.9.3/token/ERC20/ERC20.sol\":4121:4128  spender */\n      dup4\n        /* \"@openzeppelin/contracts@v4.9.3/token/ERC20/ERC20.sol\":4102:4129  _allowances[owner][spender] */\n      0xffffffffffffffffffffffffffffffffffffffff\n      and\n      0xffffffffffffffffffffffffffffffffffffffff\n      and\n      dup2\n      mstore\n      0x20\n      add\n      swap1\n      dup2\n      mstore\n      0x20\n      add\n      0x00\n      keccak256\n      sload\n        /* \"@openzeppelin/contracts@v4.9.3/token/ERC20/ERC20.sol\":4095:4129  return _allowances[owner][spender] */\n      swap1\n      pop\n        /* \"@openzeppelin/contracts@v4.9.3/token/ERC20/ERC20.sol\":3987:4136  function allowance(address owner, address spender) public view virtual override returns (uint256) {... */\n      swap3\n      swap2\n      pop\n      pop\n      jump\t// out\n        /* \"@openzeppelin/contracts@v4.9.3/access/Ownable2Step.sol\":847:946  function pendingOwner() public view virtual returns (address) {... */\n    tag_120:\n        /* \"@openzeppelin/contracts@v4.9.3/access/Ownable2Step.sol\":900:907  address */\n      0x00\n        /* \"@openzeppelin/contracts@v4.9.3/access/Ownable2Step.sol\":926:939  _pendingOwner */\n      0x06\n      0x00\n      swap1\n      sload\n      swap1\n      0x0100\n      exp\n      swap1\n      div\n      0xffffffffffffffffffffffffffffffffffffffff\n      and\n        /* \"@openzeppelin/contracts@v4.9.3/access/Ownable2Step.sol\":919:939  return _pendingOwner */\n      swap1\n      pop\n        /* \"@openzeppelin/contracts@v4.9.3/access/Ownable2Step.sol\":847:946  function pendingOwner() public view virtual returns (address) {... */\n      swap1\n      jump\t// out\n        /* \"pTOKENv2.sol\":2120:2147  uint256 public totalBacking */\n    tag_123:\n      sload(0x0a)\n      dup2\n      jump\t// out\n        /* \"@openzeppelin/contracts@v4.9.3/access/Ownable2Step.sol\":1139:1317  function transferOwnership(address newOwner) public virtual override onlyOwner {... */\n    tag_127:\n        /* \"@openzeppelin/contracts@v4.9.3/access/Ownable.sol\":1094:1107  _checkOwner() */\n      tag_213\n        /* \"@openzeppelin/contracts@v4.9.3/access/Ownable.sol\":1094:1105  _checkOwner */\n      tag_150\n        /* \"@openzeppelin/contracts@v4.9.3/access/Ownable.sol\":1094:1107  _checkOwner() */\n      jump\t// in\n    tag_213:\n        /* \"@openzeppelin/contracts@v4.9.3/access/Ownable2Step.sol\":1244:1252  newOwner */\n      dup1\n        /* \"@openzeppelin/contracts@v4.9.3/access/Ownable2Step.sol\":1228:1241  _pendingOwner */\n      0x06\n      0x00\n        /* \"@openzeppelin/contracts@v4.9.3/access/Ownable2Step.sol\":1228:1252  _pendingOwner = newOwner */\n      0x0100\n      exp\n      dup2\n      sload\n      dup2\n      0xffffffffffffffffffffffffffffffffffffffff\n      mul\n      not\n      and\n      swap1\n      dup4\n      0xffffffffffffffffffffffffffffffffffffffff\n      and\n      mul\n      or\n      swap1\n      sstore\n      pop\n        /* \"@openzeppelin/contracts@v4.9.3/access/Ownable2Step.sol\":1301:1309  newOwner */\n      dup1\n        /* \"@openzeppelin/contracts@v4.9.3/access/Ownable2Step.sol\":1267:1310  OwnershipTransferStarted(owner(), newOwner) */\n      0xffffffffffffffffffffffffffffffffffffffff\n      and\n        /* \"@openzeppelin/contracts@v4.9.3/access/Ownable2Step.sol\":1292:1299  owner() */\n      tag_215\n        /* \"@openzeppelin/contracts@v4.9.3/access/Ownable2Step.sol\":1292:1297  owner */\n      tag_91\n        /* \"@openzeppelin/contracts@v4.9.3/access/Ownable2Step.sol\":1292:1299  owner() */\n      jump\t// in\n    tag_215:\n        /* \"@openzeppelin/contracts@v4.9.3/access/Ownable2Step.sol\":1267:1310  OwnershipTransferStarted(owner(), newOwner) */\n      0xffffffffffffffffffffffffffffffffffffffff\n      and\n      0x38d16b8cac22d99fc7c124b9cd0de2d3fa1faef420bfe791d8c362d765e22700\n      mload(0x40)\n      mload(0x40)\n      dup1\n      swap2\n      sub\n      swap1\n      log3\n        /* \"@openzeppelin/contracts@v4.9.3/access/Ownable2Step.sol\":1139:1317  function transferOwnership(address newOwner) public virtual override onlyOwner {... */\n      pop\n      jump\t// out\n        /* \"@openzeppelin/contracts@v4.9.3/utils/Context.sol\":640:736  function _msgSender() internal view virtual returns (address) {... */\n    tag_137:\n        /* \"@openzeppelin/contracts@v4.9.3/utils/Context.sol\":693:700  address */\n      0x00\n        /* \"@openzeppelin/contracts@v4.9.3/utils/Context.sol\":719:729  msg.sender */\n      caller\n        /* \"@openzeppelin/contracts@v4.9.3/utils/Context.sol\":712:729  return msg.sender */\n      swap1\n      pop\n        /* \"@openzeppelin/contracts@v4.9.3/utils/Context.sol\":640:736  function _msgSender() internal view virtual returns (address) {... */\n      swap1\n      jump\t// out\n        /* \"@openzeppelin/contracts@v4.9.3/token/ERC20/ERC20.sol\":10457:10797  function _approve(address owner, address spender, uint256 amount) internal virtual {... */\n    tag_139:\n        /* \"@openzeppelin/contracts@v4.9.3/token/ERC20/ERC20.sol\":10575:10576  0 */\n      0x00\n        /* \"@openzeppelin/contracts@v4.9.3/token/ERC20/ERC20.sol\":10558:10577  owner != address(0) */\n      0xffffffffffffffffffffffffffffffffffffffff\n      and\n        /* \"@openzeppelin/contracts@v4.9.3/token/ERC20/ERC20.sol\":10558:10563  owner */\n      dup4\n        /* \"@openzeppelin/contracts@v4.9.3/token/ERC20/ERC20.sol\":10558:10577  owner != address(0) */\n      0xffffffffffffffffffffffffffffffffffffffff\n      and\n      sub\n        /* \"@openzeppelin/contracts@v4.9.3/token/ERC20/ERC20.sol\":10550:10618  require(owner != address(0), \"ERC20: approve from the zero address\") */\n      tag_218\n      jumpi\n      mload(0x40)\n      0x08c379a000000000000000000000000000000000000000000000000000000000\n      dup2\n      mstore\n      0x04\n      add\n      tag_219\n      swap1\n      tag_220\n      jump\t// in\n    tag_219:\n      mload(0x40)\n      dup1\n      swap2\n      sub\n      swap1\n      revert\n    tag_218:\n        /* \"@openzeppelin/contracts@v4.9.3/token/ERC20/ERC20.sol\":10655:10656  0 */\n      0x00\n        /* \"@openzeppelin/contracts@v4.9.3/token/ERC20/ERC20.sol\":10636:10657  spender != address(0) */\n      0xffffffffffffffffffffffffffffffffffffffff\n      and\n        /* \"@openzeppelin/contracts@v4.9.3/token/ERC20/ERC20.sol\":10636:10643  spender */\n      dup3\n        /* \"@openzeppelin/contracts@v4.9.3/token/ERC20/ERC20.sol\":10636:10657  spender != address(0) */\n      0xffffffffffffffffffffffffffffffffffffffff\n      and\n      sub\n        /* \"@openzeppelin/contracts@v4.9.3/token/ERC20/ERC20.sol\":10628:10696  require(spender != address(0), \"ERC20: approve to the zero address\") */\n      tag_221\n      jumpi\n      mload(0x40)\n      0x08c379a000000000000000000000000000000000000000000000000000000000\n      dup2\n      mstore\n      0x04\n      add\n      tag_222\n      swap1\n      tag_223\n      jump\t// in\n    tag_222:\n      mload(0x40)\n      dup1\n      swap2\n      sub\n      swap1\n      revert\n    tag_221:\n        /* \"@openzeppelin/contracts@v4.9.3/token/ERC20/ERC20.sol\":10737:10743  amount */\n      dup1\n        /* \"@openzeppelin/contracts@v4.9.3/token/ERC20/ERC20.sol\":10707:10718  _allowances */\n      0x01\n        /* \"@openzeppelin/contracts@v4.9.3/token/ERC20/ERC20.sol\":10707:10725  _allowances[owner] */\n      0x00\n        /* \"@openzeppelin/contracts@v4.9.3/token/ERC20/ERC20.sol\":10719:10724  owner */\n      dup6\n        /* \"@openzeppelin/contracts@v4.9.3/token/ERC20/ERC20.sol\":10707:10725  _allowances[owner] */\n      0xffffffffffffffffffffffffffffffffffffffff\n      and\n      0xffffffffffffffffffffffffffffffffffffffff\n      and\n      dup2\n      mstore\n      0x20\n      add\n      swap1\n      dup2\n      mstore\n      0x20\n      add\n      0x00\n      keccak256\n        /* \"@openzeppelin/contracts@v4.9.3/token/ERC20/ERC20.sol\":10707:10734  _allowances[owner][spender] */\n      0x00\n        /* \"@openzeppelin/contracts@v4.9.3/token/ERC20/ERC20.sol\":10726:10733  spender */\n      dup5\n        /* \"@openzeppelin/contracts@v4.9.3/token/ERC20/ERC20.sol\":10707:10734  _allowances[owner][spender] */\n      0xffffffffffffffffffffffffffffffffffffffff\n      and\n      0xffffffffffffffffffffffffffffffffffffffff\n      and\n      dup2\n      mstore\n      0x20\n      add\n      swap1\n      dup2\n      mstore\n      0x20\n      add\n      0x00\n      keccak256\n        /* \"@openzeppelin/contracts@v4.9.3/token/ERC20/ERC20.sol\":10707:10743  _allowances[owner][spender] = amount */\n      dup2\n      swap1\n      sstore\n      pop\n        /* \"@openzeppelin/contracts@v4.9.3/token/ERC20/ERC20.sol\":10774:10781  spender */\n      dup2\n        /* \"@openzeppelin/contracts@v4.9.3/token/ERC20/ERC20.sol\":10758:10790  Approval(owner, spender, amount) */\n      0xffffffffffffffffffffffffffffffffffffffff\n      and\n        /* \"@openzeppelin/contracts@v4.9.3/token/ERC20/ERC20.sol\":10767:10772  owner */\n      dup4\n        /* \"@openzeppelin/contracts@v4.9.3/token/ERC20/ERC20.sol\":10758:10790  Approval(owner, spender, amount) */\n      0xffffffffffffffffffffffffffffffffffffffff\n      and\n      0x8c5be1e5ebec7d5bd14f71427d1e84f3dd0314c0f7b2291e5b200ac8c7c3b925\n        /* \"@openzeppelin/contracts@v4.9.3/token/ERC20/ERC20.sol\":10783:10789  amount */\n      dup4\n        /* \"@openzeppelin/contracts@v4.9.3/token/ERC20/ERC20.sol\":10758:10790  Approval(owner, spender, amount) */\n      mload(0x40)\n      tag_224\n      swap2\n      swap1\n      tag_51\n      jump\t// in\n    tag_224:\n      mload(0x40)\n      dup1\n      swap2\n      sub\n      swap1\n      log3\n        /* \"@openzeppelin/contracts@v4.9.3/token/ERC20/ERC20.sol\":10457:10797  function _approve(address owner, address spender, uint256 amount) internal virtual {... */\n      pop\n      pop\n      pop\n      jump\t// out\n        /* \"@openzeppelin/contracts@v4.9.3/token/ERC20/ERC20.sol\":11078:11489  function _spendAllowance(address owner, address spender, uint256 amount) internal virtual {... */\n    tag_144:\n        /* \"@openzeppelin/contracts@v4.9.3/token/ERC20/ERC20.sol\":11178:11202  uint256 currentAllowance */\n      0x00\n        /* \"@openzeppelin/contracts@v4.9.3/token/ERC20/ERC20.sol\":11205:11230  allowance(owner, spender) */\n      tag_226\n        /* \"@openzeppelin/contracts@v4.9.3/token/ERC20/ERC20.sol\":11215:11220  owner */\n      dup5\n        /* \"@openzeppelin/contracts@v4.9.3/token/ERC20/ERC20.sol\":11222:11229  spender */\n      dup5\n        /* \"@openzeppelin/contracts@v4.9.3/token/ERC20/ERC20.sol\":11205:11214  allowance */\n      tag_117\n        /* \"@openzeppelin/contracts@v4.9.3/token/ERC20/ERC20.sol\":11205:11230  allowance(owner, spender) */\n      jump\t// in\n    tag_226:\n        /* \"@openzeppelin/contracts@v4.9.3/token/ERC20/ERC20.sol\":11178:11230  uint256 currentAllowance = allowance(owner, spender) */\n      swap1\n      pop\n        /* \"@openzeppelin/contracts@v4.9.3/token/ERC20/ERC20.sol\":11264:11281  type(uint256).max */\n      0xffffffffffffffffffffffffffffffffffffffffffffffffffffffffffffffff\n        /* \"@openzeppelin/contracts@v4.9.3/token/ERC20/ERC20.sol\":11244:11260  currentAllowance */\n      dup2\n        /* \"@openzeppelin/contracts@v4.9.3/token/ERC20/ERC20.sol\":11244:11281  currentAllowance != type(uint256).max */\n      eq\n        /* \"@openzeppelin/contracts@v4.9.3/token/ERC20/ERC20.sol\":11240:11483  if (currentAllowance != type(uint256).max) {... */\n      tag_227\n      jumpi\n        /* \"@openzeppelin/contracts@v4.9.3/token/ERC20/ERC20.sol\":11325:11331  amount */\n      dup2\n        /* \"@openzeppelin/contracts@v4.9.3/token/ERC20/ERC20.sol\":11305:11321  currentAllowance */\n      dup2\n        /* \"@openzeppelin/contracts@v4.9.3/token/ERC20/ERC20.sol\":11305:11331  currentAllowance >= amount */\n      lt\n      iszero\n        /* \"@openzeppelin/contracts@v4.9.3/token/ERC20/ERC20.sol\":11297:11365  require(currentAllowance >= amount, \"ERC20: insufficient allowance\") */\n      tag_228\n      jumpi\n      mload(0x40)\n      0x08c379a000000000000000000000000000000000000000000000000000000000\n      dup2\n      mstore\n      0x04\n      add\n      tag_229\n      swap1\n      tag_230\n      jump\t// in\n    tag_229:\n      mload(0x40)\n      dup1\n      swap2\n      sub\n      swap1\n      revert\n    tag_228:\n        /* \"@openzeppelin/contracts@v4.9.3/token/ERC20/ERC20.sol\":11407:11458  _approve(owner, spender, currentAllowance - amount) */\n      tag_231\n        /* \"@openzeppelin/contracts@v4.9.3/token/ERC20/ERC20.sol\":11416:11421  owner */\n      dup5\n        /* \"@openzeppelin/contracts@v4.9.3/token/ERC20/ERC20.sol\":11423:11430  spender */\n      dup5\n        /* \"@openzeppelin/contracts@v4.9.3/token/ERC20/ERC20.sol\":11451:11457  amount */\n      dup5\n        /* \"@openzeppelin/contracts@v4.9.3/token/ERC20/ERC20.sol\":11432:11448  currentAllowance */\n      dup5\n        /* \"@openzeppelin/contracts@v4.9.3/token/ERC20/ERC20.sol\":11432:11457  currentAllowance - amount */\n      sub\n        /* \"@openzeppelin/contracts@v4.9.3/token/ERC20/ERC20.sol\":11407:11415  _approve */\n      tag_139\n        /* \"@openzeppelin/contracts@v4.9.3/token/ERC20/ERC20.sol\":11407:11458  _approve(owner, spender, currentAllowance - amount) */\n      jump\t// in\n    tag_231:\n        /* \"@openzeppelin/contracts@v4.9.3/token/ERC20/ERC20.sol\":11240:11483  if (currentAllowance != type(uint256).max) {... */\n    tag_227:\n        /* \"@openzeppelin/contracts@v4.9.3/token/ERC20/ERC20.sol\":11168:11489  {... */\n      pop\n        /* \"@openzeppelin/contracts@v4.9.3/token/ERC20/ERC20.sol\":11078:11489  function _spendAllowance(address owner, address spender, uint256 amount) internal virtual {... */\n      pop\n      pop\n      pop\n      jump\t// out\n        /* \"@openzeppelin/contracts@v4.9.3/token/ERC20/ERC20.sol\":7456:8244  function _transfer(address from, address to, uint256 amount) internal virtual {... */\n    tag_146:\n        /* \"@openzeppelin/contracts@v4.9.3/token/ERC20/ERC20.sol\":7568:7569  0 */\n      0x00\n        /* \"@openzeppelin/contracts@v4.9.3/token/ERC20/ERC20.sol\":7552:7570  from != address(0) */\n      0xffffffffffffffffffffffffffffffffffffffff\n      and\n        /* \"@openzeppelin/contracts@v4.9.3/token/ERC20/ERC20.sol\":7552:7556  from */\n      dup4\n        /* \"@openzeppelin/contracts@v4.9.3/token/ERC20/ERC20.sol\":7552:7570  from != address(0) */\n      0xffffffffffffffffffffffffffffffffffffffff\n      and\n      sub\n        /* \"@openzeppelin/contracts@v4.9.3/token/ERC20/ERC20.sol\":7544:7612  require(from != address(0), \"ERC20: transfer from the zero address\") */\n      tag_233\n      jumpi\n      mload(0x40)\n      0x08c379a000000000000000000000000000000000000000000000000000000000\n      dup2\n      mstore\n      0x04\n      add\n      tag_234\n      swap1\n      tag_235\n      jump\t// in\n    tag_234:\n      mload(0x40)\n      dup1\n      swap2\n      sub\n      swap1\n      revert\n    tag_233:\n        /* \"@openzeppelin/contracts@v4.9.3/token/ERC20/ERC20.sol\":7644:7645  0 */\n      0x00\n        /* \"@openzeppelin/contracts@v4.9.3/token/ERC20/ERC20.sol\":7630:7646  to != address(0) */\n      0xffffffffffffffffffffffffffffffffffffffff\n      and\n        /* \"@openzeppelin/contracts@v4.9.3/token/ERC20/ERC20.sol\":7630:7632  to */\n      dup3\n        /* \"@openzeppelin/contracts@v4.9.3/token/ERC20/ERC20.sol\":7630:7646  to != address(0) */\n      0xffffffffffffffffffffffffffffffffffffffff\n      and\n      sub\n        /* \"@openzeppelin/contracts@v4.9.3/token/ERC20/ERC20.sol\":7622:7686  require(to != address(0), \"ERC20: transfer to the zero address\") */\n      tag_236\n      jumpi\n      mload(0x40)\n      0x08c379a000000000000000000000000000000000000000000000000000000000\n      dup2\n      mstore\n      0x04\n      add\n      tag_237\n      swap1\n      tag_238\n      jump\t// in\n    tag_237:\n      mload(0x40)\n      dup1\n      swap2\n      sub\n      swap1\n      revert\n    tag_236:\n        /* \"@openzeppelin/contracts@v4.9.3/token/ERC20/ERC20.sol\":7697:7735  _beforeTokenTransfer(from, to, amount) */\n      tag_239\n        /* \"@openzeppelin/contracts@v4.9.3/token/ERC20/ERC20.sol\":7718:7722  from */\n      dup4\n        /* \"@openzeppelin/contracts@v4.9.3/token/ERC20/ERC20.sol\":7724:7726  to */\n      dup4\n        /* \"@openzeppelin/contracts@v4.9.3/token/ERC20/ERC20.sol\":7728:7734  amount */\n      dup4\n        /* \"@openzeppelin/contracts@v4.9.3/token/ERC20/ERC20.sol\":7697:7717  _beforeTokenTransfer */\n      tag_240\n        /* \"@openzeppelin/contracts@v4.9.3/token/ERC20/ERC20.sol\":7697:7735  _beforeTokenTransfer(from, to, amount) */\n      jump\t// in\n    tag_239:\n        /* \"@openzeppelin/contracts@v4.9.3/token/ERC20/ERC20.sol\":7746:7765  uint256 fromBalance */\n      0x00\n        /* \"@openzeppelin/contracts@v4.9.3/token/ERC20/ERC20.sol\":7768:7777  _balances */\n      dup1\n        /* \"@openzeppelin/contracts@v4.9.3/token/ERC20/ERC20.sol\":7768:7783  _balances[from] */\n      0x00\n        /* \"@openzeppelin/contracts@v4.9.3/token/ERC20/ERC20.sol\":7778:7782  from */\n      dup6\n        /* \"@openzeppelin/contracts@v4.9.3/token/ERC20/ERC20.sol\":7768:7783  _balances[from] */\n      0xffffffffffffffffffffffffffffffffffffffff\n      and\n      0xffffffffffffffffffffffffffffffffffffffff\n      and\n      dup2\n      mstore\n      0x20\n      add\n      swap1\n      dup2\n      mstore\n      0x20\n      add\n      0x00\n      keccak256\n      sload\n        /* \"@openzeppelin/contracts@v4.9.3/token/ERC20/ERC20.sol\":7746:7783  uint256 fromBalance = _balances[from] */\n      swap1\n      pop\n        /* \"@openzeppelin/contracts@v4.9.3/token/ERC20/ERC20.sol\":7816:7822  amount */\n      dup2\n        /* \"@openzeppelin/contracts@v4.9.3/token/ERC20/ERC20.sol\":7801:7812  fromBalance */\n      dup2\n        /* \"@openzeppelin/contracts@v4.9.3/token/ERC20/ERC20.sol\":7801:7822  fromBalance >= amount */\n      lt\n      iszero\n        /* \"@openzeppelin/contracts@v4.9.3/token/ERC20/ERC20.sol\":7793:7865  require(fromBalance >= amount, \"ERC20: transfer amount exceeds balance\") */\n      tag_241\n      jumpi\n      mload(0x40)\n      0x08c379a000000000000000000000000000000000000000000000000000000000\n      dup2\n      mstore\n      0x04\n      add\n      tag_242\n      swap1\n      tag_243\n      jump\t// in\n    tag_242:\n      mload(0x40)\n      dup1\n      swap2\n      sub\n      swap1\n      revert\n    tag_241:\n        /* \"@openzeppelin/contracts@v4.9.3/token/ERC20/ERC20.sol\":7931:7937  amount */\n      dup2\n        /* \"@openzeppelin/contracts@v4.9.3/token/ERC20/ERC20.sol\":7917:7928  fromBalance */\n      dup2\n        /* \"@openzeppelin/contracts@v4.9.3/token/ERC20/ERC20.sol\":7917:7937  fromBalance - amount */\n      sub\n        /* \"@openzeppelin/contracts@v4.9.3/token/ERC20/ERC20.sol\":7899:7908  _balances */\n      0x00\n        /* \"@openzeppelin/contracts@v4.9.3/token/ERC20/ERC20.sol\":7899:7914  _balances[from] */\n      dup1\n        /* \"@openzeppelin/contracts@v4.9.3/token/ERC20/ERC20.sol\":7909:7913  from */\n      dup7\n        /* \"@openzeppelin/contracts@v4.9.3/token/ERC20/ERC20.sol\":7899:7914  _balances[from] */\n      0xffffffffffffffffffffffffffffffffffffffff\n      and\n      0xffffffffffffffffffffffffffffffffffffffff\n      and\n      dup2\n      mstore\n      0x20\n      add\n      swap1\n      dup2\n      mstore\n      0x20\n      add\n      0x00\n      keccak256\n        /* \"@openzeppelin/contracts@v4.9.3/token/ERC20/ERC20.sol\":7899:7937  _balances[from] = fromBalance - amount */\n      dup2\n      swap1\n      sstore\n      pop\n        /* \"@openzeppelin/contracts@v4.9.3/token/ERC20/ERC20.sol\":8131:8137  amount */\n      dup2\n        /* \"@openzeppelin/contracts@v4.9.3/token/ERC20/ERC20.sol\":8114:8123  _balances */\n      0x00\n        /* \"@openzeppelin/contracts@v4.9.3/token/ERC20/ERC20.sol\":8114:8127  _balances[to] */\n      dup1\n        /* \"@openzeppelin/contracts@v4.9.3/token/ERC20/ERC20.sol\":8124:8126  to */\n      dup6\n        /* \"@openzeppelin/contracts@v4.9.3/token/ERC20/ERC20.sol\":8114:8127  _balances[to] */\n      0xffffffffffffffffffffffffffffffffffffffff\n      and\n      0xffffffffffffffffffffffffffffffffffffffff\n      and\n      dup2\n      mstore\n      0x20\n      add\n      swap1\n      dup2\n      mstore\n      0x20\n      add\n      0x00\n      keccak256\n      0x00\n        /* \"@openzeppelin/contracts@v4.9.3/token/ERC20/ERC20.sol\":8114:8137  _balances[to] += amount */\n      dup3\n      dup3\n      sload\n      add\n      swap3\n      pop\n      pop\n      dup2\n      swap1\n      sstore\n      pop\n        /* \"@openzeppelin/contracts@v4.9.3/token/ERC20/ERC20.sol\":8178:8180  to */\n      dup3\n        /* \"@openzeppelin/contracts@v4.9.3/token/ERC20/ERC20.sol\":8163:8189  Transfer(from, to, amount) */\n      0xffffffffffffffffffffffffffffffffffffffff\n      and\n        /* \"@openzeppelin/contracts@v4.9.3/token/ERC20/ERC20.sol\":8172:8176  from */\n      dup5\n        /* \"@openzeppelin/contracts@v4.9.3/token/ERC20/ERC20.sol\":8163:8189  Transfer(from, to, amount) */\n      0xffffffffffffffffffffffffffffffffffffffff\n      and\n      0xddf252ad1be2c89b69c2b068fc378daa952ba7f163c4a11628f55a4df523b3ef\n        /* \"@openzeppelin/contracts@v4.9.3/token/ERC20/ERC20.sol\":8182:8188  amount */\n      dup5\n        /* \"@openzeppelin/contracts@v4.9.3/token/ERC20/ERC20.sol\":8163:8189  Transfer(from, to, amount) */\n      mload(0x40)\n      tag_244\n      swap2\n      swap1\n      tag_51\n      jump\t// in\n    tag_244:\n      mload(0x40)\n      dup1\n      swap2\n      sub\n      swap1\n      log3\n        /* \"@openzeppelin/contracts@v4.9.3/token/ERC20/ERC20.sol\":8200:8237  _afterTokenTransfer(from, to, amount) */\n      tag_245\n        /* \"@openzeppelin/contracts@v4.9.3/token/ERC20/ERC20.sol\":8220:8224  from */\n      dup5\n        /* \"@openzeppelin/contracts@v4.9.3/token/ERC20/ERC20.sol\":8226:8228  to */\n      dup5\n        /* \"@openzeppelin/contracts@v4.9.3/token/ERC20/ERC20.sol\":8230:8236  amount */\n      dup5\n        /* \"@openzeppelin/contracts@v4.9.3/token/ERC20/ERC20.sol\":8200:8219  _afterTokenTransfer */\n      tag_246\n        /* \"@openzeppelin/contracts@v4.9.3/token/ERC20/ERC20.sol\":8200:8237  _afterTokenTransfer(from, to, amount) */\n      jump\t// in\n    tag_245:\n        /* \"@openzeppelin/contracts@v4.9.3/token/ERC20/ERC20.sol\":7534:8244  {... */\n      pop\n        /* \"@openzeppelin/contracts@v4.9.3/token/ERC20/ERC20.sol\":7456:8244  function _transfer(address from, address to, uint256 amount) internal virtual {... */\n      pop\n      pop\n      pop\n      jump\t// out\n        /* \"@openzeppelin/contracts@v4.9.3/access/Ownable.sol\":1359:1489  function _checkOwner() internal view virtual {... */\n    tag_150:\n        /* \"@openzeppelin/contracts@v4.9.3/access/Ownable.sol\":1433:1445  _msgSender() */\n      tag_248\n        /* \"@openzeppelin/contracts@v4.9.3/access/Ownable.sol\":1433:1443  _msgSender */\n      tag_137\n        /* \"@openzeppelin/contracts@v4.9.3/access/Ownable.sol\":1433:1445  _msgSender() */\n      jump\t// in\n    tag_248:\n        /* \"@openzeppelin/contracts@v4.9.3/access/Ownable.sol\":1422:1445  owner() == _msgSender() */\n      0xffffffffffffffffffffffffffffffffffffffff\n      and\n        /* \"@openzeppelin/contracts@v4.9.3/access/Ownable.sol\":1422:1429  owner() */\n      tag_249\n        /* \"@openzeppelin/contracts@v4.9.3/access/Ownable.sol\":1422:1427  owner */\n      tag_91\n        /* \"@openzeppelin/contracts@v4.9.3/access/Ownable.sol\":1422:1429  owner() */\n      jump\t// in\n    tag_249:\n        /* \"@openzeppelin/contracts@v4.9.3/access/Ownable.sol\":1422:1445  owner() == _msgSender() */\n      0xffffffffffffffffffffffffffffffffffffffff\n      and\n      eq\n        /* \"@openzeppelin/contracts@v4.9.3/access/Ownable.sol\":1414:1482  require(owner() == _msgSender(), \"Ownable: caller is not the owner\") */\n      tag_250\n      jumpi\n      mload(0x40)\n      0x08c379a000000000000000000000000000000000000000000000000000000000\n      dup2\n      mstore\n      0x04\n      add\n      tag_251\n      swap1\n      tag_252\n      jump\t// in\n    tag_251:\n      mload(0x40)\n      dup1\n      swap2\n      sub\n      swap1\n      revert\n    tag_250:\n        /* \"@openzeppelin/contracts@v4.9.3/access/Ownable.sol\":1359:1489  function _checkOwner() internal view virtual {... */\n      jump\t// out\n        /* \"@openzeppelin/contracts@v4.9.3/token/ERC20/ERC20.sol\":9375:10034  function _burn(address account, uint256 amount) internal virtual {... */\n    tag_161:\n        /* \"@openzeppelin/contracts@v4.9.3/token/ERC20/ERC20.sol\":9477:9478  0 */\n      0x00\n        /* \"@openzeppelin/contracts@v4.9.3/token/ERC20/ERC20.sol\":9458:9479  account != address(0) */\n      0xffffffffffffffffffffffffffffffffffffffff\n      and\n        /* \"@openzeppelin/contracts@v4.9.3/token/ERC20/ERC20.sol\":9458:9465  account */\n      dup3\n        /* \"@openzeppelin/contracts@v4.9.3/token/ERC20/ERC20.sol\":9458:9479  account != address(0) */\n      0xffffffffffffffffffffffffffffffffffffffff\n      and\n      sub\n        /* \"@openzeppelin/contracts@v4.9.3/token/ERC20/ERC20.sol\":9450:9517  require(account != address(0), \"ERC20: burn from the zero address\") */\n      tag_254\n      jumpi\n      mload(0x40)\n      0x08c379a000000000000000000000000000000000000000000000000000000000\n      dup2\n      mstore\n      0x04\n      add\n      tag_255\n      swap1\n      tag_256\n      jump\t// in\n    tag_255:\n      mload(0x40)\n      dup1\n      swap2\n      sub\n      swap1\n      revert\n    tag_254:\n        /* \"@openzeppelin/contracts@v4.9.3/token/ERC20/ERC20.sol\":9528:9577  _beforeTokenTransfer(account, address(0), amount) */\n      tag_257\n        /* \"@openzeppelin/contracts@v4.9.3/token/ERC20/ERC20.sol\":9549:9556  account */\n      dup3\n        /* \"@openzeppelin/contracts@v4.9.3/token/ERC20/ERC20.sol\":9566:9567  0 */\n      0x00\n        /* \"@openzeppelin/contracts@v4.9.3/token/ERC20/ERC20.sol\":9570:9576  amount */\n      dup4\n        /* \"@openzeppelin/contracts@v4.9.3/token/ERC20/ERC20.sol\":9528:9548  _beforeTokenTransfer */\n      tag_240\n        /* \"@openzeppelin/contracts@v4.9.3/token/ERC20/ERC20.sol\":9528:9577  _beforeTokenTransfer(account, address(0), amount) */\n      jump\t// in\n    tag_257:\n        /* \"@openzeppelin/contracts@v4.9.3/token/ERC20/ERC20.sol\":9588:9610  uint256 accountBalance */\n      0x00\n        /* \"@openzeppelin/contracts@v4.9.3/token/ERC20/ERC20.sol\":9613:9622  _balances */\n      dup1\n        /* \"@openzeppelin/contracts@v4.9.3/token/ERC20/ERC20.sol\":9613:9631  _balances[account] */\n      0x00\n        /* \"@openzeppelin/contracts@v4.9.3/token/ERC20/ERC20.sol\":9623:9630  account */\n      dup5\n        /* \"@openzeppelin/contracts@v4.9.3/token/ERC20/ERC20.sol\":9613:9631  _balances[account] */\n      0xffffffffffffffffffffffffffffffffffffffff\n      and\n      0xffffffffffffffffffffffffffffffffffffffff\n      and\n      dup2\n      mstore\n      0x20\n      add\n      swap1\n      dup2\n      mstore\n      0x20\n      add\n      0x00\n      keccak256\n      sload\n        /* \"@openzeppelin/contracts@v4.9.3/token/ERC20/ERC20.sol\":9588:9631  uint256 accountBalance = _balances[account] */\n      swap1\n      pop\n        /* \"@openzeppelin/contracts@v4.9.3/token/ERC20/ERC20.sol\":9667:9673  amount */\n      dup2\n        /* \"@openzeppelin/contracts@v4.9.3/token/ERC20/ERC20.sol\":9649:9663  accountBalance */\n      dup2\n        /* \"@openzeppelin/contracts@v4.9.3/token/ERC20/ERC20.sol\":9649:9673  accountBalance >= amount */\n      lt\n      iszero\n        /* \"@openzeppelin/contracts@v4.9.3/token/ERC20/ERC20.sol\":9641:9712  require(accountBalance >= amount, \"ERC20: burn amount exceeds balance\") */\n      tag_258\n      jumpi\n      mload(0x40)\n      0x08c379a000000000000000000000000000000000000000000000000000000000\n      dup2\n      mstore\n      0x04\n      add\n      tag_259\n      swap1\n      tag_260\n      jump\t// in\n    tag_259:\n      mload(0x40)\n      dup1\n      swap2\n      sub\n      swap1\n      revert\n    tag_258:\n        /* \"@openzeppelin/contracts@v4.9.3/token/ERC20/ERC20.sol\":9784:9790  amount */\n      dup2\n        /* \"@openzeppelin/contracts@v4.9.3/token/ERC20/ERC20.sol\":9767:9781  accountBalance */\n      dup2\n        /* \"@openzeppelin/contracts@v4.9.3/token/ERC20/ERC20.sol\":9767:9790  accountBalance - amount */\n      sub\n        /* \"@openzeppelin/contracts@v4.9.3/token/ERC20/ERC20.sol\":9746:9755  _balances */\n      0x00\n        /* \"@openzeppelin/contracts@v4.9.3/token/ERC20/ERC20.sol\":9746:9764  _balances[account] */\n      dup1\n        /* \"@openzeppelin/contracts@v4.9.3/token/ERC20/ERC20.sol\":9756:9763  account */\n      dup6\n        /* \"@openzeppelin/contracts@v4.9.3/token/ERC20/ERC20.sol\":9746:9764  _balances[account] */\n      0xffffffffffffffffffffffffffffffffffffffff\n      and\n      0xffffffffffffffffffffffffffffffffffffffff\n      and\n      dup2\n      mstore\n      0x20\n      add\n      swap1\n      dup2\n      mstore\n      0x20\n      add\n      0x00\n      keccak256\n        /* \"@openzeppelin/contracts@v4.9.3/token/ERC20/ERC20.sol\":9746:9790  _balances[account] = accountBalance - amount */\n      dup2\n      swap1\n      sstore\n      pop\n        /* \"@openzeppelin/contracts@v4.9.3/token/ERC20/ERC20.sol\":9899:9905  amount */\n      dup2\n        /* \"@openzeppelin/contracts@v4.9.3/token/ERC20/ERC20.sol\":9883:9895  _totalSupply */\n      0x02\n      0x00\n        /* \"@openzeppelin/contracts@v4.9.3/token/ERC20/ERC20.sol\":9883:9905  _totalSupply -= amount */\n      dup3\n      dup3\n      sload\n      sub\n      swap3\n      pop\n      pop\n      dup2\n      swap1\n      sstore\n      pop\n        /* \"@openzeppelin/contracts@v4.9.3/token/ERC20/ERC20.sol\":9957:9958  0 */\n      0x00\n        /* \"@openzeppelin/contracts@v4.9.3/token/ERC20/ERC20.sol\":9931:9968  Transfer(account, address(0), amount) */\n      0xffffffffffffffffffffffffffffffffffffffff\n      and\n        /* \"@openzeppelin/contracts@v4.9.3/token/ERC20/ERC20.sol\":9940:9947  account */\n      dup4\n        /* \"@openzeppelin/contracts@v4.9.3/token/ERC20/ERC20.sol\":9931:9968  Transfer(account, address(0), amount) */\n      0xffffffffffffffffffffffffffffffffffffffff\n      and\n      0xddf252ad1be2c89b69c2b068fc378daa952ba7f163c4a11628f55a4df523b3ef\n        /* \"@openzeppelin/contracts@v4.9.3/token/ERC20/ERC20.sol\":9961:9967  amount */\n      dup5\n        /* \"@openzeppelin/contracts@v4.9.3/token/ERC20/ERC20.sol\":9931:9968  Transfer(account, address(0), amount) */\n      mload(0x40)\n      tag_261\n      swap2\n      swap1\n      tag_51\n      jump\t// in\n    tag_261:\n      mload(0x40)\n      dup1\n      swap2\n      sub\n      swap1\n      log3\n        /* \"@openzeppelin/contracts@v4.9.3/token/ERC20/ERC20.sol\":9979:10027  _afterTokenTransfer(account, address(0), amount) */\n      tag_262\n        /* \"@openzeppelin/contracts@v4.9.3/token/ERC20/ERC20.sol\":9999:10006  account */\n      dup4\n        /* \"@openzeppelin/contracts@v4.9.3/token/ERC20/ERC20.sol\":10016:10017  0 */\n      0x00\n        /* \"@openzeppelin/contracts@v4.9.3/token/ERC20/ERC20.sol\":10020:10026  amount */\n      dup5\n        /* \"@openzeppelin/contracts@v4.9.3/token/ERC20/ERC20.sol\":9979:9998  _afterTokenTransfer */\n      tag_246\n        /* \"@openzeppelin/contracts@v4.9.3/token/ERC20/ERC20.sol\":9979:10027  _afterTokenTransfer(account, address(0), amount) */\n      jump\t// in\n    tag_262:\n        /* \"@openzeppelin/contracts@v4.9.3/token/ERC20/ERC20.sol\":9440:10034  {... */\n      pop\n        /* \"@openzeppelin/contracts@v4.9.3/token/ERC20/ERC20.sol\":9375:10034  function _burn(address account, uint256 amount) internal virtual {... */\n      pop\n      pop\n      jump\t// out\n        /* \"@openzeppelin/contracts@v4.9.3/access/Ownable2Step.sol\":1501:1654  function _transferOwnership(address newOwner) internal virtual override {... */\n    tag_167:\n        /* \"@openzeppelin/contracts@v4.9.3/access/Ownable2Step.sol\":1590:1603  _pendingOwner */\n      0x06\n      0x00\n        /* \"@openzeppelin/contracts@v4.9.3/access/Ownable2Step.sol\":1583:1603  delete _pendingOwner */\n      0x0100\n      exp\n      dup2\n      sload\n      swap1\n      0xffffffffffffffffffffffffffffffffffffffff\n      mul\n      not\n      and\n      swap1\n      sstore\n        /* \"@openzeppelin/contracts@v4.9.3/access/Ownable2Step.sol\":1613:1647  super._transferOwnership(newOwner) */\n      tag_264\n        /* \"@openzeppelin/contracts@v4.9.3/access/Ownable2Step.sol\":1638:1646  newOwner */\n      dup2\n        /* \"@openzeppelin/contracts@v4.9.3/access/Ownable2Step.sol\":1613:1637  super._transferOwnership */\n      tag_265\n        /* \"@openzeppelin/contracts@v4.9.3/access/Ownable2Step.sol\":1613:1647  super._transferOwnership(newOwner) */\n      jump\t// in\n    tag_264:\n        /* \"@openzeppelin/contracts@v4.9.3/access/Ownable2Step.sol\":1501:1654  function _transferOwnership(address newOwner) internal virtual override {... */\n      pop\n      jump\t// out\n        /* \"@openzeppelin/contracts@v4.9.3/token/ERC20/utils/SafeERC20.sol\":1355:1558  function safeTransferFrom(IERC20 token, address from, address to, uint256 value) internal {... */\n    tag_198:\n        /* \"@openzeppelin/contracts@v4.9.3/token/ERC20/utils/SafeERC20.sol\":1455:1551  _callOptionalReturn(token, abi.encodeWithSelector(token.transferFrom.selector, from, to, value)) */\n      tag_267\n        /* \"@openzeppelin/contracts@v4.9.3/token/ERC20/utils/SafeERC20.sol\":1475:1480  token */\n      dup5\n        /* \"@openzeppelin/contracts@v4.9.3/token/ERC20/utils/SafeERC20.sol\":1505:1532  token.transferFrom.selector */\n      shl(0xe0, 0x23b872dd)\n        /* \"@openzeppelin/contracts@v4.9.3/token/ERC20/utils/SafeERC20.sol\":1534:1538  from */\n      dup6\n        /* \"@openzeppelin/contracts@v4.9.3/token/ERC20/utils/SafeERC20.sol\":1540:1542  to */\n      dup6\n        /* \"@openzeppelin/contracts@v4.9.3/token/ERC20/utils/SafeERC20.sol\":1544:1549  value */\n      dup6\n        /* \"@openzeppelin/contracts@v4.9.3/token/ERC20/utils/SafeERC20.sol\":1482:1550  abi.encodeWithSelector(token.transferFrom.selector, from, to, value) */\n      add(0x24, mload(0x40))\n      tag_268\n      swap4\n      swap3\n      swap2\n      swap1\n      tag_269\n      jump\t// in\n    tag_268:\n      mload(0x40)\n      0x20\n      dup2\n      dup4\n      sub\n      sub\n      dup2\n      mstore\n      swap1\n      0x40\n      mstore\n      swap1\n      not(0xffffffffffffffffffffffffffffffffffffffffffffffffffffffff)\n      and\n      0x20\n      dup3\n      add\n      dup1\n      mload\n      0xffffffffffffffffffffffffffffffffffffffffffffffffffffffff\n      dup4\n      dup2\n      dup4\n      and\n      or\n      dup4\n      mstore\n      pop\n      pop\n      pop\n      pop\n        /* \"@openzeppelin/contracts@v4.9.3/token/ERC20/utils/SafeERC20.sol\":1455:1474  _callOptionalReturn */\n      tag_270\n        /* \"@openzeppelin/contracts@v4.9.3/token/ERC20/utils/SafeERC20.sol\":1455:1551  _callOptionalReturn(token, abi.encodeWithSelector(token.transferFrom.selector, from, to, value)) */\n      jump\t// in\n    tag_267:\n        /* \"@openzeppelin/contracts@v4.9.3/token/ERC20/utils/SafeERC20.sol\":1355:1558  function safeTransferFrom(IERC20 token, address from, address to, uint256 value) internal {... */\n      pop\n      pop\n      pop\n      pop\n      jump\t// out\n        /* \"@openzeppelin/contracts@v4.9.3/token/ERC20/ERC20.sol\":8520:9055  function _mint(address account, uint256 amount) internal virtual {... */\n    tag_200:\n        /* \"@openzeppelin/contracts@v4.9.3/token/ERC20/ERC20.sol\":8622:8623  0 */\n      0x00\n        /* \"@openzeppelin/contracts@v4.9.3/token/ERC20/ERC20.sol\":8603:8624  account != address(0) */\n      0xffffffffffffffffffffffffffffffffffffffff\n      and\n        /* \"@openzeppelin/contracts@v4.9.3/token/ERC20/ERC20.sol\":8603:8610  account */\n      dup3\n        /* \"@openzeppelin/contracts@v4.9.3/token/ERC20/ERC20.sol\":8603:8624  account != address(0) */\n      0xffffffffffffffffffffffffffffffffffffffff\n      and\n      sub\n        /* \"@openzeppelin/contracts@v4.9.3/token/ERC20/ERC20.sol\":8595:8660  require(account != address(0), \"ERC20: mint to the zero address\") */\n      tag_272\n      jumpi\n      mload(0x40)\n      0x08c379a000000000000000000000000000000000000000000000000000000000\n      dup2\n      mstore\n      0x04\n      add\n      tag_273\n      swap1\n      tag_274\n      jump\t// in\n    tag_273:\n      mload(0x40)\n      dup1\n      swap2\n      sub\n      swap1\n      revert\n    tag_272:\n        /* \"@openzeppelin/contracts@v4.9.3/token/ERC20/ERC20.sol\":8671:8720  _beforeTokenTransfer(address(0), account, amount) */\n      tag_275\n        /* \"@openzeppelin/contracts@v4.9.3/token/ERC20/ERC20.sol\":8700:8701  0 */\n      0x00\n        /* \"@openzeppelin/contracts@v4.9.3/token/ERC20/ERC20.sol\":8704:8711  account */\n      dup4\n        /* \"@openzeppelin/contracts@v4.9.3/token/ERC20/ERC20.sol\":8713:8719  amount */\n      dup4\n        /* \"@openzeppelin/contracts@v4.9.3/token/ERC20/ERC20.sol\":8671:8691  _beforeTokenTransfer */\n      tag_240\n        /* \"@openzeppelin/contracts@v4.9.3/token/ERC20/ERC20.sol\":8671:8720  _beforeTokenTransfer(address(0), account, amount) */\n      jump\t// in\n    tag_275:\n        /* \"@openzeppelin/contracts@v4.9.3/token/ERC20/ERC20.sol\":8747:8753  amount */\n      dup1\n        /* \"@openzeppelin/contracts@v4.9.3/token/ERC20/ERC20.sol\":8731:8743  _totalSupply */\n      0x02\n      0x00\n        /* \"@openzeppelin/contracts@v4.9.3/token/ERC20/ERC20.sol\":8731:8753  _totalSupply += amount */\n      dup3\n      dup3\n      sload\n      tag_276\n      swap2\n      swap1\n      tag_157\n      jump\t// in\n    tag_276:\n      swap3\n      pop\n      pop\n      dup2\n      swap1\n      sstore\n      pop\n        /* \"@openzeppelin/contracts@v4.9.3/token/ERC20/ERC20.sol\":8921:8927  amount */\n      dup1\n        /* \"@openzeppelin/contracts@v4.9.3/token/ERC20/ERC20.sol\":8899:8908  _balances */\n      0x00\n        /* \"@openzeppelin/contracts@v4.9.3/token/ERC20/ERC20.sol\":8899:8917  _balances[account] */\n      dup1\n        /* \"@openzeppelin/contracts@v4.9.3/token/ERC20/ERC20.sol\":8909:8916  account */\n      dup5\n        /* \"@openzeppelin/contracts@v4.9.3/token/ERC20/ERC20.sol\":8899:8917  _balances[account] */\n      0xffffffffffffffffffffffffffffffffffffffff\n      and\n      0xffffffffffffffffffffffffffffffffffffffff\n      and\n      dup2\n      mstore\n      0x20\n      add\n      swap1\n      dup2\n      mstore\n      0x20\n      add\n      0x00\n      keccak256\n      0x00\n        /* \"@openzeppelin/contracts@v4.9.3/token/ERC20/ERC20.sol\":8899:8927  _balances[account] += amount */\n      dup3\n      dup3\n      sload\n      add\n      swap3\n      pop\n      pop\n      dup2\n      swap1\n      sstore\n      pop\n        /* \"@openzeppelin/contracts@v4.9.3/token/ERC20/ERC20.sol\":8973:8980  account */\n      dup2\n        /* \"@openzeppelin/contracts@v4.9.3/token/ERC20/ERC20.sol\":8952:8989  Transfer(address(0), account, amount) */\n      0xffffffffffffffffffffffffffffffffffffffff\n      and\n        /* \"@openzeppelin/contracts@v4.9.3/token/ERC20/ERC20.sol\":8969:8970  0 */\n      0x00\n        /* \"@openzeppelin/contracts@v4.9.3/token/ERC20/ERC20.sol\":8952:8989  Transfer(address(0), account, amount) */\n      0xffffffffffffffffffffffffffffffffffffffff\n      and\n      0xddf252ad1be2c89b69c2b068fc378daa952ba7f163c4a11628f55a4df523b3ef\n        /* \"@openzeppelin/contracts@v4.9.3/token/ERC20/ERC20.sol\":8982:8988  amount */\n      dup4\n        /* \"@openzeppelin/contracts@v4.9.3/token/ERC20/ERC20.sol\":8952:8989  Transfer(address(0), account, amount) */\n      mload(0x40)\n      tag_277\n      swap2\n      swap1\n      tag_51\n      jump\t// in\n    tag_277:\n      mload(0x40)\n      dup1\n      swap2\n      sub\n      swap1\n      log3\n        /* \"@openzeppelin/contracts@v4.9.3/token/ERC20/ERC20.sol\":9000:9048  _afterTokenTransfer(address(0), account, amount) */\n      tag_278\n        /* \"@openzeppelin/contracts@v4.9.3/token/ERC20/ERC20.sol\":9028:9029  0 */\n      0x00\n        /* \"@openzeppelin/contracts@v4.9.3/token/ERC20/ERC20.sol\":9032:9039  account */\n      dup4\n        /* \"@openzeppelin/contracts@v4.9.3/token/ERC20/ERC20.sol\":9041:9047  amount */\n      dup4\n        /* \"@openzeppelin/contracts@v4.9.3/token/ERC20/ERC20.sol\":9000:9019  _afterTokenTransfer */\n      tag_246\n        /* \"@openzeppelin/contracts@v4.9.3/token/ERC20/ERC20.sol\":9000:9048  _afterTokenTransfer(address(0), account, amount) */\n      jump\t// in\n    tag_278:\n        /* \"@openzeppelin/contracts@v4.9.3/token/ERC20/ERC20.sol\":8520:9055  function _mint(address account, uint256 amount) internal virtual {... */\n      pop\n      pop\n      jump\t// out\n        /* \"@openzeppelin/contracts@v4.9.3/token/ERC20/ERC20.sol\":12073:12164  function _beforeTokenTransfer(address from, address to, uint256 amount) internal virtual {} */\n    tag_240:\n      pop\n      pop\n      pop\n      jump\t// out\n        /* \"@openzeppelin/contracts@v4.9.3/token/ERC20/ERC20.sol\":12752:12842  function _afterTokenTransfer(address from, address to, uint256 amount) internal virtual {} */\n    tag_246:\n      pop\n      pop\n      pop\n      jump\t// out\n        /* \"@openzeppelin/contracts@v4.9.3/access/Ownable.sol\":2426:2613  function _transferOwnership(address newOwner) internal virtual {... */\n    tag_265:\n        /* \"@openzeppelin/contracts@v4.9.3/access/Ownable.sol\":2499:2515  address oldOwner */\n      0x00\n        /* \"@openzeppelin/contracts@v4.9.3/access/Ownable.sol\":2518:2524  _owner */\n      0x05\n      0x00\n      swap1\n      sload\n      swap1\n      0x0100\n      exp\n      swap1\n      div\n      0xffffffffffffffffffffffffffffffffffffffff\n      and\n        /* \"@openzeppelin/contracts@v4.9.3/access/Ownable.sol\":2499:2524  address oldOwner = _owner */\n      swap1\n      pop\n        /* \"@openzeppelin/contracts@v4.9.3/access/Ownable.sol\":2543:2551  newOwner */\n      dup2\n        /* \"@openzeppelin/contracts@v4.9.3/access/Ownable.sol\":2534:2540  _owner */\n      0x05\n      0x00\n        /* \"@openzeppelin/contracts@v4.9.3/access/Ownable.sol\":2534:2551  _owner = newOwner */\n      0x0100\n      exp\n      dup2\n      sload\n      dup2\n      0xffffffffffffffffffffffffffffffffffffffff\n      mul\n      not\n      and\n      swap1\n      dup4\n      0xffffffffffffffffffffffffffffffffffffffff\n      and\n      mul\n      or\n      swap1\n      sstore\n      pop\n        /* \"@openzeppelin/contracts@v4.9.3/access/Ownable.sol\":2597:2605  newOwner */\n      dup2\n        /* \"@openzeppelin/contracts@v4.9.3/access/Ownable.sol\":2566:2606  OwnershipTransferred(oldOwner, newOwner) */\n      0xffffffffffffffffffffffffffffffffffffffff\n      and\n        /* \"@openzeppelin/contracts@v4.9.3/access/Ownable.sol\":2587:2595  oldOwner */\n      dup2\n        /* \"@openzeppelin/contracts@v4.9.3/access/Ownable.sol\":2566:2606  OwnershipTransferred(oldOwner, newOwner) */\n      0xffffffffffffffffffffffffffffffffffffffff\n      and\n      0x8be0079c531659141344cd1fd0a4f28419497f9722a3daafe3b4186f6b6457e0\n      mload(0x40)\n      mload(0x40)\n      dup1\n      swap2\n      sub\n      swap1\n      log3\n        /* \"@openzeppelin/contracts@v4.9.3/access/Ownable.sol\":2489:2613  {... */\n      pop\n        /* \"@openzeppelin/contracts@v4.9.3/access/Ownable.sol\":2426:2613  function _transferOwnership(address newOwner) internal virtual {... */\n      pop\n      jump\t// out\n        /* \"@openzeppelin/contracts@v4.9.3/token/ERC20/utils/SafeERC20.sol\":5196:5838  function _callOptionalReturn(IERC20 token, bytes memory data) private {... */\n    tag_270:\n        /* \"@openzeppelin/contracts@v4.9.3/token/ERC20/utils/SafeERC20.sol\":5615:5638  bytes memory returndata */\n      0x00\n        /* \"@openzeppelin/contracts@v4.9.3/token/ERC20/utils/SafeERC20.sol\":5641:5710  address(token).functionCall(data, \"SafeERC20: low-level call failed\") */\n      tag_283\n        /* \"@openzeppelin/contracts@v4.9.3/token/ERC20/utils/SafeERC20.sol\":5669:5673  data */\n      dup3\n        /* \"@openzeppelin/contracts@v4.9.3/token/ERC20/utils/SafeERC20.sol\":5641:5710  address(token).functionCall(data, \"SafeERC20: low-level call failed\") */\n      mload(0x40)\n      dup1\n      0x40\n      add\n      0x40\n      mstore\n      dup1\n      0x20\n      dup2\n      mstore\n      0x20\n      add\n      0x5361666545524332303a206c6f772d6c6576656c2063616c6c206661696c6564\n      dup2\n      mstore\n      pop\n        /* \"@openzeppelin/contracts@v4.9.3/token/ERC20/utils/SafeERC20.sol\":5649:5654  token */\n      dup6\n        /* \"@openzeppelin/contracts@v4.9.3/token/ERC20/utils/SafeERC20.sol\":5641:5668  address(token).functionCall */\n      0xffffffffffffffffffffffffffffffffffffffff\n      and\n      tag_284\n      swap1\n        /* \"@openzeppelin/contracts@v4.9.3/token/ERC20/utils/SafeERC20.sol\":5641:5710  address(token).functionCall(data, \"SafeERC20: low-level call failed\") */\n      swap3\n      swap2\n      swap1\n      0xffffffff\n      and\n      jump\t// in\n    tag_283:\n        /* \"@openzeppelin/contracts@v4.9.3/token/ERC20/utils/SafeERC20.sol\":5615:5710  bytes memory returndata = address(token).functionCall(data, \"SafeERC20: low-level call failed\") */\n      swap1\n      pop\n        /* \"@openzeppelin/contracts@v4.9.3/token/ERC20/utils/SafeERC20.sol\":5749:5750  0 */\n      0x00\n        /* \"@openzeppelin/contracts@v4.9.3/token/ERC20/utils/SafeERC20.sol\":5728:5738  returndata */\n      dup2\n        /* \"@openzeppelin/contracts@v4.9.3/token/ERC20/utils/SafeERC20.sol\":5728:5745  returndata.length */\n      mload\n        /* \"@openzeppelin/contracts@v4.9.3/token/ERC20/utils/SafeERC20.sol\":5728:5750  returndata.length == 0 */\n      eq\n        /* \"@openzeppelin/contracts@v4.9.3/token/ERC20/utils/SafeERC20.sol\":5728:5784  returndata.length == 0 || abi.decode(returndata, (bool)) */\n      dup1\n      tag_285\n      jumpi\n      pop\n        /* \"@openzeppelin/contracts@v4.9.3/token/ERC20/utils/SafeERC20.sol\":5765:5775  returndata */\n      dup1\n        /* \"@openzeppelin/contracts@v4.9.3/token/ERC20/utils/SafeERC20.sol\":5754:5784  abi.decode(returndata, (bool)) */\n      dup1\n      0x20\n      add\n      swap1\n      mload\n      dup2\n      add\n      swap1\n      tag_286\n      swap2\n      swap1\n      tag_287\n      jump\t// in\n    tag_286:\n        /* \"@openzeppelin/contracts@v4.9.3/token/ERC20/utils/SafeERC20.sol\":5728:5784  returndata.length == 0 || abi.decode(returndata, (bool)) */\n    tag_285:\n        /* \"@openzeppelin/contracts@v4.9.3/token/ERC20/utils/SafeERC20.sol\":5720:5831  require(returndata.length == 0 || abi.decode(returndata, (bool)), \"SafeERC20: ERC20 operation did not succeed\") */\n      tag_288\n      jumpi\n      mload(0x40)\n      0x08c379a000000000000000000000000000000000000000000000000000000000\n      dup2\n      mstore\n      0x04\n      add\n      tag_289\n      swap1\n      tag_290\n      jump\t// in\n    tag_289:\n      mload(0x40)\n      dup1\n      swap2\n      sub\n      swap1\n      revert\n    tag_288:\n        /* \"@openzeppelin/contracts@v4.9.3/token/ERC20/utils/SafeERC20.sol\":5266:5838  {... */\n      pop\n        /* \"@openzeppelin/contracts@v4.9.3/token/ERC20/utils/SafeERC20.sol\":5196:5838  function _callOptionalReturn(IERC20 token, bytes memory data) private {... */\n      pop\n      pop\n      jump\t// out\n        /* \"@openzeppelin/contracts@v4.9.3/utils/Address.sol\":4108:4331  function functionCall(... */\n    tag_284:\n        /* \"@openzeppelin/contracts@v4.9.3/utils/Address.sol\":4241:4253  bytes memory */\n      0x60\n        /* \"@openzeppelin/contracts@v4.9.3/utils/Address.sol\":4272:4324  functionCallWithValue(target, data, 0, errorMessage) */\n      tag_292\n        /* \"@openzeppelin/contracts@v4.9.3/utils/Address.sol\":4294:4300  target */\n      dup5\n        /* \"@openzeppelin/contracts@v4.9.3/utils/Address.sol\":4302:4306  data */\n      dup5\n        /* \"@openzeppelin/contracts@v4.9.3/utils/Address.sol\":4308:4309  0 */\n      0x00\n        /* \"@openzeppelin/contracts@v4.9.3/utils/Address.sol\":4311:4323  errorMessage */\n      dup6\n        /* \"@openzeppelin/contracts@v4.9.3/utils/Address.sol\":4272:4293  functionCallWithValue */\n      tag_293\n        /* \"@openzeppelin/contracts@v4.9.3/utils/Address.sol\":4272:4324  functionCallWithValue(target, data, 0, errorMessage) */\n      jump\t// in\n    tag_292:\n        /* \"@openzeppelin/contracts@v4.9.3/utils/Address.sol\":4265:4324  return functionCallWithValue(target, data, 0, errorMessage) */\n      swap1\n      pop\n        /* \"@openzeppelin/contracts@v4.9.3/utils/Address.sol\":4108:4331  function functionCall(... */\n      swap4\n      swap3\n      pop\n      pop\n      pop\n      jump\t// out\n        /* \"@openzeppelin/contracts@v4.9.3/utils/Address.sol\":5165:5611  function functionCallWithValue(... */\n    tag_293:\n        /* \"@openzeppelin/contracts@v4.9.3/utils/Address.sol\":5330:5342  bytes memory */\n      0x60\n        /* \"@openzeppelin/contracts@v4.9.3/utils/Address.sol\":5387:5392  value */\n      dup3\n        /* \"@openzeppelin/contracts@v4.9.3/utils/Address.sol\":5362:5383  address(this).balance */\n      selfbalance\n        /* \"@openzeppelin/contracts@v4.9.3/utils/Address.sol\":5362:5392  address(this).balance >= value */\n      lt\n      iszero\n        /* \"@openzeppelin/contracts@v4.9.3/utils/Address.sol\":5354:5435  require(address(this).balance >= value, \"Address: insufficient balance for call\") */\n      tag_295\n      jumpi\n      mload(0x40)\n      0x08c379a000000000000000000000000000000000000000000000000000000000\n      dup2\n      mstore\n      0x04\n      add\n      tag_296\n      swap1\n      tag_297\n      jump\t// in\n    tag_296:\n      mload(0x40)\n      dup1\n      swap2\n      sub\n      swap1\n      revert\n    tag_295:\n        /* \"@openzeppelin/contracts@v4.9.3/utils/Address.sol\":5446:5458  bool success */\n      0x00\n        /* \"@openzeppelin/contracts@v4.9.3/utils/Address.sol\":5460:5483  bytes memory returndata */\n      dup1\n        /* \"@openzeppelin/contracts@v4.9.3/utils/Address.sol\":5487:5493  target */\n      dup7\n        /* \"@openzeppelin/contracts@v4.9.3/utils/Address.sol\":5487:5498  target.call */\n      0xffffffffffffffffffffffffffffffffffffffff\n      and\n        /* \"@openzeppelin/contracts@v4.9.3/utils/Address.sol\":5506:5511  value */\n      dup6\n        /* \"@openzeppelin/contracts@v4.9.3/utils/Address.sol\":5513:5517  data */\n      dup8\n        /* \"@openzeppelin/contracts@v4.9.3/utils/Address.sol\":5487:5518  target.call{value: value}(data) */\n      mload(0x40)\n      tag_298\n      swap2\n      swap1\n      tag_299\n      jump\t// in\n    tag_298:\n      0x00\n      mload(0x40)\n      dup1\n      dup4\n      sub\n      dup2\n      dup6\n      dup8\n      gas\n      call\n      swap3\n      pop\n      pop\n      pop\n      returndatasize\n      dup1\n      0x00\n      dup2\n      eq\n      tag_302\n      jumpi\n      mload(0x40)\n      swap2\n      pop\n      and(add(returndatasize, 0x3f), not(0x1f))\n      dup3\n      add\n      0x40\n      mstore\n      returndatasize\n      dup3\n      mstore\n      returndatasize\n      0x00\n      0x20\n      dup5\n      add\n      returndatacopy\n      jump(tag_301)\n    tag_302:\n      0x60\n      swap2\n      pop\n    tag_301:\n      pop\n        /* \"@openzeppelin/contracts@v4.9.3/utils/Address.sol\":5445:5518  (bool success, bytes memory returndata) = target.call{value: value}(data) */\n      swap2\n      pop\n      swap2\n      pop\n        /* \"@openzeppelin/contracts@v4.9.3/utils/Address.sol\":5535:5604  verifyCallResultFromTarget(target, success, returndata, errorMessage) */\n      tag_303\n        /* \"@openzeppelin/contracts@v4.9.3/utils/Address.sol\":5562:5568  target */\n      dup8\n        /* \"@openzeppelin/contracts@v4.9.3/utils/Address.sol\":5570:5577  success */\n      dup4\n        /* \"@openzeppelin/contracts@v4.9.3/utils/Address.sol\":5579:5589  returndata */\n      dup4\n        /* \"@openzeppelin/contracts@v4.9.3/utils/Address.sol\":5591:5603  errorMessage */\n      dup8\n        /* \"@openzeppelin/contracts@v4.9.3/utils/Address.sol\":5535:5561  verifyCallResultFromTarget */\n      tag_304\n        /* \"@openzeppelin/contracts@v4.9.3/utils/Address.sol\":5535:5604  verifyCallResultFromTarget(target, success, returndata, errorMessage) */\n      jump\t// in\n    tag_303:\n        /* \"@openzeppelin/contracts@v4.9.3/utils/Address.sol\":5528:5604  return verifyCallResultFromTarget(target, success, returndata, errorMessage) */\n      swap3\n      pop\n      pop\n      pop\n        /* \"@openzeppelin/contracts@v4.9.3/utils/Address.sol\":5165:5611  function functionCallWithValue(... */\n      swap5\n      swap4\n      pop\n      pop\n      pop\n      pop\n      jump\t// out\n        /* \"@openzeppelin/contracts@v4.9.3/utils/Address.sol\":7671:8299  function verifyCallResultFromTarget(... */\n    tag_304:\n        /* \"@openzeppelin/contracts@v4.9.3/utils/Address.sol\":7851:7863  bytes memory */\n      0x60\n        /* \"@openzeppelin/contracts@v4.9.3/utils/Address.sol\":7879:7886  success */\n      dup4\n        /* \"@openzeppelin/contracts@v4.9.3/utils/Address.sol\":7875:8293  if (success) {... */\n      iszero\n      tag_306\n      jumpi\n        /* \"@openzeppelin/contracts@v4.9.3/utils/Address.sol\":7927:7928  0 */\n      0x00\n        /* \"@openzeppelin/contracts@v4.9.3/utils/Address.sol\":7906:7916  returndata */\n      dup4\n        /* \"@openzeppelin/contracts@v4.9.3/utils/Address.sol\":7906:7923  returndata.length */\n      mload\n        /* \"@openzeppelin/contracts@v4.9.3/utils/Address.sol\":7906:7928  returndata.length == 0 */\n      sub\n        /* \"@openzeppelin/contracts@v4.9.3/utils/Address.sol\":7902:8188  if (returndata.length == 0) {... */\n      tag_307\n      jumpi\n        /* \"@openzeppelin/contracts@v4.9.3/utils/Address.sol\":8121:8139  isContract(target) */\n      tag_308\n        /* \"@openzeppelin/contracts@v4.9.3/utils/Address.sol\":8132:8138  target */\n      dup6\n        /* \"@openzeppelin/contracts@v4.9.3/utils/Address.sol\":8121:8131  isContract */\n      tag_309\n        /* \"@openzeppelin/contracts@v4.9.3/utils/Address.sol\":8121:8139  isContract(target) */\n      jump\t// in\n    tag_308:\n        /* \"@openzeppelin/contracts@v4.9.3/utils/Address.sol\":8113:8173  require(isContract(target), \"Address: call to non-contract\") */\n      tag_310\n      jumpi\n      mload(0x40)\n      0x08c379a000000000000000000000000000000000000000000000000000000000\n      dup2\n      mstore\n      0x04\n      add\n      tag_311\n      swap1\n      tag_312\n      jump\t// in\n    tag_311:\n      mload(0x40)\n      dup1\n      swap2\n      sub\n      swap1\n      revert\n    tag_310:\n        /* \"@openzeppelin/contracts@v4.9.3/utils/Address.sol\":7902:8188  if (returndata.length == 0) {... */\n    tag_307:\n        /* \"@openzeppelin/contracts@v4.9.3/utils/Address.sol\":8208:8218  returndata */\n      dup3\n        /* \"@openzeppelin/contracts@v4.9.3/utils/Address.sol\":8201:8218  return returndata */\n      swap1\n      pop\n      jump(tag_305)\n        /* \"@openzeppelin/contracts@v4.9.3/utils/Address.sol\":7875:8293  if (success) {... */\n    tag_306:\n        /* \"@openzeppelin/contracts@v4.9.3/utils/Address.sol\":8249:8282  _revert(returndata, errorMessage) */\n      tag_314\n        /* \"@openzeppelin/contracts@v4.9.3/utils/Address.sol\":8257:8267  returndata */\n      dup4\n        /* \"@openzeppelin/contracts@v4.9.3/utils/Address.sol\":8269:8281  errorMessage */\n      dup4\n        /* \"@openzeppelin/contracts@v4.9.3/utils/Address.sol\":8249:8256  _revert */\n      tag_315\n        /* \"@openzeppelin/contracts@v4.9.3/utils/Address.sol\":8249:8282  _revert(returndata, errorMessage) */\n      jump\t// in\n    tag_314:\n        /* \"@openzeppelin/contracts@v4.9.3/utils/Address.sol\":7671:8299  function verifyCallResultFromTarget(... */\n    tag_305:\n      swap5\n      swap4\n      pop\n      pop\n      pop\n      pop\n      jump\t// out\n        /* \"@openzeppelin/contracts@v4.9.3/utils/Address.sol\":1412:1732  function isContract(address account) internal view returns (bool) {... */\n    tag_309:\n        /* \"@openzeppelin/contracts@v4.9.3/utils/Address.sol\":1472:1476  bool */\n      0x00\n        /* \"@openzeppelin/contracts@v4.9.3/utils/Address.sol\":1724:1725  0 */\n      dup1\n        /* \"@openzeppelin/contracts@v4.9.3/utils/Address.sol\":1702:1709  account */\n      dup3\n        /* \"@openzeppelin/contracts@v4.9.3/utils/Address.sol\":1702:1721  account.code.length */\n      0xffffffffffffffffffffffffffffffffffffffff\n      and\n      extcodesize\n        /* \"@openzeppelin/contracts@v4.9.3/utils/Address.sol\":1702:1725  account.code.length > 0 */\n      gt\n        /* \"@openzeppelin/contracts@v4.9.3/utils/Address.sol\":1695:1725  return account.code.length > 0 */\n      swap1\n      pop\n        /* \"@openzeppelin/contracts@v4.9.3/utils/Address.sol\":1412:1732  function isContract(address account) internal view returns (bool) {... */\n      swap2\n      swap1\n      pop\n      jump\t// out\n        /* \"@openzeppelin/contracts@v4.9.3/utils/Address.sol\":8821:9361  function _revert(bytes memory returndata, string memory errorMessage) private pure {... */\n    tag_315:\n        /* \"@openzeppelin/contracts@v4.9.3/utils/Address.sol\":9000:9001  0 */\n      0x00\n        /* \"@openzeppelin/contracts@v4.9.3/utils/Address.sol\":8980:8990  returndata */\n      dup3\n        /* \"@openzeppelin/contracts@v4.9.3/utils/Address.sol\":8980:8997  returndata.length */\n      mload\n        /* \"@openzeppelin/contracts@v4.9.3/utils/Address.sol\":8980:9001  returndata.length > 0 */\n      gt\n        /* \"@openzeppelin/contracts@v4.9.3/utils/Address.sol\":8976:9355  if (returndata.length > 0) {... */\n      iszero\n      tag_318\n      jumpi\n        /* \"@openzeppelin/contracts@v4.9.3/utils/Address.sol\":9208:9218  returndata */\n      dup2\n        /* \"@openzeppelin/contracts@v4.9.3/utils/Address.sol\":9202:9219  mload(returndata) */\n      mload\n        /* \"@openzeppelin/contracts@v4.9.3/utils/Address.sol\":9264:9279  returndata_size */\n      dup1\n        /* \"@openzeppelin/contracts@v4.9.3/utils/Address.sol\":9251:9261  returndata */\n      dup4\n        /* \"@openzeppelin/contracts@v4.9.3/utils/Address.sol\":9247:9249  32 */\n      0x20\n        /* \"@openzeppelin/contracts@v4.9.3/utils/Address.sol\":9243:9262  add(32, returndata) */\n      add\n        /* \"@openzeppelin/contracts@v4.9.3/utils/Address.sol\":9236:9280  revert(add(32, returndata), returndata_size) */\n      revert\n        /* \"@openzeppelin/contracts@v4.9.3/utils/Address.sol\":8976:9355  if (returndata.length > 0) {... */\n    tag_318:\n        /* \"@openzeppelin/contracts@v4.9.3/utils/Address.sol\":9331:9343  errorMessage */\n      dup1\n        /* \"@openzeppelin/contracts@v4.9.3/utils/Address.sol\":9324:9344  revert(errorMessage) */\n      mload(0x40)\n      0x08c379a000000000000000000000000000000000000000000000000000000000\n      dup2\n      mstore\n      0x04\n      add\n      tag_320\n      swap2\n      swap1\n      tag_41\n      jump\t// in\n    tag_320:\n      mload(0x40)\n      dup1\n      swap2\n      sub\n      swap1\n      revert\n        /* \"#utility.yul\":7:133   */\n    tag_321:\n        /* \"#utility.yul\":44:51   */\n      0x00\n        /* \"#utility.yul\":84:126   */\n      0xffffffffffffffffffffffffffffffffffffffff\n        /* \"#utility.yul\":77:82   */\n      dup3\n        /* \"#utility.yul\":73:127   */\n      and\n        /* \"#utility.yul\":62:127   */\n      swap1\n      pop\n        /* \"#utility.yul\":7:133   */\n      swap2\n      swap1\n      pop\n      jump\t// out\n        /* \"#utility.yul\":139:199   */\n    tag_322:\n        /* \"#utility.yul\":167:170   */\n      0x00\n        /* \"#utility.yul\":188:193   */\n      dup2\n        /* \"#utility.yul\":181:193   */\n      swap1\n      pop\n        /* \"#utility.yul\":139:199   */\n      swap2\n      swap1\n      pop\n      jump\t// out\n        /* \"#utility.yul\":205:347   */\n    tag_323:\n        /* \"#utility.yul\":255:264   */\n      0x00\n        /* \"#utility.yul\":288:341   */\n      tag_391\n        /* \"#utility.yul\":306:340   */\n      tag_392\n        /* \"#utility.yul\":315:339   */\n      tag_393\n        /* \"#utility.yul\":333:338   */\n      dup5\n        /* \"#utility.yul\":315:339   */\n      tag_321\n      jump\t// in\n    tag_393:\n        /* \"#utility.yul\":306:340   */\n      tag_322\n      jump\t// in\n    tag_392:\n        /* \"#utility.yul\":288:341   */\n      tag_321\n      jump\t// in\n    tag_391:\n        /* \"#utility.yul\":275:341   */\n      swap1\n      pop\n        /* \"#utility.yul\":205:347   */\n      swap2\n      swap1\n      pop\n      jump\t// out\n        /* \"#utility.yul\":353:479   */\n    tag_324:\n        /* \"#utility.yul\":403:412   */\n      0x00\n        /* \"#utility.yul\":436:473   */\n      tag_395\n        /* \"#utility.yul\":467:472   */\n      dup3\n        /* \"#utility.yul\":436:473   */\n      tag_323\n      jump\t// in\n    tag_395:\n        /* \"#utility.yul\":423:473   */\n      swap1\n      pop\n        /* \"#utility.yul\":353:479   */\n      swap2\n      swap1\n      pop\n      jump\t// out\n        /* \"#utility.yul\":485:625   */\n    tag_325:\n        /* \"#utility.yul\":549:558   */\n      0x00\n        /* \"#utility.yul\":582:619   */\n      tag_397\n        /* \"#utility.yul\":613:618   */\n      dup3\n        /* \"#utility.yul\":582:619   */\n      tag_324\n      jump\t// in\n    tag_397:\n        /* \"#utility.yul\":569:619   */\n      swap1\n      pop\n        /* \"#utility.yul\":485:625   */\n      swap2\n      swap1\n      pop\n      jump\t// out\n        /* \"#utility.yul\":631:790   */\n    tag_326:\n        /* \"#utility.yul\":732:783   */\n      tag_399\n        /* \"#utility.yul\":777:782   */\n      dup2\n        /* \"#utility.yul\":732:783   */\n      tag_325\n      jump\t// in\n    tag_399:\n        /* \"#utility.yul\":727:730   */\n      dup3\n        /* \"#utility.yul\":720:784   */\n      mstore\n        /* \"#utility.yul\":631:790   */\n      pop\n      pop\n      jump\t// out\n        /* \"#utility.yul\":796:1046   */\n    tag_37:\n        /* \"#utility.yul\":903:907   */\n      0x00\n        /* \"#utility.yul\":941:943   */\n      0x20\n        /* \"#utility.yul\":930:939   */\n      dup3\n        /* \"#utility.yul\":926:944   */\n      add\n        /* \"#utility.yul\":918:944   */\n      swap1\n      pop\n        /* \"#utility.yul\":954:1039   */\n      tag_401\n        /* \"#utility.yul\":1036:1037   */\n      0x00\n        /* \"#utility.yul\":1025:1034   */\n      dup4\n        /* \"#utility.yul\":1021:1038   */\n      add\n        /* \"#utility.yul\":1012:1018   */\n      dup5\n        /* \"#utility.yul\":954:1039   */\n      tag_326\n      jump\t// in\n    tag_401:\n        /* \"#utility.yul\":796:1046   */\n      swap3\n      swap2\n      pop\n      pop\n      jump\t// out\n        /* \"#utility.yul\":1052:1151   */\n    tag_327:\n        /* \"#utility.yul\":1104:1110   */\n      0x00\n        /* \"#utility.yul\":1138:1143   */\n      dup2\n        /* \"#utility.yul\":1132:1144   */\n      mload\n        /* \"#utility.yul\":1122:1144   */\n      swap1\n      pop\n        /* \"#utility.yul\":1052:1151   */\n      swap2\n      swap1\n      pop\n      jump\t// out\n        /* \"#utility.yul\":1157:1326   */\n    tag_328:\n        /* \"#utility.yul\":1241:1252   */\n      0x00\n        /* \"#utility.yul\":1275:1281   */\n      dup3\n        /* \"#utility.yul\":1270:1273   */\n      dup3\n        /* \"#utility.yul\":1263:1282   */\n      mstore\n        /* \"#utility.yul\":1315:1319   */\n      0x20\n        /* \"#utility.yul\":1310:1313   */\n      dup3\n        /* \"#utility.yul\":1306:1320   */\n      add\n        /* \"#utility.yul\":1291:1320   */\n      swap1\n      pop\n        /* \"#utility.yul\":1157:1326   */\n      swap3\n      swap2\n      pop\n      pop\n      jump\t// out\n        /* \"#utility.yul\":1332:1578   */\n    tag_329:\n        /* \"#utility.yul\":1413:1414   */\n      0x00\n        /* \"#utility.yul\":1423:1536   */\n    tag_405:\n        /* \"#utility.yul\":1437:1443   */\n      dup4\n        /* \"#utility.yul\":1434:1435   */\n      dup2\n        /* \"#utility.yul\":1431:1444   */\n      lt\n        /* \"#utility.yul\":1423:1536   */\n      iszero\n      tag_407\n      jumpi\n        /* \"#utility.yul\":1522:1523   */\n      dup1\n        /* \"#utility.yul\":1517:1520   */\n      dup3\n        /* \"#utility.yul\":1513:1524   */\n      add\n        /* \"#utility.yul\":1507:1525   */\n      mload\n        /* \"#utility.yul\":1503:1504   */\n      dup2\n        /* \"#utility.yul\":1498:1501   */\n      dup5\n        /* \"#utility.yul\":1494:1505   */\n      add\n        /* \"#utility.yul\":1487:1526   */\n      mstore\n        /* \"#utility.yul\":1459:1461   */\n      0x20\n        /* \"#utility.yul\":1456:1457   */\n      dup2\n        /* \"#utility.yul\":1452:1462   */\n      add\n        /* \"#utility.yul\":1447:1462   */\n      swap1\n      pop\n        /* \"#utility.yul\":1423:1536   */\n      jump(tag_405)\n    tag_407:\n        /* \"#utility.yul\":1570:1571   */\n      0x00\n        /* \"#utility.yul\":1561:1567   */\n      dup5\n        /* \"#utility.yul\":1556:1559   */\n      dup5\n        /* \"#utility.yul\":1552:1568   */\n      add\n        /* \"#utility.yul\":1545:1572   */\n      mstore\n        /* \"#utility.yul\":1394:1578   */\n      pop\n        /* \"#utility.yul\":1332:1578   */\n      pop\n      pop\n      pop\n      jump\t// out\n        /* \"#utility.yul\":1584:1686   */\n    tag_330:\n        /* \"#utility.yul\":1625:1631   */\n      0x00\n        /* \"#utility.yul\":1676:1678   */\n      0x1f\n        /* \"#utility.yul\":1672:1679   */\n      not\n        /* \"#utility.yul\":1667:1669   */\n      0x1f\n        /* \"#utility.yul\":1660:1665   */\n      dup4\n        /* \"#utility.yul\":1656:1670   */\n      add\n        /* \"#utility.yul\":1652:1680   */\n      and\n        /* \"#utility.yul\":1642:1680   */\n      swap1\n      pop\n        /* \"#utility.yul\":1584:1686   */\n      swap2\n      swap1\n      pop\n      jump\t// out\n        /* \"#utility.yul\":1692:2069   */\n    tag_331:\n        /* \"#utility.yul\":1780:1783   */\n      0x00\n        /* \"#utility.yul\":1808:1847   */\n      tag_410\n        /* \"#utility.yul\":1841:1846   */\n      dup3\n        /* \"#utility.yul\":1808:1847   */\n      tag_327\n      jump\t// in\n    tag_410:\n        /* \"#utility.yul\":1863:1934   */\n      tag_411\n        /* \"#utility.yul\":1927:1933   */\n      dup2\n        /* \"#utility.yul\":1922:1925   */\n      dup6\n        /* \"#utility.yul\":1863:1934   */\n      tag_328\n      jump\t// in\n    tag_411:\n        /* \"#utility.yul\":1856:1934   */\n      swap4\n      pop\n        /* \"#utility.yul\":1943:2008   */\n      tag_412\n        /* \"#utility.yul\":2001:2007   */\n      dup2\n        /* \"#utility.yul\":1996:1999   */\n      dup6\n        /* \"#utility.yul\":1989:1993   */\n      0x20\n        /* \"#utility.yul\":1982:1987   */\n      dup7\n        /* \"#utility.yul\":1978:1994   */\n      add\n        /* \"#utility.yul\":1943:2008   */\n      tag_329\n      jump\t// in\n    tag_412:\n        /* \"#utility.yul\":2033:2062   */\n      tag_413\n        /* \"#utility.yul\":2055:2061   */\n      dup2\n        /* \"#utility.yul\":2033:2062   */\n      tag_330\n      jump\t// in\n    tag_413:\n        /* \"#utility.yul\":2028:2031   */\n      dup5\n        /* \"#utility.yul\":2024:2063   */\n      add\n        /* \"#utility.yul\":2017:2063   */\n      swap2\n      pop\n        /* \"#utility.yul\":1784:2069   */\n      pop\n        /* \"#utility.yul\":1692:2069   */\n      swap3\n      swap2\n      pop\n      pop\n      jump\t// out\n        /* \"#utility.yul\":2075:2388   */\n    tag_41:\n        /* \"#utility.yul\":2188:2192   */\n      0x00\n        /* \"#utility.yul\":2226:2228   */\n      0x20\n        /* \"#utility.yul\":2215:2224   */\n      dup3\n        /* \"#utility.yul\":2211:2229   */\n      add\n        /* \"#utility.yul\":2203:2229   */\n      swap1\n      pop\n        /* \"#utility.yul\":2275:2284   */\n      dup2\n        /* \"#utility.yul\":2269:2273   */\n      dup2\n        /* \"#utility.yul\":2265:2285   */\n      sub\n        /* \"#utility.yul\":2261:2262   */\n      0x00\n        /* \"#utility.yul\":2250:2259   */\n      dup4\n        /* \"#utility.yul\":2246:2263   */\n      add\n        /* \"#utility.yul\":2239:2286   */\n      mstore\n        /* \"#utility.yul\":2303:2381   */\n      tag_415\n        /* \"#utility.yul\":2376:2380   */\n      dup2\n        /* \"#utility.yul\":2367:2373   */\n      dup5\n        /* \"#utility.yul\":2303:2381   */\n      tag_331\n      jump\t// in\n    tag_415:\n        /* \"#utility.yul\":2295:2381   */\n      swap1\n      pop\n        /* \"#utility.yul\":2075:2388   */\n      swap3\n      swap2\n      pop\n      pop\n      jump\t// out\n        /* \"#utility.yul\":2475:2592   */\n    tag_333:\n        /* \"#utility.yul\":2584:2585   */\n      0x00\n        /* \"#utility.yul\":2581:2582   */\n      dup1\n        /* \"#utility.yul\":2574:2586   */\n      revert\n        /* \"#utility.yul\":2721:2817   */\n    tag_335:\n        /* \"#utility.yul\":2758:2765   */\n      0x00\n        /* \"#utility.yul\":2787:2811   */\n      tag_420\n        /* \"#utility.yul\":2805:2810   */\n      dup3\n        /* \"#utility.yul\":2787:2811   */\n      tag_321\n      jump\t// in\n    tag_420:\n        /* \"#utility.yul\":2776:2811   */\n      swap1\n      pop\n        /* \"#utility.yul\":2721:2817   */\n      swap2\n      swap1\n      pop\n      jump\t// out\n        /* \"#utility.yul\":2823:2945   */\n    tag_336:\n        /* \"#utility.yul\":2896:2920   */\n      tag_422\n        /* \"#utility.yul\":2914:2919   */\n      dup2\n        /* \"#utility.yul\":2896:2920   */\n      tag_335\n      jump\t// in\n    tag_422:\n        /* \"#utility.yul\":2889:2894   */\n      dup2\n        /* \"#utility.yul\":2886:2921   */\n      eq\n        /* \"#utility.yul\":2876:2939   */\n      tag_423\n      jumpi\n        /* \"#utility.yul\":2935:2936   */\n      0x00\n        /* \"#utility.yul\":2932:2933   */\n      dup1\n        /* \"#utility.yul\":2925:2937   */\n      revert\n        /* \"#utility.yul\":2876:2939   */\n    tag_423:\n        /* \"#utility.yul\":2823:2945   */\n      pop\n      jump\t// out\n        /* \"#utility.yul\":2951:3090   */\n    tag_337:\n        /* \"#utility.yul\":2997:3002   */\n      0x00\n        /* \"#utility.yul\":3035:3041   */\n      dup2\n        /* \"#utility.yul\":3022:3042   */\n      calldataload\n        /* \"#utility.yul\":3013:3042   */\n      swap1\n      pop\n        /* \"#utility.yul\":3051:3084   */\n      tag_425\n        /* \"#utility.yul\":3078:3083   */\n      dup2\n        /* \"#utility.yul\":3051:3084   */\n      tag_336\n      jump\t// in\n    tag_425:\n        /* \"#utility.yul\":2951:3090   */\n      swap3\n      swap2\n      pop\n      pop\n      jump\t// out\n        /* \"#utility.yul\":3096:3173   */\n    tag_338:\n        /* \"#utility.yul\":3133:3140   */\n      0x00\n        /* \"#utility.yul\":3162:3167   */\n      dup2\n        /* \"#utility.yul\":3151:3167   */\n      swap1\n      pop\n        /* \"#utility.yul\":3096:3173   */\n      swap2\n      swap1\n      pop\n      jump\t// out\n        /* \"#utility.yul\":3179:3301   */\n    tag_339:\n        /* \"#utility.yul\":3252:3276   */\n      tag_428\n        /* \"#utility.yul\":3270:3275   */\n      dup2\n        /* \"#utility.yul\":3252:3276   */\n      tag_338\n      jump\t// in\n    tag_428:\n        /* \"#utility.yul\":3245:3250   */\n      dup2\n        /* \"#utility.yul\":3242:3277   */\n      eq\n        /* \"#utility.yul\":3232:3295   */\n      tag_429\n      jumpi\n        /* \"#utility.yul\":3291:3292   */\n      0x00\n        /* \"#utility.yul\":3288:3289   */\n      dup1\n        /* \"#utility.yul\":3281:3293   */\n      revert\n        /* \"#utility.yul\":3232:3295   */\n    tag_429:\n        /* \"#utility.yul\":3179:3301   */\n      pop\n      jump\t// out\n        /* \"#utility.yul\":3307:3446   */\n    tag_340:\n        /* \"#utility.yul\":3353:3358   */\n      0x00\n        /* \"#utility.yul\":3391:3397   */\n      dup2\n        /* \"#utility.yul\":3378:3398   */\n      calldataload\n        /* \"#utility.yul\":3369:3398   */\n      swap1\n      pop\n        /* \"#utility.yul\":3407:3440   */\n      tag_431\n        /* \"#utility.yul\":3434:3439   */\n      dup2\n        /* \"#utility.yul\":3407:3440   */\n      tag_339\n      jump\t// in\n    tag_431:\n        /* \"#utility.yul\":3307:3446   */\n      swap3\n      swap2\n      pop\n      pop\n      jump\t// out\n        /* \"#utility.yul\":3452:3926   */\n    tag_44:\n        /* \"#utility.yul\":3520:3526   */\n      0x00\n        /* \"#utility.yul\":3528:3534   */\n      dup1\n        /* \"#utility.yul\":3577:3579   */\n      0x40\n        /* \"#utility.yul\":3565:3574   */\n      dup4\n        /* \"#utility.yul\":3556:3563   */\n      dup6\n        /* \"#utility.yul\":3552:3575   */\n      sub\n        /* \"#utility.yul\":3548:3580   */\n      slt\n        /* \"#utility.yul\":3545:3664   */\n      iszero\n      tag_433\n      jumpi\n        /* \"#utility.yul\":3583:3662   */\n      tag_434\n      tag_333\n      jump\t// in\n    tag_434:\n        /* \"#utility.yul\":3545:3664   */\n    tag_433:\n        /* \"#utility.yul\":3703:3704   */\n      0x00\n        /* \"#utility.yul\":3728:3781   */\n      tag_435\n        /* \"#utility.yul\":3773:3780   */\n      dup6\n        /* \"#utility.yul\":3764:3770   */\n      dup3\n        /* \"#utility.yul\":3753:3762   */\n      dup7\n        /* \"#utility.yul\":3749:3771   */\n      add\n        /* \"#utility.yul\":3728:3781   */\n      tag_337\n      jump\t// in\n    tag_435:\n        /* \"#utility.yul\":3718:3781   */\n      swap3\n      pop\n        /* \"#utility.yul\":3674:3791   */\n      pop\n        /* \"#utility.yul\":3830:3832   */\n      0x20\n        /* \"#utility.yul\":3856:3909   */\n      tag_436\n        /* \"#utility.yul\":3901:3908   */\n      dup6\n        /* \"#utility.yul\":3892:3898   */\n      dup3\n        /* \"#utility.yul\":3881:3890   */\n      dup7\n        /* \"#utility.yul\":3877:3899   */\n      add\n        /* \"#utility.yul\":3856:3909   */\n      tag_340\n      jump\t// in\n    tag_436:\n        /* \"#utility.yul\":3846:3909   */\n      swap2\n      pop\n        /* \"#utility.yul\":3801:3919   */\n      pop\n        /* \"#utility.yul\":3452:3926   */\n      swap3\n      pop\n      swap3\n      swap1\n      pop\n      jump\t// out\n        /* \"#utility.yul\":3932:4022   */\n    tag_341:\n        /* \"#utility.yul\":3966:3973   */\n      0x00\n        /* \"#utility.yul\":4009:4014   */\n      dup2\n        /* \"#utility.yul\":4002:4015   */\n      iszero\n        /* \"#utility.yul\":3995:4016   */\n      iszero\n        /* \"#utility.yul\":3984:4016   */\n      swap1\n      pop\n        /* \"#utility.yul\":3932:4022   */\n      swap2\n      swap1\n      pop\n      jump\t// out\n        /* \"#utility.yul\":4028:4137   */\n    tag_342:\n        /* \"#utility.yul\":4109:4130   */\n      tag_439\n        /* \"#utility.yul\":4124:4129   */\n      dup2\n        /* \"#utility.yul\":4109:4130   */\n      tag_341\n      jump\t// in\n    tag_439:\n        /* \"#utility.yul\":4104:4107   */\n      dup3\n        /* \"#utility.yul\":4097:4131   */\n      mstore\n        /* \"#utility.yul\":4028:4137   */\n      pop\n      pop\n      jump\t// out\n        /* \"#utility.yul\":4143:4353   */\n    tag_47:\n        /* \"#utility.yul\":4230:4234   */\n      0x00\n        /* \"#utility.yul\":4268:4270   */\n      0x20\n        /* \"#utility.yul\":4257:4266   */\n      dup3\n        /* \"#utility.yul\":4253:4271   */\n      add\n        /* \"#utility.yul\":4245:4271   */\n      swap1\n      pop\n        /* \"#utility.yul\":4281:4346   */\n      tag_441\n        /* \"#utility.yul\":4343:4344   */\n      0x00\n        /* \"#utility.yul\":4332:4341   */\n      dup4\n        /* \"#utility.yul\":4328:4345   */\n      add\n        /* \"#utility.yul\":4319:4325   */\n      dup5\n        /* \"#utility.yul\":4281:4346   */\n      tag_342\n      jump\t// in\n    tag_441:\n        /* \"#utility.yul\":4143:4353   */\n      swap3\n      swap2\n      pop\n      pop\n      jump\t// out\n        /* \"#utility.yul\":4359:4477   */\n    tag_343:\n        /* \"#utility.yul\":4446:4470   */\n      tag_443\n        /* \"#utility.yul\":4464:4469   */\n      dup2\n        /* \"#utility.yul\":4446:4470   */\n      tag_338\n      jump\t// in\n    tag_443:\n        /* \"#utility.yul\":4441:4444   */\n      dup3\n        /* \"#utility.yul\":4434:4471   */\n      mstore\n        /* \"#utility.yul\":4359:4477   */\n      pop\n      pop\n      jump\t// out\n        /* \"#utility.yul\":4483:4705   */\n    tag_51:\n        /* \"#utility.yul\":4576:4580   */\n      0x00\n        /* \"#utility.yul\":4614:4616   */\n      0x20\n        /* \"#utility.yul\":4603:4612   */\n      dup3\n        /* \"#utility.yul\":4599:4617   */\n      add\n        /* \"#utility.yul\":4591:4617   */\n      swap1\n      pop\n        /* \"#utility.yul\":4627:4698   */\n      tag_445\n        /* \"#utility.yul\":4695:4696   */\n      0x00\n        /* \"#utility.yul\":4684:4693   */\n      dup4\n        /* \"#utility.yul\":4680:4697   */\n      add\n        /* \"#utility.yul\":4671:4677   */\n      dup5\n        /* \"#utility.yul\":4627:4698   */\n      tag_343\n      jump\t// in\n    tag_445:\n        /* \"#utility.yul\":4483:4705   */\n      swap3\n      swap2\n      pop\n      pop\n      jump\t// out\n        /* \"#utility.yul\":4711:5330   */\n    tag_54:\n        /* \"#utility.yul\":4788:4794   */\n      0x00\n        /* \"#utility.yul\":4796:4802   */\n      dup1\n        /* \"#utility.yul\":4804:4810   */\n      0x00\n        /* \"#utility.yul\":4853:4855   */\n      0x60\n        /* \"#utility.yul\":4841:4850   */\n      dup5\n        /* \"#utility.yul\":4832:4839   */\n      dup7\n        /* \"#utility.yul\":4828:4851   */\n      sub\n        /* \"#utility.yul\":4824:4856   */\n      slt\n        /* \"#utility.yul\":4821:4940   */\n      iszero\n      tag_447\n      jumpi\n        /* \"#utility.yul\":4859:4938   */\n      tag_448\n      tag_333\n      jump\t// in\n    tag_448:\n        /* \"#utility.yul\":4821:4940   */\n    tag_447:\n        /* \"#utility.yul\":4979:4980   */\n      0x00\n        /* \"#utility.yul\":5004:5057   */\n      tag_449\n        /* \"#utility.yul\":5049:5056   */\n      dup7\n        /* \"#utility.yul\":5040:5046   */\n      dup3\n        /* \"#utility.yul\":5029:5038   */\n      dup8\n        /* \"#utility.yul\":5025:5047   */\n      add\n        /* \"#utility.yul\":5004:5057   */\n      tag_337\n      jump\t// in\n    tag_449:\n        /* \"#utility.yul\":4994:5057   */\n      swap4\n      pop\n        /* \"#utility.yul\":4950:5067   */\n      pop\n        /* \"#utility.yul\":5106:5108   */\n      0x20\n        /* \"#utility.yul\":5132:5185   */\n      tag_450\n        /* \"#utility.yul\":5177:5184   */\n      dup7\n        /* \"#utility.yul\":5168:5174   */\n      dup3\n        /* \"#utility.yul\":5157:5166   */\n      dup8\n        /* \"#utility.yul\":5153:5175   */\n      add\n        /* \"#utility.yul\":5132:5185   */\n      tag_337\n      jump\t// in\n    tag_450:\n        /* \"#utility.yul\":5122:5185   */\n      swap3\n      pop\n        /* \"#utility.yul\":5077:5195   */\n      pop\n        /* \"#utility.yul\":5234:5236   */\n      0x40\n        /* \"#utility.yul\":5260:5313   */\n      tag_451\n        /* \"#utility.yul\":5305:5312   */\n      dup7\n        /* \"#utility.yul\":5296:5302   */\n      dup3\n        /* \"#utility.yul\":5285:5294   */\n      dup8\n        /* \"#utility.yul\":5281:5303   */\n      add\n        /* \"#utility.yul\":5260:5313   */\n      tag_340\n      jump\t// in\n    tag_451:\n        /* \"#utility.yul\":5250:5313   */\n      swap2\n      pop\n        /* \"#utility.yul\":5205:5323   */\n      pop\n        /* \"#utility.yul\":4711:5330   */\n      swap3\n      pop\n      swap3\n      pop\n      swap3\n      jump\t// out\n        /* \"#utility.yul\":5336:5422   */\n    tag_344:\n        /* \"#utility.yul\":5371:5378   */\n      0x00\n        /* \"#utility.yul\":5411:5415   */\n      0xff\n        /* \"#utility.yul\":5404:5409   */\n      dup3\n        /* \"#utility.yul\":5400:5416   */\n      and\n        /* \"#utility.yul\":5389:5416   */\n      swap1\n      pop\n        /* \"#utility.yul\":5336:5422   */\n      swap2\n      swap1\n      pop\n      jump\t// out\n        /* \"#utility.yul\":5428:5540   */\n    tag_345:\n        /* \"#utility.yul\":5511:5533   */\n      tag_454\n        /* \"#utility.yul\":5527:5532   */\n      dup2\n        /* \"#utility.yul\":5511:5533   */\n      tag_344\n      jump\t// in\n    tag_454:\n        /* \"#utility.yul\":5506:5509   */\n      dup3\n        /* \"#utility.yul\":5499:5534   */\n      mstore\n        /* \"#utility.yul\":5428:5540   */\n      pop\n      pop\n      jump\t// out\n        /* \"#utility.yul\":5546:5760   */\n    tag_60:\n        /* \"#utility.yul\":5635:5639   */\n      0x00\n        /* \"#utility.yul\":5673:5675   */\n      0x20\n        /* \"#utility.yul\":5662:5671   */\n      dup3\n        /* \"#utility.yul\":5658:5676   */\n      add\n        /* \"#utility.yul\":5650:5676   */\n      swap1\n      pop\n        /* \"#utility.yul\":5686:5753   */\n      tag_456\n        /* \"#utility.yul\":5750:5751   */\n      0x00\n        /* \"#utility.yul\":5739:5748   */\n      dup4\n        /* \"#utility.yul\":5735:5752   */\n      add\n        /* \"#utility.yul\":5726:5732   */\n      dup5\n        /* \"#utility.yul\":5686:5753   */\n      tag_345\n      jump\t// in\n    tag_456:\n        /* \"#utility.yul\":5546:5760   */\n      swap3\n      swap2\n      pop\n      pop\n      jump\t// out\n        /* \"#utility.yul\":5766:5870   */\n    tag_346:\n        /* \"#utility.yul\":5811:5818   */\n      0x00\n        /* \"#utility.yul\":5840:5864   */\n      tag_458\n        /* \"#utility.yul\":5858:5863   */\n      dup3\n        /* \"#utility.yul\":5840:5864   */\n      tag_321\n      jump\t// in\n    tag_458:\n        /* \"#utility.yul\":5829:5864   */\n      swap1\n      pop\n        /* \"#utility.yul\":5766:5870   */\n      swap2\n      swap1\n      pop\n      jump\t// out\n        /* \"#utility.yul\":5876:6018   */\n    tag_347:\n        /* \"#utility.yul\":5979:6011   */\n      tag_460\n        /* \"#utility.yul\":6005:6010   */\n      dup2\n        /* \"#utility.yul\":5979:6011   */\n      tag_346\n      jump\t// in\n    tag_460:\n        /* \"#utility.yul\":5974:5977   */\n      dup3\n        /* \"#utility.yul\":5967:6012   */\n      mstore\n        /* \"#utility.yul\":5876:6018   */\n      pop\n      pop\n      jump\t// out\n        /* \"#utility.yul\":6024:6278   */\n    tag_70:\n        /* \"#utility.yul\":6133:6137   */\n      0x00\n        /* \"#utility.yul\":6171:6173   */\n      0x20\n        /* \"#utility.yul\":6160:6169   */\n      dup3\n        /* \"#utility.yul\":6156:6174   */\n      add\n        /* \"#utility.yul\":6148:6174   */\n      swap1\n      pop\n        /* \"#utility.yul\":6184:6271   */\n      tag_462\n        /* \"#utility.yul\":6268:6269   */\n      0x00\n        /* \"#utility.yul\":6257:6266   */\n      dup4\n        /* \"#utility.yul\":6253:6270   */\n      add\n        /* \"#utility.yul\":6244:6250   */\n      dup5\n        /* \"#utility.yul\":6184:6271   */\n      tag_347\n      jump\t// in\n    tag_462:\n        /* \"#utility.yul\":6024:6278   */\n      swap3\n      swap2\n      pop\n      pop\n      jump\t// out\n        /* \"#utility.yul\":6284:6613   */\n    tag_73:\n        /* \"#utility.yul\":6343:6349   */\n      0x00\n        /* \"#utility.yul\":6392:6394   */\n      0x20\n        /* \"#utility.yul\":6380:6389   */\n      dup3\n        /* \"#utility.yul\":6371:6378   */\n      dup5\n        /* \"#utility.yul\":6367:6390   */\n      sub\n        /* \"#utility.yul\":6363:6395   */\n      slt\n        /* \"#utility.yul\":6360:6479   */\n      iszero\n      tag_464\n      jumpi\n        /* \"#utility.yul\":6398:6477   */\n      tag_465\n      tag_333\n      jump\t// in\n    tag_465:\n        /* \"#utility.yul\":6360:6479   */\n    tag_464:\n        /* \"#utility.yul\":6518:6519   */\n      0x00\n        /* \"#utility.yul\":6543:6596   */\n      tag_466\n        /* \"#utility.yul\":6588:6595   */\n      dup5\n        /* \"#utility.yul\":6579:6585   */\n      dup3\n        /* \"#utility.yul\":6568:6577   */\n      dup6\n        /* \"#utility.yul\":6564:6586   */\n      add\n        /* \"#utility.yul\":6543:6596   */\n      tag_340\n      jump\t// in\n    tag_466:\n        /* \"#utility.yul\":6533:6596   */\n      swap2\n      pop\n        /* \"#utility.yul\":6489:6606   */\n      pop\n        /* \"#utility.yul\":6284:6613   */\n      swap3\n      swap2\n      pop\n      pop\n      jump\t// out\n        /* \"#utility.yul\":6619:6948   */\n    tag_77:\n        /* \"#utility.yul\":6678:6684   */\n      0x00\n        /* \"#utility.yul\":6727:6729   */\n      0x20\n        /* \"#utility.yul\":6715:6724   */\n      dup3\n        /* \"#utility.yul\":6706:6713   */\n      dup5\n        /* \"#utility.yul\":6702:6725   */\n      sub\n        /* \"#utility.yul\":6698:6730   */\n      slt\n        /* \"#utility.yul\":6695:6814   */\n      iszero\n      tag_468\n      jumpi\n        /* \"#utility.yul\":6733:6812   */\n      tag_469\n      tag_333\n      jump\t// in\n    tag_469:\n        /* \"#utility.yul\":6695:6814   */\n    tag_468:\n        /* \"#utility.yul\":6853:6854   */\n      0x00\n        /* \"#utility.yul\":6878:6931   */\n      tag_470\n        /* \"#utility.yul\":6923:6930   */\n      dup5\n        /* \"#utility.yul\":6914:6920   */\n      dup3\n        /* \"#utility.yul\":6903:6912   */\n      dup6\n        /* \"#utility.yul\":6899:6921   */\n      add\n        /* \"#utility.yul\":6878:6931   */\n      tag_337\n      jump\t// in\n    tag_470:\n        /* \"#utility.yul\":6868:6931   */\n      swap2\n      pop\n        /* \"#utility.yul\":6824:6941   */\n      pop\n        /* \"#utility.yul\":6619:6948   */\n      swap3\n      swap2\n      pop\n      pop\n      jump\t// out\n        /* \"#utility.yul\":6954:7072   */\n    tag_348:\n        /* \"#utility.yul\":7041:7065   */\n      tag_472\n        /* \"#utility.yul\":7059:7064   */\n      dup2\n        /* \"#utility.yul\":7041:7065   */\n      tag_335\n      jump\t// in\n    tag_472:\n        /* \"#utility.yul\":7036:7039   */\n      dup3\n        /* \"#utility.yul\":7029:7066   */\n      mstore\n        /* \"#utility.yul\":6954:7072   */\n      pop\n      pop\n      jump\t// out\n        /* \"#utility.yul\":7078:7300   */\n    tag_93:\n        /* \"#utility.yul\":7171:7175   */\n      0x00\n        /* \"#utility.yul\":7209:7211   */\n      0x20\n        /* \"#utility.yul\":7198:7207   */\n      dup3\n        /* \"#utility.yul\":7194:7212   */\n      add\n        /* \"#utility.yul\":7186:7212   */\n      swap1\n      pop\n        /* \"#utility.yul\":7222:7293   */\n      tag_474\n        /* \"#utility.yul\":7290:7291   */\n      0x00\n        /* \"#utility.yul\":7279:7288   */\n      dup4\n        /* \"#utility.yul\":7275:7292   */\n      add\n        /* \"#utility.yul\":7266:7272   */\n      dup5\n        /* \"#utility.yul\":7222:7293   */\n      tag_348\n      jump\t// in\n    tag_474:\n        /* \"#utility.yul\":7078:7300   */\n      swap3\n      swap2\n      pop\n      pop\n      jump\t// out\n        /* \"#utility.yul\":7306:7780   */\n    tag_116:\n        /* \"#utility.yul\":7374:7380   */\n      0x00\n        /* \"#utility.yul\":7382:7388   */\n      dup1\n        /* \"#utility.yul\":7431:7433   */\n      0x40\n        /* \"#utility.yul\":7419:7428   */\n      dup4\n        /* \"#utility.yul\":7410:7417   */\n      dup6\n        /* \"#utility.yul\":7406:7429   */\n      sub\n        /* \"#utility.yul\":7402:7434   */\n      slt\n        /* \"#utility.yul\":7399:7518   */\n      iszero\n      tag_476\n      jumpi\n        /* \"#utility.yul\":7437:7516   */\n      tag_477\n      tag_333\n      jump\t// in\n    tag_477:\n        /* \"#utility.yul\":7399:7518   */\n    tag_476:\n        /* \"#utility.yul\":7557:7558   */\n      0x00\n        /* \"#utility.yul\":7582:7635   */\n      tag_478\n        /* \"#utility.yul\":7627:7634   */\n      dup6\n        /* \"#utility.yul\":7618:7624   */\n      dup3\n        /* \"#utility.yul\":7607:7616   */\n      dup7\n        /* \"#utility.yul\":7603:7625   */\n      add\n        /* \"#utility.yul\":7582:7635   */\n      tag_337\n      jump\t// in\n    tag_478:\n        /* \"#utility.yul\":7572:7635   */\n      swap3\n      pop\n        /* \"#utility.yul\":7528:7645   */\n      pop\n        /* \"#utility.yul\":7684:7686   */\n      0x20\n        /* \"#utility.yul\":7710:7763   */\n      tag_479\n        /* \"#utility.yul\":7755:7762   */\n      dup6\n        /* \"#utility.yul\":7746:7752   */\n      dup3\n        /* \"#utility.yul\":7735:7744   */\n      dup7\n        /* \"#utility.yul\":7731:7753   */\n      add\n        /* \"#utility.yul\":7710:7763   */\n      tag_337\n      jump\t// in\n    tag_479:\n        /* \"#utility.yul\":7700:7763   */\n      swap2\n      pop\n        /* \"#utility.yul\":7655:7773   */\n      pop\n        /* \"#utility.yul\":7306:7780   */\n      swap3\n      pop\n      swap3\n      swap1\n      pop\n      jump\t// out\n        /* \"#utility.yul\":7786:7966   */\n    tag_349:\n        /* \"#utility.yul\":7834:7911   */\n      0x4e487b7100000000000000000000000000000000000000000000000000000000\n        /* \"#utility.yul\":7831:7832   */\n      0x00\n        /* \"#utility.yul\":7824:7912   */\n      mstore\n        /* \"#utility.yul\":7931:7935   */\n      0x22\n        /* \"#utility.yul\":7928:7929   */\n      0x04\n        /* \"#utility.yul\":7921:7936   */\n      mstore\n        /* \"#utility.yul\":7955:7959   */\n      0x24\n        /* \"#utility.yul\":7952:7953   */\n      0x00\n        /* \"#utility.yul\":7945:7960   */\n      revert\n        /* \"#utility.yul\":7972:8292   */\n    tag_130:\n        /* \"#utility.yul\":8016:8022   */\n      0x00\n        /* \"#utility.yul\":8053:8054   */\n      0x02\n        /* \"#utility.yul\":8047:8051   */\n      dup3\n        /* \"#utility.yul\":8043:8055   */\n      div\n        /* \"#utility.yul\":8033:8055   */\n      swap1\n      pop\n        /* \"#utility.yul\":8100:8101   */\n      0x01\n        /* \"#utility.yul\":8094:8098   */\n      dup3\n        /* \"#utility.yul\":8090:8102   */\n      and\n        /* \"#utility.yul\":8121:8139   */\n      dup1\n        /* \"#utility.yul\":8111:8192   */\n      tag_482\n      jumpi\n        /* \"#utility.yul\":8177:8181   */\n      0x7f\n        /* \"#utility.yul\":8169:8175   */\n      dup3\n        /* \"#utility.yul\":8165:8182   */\n      and\n        /* \"#utility.yul\":8155:8182   */\n      swap2\n      pop\n        /* \"#utility.yul\":8111:8192   */\n    tag_482:\n        /* \"#utility.yul\":8239:8241   */\n      0x20\n        /* \"#utility.yul\":8231:8237   */\n      dup3\n        /* \"#utility.yul\":8228:8242   */\n      lt\n        /* \"#utility.yul\":8208:8226   */\n      dup2\n        /* \"#utility.yul\":8205:8243   */\n      sub\n        /* \"#utility.yul\":8202:8286   */\n      tag_483\n      jumpi\n        /* \"#utility.yul\":8258:8276   */\n      tag_484\n      tag_349\n      jump\t// in\n    tag_484:\n        /* \"#utility.yul\":8202:8286   */\n    tag_483:\n        /* \"#utility.yul\":8023:8292   */\n      pop\n        /* \"#utility.yul\":7972:8292   */\n      swap2\n      swap1\n      pop\n      jump\t// out\n        /* \"#utility.yul\":8298:8478   */\n    tag_350:\n        /* \"#utility.yul\":8346:8423   */\n      0x4e487b7100000000000000000000000000000000000000000000000000000000\n        /* \"#utility.yul\":8343:8344   */\n      0x00\n        /* \"#utility.yul\":8336:8424   */\n      mstore\n        /* \"#utility.yul\":8443:8447   */\n      0x11\n        /* \"#utility.yul\":8440:8441   */\n      0x04\n        /* \"#utility.yul\":8433:8448   */\n      mstore\n        /* \"#utility.yul\":8467:8471   */\n      0x24\n        /* \"#utility.yul\":8464:8465   */\n      0x00\n        /* \"#utility.yul\":8457:8472   */\n      revert\n        /* \"#utility.yul\":8484:8675   */\n    tag_157:\n        /* \"#utility.yul\":8524:8527   */\n      0x00\n        /* \"#utility.yul\":8543:8563   */\n      tag_487\n        /* \"#utility.yul\":8561:8562   */\n      dup3\n        /* \"#utility.yul\":8543:8563   */\n      tag_338\n      jump\t// in\n    tag_487:\n        /* \"#utility.yul\":8538:8563   */\n      swap2\n      pop\n        /* \"#utility.yul\":8577:8597   */\n      tag_488\n        /* \"#utility.yul\":8595:8596   */\n      dup4\n        /* \"#utility.yul\":8577:8597   */\n      tag_338\n      jump\t// in\n    tag_488:\n        /* \"#utility.yul\":8572:8597   */\n      swap3\n      pop\n        /* \"#utility.yul\":8620:8621   */\n      dup3\n        /* \"#utility.yul\":8617:8618   */\n      dup3\n        /* \"#utility.yul\":8613:8622   */\n      add\n        /* \"#utility.yul\":8606:8622   */\n      swap1\n      pop\n        /* \"#utility.yul\":8641:8644   */\n      dup1\n        /* \"#utility.yul\":8638:8639   */\n      dup3\n        /* \"#utility.yul\":8635:8645   */\n      gt\n        /* \"#utility.yul\":8632:8668   */\n      iszero\n      tag_489\n      jumpi\n        /* \"#utility.yul\":8648:8666   */\n      tag_490\n      tag_350\n      jump\t// in\n    tag_490:\n        /* \"#utility.yul\":8632:8668   */\n    tag_489:\n        /* \"#utility.yul\":8484:8675   */\n      swap3\n      swap2\n      pop\n      pop\n      jump\t// out\n        /* \"#utility.yul\":8681:8909   */\n    tag_351:\n        /* \"#utility.yul\":8821:8855   */\n      0x4f776e61626c6532537465703a2063616c6c6572206973206e6f742074686520\n        /* \"#utility.yul\":8817:8818   */\n      0x00\n        /* \"#utility.yul\":8809:8815   */\n      dup3\n        /* \"#utility.yul\":8805:8819   */\n      add\n        /* \"#utility.yul\":8798:8856   */\n      mstore\n        /* \"#utility.yul\":8890:8901   */\n      0x6e6577206f776e65720000000000000000000000000000000000000000000000\n        /* \"#utility.yul\":8885:8887   */\n      0x20\n        /* \"#utility.yul\":8877:8883   */\n      dup3\n        /* \"#utility.yul\":8873:8888   */\n      add\n        /* \"#utility.yul\":8866:8902   */\n      mstore\n        /* \"#utility.yul\":8681:8909   */\n      pop\n      jump\t// out\n        /* \"#utility.yul\":8915:9281   */\n    tag_352:\n        /* \"#utility.yul\":9057:9060   */\n      0x00\n        /* \"#utility.yul\":9078:9145   */\n      tag_493\n        /* \"#utility.yul\":9142:9144   */\n      0x29\n        /* \"#utility.yul\":9137:9140   */\n      dup4\n        /* \"#utility.yul\":9078:9145   */\n      tag_328\n      jump\t// in\n    tag_493:\n        /* \"#utility.yul\":9071:9145   */\n      swap2\n      pop\n        /* \"#utility.yul\":9154:9247   */\n      tag_494\n        /* \"#utility.yul\":9243:9246   */\n      dup3\n        /* \"#utility.yul\":9154:9247   */\n      tag_351\n      jump\t// in\n    tag_494:\n        /* \"#utility.yul\":9272:9274   */\n      0x40\n        /* \"#utility.yul\":9267:9270   */\n      dup3\n        /* \"#utility.yul\":9263:9275   */\n      add\n        /* \"#utility.yul\":9256:9275   */\n      swap1\n      pop\n        /* \"#utility.yul\":8915:9281   */\n      swap2\n      swap1\n      pop\n      jump\t// out\n        /* \"#utility.yul\":9287:9706   */\n    tag_173:\n        /* \"#utility.yul\":9453:9457   */\n      0x00\n        /* \"#utility.yul\":9491:9493   */\n      0x20\n        /* \"#utility.yul\":9480:9489   */\n      dup3\n        /* \"#utility.yul\":9476:9494   */\n      add\n        /* \"#utility.yul\":9468:9494   */\n      swap1\n      pop\n        /* \"#utility.yul\":9540:9549   */\n      dup2\n        /* \"#utility.yul\":9534:9538   */\n      dup2\n        /* \"#utility.yul\":9530:9550   */\n      sub\n        /* \"#utility.yul\":9526:9527   */\n      0x00\n        /* \"#utility.yul\":9515:9524   */\n      dup4\n        /* \"#utility.yul\":9511:9528   */\n      add\n        /* \"#utility.yul\":9504:9551   */\n      mstore\n        /* \"#utility.yul\":9568:9699   */\n      tag_496\n        /* \"#utility.yul\":9694:9698   */\n      dup2\n        /* \"#utility.yul\":9568:9699   */\n      tag_352\n      jump\t// in\n    tag_496:\n        /* \"#utility.yul\":9560:9699   */\n      swap1\n      pop\n        /* \"#utility.yul\":9287:9706   */\n      swap2\n      swap1\n      pop\n      jump\t// out\n        /* \"#utility.yul\":9712:9936   */\n    tag_353:\n        /* \"#utility.yul\":9852:9886   */\n      0x45524332303a2064656372656173656420616c6c6f77616e63652062656c6f77\n        /* \"#utility.yul\":9848:9849   */\n      0x00\n        /* \"#utility.yul\":9840:9846   */\n      dup3\n        /* \"#utility.yul\":9836:9850   */\n      add\n        /* \"#utility.yul\":9829:9887   */\n      mstore\n        /* \"#utility.yul\":9921:9928   */\n      0x207a65726f000000000000000000000000000000000000000000000000000000\n        /* \"#utility.yul\":9916:9918   */\n      0x20\n        /* \"#utility.yul\":9908:9914   */\n      dup3\n        /* \"#utility.yul\":9904:9919   */\n      add\n        /* \"#utility.yul\":9897:9929   */\n      mstore\n        /* \"#utility.yul\":9712:9936   */\n      pop\n      jump\t// out\n        /* \"#utility.yul\":9942:10308   */\n    tag_354:\n        /* \"#utility.yul\":10084:10087   */\n      0x00\n        /* \"#utility.yul\":10105:10172   */\n      tag_499\n        /* \"#utility.yul\":10169:10171   */\n      0x25\n        /* \"#utility.yul\":10164:10167   */\n      dup4\n        /* \"#utility.yul\":10105:10172   */\n      tag_328\n      jump\t// in\n    tag_499:\n        /* \"#utility.yul\":10098:10172   */\n      swap2\n      pop\n        /* \"#utility.yul\":10181:10274   */\n      tag_500\n        /* \"#utility.yul\":10270:10273   */\n      dup3\n        /* \"#utility.yul\":10181:10274   */\n      tag_353\n      jump\t// in\n    tag_500:\n        /* \"#utility.yul\":10299:10301   */\n      0x40\n        /* \"#utility.yul\":10294:10297   */\n      dup3\n        /* \"#utility.yul\":10290:10302   */\n      add\n        /* \"#utility.yul\":10283:10302   */\n      swap1\n      pop\n        /* \"#utility.yul\":9942:10308   */\n      swap2\n      swap1\n      pop\n      jump\t// out\n        /* \"#utility.yul\":10314:10733   */\n    tag_191:\n        /* \"#utility.yul\":10480:10484   */\n      0x00\n        /* \"#utility.yul\":10518:10520   */\n      0x20\n        /* \"#utility.yul\":10507:10516   */\n      dup3\n        /* \"#utility.yul\":10503:10521   */\n      add\n        /* \"#utility.yul\":10495:10521   */\n      swap1\n      pop\n        /* \"#utility.yul\":10567:10576   */\n      dup2\n        /* \"#utility.yul\":10561:10565   */\n      dup2\n        /* \"#utility.yul\":10557:10577   */\n      sub\n        /* \"#utility.yul\":10553:10554   */\n      0x00\n        /* \"#utility.yul\":10542:10551   */\n      dup4\n        /* \"#utility.yul\":10538:10555   */\n      add\n        /* \"#utility.yul\":10531:10578   */\n      mstore\n        /* \"#utility.yul\":10595:10726   */\n      tag_502\n        /* \"#utility.yul\":10721:10725   */\n      dup2\n        /* \"#utility.yul\":10595:10726   */\n      tag_354\n      jump\t// in\n    tag_502:\n        /* \"#utility.yul\":10587:10726   */\n      swap1\n      pop\n        /* \"#utility.yul\":10314:10733   */\n      swap2\n      swap1\n      pop\n      jump\t// out\n        /* \"#utility.yul\":10739:10882   */\n    tag_355:\n        /* \"#utility.yul\":10796:10801   */\n      0x00\n        /* \"#utility.yul\":10827:10833   */\n      dup2\n        /* \"#utility.yul\":10821:10834   */\n      mload\n        /* \"#utility.yul\":10812:10834   */\n      swap1\n      pop\n        /* \"#utility.yul\":10843:10876   */\n      tag_504\n        /* \"#utility.yul\":10870:10875   */\n      dup2\n        /* \"#utility.yul\":10843:10876   */\n      tag_339\n      jump\t// in\n    tag_504:\n        /* \"#utility.yul\":10739:10882   */\n      swap3\n      swap2\n      pop\n      pop\n      jump\t// out\n        /* \"#utility.yul\":10888:11239   */\n    tag_206:\n        /* \"#utility.yul\":10958:10964   */\n      0x00\n        /* \"#utility.yul\":11007:11009   */\n      0x20\n        /* \"#utility.yul\":10995:11004   */\n      dup3\n        /* \"#utility.yul\":10986:10993   */\n      dup5\n        /* \"#utility.yul\":10982:11005   */\n      sub\n        /* \"#utility.yul\":10978:11010   */\n      slt\n        /* \"#utility.yul\":10975:11094   */\n      iszero\n      tag_506\n      jumpi\n        /* \"#utility.yul\":11013:11092   */\n      tag_507\n      tag_333\n      jump\t// in\n    tag_507:\n        /* \"#utility.yul\":10975:11094   */\n    tag_506:\n        /* \"#utility.yul\":11133:11134   */\n      0x00\n        /* \"#utility.yul\":11158:11222   */\n      tag_508\n        /* \"#utility.yul\":11214:11221   */\n      dup5\n        /* \"#utility.yul\":11205:11211   */\n      dup3\n        /* \"#utility.yul\":11194:11203   */\n      dup6\n        /* \"#utility.yul\":11190:11212   */\n      add\n        /* \"#utility.yul\":11158:11222   */\n      tag_355\n      jump\t// in\n    tag_508:\n        /* \"#utility.yul\":11148:11222   */\n      swap2\n      pop\n        /* \"#utility.yul\":11104:11232   */\n      pop\n        /* \"#utility.yul\":10888:11239   */\n      swap3\n      swap2\n      pop\n      pop\n      jump\t// out\n        /* \"#utility.yul\":11245:11468   */\n    tag_356:\n        /* \"#utility.yul\":11385:11419   */\n      0x45524332303a20617070726f76652066726f6d20746865207a65726f20616464\n        /* \"#utility.yul\":11381:11382   */\n      0x00\n        /* \"#utility.yul\":11373:11379   */\n      dup3\n        /* \"#utility.yul\":11369:11383   */\n      add\n        /* \"#utility.yul\":11362:11420   */\n      mstore\n        /* \"#utility.yul\":11454:11460   */\n      0x7265737300000000000000000000000000000000000000000000000000000000\n        /* \"#utility.yul\":11449:11451   */\n      0x20\n        /* \"#utility.yul\":11441:11447   */\n      dup3\n        /* \"#utility.yul\":11437:11452   */\n      add\n        /* \"#utility.yul\":11430:11461   */\n      mstore\n        /* \"#utility.yul\":11245:11468   */\n      pop\n      jump\t// out\n        /* \"#utility.yul\":11474:11840   */\n    tag_357:\n        /* \"#utility.yul\":11616:11619   */\n      0x00\n        /* \"#utility.yul\":11637:11704   */\n      tag_511\n        /* \"#utility.yul\":11701:11703   */\n      0x24\n        /* \"#utility.yul\":11696:11699   */\n      dup4\n        /* \"#utility.yul\":11637:11704   */\n      tag_328\n      jump\t// in\n    tag_511:\n        /* \"#utility.yul\":11630:11704   */\n      swap2\n      pop\n        /* \"#utility.yul\":11713:11806   */\n      tag_512\n        /* \"#utility.yul\":11802:11805   */\n      dup3\n        /* \"#utility.yul\":11713:11806   */\n      tag_356\n      jump\t// in\n    tag_512:\n        /* \"#utility.yul\":11831:11833   */\n      0x40\n        /* \"#utility.yul\":11826:11829   */\n      dup3\n        /* \"#utility.yul\":11822:11834   */\n      add\n        /* \"#utility.yul\":11815:11834   */\n      swap1\n      pop\n        /* \"#utility.yul\":11474:11840   */\n      swap2\n      swap1\n      pop\n      jump\t// out\n        /* \"#utility.yul\":11846:12265   */\n    tag_220:\n        /* \"#utility.yul\":12012:12016   */\n      0x00\n        /* \"#utility.yul\":12050:12052   */\n      0x20\n        /* \"#utility.yul\":12039:12048   */\n      dup3\n        /* \"#utility.yul\":12035:12053   */\n      add\n        /* \"#utility.yul\":12027:12053   */\n      swap1\n      pop\n        /* \"#utility.yul\":12099:12108   */\n      dup2\n        /* \"#utility.yul\":12093:12097   */\n      dup2\n        /* \"#utility.yul\":12089:12109   */\n      sub\n        /* \"#utility.yul\":12085:12086   */\n      0x00\n        /* \"#utility.yul\":12074:12083   */\n      dup4\n        /* \"#utility.yul\":12070:12087   */\n      add\n        /* \"#utility.yul\":12063:12110   */\n      mstore\n        /* \"#utility.yul\":12127:12258   */\n      tag_514\n        /* \"#utility.yul\":12253:12257   */\n      dup2\n        /* \"#utility.yul\":12127:12258   */\n      tag_357\n      jump\t// in\n    tag_514:\n        /* \"#utility.yul\":12119:12258   */\n      swap1\n      pop\n        /* \"#utility.yul\":11846:12265   */\n      swap2\n      swap1\n      pop\n      jump\t// out\n        /* \"#utility.yul\":12271:12492   */\n    tag_358:\n        /* \"#utility.yul\":12411:12445   */\n      0x45524332303a20617070726f766520746f20746865207a65726f206164647265\n        /* \"#utility.yul\":12407:12408   */\n      0x00\n        /* \"#utility.yul\":12399:12405   */\n      dup3\n        /* \"#utility.yul\":12395:12409   */\n      add\n        /* \"#utility.yul\":12388:12446   */\n      mstore\n        /* \"#utility.yul\":12480:12484   */\n      0x7373000000000000000000000000000000000000000000000000000000000000\n        /* \"#utility.yul\":12475:12477   */\n      0x20\n        /* \"#utility.yul\":12467:12473   */\n      dup3\n        /* \"#utility.yul\":12463:12478   */\n      add\n        /* \"#utility.yul\":12456:12485   */\n      mstore\n        /* \"#utility.yul\":12271:12492   */\n      pop\n      jump\t// out\n        /* \"#utility.yul\":12498:12864   */\n    tag_359:\n        /* \"#utility.yul\":12640:12643   */\n      0x00\n        /* \"#utility.yul\":12661:12728   */\n      tag_517\n        /* \"#utility.yul\":12725:12727   */\n      0x22\n        /* \"#utility.yul\":12720:12723   */\n      dup4\n        /* \"#utility.yul\":12661:12728   */\n      tag_328\n      jump\t// in\n    tag_517:\n        /* \"#utility.yul\":12654:12728   */\n      swap2\n      pop\n        /* \"#utility.yul\":12737:12830   */\n      tag_518\n        /* \"#utility.yul\":12826:12829   */\n      dup3\n        /* \"#utility.yul\":12737:12830   */\n      tag_358\n      jump\t// in\n    tag_518:\n        /* \"#utility.yul\":12855:12857   */\n      0x40\n        /* \"#utility.yul\":12850:12853   */\n      dup3\n        /* \"#utility.yul\":12846:12858   */\n      add\n        /* \"#utility.yul\":12839:12858   */\n      swap1\n      pop\n        /* \"#utility.yul\":12498:12864   */\n      swap2\n      swap1\n      pop\n      jump\t// out\n        /* \"#utility.yul\":12870:13289   */\n    tag_223:\n        /* \"#utility.yul\":13036:13040   */\n      0x00\n        /* \"#utility.yul\":13074:13076   */\n      0x20\n        /* \"#utility.yul\":13063:13072   */\n      dup3\n        /* \"#utility.yul\":13059:13077   */\n      add\n        /* \"#utility.yul\":13051:13077   */\n      swap1\n      pop\n        /* \"#utility.yul\":13123:13132   */\n      dup2\n        /* \"#utility.yul\":13117:13121   */\n      dup2\n        /* \"#utility.yul\":13113:13133   */\n      sub\n        /* \"#utility.yul\":13109:13110   */\n      0x00\n        /* \"#utility.yul\":13098:13107   */\n      dup4\n        /* \"#utility.yul\":13094:13111   */\n      add\n        /* \"#utility.yul\":13087:13134   */\n      mstore\n        /* \"#utility.yul\":13151:13282   */\n      tag_520\n        /* \"#utility.yul\":13277:13281   */\n      dup2\n        /* \"#utility.yul\":13151:13282   */\n      tag_359\n      jump\t// in\n    tag_520:\n        /* \"#utility.yul\":13143:13282   */\n      swap1\n      pop\n        /* \"#utility.yul\":12870:13289   */\n      swap2\n      swap1\n      pop\n      jump\t// out\n        /* \"#utility.yul\":13295:13474   */\n    tag_360:\n        /* \"#utility.yul\":13435:13466   */\n      0x45524332303a20696e73756666696369656e7420616c6c6f77616e6365000000\n        /* \"#utility.yul\":13431:13432   */\n      0x00\n        /* \"#utility.yul\":13423:13429   */\n      dup3\n        /* \"#utility.yul\":13419:13433   */\n      add\n        /* \"#utility.yul\":13412:13467   */\n      mstore\n        /* \"#utility.yul\":13295:13474   */\n      pop\n      jump\t// out\n        /* \"#utility.yul\":13480:13846   */\n    tag_361:\n        /* \"#utility.yul\":13622:13625   */\n      0x00\n        /* \"#utility.yul\":13643:13710   */\n      tag_523\n        /* \"#utility.yul\":13707:13709   */\n      0x1d\n        /* \"#utility.yul\":13702:13705   */\n      dup4\n        /* \"#utility.yul\":13643:13710   */\n      tag_328\n      jump\t// in\n    tag_523:\n        /* \"#utility.yul\":13636:13710   */\n      swap2\n      pop\n        /* \"#utility.yul\":13719:13812   */\n      tag_524\n        /* \"#utility.yul\":13808:13811   */\n      dup3\n        /* \"#utility.yul\":13719:13812   */\n      tag_360\n      jump\t// in\n    tag_524:\n        /* \"#utility.yul\":13837:13839   */\n      0x20\n        /* \"#utility.yul\":13832:13835   */\n      dup3\n        /* \"#utility.yul\":13828:13840   */\n      add\n        /* \"#utility.yul\":13821:13840   */\n      swap1\n      pop\n        /* \"#utility.yul\":13480:13846   */\n      swap2\n      swap1\n      pop\n      jump\t// out\n        /* \"#utility.yul\":13852:14271   */\n    tag_230:\n        /* \"#utility.yul\":14018:14022   */\n      0x00\n        /* \"#utility.yul\":14056:14058   */\n      0x20\n        /* \"#utility.yul\":14045:14054   */\n      dup3\n        /* \"#utility.yul\":14041:14059   */\n      add\n        /* \"#utility.yul\":14033:14059   */\n      swap1\n      pop\n        /* \"#utility.yul\":14105:14114   */\n      dup2\n        /* \"#utility.yul\":14099:14103   */\n      dup2\n        /* \"#utility.yul\":14095:14115   */\n      sub\n        /* \"#utility.yul\":14091:14092   */\n      0x00\n        /* \"#utility.yul\":14080:14089   */\n      dup4\n        /* \"#utility.yul\":14076:14093   */\n      add\n        /* \"#utility.yul\":14069:14116   */\n      mstore\n        /* \"#utility.yul\":14133:14264   */\n      tag_526\n        /* \"#utility.yul\":14259:14263   */\n      dup2\n        /* \"#utility.yul\":14133:14264   */\n      tag_361\n      jump\t// in\n    tag_526:\n        /* \"#utility.yul\":14125:14264   */\n      swap1\n      pop\n        /* \"#utility.yul\":13852:14271   */\n      swap2\n      swap1\n      pop\n      jump\t// out\n        /* \"#utility.yul\":14277:14501   */\n    tag_362:\n        /* \"#utility.yul\":14417:14451   */\n      0x45524332303a207472616e736665722066726f6d20746865207a65726f206164\n        /* \"#utility.yul\":14413:14414   */\n      0x00\n        /* \"#utility.yul\":14405:14411   */\n      dup3\n        /* \"#utility.yul\":14401:14415   */\n      add\n        /* \"#utility.yul\":14394:14452   */\n      mstore\n        /* \"#utility.yul\":14486:14493   */\n      0x6472657373000000000000000000000000000000000000000000000000000000\n        /* \"#utility.yul\":14481:14483   */\n      0x20\n        /* \"#utility.yul\":14473:14479   */\n      dup3\n        /* \"#utility.yul\":14469:14484   */\n      add\n        /* \"#utility.yul\":14462:14494   */\n      mstore\n        /* \"#utility.yul\":14277:14501   */\n      pop\n      jump\t// out\n        /* \"#utility.yul\":14507:14873   */\n    tag_363:\n        /* \"#utility.yul\":14649:14652   */\n      0x00\n        /* \"#utility.yul\":14670:14737   */\n      tag_529\n        /* \"#utility.yul\":14734:14736   */\n      0x25\n        /* \"#utility.yul\":14729:14732   */\n      dup4\n        /* \"#utility.yul\":14670:14737   */\n      tag_328\n      jump\t// in\n    tag_529:\n        /* \"#utility.yul\":14663:14737   */\n      swap2\n      pop\n        /* \"#utility.yul\":14746:14839   */\n      tag_530\n        /* \"#utility.yul\":14835:14838   */\n      dup3\n        /* \"#utility.yul\":14746:14839   */\n      tag_362\n      jump\t// in\n    tag_530:\n        /* \"#utility.yul\":14864:14866   */\n      0x40\n        /* \"#utility.yul\":14859:14862   */\n      dup3\n        /* \"#utility.yul\":14855:14867   */\n      add\n        /* \"#utility.yul\":14848:14867   */\n      swap1\n      pop\n        /* \"#utility.yul\":14507:14873   */\n      swap2\n      swap1\n      pop\n      jump\t// out\n        /* \"#utility.yul\":14879:15298   */\n    tag_235:\n        /* \"#utility.yul\":15045:15049   */\n      0x00\n        /* \"#utility.yul\":15083:15085   */\n      0x20\n        /* \"#utility.yul\":15072:15081   */\n      dup3\n        /* \"#utility.yul\":15068:15086   */\n      add\n        /* \"#utility.yul\":15060:15086   */\n      swap1\n      pop\n        /* \"#utility.yul\":15132:15141   */\n      dup2\n        /* \"#utility.yul\":15126:15130   */\n      dup2\n        /* \"#utility.yul\":15122:15142   */\n      sub\n        /* \"#utility.yul\":15118:15119   */\n      0x00\n        /* \"#utility.yul\":15107:15116   */\n      dup4\n        /* \"#utility.yul\":15103:15120   */\n      add\n        /* \"#utility.yul\":15096:15143   */\n      mstore\n        /* \"#utility.yul\":15160:15291   */\n      tag_532\n        /* \"#utility.yul\":15286:15290   */\n      dup2\n        /* \"#utility.yul\":15160:15291   */\n      tag_363\n      jump\t// in\n    tag_532:\n        /* \"#utility.yul\":15152:15291   */\n      swap1\n      pop\n        /* \"#utility.yul\":14879:15298   */\n      swap2\n      swap1\n      pop\n      jump\t// out\n        /* \"#utility.yul\":15304:15526   */\n    tag_364:\n        /* \"#utility.yul\":15444:15478   */\n      0x45524332303a207472616e7366657220746f20746865207a65726f2061646472\n        /* \"#utility.yul\":15440:15441   */\n      0x00\n        /* \"#utility.yul\":15432:15438   */\n      dup3\n        /* \"#utility.yul\":15428:15442   */\n      add\n        /* \"#utility.yul\":15421:15479   */\n      mstore\n        /* \"#utility.yul\":15513:15518   */\n      0x6573730000000000000000000000000000000000000000000000000000000000\n        /* \"#utility.yul\":15508:15510   */\n      0x20\n        /* \"#utility.yul\":15500:15506   */\n      dup3\n        /* \"#utility.yul\":15496:15511   */\n      add\n        /* \"#utility.yul\":15489:15519   */\n      mstore\n        /* \"#utility.yul\":15304:15526   */\n      pop\n      jump\t// out\n        /* \"#utility.yul\":15532:15898   */\n    tag_365:\n        /* \"#utility.yul\":15674:15677   */\n      0x00\n        /* \"#utility.yul\":15695:15762   */\n      tag_535\n        /* \"#utility.yul\":15759:15761   */\n      0x23\n        /* \"#utility.yul\":15754:15757   */\n      dup4\n        /* \"#utility.yul\":15695:15762   */\n      tag_328\n      jump\t// in\n    tag_535:\n        /* \"#utility.yul\":15688:15762   */\n      swap2\n      pop\n        /* \"#utility.yul\":15771:15864   */\n      tag_536\n        /* \"#utility.yul\":15860:15863   */\n      dup3\n        /* \"#utility.yul\":15771:15864   */\n      tag_364\n      jump\t// in\n    tag_536:\n        /* \"#utility.yul\":15889:15891   */\n      0x40\n        /* \"#utility.yul\":15884:15887   */\n      dup3\n        /* \"#utility.yul\":15880:15892   */\n      add\n        /* \"#utility.yul\":15873:15892   */\n      swap1\n      pop\n        /* \"#utility.yul\":15532:15898   */\n      swap2\n      swap1\n      pop\n      jump\t// out\n        /* \"#utility.yul\":15904:16323   */\n    tag_238:\n        /* \"#utility.yul\":16070:16074   */\n      0x00\n        /* \"#utility.yul\":16108:16110   */\n      0x20\n        /* \"#utility.yul\":16097:16106   */\n      dup3\n        /* \"#utility.yul\":16093:16111   */\n      add\n        /* \"#utility.yul\":16085:16111   */\n      swap1\n      pop\n        /* \"#utility.yul\":16157:16166   */\n      dup2\n        /* \"#utility.yul\":16151:16155   */\n      dup2\n        /* \"#utility.yul\":16147:16167   */\n      sub\n        /* \"#utility.yul\":16143:16144   */\n      0x00\n        /* \"#utility.yul\":16132:16141   */\n      dup4\n        /* \"#utility.yul\":16128:16145   */\n      add\n        /* \"#utility.yul\":16121:16168   */\n      mstore\n        /* \"#utility.yul\":16185:16316   */\n      tag_538\n        /* \"#utility.yul\":16311:16315   */\n      dup2\n        /* \"#utility.yul\":16185:16316   */\n      tag_365\n      jump\t// in\n    tag_538:\n        /* \"#utility.yul\":16177:16316   */\n      swap1\n      pop\n        /* \"#utility.yul\":15904:16323   */\n      swap2\n      swap1\n      pop\n      jump\t// out\n        /* \"#utility.yul\":16329:16554   */\n    tag_366:\n        /* \"#utility.yul\":16469:16503   */\n      0x45524332303a207472616e7366657220616d6f756e7420657863656564732062\n        /* \"#utility.yul\":16465:16466   */\n      0x00\n        /* \"#utility.yul\":16457:16463   */\n      dup3\n        /* \"#utility.yul\":16453:16467   */\n      add\n        /* \"#utility.yul\":16446:16504   */\n      mstore\n        /* \"#utility.yul\":16538:16546   */\n      0x616c616e63650000000000000000000000000000000000000000000000000000\n        /* \"#utility.yul\":16533:16535   */\n      0x20\n        /* \"#utility.yul\":16525:16531   */\n      dup3\n        /* \"#utility.yul\":16521:16536   */\n      add\n        /* \"#utility.yul\":16514:16547   */\n      mstore\n        /* \"#utility.yul\":16329:16554   */\n      pop\n      jump\t// out\n        /* \"#utility.yul\":16560:16926   */\n    tag_367:\n        /* \"#utility.yul\":16702:16705   */\n      0x00\n        /* \"#utility.yul\":16723:16790   */\n      tag_541\n        /* \"#utility.yul\":16787:16789   */\n      0x26\n        /* \"#utility.yul\":16782:16785   */\n      dup4\n        /* \"#utility.yul\":16723:16790   */\n      tag_328\n      jump\t// in\n    tag_541:\n        /* \"#utility.yul\":16716:16790   */\n      swap2\n      pop\n        /* \"#utility.yul\":16799:16892   */\n      tag_542\n        /* \"#utility.yul\":16888:16891   */\n      dup3\n        /* \"#utility.yul\":16799:16892   */\n      tag_366\n      jump\t// in\n    tag_542:\n        /* \"#utility.yul\":16917:16919   */\n      0x40\n        /* \"#utility.yul\":16912:16915   */\n      dup3\n        /* \"#utility.yul\":16908:16920   */\n      add\n        /* \"#utility.yul\":16901:16920   */\n      swap1\n      pop\n        /* \"#utility.yul\":16560:16926   */\n      swap2\n      swap1\n      pop\n      jump\t// out\n        /* \"#utility.yul\":16932:17351   */\n    tag_243:\n        /* \"#utility.yul\":17098:17102   */\n      0x00\n        /* \"#utility.yul\":17136:17138   */\n      0x20\n        /* \"#utility.yul\":17125:17134   */\n      dup3\n        /* \"#utility.yul\":17121:17139   */\n      add\n        /* \"#utility.yul\":17113:17139   */\n      swap1\n      pop\n        /* \"#utility.yul\":17185:17194   */\n      dup2\n        /* \"#utility.yul\":17179:17183   */\n      dup2\n        /* \"#utility.yul\":17175:17195   */\n      sub\n        /* \"#utility.yul\":17171:17172   */\n      0x00\n        /* \"#utility.yul\":17160:17169   */\n      dup4\n        /* \"#utility.yul\":17156:17173   */\n      add\n        /* \"#utility.yul\":17149:17196   */\n      mstore\n        /* \"#utility.yul\":17213:17344   */\n      tag_544\n        /* \"#utility.yul\":17339:17343   */\n      dup2\n        /* \"#utility.yul\":17213:17344   */\n      tag_367\n      jump\t// in\n    tag_544:\n        /* \"#utility.yul\":17205:17344   */\n      swap1\n      pop\n        /* \"#utility.yul\":16932:17351   */\n      swap2\n      swap1\n      pop\n      jump\t// out\n        /* \"#utility.yul\":17357:17539   */\n    tag_368:\n        /* \"#utility.yul\":17497:17531   */\n      0x4f776e61626c653a2063616c6c6572206973206e6f7420746865206f776e6572\n        /* \"#utility.yul\":17493:17494   */\n      0x00\n        /* \"#utility.yul\":17485:17491   */\n      dup3\n        /* \"#utility.yul\":17481:17495   */\n      add\n        /* \"#utility.yul\":17474:17532   */\n      mstore\n        /* \"#utility.yul\":17357:17539   */\n      pop\n      jump\t// out\n        /* \"#utility.yul\":17545:17911   */\n    tag_369:\n        /* \"#utility.yul\":17687:17690   */\n      0x00\n        /* \"#utility.yul\":17708:17775   */\n      tag_547\n        /* \"#utility.yul\":17772:17774   */\n      0x20\n        /* \"#utility.yul\":17767:17770   */\n      dup4\n        /* \"#utility.yul\":17708:17775   */\n      tag_328\n      jump\t// in\n    tag_547:\n        /* \"#utility.yul\":17701:17775   */\n      swap2\n      pop\n        /* \"#utility.yul\":17784:17877   */\n      tag_548\n        /* \"#utility.yul\":17873:17876   */\n      dup3\n        /* \"#utility.yul\":17784:17877   */\n      tag_368\n      jump\t// in\n    tag_548:\n        /* \"#utility.yul\":17902:17904   */\n      0x20\n        /* \"#utility.yul\":17897:17900   */\n      dup3\n        /* \"#utility.yul\":17893:17905   */\n      add\n        /* \"#utility.yul\":17886:17905   */\n      swap1\n      pop\n        /* \"#utility.yul\":17545:17911   */\n      swap2\n      swap1\n      pop\n      jump\t// out\n        /* \"#utility.yul\":17917:18336   */\n    tag_252:\n        /* \"#utility.yul\":18083:18087   */\n      0x00\n        /* \"#utility.yul\":18121:18123   */\n      0x20\n        /* \"#utility.yul\":18110:18119   */\n      dup3\n        /* \"#utility.yul\":18106:18124   */\n      add\n        /* \"#utility.yul\":18098:18124   */\n      swap1\n      pop\n        /* \"#utility.yul\":18170:18179   */\n      dup2\n        /* \"#utility.yul\":18164:18168   */\n      dup2\n        /* \"#utility.yul\":18160:18180   */\n      sub\n        /* \"#utility.yul\":18156:18157   */\n      0x00\n        /* \"#utility.yul\":18145:18154   */\n      dup4\n        /* \"#utility.yul\":18141:18158   */\n      add\n        /* \"#utility.yul\":18134:18181   */\n      mstore\n        /* \"#utility.yul\":18198:18329   */\n      tag_550\n        /* \"#utility.yul\":18324:18328   */\n      dup2\n        /* \"#utility.yul\":18198:18329   */\n      tag_369\n      jump\t// in\n    tag_550:\n        /* \"#utility.yul\":18190:18329   */\n      swap1\n      pop\n        /* \"#utility.yul\":17917:18336   */\n      swap2\n      swap1\n      pop\n      jump\t// out\n        /* \"#utility.yul\":18342:18562   */\n    tag_370:\n        /* \"#utility.yul\":18482:18516   */\n      0x45524332303a206275726e2066726f6d20746865207a65726f20616464726573\n        /* \"#utility.yul\":18478:18479   */\n      0x00\n        /* \"#utility.yul\":18470:18476   */\n      dup3\n        /* \"#utility.yul\":18466:18480   */\n      add\n        /* \"#utility.yul\":18459:18517   */\n      mstore\n        /* \"#utility.yul\":18551:18554   */\n      0x7300000000000000000000000000000000000000000000000000000000000000\n        /* \"#utility.yul\":18546:18548   */\n      0x20\n        /* \"#utility.yul\":18538:18544   */\n      dup3\n        /* \"#utility.yul\":18534:18549   */\n      add\n        /* \"#utility.yul\":18527:18555   */\n      mstore\n        /* \"#utility.yul\":18342:18562   */\n      pop\n      jump\t// out\n        /* \"#utility.yul\":18568:18934   */\n    tag_371:\n        /* \"#utility.yul\":18710:18713   */\n      0x00\n        /* \"#utility.yul\":18731:18798   */\n      tag_553\n        /* \"#utility.yul\":18795:18797   */\n      0x21\n        /* \"#utility.yul\":18790:18793   */\n      dup4\n        /* \"#utility.yul\":18731:18798   */\n      tag_328\n      jump\t// in\n    tag_553:\n        /* \"#utility.yul\":18724:18798   */\n      swap2\n      pop\n        /* \"#utility.yul\":18807:18900   */\n      tag_554\n        /* \"#utility.yul\":18896:18899   */\n      dup3\n        /* \"#utility.yul\":18807:18900   */\n      tag_370\n      jump\t// in\n    tag_554:\n        /* \"#utility.yul\":18925:18927   */\n      0x40\n        /* \"#utility.yul\":18920:18923   */\n      dup3\n        /* \"#utility.yul\":18916:18928   */\n      add\n        /* \"#utility.yul\":18909:18928   */\n      swap1\n      pop\n        /* \"#utility.yul\":18568:18934   */\n      swap2\n      swap1\n      pop\n      jump\t// out\n        /* \"#utility.yul\":18940:19359   */\n    tag_256:\n        /* \"#utility.yul\":19106:19110   */\n      0x00\n        /* \"#utility.yul\":19144:19146   */\n      0x20\n        /* \"#utility.yul\":19133:19142   */\n      dup3\n        /* \"#utility.yul\":19129:19147   */\n      add\n        /* \"#utility.yul\":19121:19147   */\n      swap1\n      pop\n        /* \"#utility.yul\":19193:19202   */\n      dup2\n        /* \"#utility.yul\":19187:19191   */\n      dup2\n        /* \"#utility.yul\":19183:19203   */\n      sub\n        /* \"#utility.yul\":19179:19180   */\n      0x00\n        /* \"#utility.yul\":19168:19177   */\n      dup4\n        /* \"#utility.yul\":19164:19181   */\n      add\n        /* \"#utility.yul\":19157:19204   */\n      mstore\n        /* \"#utility.yul\":19221:19352   */\n      tag_556\n        /* \"#utility.yul\":19347:19351   */\n      dup2\n        /* \"#utility.yul\":19221:19352   */\n      tag_371\n      jump\t// in\n    tag_556:\n        /* \"#utility.yul\":19213:19352   */\n      swap1\n      pop\n        /* \"#utility.yul\":18940:19359   */\n      swap2\n      swap1\n      pop\n      jump\t// out\n        /* \"#utility.yul\":19365:19586   */\n    tag_372:\n        /* \"#utility.yul\":19505:19539   */\n      0x45524332303a206275726e20616d6f756e7420657863656564732062616c616e\n        /* \"#utility.yul\":19501:19502   */\n      0x00\n        /* \"#utility.yul\":19493:19499   */\n      dup3\n        /* \"#utility.yul\":19489:19503   */\n      add\n        /* \"#utility.yul\":19482:19540   */\n      mstore\n        /* \"#utility.yul\":19574:19578   */\n      0x6365000000000000000000000000000000000000000000000000000000000000\n        /* \"#utility.yul\":19569:19571   */\n      0x20\n        /* \"#utility.yul\":19561:19567   */\n      dup3\n        /* \"#utility.yul\":19557:19572   */\n      add\n        /* \"#utility.yul\":19550:19579   */\n      mstore\n        /* \"#utility.yul\":19365:19586   */\n      pop\n      jump\t// out\n        /* \"#utility.yul\":19592:19958   */\n    tag_373:\n        /* \"#utility.yul\":19734:19737   */\n      0x00\n        /* \"#utility.yul\":19755:19822   */\n      tag_559\n        /* \"#utility.yul\":19819:19821   */\n      0x22\n        /* \"#utility.yul\":19814:19817   */\n      dup4\n        /* \"#utility.yul\":19755:19822   */\n      tag_328\n      jump\t// in\n    tag_559:\n        /* \"#utility.yul\":19748:19822   */\n      swap2\n      pop\n        /* \"#utility.yul\":19831:19924   */\n      tag_560\n        /* \"#utility.yul\":19920:19923   */\n      dup3\n        /* \"#utility.yul\":19831:19924   */\n      tag_372\n      jump\t// in\n    tag_560:\n        /* \"#utility.yul\":19949:19951   */\n      0x40\n        /* \"#utility.yul\":19944:19947   */\n      dup3\n        /* \"#utility.yul\":19940:19952   */\n      add\n        /* \"#utility.yul\":19933:19952   */\n      swap1\n      pop\n        /* \"#utility.yul\":19592:19958   */\n      swap2\n      swap1\n      pop\n      jump\t// out\n        /* \"#utility.yul\":19964:20383   */\n    tag_260:\n        /* \"#utility.yul\":20130:20134   */\n      0x00\n        /* \"#utility.yul\":20168:20170   */\n      0x20\n        /* \"#utility.yul\":20157:20166   */\n      dup3\n        /* \"#utility.yul\":20153:20171   */\n      add\n        /* \"#utility.yul\":20145:20171   */\n      swap1\n      pop\n        /* \"#utility.yul\":20217:20226   */\n      dup2\n        /* \"#utility.yul\":20211:20215   */\n      dup2\n        /* \"#utility.yul\":20207:20227   */\n      sub\n        /* \"#utility.yul\":20203:20204   */\n      0x00\n        /* \"#utility.yul\":20192:20201   */\n      dup4\n        /* \"#utility.yul\":20188:20205   */\n      add\n        /* \"#utility.yul\":20181:20228   */\n      mstore\n        /* \"#utility.yul\":20245:20376   */\n      tag_562\n        /* \"#utility.yul\":20371:20375   */\n      dup2\n        /* \"#utility.yul\":20245:20376   */\n      tag_373\n      jump\t// in\n    tag_562:\n        /* \"#utility.yul\":20237:20376   */\n      swap1\n      pop\n        /* \"#utility.yul\":19964:20383   */\n      swap2\n      swap1\n      pop\n      jump\t// out\n        /* \"#utility.yul\":20389:20831   */\n    tag_269:\n        /* \"#utility.yul\":20538:20542   */\n      0x00\n        /* \"#utility.yul\":20576:20578   */\n      0x60\n        /* \"#utility.yul\":20565:20574   */\n      dup3\n        /* \"#utility.yul\":20561:20579   */\n      add\n        /* \"#utility.yul\":20553:20579   */\n      swap1\n      pop\n        /* \"#utility.yul\":20589:20660   */\n      tag_564\n        /* \"#utility.yul\":20657:20658   */\n      0x00\n        /* \"#utility.yul\":20646:20655   */\n      dup4\n        /* \"#utility.yul\":20642:20659   */\n      add\n        /* \"#utility.yul\":20633:20639   */\n      dup7\n        /* \"#utility.yul\":20589:20660   */\n      tag_348\n      jump\t// in\n    tag_564:\n        /* \"#utility.yul\":20670:20742   */\n      tag_565\n        /* \"#utility.yul\":20738:20740   */\n      0x20\n        /* \"#utility.yul\":20727:20736   */\n      dup4\n        /* \"#utility.yul\":20723:20741   */\n      add\n        /* \"#utility.yul\":20714:20720   */\n      dup6\n        /* \"#utility.yul\":20670:20742   */\n      tag_348\n      jump\t// in\n    tag_565:\n        /* \"#utility.yul\":20752:20824   */\n      tag_566\n        /* \"#utility.yul\":20820:20822   */\n      0x40\n        /* \"#utility.yul\":20809:20818   */\n      dup4\n        /* \"#utility.yul\":20805:20823   */\n      add\n        /* \"#utility.yul\":20796:20802   */\n      dup5\n        /* \"#utility.yul\":20752:20824   */\n      tag_343\n      jump\t// in\n    tag_566:\n        /* \"#utility.yul\":20389:20831   */\n      swap5\n      swap4\n      pop\n      pop\n      pop\n      pop\n      jump\t// out\n        /* \"#utility.yul\":20837:21018   */\n    tag_374:\n        /* \"#utility.yul\":20977:21010   */\n      0x45524332303a206d696e7420746f20746865207a65726f206164647265737300\n        /* \"#utility.yul\":20973:20974   */\n      0x00\n        /* \"#utility.yul\":20965:20971   */\n      dup3\n        /* \"#utility.yul\":20961:20975   */\n      add\n        /* \"#utility.yul\":20954:21011   */\n      mstore\n        /* \"#utility.yul\":20837:21018   */\n      pop\n      jump\t// out\n        /* \"#utility.yul\":21024:21390   */\n    tag_375:\n        /* \"#utility.yul\":21166:21169   */\n      0x00\n        /* \"#utility.yul\":21187:21254   */\n      tag_569\n        /* \"#utility.yul\":21251:21253   */\n      0x1f\n        /* \"#utility.yul\":21246:21249   */\n      dup4\n        /* \"#utility.yul\":21187:21254   */\n      tag_328\n      jump\t// in\n    tag_569:\n        /* \"#utility.yul\":21180:21254   */\n      swap2\n      pop\n        /* \"#utility.yul\":21263:21356   */\n      tag_570\n        /* \"#utility.yul\":21352:21355   */\n      dup3\n        /* \"#utility.yul\":21263:21356   */\n      tag_374\n      jump\t// in\n    tag_570:\n        /* \"#utility.yul\":21381:21383   */\n      0x20\n        /* \"#utility.yul\":21376:21379   */\n      dup3\n        /* \"#utility.yul\":21372:21384   */\n      add\n        /* \"#utility.yul\":21365:21384   */\n      swap1\n      pop\n        /* \"#utility.yul\":21024:21390   */\n      swap2\n      swap1\n      pop\n      jump\t// out\n        /* \"#utility.yul\":21396:21815   */\n    tag_274:\n        /* \"#utility.yul\":21562:21566   */\n      0x00\n        /* \"#utility.yul\":21600:21602   */\n      0x20\n        /* \"#utility.yul\":21589:21598   */\n      dup3\n        /* \"#utility.yul\":21585:21603   */\n      add\n        /* \"#utility.yul\":21577:21603   */\n      swap1\n      pop\n        /* \"#utility.yul\":21649:21658   */\n      dup2\n        /* \"#utility.yul\":21643:21647   */\n      dup2\n        /* \"#utility.yul\":21639:21659   */\n      sub\n        /* \"#utility.yul\":21635:21636   */\n      0x00\n        /* \"#utility.yul\":21624:21633   */\n      dup4\n        /* \"#utility.yul\":21620:21637   */\n      add\n        /* \"#utility.yul\":21613:21660   */\n      mstore\n        /* \"#utility.yul\":21677:21808   */\n      tag_572\n        /* \"#utility.yul\":21803:21807   */\n      dup2\n        /* \"#utility.yul\":21677:21808   */\n      tag_375\n      jump\t// in\n    tag_572:\n        /* \"#utility.yul\":21669:21808   */\n      swap1\n      pop\n        /* \"#utility.yul\":21396:21815   */\n      swap2\n      swap1\n      pop\n      jump\t// out\n        /* \"#utility.yul\":21821:21937   */\n    tag_376:\n        /* \"#utility.yul\":21891:21912   */\n      tag_574\n        /* \"#utility.yul\":21906:21911   */\n      dup2\n        /* \"#utility.yul\":21891:21912   */\n      tag_341\n      jump\t// in\n    tag_574:\n        /* \"#utility.yul\":21884:21889   */\n      dup2\n        /* \"#utility.yul\":21881:21913   */\n      eq\n        /* \"#utility.yul\":21871:21931   */\n      tag_575\n      jumpi\n        /* \"#utility.yul\":21927:21928   */\n      0x00\n        /* \"#utility.yul\":21924:21925   */\n      dup1\n        /* \"#utility.yul\":21917:21929   */\n      revert\n        /* \"#utility.yul\":21871:21931   */\n    tag_575:\n        /* \"#utility.yul\":21821:21937   */\n      pop\n      jump\t// out\n        /* \"#utility.yul\":21943:22080   */\n    tag_377:\n        /* \"#utility.yul\":21997:22002   */\n      0x00\n        /* \"#utility.yul\":22028:22034   */\n      dup2\n        /* \"#utility.yul\":22022:22035   */\n      mload\n        /* \"#utility.yul\":22013:22035   */\n      swap1\n      pop\n        /* \"#utility.yul\":22044:22074   */\n      tag_577\n        /* \"#utility.yul\":22068:22073   */\n      dup2\n        /* \"#utility.yul\":22044:22074   */\n      tag_376\n      jump\t// in\n    tag_577:\n        /* \"#utility.yul\":21943:22080   */\n      swap3\n      swap2\n      pop\n      pop\n      jump\t// out\n        /* \"#utility.yul\":22086:22431   */\n    tag_287:\n        /* \"#utility.yul\":22153:22159   */\n      0x00\n        /* \"#utility.yul\":22202:22204   */\n      0x20\n        /* \"#utility.yul\":22190:22199   */\n      dup3\n        /* \"#utility.yul\":22181:22188   */\n      dup5\n        /* \"#utility.yul\":22177:22200   */\n      sub\n        /* \"#utility.yul\":22173:22205   */\n      slt\n        /* \"#utility.yul\":22170:22289   */\n      iszero\n      tag_579\n      jumpi\n        /* \"#utility.yul\":22208:22287   */\n      tag_580\n      tag_333\n      jump\t// in\n    tag_580:\n        /* \"#utility.yul\":22170:22289   */\n    tag_579:\n        /* \"#utility.yul\":22328:22329   */\n      0x00\n        /* \"#utility.yul\":22353:22414   */\n      tag_581\n        /* \"#utility.yul\":22406:22413   */\n      dup5\n        /* \"#utility.yul\":22397:22403   */\n      dup3\n        /* \"#utility.yul\":22386:22395   */\n      dup6\n        /* \"#utility.yul\":22382:22404   */\n      add\n        /* \"#utility.yul\":22353:22414   */\n      tag_377\n      jump\t// in\n    tag_581:\n        /* \"#utility.yul\":22343:22414   */\n      swap2\n      pop\n        /* \"#utility.yul\":22299:22424   */\n      pop\n        /* \"#utility.yul\":22086:22431   */\n      swap3\n      swap2\n      pop\n      pop\n      jump\t// out\n        /* \"#utility.yul\":22437:22666   */\n    tag_378:\n        /* \"#utility.yul\":22577:22611   */\n      0x5361666545524332303a204552433230206f7065726174696f6e20646964206e\n        /* \"#utility.yul\":22573:22574   */\n      0x00\n        /* \"#utility.yul\":22565:22571   */\n      dup3\n        /* \"#utility.yul\":22561:22575   */\n      add\n        /* \"#utility.yul\":22554:22612   */\n      mstore\n        /* \"#utility.yul\":22646:22658   */\n      0x6f74207375636365656400000000000000000000000000000000000000000000\n        /* \"#utility.yul\":22641:22643   */\n      0x20\n        /* \"#utility.yul\":22633:22639   */\n      dup3\n        /* \"#utility.yul\":22629:22644   */\n      add\n        /* \"#utility.yul\":22622:22659   */\n      mstore\n        /* \"#utility.yul\":22437:22666   */\n      pop\n      jump\t// out\n        /* \"#utility.yul\":22672:23038   */\n    tag_379:\n        /* \"#utility.yul\":22814:22817   */\n      0x00\n        /* \"#utility.yul\":22835:22902   */\n      tag_584\n        /* \"#utility.yul\":22899:22901   */\n      0x2a\n        /* \"#utility.yul\":22894:22897   */\n      dup4\n        /* \"#utility.yul\":22835:22902   */\n      tag_328\n      jump\t// in\n    tag_584:\n        /* \"#utility.yul\":22828:22902   */\n      swap2\n      pop\n        /* \"#utility.yul\":22911:23004   */\n      tag_585\n        /* \"#utility.yul\":23000:23003   */\n      dup3\n        /* \"#utility.yul\":22911:23004   */\n      tag_378\n      jump\t// in\n    tag_585:\n        /* \"#utility.yul\":23029:23031   */\n      0x40\n        /* \"#utility.yul\":23024:23027   */\n      dup3\n        /* \"#utility.yul\":23020:23032   */\n      add\n        /* \"#utility.yul\":23013:23032   */\n      swap1\n      pop\n        /* \"#utility.yul\":22672:23038   */\n      swap2\n      swap1\n      pop\n      jump\t// out\n        /* \"#utility.yul\":23044:23463   */\n    tag_290:\n        /* \"#utility.yul\":23210:23214   */\n      0x00\n        /* \"#utility.yul\":23248:23250   */\n      0x20\n        /* \"#utility.yul\":23237:23246   */\n      dup3\n        /* \"#utility.yul\":23233:23251   */\n      add\n        /* \"#utility.yul\":23225:23251   */\n      swap1\n      pop\n        /* \"#utility.yul\":23297:23306   */\n      dup2\n        /* \"#utility.yul\":23291:23295   */\n      dup2\n        /* \"#utility.yul\":23287:23307   */\n      sub\n        /* \"#utility.yul\":23283:23284   */\n      0x00\n        /* \"#utility.yul\":23272:23281   */\n      dup4\n        /* \"#utility.yul\":23268:23285   */\n      add\n        /* \"#utility.yul\":23261:23308   */\n      mstore\n        /* \"#utility.yul\":23325:23456   */\n      tag_587\n        /* \"#utility.yul\":23451:23455   */\n      dup2\n        /* \"#utility.yul\":23325:23456   */\n      tag_379\n      jump\t// in\n    tag_587:\n        /* \"#utility.yul\":23317:23456   */\n      swap1\n      pop\n        /* \"#utility.yul\":23044:23463   */\n      swap2\n      swap1\n      pop\n      jump\t// out\n        /* \"#utility.yul\":23469:23694   */\n    tag_380:\n        /* \"#utility.yul\":23609:23643   */\n      0x416464726573733a20696e73756666696369656e742062616c616e636520666f\n        /* \"#utility.yul\":23605:23606   */\n      0x00\n        /* \"#utility.yul\":23597:23603   */\n      dup3\n        /* \"#utility.yul\":23593:23607   */\n      add\n        /* \"#utility.yul\":23586:23644   */\n      mstore\n        /* \"#utility.yul\":23678:23686   */\n      0x722063616c6c0000000000000000000000000000000000000000000000000000\n        /* \"#utility.yul\":23673:23675   */\n      0x20\n        /* \"#utility.yul\":23665:23671   */\n      dup3\n        /* \"#utility.yul\":23661:23676   */\n      add\n        /* \"#utility.yul\":23654:23687   */\n      mstore\n        /* \"#utility.yul\":23469:23694   */\n      pop\n      jump\t// out\n        /* \"#utility.yul\":23700:24066   */\n    tag_381:\n        /* \"#utility.yul\":23842:23845   */\n      0x00\n        /* \"#utility.yul\":23863:23930   */\n      tag_590\n        /* \"#utility.yul\":23927:23929   */\n      0x26\n        /* \"#utility.yul\":23922:23925   */\n      dup4\n        /* \"#utility.yul\":23863:23930   */\n      tag_328\n      jump\t// in\n    tag_590:\n        /* \"#utility.yul\":23856:23930   */\n      swap2\n      pop\n        /* \"#utility.yul\":23939:24032   */\n      tag_591\n        /* \"#utility.yul\":24028:24031   */\n      dup3\n        /* \"#utility.yul\":23939:24032   */\n      tag_380\n      jump\t// in\n    tag_591:\n        /* \"#utility.yul\":24057:24059   */\n      0x40\n        /* \"#utility.yul\":24052:24055   */\n      dup3\n        /* \"#utility.yul\":24048:24060   */\n      add\n        /* \"#utility.yul\":24041:24060   */\n      swap1\n      pop\n        /* \"#utility.yul\":23700:24066   */\n      swap2\n      swap1\n      pop\n      jump\t// out\n        /* \"#utility.yul\":24072:24491   */\n    tag_297:\n        /* \"#utility.yul\":24238:24242   */\n      0x00\n        /* \"#utility.yul\":24276:24278   */\n      0x20\n        /* \"#utility.yul\":24265:24274   */\n      dup3\n        /* \"#utility.yul\":24261:24279   */\n      add\n        /* \"#utility.yul\":24253:24279   */\n      swap1\n      pop\n        /* \"#utility.yul\":24325:24334   */\n      dup2\n        /* \"#utility.yul\":24319:24323   */\n      dup2\n        /* \"#utility.yul\":24315:24335   */\n      sub\n        /* \"#utility.yul\":24311:24312   */\n      0x00\n        /* \"#utility.yul\":24300:24309   */\n      dup4\n        /* \"#utility.yul\":24296:24313   */\n      add\n        /* \"#utility.yul\":24289:24336   */\n      mstore\n        /* \"#utility.yul\":24353:24484   */\n      tag_593\n        /* \"#utility.yul\":24479:24483   */\n      dup2\n        /* \"#utility.yul\":24353:24484   */\n      tag_381\n      jump\t// in\n    tag_593:\n        /* \"#utility.yul\":24345:24484   */\n      swap1\n      pop\n        /* \"#utility.yul\":24072:24491   */\n      swap2\n      swap1\n      pop\n      jump\t// out\n        /* \"#utility.yul\":24497:24595   */\n    tag_382:\n        /* \"#utility.yul\":24548:24554   */\n      0x00\n        /* \"#utility.yul\":24582:24587   */\n      dup2\n        /* \"#utility.yul\":24576:24588   */\n      mload\n        /* \"#utility.yul\":24566:24588   */\n      swap1\n      pop\n        /* \"#utility.yul\":24497:24595   */\n      swap2\n      swap1\n      pop\n      jump\t// out\n        /* \"#utility.yul\":24601:24748   */\n    tag_383:\n        /* \"#utility.yul\":24702:24713   */\n      0x00\n        /* \"#utility.yul\":24739:24742   */\n      dup2\n        /* \"#utility.yul\":24724:24742   */\n      swap1\n      pop\n        /* \"#utility.yul\":24601:24748   */\n      swap3\n      swap2\n      pop\n      pop\n      jump\t// out\n        /* \"#utility.yul\":24754:25140   */\n    tag_384:\n        /* \"#utility.yul\":24858:24861   */\n      0x00\n        /* \"#utility.yul\":24886:24924   */\n      tag_597\n        /* \"#utility.yul\":24918:24923   */\n      dup3\n        /* \"#utility.yul\":24886:24924   */\n      tag_382\n      jump\t// in\n    tag_597:\n        /* \"#utility.yul\":24940:25028   */\n      tag_598\n        /* \"#utility.yul\":25021:25027   */\n      dup2\n        /* \"#utility.yul\":25016:25019   */\n      dup6\n        /* \"#utility.yul\":24940:25028   */\n      tag_383\n      jump\t// in\n    tag_598:\n        /* \"#utility.yul\":24933:25028   */\n      swap4\n      pop\n        /* \"#utility.yul\":25037:25102   */\n      tag_599\n        /* \"#utility.yul\":25095:25101   */\n      dup2\n        /* \"#utility.yul\":25090:25093   */\n      dup6\n        /* \"#utility.yul\":25083:25087   */\n      0x20\n        /* \"#utility.yul\":25076:25081   */\n      dup7\n        /* \"#utility.yul\":25072:25088   */\n      add\n        /* \"#utility.yul\":25037:25102   */\n      tag_329\n      jump\t// in\n    tag_599:\n        /* \"#utility.yul\":25127:25133   */\n      dup1\n        /* \"#utility.yul\":25122:25125   */\n      dup5\n        /* \"#utility.yul\":25118:25134   */\n      add\n        /* \"#utility.yul\":25111:25134   */\n      swap2\n      pop\n        /* \"#utility.yul\":24862:25140   */\n      pop\n        /* \"#utility.yul\":24754:25140   */\n      swap3\n      swap2\n      pop\n      pop\n      jump\t// out\n        /* \"#utility.yul\":25146:25417   */\n    tag_299:\n        /* \"#utility.yul\":25276:25279   */\n      0x00\n        /* \"#utility.yul\":25298:25391   */\n      tag_601\n        /* \"#utility.yul\":25387:25390   */\n      dup3\n        /* \"#utility.yul\":25378:25384   */\n      dup5\n        /* \"#utility.yul\":25298:25391   */\n      tag_384\n      jump\t// in\n    tag_601:\n        /* \"#utility.yul\":25291:25391   */\n      swap2\n      pop\n        /* \"#utility.yul\":25408:25411   */\n      dup2\n        /* \"#utility.yul\":25401:25411   */\n      swap1\n      pop\n        /* \"#utility.yul\":25146:25417   */\n      swap3\n      swap2\n      pop\n      pop\n      jump\t// out\n        /* \"#utility.yul\":25423:25602   */\n    tag_385:\n        /* \"#utility.yul\":25563:25594   */\n      0x416464726573733a2063616c6c20746f206e6f6e2d636f6e7472616374000000\n        /* \"#utility.yul\":25559:25560   */\n      0x00\n        /* \"#utility.yul\":25551:25557   */\n      dup3\n        /* \"#utility.yul\":25547:25561   */\n      add\n        /* \"#utility.yul\":25540:25595   */\n      mstore\n        /* \"#utility.yul\":25423:25602   */\n      pop\n      jump\t// out\n        /* \"#utility.yul\":25608:25974   */\n    tag_386:\n        /* \"#utility.yul\":25750:25753   */\n      0x00\n        /* \"#utility.yul\":25771:25838   */\n      tag_604\n        /* \"#utility.yul\":25835:25837   */\n      0x1d\n        /* \"#utility.yul\":25830:25833   */\n      dup4\n        /* \"#utility.yul\":25771:25838   */\n      tag_328\n      jump\t// in\n    tag_604:\n        /* \"#utility.yul\":25764:25838   */\n      swap2\n      pop\n        /* \"#utility.yul\":25847:25940   */\n      tag_605\n        /* \"#utility.yul\":25936:25939   */\n      dup3\n        /* \"#utility.yul\":25847:25940   */\n      tag_385\n      jump\t// in\n    tag_605:\n        /* \"#utility.yul\":25965:25967   */\n      0x20\n        /* \"#utility.yul\":25960:25963   */\n      dup3\n        /* \"#utility.yul\":25956:25968   */\n      add\n        /* \"#utility.yul\":25949:25968   */\n      swap1\n      pop\n        /* \"#utility.yul\":25608:25974   */\n      swap2\n      swap1\n      pop\n      jump\t// out\n        /* \"#utility.yul\":25980:26399   */\n    tag_312:\n        /* \"#utility.yul\":26146:26150   */\n      0x00\n        /* \"#utility.yul\":26184:26186   */\n      0x20\n        /* \"#utility.yul\":26173:26182   */\n      dup3\n        /* \"#utility.yul\":26169:26187   */\n      add\n        /* \"#utility.yul\":26161:26187   */\n      swap1\n      pop\n        /* \"#utility.yul\":26233:26242   */\n      dup2\n        /* \"#utility.yul\":26227:26231   */\n      dup2\n        /* \"#utility.yul\":26223:26243   */\n      sub\n        /* \"#utility.yul\":26219:26220   */\n      0x00\n        /* \"#utility.yul\":26208:26217   */\n      dup4\n        /* \"#utility.yul\":26204:26221   */\n      add\n        /* \"#utility.yul\":26197:26244   */\n      mstore\n        /* \"#utility.yul\":26261:26392   */\n      tag_607\n        /* \"#utility.yul\":26387:26391   */\n      dup2\n        /* \"#utility.yul\":26261:26392   */\n      tag_386\n      jump\t// in\n    tag_607:\n        /* \"#utility.yul\":26253:26392   */\n      swap1\n      pop\n        /* \"#utility.yul\":25980:26399   */\n      swap2\n      swap1\n      pop\n      jump\t// out\n\n    auxdata: 0xa26469706673582212203d05df6340938460c0c216690aaf2cd864e8d3f37ca79f795f3978757d367a6664736f6c63430008130033\n}\n",
				"bytecode": {
					"linkReferences": {},
					"object": "60a06040526103c760085560236009553480156200001c57600080fd5b5060405162002dd438038062002dd48339818101604052810190620000429190620003b8565b6040518060400160405280600e81526020017f70616e7468656f6e20544f4b454e0000000000000000000000000000000000008152506040518060400160405280600681526020017f70544f4b454e00000000000000000000000000000000000000000000000000008152508160039081620000bf919062000679565b508060049081620000d1919062000679565b505050620000f4620000e86200024760201b60201c565b6200024f60201b60201c565b6001600781905550600073ffffffffffffffffffffffffffffffffffffffff168273ffffffffffffffffffffffffffffffffffffffff160362000163576040517f8579befe00000000000000000000000000000000000000000000000000000000815260040160405180910390fd5b600073ffffffffffffffffffffffffffffffffffffffff168173ffffffffffffffffffffffffffffffffffffffff1603620001ca576040517f8579befe00000000000000000000000000000000000000000000000000000000815260040160405180910390fd5b81600b60006101000a81548173ffffffffffffffffffffffffffffffffffffffff021916908373ffffffffffffffffffffffffffffffffffffffff1602179055508073ffffffffffffffffffffffffffffffffffffffff1660808173ffffffffffffffffffffffffffffffffffffffff1681525050505062000760565b600033905090565b600660006101000a81549073ffffffffffffffffffffffffffffffffffffffff021916905562000285816200028860201b60201c565b50565b6000600560009054906101000a900473ffffffffffffffffffffffffffffffffffffffff16905081600560006101000a81548173ffffffffffffffffffffffffffffffffffffffff021916908373ffffffffffffffffffffffffffffffffffffffff1602179055508173ffffffffffffffffffffffffffffffffffffffff168173ffffffffffffffffffffffffffffffffffffffff167f8be0079c531659141344cd1fd0a4f28419497f9722a3daafe3b4186f6b6457e060405160405180910390a35050565b600080fd5b600073ffffffffffffffffffffffffffffffffffffffff82169050919050565b6000620003808262000353565b9050919050565b620003928162000373565b81146200039e57600080fd5b50565b600081519050620003b28162000387565b92915050565b60008060408385031215620003d257620003d16200034e565b5b6000620003e285828601620003a1565b9250506020620003f585828601620003a1565b9150509250929050565b600081519050919050565b7f4e487b7100000000000000000000000000000000000000000000000000000000600052604160045260246000fd5b7f4e487b7100000000000000000000000000000000000000000000000000000000600052602260045260246000fd5b600060028204905060018216806200048157607f821691505b60208210810362000497576200049662000439565b5b50919050565b60008190508160005260206000209050919050565b60006020601f8301049050919050565b600082821b905092915050565b600060088302620005017fffffffffffffffffffffffffffffffffffffffffffffffffffffffffffffffff82620004c2565b6200050d8683620004c2565b95508019841693508086168417925050509392505050565b6000819050919050565b6000819050919050565b60006200055a620005546200054e8462000525565b6200052f565b62000525565b9050919050565b6000819050919050565b620005768362000539565b6200058e620005858262000561565b848454620004cf565b825550505050565b600090565b620005a562000596565b620005b28184846200056b565b505050565b5b81811015620005da57620005ce6000826200059b565b600181019050620005b8565b5050565b601f8211156200062957620005f3816200049d565b620005fe84620004b2565b810160208510156200060e578190505b620006266200061d85620004b2565b830182620005b7565b50505b505050565b600082821c905092915050565b60006200064e600019846008026200062e565b1980831691505092915050565b60006200066983836200063b565b9150826002028217905092915050565b6200068482620003ff565b67ffffffffffffffff811115620006a0576200069f6200040a565b5b620006ac825462000468565b620006b9828285620005de565b600060209050601f831160018114620006f15760008415620006dc578287015190505b620006e885826200065b565b86555062000758565b601f19841662000701866200049d565b60005b828110156200072b5784890151825560018201915060208501945060208101905062000704565b868310156200074b578489015162000747601f8916826200063b565b8355505b6001600288020188555050505b505050505050565b60805161264a6200078a600039600081816104db0152818161092c015261096e015261264a6000f3fe608060405234801561001057600080fd5b506004361061018e5760003560e01c806379cc6790116100de578063a88df21a11610097578063dd62ed3e11610071578063dd62ed3e14610451578063e30c397814610481578063eb2cd2581461049f578063f2fde38b146104bd5761018e565b8063a88df21a146103e7578063a9059cbb14610403578063be9a6555146104335761018e565b806379cc6790146103235780638b7b23ee1461033f5780638da5cb5b1461035d57806392054fe71461037b57806395d89b4114610399578063a457c2d7146103b75761018e565b806335975a371161014b57806342966c681161012557806342966c68146102c357806370a08231146102df578063715018a61461030f57806379ba5097146103195761018e565b806335975a371461026b578063395093511461027557806341275358146102a55761018e565b8063029cd2421461019357806306fdde03146101b1578063095ea7b3146101cf57806318160ddd146101ff57806323b872dd1461021d578063313ce5671461024d575b600080fd5b61019b6104d9565b6040516101a891906118bb565b60405180910390f35b6101b96104fd565b6040516101c69190611966565b60405180910390f35b6101e960048036038101906101e49190611a01565b61058f565b6040516101f69190611a5c565b60405180910390f35b6102076105b2565b6040516102149190611a86565b60405180910390f35b61023760048036038101906102329190611aa1565b6105bc565b6040516102449190611a5c565b60405180910390f35b6102556105eb565b6040516102629190611b10565b60405180910390f35b6102736105f4565b005b61028f600480360381019061028a9190611a01565b610619565b60405161029c9190611a5c565b60405180910390f35b6102ad610650565b6040516102ba9190611b4c565b60405180910390f35b6102dd60048036038101906102d89190611b67565b610676565b005b6102f960048036038101906102f49190611b94565b61068a565b6040516103069190611a86565b60405180910390f35b6103176106d2565b005b6103216106e6565b005b61033d60048036038101906103389190611a01565b610773565b005b610347610793565b6040516103549190611a86565b60405180910390f35b610365610799565b6040516103729190611bd0565b60405180910390f35b6103836107c3565b6040516103909190611a86565b60405180910390f35b6103a16107c9565b6040516103ae9190611966565b60405180910390f35b6103d160048036038101906103cc9190611a01565b61085b565b6040516103de9190611a5c565b60405180910390f35b61040160048036038101906103fc9190611b67565b6108d2565b005b61041d60048036038101906104189190611a01565b610a0f565b60405161042a9190611a5c565b60405180910390f35b61043b610a32565b6040516104489190611a5c565b60405180910390f35b61046b60048036038101906104669190611beb565b610a45565b6040516104789190611a86565b60405180910390f35b610489610acc565b6040516104969190611bd0565b60405180910390f35b6104a7610af6565b6040516104b49190611a86565b60405180910390f35b6104d760048036038101906104d29190611b94565b610afc565b005b7f000000000000000000000000000000000000000000000000000000000000000081565b60606003805461050c90611c5a565b80601f016020809104026020016040519081016040528092919081815260200182805461053890611c5a565b80156105855780601f1061055a57610100808354040283529160200191610585565b820191906000526020600020905b81548152906001019060200180831161056857829003601f168201915b5050505050905090565b60008061059a610ba9565b90506105a7818585610bb1565b600191505092915050565b6000600254905090565b6000806105c7610ba9565b90506105d4858285610d7a565b6105df858585610e06565b60019150509392505050565b60006012905090565b6105fc61107c565b6001600b60146101000a81548160ff021916908315150217905550565b600080610624610ba9565b90506106458185856106368589610a45565b6106409190611cba565b610bb1565b600191505092915050565b600b60009054906101000a900473ffffffffffffffffffffffffffffffffffffffff1681565b610687610681610ba9565b826110fa565b50565b60008060008373ffffffffffffffffffffffffffffffffffffffff1673ffffffffffffffffffffffffffffffffffffffff168152602001908152602001600020549050919050565b6106da61107c565b6106e460006112c7565b565b60006106f0610ba9565b90508073ffffffffffffffffffffffffffffffffffffffff16610711610acc565b73ffffffffffffffffffffffffffffffffffffffff1614610767576040517f08c379a000000000000000000000000000000000000000000000000000000000815260040161075e90611d60565b60405180910390fd5b610770816112c7565b50565b6107858261077f610ba9565b83610d7a565b61078f82826110fa565b5050565b60095481565b6000600560009054906101000a900473ffffffffffffffffffffffffffffffffffffffff16905090565b60085481565b6060600480546107d890611c5a565b80601f016020809104026020016040519081016040528092919081815260200182805461080490611c5a565b80156108515780601f1061082657610100808354040283529160200191610851565b820191906000526020600020905b81548152906001019060200180831161083457829003601f168201915b5050505050905090565b600080610866610ba9565b905060006108748286610a45565b9050838110156108b9576040517f08c379a00000000000000000000000000000000000000000000000000000000081526004016108b090611df2565b60405180910390fd5b6108c68286868403610bb1565b60019250505092915050565b6108da61107c565b60011515600b60149054906101000a900460ff16151503610927576040517fde55c76500000000000000000000000000000000000000000000000000000000815260040160405180910390fd5b6109537f00000000000000000000000000000000000000000000000000000000000000003330846112f8565b61095d3382611381565b61096b61dead6103e8610a0f565b507f000000000000000000000000000000000000000000000000000000000000000073ffffffffffffffffffffffffffffffffffffffff166370a08231306040518263ffffffff1660e01b81526004016109c59190611bd0565b602060405180830381865afa1580156109e2573d6000803e3d6000fd5b505050506040513d601f19601f82011682018060405250810190610a069190611e27565b600a8190555050565b600080610a1a610ba9565b9050610a27818585610e06565b600191505092915050565b600b60149054906101000a900460ff1681565b6000600160008473ffffffffffffffffffffffffffffffffffffffff1673ffffffffffffffffffffffffffffffffffffffff16815260200190815260200160002060008373ffffffffffffffffffffffffffffffffffffffff1673ffffffffffffffffffffffffffffffffffffffff16815260200190815260200160002054905092915050565b6000600660009054906101000a900473ffffffffffffffffffffffffffffffffffffffff16905090565b600a5481565b610b0461107c565b80600660006101000a81548173ffffffffffffffffffffffffffffffffffffffff021916908373ffffffffffffffffffffffffffffffffffffffff1602179055508073ffffffffffffffffffffffffffffffffffffffff16610b64610799565b73ffffffffffffffffffffffffffffffffffffffff167f38d16b8cac22d99fc7c124b9cd0de2d3fa1faef420bfe791d8c362d765e2270060405160405180910390a350565b600033905090565b600073ffffffffffffffffffffffffffffffffffffffff168373ffffffffffffffffffffffffffffffffffffffff1603610c20576040517f08c379a0000000000000000000000000000000000000000000000000000000008152600401610c1790611ec6565b60405180910390fd5b600073ffffffffffffffffffffffffffffffffffffffff168273ffffffffffffffffffffffffffffffffffffffff1603610c8f576040517f08c379a0000000000000000000000000000000000000000000000000000000008152600401610c8690611f58565b60405180910390fd5b80600160008573ffffffffffffffffffffffffffffffffffffffff1673ffffffffffffffffffffffffffffffffffffffff16815260200190815260200160002060008473ffffffffffffffffffffffffffffffffffffffff1673ffffffffffffffffffffffffffffffffffffffff168152602001908152602001600020819055508173ffffffffffffffffffffffffffffffffffffffff168373ffffffffffffffffffffffffffffffffffffffff167f8c5be1e5ebec7d5bd14f71427d1e84f3dd0314c0f7b2291e5b200ac8c7c3b92583604051610d6d9190611a86565b60405180910390a3505050565b6000610d868484610a45565b90507fffffffffffffffffffffffffffffffffffffffffffffffffffffffffffffffff8114610e005781811015610df2576040517f08c379a0000000000000000000000000000000000000000000000000000000008152600401610de990611fc4565b60405180910390fd5b610dff8484848403610bb1565b5b50505050565b600073ffffffffffffffffffffffffffffffffffffffff168373ffffffffffffffffffffffffffffffffffffffff1603610e75576040517f08c379a0000000000000000000000000000000000000000000000000000000008152600401610e6c90612056565b60405180910390fd5b600073ffffffffffffffffffffffffffffffffffffffff168273ffffffffffffffffffffffffffffffffffffffff1603610ee4576040517f08c379a0000000000000000000000000000000000000000000000000000000008152600401610edb906120e8565b60405180910390fd5b610eef8383836114d7565b60008060008573ffffffffffffffffffffffffffffffffffffffff1673ffffffffffffffffffffffffffffffffffffffff16815260200190815260200160002054905081811015610f75576040517f08c379a0000000000000000000000000000000000000000000000000000000008152600401610f6c9061217a565b60405180910390fd5b8181036000808673ffffffffffffffffffffffffffffffffffffffff1673ffffffffffffffffffffffffffffffffffffffff16815260200190815260200160002081905550816000808573ffffffffffffffffffffffffffffffffffffffff1673ffffffffffffffffffffffffffffffffffffffff168152602001908152602001600020600082825401925050819055508273ffffffffffffffffffffffffffffffffffffffff168473ffffffffffffffffffffffffffffffffffffffff167fddf252ad1be2c89b69c2b068fc378daa952ba7f163c4a11628f55a4df523b3ef846040516110639190611a86565b60405180910390a36110768484846114dc565b50505050565b611084610ba9565b73ffffffffffffffffffffffffffffffffffffffff166110a2610799565b73ffffffffffffffffffffffffffffffffffffffff16146110f8576040517f08c379a00000000000000000000000000000000000000000000000000000000081526004016110ef906121e6565b60405180910390fd5b565b600073ffffffffffffffffffffffffffffffffffffffff168273ffffffffffffffffffffffffffffffffffffffff1603611169576040517f08c379a000000000000000000000000000000000000000000000000000000000815260040161116090612278565b60405180910390fd5b611175826000836114d7565b60008060008473ffffffffffffffffffffffffffffffffffffffff1673ffffffffffffffffffffffffffffffffffffffff168152602001908152602001600020549050818110156111fb576040517f08c379a00000000000000000000000000000000000000000000000000000000081526004016111f29061230a565b60405180910390fd5b8181036000808573ffffffffffffffffffffffffffffffffffffffff1673ffffffffffffffffffffffffffffffffffffffff1681526020019081526020016000208190555081600260008282540392505081905550600073ffffffffffffffffffffffffffffffffffffffff168373ffffffffffffffffffffffffffffffffffffffff167fddf252ad1be2c89b69c2b068fc378daa952ba7f163c4a11628f55a4df523b3ef846040516112ae9190611a86565b60405180910390a36112c2836000846114dc565b505050565b600660006101000a81549073ffffffffffffffffffffffffffffffffffffffff02191690556112f5816114e1565b50565b61137b846323b872dd60e01b8585856040516024016113199392919061232a565b604051602081830303815290604052907bffffffffffffffffffffffffffffffffffffffffffffffffffffffff19166020820180517bffffffffffffffffffffffffffffffffffffffffffffffffffffffff83818316178352505050506115a7565b50505050565b600073ffffffffffffffffffffffffffffffffffffffff168273ffffffffffffffffffffffffffffffffffffffff16036113f0576040517f08c379a00000000000000000000000000000000000000000000000000000000081526004016113e7906123ad565b60405180910390fd5b6113fc600083836114d7565b806002600082825461140e9190611cba565b92505081905550806000808473ffffffffffffffffffffffffffffffffffffffff1673ffffffffffffffffffffffffffffffffffffffff168152602001908152602001600020600082825401925050819055508173ffffffffffffffffffffffffffffffffffffffff16600073ffffffffffffffffffffffffffffffffffffffff167fddf252ad1be2c89b69c2b068fc378daa952ba7f163c4a11628f55a4df523b3ef836040516114bf9190611a86565b60405180910390a36114d3600083836114dc565b5050565b505050565b505050565b6000600560009054906101000a900473ffffffffffffffffffffffffffffffffffffffff16905081600560006101000a81548173ffffffffffffffffffffffffffffffffffffffff021916908373ffffffffffffffffffffffffffffffffffffffff1602179055508173ffffffffffffffffffffffffffffffffffffffff168173ffffffffffffffffffffffffffffffffffffffff167f8be0079c531659141344cd1fd0a4f28419497f9722a3daafe3b4186f6b6457e060405160405180910390a35050565b6000611609826040518060400160405280602081526020017f5361666545524332303a206c6f772d6c6576656c2063616c6c206661696c65648152508573ffffffffffffffffffffffffffffffffffffffff1661166f9092919063ffffffff16565b905060008151148061162b57508080602001905181019061162a91906123f9565b5b61166a576040517f08c379a000000000000000000000000000000000000000000000000000000000815260040161166190612498565b60405180910390fd5b505050565b606061167e8484600085611687565b90509392505050565b6060824710156116cc576040517f08c379a00000000000000000000000000000000000000000000000000000000081526004016116c39061252a565b60405180910390fd5b6000808673ffffffffffffffffffffffffffffffffffffffff1685876040516116f59190612591565b60006040518083038185875af1925050503d8060008114611732576040519150601f19603f3d011682016040523d82523d6000602084013e611737565b606091505b509150915061174887838387611754565b92505050949350505050565b606083156117b65760008351036117ae5761176e856117c9565b6117ad576040517f08c379a00000000000000000000000000000000000000000000000000000000081526004016117a4906125f4565b60405180910390fd5b5b8290506117c1565b6117c083836117ec565b5b949350505050565b6000808273ffffffffffffffffffffffffffffffffffffffff163b119050919050565b6000825111156117ff5781518083602001fd5b806040517f08c379a00000000000000000000000000000000000000000000000000000000081526004016118339190611966565b60405180910390fd5b600073ffffffffffffffffffffffffffffffffffffffff82169050919050565b6000819050919050565b600061188161187c6118778461183c565b61185c565b61183c565b9050919050565b600061189382611866565b9050919050565b60006118a582611888565b9050919050565b6118b58161189a565b82525050565b60006020820190506118d060008301846118ac565b92915050565b600081519050919050565b600082825260208201905092915050565b60005b838110156119105780820151818401526020810190506118f5565b60008484015250505050565b6000601f19601f8301169050919050565b6000611938826118d6565b61194281856118e1565b93506119528185602086016118f2565b61195b8161191c565b840191505092915050565b60006020820190508181036000830152611980818461192d565b905092915050565b600080fd5b60006119988261183c565b9050919050565b6119a88161198d565b81146119b357600080fd5b50565b6000813590506119c58161199f565b92915050565b6000819050919050565b6119de816119cb565b81146119e957600080fd5b50565b6000813590506119fb816119d5565b92915050565b60008060408385031215611a1857611a17611988565b5b6000611a26858286016119b6565b9250506020611a37858286016119ec565b9150509250929050565b60008115159050919050565b611a5681611a41565b82525050565b6000602082019050611a716000830184611a4d565b92915050565b611a80816119cb565b82525050565b6000602082019050611a9b6000830184611a77565b92915050565b600080600060608486031215611aba57611ab9611988565b5b6000611ac8868287016119b6565b9350506020611ad9868287016119b6565b9250506040611aea868287016119ec565b9150509250925092565b600060ff82169050919050565b611b0a81611af4565b82525050565b6000602082019050611b256000830184611b01565b92915050565b6000611b368261183c565b9050919050565b611b4681611b2b565b82525050565b6000602082019050611b616000830184611b3d565b92915050565b600060208284031215611b7d57611b7c611988565b5b6000611b8b848285016119ec565b91505092915050565b600060208284031215611baa57611ba9611988565b5b6000611bb8848285016119b6565b91505092915050565b611bca8161198d565b82525050565b6000602082019050611be56000830184611bc1565b92915050565b60008060408385031215611c0257611c01611988565b5b6000611c10858286016119b6565b9250506020611c21858286016119b6565b9150509250929050565b7f4e487b7100000000000000000000000000000000000000000000000000000000600052602260045260246000fd5b60006002820490506001821680611c7257607f821691505b602082108103611c8557611c84611c2b565b5b50919050565b7f4e487b7100000000000000000000000000000000000000000000000000000000600052601160045260246000fd5b6000611cc5826119cb565b9150611cd0836119cb565b9250828201905080821115611ce857611ce7611c8b565b5b92915050565b7f4f776e61626c6532537465703a2063616c6c6572206973206e6f74207468652060008201527f6e6577206f776e65720000000000000000000000000000000000000000000000602082015250565b6000611d4a6029836118e1565b9150611d5582611cee565b604082019050919050565b60006020820190508181036000830152611d7981611d3d565b9050919050565b7f45524332303a2064656372656173656420616c6c6f77616e63652062656c6f7760008201527f207a65726f000000000000000000000000000000000000000000000000000000602082015250565b6000611ddc6025836118e1565b9150611de782611d80565b604082019050919050565b60006020820190508181036000830152611e0b81611dcf565b9050919050565b600081519050611e21816119d5565b92915050565b600060208284031215611e3d57611e3c611988565b5b6000611e4b84828501611e12565b91505092915050565b7f45524332303a20617070726f76652066726f6d20746865207a65726f2061646460008201527f7265737300000000000000000000000000000000000000000000000000000000602082015250565b6000611eb06024836118e1565b9150611ebb82611e54565b604082019050919050565b60006020820190508181036000830152611edf81611ea3565b9050919050565b7f45524332303a20617070726f766520746f20746865207a65726f20616464726560008201527f7373000000000000000000000000000000000000000000000000000000000000602082015250565b6000611f426022836118e1565b9150611f4d82611ee6565b604082019050919050565b60006020820190508181036000830152611f7181611f35565b9050919050565b7f45524332303a20696e73756666696369656e7420616c6c6f77616e6365000000600082015250565b6000611fae601d836118e1565b9150611fb982611f78565b602082019050919050565b60006020820190508181036000830152611fdd81611fa1565b9050919050565b7f45524332303a207472616e736665722066726f6d20746865207a65726f20616460008201527f6472657373000000000000000000000000000000000000000000000000000000602082015250565b60006120406025836118e1565b915061204b82611fe4565b604082019050919050565b6000602082019050818103600083015261206f81612033565b9050919050565b7f45524332303a207472616e7366657220746f20746865207a65726f206164647260008201527f6573730000000000000000000000000000000000000000000000000000000000602082015250565b60006120d26023836118e1565b91506120dd82612076565b604082019050919050565b60006020820190508181036000830152612101816120c5565b9050919050565b7f45524332303a207472616e7366657220616d6f756e742065786365656473206260008201527f616c616e63650000000000000000000000000000000000000000000000000000602082015250565b60006121646026836118e1565b915061216f82612108565b604082019050919050565b6000602082019050818103600083015261219381612157565b9050919050565b7f4f776e61626c653a2063616c6c6572206973206e6f7420746865206f776e6572600082015250565b60006121d06020836118e1565b91506121db8261219a565b602082019050919050565b600060208201905081810360008301526121ff816121c3565b9050919050565b7f45524332303a206275726e2066726f6d20746865207a65726f2061646472657360008201527f7300000000000000000000000000000000000000000000000000000000000000602082015250565b60006122626021836118e1565b915061226d82612206565b604082019050919050565b6000602082019050818103600083015261229181612255565b9050919050565b7f45524332303a206275726e20616d6f756e7420657863656564732062616c616e60008201527f6365000000000000000000000000000000000000000000000000000000000000602082015250565b60006122f46022836118e1565b91506122ff82612298565b604082019050919050565b60006020820190508181036000830152612323816122e7565b9050919050565b600060608201905061233f6000830186611bc1565b61234c6020830185611bc1565b6123596040830184611a77565b949350505050565b7f45524332303a206d696e7420746f20746865207a65726f206164647265737300600082015250565b6000612397601f836118e1565b91506123a282612361565b602082019050919050565b600060208201905081810360008301526123c68161238a565b9050919050565b6123d681611a41565b81146123e157600080fd5b50565b6000815190506123f3816123cd565b92915050565b60006020828403121561240f5761240e611988565b5b600061241d848285016123e4565b91505092915050565b7f5361666545524332303a204552433230206f7065726174696f6e20646964206e60008201527f6f74207375636365656400000000000000000000000000000000000000000000602082015250565b6000612482602a836118e1565b915061248d82612426565b604082019050919050565b600060208201905081810360008301526124b181612475565b9050919050565b7f416464726573733a20696e73756666696369656e742062616c616e636520666f60008201527f722063616c6c0000000000000000000000000000000000000000000000000000602082015250565b60006125146026836118e1565b915061251f826124b8565b604082019050919050565b6000602082019050818103600083015261254381612507565b9050919050565b600081519050919050565b600081905092915050565b600061256b8261254a565b6125758185612555565b93506125858185602086016118f2565b80840191505092915050565b600061259d8284612560565b915081905092915050565b7f416464726573733a2063616c6c20746f206e6f6e2d636f6e7472616374000000600082015250565b60006125de601d836118e1565b91506125e9826125a8565b602082019050919050565b6000602082019050818103600083015261260d816125d1565b905091905056fea26469706673582212203d05df6340938460c0c216690aaf2cd864e8d3f37ca79f795f3978757d367a6664736f6c63430008130033",
					"opcodes": "PUSH1 0xA0 PUSH1 0x40 MSTORE PUSH2 0x3C7 PUSH1 0x8 SSTORE PUSH1 0x23 PUSH1 0x9 SSTORE CALLVALUE DUP1 ISZERO PUSH3 0x1C JUMPI PUSH1 0x0 DUP1 REVERT JUMPDEST POP PUSH1 0x40 MLOAD PUSH3 0x2DD4 CODESIZE SUB DUP1 PUSH3 0x2DD4 DUP4 CODECOPY DUP2 DUP2 ADD PUSH1 0x40 MSTORE DUP2 ADD SWAP1 PUSH3 0x42 SWAP2 SWAP1 PUSH3 0x3B8 JUMP JUMPDEST PUSH1 0x40 MLOAD DUP1 PUSH1 0x40 ADD PUSH1 0x40 MSTORE DUP1 PUSH1 0xE DUP2 MSTORE PUSH1 0x20 ADD PUSH32 0x70616E7468656F6E20544F4B454E000000000000000000000000000000000000 DUP2 MSTORE POP PUSH1 0x40 MLOAD DUP1 PUSH1 0x40 ADD PUSH1 0x40 MSTORE DUP1 PUSH1 0x6 DUP2 MSTORE PUSH1 0x20 ADD PUSH32 0x70544F4B454E0000000000000000000000000000000000000000000000000000 DUP2 MSTORE POP DUP2 PUSH1 0x3 SWAP1 DUP2 PUSH3 0xBF SWAP2 SWAP1 PUSH3 0x679 JUMP JUMPDEST POP DUP1 PUSH1 0x4 SWAP1 DUP2 PUSH3 0xD1 SWAP2 SWAP1 PUSH3 0x679 JUMP JUMPDEST POP POP POP PUSH3 0xF4 PUSH3 0xE8 PUSH3 0x247 PUSH1 0x20 SHL PUSH1 0x20 SHR JUMP JUMPDEST PUSH3 0x24F PUSH1 0x20 SHL PUSH1 0x20 SHR JUMP JUMPDEST PUSH1 0x1 PUSH1 0x7 DUP2 SWAP1 SSTORE POP PUSH1 0x0 PUSH20 0xFFFFFFFFFFFFFFFFFFFFFFFFFFFFFFFFFFFFFFFF AND DUP3 PUSH20 0xFFFFFFFFFFFFFFFFFFFFFFFFFFFFFFFFFFFFFFFF AND SUB PUSH3 0x163 JUMPI PUSH1 0x40 MLOAD PUSH32 0x8579BEFE00000000000000000000000000000000000000000000000000000000 DUP2 MSTORE PUSH1 0x4 ADD PUSH1 0x40 MLOAD DUP1 SWAP2 SUB SWAP1 REVERT JUMPDEST PUSH1 0x0 PUSH20 0xFFFFFFFFFFFFFFFFFFFFFFFFFFFFFFFFFFFFFFFF AND DUP2 PUSH20 0xFFFFFFFFFFFFFFFFFFFFFFFFFFFFFFFFFFFFFFFF AND SUB PUSH3 0x1CA JUMPI PUSH1 0x40 MLOAD PUSH32 0x8579BEFE00000000000000000000000000000000000000000000000000000000 DUP2 MSTORE PUSH1 0x4 ADD PUSH1 0x40 MLOAD DUP1 SWAP2 SUB SWAP1 REVERT JUMPDEST DUP2 PUSH1 0xB PUSH1 0x0 PUSH2 0x100 EXP DUP2 SLOAD DUP2 PUSH20 0xFFFFFFFFFFFFFFFFFFFFFFFFFFFFFFFFFFFFFFFF MUL NOT AND SWAP1 DUP4 PUSH20 0xFFFFFFFFFFFFFFFFFFFFFFFFFFFFFFFFFFFFFFFF AND MUL OR SWAP1 SSTORE POP DUP1 PUSH20 0xFFFFFFFFFFFFFFFFFFFFFFFFFFFFFFFFFFFFFFFF AND PUSH1 0x80 DUP2 PUSH20 0xFFFFFFFFFFFFFFFFFFFFFFFFFFFFFFFFFFFFFFFF AND DUP2 MSTORE POP POP POP POP PUSH3 0x760 JUMP JUMPDEST PUSH1 0x0 CALLER SWAP1 POP SWAP1 JUMP JUMPDEST PUSH1 0x6 PUSH1 0x0 PUSH2 0x100 EXP DUP2 SLOAD SWAP1 PUSH20 0xFFFFFFFFFFFFFFFFFFFFFFFFFFFFFFFFFFFFFFFF MUL NOT AND SWAP1 SSTORE PUSH3 0x285 DUP2 PUSH3 0x288 PUSH1 0x20 SHL PUSH1 0x20 SHR JUMP JUMPDEST POP JUMP JUMPDEST PUSH1 0x0 PUSH1 0x5 PUSH1 0x0 SWAP1 SLOAD SWAP1 PUSH2 0x100 EXP SWAP1 DIV PUSH20 0xFFFFFFFFFFFFFFFFFFFFFFFFFFFFFFFFFFFFFFFF AND SWAP1 POP DUP2 PUSH1 0x5 PUSH1 0x0 PUSH2 0x100 EXP DUP2 SLOAD DUP2 PUSH20 0xFFFFFFFFFFFFFFFFFFFFFFFFFFFFFFFFFFFFFFFF MUL NOT AND SWAP1 DUP4 PUSH20 0xFFFFFFFFFFFFFFFFFFFFFFFFFFFFFFFFFFFFFFFF AND MUL OR SWAP1 SSTORE POP DUP2 PUSH20 0xFFFFFFFFFFFFFFFFFFFFFFFFFFFFFFFFFFFFFFFF AND DUP2 PUSH20 0xFFFFFFFFFFFFFFFFFFFFFFFFFFFFFFFFFFFFFFFF AND PUSH32 0x8BE0079C531659141344CD1FD0A4F28419497F9722A3DAAFE3B4186F6B6457E0 PUSH1 0x40 MLOAD PUSH1 0x40 MLOAD DUP1 SWAP2 SUB SWAP1 LOG3 POP POP JUMP JUMPDEST PUSH1 0x0 DUP1 REVERT JUMPDEST PUSH1 0x0 PUSH20 0xFFFFFFFFFFFFFFFFFFFFFFFFFFFFFFFFFFFFFFFF DUP3 AND SWAP1 POP SWAP2 SWAP1 POP JUMP JUMPDEST PUSH1 0x0 PUSH3 0x380 DUP3 PUSH3 0x353 JUMP JUMPDEST SWAP1 POP SWAP2 SWAP1 POP JUMP JUMPDEST PUSH3 0x392 DUP2 PUSH3 0x373 JUMP JUMPDEST DUP2 EQ PUSH3 0x39E JUMPI PUSH1 0x0 DUP1 REVERT JUMPDEST POP JUMP JUMPDEST PUSH1 0x0 DUP2 MLOAD SWAP1 POP PUSH3 0x3B2 DUP2 PUSH3 0x387 JUMP JUMPDEST SWAP3 SWAP2 POP POP JUMP JUMPDEST PUSH1 0x0 DUP1 PUSH1 0x40 DUP4 DUP6 SUB SLT ISZERO PUSH3 0x3D2 JUMPI PUSH3 0x3D1 PUSH3 0x34E JUMP JUMPDEST JUMPDEST PUSH1 0x0 PUSH3 0x3E2 DUP6 DUP3 DUP7 ADD PUSH3 0x3A1 JUMP JUMPDEST SWAP3 POP POP PUSH1 0x20 PUSH3 0x3F5 DUP6 DUP3 DUP7 ADD PUSH3 0x3A1 JUMP JUMPDEST SWAP2 POP POP SWAP3 POP SWAP3 SWAP1 POP JUMP JUMPDEST PUSH1 0x0 DUP2 MLOAD SWAP1 POP SWAP2 SWAP1 POP JUMP JUMPDEST PUSH32 0x4E487B7100000000000000000000000000000000000000000000000000000000 PUSH1 0x0 MSTORE PUSH1 0x41 PUSH1 0x4 MSTORE PUSH1 0x24 PUSH1 0x0 REVERT JUMPDEST PUSH32 0x4E487B7100000000000000000000000000000000000000000000000000000000 PUSH1 0x0 MSTORE PUSH1 0x22 PUSH1 0x4 MSTORE PUSH1 0x24 PUSH1 0x0 REVERT JUMPDEST PUSH1 0x0 PUSH1 0x2 DUP3 DIV SWAP1 POP PUSH1 0x1 DUP3 AND DUP1 PUSH3 0x481 JUMPI PUSH1 0x7F DUP3 AND SWAP2 POP JUMPDEST PUSH1 0x20 DUP3 LT DUP2 SUB PUSH3 0x497 JUMPI PUSH3 0x496 PUSH3 0x439 JUMP JUMPDEST JUMPDEST POP SWAP2 SWAP1 POP JUMP JUMPDEST PUSH1 0x0 DUP2 SWAP1 POP DUP2 PUSH1 0x0 MSTORE PUSH1 0x20 PUSH1 0x0 KECCAK256 SWAP1 POP SWAP2 SWAP1 POP JUMP JUMPDEST PUSH1 0x0 PUSH1 0x20 PUSH1 0x1F DUP4 ADD DIV SWAP1 POP SWAP2 SWAP1 POP JUMP JUMPDEST PUSH1 0x0 DUP3 DUP3 SHL SWAP1 POP SWAP3 SWAP2 POP POP JUMP JUMPDEST PUSH1 0x0 PUSH1 0x8 DUP4 MUL PUSH3 0x501 PUSH32 0xFFFFFFFFFFFFFFFFFFFFFFFFFFFFFFFFFFFFFFFFFFFFFFFFFFFFFFFFFFFFFFFF DUP3 PUSH3 0x4C2 JUMP JUMPDEST PUSH3 0x50D DUP7 DUP4 PUSH3 0x4C2 JUMP JUMPDEST SWAP6 POP DUP1 NOT DUP5 AND SWAP4 POP DUP1 DUP7 AND DUP5 OR SWAP3 POP POP POP SWAP4 SWAP3 POP POP POP JUMP JUMPDEST PUSH1 0x0 DUP2 SWAP1 POP SWAP2 SWAP1 POP JUMP JUMPDEST PUSH1 0x0 DUP2 SWAP1 POP SWAP2 SWAP1 POP JUMP JUMPDEST PUSH1 0x0 PUSH3 0x55A PUSH3 0x554 PUSH3 0x54E DUP5 PUSH3 0x525 JUMP JUMPDEST PUSH3 0x52F JUMP JUMPDEST PUSH3 0x525 JUMP JUMPDEST SWAP1 POP SWAP2 SWAP1 POP JUMP JUMPDEST PUSH1 0x0 DUP2 SWAP1 POP SWAP2 SWAP1 POP JUMP JUMPDEST PUSH3 0x576 DUP4 PUSH3 0x539 JUMP JUMPDEST PUSH3 0x58E PUSH3 0x585 DUP3 PUSH3 0x561 JUMP JUMPDEST DUP5 DUP5 SLOAD PUSH3 0x4CF JUMP JUMPDEST DUP3 SSTORE POP POP POP POP JUMP JUMPDEST PUSH1 0x0 SWAP1 JUMP JUMPDEST PUSH3 0x5A5 PUSH3 0x596 JUMP JUMPDEST PUSH3 0x5B2 DUP2 DUP5 DUP5 PUSH3 0x56B JUMP JUMPDEST POP POP POP JUMP JUMPDEST JUMPDEST DUP2 DUP2 LT ISZERO PUSH3 0x5DA JUMPI PUSH3 0x5CE PUSH1 0x0 DUP3 PUSH3 0x59B JUMP JUMPDEST PUSH1 0x1 DUP2 ADD SWAP1 POP PUSH3 0x5B8 JUMP JUMPDEST POP POP JUMP JUMPDEST PUSH1 0x1F DUP3 GT ISZERO PUSH3 0x629 JUMPI PUSH3 0x5F3 DUP2 PUSH3 0x49D JUMP JUMPDEST PUSH3 0x5FE DUP5 PUSH3 0x4B2 JUMP JUMPDEST DUP2 ADD PUSH1 0x20 DUP6 LT ISZERO PUSH3 0x60E JUMPI DUP2 SWAP1 POP JUMPDEST PUSH3 0x626 PUSH3 0x61D DUP6 PUSH3 0x4B2 JUMP JUMPDEST DUP4 ADD DUP3 PUSH3 0x5B7 JUMP JUMPDEST POP POP JUMPDEST POP POP POP JUMP JUMPDEST PUSH1 0x0 DUP3 DUP3 SHR SWAP1 POP SWAP3 SWAP2 POP POP JUMP JUMPDEST PUSH1 0x0 PUSH3 0x64E PUSH1 0x0 NOT DUP5 PUSH1 0x8 MUL PUSH3 0x62E JUMP JUMPDEST NOT DUP1 DUP4 AND SWAP2 POP POP SWAP3 SWAP2 POP POP JUMP JUMPDEST PUSH1 0x0 PUSH3 0x669 DUP4 DUP4 PUSH3 0x63B JUMP JUMPDEST SWAP2 POP DUP3 PUSH1 0x2 MUL DUP3 OR SWAP1 POP SWAP3 SWAP2 POP POP JUMP JUMPDEST PUSH3 0x684 DUP3 PUSH3 0x3FF JUMP JUMPDEST PUSH8 0xFFFFFFFFFFFFFFFF DUP2 GT ISZERO PUSH3 0x6A0 JUMPI PUSH3 0x69F PUSH3 0x40A JUMP JUMPDEST JUMPDEST PUSH3 0x6AC DUP3 SLOAD PUSH3 0x468 JUMP JUMPDEST PUSH3 0x6B9 DUP3 DUP3 DUP6 PUSH3 0x5DE JUMP JUMPDEST PUSH1 0x0 PUSH1 0x20 SWAP1 POP PUSH1 0x1F DUP4 GT PUSH1 0x1 DUP2 EQ PUSH3 0x6F1 JUMPI PUSH1 0x0 DUP5 ISZERO PUSH3 0x6DC JUMPI DUP3 DUP8 ADD MLOAD SWAP1 POP JUMPDEST PUSH3 0x6E8 DUP6 DUP3 PUSH3 0x65B JUMP JUMPDEST DUP7 SSTORE POP PUSH3 0x758 JUMP JUMPDEST PUSH1 0x1F NOT DUP5 AND PUSH3 0x701 DUP7 PUSH3 0x49D JUMP JUMPDEST PUSH1 0x0 JUMPDEST DUP3 DUP2 LT ISZERO PUSH3 0x72B JUMPI DUP5 DUP10 ADD MLOAD DUP3 SSTORE PUSH1 0x1 DUP3 ADD SWAP2 POP PUSH1 0x20 DUP6 ADD SWAP5 POP PUSH1 0x20 DUP2 ADD SWAP1 POP PUSH3 0x704 JUMP JUMPDEST DUP7 DUP4 LT ISZERO PUSH3 0x74B JUMPI DUP5 DUP10 ADD MLOAD PUSH3 0x747 PUSH1 0x1F DUP10 AND DUP3 PUSH3 0x63B JUMP JUMPDEST DUP4 SSTORE POP JUMPDEST PUSH1 0x1 PUSH1 0x2 DUP9 MUL ADD DUP9 SSTORE POP POP POP JUMPDEST POP POP POP POP POP POP JUMP JUMPDEST PUSH1 0x80 MLOAD PUSH2 0x264A PUSH3 0x78A PUSH1 0x0 CODECOPY PUSH1 0x0 DUP2 DUP2 PUSH2 0x4DB ADD MSTORE DUP2 DUP2 PUSH2 0x92C ADD MSTORE PUSH2 0x96E ADD MSTORE PUSH2 0x264A PUSH1 0x0 RETURN INVALID PUSH1 0x80 PUSH1 0x40 MSTORE CALLVALUE DUP1 ISZERO PUSH2 0x10 JUMPI PUSH1 0x0 DUP1 REVERT JUMPDEST POP PUSH1 0x4 CALLDATASIZE LT PUSH2 0x18E JUMPI PUSH1 0x0 CALLDATALOAD PUSH1 0xE0 SHR DUP1 PUSH4 0x79CC6790 GT PUSH2 0xDE JUMPI DUP1 PUSH4 0xA88DF21A GT PUSH2 0x97 JUMPI DUP1 PUSH4 0xDD62ED3E GT PUSH2 0x71 JUMPI DUP1 PUSH4 0xDD62ED3E EQ PUSH2 0x451 JUMPI DUP1 PUSH4 0xE30C3978 EQ PUSH2 0x481 JUMPI DUP1 PUSH4 0xEB2CD258 EQ PUSH2 0x49F JUMPI DUP1 PUSH4 0xF2FDE38B EQ PUSH2 0x4BD JUMPI PUSH2 0x18E JUMP JUMPDEST DUP1 PUSH4 0xA88DF21A EQ PUSH2 0x3E7 JUMPI DUP1 PUSH4 0xA9059CBB EQ PUSH2 0x403 JUMPI DUP1 PUSH4 0xBE9A6555 EQ PUSH2 0x433 JUMPI PUSH2 0x18E JUMP JUMPDEST DUP1 PUSH4 0x79CC6790 EQ PUSH2 0x323 JUMPI DUP1 PUSH4 0x8B7B23EE EQ PUSH2 0x33F JUMPI DUP1 PUSH4 0x8DA5CB5B EQ PUSH2 0x35D JUMPI DUP1 PUSH4 0x92054FE7 EQ PUSH2 0x37B JUMPI DUP1 PUSH4 0x95D89B41 EQ PUSH2 0x399 JUMPI DUP1 PUSH4 0xA457C2D7 EQ PUSH2 0x3B7 JUMPI PUSH2 0x18E JUMP JUMPDEST DUP1 PUSH4 0x35975A37 GT PUSH2 0x14B JUMPI DUP1 PUSH4 0x42966C68 GT PUSH2 0x125 JUMPI DUP1 PUSH4 0x42966C68 EQ PUSH2 0x2C3 JUMPI DUP1 PUSH4 0x70A08231 EQ PUSH2 0x2DF JUMPI DUP1 PUSH4 0x715018A6 EQ PUSH2 0x30F JUMPI DUP1 PUSH4 0x79BA5097 EQ PUSH2 0x319 JUMPI PUSH2 0x18E JUMP JUMPDEST DUP1 PUSH4 0x35975A37 EQ PUSH2 0x26B JUMPI DUP1 PUSH4 0x39509351 EQ PUSH2 0x275 JUMPI DUP1 PUSH4 0x41275358 EQ PUSH2 0x2A5 JUMPI PUSH2 0x18E JUMP JUMPDEST DUP1 PUSH4 0x29CD242 EQ PUSH2 0x193 JUMPI DUP1 PUSH4 0x6FDDE03 EQ PUSH2 0x1B1 JUMPI DUP1 PUSH4 0x95EA7B3 EQ PUSH2 0x1CF JUMPI DUP1 PUSH4 0x18160DDD EQ PUSH2 0x1FF JUMPI DUP1 PUSH4 0x23B872DD EQ PUSH2 0x21D JUMPI DUP1 PUSH4 0x313CE567 EQ PUSH2 0x24D JUMPI JUMPDEST PUSH1 0x0 DUP1 REVERT JUMPDEST PUSH2 0x19B PUSH2 0x4D9 JUMP JUMPDEST PUSH1 0x40 MLOAD PUSH2 0x1A8 SWAP2 SWAP1 PUSH2 0x18BB JUMP JUMPDEST PUSH1 0x40 MLOAD DUP1 SWAP2 SUB SWAP1 RETURN JUMPDEST PUSH2 0x1B9 PUSH2 0x4FD JUMP JUMPDEST PUSH1 0x40 MLOAD PUSH2 0x1C6 SWAP2 SWAP1 PUSH2 0x1966 JUMP JUMPDEST PUSH1 0x40 MLOAD DUP1 SWAP2 SUB SWAP1 RETURN JUMPDEST PUSH2 0x1E9 PUSH1 0x4 DUP1 CALLDATASIZE SUB DUP2 ADD SWAP1 PUSH2 0x1E4 SWAP2 SWAP1 PUSH2 0x1A01 JUMP JUMPDEST PUSH2 0x58F JUMP JUMPDEST PUSH1 0x40 MLOAD PUSH2 0x1F6 SWAP2 SWAP1 PUSH2 0x1A5C JUMP JUMPDEST PUSH1 0x40 MLOAD DUP1 SWAP2 SUB SWAP1 RETURN JUMPDEST PUSH2 0x207 PUSH2 0x5B2 JUMP JUMPDEST PUSH1 0x40 MLOAD PUSH2 0x214 SWAP2 SWAP1 PUSH2 0x1A86 JUMP JUMPDEST PUSH1 0x40 MLOAD DUP1 SWAP2 SUB SWAP1 RETURN JUMPDEST PUSH2 0x237 PUSH1 0x4 DUP1 CALLDATASIZE SUB DUP2 ADD SWAP1 PUSH2 0x232 SWAP2 SWAP1 PUSH2 0x1AA1 JUMP JUMPDEST PUSH2 0x5BC JUMP JUMPDEST PUSH1 0x40 MLOAD PUSH2 0x244 SWAP2 SWAP1 PUSH2 0x1A5C JUMP JUMPDEST PUSH1 0x40 MLOAD DUP1 SWAP2 SUB SWAP1 RETURN JUMPDEST PUSH2 0x255 PUSH2 0x5EB JUMP JUMPDEST PUSH1 0x40 MLOAD PUSH2 0x262 SWAP2 SWAP1 PUSH2 0x1B10 JUMP JUMPDEST PUSH1 0x40 MLOAD DUP1 SWAP2 SUB SWAP1 RETURN JUMPDEST PUSH2 0x273 PUSH2 0x5F4 JUMP JUMPDEST STOP JUMPDEST PUSH2 0x28F PUSH1 0x4 DUP1 CALLDATASIZE SUB DUP2 ADD SWAP1 PUSH2 0x28A SWAP2 SWAP1 PUSH2 0x1A01 JUMP JUMPDEST PUSH2 0x619 JUMP JUMPDEST PUSH1 0x40 MLOAD PUSH2 0x29C SWAP2 SWAP1 PUSH2 0x1A5C JUMP JUMPDEST PUSH1 0x40 MLOAD DUP1 SWAP2 SUB SWAP1 RETURN JUMPDEST PUSH2 0x2AD PUSH2 0x650 JUMP JUMPDEST PUSH1 0x40 MLOAD PUSH2 0x2BA SWAP2 SWAP1 PUSH2 0x1B4C JUMP JUMPDEST PUSH1 0x40 MLOAD DUP1 SWAP2 SUB SWAP1 RETURN JUMPDEST PUSH2 0x2DD PUSH1 0x4 DUP1 CALLDATASIZE SUB DUP2 ADD SWAP1 PUSH2 0x2D8 SWAP2 SWAP1 PUSH2 0x1B67 JUMP JUMPDEST PUSH2 0x676 JUMP JUMPDEST STOP JUMPDEST PUSH2 0x2F9 PUSH1 0x4 DUP1 CALLDATASIZE SUB DUP2 ADD SWAP1 PUSH2 0x2F4 SWAP2 SWAP1 PUSH2 0x1B94 JUMP JUMPDEST PUSH2 0x68A JUMP JUMPDEST PUSH1 0x40 MLOAD PUSH2 0x306 SWAP2 SWAP1 PUSH2 0x1A86 JUMP JUMPDEST PUSH1 0x40 MLOAD DUP1 SWAP2 SUB SWAP1 RETURN JUMPDEST PUSH2 0x317 PUSH2 0x6D2 JUMP JUMPDEST STOP JUMPDEST PUSH2 0x321 PUSH2 0x6E6 JUMP JUMPDEST STOP JUMPDEST PUSH2 0x33D PUSH1 0x4 DUP1 CALLDATASIZE SUB DUP2 ADD SWAP1 PUSH2 0x338 SWAP2 SWAP1 PUSH2 0x1A01 JUMP JUMPDEST PUSH2 0x773 JUMP JUMPDEST STOP JUMPDEST PUSH2 0x347 PUSH2 0x793 JUMP JUMPDEST PUSH1 0x40 MLOAD PUSH2 0x354 SWAP2 SWAP1 PUSH2 0x1A86 JUMP JUMPDEST PUSH1 0x40 MLOAD DUP1 SWAP2 SUB SWAP1 RETURN JUMPDEST PUSH2 0x365 PUSH2 0x799 JUMP JUMPDEST PUSH1 0x40 MLOAD PUSH2 0x372 SWAP2 SWAP1 PUSH2 0x1BD0 JUMP JUMPDEST PUSH1 0x40 MLOAD DUP1 SWAP2 SUB SWAP1 RETURN JUMPDEST PUSH2 0x383 PUSH2 0x7C3 JUMP JUMPDEST PUSH1 0x40 MLOAD PUSH2 0x390 SWAP2 SWAP1 PUSH2 0x1A86 JUMP JUMPDEST PUSH1 0x40 MLOAD DUP1 SWAP2 SUB SWAP1 RETURN JUMPDEST PUSH2 0x3A1 PUSH2 0x7C9 JUMP JUMPDEST PUSH1 0x40 MLOAD PUSH2 0x3AE SWAP2 SWAP1 PUSH2 0x1966 JUMP JUMPDEST PUSH1 0x40 MLOAD DUP1 SWAP2 SUB SWAP1 RETURN JUMPDEST PUSH2 0x3D1 PUSH1 0x4 DUP1 CALLDATASIZE SUB DUP2 ADD SWAP1 PUSH2 0x3CC SWAP2 SWAP1 PUSH2 0x1A01 JUMP JUMPDEST PUSH2 0x85B JUMP JUMPDEST PUSH1 0x40 MLOAD PUSH2 0x3DE SWAP2 SWAP1 PUSH2 0x1A5C JUMP JUMPDEST PUSH1 0x40 MLOAD DUP1 SWAP2 SUB SWAP1 RETURN JUMPDEST PUSH2 0x401 PUSH1 0x4 DUP1 CALLDATASIZE SUB DUP2 ADD SWAP1 PUSH2 0x3FC SWAP2 SWAP1 PUSH2 0x1B67 JUMP JUMPDEST PUSH2 0x8D2 JUMP JUMPDEST STOP JUMPDEST PUSH2 0x41D PUSH1 0x4 DUP1 CALLDATASIZE SUB DUP2 ADD SWAP1 PUSH2 0x418 SWAP2 SWAP1 PUSH2 0x1A01 JUMP JUMPDEST PUSH2 0xA0F JUMP JUMPDEST PUSH1 0x40 MLOAD PUSH2 0x42A SWAP2 SWAP1 PUSH2 0x1A5C JUMP JUMPDEST PUSH1 0x40 MLOAD DUP1 SWAP2 SUB SWAP1 RETURN JUMPDEST PUSH2 0x43B PUSH2 0xA32 JUMP JUMPDEST PUSH1 0x40 MLOAD PUSH2 0x448 SWAP2 SWAP1 PUSH2 0x1A5C JUMP JUMPDEST PUSH1 0x40 MLOAD DUP1 SWAP2 SUB SWAP1 RETURN JUMPDEST PUSH2 0x46B PUSH1 0x4 DUP1 CALLDATASIZE SUB DUP2 ADD SWAP1 PUSH2 0x466 SWAP2 SWAP1 PUSH2 0x1BEB JUMP JUMPDEST PUSH2 0xA45 JUMP JUMPDEST PUSH1 0x40 MLOAD PUSH2 0x478 SWAP2 SWAP1 PUSH2 0x1A86 JUMP JUMPDEST PUSH1 0x40 MLOAD DUP1 SWAP2 SUB SWAP1 RETURN JUMPDEST PUSH2 0x489 PUSH2 0xACC JUMP JUMPDEST PUSH1 0x40 MLOAD PUSH2 0x496 SWAP2 SWAP1 PUSH2 0x1BD0 JUMP JUMPDEST PUSH1 0x40 MLOAD DUP1 SWAP2 SUB SWAP1 RETURN JUMPDEST PUSH2 0x4A7 PUSH2 0xAF6 JUMP JUMPDEST PUSH1 0x40 MLOAD PUSH2 0x4B4 SWAP2 SWAP1 PUSH2 0x1A86 JUMP JUMPDEST PUSH1 0x40 MLOAD DUP1 SWAP2 SUB SWAP1 RETURN JUMPDEST PUSH2 0x4D7 PUSH1 0x4 DUP1 CALLDATASIZE SUB DUP2 ADD SWAP1 PUSH2 0x4D2 SWAP2 SWAP1 PUSH2 0x1B94 JUMP JUMPDEST PUSH2 0xAFC JUMP JUMPDEST STOP JUMPDEST PUSH32 0x0 DUP2 JUMP JUMPDEST PUSH1 0x60 PUSH1 0x3 DUP1 SLOAD PUSH2 0x50C SWAP1 PUSH2 0x1C5A JUMP JUMPDEST DUP1 PUSH1 0x1F ADD PUSH1 0x20 DUP1 SWAP2 DIV MUL PUSH1 0x20 ADD PUSH1 0x40 MLOAD SWAP1 DUP2 ADD PUSH1 0x40 MSTORE DUP1 SWAP3 SWAP2 SWAP1 DUP2 DUP2 MSTORE PUSH1 0x20 ADD DUP3 DUP1 SLOAD PUSH2 0x538 SWAP1 PUSH2 0x1C5A JUMP JUMPDEST DUP1 ISZERO PUSH2 0x585 JUMPI DUP1 PUSH1 0x1F LT PUSH2 0x55A JUMPI PUSH2 0x100 DUP1 DUP4 SLOAD DIV MUL DUP4 MSTORE SWAP2 PUSH1 0x20 ADD SWAP2 PUSH2 0x585 JUMP JUMPDEST DUP3 ADD SWAP2 SWAP1 PUSH1 0x0 MSTORE PUSH1 0x20 PUSH1 0x0 KECCAK256 SWAP1 JUMPDEST DUP2 SLOAD DUP2 MSTORE SWAP1 PUSH1 0x1 ADD SWAP1 PUSH1 0x20 ADD DUP1 DUP4 GT PUSH2 0x568 JUMPI DUP3 SWAP1 SUB PUSH1 0x1F AND DUP3 ADD SWAP2 JUMPDEST POP POP POP POP POP SWAP1 POP SWAP1 JUMP JUMPDEST PUSH1 0x0 DUP1 PUSH2 0x59A PUSH2 0xBA9 JUMP JUMPDEST SWAP1 POP PUSH2 0x5A7 DUP2 DUP6 DUP6 PUSH2 0xBB1 JUMP JUMPDEST PUSH1 0x1 SWAP2 POP POP SWAP3 SWAP2 POP POP JUMP JUMPDEST PUSH1 0x0 PUSH1 0x2 SLOAD SWAP1 POP SWAP1 JUMP JUMPDEST PUSH1 0x0 DUP1 PUSH2 0x5C7 PUSH2 0xBA9 JUMP JUMPDEST SWAP1 POP PUSH2 0x5D4 DUP6 DUP3 DUP6 PUSH2 0xD7A JUMP JUMPDEST PUSH2 0x5DF DUP6 DUP6 DUP6 PUSH2 0xE06 JUMP JUMPDEST PUSH1 0x1 SWAP2 POP POP SWAP4 SWAP3 POP POP POP JUMP JUMPDEST PUSH1 0x0 PUSH1 0x12 SWAP1 POP SWAP1 JUMP JUMPDEST PUSH2 0x5FC PUSH2 0x107C JUMP JUMPDEST PUSH1 0x1 PUSH1 0xB PUSH1 0x14 PUSH2 0x100 EXP DUP2 SLOAD DUP2 PUSH1 0xFF MUL NOT AND SWAP1 DUP4 ISZERO ISZERO MUL OR SWAP1 SSTORE POP JUMP JUMPDEST PUSH1 0x0 DUP1 PUSH2 0x624 PUSH2 0xBA9 JUMP JUMPDEST SWAP1 POP PUSH2 0x645 DUP2 DUP6 DUP6 PUSH2 0x636 DUP6 DUP10 PUSH2 0xA45 JUMP JUMPDEST PUSH2 0x640 SWAP2 SWAP1 PUSH2 0x1CBA JUMP JUMPDEST PUSH2 0xBB1 JUMP JUMPDEST PUSH1 0x1 SWAP2 POP POP SWAP3 SWAP2 POP POP JUMP JUMPDEST PUSH1 0xB PUSH1 0x0 SWAP1 SLOAD SWAP1 PUSH2 0x100 EXP SWAP1 DIV PUSH20 0xFFFFFFFFFFFFFFFFFFFFFFFFFFFFFFFFFFFFFFFF AND DUP2 JUMP JUMPDEST PUSH2 0x687 PUSH2 0x681 PUSH2 0xBA9 JUMP JUMPDEST DUP3 PUSH2 0x10FA JUMP JUMPDEST POP JUMP JUMPDEST PUSH1 0x0 DUP1 PUSH1 0x0 DUP4 PUSH20 0xFFFFFFFFFFFFFFFFFFFFFFFFFFFFFFFFFFFFFFFF AND PUSH20 0xFFFFFFFFFFFFFFFFFFFFFFFFFFFFFFFFFFFFFFFF AND DUP2 MSTORE PUSH1 0x20 ADD SWAP1 DUP2 MSTORE PUSH1 0x20 ADD PUSH1 0x0 KECCAK256 SLOAD SWAP1 POP SWAP2 SWAP1 POP JUMP JUMPDEST PUSH2 0x6DA PUSH2 0x107C JUMP JUMPDEST PUSH2 0x6E4 PUSH1 0x0 PUSH2 0x12C7 JUMP JUMPDEST JUMP JUMPDEST PUSH1 0x0 PUSH2 0x6F0 PUSH2 0xBA9 JUMP JUMPDEST SWAP1 POP DUP1 PUSH20 0xFFFFFFFFFFFFFFFFFFFFFFFFFFFFFFFFFFFFFFFF AND PUSH2 0x711 PUSH2 0xACC JUMP JUMPDEST PUSH20 0xFFFFFFFFFFFFFFFFFFFFFFFFFFFFFFFFFFFFFFFF AND EQ PUSH2 0x767 JUMPI PUSH1 0x40 MLOAD PUSH32 0x8C379A000000000000000000000000000000000000000000000000000000000 DUP2 MSTORE PUSH1 0x4 ADD PUSH2 0x75E SWAP1 PUSH2 0x1D60 JUMP JUMPDEST PUSH1 0x40 MLOAD DUP1 SWAP2 SUB SWAP1 REVERT JUMPDEST PUSH2 0x770 DUP2 PUSH2 0x12C7 JUMP JUMPDEST POP JUMP JUMPDEST PUSH2 0x785 DUP3 PUSH2 0x77F PUSH2 0xBA9 JUMP JUMPDEST DUP4 PUSH2 0xD7A JUMP JUMPDEST PUSH2 0x78F DUP3 DUP3 PUSH2 0x10FA JUMP JUMPDEST POP POP JUMP JUMPDEST PUSH1 0x9 SLOAD DUP2 JUMP JUMPDEST PUSH1 0x0 PUSH1 0x5 PUSH1 0x0 SWAP1 SLOAD SWAP1 PUSH2 0x100 EXP SWAP1 DIV PUSH20 0xFFFFFFFFFFFFFFFFFFFFFFFFFFFFFFFFFFFFFFFF AND SWAP1 POP SWAP1 JUMP JUMPDEST PUSH1 0x8 SLOAD DUP2 JUMP JUMPDEST PUSH1 0x60 PUSH1 0x4 DUP1 SLOAD PUSH2 0x7D8 SWAP1 PUSH2 0x1C5A JUMP JUMPDEST DUP1 PUSH1 0x1F ADD PUSH1 0x20 DUP1 SWAP2 DIV MUL PUSH1 0x20 ADD PUSH1 0x40 MLOAD SWAP1 DUP2 ADD PUSH1 0x40 MSTORE DUP1 SWAP3 SWAP2 SWAP1 DUP2 DUP2 MSTORE PUSH1 0x20 ADD DUP3 DUP1 SLOAD PUSH2 0x804 SWAP1 PUSH2 0x1C5A JUMP JUMPDEST DUP1 ISZERO PUSH2 0x851 JUMPI DUP1 PUSH1 0x1F LT PUSH2 0x826 JUMPI PUSH2 0x100 DUP1 DUP4 SLOAD DIV MUL DUP4 MSTORE SWAP2 PUSH1 0x20 ADD SWAP2 PUSH2 0x851 JUMP JUMPDEST DUP3 ADD SWAP2 SWAP1 PUSH1 0x0 MSTORE PUSH1 0x20 PUSH1 0x0 KECCAK256 SWAP1 JUMPDEST DUP2 SLOAD DUP2 MSTORE SWAP1 PUSH1 0x1 ADD SWAP1 PUSH1 0x20 ADD DUP1 DUP4 GT PUSH2 0x834 JUMPI DUP3 SWAP1 SUB PUSH1 0x1F AND DUP3 ADD SWAP2 JUMPDEST POP POP POP POP POP SWAP1 POP SWAP1 JUMP JUMPDEST PUSH1 0x0 DUP1 PUSH2 0x866 PUSH2 0xBA9 JUMP JUMPDEST SWAP1 POP PUSH1 0x0 PUSH2 0x874 DUP3 DUP7 PUSH2 0xA45 JUMP JUMPDEST SWAP1 POP DUP4 DUP2 LT ISZERO PUSH2 0x8B9 JUMPI PUSH1 0x40 MLOAD PUSH32 0x8C379A000000000000000000000000000000000000000000000000000000000 DUP2 MSTORE PUSH1 0x4 ADD PUSH2 0x8B0 SWAP1 PUSH2 0x1DF2 JUMP JUMPDEST PUSH1 0x40 MLOAD DUP1 SWAP2 SUB SWAP1 REVERT JUMPDEST PUSH2 0x8C6 DUP3 DUP7 DUP7 DUP5 SUB PUSH2 0xBB1 JUMP JUMPDEST PUSH1 0x1 SWAP3 POP POP POP SWAP3 SWAP2 POP POP JUMP JUMPDEST PUSH2 0x8DA PUSH2 0x107C JUMP JUMPDEST PUSH1 0x1 ISZERO ISZERO PUSH1 0xB PUSH1 0x14 SWAP1 SLOAD SWAP1 PUSH2 0x100 EXP SWAP1 DIV PUSH1 0xFF AND ISZERO ISZERO SUB PUSH2 0x927 JUMPI PUSH1 0x40 MLOAD PUSH32 0xDE55C76500000000000000000000000000000000000000000000000000000000 DUP2 MSTORE PUSH1 0x4 ADD PUSH1 0x40 MLOAD DUP1 SWAP2 SUB SWAP1 REVERT JUMPDEST PUSH2 0x953 PUSH32 0x0 CALLER ADDRESS DUP5 PUSH2 0x12F8 JUMP JUMPDEST PUSH2 0x95D CALLER DUP3 PUSH2 0x1381 JUMP JUMPDEST PUSH2 0x96B PUSH2 0xDEAD PUSH2 0x3E8 PUSH2 0xA0F JUMP JUMPDEST POP PUSH32 0x0 PUSH20 0xFFFFFFFFFFFFFFFFFFFFFFFFFFFFFFFFFFFFFFFF AND PUSH4 0x70A08231 ADDRESS PUSH1 0x40 MLOAD DUP3 PUSH4 0xFFFFFFFF AND PUSH1 0xE0 SHL DUP2 MSTORE PUSH1 0x4 ADD PUSH2 0x9C5 SWAP2 SWAP1 PUSH2 0x1BD0 JUMP JUMPDEST PUSH1 0x20 PUSH1 0x40 MLOAD DUP1 DUP4 SUB DUP2 DUP7 GAS STATICCALL ISZERO DUP1 ISZERO PUSH2 0x9E2 JUMPI RETURNDATASIZE PUSH1 0x0 DUP1 RETURNDATACOPY RETURNDATASIZE PUSH1 0x0 REVERT JUMPDEST POP POP POP POP PUSH1 0x40 MLOAD RETURNDATASIZE PUSH1 0x1F NOT PUSH1 0x1F DUP3 ADD AND DUP3 ADD DUP1 PUSH1 0x40 MSTORE POP DUP2 ADD SWAP1 PUSH2 0xA06 SWAP2 SWAP1 PUSH2 0x1E27 JUMP JUMPDEST PUSH1 0xA DUP2 SWAP1 SSTORE POP POP JUMP JUMPDEST PUSH1 0x0 DUP1 PUSH2 0xA1A PUSH2 0xBA9 JUMP JUMPDEST SWAP1 POP PUSH2 0xA27 DUP2 DUP6 DUP6 PUSH2 0xE06 JUMP JUMPDEST PUSH1 0x1 SWAP2 POP POP SWAP3 SWAP2 POP POP JUMP JUMPDEST PUSH1 0xB PUSH1 0x14 SWAP1 SLOAD SWAP1 PUSH2 0x100 EXP SWAP1 DIV PUSH1 0xFF AND DUP2 JUMP JUMPDEST PUSH1 0x0 PUSH1 0x1 PUSH1 0x0 DUP5 PUSH20 0xFFFFFFFFFFFFFFFFFFFFFFFFFFFFFFFFFFFFFFFF AND PUSH20 0xFFFFFFFFFFFFFFFFFFFFFFFFFFFFFFFFFFFFFFFF AND DUP2 MSTORE PUSH1 0x20 ADD SWAP1 DUP2 MSTORE PUSH1 0x20 ADD PUSH1 0x0 KECCAK256 PUSH1 0x0 DUP4 PUSH20 0xFFFFFFFFFFFFFFFFFFFFFFFFFFFFFFFFFFFFFFFF AND PUSH20 0xFFFFFFFFFFFFFFFFFFFFFFFFFFFFFFFFFFFFFFFF AND DUP2 MSTORE PUSH1 0x20 ADD SWAP1 DUP2 MSTORE PUSH1 0x20 ADD PUSH1 0x0 KECCAK256 SLOAD SWAP1 POP SWAP3 SWAP2 POP POP JUMP JUMPDEST PUSH1 0x0 PUSH1 0x6 PUSH1 0x0 SWAP1 SLOAD SWAP1 PUSH2 0x100 EXP SWAP1 DIV PUSH20 0xFFFFFFFFFFFFFFFFFFFFFFFFFFFFFFFFFFFFFFFF AND SWAP1 POP SWAP1 JUMP JUMPDEST PUSH1 0xA SLOAD DUP2 JUMP JUMPDEST PUSH2 0xB04 PUSH2 0x107C JUMP JUMPDEST DUP1 PUSH1 0x6 PUSH1 0x0 PUSH2 0x100 EXP DUP2 SLOAD DUP2 PUSH20 0xFFFFFFFFFFFFFFFFFFFFFFFFFFFFFFFFFFFFFFFF MUL NOT AND SWAP1 DUP4 PUSH20 0xFFFFFFFFFFFFFFFFFFFFFFFFFFFFFFFFFFFFFFFF AND MUL OR SWAP1 SSTORE POP DUP1 PUSH20 0xFFFFFFFFFFFFFFFFFFFFFFFFFFFFFFFFFFFFFFFF AND PUSH2 0xB64 PUSH2 0x799 JUMP JUMPDEST PUSH20 0xFFFFFFFFFFFFFFFFFFFFFFFFFFFFFFFFFFFFFFFF AND PUSH32 0x38D16B8CAC22D99FC7C124B9CD0DE2D3FA1FAEF420BFE791D8C362D765E22700 PUSH1 0x40 MLOAD PUSH1 0x40 MLOAD DUP1 SWAP2 SUB SWAP1 LOG3 POP JUMP JUMPDEST PUSH1 0x0 CALLER SWAP1 POP SWAP1 JUMP JUMPDEST PUSH1 0x0 PUSH20 0xFFFFFFFFFFFFFFFFFFFFFFFFFFFFFFFFFFFFFFFF AND DUP4 PUSH20 0xFFFFFFFFFFFFFFFFFFFFFFFFFFFFFFFFFFFFFFFF AND SUB PUSH2 0xC20 JUMPI PUSH1 0x40 MLOAD PUSH32 0x8C379A000000000000000000000000000000000000000000000000000000000 DUP2 MSTORE PUSH1 0x4 ADD PUSH2 0xC17 SWAP1 PUSH2 0x1EC6 JUMP JUMPDEST PUSH1 0x40 MLOAD DUP1 SWAP2 SUB SWAP1 REVERT JUMPDEST PUSH1 0x0 PUSH20 0xFFFFFFFFFFFFFFFFFFFFFFFFFFFFFFFFFFFFFFFF AND DUP3 PUSH20 0xFFFFFFFFFFFFFFFFFFFFFFFFFFFFFFFFFFFFFFFF AND SUB PUSH2 0xC8F JUMPI PUSH1 0x40 MLOAD PUSH32 0x8C379A000000000000000000000000000000000000000000000000000000000 DUP2 MSTORE PUSH1 0x4 ADD PUSH2 0xC86 SWAP1 PUSH2 0x1F58 JUMP JUMPDEST PUSH1 0x40 MLOAD DUP1 SWAP2 SUB SWAP1 REVERT JUMPDEST DUP1 PUSH1 0x1 PUSH1 0x0 DUP6 PUSH20 0xFFFFFFFFFFFFFFFFFFFFFFFFFFFFFFFFFFFFFFFF AND PUSH20 0xFFFFFFFFFFFFFFFFFFFFFFFFFFFFFFFFFFFFFFFF AND DUP2 MSTORE PUSH1 0x20 ADD SWAP1 DUP2 MSTORE PUSH1 0x20 ADD PUSH1 0x0 KECCAK256 PUSH1 0x0 DUP5 PUSH20 0xFFFFFFFFFFFFFFFFFFFFFFFFFFFFFFFFFFFFFFFF AND PUSH20 0xFFFFFFFFFFFFFFFFFFFFFFFFFFFFFFFFFFFFFFFF AND DUP2 MSTORE PUSH1 0x20 ADD SWAP1 DUP2 MSTORE PUSH1 0x20 ADD PUSH1 0x0 KECCAK256 DUP2 SWAP1 SSTORE POP DUP2 PUSH20 0xFFFFFFFFFFFFFFFFFFFFFFFFFFFFFFFFFFFFFFFF AND DUP4 PUSH20 0xFFFFFFFFFFFFFFFFFFFFFFFFFFFFFFFFFFFFFFFF AND PUSH32 0x8C5BE1E5EBEC7D5BD14F71427D1E84F3DD0314C0F7B2291E5B200AC8C7C3B925 DUP4 PUSH1 0x40 MLOAD PUSH2 0xD6D SWAP2 SWAP1 PUSH2 0x1A86 JUMP JUMPDEST PUSH1 0x40 MLOAD DUP1 SWAP2 SUB SWAP1 LOG3 POP POP POP JUMP JUMPDEST PUSH1 0x0 PUSH2 0xD86 DUP5 DUP5 PUSH2 0xA45 JUMP JUMPDEST SWAP1 POP PUSH32 0xFFFFFFFFFFFFFFFFFFFFFFFFFFFFFFFFFFFFFFFFFFFFFFFFFFFFFFFFFFFFFFFF DUP2 EQ PUSH2 0xE00 JUMPI DUP2 DUP2 LT ISZERO PUSH2 0xDF2 JUMPI PUSH1 0x40 MLOAD PUSH32 0x8C379A000000000000000000000000000000000000000000000000000000000 DUP2 MSTORE PUSH1 0x4 ADD PUSH2 0xDE9 SWAP1 PUSH2 0x1FC4 JUMP JUMPDEST PUSH1 0x40 MLOAD DUP1 SWAP2 SUB SWAP1 REVERT JUMPDEST PUSH2 0xDFF DUP5 DUP5 DUP5 DUP5 SUB PUSH2 0xBB1 JUMP JUMPDEST JUMPDEST POP POP POP POP JUMP JUMPDEST PUSH1 0x0 PUSH20 0xFFFFFFFFFFFFFFFFFFFFFFFFFFFFFFFFFFFFFFFF AND DUP4 PUSH20 0xFFFFFFFFFFFFFFFFFFFFFFFFFFFFFFFFFFFFFFFF AND SUB PUSH2 0xE75 JUMPI PUSH1 0x40 MLOAD PUSH32 0x8C379A000000000000000000000000000000000000000000000000000000000 DUP2 MSTORE PUSH1 0x4 ADD PUSH2 0xE6C SWAP1 PUSH2 0x2056 JUMP JUMPDEST PUSH1 0x40 MLOAD DUP1 SWAP2 SUB SWAP1 REVERT JUMPDEST PUSH1 0x0 PUSH20 0xFFFFFFFFFFFFFFFFFFFFFFFFFFFFFFFFFFFFFFFF AND DUP3 PUSH20 0xFFFFFFFFFFFFFFFFFFFFFFFFFFFFFFFFFFFFFFFF AND SUB PUSH2 0xEE4 JUMPI PUSH1 0x40 MLOAD PUSH32 0x8C379A000000000000000000000000000000000000000000000000000000000 DUP2 MSTORE PUSH1 0x4 ADD PUSH2 0xEDB SWAP1 PUSH2 0x20E8 JUMP JUMPDEST PUSH1 0x40 MLOAD DUP1 SWAP2 SUB SWAP1 REVERT JUMPDEST PUSH2 0xEEF DUP4 DUP4 DUP4 PUSH2 0x14D7 JUMP JUMPDEST PUSH1 0x0 DUP1 PUSH1 0x0 DUP6 PUSH20 0xFFFFFFFFFFFFFFFFFFFFFFFFFFFFFFFFFFFFFFFF AND PUSH20 0xFFFFFFFFFFFFFFFFFFFFFFFFFFFFFFFFFFFFFFFF AND DUP2 MSTORE PUSH1 0x20 ADD SWAP1 DUP2 MSTORE PUSH1 0x20 ADD PUSH1 0x0 KECCAK256 SLOAD SWAP1 POP DUP2 DUP2 LT ISZERO PUSH2 0xF75 JUMPI PUSH1 0x40 MLOAD PUSH32 0x8C379A000000000000000000000000000000000000000000000000000000000 DUP2 MSTORE PUSH1 0x4 ADD PUSH2 0xF6C SWAP1 PUSH2 0x217A JUMP JUMPDEST PUSH1 0x40 MLOAD DUP1 SWAP2 SUB SWAP1 REVERT JUMPDEST DUP2 DUP2 SUB PUSH1 0x0 DUP1 DUP7 PUSH20 0xFFFFFFFFFFFFFFFFFFFFFFFFFFFFFFFFFFFFFFFF AND PUSH20 0xFFFFFFFFFFFFFFFFFFFFFFFFFFFFFFFFFFFFFFFF AND DUP2 MSTORE PUSH1 0x20 ADD SWAP1 DUP2 MSTORE PUSH1 0x20 ADD PUSH1 0x0 KECCAK256 DUP2 SWAP1 SSTORE POP DUP2 PUSH1 0x0 DUP1 DUP6 PUSH20 0xFFFFFFFFFFFFFFFFFFFFFFFFFFFFFFFFFFFFFFFF AND PUSH20 0xFFFFFFFFFFFFFFFFFFFFFFFFFFFFFFFFFFFFFFFF AND DUP2 MSTORE PUSH1 0x20 ADD SWAP1 DUP2 MSTORE PUSH1 0x20 ADD PUSH1 0x0 KECCAK256 PUSH1 0x0 DUP3 DUP3 SLOAD ADD SWAP3 POP POP DUP2 SWAP1 SSTORE POP DUP3 PUSH20 0xFFFFFFFFFFFFFFFFFFFFFFFFFFFFFFFFFFFFFFFF AND DUP5 PUSH20 0xFFFFFFFFFFFFFFFFFFFFFFFFFFFFFFFFFFFFFFFF AND PUSH32 0xDDF252AD1BE2C89B69C2B068FC378DAA952BA7F163C4A11628F55A4DF523B3EF DUP5 PUSH1 0x40 MLOAD PUSH2 0x1063 SWAP2 SWAP1 PUSH2 0x1A86 JUMP JUMPDEST PUSH1 0x40 MLOAD DUP1 SWAP2 SUB SWAP1 LOG3 PUSH2 0x1076 DUP5 DUP5 DUP5 PUSH2 0x14DC JUMP JUMPDEST POP POP POP POP JUMP JUMPDEST PUSH2 0x1084 PUSH2 0xBA9 JUMP JUMPDEST PUSH20 0xFFFFFFFFFFFFFFFFFFFFFFFFFFFFFFFFFFFFFFFF AND PUSH2 0x10A2 PUSH2 0x799 JUMP JUMPDEST PUSH20 0xFFFFFFFFFFFFFFFFFFFFFFFFFFFFFFFFFFFFFFFF AND EQ PUSH2 0x10F8 JUMPI PUSH1 0x40 MLOAD PUSH32 0x8C379A000000000000000000000000000000000000000000000000000000000 DUP2 MSTORE PUSH1 0x4 ADD PUSH2 0x10EF SWAP1 PUSH2 0x21E6 JUMP JUMPDEST PUSH1 0x40 MLOAD DUP1 SWAP2 SUB SWAP1 REVERT JUMPDEST JUMP JUMPDEST PUSH1 0x0 PUSH20 0xFFFFFFFFFFFFFFFFFFFFFFFFFFFFFFFFFFFFFFFF AND DUP3 PUSH20 0xFFFFFFFFFFFFFFFFFFFFFFFFFFFFFFFFFFFFFFFF AND SUB PUSH2 0x1169 JUMPI PUSH1 0x40 MLOAD PUSH32 0x8C379A000000000000000000000000000000000000000000000000000000000 DUP2 MSTORE PUSH1 0x4 ADD PUSH2 0x1160 SWAP1 PUSH2 0x2278 JUMP JUMPDEST PUSH1 0x40 MLOAD DUP1 SWAP2 SUB SWAP1 REVERT JUMPDEST PUSH2 0x1175 DUP3 PUSH1 0x0 DUP4 PUSH2 0x14D7 JUMP JUMPDEST PUSH1 0x0 DUP1 PUSH1 0x0 DUP5 PUSH20 0xFFFFFFFFFFFFFFFFFFFFFFFFFFFFFFFFFFFFFFFF AND PUSH20 0xFFFFFFFFFFFFFFFFFFFFFFFFFFFFFFFFFFFFFFFF AND DUP2 MSTORE PUSH1 0x20 ADD SWAP1 DUP2 MSTORE PUSH1 0x20 ADD PUSH1 0x0 KECCAK256 SLOAD SWAP1 POP DUP2 DUP2 LT ISZERO PUSH2 0x11FB JUMPI PUSH1 0x40 MLOAD PUSH32 0x8C379A000000000000000000000000000000000000000000000000000000000 DUP2 MSTORE PUSH1 0x4 ADD PUSH2 0x11F2 SWAP1 PUSH2 0x230A JUMP JUMPDEST PUSH1 0x40 MLOAD DUP1 SWAP2 SUB SWAP1 REVERT JUMPDEST DUP2 DUP2 SUB PUSH1 0x0 DUP1 DUP6 PUSH20 0xFFFFFFFFFFFFFFFFFFFFFFFFFFFFFFFFFFFFFFFF AND PUSH20 0xFFFFFFFFFFFFFFFFFFFFFFFFFFFFFFFFFFFFFFFF AND DUP2 MSTORE PUSH1 0x20 ADD SWAP1 DUP2 MSTORE PUSH1 0x20 ADD PUSH1 0x0 KECCAK256 DUP2 SWAP1 SSTORE POP DUP2 PUSH1 0x2 PUSH1 0x0 DUP3 DUP3 SLOAD SUB SWAP3 POP POP DUP2 SWAP1 SSTORE POP PUSH1 0x0 PUSH20 0xFFFFFFFFFFFFFFFFFFFFFFFFFFFFFFFFFFFFFFFF AND DUP4 PUSH20 0xFFFFFFFFFFFFFFFFFFFFFFFFFFFFFFFFFFFFFFFF AND PUSH32 0xDDF252AD1BE2C89B69C2B068FC378DAA952BA7F163C4A11628F55A4DF523B3EF DUP5 PUSH1 0x40 MLOAD PUSH2 0x12AE SWAP2 SWAP1 PUSH2 0x1A86 JUMP JUMPDEST PUSH1 0x40 MLOAD DUP1 SWAP2 SUB SWAP1 LOG3 PUSH2 0x12C2 DUP4 PUSH1 0x0 DUP5 PUSH2 0x14DC JUMP JUMPDEST POP POP POP JUMP JUMPDEST PUSH1 0x6 PUSH1 0x0 PUSH2 0x100 EXP DUP2 SLOAD SWAP1 PUSH20 0xFFFFFFFFFFFFFFFFFFFFFFFFFFFFFFFFFFFFFFFF MUL NOT AND SWAP1 SSTORE PUSH2 0x12F5 DUP2 PUSH2 0x14E1 JUMP JUMPDEST POP JUMP JUMPDEST PUSH2 0x137B DUP5 PUSH4 0x23B872DD PUSH1 0xE0 SHL DUP6 DUP6 DUP6 PUSH1 0x40 MLOAD PUSH1 0x24 ADD PUSH2 0x1319 SWAP4 SWAP3 SWAP2 SWAP1 PUSH2 0x232A JUMP JUMPDEST PUSH1 0x40 MLOAD PUSH1 0x20 DUP2 DUP4 SUB SUB DUP2 MSTORE SWAP1 PUSH1 0x40 MSTORE SWAP1 PUSH28 0xFFFFFFFFFFFFFFFFFFFFFFFFFFFFFFFFFFFFFFFFFFFFFFFFFFFFFFFF NOT AND PUSH1 0x20 DUP3 ADD DUP1 MLOAD PUSH28 0xFFFFFFFFFFFFFFFFFFFFFFFFFFFFFFFFFFFFFFFFFFFFFFFFFFFFFFFF DUP4 DUP2 DUP4 AND OR DUP4 MSTORE POP POP POP POP PUSH2 0x15A7 JUMP JUMPDEST POP POP POP POP JUMP JUMPDEST PUSH1 0x0 PUSH20 0xFFFFFFFFFFFFFFFFFFFFFFFFFFFFFFFFFFFFFFFF AND DUP3 PUSH20 0xFFFFFFFFFFFFFFFFFFFFFFFFFFFFFFFFFFFFFFFF AND SUB PUSH2 0x13F0 JUMPI PUSH1 0x40 MLOAD PUSH32 0x8C379A000000000000000000000000000000000000000000000000000000000 DUP2 MSTORE PUSH1 0x4 ADD PUSH2 0x13E7 SWAP1 PUSH2 0x23AD JUMP JUMPDEST PUSH1 0x40 MLOAD DUP1 SWAP2 SUB SWAP1 REVERT JUMPDEST PUSH2 0x13FC PUSH1 0x0 DUP4 DUP4 PUSH2 0x14D7 JUMP JUMPDEST DUP1 PUSH1 0x2 PUSH1 0x0 DUP3 DUP3 SLOAD PUSH2 0x140E SWAP2 SWAP1 PUSH2 0x1CBA JUMP JUMPDEST SWAP3 POP POP DUP2 SWAP1 SSTORE POP DUP1 PUSH1 0x0 DUP1 DUP5 PUSH20 0xFFFFFFFFFFFFFFFFFFFFFFFFFFFFFFFFFFFFFFFF AND PUSH20 0xFFFFFFFFFFFFFFFFFFFFFFFFFFFFFFFFFFFFFFFF AND DUP2 MSTORE PUSH1 0x20 ADD SWAP1 DUP2 MSTORE PUSH1 0x20 ADD PUSH1 0x0 KECCAK256 PUSH1 0x0 DUP3 DUP3 SLOAD ADD SWAP3 POP POP DUP2 SWAP1 SSTORE POP DUP2 PUSH20 0xFFFFFFFFFFFFFFFFFFFFFFFFFFFFFFFFFFFFFFFF AND PUSH1 0x0 PUSH20 0xFFFFFFFFFFFFFFFFFFFFFFFFFFFFFFFFFFFFFFFF AND PUSH32 0xDDF252AD1BE2C89B69C2B068FC378DAA952BA7F163C4A11628F55A4DF523B3EF DUP4 PUSH1 0x40 MLOAD PUSH2 0x14BF SWAP2 SWAP1 PUSH2 0x1A86 JUMP JUMPDEST PUSH1 0x40 MLOAD DUP1 SWAP2 SUB SWAP1 LOG3 PUSH2 0x14D3 PUSH1 0x0 DUP4 DUP4 PUSH2 0x14DC JUMP JUMPDEST POP POP JUMP JUMPDEST POP POP POP JUMP JUMPDEST POP POP POP JUMP JUMPDEST PUSH1 0x0 PUSH1 0x5 PUSH1 0x0 SWAP1 SLOAD SWAP1 PUSH2 0x100 EXP SWAP1 DIV PUSH20 0xFFFFFFFFFFFFFFFFFFFFFFFFFFFFFFFFFFFFFFFF AND SWAP1 POP DUP2 PUSH1 0x5 PUSH1 0x0 PUSH2 0x100 EXP DUP2 SLOAD DUP2 PUSH20 0xFFFFFFFFFFFFFFFFFFFFFFFFFFFFFFFFFFFFFFFF MUL NOT AND SWAP1 DUP4 PUSH20 0xFFFFFFFFFFFFFFFFFFFFFFFFFFFFFFFFFFFFFFFF AND MUL OR SWAP1 SSTORE POP DUP2 PUSH20 0xFFFFFFFFFFFFFFFFFFFFFFFFFFFFFFFFFFFFFFFF AND DUP2 PUSH20 0xFFFFFFFFFFFFFFFFFFFFFFFFFFFFFFFFFFFFFFFF AND PUSH32 0x8BE0079C531659141344CD1FD0A4F28419497F9722A3DAAFE3B4186F6B6457E0 PUSH1 0x40 MLOAD PUSH1 0x40 MLOAD DUP1 SWAP2 SUB SWAP1 LOG3 POP POP JUMP JUMPDEST PUSH1 0x0 PUSH2 0x1609 DUP3 PUSH1 0x40 MLOAD DUP1 PUSH1 0x40 ADD PUSH1 0x40 MSTORE DUP1 PUSH1 0x20 DUP2 MSTORE PUSH1 0x20 ADD PUSH32 0x5361666545524332303A206C6F772D6C6576656C2063616C6C206661696C6564 DUP2 MSTORE POP DUP6 PUSH20 0xFFFFFFFFFFFFFFFFFFFFFFFFFFFFFFFFFFFFFFFF AND PUSH2 0x166F SWAP1 SWAP3 SWAP2 SWAP1 PUSH4 0xFFFFFFFF AND JUMP JUMPDEST SWAP1 POP PUSH1 0x0 DUP2 MLOAD EQ DUP1 PUSH2 0x162B JUMPI POP DUP1 DUP1 PUSH1 0x20 ADD SWAP1 MLOAD DUP2 ADD SWAP1 PUSH2 0x162A SWAP2 SWAP1 PUSH2 0x23F9 JUMP JUMPDEST JUMPDEST PUSH2 0x166A JUMPI PUSH1 0x40 MLOAD PUSH32 0x8C379A000000000000000000000000000000000000000000000000000000000 DUP2 MSTORE PUSH1 0x4 ADD PUSH2 0x1661 SWAP1 PUSH2 0x2498 JUMP JUMPDEST PUSH1 0x40 MLOAD DUP1 SWAP2 SUB SWAP1 REVERT JUMPDEST POP POP POP JUMP JUMPDEST PUSH1 0x60 PUSH2 0x167E DUP5 DUP5 PUSH1 0x0 DUP6 PUSH2 0x1687 JUMP JUMPDEST SWAP1 POP SWAP4 SWAP3 POP POP POP JUMP JUMPDEST PUSH1 0x60 DUP3 SELFBALANCE LT ISZERO PUSH2 0x16CC JUMPI PUSH1 0x40 MLOAD PUSH32 0x8C379A000000000000000000000000000000000000000000000000000000000 DUP2 MSTORE PUSH1 0x4 ADD PUSH2 0x16C3 SWAP1 PUSH2 0x252A JUMP JUMPDEST PUSH1 0x40 MLOAD DUP1 SWAP2 SUB SWAP1 REVERT JUMPDEST PUSH1 0x0 DUP1 DUP7 PUSH20 0xFFFFFFFFFFFFFFFFFFFFFFFFFFFFFFFFFFFFFFFF AND DUP6 DUP8 PUSH1 0x40 MLOAD PUSH2 0x16F5 SWAP2 SWAP1 PUSH2 0x2591 JUMP JUMPDEST PUSH1 0x0 PUSH1 0x40 MLOAD DUP1 DUP4 SUB DUP2 DUP6 DUP8 GAS CALL SWAP3 POP POP POP RETURNDATASIZE DUP1 PUSH1 0x0 DUP2 EQ PUSH2 0x1732 JUMPI PUSH1 0x40 MLOAD SWAP2 POP PUSH1 0x1F NOT PUSH1 0x3F RETURNDATASIZE ADD AND DUP3 ADD PUSH1 0x40 MSTORE RETURNDATASIZE DUP3 MSTORE RETURNDATASIZE PUSH1 0x0 PUSH1 0x20 DUP5 ADD RETURNDATACOPY PUSH2 0x1737 JUMP JUMPDEST PUSH1 0x60 SWAP2 POP JUMPDEST POP SWAP2 POP SWAP2 POP PUSH2 0x1748 DUP8 DUP4 DUP4 DUP8 PUSH2 0x1754 JUMP JUMPDEST SWAP3 POP POP POP SWAP5 SWAP4 POP POP POP POP JUMP JUMPDEST PUSH1 0x60 DUP4 ISZERO PUSH2 0x17B6 JUMPI PUSH1 0x0 DUP4 MLOAD SUB PUSH2 0x17AE JUMPI PUSH2 0x176E DUP6 PUSH2 0x17C9 JUMP JUMPDEST PUSH2 0x17AD JUMPI PUSH1 0x40 MLOAD PUSH32 0x8C379A000000000000000000000000000000000000000000000000000000000 DUP2 MSTORE PUSH1 0x4 ADD PUSH2 0x17A4 SWAP1 PUSH2 0x25F4 JUMP JUMPDEST PUSH1 0x40 MLOAD DUP1 SWAP2 SUB SWAP1 REVERT JUMPDEST JUMPDEST DUP3 SWAP1 POP PUSH2 0x17C1 JUMP JUMPDEST PUSH2 0x17C0 DUP4 DUP4 PUSH2 0x17EC JUMP JUMPDEST JUMPDEST SWAP5 SWAP4 POP POP POP POP JUMP JUMPDEST PUSH1 0x0 DUP1 DUP3 PUSH20 0xFFFFFFFFFFFFFFFFFFFFFFFFFFFFFFFFFFFFFFFF AND EXTCODESIZE GT SWAP1 POP SWAP2 SWAP1 POP JUMP JUMPDEST PUSH1 0x0 DUP3 MLOAD GT ISZERO PUSH2 0x17FF JUMPI DUP2 MLOAD DUP1 DUP4 PUSH1 0x20 ADD REVERT JUMPDEST DUP1 PUSH1 0x40 MLOAD PUSH32 0x8C379A000000000000000000000000000000000000000000000000000000000 DUP2 MSTORE PUSH1 0x4 ADD PUSH2 0x1833 SWAP2 SWAP1 PUSH2 0x1966 JUMP JUMPDEST PUSH1 0x40 MLOAD DUP1 SWAP2 SUB SWAP1 REVERT JUMPDEST PUSH1 0x0 PUSH20 0xFFFFFFFFFFFFFFFFFFFFFFFFFFFFFFFFFFFFFFFF DUP3 AND SWAP1 POP SWAP2 SWAP1 POP JUMP JUMPDEST PUSH1 0x0 DUP2 SWAP1 POP SWAP2 SWAP1 POP JUMP JUMPDEST PUSH1 0x0 PUSH2 0x1881 PUSH2 0x187C PUSH2 0x1877 DUP5 PUSH2 0x183C JUMP JUMPDEST PUSH2 0x185C JUMP JUMPDEST PUSH2 0x183C JUMP JUMPDEST SWAP1 POP SWAP2 SWAP1 POP JUMP JUMPDEST PUSH1 0x0 PUSH2 0x1893 DUP3 PUSH2 0x1866 JUMP JUMPDEST SWAP1 POP SWAP2 SWAP1 POP JUMP JUMPDEST PUSH1 0x0 PUSH2 0x18A5 DUP3 PUSH2 0x1888 JUMP JUMPDEST SWAP1 POP SWAP2 SWAP1 POP JUMP JUMPDEST PUSH2 0x18B5 DUP2 PUSH2 0x189A JUMP JUMPDEST DUP3 MSTORE POP POP JUMP JUMPDEST PUSH1 0x0 PUSH1 0x20 DUP3 ADD SWAP1 POP PUSH2 0x18D0 PUSH1 0x0 DUP4 ADD DUP5 PUSH2 0x18AC JUMP JUMPDEST SWAP3 SWAP2 POP POP JUMP JUMPDEST PUSH1 0x0 DUP2 MLOAD SWAP1 POP SWAP2 SWAP1 POP JUMP JUMPDEST PUSH1 0x0 DUP3 DUP3 MSTORE PUSH1 0x20 DUP3 ADD SWAP1 POP SWAP3 SWAP2 POP POP JUMP JUMPDEST PUSH1 0x0 JUMPDEST DUP4 DUP2 LT ISZERO PUSH2 0x1910 JUMPI DUP1 DUP3 ADD MLOAD DUP2 DUP5 ADD MSTORE PUSH1 0x20 DUP2 ADD SWAP1 POP PUSH2 0x18F5 JUMP JUMPDEST PUSH1 0x0 DUP5 DUP5 ADD MSTORE POP POP POP POP JUMP JUMPDEST PUSH1 0x0 PUSH1 0x1F NOT PUSH1 0x1F DUP4 ADD AND SWAP1 POP SWAP2 SWAP1 POP JUMP JUMPDEST PUSH1 0x0 PUSH2 0x1938 DUP3 PUSH2 0x18D6 JUMP JUMPDEST PUSH2 0x1942 DUP2 DUP6 PUSH2 0x18E1 JUMP JUMPDEST SWAP4 POP PUSH2 0x1952 DUP2 DUP6 PUSH1 0x20 DUP7 ADD PUSH2 0x18F2 JUMP JUMPDEST PUSH2 0x195B DUP2 PUSH2 0x191C JUMP JUMPDEST DUP5 ADD SWAP2 POP POP SWAP3 SWAP2 POP POP JUMP JUMPDEST PUSH1 0x0 PUSH1 0x20 DUP3 ADD SWAP1 POP DUP2 DUP2 SUB PUSH1 0x0 DUP4 ADD MSTORE PUSH2 0x1980 DUP2 DUP5 PUSH2 0x192D JUMP JUMPDEST SWAP1 POP SWAP3 SWAP2 POP POP JUMP JUMPDEST PUSH1 0x0 DUP1 REVERT JUMPDEST PUSH1 0x0 PUSH2 0x1998 DUP3 PUSH2 0x183C JUMP JUMPDEST SWAP1 POP SWAP2 SWAP1 POP JUMP JUMPDEST PUSH2 0x19A8 DUP2 PUSH2 0x198D JUMP JUMPDEST DUP2 EQ PUSH2 0x19B3 JUMPI PUSH1 0x0 DUP1 REVERT JUMPDEST POP JUMP JUMPDEST PUSH1 0x0 DUP2 CALLDATALOAD SWAP1 POP PUSH2 0x19C5 DUP2 PUSH2 0x199F JUMP JUMPDEST SWAP3 SWAP2 POP POP JUMP JUMPDEST PUSH1 0x0 DUP2 SWAP1 POP SWAP2 SWAP1 POP JUMP JUMPDEST PUSH2 0x19DE DUP2 PUSH2 0x19CB JUMP JUMPDEST DUP2 EQ PUSH2 0x19E9 JUMPI PUSH1 0x0 DUP1 REVERT JUMPDEST POP JUMP JUMPDEST PUSH1 0x0 DUP2 CALLDATALOAD SWAP1 POP PUSH2 0x19FB DUP2 PUSH2 0x19D5 JUMP JUMPDEST SWAP3 SWAP2 POP POP JUMP JUMPDEST PUSH1 0x0 DUP1 PUSH1 0x40 DUP4 DUP6 SUB SLT ISZERO PUSH2 0x1A18 JUMPI PUSH2 0x1A17 PUSH2 0x1988 JUMP JUMPDEST JUMPDEST PUSH1 0x0 PUSH2 0x1A26 DUP6 DUP3 DUP7 ADD PUSH2 0x19B6 JUMP JUMPDEST SWAP3 POP POP PUSH1 0x20 PUSH2 0x1A37 DUP6 DUP3 DUP7 ADD PUSH2 0x19EC JUMP JUMPDEST SWAP2 POP POP SWAP3 POP SWAP3 SWAP1 POP JUMP JUMPDEST PUSH1 0x0 DUP2 ISZERO ISZERO SWAP1 POP SWAP2 SWAP1 POP JUMP JUMPDEST PUSH2 0x1A56 DUP2 PUSH2 0x1A41 JUMP JUMPDEST DUP3 MSTORE POP POP JUMP JUMPDEST PUSH1 0x0 PUSH1 0x20 DUP3 ADD SWAP1 POP PUSH2 0x1A71 PUSH1 0x0 DUP4 ADD DUP5 PUSH2 0x1A4D JUMP JUMPDEST SWAP3 SWAP2 POP POP JUMP JUMPDEST PUSH2 0x1A80 DUP2 PUSH2 0x19CB JUMP JUMPDEST DUP3 MSTORE POP POP JUMP JUMPDEST PUSH1 0x0 PUSH1 0x20 DUP3 ADD SWAP1 POP PUSH2 0x1A9B PUSH1 0x0 DUP4 ADD DUP5 PUSH2 0x1A77 JUMP JUMPDEST SWAP3 SWAP2 POP POP JUMP JUMPDEST PUSH1 0x0 DUP1 PUSH1 0x0 PUSH1 0x60 DUP5 DUP7 SUB SLT ISZERO PUSH2 0x1ABA JUMPI PUSH2 0x1AB9 PUSH2 0x1988 JUMP JUMPDEST JUMPDEST PUSH1 0x0 PUSH2 0x1AC8 DUP7 DUP3 DUP8 ADD PUSH2 0x19B6 JUMP JUMPDEST SWAP4 POP POP PUSH1 0x20 PUSH2 0x1AD9 DUP7 DUP3 DUP8 ADD PUSH2 0x19B6 JUMP JUMPDEST SWAP3 POP POP PUSH1 0x40 PUSH2 0x1AEA DUP7 DUP3 DUP8 ADD PUSH2 0x19EC JUMP JUMPDEST SWAP2 POP POP SWAP3 POP SWAP3 POP SWAP3 JUMP JUMPDEST PUSH1 0x0 PUSH1 0xFF DUP3 AND SWAP1 POP SWAP2 SWAP1 POP JUMP JUMPDEST PUSH2 0x1B0A DUP2 PUSH2 0x1AF4 JUMP JUMPDEST DUP3 MSTORE POP POP JUMP JUMPDEST PUSH1 0x0 PUSH1 0x20 DUP3 ADD SWAP1 POP PUSH2 0x1B25 PUSH1 0x0 DUP4 ADD DUP5 PUSH2 0x1B01 JUMP JUMPDEST SWAP3 SWAP2 POP POP JUMP JUMPDEST PUSH1 0x0 PUSH2 0x1B36 DUP3 PUSH2 0x183C JUMP JUMPDEST SWAP1 POP SWAP2 SWAP1 POP JUMP JUMPDEST PUSH2 0x1B46 DUP2 PUSH2 0x1B2B JUMP JUMPDEST DUP3 MSTORE POP POP JUMP JUMPDEST PUSH1 0x0 PUSH1 0x20 DUP3 ADD SWAP1 POP PUSH2 0x1B61 PUSH1 0x0 DUP4 ADD DUP5 PUSH2 0x1B3D JUMP JUMPDEST SWAP3 SWAP2 POP POP JUMP JUMPDEST PUSH1 0x0 PUSH1 0x20 DUP3 DUP5 SUB SLT ISZERO PUSH2 0x1B7D JUMPI PUSH2 0x1B7C PUSH2 0x1988 JUMP JUMPDEST JUMPDEST PUSH1 0x0 PUSH2 0x1B8B DUP5 DUP3 DUP6 ADD PUSH2 0x19EC JUMP JUMPDEST SWAP2 POP POP SWAP3 SWAP2 POP POP JUMP JUMPDEST PUSH1 0x0 PUSH1 0x20 DUP3 DUP5 SUB SLT ISZERO PUSH2 0x1BAA JUMPI PUSH2 0x1BA9 PUSH2 0x1988 JUMP JUMPDEST JUMPDEST PUSH1 0x0 PUSH2 0x1BB8 DUP5 DUP3 DUP6 ADD PUSH2 0x19B6 JUMP JUMPDEST SWAP2 POP POP SWAP3 SWAP2 POP POP JUMP JUMPDEST PUSH2 0x1BCA DUP2 PUSH2 0x198D JUMP JUMPDEST DUP3 MSTORE POP POP JUMP JUMPDEST PUSH1 0x0 PUSH1 0x20 DUP3 ADD SWAP1 POP PUSH2 0x1BE5 PUSH1 0x0 DUP4 ADD DUP5 PUSH2 0x1BC1 JUMP JUMPDEST SWAP3 SWAP2 POP POP JUMP JUMPDEST PUSH1 0x0 DUP1 PUSH1 0x40 DUP4 DUP6 SUB SLT ISZERO PUSH2 0x1C02 JUMPI PUSH2 0x1C01 PUSH2 0x1988 JUMP JUMPDEST JUMPDEST PUSH1 0x0 PUSH2 0x1C10 DUP6 DUP3 DUP7 ADD PUSH2 0x19B6 JUMP JUMPDEST SWAP3 POP POP PUSH1 0x20 PUSH2 0x1C21 DUP6 DUP3 DUP7 ADD PUSH2 0x19B6 JUMP JUMPDEST SWAP2 POP POP SWAP3 POP SWAP3 SWAP1 POP JUMP JUMPDEST PUSH32 0x4E487B7100000000000000000000000000000000000000000000000000000000 PUSH1 0x0 MSTORE PUSH1 0x22 PUSH1 0x4 MSTORE PUSH1 0x24 PUSH1 0x0 REVERT JUMPDEST PUSH1 0x0 PUSH1 0x2 DUP3 DIV SWAP1 POP PUSH1 0x1 DUP3 AND DUP1 PUSH2 0x1C72 JUMPI PUSH1 0x7F DUP3 AND SWAP2 POP JUMPDEST PUSH1 0x20 DUP3 LT DUP2 SUB PUSH2 0x1C85 JUMPI PUSH2 0x1C84 PUSH2 0x1C2B JUMP JUMPDEST JUMPDEST POP SWAP2 SWAP1 POP JUMP JUMPDEST PUSH32 0x4E487B7100000000000000000000000000000000000000000000000000000000 PUSH1 0x0 MSTORE PUSH1 0x11 PUSH1 0x4 MSTORE PUSH1 0x24 PUSH1 0x0 REVERT JUMPDEST PUSH1 0x0 PUSH2 0x1CC5 DUP3 PUSH2 0x19CB JUMP JUMPDEST SWAP2 POP PUSH2 0x1CD0 DUP4 PUSH2 0x19CB JUMP JUMPDEST SWAP3 POP DUP3 DUP3 ADD SWAP1 POP DUP1 DUP3 GT ISZERO PUSH2 0x1CE8 JUMPI PUSH2 0x1CE7 PUSH2 0x1C8B JUMP JUMPDEST JUMPDEST SWAP3 SWAP2 POP POP JUMP JUMPDEST PUSH32 0x4F776E61626C6532537465703A2063616C6C6572206973206E6F742074686520 PUSH1 0x0 DUP3 ADD MSTORE PUSH32 0x6E6577206F776E65720000000000000000000000000000000000000000000000 PUSH1 0x20 DUP3 ADD MSTORE POP JUMP JUMPDEST PUSH1 0x0 PUSH2 0x1D4A PUSH1 0x29 DUP4 PUSH2 0x18E1 JUMP JUMPDEST SWAP2 POP PUSH2 0x1D55 DUP3 PUSH2 0x1CEE JUMP JUMPDEST PUSH1 0x40 DUP3 ADD SWAP1 POP SWAP2 SWAP1 POP JUMP JUMPDEST PUSH1 0x0 PUSH1 0x20 DUP3 ADD SWAP1 POP DUP2 DUP2 SUB PUSH1 0x0 DUP4 ADD MSTORE PUSH2 0x1D79 DUP2 PUSH2 0x1D3D JUMP JUMPDEST SWAP1 POP SWAP2 SWAP1 POP JUMP JUMPDEST PUSH32 0x45524332303A2064656372656173656420616C6C6F77616E63652062656C6F77 PUSH1 0x0 DUP3 ADD MSTORE PUSH32 0x207A65726F000000000000000000000000000000000000000000000000000000 PUSH1 0x20 DUP3 ADD MSTORE POP JUMP JUMPDEST PUSH1 0x0 PUSH2 0x1DDC PUSH1 0x25 DUP4 PUSH2 0x18E1 JUMP JUMPDEST SWAP2 POP PUSH2 0x1DE7 DUP3 PUSH2 0x1D80 JUMP JUMPDEST PUSH1 0x40 DUP3 ADD SWAP1 POP SWAP2 SWAP1 POP JUMP JUMPDEST PUSH1 0x0 PUSH1 0x20 DUP3 ADD SWAP1 POP DUP2 DUP2 SUB PUSH1 0x0 DUP4 ADD MSTORE PUSH2 0x1E0B DUP2 PUSH2 0x1DCF JUMP JUMPDEST SWAP1 POP SWAP2 SWAP1 POP JUMP JUMPDEST PUSH1 0x0 DUP2 MLOAD SWAP1 POP PUSH2 0x1E21 DUP2 PUSH2 0x19D5 JUMP JUMPDEST SWAP3 SWAP2 POP POP JUMP JUMPDEST PUSH1 0x0 PUSH1 0x20 DUP3 DUP5 SUB SLT ISZERO PUSH2 0x1E3D JUMPI PUSH2 0x1E3C PUSH2 0x1988 JUMP JUMPDEST JUMPDEST PUSH1 0x0 PUSH2 0x1E4B DUP5 DUP3 DUP6 ADD PUSH2 0x1E12 JUMP JUMPDEST SWAP2 POP POP SWAP3 SWAP2 POP POP JUMP JUMPDEST PUSH32 0x45524332303A20617070726F76652066726F6D20746865207A65726F20616464 PUSH1 0x0 DUP3 ADD MSTORE PUSH32 0x7265737300000000000000000000000000000000000000000000000000000000 PUSH1 0x20 DUP3 ADD MSTORE POP JUMP JUMPDEST PUSH1 0x0 PUSH2 0x1EB0 PUSH1 0x24 DUP4 PUSH2 0x18E1 JUMP JUMPDEST SWAP2 POP PUSH2 0x1EBB DUP3 PUSH2 0x1E54 JUMP JUMPDEST PUSH1 0x40 DUP3 ADD SWAP1 POP SWAP2 SWAP1 POP JUMP JUMPDEST PUSH1 0x0 PUSH1 0x20 DUP3 ADD SWAP1 POP DUP2 DUP2 SUB PUSH1 0x0 DUP4 ADD MSTORE PUSH2 0x1EDF DUP2 PUSH2 0x1EA3 JUMP JUMPDEST SWAP1 POP SWAP2 SWAP1 POP JUMP JUMPDEST PUSH32 0x45524332303A20617070726F766520746F20746865207A65726F206164647265 PUSH1 0x0 DUP3 ADD MSTORE PUSH32 0x7373000000000000000000000000000000000000000000000000000000000000 PUSH1 0x20 DUP3 ADD MSTORE POP JUMP JUMPDEST PUSH1 0x0 PUSH2 0x1F42 PUSH1 0x22 DUP4 PUSH2 0x18E1 JUMP JUMPDEST SWAP2 POP PUSH2 0x1F4D DUP3 PUSH2 0x1EE6 JUMP JUMPDEST PUSH1 0x40 DUP3 ADD SWAP1 POP SWAP2 SWAP1 POP JUMP JUMPDEST PUSH1 0x0 PUSH1 0x20 DUP3 ADD SWAP1 POP DUP2 DUP2 SUB PUSH1 0x0 DUP4 ADD MSTORE PUSH2 0x1F71 DUP2 PUSH2 0x1F35 JUMP JUMPDEST SWAP1 POP SWAP2 SWAP1 POP JUMP JUMPDEST PUSH32 0x45524332303A20696E73756666696369656E7420616C6C6F77616E6365000000 PUSH1 0x0 DUP3 ADD MSTORE POP JUMP JUMPDEST PUSH1 0x0 PUSH2 0x1FAE PUSH1 0x1D DUP4 PUSH2 0x18E1 JUMP JUMPDEST SWAP2 POP PUSH2 0x1FB9 DUP3 PUSH2 0x1F78 JUMP JUMPDEST PUSH1 0x20 DUP3 ADD SWAP1 POP SWAP2 SWAP1 POP JUMP JUMPDEST PUSH1 0x0 PUSH1 0x20 DUP3 ADD SWAP1 POP DUP2 DUP2 SUB PUSH1 0x0 DUP4 ADD MSTORE PUSH2 0x1FDD DUP2 PUSH2 0x1FA1 JUMP JUMPDEST SWAP1 POP SWAP2 SWAP1 POP JUMP JUMPDEST PUSH32 0x45524332303A207472616E736665722066726F6D20746865207A65726F206164 PUSH1 0x0 DUP3 ADD MSTORE PUSH32 0x6472657373000000000000000000000000000000000000000000000000000000 PUSH1 0x20 DUP3 ADD MSTORE POP JUMP JUMPDEST PUSH1 0x0 PUSH2 0x2040 PUSH1 0x25 DUP4 PUSH2 0x18E1 JUMP JUMPDEST SWAP2 POP PUSH2 0x204B DUP3 PUSH2 0x1FE4 JUMP JUMPDEST PUSH1 0x40 DUP3 ADD SWAP1 POP SWAP2 SWAP1 POP JUMP JUMPDEST PUSH1 0x0 PUSH1 0x20 DUP3 ADD SWAP1 POP DUP2 DUP2 SUB PUSH1 0x0 DUP4 ADD MSTORE PUSH2 0x206F DUP2 PUSH2 0x2033 JUMP JUMPDEST SWAP1 POP SWAP2 SWAP1 POP JUMP JUMPDEST PUSH32 0x45524332303A207472616E7366657220746F20746865207A65726F2061646472 PUSH1 0x0 DUP3 ADD MSTORE PUSH32 0x6573730000000000000000000000000000000000000000000000000000000000 PUSH1 0x20 DUP3 ADD MSTORE POP JUMP JUMPDEST PUSH1 0x0 PUSH2 0x20D2 PUSH1 0x23 DUP4 PUSH2 0x18E1 JUMP JUMPDEST SWAP2 POP PUSH2 0x20DD DUP3 PUSH2 0x2076 JUMP JUMPDEST PUSH1 0x40 DUP3 ADD SWAP1 POP SWAP2 SWAP1 POP JUMP JUMPDEST PUSH1 0x0 PUSH1 0x20 DUP3 ADD SWAP1 POP DUP2 DUP2 SUB PUSH1 0x0 DUP4 ADD MSTORE PUSH2 0x2101 DUP2 PUSH2 0x20C5 JUMP JUMPDEST SWAP1 POP SWAP2 SWAP1 POP JUMP JUMPDEST PUSH32 0x45524332303A207472616E7366657220616D6F756E7420657863656564732062 PUSH1 0x0 DUP3 ADD MSTORE PUSH32 0x616C616E63650000000000000000000000000000000000000000000000000000 PUSH1 0x20 DUP3 ADD MSTORE POP JUMP JUMPDEST PUSH1 0x0 PUSH2 0x2164 PUSH1 0x26 DUP4 PUSH2 0x18E1 JUMP JUMPDEST SWAP2 POP PUSH2 0x216F DUP3 PUSH2 0x2108 JUMP JUMPDEST PUSH1 0x40 DUP3 ADD SWAP1 POP SWAP2 SWAP1 POP JUMP JUMPDEST PUSH1 0x0 PUSH1 0x20 DUP3 ADD SWAP1 POP DUP2 DUP2 SUB PUSH1 0x0 DUP4 ADD MSTORE PUSH2 0x2193 DUP2 PUSH2 0x2157 JUMP JUMPDEST SWAP1 POP SWAP2 SWAP1 POP JUMP JUMPDEST PUSH32 0x4F776E61626C653A2063616C6C6572206973206E6F7420746865206F776E6572 PUSH1 0x0 DUP3 ADD MSTORE POP JUMP JUMPDEST PUSH1 0x0 PUSH2 0x21D0 PUSH1 0x20 DUP4 PUSH2 0x18E1 JUMP JUMPDEST SWAP2 POP PUSH2 0x21DB DUP3 PUSH2 0x219A JUMP JUMPDEST PUSH1 0x20 DUP3 ADD SWAP1 POP SWAP2 SWAP1 POP JUMP JUMPDEST PUSH1 0x0 PUSH1 0x20 DUP3 ADD SWAP1 POP DUP2 DUP2 SUB PUSH1 0x0 DUP4 ADD MSTORE PUSH2 0x21FF DUP2 PUSH2 0x21C3 JUMP JUMPDEST SWAP1 POP SWAP2 SWAP1 POP JUMP JUMPDEST PUSH32 0x45524332303A206275726E2066726F6D20746865207A65726F20616464726573 PUSH1 0x0 DUP3 ADD MSTORE PUSH32 0x7300000000000000000000000000000000000000000000000000000000000000 PUSH1 0x20 DUP3 ADD MSTORE POP JUMP JUMPDEST PUSH1 0x0 PUSH2 0x2262 PUSH1 0x21 DUP4 PUSH2 0x18E1 JUMP JUMPDEST SWAP2 POP PUSH2 0x226D DUP3 PUSH2 0x2206 JUMP JUMPDEST PUSH1 0x40 DUP3 ADD SWAP1 POP SWAP2 SWAP1 POP JUMP JUMPDEST PUSH1 0x0 PUSH1 0x20 DUP3 ADD SWAP1 POP DUP2 DUP2 SUB PUSH1 0x0 DUP4 ADD MSTORE PUSH2 0x2291 DUP2 PUSH2 0x2255 JUMP JUMPDEST SWAP1 POP SWAP2 SWAP1 POP JUMP JUMPDEST PUSH32 0x45524332303A206275726E20616D6F756E7420657863656564732062616C616E PUSH1 0x0 DUP3 ADD MSTORE PUSH32 0x6365000000000000000000000000000000000000000000000000000000000000 PUSH1 0x20 DUP3 ADD MSTORE POP JUMP JUMPDEST PUSH1 0x0 PUSH2 0x22F4 PUSH1 0x22 DUP4 PUSH2 0x18E1 JUMP JUMPDEST SWAP2 POP PUSH2 0x22FF DUP3 PUSH2 0x2298 JUMP JUMPDEST PUSH1 0x40 DUP3 ADD SWAP1 POP SWAP2 SWAP1 POP JUMP JUMPDEST PUSH1 0x0 PUSH1 0x20 DUP3 ADD SWAP1 POP DUP2 DUP2 SUB PUSH1 0x0 DUP4 ADD MSTORE PUSH2 0x2323 DUP2 PUSH2 0x22E7 JUMP JUMPDEST SWAP1 POP SWAP2 SWAP1 POP JUMP JUMPDEST PUSH1 0x0 PUSH1 0x60 DUP3 ADD SWAP1 POP PUSH2 0x233F PUSH1 0x0 DUP4 ADD DUP7 PUSH2 0x1BC1 JUMP JUMPDEST PUSH2 0x234C PUSH1 0x20 DUP4 ADD DUP6 PUSH2 0x1BC1 JUMP JUMPDEST PUSH2 0x2359 PUSH1 0x40 DUP4 ADD DUP5 PUSH2 0x1A77 JUMP JUMPDEST SWAP5 SWAP4 POP POP POP POP JUMP JUMPDEST PUSH32 0x45524332303A206D696E7420746F20746865207A65726F206164647265737300 PUSH1 0x0 DUP3 ADD MSTORE POP JUMP JUMPDEST PUSH1 0x0 PUSH2 0x2397 PUSH1 0x1F DUP4 PUSH2 0x18E1 JUMP JUMPDEST SWAP2 POP PUSH2 0x23A2 DUP3 PUSH2 0x2361 JUMP JUMPDEST PUSH1 0x20 DUP3 ADD SWAP1 POP SWAP2 SWAP1 POP JUMP JUMPDEST PUSH1 0x0 PUSH1 0x20 DUP3 ADD SWAP1 POP DUP2 DUP2 SUB PUSH1 0x0 DUP4 ADD MSTORE PUSH2 0x23C6 DUP2 PUSH2 0x238A JUMP JUMPDEST SWAP1 POP SWAP2 SWAP1 POP JUMP JUMPDEST PUSH2 0x23D6 DUP2 PUSH2 0x1A41 JUMP JUMPDEST DUP2 EQ PUSH2 0x23E1 JUMPI PUSH1 0x0 DUP1 REVERT JUMPDEST POP JUMP JUMPDEST PUSH1 0x0 DUP2 MLOAD SWAP1 POP PUSH2 0x23F3 DUP2 PUSH2 0x23CD JUMP JUMPDEST SWAP3 SWAP2 POP POP JUMP JUMPDEST PUSH1 0x0 PUSH1 0x20 DUP3 DUP5 SUB SLT ISZERO PUSH2 0x240F JUMPI PUSH2 0x240E PUSH2 0x1988 JUMP JUMPDEST JUMPDEST PUSH1 0x0 PUSH2 0x241D DUP5 DUP3 DUP6 ADD PUSH2 0x23E4 JUMP JUMPDEST SWAP2 POP POP SWAP3 SWAP2 POP POP JUMP JUMPDEST PUSH32 0x5361666545524332303A204552433230206F7065726174696F6E20646964206E PUSH1 0x0 DUP3 ADD MSTORE PUSH32 0x6F74207375636365656400000000000000000000000000000000000000000000 PUSH1 0x20 DUP3 ADD MSTORE POP JUMP JUMPDEST PUSH1 0x0 PUSH2 0x2482 PUSH1 0x2A DUP4 PUSH2 0x18E1 JUMP JUMPDEST SWAP2 POP PUSH2 0x248D DUP3 PUSH2 0x2426 JUMP JUMPDEST PUSH1 0x40 DUP3 ADD SWAP1 POP SWAP2 SWAP1 POP JUMP JUMPDEST PUSH1 0x0 PUSH1 0x20 DUP3 ADD SWAP1 POP DUP2 DUP2 SUB PUSH1 0x0 DUP4 ADD MSTORE PUSH2 0x24B1 DUP2 PUSH2 0x2475 JUMP JUMPDEST SWAP1 POP SWAP2 SWAP1 POP JUMP JUMPDEST PUSH32 0x416464726573733A20696E73756666696369656E742062616C616E636520666F PUSH1 0x0 DUP3 ADD MSTORE PUSH32 0x722063616C6C0000000000000000000000000000000000000000000000000000 PUSH1 0x20 DUP3 ADD MSTORE POP JUMP JUMPDEST PUSH1 0x0 PUSH2 0x2514 PUSH1 0x26 DUP4 PUSH2 0x18E1 JUMP JUMPDEST SWAP2 POP PUSH2 0x251F DUP3 PUSH2 0x24B8 JUMP JUMPDEST PUSH1 0x40 DUP3 ADD SWAP1 POP SWAP2 SWAP1 POP JUMP JUMPDEST PUSH1 0x0 PUSH1 0x20 DUP3 ADD SWAP1 POP DUP2 DUP2 SUB PUSH1 0x0 DUP4 ADD MSTORE PUSH2 0x2543 DUP2 PUSH2 0x2507 JUMP JUMPDEST SWAP1 POP SWAP2 SWAP1 POP JUMP JUMPDEST PUSH1 0x0 DUP2 MLOAD SWAP1 POP SWAP2 SWAP1 POP JUMP JUMPDEST PUSH1 0x0 DUP2 SWAP1 POP SWAP3 SWAP2 POP POP JUMP JUMPDEST PUSH1 0x0 PUSH2 0x256B DUP3 PUSH2 0x254A JUMP JUMPDEST PUSH2 0x2575 DUP2 DUP6 PUSH2 0x2555 JUMP JUMPDEST SWAP4 POP PUSH2 0x2585 DUP2 DUP6 PUSH1 0x20 DUP7 ADD PUSH2 0x18F2 JUMP JUMPDEST DUP1 DUP5 ADD SWAP2 POP POP SWAP3 SWAP2 POP POP JUMP JUMPDEST PUSH1 0x0 PUSH2 0x259D DUP3 DUP5 PUSH2 0x2560 JUMP JUMPDEST SWAP2 POP DUP2 SWAP1 POP SWAP3 SWAP2 POP POP JUMP JUMPDEST PUSH32 0x416464726573733A2063616C6C20746F206E6F6E2D636F6E7472616374000000 PUSH1 0x0 DUP3 ADD MSTORE POP JUMP JUMPDEST PUSH1 0x0 PUSH2 0x25DE PUSH1 0x1D DUP4 PUSH2 0x18E1 JUMP JUMPDEST SWAP2 POP PUSH2 0x25E9 DUP3 PUSH2 0x25A8 JUMP JUMPDEST PUSH1 0x20 DUP3 ADD SWAP1 POP SWAP2 SWAP1 POP JUMP JUMPDEST PUSH1 0x0 PUSH1 0x20 DUP3 ADD SWAP1 POP DUP2 DUP2 SUB PUSH1 0x0 DUP4 ADD MSTORE PUSH2 0x260D DUP2 PUSH2 0x25D1 JUMP JUMPDEST SWAP1 POP SWAP2 SWAP1 POP JUMP INVALID LOG2 PUSH5 0x6970667358 0x22 SLT KECCAK256 RETURNDATASIZE SDIV 0xDF PUSH4 0x40938460 0xC0 0xC2 AND PUSH10 0xAAF2CD864E8D3F37CA7 SWAP16 PUSH26 0x5F3978757D367A6664736F6C6343000813003300000000000000 "
				},
				"gasEstimates": {
					"creation": {
						"codeDepositCost": "1960400",
						"executionCost": "infinite",
						"totalCost": "infinite"
					},
					"external": {
						"FEES()": "2474",
						"MINT_AND_REDEEM_FEE()": "2518",
						"_BACKING()": "infinite",
						"acceptOwnership()": "54769",
						"allowance(address,address)": "infinite",
						"approve(address,uint256)": "infinite",
						"balanceOf(address)": "2908",
						"burn(uint256)": "infinite",
						"burnFrom(address,uint256)": "infinite",
						"decimals()": "477",
						"decreaseAllowance(address,uint256)": "infinite",
						"feeAddress()": "2604",
						"fillContract(uint256)": "infinite",
						"increaseAllowance(address,uint256)": "infinite",
						"name()": "infinite",
						"owner()": "2589",
						"pendingOwner()": "2588",
						"renounceOwnership()": "54758",
						"setStart()": "26771",
						"start()": "2610",
						"symbol()": "infinite",
						"totalBacking()": "2517",
						"totalSupply()": "2527",
						"transfer(address,uint256)": "infinite",
						"transferFrom(address,address,uint256)": "infinite",
						"transferOwnership(address)": "infinite"
					}
				},
				"methodIdentifiers": {
					"FEES()": "8b7b23ee",
					"MINT_AND_REDEEM_FEE()": "92054fe7",
					"_BACKING()": "029cd242",
					"acceptOwnership()": "79ba5097",
					"allowance(address,address)": "dd62ed3e",
					"approve(address,uint256)": "095ea7b3",
					"balanceOf(address)": "70a08231",
					"burn(uint256)": "42966c68",
					"burnFrom(address,uint256)": "79cc6790",
					"decimals()": "313ce567",
					"decreaseAllowance(address,uint256)": "a457c2d7",
					"feeAddress()": "41275358",
					"fillContract(uint256)": "a88df21a",
					"increaseAllowance(address,uint256)": "39509351",
					"name()": "06fdde03",
					"owner()": "8da5cb5b",
					"pendingOwner()": "e30c3978",
					"renounceOwnership()": "715018a6",
					"setStart()": "35975a37",
					"start()": "be9a6555",
					"symbol()": "95d89b41",
					"totalBacking()": "eb2cd258",
					"totalSupply()": "18160ddd",
					"transfer(address,uint256)": "a9059cbb",
					"transferFrom(address,address,uint256)": "23b872dd",
					"transferOwnership(address)": "f2fde38b"
				}
			},
			"storageLayout": {
				"storage": [
					{
						"astId": 276,
						"contract": "pTOKENv2.sol:pTOKEN",
						"label": "_balances",
						"offset": 0,
						"slot": "0",
						"type": "t_mapping(t_address,t_uint256)"
					},
					{
						"astId": 282,
						"contract": "pTOKENv2.sol:pTOKEN",
						"label": "_allowances",
						"offset": 0,
						"slot": "1",
						"type": "t_mapping(t_address,t_mapping(t_address,t_uint256))"
					},
					{
						"astId": 284,
						"contract": "pTOKENv2.sol:pTOKEN",
						"label": "_totalSupply",
						"offset": 0,
						"slot": "2",
						"type": "t_uint256"
					},
					{
						"astId": 286,
						"contract": "pTOKENv2.sol:pTOKEN",
						"label": "_name",
						"offset": 0,
						"slot": "3",
						"type": "t_string_storage"
					},
					{
						"astId": 288,
						"contract": "pTOKENv2.sol:pTOKEN",
						"label": "_symbol",
						"offset": 0,
						"slot": "4",
						"type": "t_string_storage"
					},
					{
						"astId": 7,
						"contract": "pTOKENv2.sol:pTOKEN",
						"label": "_owner",
						"offset": 0,
						"slot": "5",
						"type": "t_address"
					},
					{
						"astId": 120,
						"contract": "pTOKENv2.sol:pTOKEN",
						"label": "_pendingOwner",
						"offset": 0,
						"slot": "6",
						"type": "t_address"
					},
					{
						"astId": 206,
						"contract": "pTOKENv2.sol:pTOKEN",
						"label": "_status",
						"offset": 0,
						"slot": "7",
						"type": "t_uint256"
					},
					{
						"astId": 1808,
						"contract": "pTOKENv2.sol:pTOKEN",
						"label": "MINT_AND_REDEEM_FEE",
						"offset": 0,
						"slot": "8",
						"type": "t_uint256"
					},
					{
						"astId": 1811,
						"contract": "pTOKENv2.sol:pTOKEN",
						"label": "FEES",
						"offset": 0,
						"slot": "9",
						"type": "t_uint256"
					},
					{
						"astId": 1813,
						"contract": "pTOKENv2.sol:pTOKEN",
						"label": "totalBacking",
						"offset": 0,
						"slot": "10",
						"type": "t_uint256"
					},
					{
						"astId": 1815,
						"contract": "pTOKENv2.sol:pTOKEN",
						"label": "feeAddress",
						"offset": 0,
						"slot": "11",
						"type": "t_address_payable"
					},
					{
						"astId": 1817,
						"contract": "pTOKENv2.sol:pTOKEN",
						"label": "start",
						"offset": 20,
						"slot": "11",
						"type": "t_bool"
					}
				],
				"types": {
					"t_address": {
						"encoding": "inplace",
						"label": "address",
						"numberOfBytes": "20"
					},
					"t_address_payable": {
						"encoding": "inplace",
						"label": "address payable",
						"numberOfBytes": "20"
					},
					"t_bool": {
						"encoding": "inplace",
						"label": "bool",
						"numberOfBytes": "1"
					},
					"t_mapping(t_address,t_mapping(t_address,t_uint256))": {
						"encoding": "mapping",
						"key": "t_address",
						"label": "mapping(address => mapping(address => uint256))",
						"numberOfBytes": "32",
						"value": "t_mapping(t_address,t_uint256)"
					},
					"t_mapping(t_address,t_uint256)": {
						"encoding": "mapping",
						"key": "t_address",
						"label": "mapping(address => uint256)",
						"numberOfBytes": "32",
						"value": "t_uint256"
					},
					"t_string_storage": {
						"encoding": "bytes",
						"label": "string",
						"numberOfBytes": "32"
					},
					"t_uint256": {
						"encoding": "inplace",
						"label": "uint256",
						"numberOfBytes": "32"
					}
				}
			},
			"userdoc": {
				"kind": "user",
				"methods": {
					"fillContract(uint256)": {
						"notice": "need start = falsethis function doesn't have fees, it will mint pTOKEN in a 1:1 ratio with _value"
					}
				},
				"notice": "The backing / pTOKEN ratio is designed to appreciate for every mints and redeems that occur.",
				"version": 1
			}
		}
	}
}