{
	"FeeSplitter.sol": {
		"FeeSplitter": {
			"abi": [
				{
					"inputs": [
						{
							"internalType": "address",
							"name": "_pToken",
							"type": "address"
						}
					],
					"stateMutability": "nonpayable",
					"type": "constructor"
				},
				{
					"inputs": [],
					"name": "CantSetAddressZero",
					"type": "error"
				},
				{
					"inputs": [],
					"name": "ZeroProfitDivider",
					"type": "error"
				},
				{
					"anonymous": false,
					"inputs": [
						{
							"indexed": true,
							"internalType": "address",
							"name": "BribingAddress",
							"type": "address"
						}
					],
					"name": "BribingAddressUpdated",
					"type": "event"
				},
				{
					"anonymous": false,
					"inputs": [
						{
							"indexed": true,
							"internalType": "address",
							"name": "EqualDaoAddress",
							"type": "address"
						}
					],
					"name": "EqualDaoAddressUpdated",
					"type": "event"
				},
				{
					"anonymous": false,
					"inputs": [
						{
							"indexed": true,
							"internalType": "uint256",
							"name": "time",
							"type": "uint256"
						},
						{
							"indexed": true,
							"internalType": "uint256",
							"name": "AmountSentToPantheonAndEqualDao",
							"type": "uint256"
						},
						{
							"indexed": true,
							"internalType": "uint256",
							"name": "AmountSentToBribing",
							"type": "uint256"
						}
					],
					"name": "FeeSent",
					"type": "event"
				},
				{
					"anonymous": false,
					"inputs": [
						{
							"indexed": true,
							"internalType": "address",
							"name": "previousOwner",
							"type": "address"
						},
						{
							"indexed": true,
							"internalType": "address",
							"name": "newOwner",
							"type": "address"
						}
					],
					"name": "OwnershipTransferStarted",
					"type": "event"
				},
				{
					"anonymous": false,
					"inputs": [
						{
							"indexed": true,
							"internalType": "address",
							"name": "previousOwner",
							"type": "address"
						},
						{
							"indexed": true,
							"internalType": "address",
							"name": "newOwner",
							"type": "address"
						}
					],
					"name": "OwnershipTransferred",
					"type": "event"
				},
				{
					"anonymous": false,
					"inputs": [
						{
							"indexed": true,
							"internalType": "address",
							"name": "PantheonAddress",
							"type": "address"
						}
					],
					"name": "PantheonAddressUpdated",
					"type": "event"
				},
				{
					"anonymous": false,
					"inputs": [
						{
							"indexed": true,
							"internalType": "uint256",
							"name": "ProfitDivider",
							"type": "uint256"
						}
					],
					"name": "ProfitDividerUpdated",
					"type": "event"
				},
				{
					"inputs": [],
					"name": "acceptOwnership",
					"outputs": [],
					"stateMutability": "nonpayable",
					"type": "function"
				},
				{
					"inputs": [],
					"name": "owner",
					"outputs": [
						{
							"internalType": "address",
							"name": "",
							"type": "address"
						}
					],
					"stateMutability": "view",
					"type": "function"
				},
				{
					"inputs": [],
					"name": "pendingOwner",
					"outputs": [
						{
							"internalType": "address",
							"name": "",
							"type": "address"
						}
					],
					"stateMutability": "view",
					"type": "function"
				},
				{
					"inputs": [],
					"name": "renounceOwnership",
					"outputs": [],
					"stateMutability": "nonpayable",
					"type": "function"
				},
				{
					"inputs": [
						{
							"internalType": "address",
							"name": "_address",
							"type": "address"
						}
					],
					"name": "setBribingWallet",
					"outputs": [],
					"stateMutability": "nonpayable",
					"type": "function"
				},
				{
					"inputs": [
						{
							"internalType": "address",
							"name": "_address",
							"type": "address"
						}
					],
					"name": "setEqualDaoWallet",
					"outputs": [],
					"stateMutability": "nonpayable",
					"type": "function"
				},
				{
					"inputs": [
						{
							"internalType": "address",
							"name": "_address",
							"type": "address"
						}
					],
					"name": "setPantheonWallet",
					"outputs": [],
					"stateMutability": "nonpayable",
					"type": "function"
				},
				{
					"inputs": [
						{
							"internalType": "uint256",
							"name": "_value",
							"type": "uint256"
						}
					],
					"name": "setProfitDivider",
					"outputs": [],
					"stateMutability": "nonpayable",
					"type": "function"
				},
				{
					"inputs": [],
					"name": "splitFees",
					"outputs": [],
					"stateMutability": "nonpayable",
					"type": "function"
				},
				{
					"inputs": [],
					"name": "totalBribes",
					"outputs": [
						{
							"internalType": "uint256",
							"name": "",
							"type": "uint256"
						}
					],
					"stateMutability": "view",
					"type": "function"
				},
				{
					"inputs": [
						{
							"internalType": "address",
							"name": "newOwner",
							"type": "address"
						}
					],
					"name": "transferOwnership",
					"outputs": [],
					"stateMutability": "nonpayable",
					"type": "function"
				}
			],
			"devdoc": {
				"errors": {
					"CantSetAddressZero()": [
						{
							"custom:section": "** ERRORS **"
						}
					]
				},
				"events": {
					"FeeSent(uint256,uint256,uint256)": {
						"custom:section": "** EVENTS **"
					}
				},
				"kind": "dev",
				"methods": {
					"acceptOwnership()": {
						"details": "The new owner accepts the ownership transfer."
					},
					"constructor": {
						"custom:section": "** CONSTRUCTOR **"
					},
					"owner()": {
						"details": "Returns the address of the current owner."
					},
					"pendingOwner()": {
						"details": "Returns the address of the pending owner."
					},
					"renounceOwnership()": {
						"details": "Leaves the contract without owner. It will not be possible to call `onlyOwner` functions. Can only be called by the current owner. NOTE: Renouncing ownership will leave the contract without an owner, thereby disabling any functionality that is only available to the owner."
					},
					"transferOwnership(address)": {
						"details": "Starts the ownership transfer of the contract to a new account. Replaces the pending transfer if there is one. Can only be called by the current owner."
					}
				},
				"stateVariables": {
					"BRIBES": {
						"custom:section": "** PRIVATE VARIABLES **"
					},
					"_PTOKEN": {
						"custom:section": "** IMMUTABLES **"
					},
					"totalBribes": {
						"custom:section": "** PUBLIC VARIABLES **"
					}
				},
				"version": 1
			},
			"evm": {
				"assembly": "    /* \"FeeSplitter.sol\":412:3853  contract FeeSplitter is Ownable2Step, ReentrancyGuard {... */\n  mstore(0x40, 0xa0)\n    /* \"FeeSplitter.sol\":1732:1805  constructor(address _pToken) {... */\n  callvalue\n  dup1\n  iszero\n  tag_1\n  jumpi\n  0x00\n  dup1\n  revert\ntag_1:\n  pop\n  mload(0x40)\n  sub(codesize, bytecodeSize)\n  dup1\n  bytecodeSize\n  dup4\n  codecopy\n  dup2\n  dup2\n  add\n  0x40\n  mstore\n  dup2\n  add\n  swap1\n  tag_2\n  swap2\n  swap1\n  tag_3\n  jump\t// in\ntag_2:\n    /* \"@openzeppelin/contracts@v4.9.3/access/Ownable.sol\":936:968  _transferOwnership(_msgSender()) */\n  tag_8\n    /* \"@openzeppelin/contracts@v4.9.3/access/Ownable.sol\":955:967  _msgSender() */\n  tag_9\n    /* \"@openzeppelin/contracts@v4.9.3/access/Ownable.sol\":955:965  _msgSender */\n  shl(0x20, tag_10)\n    /* \"@openzeppelin/contracts@v4.9.3/access/Ownable.sol\":955:967  _msgSender() */\n  0x20\n  shr\n  jump\t// in\ntag_9:\n    /* \"@openzeppelin/contracts@v4.9.3/access/Ownable.sol\":936:954  _transferOwnership */\n  shl(0x20, tag_11)\n    /* \"@openzeppelin/contracts@v4.9.3/access/Ownable.sol\":936:968  _transferOwnership(_msgSender()) */\n  0x20\n  shr\n  jump\t// in\ntag_8:\n    /* \"@openzeppelin/contracts@v4.9.3/security/ReentrancyGuard.sol\":1716:1717  1 */\n  0x01\n    /* \"@openzeppelin/contracts@v4.9.3/security/ReentrancyGuard.sol\":1821:1828  _status */\n  0x02\n    /* \"@openzeppelin/contracts@v4.9.3/security/ReentrancyGuard.sol\":1821:1843  _status = _NOT_ENTERED */\n  dup2\n  swap1\n  sstore\n  pop\n    /* \"FeeSplitter.sol\":1789:1796  _pToken */\n  dup1\n    /* \"FeeSplitter.sol\":1772:1797  _PTOKEN = IERC20(_pToken) */\n  0xffffffffffffffffffffffffffffffffffffffff\n  and\n  0x80\n  dup2\n  0xffffffffffffffffffffffffffffffffffffffff\n  and\n  dup2\n  mstore\n  pop\n  pop\n    /* \"FeeSplitter.sol\":1732:1805  constructor(address _pToken) {... */\n  pop\n    /* \"FeeSplitter.sol\":412:3853  contract FeeSplitter is Ownable2Step, ReentrancyGuard {... */\n  jump(tag_14)\n    /* \"@openzeppelin/contracts@v4.9.3/utils/Context.sol\":640:736  function _msgSender() internal view virtual returns (address) {... */\ntag_10:\n    /* \"@openzeppelin/contracts@v4.9.3/utils/Context.sol\":693:700  address */\n  0x00\n    /* \"@openzeppelin/contracts@v4.9.3/utils/Context.sol\":719:729  msg.sender */\n  caller\n    /* \"@openzeppelin/contracts@v4.9.3/utils/Context.sol\":712:729  return msg.sender */\n  swap1\n  pop\n    /* \"@openzeppelin/contracts@v4.9.3/utils/Context.sol\":640:736  function _msgSender() internal view virtual returns (address) {... */\n  swap1\n  jump\t// out\n    /* \"@openzeppelin/contracts@v4.9.3/access/Ownable2Step.sol\":1501:1654  function _transferOwnership(address newOwner) internal virtual override {... */\ntag_11:\n    /* \"@openzeppelin/contracts@v4.9.3/access/Ownable2Step.sol\":1590:1603  _pendingOwner */\n  0x01\n  0x00\n    /* \"@openzeppelin/contracts@v4.9.3/access/Ownable2Step.sol\":1583:1603  delete _pendingOwner */\n  0x0100\n  exp\n  dup2\n  sload\n  swap1\n  0xffffffffffffffffffffffffffffffffffffffff\n  mul\n  not\n  and\n  swap1\n  sstore\n    /* \"@openzeppelin/contracts@v4.9.3/access/Ownable2Step.sol\":1613:1647  super._transferOwnership(newOwner) */\n  tag_17\n    /* \"@openzeppelin/contracts@v4.9.3/access/Ownable2Step.sol\":1638:1646  newOwner */\n  dup2\n    /* \"@openzeppelin/contracts@v4.9.3/access/Ownable2Step.sol\":1613:1637  super._transferOwnership */\n  or(tag_0_49, shl(0x20, tag_18))\n    /* \"@openzeppelin/contracts@v4.9.3/access/Ownable2Step.sol\":1613:1647  super._transferOwnership(newOwner) */\n  0x20\n  shr\n  jump\t// in\ntag_17:\n    /* \"@openzeppelin/contracts@v4.9.3/access/Ownable2Step.sol\":1501:1654  function _transferOwnership(address newOwner) internal virtual override {... */\n  pop\n  jump\t// out\n    /* \"@openzeppelin/contracts@v4.9.3/access/Ownable.sol\":2426:2613  function _transferOwnership(address newOwner) internal virtual {... */\ntag_18:\n    /* \"@openzeppelin/contracts@v4.9.3/access/Ownable.sol\":2499:2515  address oldOwner */\n  0x00\n    /* \"@openzeppelin/contracts@v4.9.3/access/Ownable.sol\":2518:2524  _owner */\n  dup1\n  0x00\n  swap1\n  sload\n  swap1\n  0x0100\n  exp\n  swap1\n  div\n  0xffffffffffffffffffffffffffffffffffffffff\n  and\n    /* \"@openzeppelin/contracts@v4.9.3/access/Ownable.sol\":2499:2524  address oldOwner = _owner */\n  swap1\n  pop\n    /* \"@openzeppelin/contracts@v4.9.3/access/Ownable.sol\":2543:2551  newOwner */\n  dup2\n    /* \"@openzeppelin/contracts@v4.9.3/access/Ownable.sol\":2534:2540  _owner */\n  0x00\n  dup1\n    /* \"@openzeppelin/contracts@v4.9.3/access/Ownable.sol\":2534:2551  _owner = newOwner */\n  0x0100\n  exp\n  dup2\n  sload\n  dup2\n  0xffffffffffffffffffffffffffffffffffffffff\n  mul\n  not\n  and\n  swap1\n  dup4\n  0xffffffffffffffffffffffffffffffffffffffff\n  and\n  mul\n  or\n  swap1\n  sstore\n  pop\n    /* \"@openzeppelin/contracts@v4.9.3/access/Ownable.sol\":2597:2605  newOwner */\n  dup2\n    /* \"@openzeppelin/contracts@v4.9.3/access/Ownable.sol\":2566:2606  OwnershipTransferred(oldOwner, newOwner) */\n  0xffffffffffffffffffffffffffffffffffffffff\n  and\n    /* \"@openzeppelin/contracts@v4.9.3/access/Ownable.sol\":2587:2595  oldOwner */\n  dup2\n    /* \"@openzeppelin/contracts@v4.9.3/access/Ownable.sol\":2566:2606  OwnershipTransferred(oldOwner, newOwner) */\n  0xffffffffffffffffffffffffffffffffffffffff\n  and\n  0x8be0079c531659141344cd1fd0a4f28419497f9722a3daafe3b4186f6b6457e0\n  mload(0x40)\n  mload(0x40)\n  dup1\n  swap2\n  sub\n  swap1\n  log3\n    /* \"@openzeppelin/contracts@v4.9.3/access/Ownable.sol\":2489:2613  {... */\n  pop\n    /* \"@openzeppelin/contracts@v4.9.3/access/Ownable.sol\":2426:2613  function _transferOwnership(address newOwner) internal virtual {... */\n  pop\n  jump\t// out\n    /* \"#utility.yul\":88:205   */\ntag_21:\n    /* \"#utility.yul\":197:198   */\n  0x00\n    /* \"#utility.yul\":194:195   */\n  dup1\n    /* \"#utility.yul\":187:199   */\n  revert\n    /* \"#utility.yul\":334:460   */\ntag_23:\n    /* \"#utility.yul\":371:378   */\n  0x00\n    /* \"#utility.yul\":411:453   */\n  0xffffffffffffffffffffffffffffffffffffffff\n    /* \"#utility.yul\":404:409   */\n  dup3\n    /* \"#utility.yul\":400:454   */\n  and\n    /* \"#utility.yul\":389:454   */\n  swap1\n  pop\n    /* \"#utility.yul\":334:460   */\n  swap2\n  swap1\n  pop\n  jump\t// out\n    /* \"#utility.yul\":466:562   */\ntag_24:\n    /* \"#utility.yul\":503:510   */\n  0x00\n    /* \"#utility.yul\":532:556   */\n  tag_33\n    /* \"#utility.yul\":550:555   */\n  dup3\n    /* \"#utility.yul\":532:556   */\n  tag_23\n  jump\t// in\ntag_33:\n    /* \"#utility.yul\":521:556   */\n  swap1\n  pop\n    /* \"#utility.yul\":466:562   */\n  swap2\n  swap1\n  pop\n  jump\t// out\n    /* \"#utility.yul\":568:690   */\ntag_25:\n    /* \"#utility.yul\":641:665   */\n  tag_35\n    /* \"#utility.yul\":659:664   */\n  dup2\n    /* \"#utility.yul\":641:665   */\n  tag_24\n  jump\t// in\ntag_35:\n    /* \"#utility.yul\":634:639   */\n  dup2\n    /* \"#utility.yul\":631:666   */\n  eq\n    /* \"#utility.yul\":621:684   */\n  tag_36\n  jumpi\n    /* \"#utility.yul\":680:681   */\n  0x00\n    /* \"#utility.yul\":677:678   */\n  dup1\n    /* \"#utility.yul\":670:682   */\n  revert\n    /* \"#utility.yul\":621:684   */\ntag_36:\n    /* \"#utility.yul\":568:690   */\n  pop\n  jump\t// out\n    /* \"#utility.yul\":696:839   */\ntag_26:\n    /* \"#utility.yul\":753:758   */\n  0x00\n    /* \"#utility.yul\":784:790   */\n  dup2\n    /* \"#utility.yul\":778:791   */\n  mload\n    /* \"#utility.yul\":769:791   */\n  swap1\n  pop\n    /* \"#utility.yul\":800:833   */\n  tag_38\n    /* \"#utility.yul\":827:832   */\n  dup2\n    /* \"#utility.yul\":800:833   */\n  tag_25\n  jump\t// in\ntag_38:\n    /* \"#utility.yul\":696:839   */\n  swap3\n  swap2\n  pop\n  pop\n  jump\t// out\n    /* \"#utility.yul\":845:1196   */\ntag_3:\n    /* \"#utility.yul\":915:921   */\n  0x00\n    /* \"#utility.yul\":964:966   */\n  0x20\n    /* \"#utility.yul\":952:961   */\n  dup3\n    /* \"#utility.yul\":943:950   */\n  dup5\n    /* \"#utility.yul\":939:962   */\n  sub\n    /* \"#utility.yul\":935:967   */\n  slt\n    /* \"#utility.yul\":932:1051   */\n  iszero\n  tag_40\n  jumpi\n    /* \"#utility.yul\":970:1049   */\n  tag_41\n  tag_21\n  jump\t// in\ntag_41:\n    /* \"#utility.yul\":932:1051   */\ntag_40:\n    /* \"#utility.yul\":1090:1091   */\n  0x00\n    /* \"#utility.yul\":1115:1179   */\n  tag_42\n    /* \"#utility.yul\":1171:1178   */\n  dup5\n    /* \"#utility.yul\":1162:1168   */\n  dup3\n    /* \"#utility.yul\":1151:1160   */\n  dup6\n    /* \"#utility.yul\":1147:1169   */\n  add\n    /* \"#utility.yul\":1115:1179   */\n  tag_26\n  jump\t// in\ntag_42:\n    /* \"#utility.yul\":1105:1179   */\n  swap2\n  pop\n    /* \"#utility.yul\":1061:1189   */\n  pop\n    /* \"#utility.yul\":845:1196   */\n  swap3\n  swap2\n  pop\n  pop\n  jump\t// out\n    /* \"FeeSplitter.sol\":412:3853  contract FeeSplitter is Ownable2Step, ReentrancyGuard {... */\ntag_14:\n  mload(0x80)\n  codecopy(0x00, dataOffset(sub_0), dataSize(sub_0))\n  0x00\n  assignImmutable(\"0x7173bb0c0c341c627c9734f9095ef27b00afaca222d0fccf9d280fbad8b7c078\")\n  return(0x00, dataSize(sub_0))\nstop\n\nsub_0: assembly {\n        /* \"FeeSplitter.sol\":412:3853  contract FeeSplitter is Ownable2Step, ReentrancyGuard {... */\n      mstore(0x40, 0x80)\n      callvalue\n      dup1\n      iszero\n      tag_1\n      jumpi\n      0x00\n      dup1\n      revert\n    tag_1:\n      pop\n      jumpi(tag_2, lt(calldatasize, 0x04))\n      shr(0xe0, calldataload(0x00))\n      dup1\n      0x9752b3b2\n      gt\n      tag_14\n      jumpi\n      dup1\n      0x9752b3b2\n      eq\n      tag_8\n      jumpi\n      dup1\n      0x979e9056\n      eq\n      tag_9\n      jumpi\n      dup1\n      0xe30c3978\n      eq\n      tag_10\n      jumpi\n      dup1\n      0xe7fcd45d\n      eq\n      tag_11\n      jumpi\n      dup1\n      0xf2fde38b\n      eq\n      tag_12\n      jumpi\n      dup1\n      0xf6151089\n      eq\n      tag_13\n      jumpi\n      jump(tag_2)\n    tag_14:\n      dup1\n      0x1f068108\n      eq\n      tag_3\n      jumpi\n      dup1\n      0x715018a6\n      eq\n      tag_4\n      jumpi\n      dup1\n      0x79ba5097\n      eq\n      tag_5\n      jumpi\n      dup1\n      0x8da5cb5b\n      eq\n      tag_6\n      jumpi\n      dup1\n      0x8f88f261\n      eq\n      tag_7\n      jumpi\n    tag_2:\n      0x00\n      dup1\n      revert\n        /* \"FeeSplitter.sol\":3317:3538  function setPantheonWallet(address _address) external onlyOwner {... */\n    tag_3:\n      tag_15\n      0x04\n      dup1\n      calldatasize\n      sub\n      dup2\n      add\n      swap1\n      tag_16\n      swap2\n      swap1\n      tag_17\n      jump\t// in\n    tag_16:\n      tag_18\n      jump\t// in\n    tag_15:\n      stop\n        /* \"@openzeppelin/contracts@v4.9.3/access/Ownable.sol\":1824:1925  function renounceOwnership() public virtual onlyOwner {... */\n    tag_4:\n      tag_19\n      tag_20\n      jump\t// in\n    tag_19:\n      stop\n        /* \"@openzeppelin/contracts@v4.9.3/access/Ownable2Step.sol\":1734:1946  function acceptOwnership() public virtual {... */\n    tag_5:\n      tag_21\n      tag_22\n      jump\t// in\n    tag_21:\n      stop\n        /* \"@openzeppelin/contracts@v4.9.3/access/Ownable.sol\":1201:1286  function owner() public view virtual returns (address) {... */\n    tag_6:\n      tag_23\n      tag_24\n      jump\t// in\n    tag_23:\n      mload(0x40)\n      tag_25\n      swap2\n      swap1\n      tag_26\n      jump\t// in\n    tag_25:\n      mload(0x40)\n      dup1\n      swap2\n      sub\n      swap1\n      return\n        /* \"FeeSplitter.sol\":3629:3850  function setEqualDaoWallet(address _address) external onlyOwner {... */\n    tag_7:\n      tag_27\n      0x04\n      dup1\n      calldatasize\n      sub\n      dup2\n      add\n      swap1\n      tag_28\n      swap2\n      swap1\n      tag_17\n      jump\t// in\n    tag_28:\n      tag_29\n      jump\t// in\n    tag_27:\n      stop\n        /* \"FeeSplitter.sol\":3005:3222  function setBribingWallet(address _address) external onlyOwner {... */\n    tag_8:\n      tag_30\n      0x04\n      dup1\n      calldatasize\n      sub\n      dup2\n      add\n      swap1\n      tag_31\n      swap2\n      swap1\n      tag_17\n      jump\t// in\n    tag_31:\n      tag_32\n      jump\t// in\n    tag_30:\n      stop\n        /* \"FeeSplitter.sol\":1098:1124  uint256 public totalBribes */\n    tag_9:\n      tag_33\n      tag_34\n      jump\t// in\n    tag_33:\n      mload(0x40)\n      tag_35\n      swap2\n      swap1\n      tag_36\n      jump\t// in\n    tag_35:\n      mload(0x40)\n      dup1\n      swap2\n      sub\n      swap1\n      return\n        /* \"@openzeppelin/contracts@v4.9.3/access/Ownable2Step.sol\":847:946  function pendingOwner() public view virtual returns (address) {... */\n    tag_10:\n      tag_37\n      tag_38\n      jump\t// in\n    tag_37:\n      mload(0x40)\n      tag_39\n      swap2\n      swap1\n      tag_26\n      jump\t// in\n    tag_39:\n      mload(0x40)\n      dup1\n      swap2\n      sub\n      swap1\n      return\n        /* \"FeeSplitter.sol\":2708:2911  function setProfitDivider(uint256 _value) external onlyOwner {... */\n    tag_11:\n      tag_40\n      0x04\n      dup1\n      calldatasize\n      sub\n      dup2\n      add\n      swap1\n      tag_41\n      swap2\n      swap1\n      tag_42\n      jump\t// in\n    tag_41:\n      tag_43\n      jump\t// in\n    tag_40:\n      stop\n        /* \"@openzeppelin/contracts@v4.9.3/access/Ownable2Step.sol\":1139:1317  function transferOwnership(address newOwner) public virtual override onlyOwner {... */\n    tag_12:\n      tag_44\n      0x04\n      dup1\n      calldatasize\n      sub\n      dup2\n      add\n      swap1\n      tag_45\n      swap2\n      swap1\n      tag_17\n      jump\t// in\n    tag_45:\n      tag_46\n      jump\t// in\n    tag_44:\n      stop\n        /* \"FeeSplitter.sol\":2055:2533  function splitFees() external onlyOwner {... */\n    tag_13:\n      tag_47\n      tag_48\n      jump\t// in\n    tag_47:\n      stop\n        /* \"FeeSplitter.sol\":3317:3538  function setPantheonWallet(address _address) external onlyOwner {... */\n    tag_18:\n        /* \"@openzeppelin/contracts@v4.9.3/access/Ownable.sol\":1094:1107  _checkOwner() */\n      tag_51\n        /* \"@openzeppelin/contracts@v4.9.3/access/Ownable.sol\":1094:1105  _checkOwner */\n      tag_52\n        /* \"@openzeppelin/contracts@v4.9.3/access/Ownable.sol\":1094:1107  _checkOwner() */\n      jump\t// in\n    tag_51:\n        /* \"FeeSplitter.sol\":3415:3418  0x0 */\n      0x00\n        /* \"FeeSplitter.sol\":3395:3419  _address == address(0x0) */\n      0xffffffffffffffffffffffffffffffffffffffff\n      and\n        /* \"FeeSplitter.sol\":3395:3403  _address */\n      dup2\n        /* \"FeeSplitter.sol\":3395:3419  _address == address(0x0) */\n      0xffffffffffffffffffffffffffffffffffffffff\n      and\n      sub\n        /* \"FeeSplitter.sol\":3392:3448  if(_address == address(0x0)) revert CantSetAddressZero() */\n      tag_54\n      jumpi\n        /* \"FeeSplitter.sol\":3428:3448  CantSetAddressZero() */\n      mload(0x40)\n      0x842090f100000000000000000000000000000000000000000000000000000000\n      dup2\n      mstore\n      0x04\n      add\n      mload(0x40)\n      dup1\n      swap2\n      sub\n      swap1\n      revert\n        /* \"FeeSplitter.sol\":3392:3448  if(_address == address(0x0)) revert CantSetAddressZero() */\n    tag_54:\n        /* \"FeeSplitter.sol\":3471:3479  _address */\n      dup1\n        /* \"FeeSplitter.sol\":3459:3467  PANTHEON */\n      0x04\n      0x00\n        /* \"FeeSplitter.sol\":3459:3480  PANTHEON = (_address) */\n      0x0100\n      exp\n      dup2\n      sload\n      dup2\n      0xffffffffffffffffffffffffffffffffffffffff\n      mul\n      not\n      and\n      swap1\n      dup4\n      0xffffffffffffffffffffffffffffffffffffffff\n      and\n      mul\n      or\n      swap1\n      sstore\n      pop\n        /* \"FeeSplitter.sol\":3521:3529  _address */\n      dup1\n        /* \"FeeSplitter.sol\":3498:3530  PantheonAddressUpdated(_address) */\n      0xffffffffffffffffffffffffffffffffffffffff\n      and\n      0x0cd19529020fd81d84beeae5290e80cef2820b494e9aedf821b3c45b8110d7df\n      mload(0x40)\n      mload(0x40)\n      dup1\n      swap2\n      sub\n      swap1\n      log2\n        /* \"FeeSplitter.sol\":3317:3538  function setPantheonWallet(address _address) external onlyOwner {... */\n      pop\n      jump\t// out\n        /* \"@openzeppelin/contracts@v4.9.3/access/Ownable.sol\":1824:1925  function renounceOwnership() public virtual onlyOwner {... */\n    tag_20:\n        /* \"@openzeppelin/contracts@v4.9.3/access/Ownable.sol\":1094:1107  _checkOwner() */\n      tag_56\n        /* \"@openzeppelin/contracts@v4.9.3/access/Ownable.sol\":1094:1105  _checkOwner */\n      tag_52\n        /* \"@openzeppelin/contracts@v4.9.3/access/Ownable.sol\":1094:1107  _checkOwner() */\n      jump\t// in\n    tag_56:\n        /* \"@openzeppelin/contracts@v4.9.3/access/Ownable.sol\":1888:1918  _transferOwnership(address(0)) */\n      tag_58\n        /* \"@openzeppelin/contracts@v4.9.3/access/Ownable.sol\":1915:1916  0 */\n      0x00\n        /* \"@openzeppelin/contracts@v4.9.3/access/Ownable.sol\":1888:1906  _transferOwnership */\n      tag_59\n        /* \"@openzeppelin/contracts@v4.9.3/access/Ownable.sol\":1888:1918  _transferOwnership(address(0)) */\n      jump\t// in\n    tag_58:\n        /* \"@openzeppelin/contracts@v4.9.3/access/Ownable.sol\":1824:1925  function renounceOwnership() public virtual onlyOwner {... */\n      jump\t// out\n        /* \"@openzeppelin/contracts@v4.9.3/access/Ownable2Step.sol\":1734:1946  function acceptOwnership() public virtual {... */\n    tag_22:\n        /* \"@openzeppelin/contracts@v4.9.3/access/Ownable2Step.sol\":1786:1800  address sender */\n      0x00\n        /* \"@openzeppelin/contracts@v4.9.3/access/Ownable2Step.sol\":1803:1815  _msgSender() */\n      tag_61\n        /* \"@openzeppelin/contracts@v4.9.3/access/Ownable2Step.sol\":1803:1813  _msgSender */\n      tag_62\n        /* \"@openzeppelin/contracts@v4.9.3/access/Ownable2Step.sol\":1803:1815  _msgSender() */\n      jump\t// in\n    tag_61:\n        /* \"@openzeppelin/contracts@v4.9.3/access/Ownable2Step.sol\":1786:1815  address sender = _msgSender() */\n      swap1\n      pop\n        /* \"@openzeppelin/contracts@v4.9.3/access/Ownable2Step.sol\":1851:1857  sender */\n      dup1\n        /* \"@openzeppelin/contracts@v4.9.3/access/Ownable2Step.sol\":1833:1857  pendingOwner() == sender */\n      0xffffffffffffffffffffffffffffffffffffffff\n      and\n        /* \"@openzeppelin/contracts@v4.9.3/access/Ownable2Step.sol\":1833:1847  pendingOwner() */\n      tag_63\n        /* \"@openzeppelin/contracts@v4.9.3/access/Ownable2Step.sol\":1833:1845  pendingOwner */\n      tag_38\n        /* \"@openzeppelin/contracts@v4.9.3/access/Ownable2Step.sol\":1833:1847  pendingOwner() */\n      jump\t// in\n    tag_63:\n        /* \"@openzeppelin/contracts@v4.9.3/access/Ownable2Step.sol\":1833:1857  pendingOwner() == sender */\n      0xffffffffffffffffffffffffffffffffffffffff\n      and\n      eq\n        /* \"@openzeppelin/contracts@v4.9.3/access/Ownable2Step.sol\":1825:1903  require(pendingOwner() == sender, \"Ownable2Step: caller is not the new owner\") */\n      tag_64\n      jumpi\n      mload(0x40)\n      0x08c379a000000000000000000000000000000000000000000000000000000000\n      dup2\n      mstore\n      0x04\n      add\n      tag_65\n      swap1\n      tag_66\n      jump\t// in\n    tag_65:\n      mload(0x40)\n      dup1\n      swap2\n      sub\n      swap1\n      revert\n    tag_64:\n        /* \"@openzeppelin/contracts@v4.9.3/access/Ownable2Step.sol\":1913:1939  _transferOwnership(sender) */\n      tag_67\n        /* \"@openzeppelin/contracts@v4.9.3/access/Ownable2Step.sol\":1932:1938  sender */\n      dup2\n        /* \"@openzeppelin/contracts@v4.9.3/access/Ownable2Step.sol\":1913:1931  _transferOwnership */\n      tag_59\n        /* \"@openzeppelin/contracts@v4.9.3/access/Ownable2Step.sol\":1913:1939  _transferOwnership(sender) */\n      jump\t// in\n    tag_67:\n        /* \"@openzeppelin/contracts@v4.9.3/access/Ownable2Step.sol\":1776:1946  {... */\n      pop\n        /* \"@openzeppelin/contracts@v4.9.3/access/Ownable2Step.sol\":1734:1946  function acceptOwnership() public virtual {... */\n      jump\t// out\n        /* \"@openzeppelin/contracts@v4.9.3/access/Ownable.sol\":1201:1286  function owner() public view virtual returns (address) {... */\n    tag_24:\n        /* \"@openzeppelin/contracts@v4.9.3/access/Ownable.sol\":1247:1254  address */\n      0x00\n        /* \"@openzeppelin/contracts@v4.9.3/access/Ownable.sol\":1273:1279  _owner */\n      dup1\n      0x00\n      swap1\n      sload\n      swap1\n      0x0100\n      exp\n      swap1\n      div\n      0xffffffffffffffffffffffffffffffffffffffff\n      and\n        /* \"@openzeppelin/contracts@v4.9.3/access/Ownable.sol\":1266:1279  return _owner */\n      swap1\n      pop\n        /* \"@openzeppelin/contracts@v4.9.3/access/Ownable.sol\":1201:1286  function owner() public view virtual returns (address) {... */\n      swap1\n      jump\t// out\n        /* \"FeeSplitter.sol\":3629:3850  function setEqualDaoWallet(address _address) external onlyOwner {... */\n    tag_29:\n        /* \"@openzeppelin/contracts@v4.9.3/access/Ownable.sol\":1094:1107  _checkOwner() */\n      tag_70\n        /* \"@openzeppelin/contracts@v4.9.3/access/Ownable.sol\":1094:1105  _checkOwner */\n      tag_52\n        /* \"@openzeppelin/contracts@v4.9.3/access/Ownable.sol\":1094:1107  _checkOwner() */\n      jump\t// in\n    tag_70:\n        /* \"FeeSplitter.sol\":3727:3730  0x0 */\n      0x00\n        /* \"FeeSplitter.sol\":3707:3731  _address == address(0x0) */\n      0xffffffffffffffffffffffffffffffffffffffff\n      and\n        /* \"FeeSplitter.sol\":3707:3715  _address */\n      dup2\n        /* \"FeeSplitter.sol\":3707:3731  _address == address(0x0) */\n      0xffffffffffffffffffffffffffffffffffffffff\n      and\n      sub\n        /* \"FeeSplitter.sol\":3704:3760  if(_address == address(0x0)) revert CantSetAddressZero() */\n      tag_72\n      jumpi\n        /* \"FeeSplitter.sol\":3740:3760  CantSetAddressZero() */\n      mload(0x40)\n      0x842090f100000000000000000000000000000000000000000000000000000000\n      dup2\n      mstore\n      0x04\n      add\n      mload(0x40)\n      dup1\n      swap2\n      sub\n      swap1\n      revert\n        /* \"FeeSplitter.sol\":3704:3760  if(_address == address(0x0)) revert CantSetAddressZero() */\n    tag_72:\n        /* \"FeeSplitter.sol\":3783:3791  _address */\n      dup1\n        /* \"FeeSplitter.sol\":3771:3779  EQUALDAO */\n      0x05\n      0x00\n        /* \"FeeSplitter.sol\":3771:3792  EQUALDAO = (_address) */\n      0x0100\n      exp\n      dup2\n      sload\n      dup2\n      0xffffffffffffffffffffffffffffffffffffffff\n      mul\n      not\n      and\n      swap1\n      dup4\n      0xffffffffffffffffffffffffffffffffffffffff\n      and\n      mul\n      or\n      swap1\n      sstore\n      pop\n        /* \"FeeSplitter.sol\":3833:3841  _address */\n      dup1\n        /* \"FeeSplitter.sol\":3810:3842  EqualDaoAddressUpdated(_address) */\n      0xffffffffffffffffffffffffffffffffffffffff\n      and\n      0x203661c8635f7afb5f15d76e6b159110290d075ad62b4ee9ff9a7ab94187d4bd\n      mload(0x40)\n      mload(0x40)\n      dup1\n      swap2\n      sub\n      swap1\n      log2\n        /* \"FeeSplitter.sol\":3629:3850  function setEqualDaoWallet(address _address) external onlyOwner {... */\n      pop\n      jump\t// out\n        /* \"FeeSplitter.sol\":3005:3222  function setBribingWallet(address _address) external onlyOwner {... */\n    tag_32:\n        /* \"@openzeppelin/contracts@v4.9.3/access/Ownable.sol\":1094:1107  _checkOwner() */\n      tag_74\n        /* \"@openzeppelin/contracts@v4.9.3/access/Ownable.sol\":1094:1105  _checkOwner */\n      tag_52\n        /* \"@openzeppelin/contracts@v4.9.3/access/Ownable.sol\":1094:1107  _checkOwner() */\n      jump\t// in\n    tag_74:\n        /* \"FeeSplitter.sol\":3102:3105  0x0 */\n      0x00\n        /* \"FeeSplitter.sol\":3082:3106  _address == address(0x0) */\n      0xffffffffffffffffffffffffffffffffffffffff\n      and\n        /* \"FeeSplitter.sol\":3082:3090  _address */\n      dup2\n        /* \"FeeSplitter.sol\":3082:3106  _address == address(0x0) */\n      0xffffffffffffffffffffffffffffffffffffffff\n      and\n      sub\n        /* \"FeeSplitter.sol\":3079:3135  if(_address == address(0x0)) revert CantSetAddressZero() */\n      tag_76\n      jumpi\n        /* \"FeeSplitter.sol\":3115:3135  CantSetAddressZero() */\n      mload(0x40)\n      0x842090f100000000000000000000000000000000000000000000000000000000\n      dup2\n      mstore\n      0x04\n      add\n      mload(0x40)\n      dup1\n      swap2\n      sub\n      swap1\n      revert\n        /* \"FeeSplitter.sol\":3079:3135  if(_address == address(0x0)) revert CantSetAddressZero() */\n    tag_76:\n        /* \"FeeSplitter.sol\":3156:3164  _address */\n      dup1\n        /* \"FeeSplitter.sol\":3146:3152  BRIBES */\n      0x03\n      0x00\n        /* \"FeeSplitter.sol\":3146:3165  BRIBES = (_address) */\n      0x0100\n      exp\n      dup2\n      sload\n      dup2\n      0xffffffffffffffffffffffffffffffffffffffff\n      mul\n      not\n      and\n      swap1\n      dup4\n      0xffffffffffffffffffffffffffffffffffffffff\n      and\n      mul\n      or\n      swap1\n      sstore\n      pop\n        /* \"FeeSplitter.sol\":3205:3213  _address */\n      dup1\n        /* \"FeeSplitter.sol\":3183:3214  BribingAddressUpdated(_address) */\n      0xffffffffffffffffffffffffffffffffffffffff\n      and\n      0x170b0500ccf8a13146ecd9838c59849129b54beda77dadbe500b8817cdc8d368\n      mload(0x40)\n      mload(0x40)\n      dup1\n      swap2\n      sub\n      swap1\n      log2\n        /* \"FeeSplitter.sol\":3005:3222  function setBribingWallet(address _address) external onlyOwner {... */\n      pop\n      jump\t// out\n        /* \"FeeSplitter.sol\":1098:1124  uint256 public totalBribes */\n    tag_34:\n      sload(0x07)\n      dup2\n      jump\t// out\n        /* \"@openzeppelin/contracts@v4.9.3/access/Ownable2Step.sol\":847:946  function pendingOwner() public view virtual returns (address) {... */\n    tag_38:\n        /* \"@openzeppelin/contracts@v4.9.3/access/Ownable2Step.sol\":900:907  address */\n      0x00\n        /* \"@openzeppelin/contracts@v4.9.3/access/Ownable2Step.sol\":926:939  _pendingOwner */\n      0x01\n      0x00\n      swap1\n      sload\n      swap1\n      0x0100\n      exp\n      swap1\n      div\n      0xffffffffffffffffffffffffffffffffffffffff\n      and\n        /* \"@openzeppelin/contracts@v4.9.3/access/Ownable2Step.sol\":919:939  return _pendingOwner */\n      swap1\n      pop\n        /* \"@openzeppelin/contracts@v4.9.3/access/Ownable2Step.sol\":847:946  function pendingOwner() public view virtual returns (address) {... */\n      swap1\n      jump\t// out\n        /* \"FeeSplitter.sol\":2708:2911  function setProfitDivider(uint256 _value) external onlyOwner {... */\n    tag_43:\n        /* \"@openzeppelin/contracts@v4.9.3/access/Ownable.sol\":1094:1107  _checkOwner() */\n      tag_79\n        /* \"@openzeppelin/contracts@v4.9.3/access/Ownable.sol\":1094:1105  _checkOwner */\n      tag_52\n        /* \"@openzeppelin/contracts@v4.9.3/access/Ownable.sol\":1094:1107  _checkOwner() */\n      jump\t// in\n    tag_79:\n        /* \"FeeSplitter.sol\":2793:2794  0 */\n      0x00\n        /* \"FeeSplitter.sol\":2783:2789  _value */\n      dup2\n        /* \"FeeSplitter.sol\":2783:2794  _value == 0 */\n      sub\n        /* \"FeeSplitter.sol\":2780:2822  if(_value == 0) revert ZeroProfitDivider() */\n      tag_81\n      jumpi\n        /* \"FeeSplitter.sol\":2803:2822  ZeroProfitDivider() */\n      mload(0x40)\n      0xc830261600000000000000000000000000000000000000000000000000000000\n      dup2\n      mstore\n      0x04\n      add\n      mload(0x40)\n      dup1\n      swap2\n      sub\n      swap1\n      revert\n        /* \"FeeSplitter.sol\":2780:2822  if(_value == 0) revert ZeroProfitDivider() */\n    tag_81:\n        /* \"FeeSplitter.sol\":2851:2857  _value */\n      dup1\n        /* \"FeeSplitter.sol\":2835:2848  ProfitDivider */\n      0x06\n        /* \"FeeSplitter.sol\":2835:2857  ProfitDivider = _value */\n      dup2\n      swap1\n      sstore\n      pop\n        /* \"FeeSplitter.sol\":2896:2902  _value */\n      dup1\n        /* \"FeeSplitter.sol\":2875:2903  ProfitDividerUpdated(_value) */\n      0x3d5a337607048974766ec58e2109261b4871329988d9615e7051bae635c38a60\n      mload(0x40)\n      mload(0x40)\n      dup1\n      swap2\n      sub\n      swap1\n      log2\n        /* \"FeeSplitter.sol\":2708:2911  function setProfitDivider(uint256 _value) external onlyOwner {... */\n      pop\n      jump\t// out\n        /* \"@openzeppelin/contracts@v4.9.3/access/Ownable2Step.sol\":1139:1317  function transferOwnership(address newOwner) public virtual override onlyOwner {... */\n    tag_46:\n        /* \"@openzeppelin/contracts@v4.9.3/access/Ownable.sol\":1094:1107  _checkOwner() */\n      tag_83\n        /* \"@openzeppelin/contracts@v4.9.3/access/Ownable.sol\":1094:1105  _checkOwner */\n      tag_52\n        /* \"@openzeppelin/contracts@v4.9.3/access/Ownable.sol\":1094:1107  _checkOwner() */\n      jump\t// in\n    tag_83:\n        /* \"@openzeppelin/contracts@v4.9.3/access/Ownable2Step.sol\":1244:1252  newOwner */\n      dup1\n        /* \"@openzeppelin/contracts@v4.9.3/access/Ownable2Step.sol\":1228:1241  _pendingOwner */\n      0x01\n      0x00\n        /* \"@openzeppelin/contracts@v4.9.3/access/Ownable2Step.sol\":1228:1252  _pendingOwner = newOwner */\n      0x0100\n      exp\n      dup2\n      sload\n      dup2\n      0xffffffffffffffffffffffffffffffffffffffff\n      mul\n      not\n      and\n      swap1\n      dup4\n      0xffffffffffffffffffffffffffffffffffffffff\n      and\n      mul\n      or\n      swap1\n      sstore\n      pop\n        /* \"@openzeppelin/contracts@v4.9.3/access/Ownable2Step.sol\":1301:1309  newOwner */\n      dup1\n        /* \"@openzeppelin/contracts@v4.9.3/access/Ownable2Step.sol\":1267:1310  OwnershipTransferStarted(owner(), newOwner) */\n      0xffffffffffffffffffffffffffffffffffffffff\n      and\n        /* \"@openzeppelin/contracts@v4.9.3/access/Ownable2Step.sol\":1292:1299  owner() */\n      tag_85\n        /* \"@openzeppelin/contracts@v4.9.3/access/Ownable2Step.sol\":1292:1297  owner */\n      tag_24\n        /* \"@openzeppelin/contracts@v4.9.3/access/Ownable2Step.sol\":1292:1299  owner() */\n      jump\t// in\n    tag_85:\n        /* \"@openzeppelin/contracts@v4.9.3/access/Ownable2Step.sol\":1267:1310  OwnershipTransferStarted(owner(), newOwner) */\n      0xffffffffffffffffffffffffffffffffffffffff\n      and\n      0x38d16b8cac22d99fc7c124b9cd0de2d3fa1faef420bfe791d8c362d765e22700\n      mload(0x40)\n      mload(0x40)\n      dup1\n      swap2\n      sub\n      swap1\n      log3\n        /* \"@openzeppelin/contracts@v4.9.3/access/Ownable2Step.sol\":1139:1317  function transferOwnership(address newOwner) public virtual override onlyOwner {... */\n      pop\n      jump\t// out\n        /* \"FeeSplitter.sol\":2055:2533  function splitFees() external onlyOwner {... */\n    tag_48:\n        /* \"@openzeppelin/contracts@v4.9.3/access/Ownable.sol\":1094:1107  _checkOwner() */\n      tag_87\n        /* \"@openzeppelin/contracts@v4.9.3/access/Ownable.sol\":1094:1105  _checkOwner */\n      tag_52\n        /* \"@openzeppelin/contracts@v4.9.3/access/Ownable.sol\":1094:1107  _checkOwner() */\n      jump\t// in\n    tag_87:\n        /* \"FeeSplitter.sol\":2106:2120  uint256 profit */\n      0x00\n        /* \"FeeSplitter.sol\":2158:2171  ProfitDivider */\n      sload(0x06)\n        /* \"FeeSplitter.sol\":2123:2130  _PTOKEN */\n      immutable(\"0x7173bb0c0c341c627c9734f9095ef27b00afaca222d0fccf9d280fbad8b7c078\")\n        /* \"FeeSplitter.sol\":2123:2140  _PTOKEN.balanceOf */\n      0xffffffffffffffffffffffffffffffffffffffff\n      and\n      0x70a08231\n        /* \"FeeSplitter.sol\":2149:2153  this */\n      address\n        /* \"FeeSplitter.sol\":2123:2155  _PTOKEN.balanceOf(address(this)) */\n      mload(0x40)\n      dup3\n      0xffffffff\n      and\n      0xe0\n      shl\n      dup2\n      mstore\n      0x04\n      add\n      tag_89\n      swap2\n      swap1\n      tag_26\n      jump\t// in\n    tag_89:\n      0x20\n      mload(0x40)\n      dup1\n      dup4\n      sub\n      dup2\n      dup7\n      gas\n      staticcall\n      iszero\n      dup1\n      iszero\n      tag_91\n      jumpi\n      returndatasize\n      0x00\n      dup1\n      returndatacopy\n      revert(0x00, returndatasize)\n    tag_91:\n      pop\n      pop\n      pop\n      pop\n      mload(0x40)\n      returndatasize\n      not(0x1f)\n      0x1f\n      dup3\n      add\n      and\n      dup3\n      add\n      dup1\n      0x40\n      mstore\n      pop\n      dup2\n      add\n      swap1\n      tag_92\n      swap2\n      swap1\n      tag_93\n      jump\t// in\n    tag_92:\n        /* \"FeeSplitter.sol\":2123:2171  _PTOKEN.balanceOf(address(this)) / ProfitDivider */\n      tag_94\n      swap2\n      swap1\n      tag_95\n      jump\t// in\n    tag_94:\n        /* \"FeeSplitter.sol\":2106:2171  uint256 profit = _PTOKEN.balanceOf(address(this)) / ProfitDivider */\n      swap1\n      pop\n        /* \"FeeSplitter.sol\":2184:2237  SafeERC20.safeTransfer(_PTOKEN, EQUALDAO, profit / 2) */\n      tag_96\n        /* \"FeeSplitter.sol\":2207:2214  _PTOKEN */\n      immutable(\"0x7173bb0c0c341c627c9734f9095ef27b00afaca222d0fccf9d280fbad8b7c078\")\n        /* \"FeeSplitter.sol\":2216:2224  EQUALDAO */\n      0x05\n      0x00\n      swap1\n      sload\n      swap1\n      0x0100\n      exp\n      swap1\n      div\n      0xffffffffffffffffffffffffffffffffffffffff\n      and\n        /* \"FeeSplitter.sol\":2235:2236  2 */\n      0x02\n        /* \"FeeSplitter.sol\":2226:2232  profit */\n      dup5\n        /* \"FeeSplitter.sol\":2226:2236  profit / 2 */\n      tag_97\n      swap2\n      swap1\n      tag_95\n      jump\t// in\n    tag_97:\n        /* \"FeeSplitter.sol\":2184:2206  SafeERC20.safeTransfer */\n      tag_98\n        /* \"FeeSplitter.sol\":2184:2237  SafeERC20.safeTransfer(_PTOKEN, EQUALDAO, profit / 2) */\n      jump\t// in\n    tag_96:\n        /* \"FeeSplitter.sol\":2248:2301  SafeERC20.safeTransfer(_PTOKEN, PANTHEON, profit / 2) */\n      tag_99\n        /* \"FeeSplitter.sol\":2271:2278  _PTOKEN */\n      immutable(\"0x7173bb0c0c341c627c9734f9095ef27b00afaca222d0fccf9d280fbad8b7c078\")\n        /* \"FeeSplitter.sol\":2280:2288  PANTHEON */\n      0x04\n      0x00\n      swap1\n      sload\n      swap1\n      0x0100\n      exp\n      swap1\n      div\n      0xffffffffffffffffffffffffffffffffffffffff\n      and\n        /* \"FeeSplitter.sol\":2299:2300  2 */\n      0x02\n        /* \"FeeSplitter.sol\":2290:2296  profit */\n      dup5\n        /* \"FeeSplitter.sol\":2290:2300  profit / 2 */\n      tag_100\n      swap2\n      swap1\n      tag_95\n      jump\t// in\n    tag_100:\n        /* \"FeeSplitter.sol\":2248:2270  SafeERC20.safeTransfer */\n      tag_98\n        /* \"FeeSplitter.sol\":2248:2301  SafeERC20.safeTransfer(_PTOKEN, PANTHEON, profit / 2) */\n      jump\t// in\n    tag_99:\n        /* \"FeeSplitter.sol\":2314:2331  uint256 remaining */\n      0x00\n        /* \"FeeSplitter.sol\":2334:2341  _PTOKEN */\n      immutable(\"0x7173bb0c0c341c627c9734f9095ef27b00afaca222d0fccf9d280fbad8b7c078\")\n        /* \"FeeSplitter.sol\":2334:2351  _PTOKEN.balanceOf */\n      0xffffffffffffffffffffffffffffffffffffffff\n      and\n      0x70a08231\n        /* \"FeeSplitter.sol\":2360:2364  this */\n      address\n        /* \"FeeSplitter.sol\":2334:2366  _PTOKEN.balanceOf(address(this)) */\n      mload(0x40)\n      dup3\n      0xffffffff\n      and\n      0xe0\n      shl\n      dup2\n      mstore\n      0x04\n      add\n      tag_101\n      swap2\n      swap1\n      tag_26\n      jump\t// in\n    tag_101:\n      0x20\n      mload(0x40)\n      dup1\n      dup4\n      sub\n      dup2\n      dup7\n      gas\n      staticcall\n      iszero\n      dup1\n      iszero\n      tag_103\n      jumpi\n      returndatasize\n      0x00\n      dup1\n      returndatacopy\n      revert(0x00, returndatasize)\n    tag_103:\n      pop\n      pop\n      pop\n      pop\n      mload(0x40)\n      returndatasize\n      not(0x1f)\n      0x1f\n      dup3\n      add\n      and\n      dup3\n      add\n      dup1\n      0x40\n      mstore\n      pop\n      dup2\n      add\n      swap1\n      tag_104\n      swap2\n      swap1\n      tag_93\n      jump\t// in\n    tag_104:\n        /* \"FeeSplitter.sol\":2314:2366  uint256 remaining = _PTOKEN.balanceOf(address(this)) */\n      swap1\n      pop\n        /* \"FeeSplitter.sol\":2379:2429  SafeERC20.safeTransfer(_PTOKEN, BRIBES, remaining) */\n      tag_105\n        /* \"FeeSplitter.sol\":2402:2409  _PTOKEN */\n      immutable(\"0x7173bb0c0c341c627c9734f9095ef27b00afaca222d0fccf9d280fbad8b7c078\")\n        /* \"FeeSplitter.sol\":2411:2417  BRIBES */\n      0x03\n      0x00\n      swap1\n      sload\n      swap1\n      0x0100\n      exp\n      swap1\n      div\n      0xffffffffffffffffffffffffffffffffffffffff\n      and\n        /* \"FeeSplitter.sol\":2419:2428  remaining */\n      dup4\n        /* \"FeeSplitter.sol\":2379:2401  SafeERC20.safeTransfer */\n      tag_98\n        /* \"FeeSplitter.sol\":2379:2429  SafeERC20.safeTransfer(_PTOKEN, BRIBES, remaining) */\n      jump\t// in\n    tag_105:\n        /* \"FeeSplitter.sol\":2455:2464  remaining */\n      dup1\n        /* \"FeeSplitter.sol\":2440:2451  totalBribes */\n      0x07\n      0x00\n        /* \"FeeSplitter.sol\":2440:2464  totalBribes += remaining */\n      dup3\n      dup3\n      sload\n      tag_106\n      swap2\n      swap1\n      tag_107\n      jump\t// in\n    tag_106:\n      swap3\n      pop\n      pop\n      dup2\n      swap1\n      sstore\n      pop\n        /* \"FeeSplitter.sol\":2515:2524  remaining */\n      dup1\n        /* \"FeeSplitter.sol\":2507:2513  profit */\n      dup3\n        /* \"FeeSplitter.sol\":2490:2505  block.timestamp */\n      timestamp\n        /* \"FeeSplitter.sol\":2482:2525  FeeSent(block.timestamp, profit, remaining) */\n      0x50efd2f2f250964da5961d710f9e330ea396faec8ef1e3dad48ff354a629d382\n      mload(0x40)\n      mload(0x40)\n      dup1\n      swap2\n      sub\n      swap1\n      log4\n        /* \"FeeSplitter.sol\":2095:2533  {... */\n      pop\n      pop\n        /* \"FeeSplitter.sol\":2055:2533  function splitFees() external onlyOwner {... */\n      jump\t// out\n        /* \"@openzeppelin/contracts@v4.9.3/access/Ownable.sol\":2426:2613  function _transferOwnership(address newOwner) internal virtual {... */\n    tag_49:\n        /* \"@openzeppelin/contracts@v4.9.3/access/Ownable.sol\":2499:2515  address oldOwner */\n      0x00\n        /* \"@openzeppelin/contracts@v4.9.3/access/Ownable.sol\":2518:2524  _owner */\n      dup1\n      0x00\n      swap1\n      sload\n      swap1\n      0x0100\n      exp\n      swap1\n      div\n      0xffffffffffffffffffffffffffffffffffffffff\n      and\n        /* \"@openzeppelin/contracts@v4.9.3/access/Ownable.sol\":2499:2524  address oldOwner = _owner */\n      swap1\n      pop\n        /* \"@openzeppelin/contracts@v4.9.3/access/Ownable.sol\":2543:2551  newOwner */\n      dup2\n        /* \"@openzeppelin/contracts@v4.9.3/access/Ownable.sol\":2534:2540  _owner */\n      0x00\n      dup1\n        /* \"@openzeppelin/contracts@v4.9.3/access/Ownable.sol\":2534:2551  _owner = newOwner */\n      0x0100\n      exp\n      dup2\n      sload\n      dup2\n      0xffffffffffffffffffffffffffffffffffffffff\n      mul\n      not\n      and\n      swap1\n      dup4\n      0xffffffffffffffffffffffffffffffffffffffff\n      and\n      mul\n      or\n      swap1\n      sstore\n      pop\n        /* \"@openzeppelin/contracts@v4.9.3/access/Ownable.sol\":2597:2605  newOwner */\n      dup2\n        /* \"@openzeppelin/contracts@v4.9.3/access/Ownable.sol\":2566:2606  OwnershipTransferred(oldOwner, newOwner) */\n      0xffffffffffffffffffffffffffffffffffffffff\n      and\n        /* \"@openzeppelin/contracts@v4.9.3/access/Ownable.sol\":2587:2595  oldOwner */\n      dup2\n        /* \"@openzeppelin/contracts@v4.9.3/access/Ownable.sol\":2566:2606  OwnershipTransferred(oldOwner, newOwner) */\n      0xffffffffffffffffffffffffffffffffffffffff\n      and\n      0x8be0079c531659141344cd1fd0a4f28419497f9722a3daafe3b4186f6b6457e0\n      mload(0x40)\n      mload(0x40)\n      dup1\n      swap2\n      sub\n      swap1\n      log3\n        /* \"@openzeppelin/contracts@v4.9.3/access/Ownable.sol\":2489:2613  {... */\n      pop\n        /* \"@openzeppelin/contracts@v4.9.3/access/Ownable.sol\":2426:2613  function _transferOwnership(address newOwner) internal virtual {... */\n      pop\n      jump\t// out\n        /* \"@openzeppelin/contracts@v4.9.3/access/Ownable.sol\":1359:1489  function _checkOwner() internal view virtual {... */\n    tag_52:\n        /* \"@openzeppelin/contracts@v4.9.3/access/Ownable.sol\":1433:1445  _msgSender() */\n      tag_110\n        /* \"@openzeppelin/contracts@v4.9.3/access/Ownable.sol\":1433:1443  _msgSender */\n      tag_62\n        /* \"@openzeppelin/contracts@v4.9.3/access/Ownable.sol\":1433:1445  _msgSender() */\n      jump\t// in\n    tag_110:\n        /* \"@openzeppelin/contracts@v4.9.3/access/Ownable.sol\":1422:1445  owner() == _msgSender() */\n      0xffffffffffffffffffffffffffffffffffffffff\n      and\n        /* \"@openzeppelin/contracts@v4.9.3/access/Ownable.sol\":1422:1429  owner() */\n      tag_111\n        /* \"@openzeppelin/contracts@v4.9.3/access/Ownable.sol\":1422:1427  owner */\n      tag_24\n        /* \"@openzeppelin/contracts@v4.9.3/access/Ownable.sol\":1422:1429  owner() */\n      jump\t// in\n    tag_111:\n        /* \"@openzeppelin/contracts@v4.9.3/access/Ownable.sol\":1422:1445  owner() == _msgSender() */\n      0xffffffffffffffffffffffffffffffffffffffff\n      and\n      eq\n        /* \"@openzeppelin/contracts@v4.9.3/access/Ownable.sol\":1414:1482  require(owner() == _msgSender(), \"Ownable: caller is not the owner\") */\n      tag_112\n      jumpi\n      mload(0x40)\n      0x08c379a000000000000000000000000000000000000000000000000000000000\n      dup2\n      mstore\n      0x04\n      add\n      tag_113\n      swap1\n      tag_114\n      jump\t// in\n    tag_113:\n      mload(0x40)\n      dup1\n      swap2\n      sub\n      swap1\n      revert\n    tag_112:\n        /* \"@openzeppelin/contracts@v4.9.3/access/Ownable.sol\":1359:1489  function _checkOwner() internal view virtual {... */\n      jump\t// out\n        /* \"@openzeppelin/contracts@v4.9.3/access/Ownable2Step.sol\":1501:1654  function _transferOwnership(address newOwner) internal virtual override {... */\n    tag_59:\n        /* \"@openzeppelin/contracts@v4.9.3/access/Ownable2Step.sol\":1590:1603  _pendingOwner */\n      0x01\n      0x00\n        /* \"@openzeppelin/contracts@v4.9.3/access/Ownable2Step.sol\":1583:1603  delete _pendingOwner */\n      0x0100\n      exp\n      dup2\n      sload\n      swap1\n      0xffffffffffffffffffffffffffffffffffffffff\n      mul\n      not\n      and\n      swap1\n      sstore\n        /* \"@openzeppelin/contracts@v4.9.3/access/Ownable2Step.sol\":1613:1647  super._transferOwnership(newOwner) */\n      tag_116\n        /* \"@openzeppelin/contracts@v4.9.3/access/Ownable2Step.sol\":1638:1646  newOwner */\n      dup2\n        /* \"@openzeppelin/contracts@v4.9.3/access/Ownable2Step.sol\":1613:1637  super._transferOwnership */\n      tag_49\n        /* \"@openzeppelin/contracts@v4.9.3/access/Ownable2Step.sol\":1613:1647  super._transferOwnership(newOwner) */\n      jump\t// in\n    tag_116:\n        /* \"@openzeppelin/contracts@v4.9.3/access/Ownable2Step.sol\":1501:1654  function _transferOwnership(address newOwner) internal virtual override {... */\n      pop\n      jump\t// out\n        /* \"@openzeppelin/contracts@v4.9.3/utils/Context.sol\":640:736  function _msgSender() internal view virtual returns (address) {... */\n    tag_62:\n        /* \"@openzeppelin/contracts@v4.9.3/utils/Context.sol\":693:700  address */\n      0x00\n        /* \"@openzeppelin/contracts@v4.9.3/utils/Context.sol\":719:729  msg.sender */\n      caller\n        /* \"@openzeppelin/contracts@v4.9.3/utils/Context.sol\":712:729  return msg.sender */\n      swap1\n      pop\n        /* \"@openzeppelin/contracts@v4.9.3/utils/Context.sol\":640:736  function _msgSender() internal view virtual returns (address) {... */\n      swap1\n      jump\t// out\n        /* \"@openzeppelin/contracts@v4.9.3/token/ERC20/utils/SafeERC20.sol\":941:1116  function safeTransfer(IERC20 token, address to, uint256 value) internal {... */\n    tag_98:\n        /* \"@openzeppelin/contracts@v4.9.3/token/ERC20/utils/SafeERC20.sol\":1023:1109  _callOptionalReturn(token, abi.encodeWithSelector(token.transfer.selector, to, value)) */\n      tag_119\n        /* \"@openzeppelin/contracts@v4.9.3/token/ERC20/utils/SafeERC20.sol\":1043:1048  token */\n      dup4\n        /* \"@openzeppelin/contracts@v4.9.3/token/ERC20/utils/SafeERC20.sol\":1073:1096  token.transfer.selector */\n      shl(0xe0, 0xa9059cbb)\n        /* \"@openzeppelin/contracts@v4.9.3/token/ERC20/utils/SafeERC20.sol\":1098:1100  to */\n      dup5\n        /* \"@openzeppelin/contracts@v4.9.3/token/ERC20/utils/SafeERC20.sol\":1102:1107  value */\n      dup5\n        /* \"@openzeppelin/contracts@v4.9.3/token/ERC20/utils/SafeERC20.sol\":1050:1108  abi.encodeWithSelector(token.transfer.selector, to, value) */\n      add(0x24, mload(0x40))\n      tag_120\n      swap3\n      swap2\n      swap1\n      tag_121\n      jump\t// in\n    tag_120:\n      mload(0x40)\n      0x20\n      dup2\n      dup4\n      sub\n      sub\n      dup2\n      mstore\n      swap1\n      0x40\n      mstore\n      swap1\n      not(0xffffffffffffffffffffffffffffffffffffffffffffffffffffffff)\n      and\n      0x20\n      dup3\n      add\n      dup1\n      mload\n      0xffffffffffffffffffffffffffffffffffffffffffffffffffffffff\n      dup4\n      dup2\n      dup4\n      and\n      or\n      dup4\n      mstore\n      pop\n      pop\n      pop\n      pop\n        /* \"@openzeppelin/contracts@v4.9.3/token/ERC20/utils/SafeERC20.sol\":1023:1042  _callOptionalReturn */\n      tag_122\n        /* \"@openzeppelin/contracts@v4.9.3/token/ERC20/utils/SafeERC20.sol\":1023:1109  _callOptionalReturn(token, abi.encodeWithSelector(token.transfer.selector, to, value)) */\n      jump\t// in\n    tag_119:\n        /* \"@openzeppelin/contracts@v4.9.3/token/ERC20/utils/SafeERC20.sol\":941:1116  function safeTransfer(IERC20 token, address to, uint256 value) internal {... */\n      pop\n      pop\n      pop\n      jump\t// out\n        /* \"@openzeppelin/contracts@v4.9.3/token/ERC20/utils/SafeERC20.sol\":5196:5838  function _callOptionalReturn(IERC20 token, bytes memory data) private {... */\n    tag_122:\n        /* \"@openzeppelin/contracts@v4.9.3/token/ERC20/utils/SafeERC20.sol\":5615:5638  bytes memory returndata */\n      0x00\n        /* \"@openzeppelin/contracts@v4.9.3/token/ERC20/utils/SafeERC20.sol\":5641:5710  address(token).functionCall(data, \"SafeERC20: low-level call failed\") */\n      tag_124\n        /* \"@openzeppelin/contracts@v4.9.3/token/ERC20/utils/SafeERC20.sol\":5669:5673  data */\n      dup3\n        /* \"@openzeppelin/contracts@v4.9.3/token/ERC20/utils/SafeERC20.sol\":5641:5710  address(token).functionCall(data, \"SafeERC20: low-level call failed\") */\n      mload(0x40)\n      dup1\n      0x40\n      add\n      0x40\n      mstore\n      dup1\n      0x20\n      dup2\n      mstore\n      0x20\n      add\n      0x5361666545524332303a206c6f772d6c6576656c2063616c6c206661696c6564\n      dup2\n      mstore\n      pop\n        /* \"@openzeppelin/contracts@v4.9.3/token/ERC20/utils/SafeERC20.sol\":5649:5654  token */\n      dup6\n        /* \"@openzeppelin/contracts@v4.9.3/token/ERC20/utils/SafeERC20.sol\":5641:5668  address(token).functionCall */\n      0xffffffffffffffffffffffffffffffffffffffff\n      and\n      tag_125\n      swap1\n        /* \"@openzeppelin/contracts@v4.9.3/token/ERC20/utils/SafeERC20.sol\":5641:5710  address(token).functionCall(data, \"SafeERC20: low-level call failed\") */\n      swap3\n      swap2\n      swap1\n      0xffffffff\n      and\n      jump\t// in\n    tag_124:\n        /* \"@openzeppelin/contracts@v4.9.3/token/ERC20/utils/SafeERC20.sol\":5615:5710  bytes memory returndata = address(token).functionCall(data, \"SafeERC20: low-level call failed\") */\n      swap1\n      pop\n        /* \"@openzeppelin/contracts@v4.9.3/token/ERC20/utils/SafeERC20.sol\":5749:5750  0 */\n      0x00\n        /* \"@openzeppelin/contracts@v4.9.3/token/ERC20/utils/SafeERC20.sol\":5728:5738  returndata */\n      dup2\n        /* \"@openzeppelin/contracts@v4.9.3/token/ERC20/utils/SafeERC20.sol\":5728:5745  returndata.length */\n      mload\n        /* \"@openzeppelin/contracts@v4.9.3/token/ERC20/utils/SafeERC20.sol\":5728:5750  returndata.length == 0 */\n      eq\n        /* \"@openzeppelin/contracts@v4.9.3/token/ERC20/utils/SafeERC20.sol\":5728:5784  returndata.length == 0 || abi.decode(returndata, (bool)) */\n      dup1\n      tag_126\n      jumpi\n      pop\n        /* \"@openzeppelin/contracts@v4.9.3/token/ERC20/utils/SafeERC20.sol\":5765:5775  returndata */\n      dup1\n        /* \"@openzeppelin/contracts@v4.9.3/token/ERC20/utils/SafeERC20.sol\":5754:5784  abi.decode(returndata, (bool)) */\n      dup1\n      0x20\n      add\n      swap1\n      mload\n      dup2\n      add\n      swap1\n      tag_127\n      swap2\n      swap1\n      tag_128\n      jump\t// in\n    tag_127:\n        /* \"@openzeppelin/contracts@v4.9.3/token/ERC20/utils/SafeERC20.sol\":5728:5784  returndata.length == 0 || abi.decode(returndata, (bool)) */\n    tag_126:\n        /* \"@openzeppelin/contracts@v4.9.3/token/ERC20/utils/SafeERC20.sol\":5720:5831  require(returndata.length == 0 || abi.decode(returndata, (bool)), \"SafeERC20: ERC20 operation did not succeed\") */\n      tag_129\n      jumpi\n      mload(0x40)\n      0x08c379a000000000000000000000000000000000000000000000000000000000\n      dup2\n      mstore\n      0x04\n      add\n      tag_130\n      swap1\n      tag_131\n      jump\t// in\n    tag_130:\n      mload(0x40)\n      dup1\n      swap2\n      sub\n      swap1\n      revert\n    tag_129:\n        /* \"@openzeppelin/contracts@v4.9.3/token/ERC20/utils/SafeERC20.sol\":5266:5838  {... */\n      pop\n        /* \"@openzeppelin/contracts@v4.9.3/token/ERC20/utils/SafeERC20.sol\":5196:5838  function _callOptionalReturn(IERC20 token, bytes memory data) private {... */\n      pop\n      pop\n      jump\t// out\n        /* \"@openzeppelin/contracts@v4.9.3/utils/Address.sol\":4108:4331  function functionCall(... */\n    tag_125:\n        /* \"@openzeppelin/contracts@v4.9.3/utils/Address.sol\":4241:4253  bytes memory */\n      0x60\n        /* \"@openzeppelin/contracts@v4.9.3/utils/Address.sol\":4272:4324  functionCallWithValue(target, data, 0, errorMessage) */\n      tag_133\n        /* \"@openzeppelin/contracts@v4.9.3/utils/Address.sol\":4294:4300  target */\n      dup5\n        /* \"@openzeppelin/contracts@v4.9.3/utils/Address.sol\":4302:4306  data */\n      dup5\n        /* \"@openzeppelin/contracts@v4.9.3/utils/Address.sol\":4308:4309  0 */\n      0x00\n        /* \"@openzeppelin/contracts@v4.9.3/utils/Address.sol\":4311:4323  errorMessage */\n      dup6\n        /* \"@openzeppelin/contracts@v4.9.3/utils/Address.sol\":4272:4293  functionCallWithValue */\n      tag_134\n        /* \"@openzeppelin/contracts@v4.9.3/utils/Address.sol\":4272:4324  functionCallWithValue(target, data, 0, errorMessage) */\n      jump\t// in\n    tag_133:\n        /* \"@openzeppelin/contracts@v4.9.3/utils/Address.sol\":4265:4324  return functionCallWithValue(target, data, 0, errorMessage) */\n      swap1\n      pop\n        /* \"@openzeppelin/contracts@v4.9.3/utils/Address.sol\":4108:4331  function functionCall(... */\n      swap4\n      swap3\n      pop\n      pop\n      pop\n      jump\t// out\n        /* \"@openzeppelin/contracts@v4.9.3/utils/Address.sol\":5165:5611  function functionCallWithValue(... */\n    tag_134:\n        /* \"@openzeppelin/contracts@v4.9.3/utils/Address.sol\":5330:5342  bytes memory */\n      0x60\n        /* \"@openzeppelin/contracts@v4.9.3/utils/Address.sol\":5387:5392  value */\n      dup3\n        /* \"@openzeppelin/contracts@v4.9.3/utils/Address.sol\":5362:5383  address(this).balance */\n      selfbalance\n        /* \"@openzeppelin/contracts@v4.9.3/utils/Address.sol\":5362:5392  address(this).balance >= value */\n      lt\n      iszero\n        /* \"@openzeppelin/contracts@v4.9.3/utils/Address.sol\":5354:5435  require(address(this).balance >= value, \"Address: insufficient balance for call\") */\n      tag_136\n      jumpi\n      mload(0x40)\n      0x08c379a000000000000000000000000000000000000000000000000000000000\n      dup2\n      mstore\n      0x04\n      add\n      tag_137\n      swap1\n      tag_138\n      jump\t// in\n    tag_137:\n      mload(0x40)\n      dup1\n      swap2\n      sub\n      swap1\n      revert\n    tag_136:\n        /* \"@openzeppelin/contracts@v4.9.3/utils/Address.sol\":5446:5458  bool success */\n      0x00\n        /* \"@openzeppelin/contracts@v4.9.3/utils/Address.sol\":5460:5483  bytes memory returndata */\n      dup1\n        /* \"@openzeppelin/contracts@v4.9.3/utils/Address.sol\":5487:5493  target */\n      dup7\n        /* \"@openzeppelin/contracts@v4.9.3/utils/Address.sol\":5487:5498  target.call */\n      0xffffffffffffffffffffffffffffffffffffffff\n      and\n        /* \"@openzeppelin/contracts@v4.9.3/utils/Address.sol\":5506:5511  value */\n      dup6\n        /* \"@openzeppelin/contracts@v4.9.3/utils/Address.sol\":5513:5517  data */\n      dup8\n        /* \"@openzeppelin/contracts@v4.9.3/utils/Address.sol\":5487:5518  target.call{value: value}(data) */\n      mload(0x40)\n      tag_139\n      swap2\n      swap1\n      tag_140\n      jump\t// in\n    tag_139:\n      0x00\n      mload(0x40)\n      dup1\n      dup4\n      sub\n      dup2\n      dup6\n      dup8\n      gas\n      call\n      swap3\n      pop\n      pop\n      pop\n      returndatasize\n      dup1\n      0x00\n      dup2\n      eq\n      tag_143\n      jumpi\n      mload(0x40)\n      swap2\n      pop\n      and(add(returndatasize, 0x3f), not(0x1f))\n      dup3\n      add\n      0x40\n      mstore\n      returndatasize\n      dup3\n      mstore\n      returndatasize\n      0x00\n      0x20\n      dup5\n      add\n      returndatacopy\n      jump(tag_142)\n    tag_143:\n      0x60\n      swap2\n      pop\n    tag_142:\n      pop\n        /* \"@openzeppelin/contracts@v4.9.3/utils/Address.sol\":5445:5518  (bool success, bytes memory returndata) = target.call{value: value}(data) */\n      swap2\n      pop\n      swap2\n      pop\n        /* \"@openzeppelin/contracts@v4.9.3/utils/Address.sol\":5535:5604  verifyCallResultFromTarget(target, success, returndata, errorMessage) */\n      tag_144\n        /* \"@openzeppelin/contracts@v4.9.3/utils/Address.sol\":5562:5568  target */\n      dup8\n        /* \"@openzeppelin/contracts@v4.9.3/utils/Address.sol\":5570:5577  success */\n      dup4\n        /* \"@openzeppelin/contracts@v4.9.3/utils/Address.sol\":5579:5589  returndata */\n      dup4\n        /* \"@openzeppelin/contracts@v4.9.3/utils/Address.sol\":5591:5603  errorMessage */\n      dup8\n        /* \"@openzeppelin/contracts@v4.9.3/utils/Address.sol\":5535:5561  verifyCallResultFromTarget */\n      tag_145\n        /* \"@openzeppelin/contracts@v4.9.3/utils/Address.sol\":5535:5604  verifyCallResultFromTarget(target, success, returndata, errorMessage) */\n      jump\t// in\n    tag_144:\n        /* \"@openzeppelin/contracts@v4.9.3/utils/Address.sol\":5528:5604  return verifyCallResultFromTarget(target, success, returndata, errorMessage) */\n      swap3\n      pop\n      pop\n      pop\n        /* \"@openzeppelin/contracts@v4.9.3/utils/Address.sol\":5165:5611  function functionCallWithValue(... */\n      swap5\n      swap4\n      pop\n      pop\n      pop\n      pop\n      jump\t// out\n        /* \"@openzeppelin/contracts@v4.9.3/utils/Address.sol\":7671:8299  function verifyCallResultFromTarget(... */\n    tag_145:\n        /* \"@openzeppelin/contracts@v4.9.3/utils/Address.sol\":7851:7863  bytes memory */\n      0x60\n        /* \"@openzeppelin/contracts@v4.9.3/utils/Address.sol\":7879:7886  success */\n      dup4\n        /* \"@openzeppelin/contracts@v4.9.3/utils/Address.sol\":7875:8293  if (success) {... */\n      iszero\n      tag_147\n      jumpi\n        /* \"@openzeppelin/contracts@v4.9.3/utils/Address.sol\":7927:7928  0 */\n      0x00\n        /* \"@openzeppelin/contracts@v4.9.3/utils/Address.sol\":7906:7916  returndata */\n      dup4\n        /* \"@openzeppelin/contracts@v4.9.3/utils/Address.sol\":7906:7923  returndata.length */\n      mload\n        /* \"@openzeppelin/contracts@v4.9.3/utils/Address.sol\":7906:7928  returndata.length == 0 */\n      sub\n        /* \"@openzeppelin/contracts@v4.9.3/utils/Address.sol\":7902:8188  if (returndata.length == 0) {... */\n      tag_148\n      jumpi\n        /* \"@openzeppelin/contracts@v4.9.3/utils/Address.sol\":8121:8139  isContract(target) */\n      tag_149\n        /* \"@openzeppelin/contracts@v4.9.3/utils/Address.sol\":8132:8138  target */\n      dup6\n        /* \"@openzeppelin/contracts@v4.9.3/utils/Address.sol\":8121:8131  isContract */\n      tag_150\n        /* \"@openzeppelin/contracts@v4.9.3/utils/Address.sol\":8121:8139  isContract(target) */\n      jump\t// in\n    tag_149:\n        /* \"@openzeppelin/contracts@v4.9.3/utils/Address.sol\":8113:8173  require(isContract(target), \"Address: call to non-contract\") */\n      tag_151\n      jumpi\n      mload(0x40)\n      0x08c379a000000000000000000000000000000000000000000000000000000000\n      dup2\n      mstore\n      0x04\n      add\n      tag_152\n      swap1\n      tag_153\n      jump\t// in\n    tag_152:\n      mload(0x40)\n      dup1\n      swap2\n      sub\n      swap1\n      revert\n    tag_151:\n        /* \"@openzeppelin/contracts@v4.9.3/utils/Address.sol\":7902:8188  if (returndata.length == 0) {... */\n    tag_148:\n        /* \"@openzeppelin/contracts@v4.9.3/utils/Address.sol\":8208:8218  returndata */\n      dup3\n        /* \"@openzeppelin/contracts@v4.9.3/utils/Address.sol\":8201:8218  return returndata */\n      swap1\n      pop\n      jump(tag_146)\n        /* \"@openzeppelin/contracts@v4.9.3/utils/Address.sol\":7875:8293  if (success) {... */\n    tag_147:\n        /* \"@openzeppelin/contracts@v4.9.3/utils/Address.sol\":8249:8282  _revert(returndata, errorMessage) */\n      tag_155\n        /* \"@openzeppelin/contracts@v4.9.3/utils/Address.sol\":8257:8267  returndata */\n      dup4\n        /* \"@openzeppelin/contracts@v4.9.3/utils/Address.sol\":8269:8281  errorMessage */\n      dup4\n        /* \"@openzeppelin/contracts@v4.9.3/utils/Address.sol\":8249:8256  _revert */\n      tag_156\n        /* \"@openzeppelin/contracts@v4.9.3/utils/Address.sol\":8249:8282  _revert(returndata, errorMessage) */\n      jump\t// in\n    tag_155:\n        /* \"@openzeppelin/contracts@v4.9.3/utils/Address.sol\":7671:8299  function verifyCallResultFromTarget(... */\n    tag_146:\n      swap5\n      swap4\n      pop\n      pop\n      pop\n      pop\n      jump\t// out\n        /* \"@openzeppelin/contracts@v4.9.3/utils/Address.sol\":1412:1732  function isContract(address account) internal view returns (bool) {... */\n    tag_150:\n        /* \"@openzeppelin/contracts@v4.9.3/utils/Address.sol\":1472:1476  bool */\n      0x00\n        /* \"@openzeppelin/contracts@v4.9.3/utils/Address.sol\":1724:1725  0 */\n      dup1\n        /* \"@openzeppelin/contracts@v4.9.3/utils/Address.sol\":1702:1709  account */\n      dup3\n        /* \"@openzeppelin/contracts@v4.9.3/utils/Address.sol\":1702:1721  account.code.length */\n      0xffffffffffffffffffffffffffffffffffffffff\n      and\n      extcodesize\n        /* \"@openzeppelin/contracts@v4.9.3/utils/Address.sol\":1702:1725  account.code.length > 0 */\n      gt\n        /* \"@openzeppelin/contracts@v4.9.3/utils/Address.sol\":1695:1725  return account.code.length > 0 */\n      swap1\n      pop\n        /* \"@openzeppelin/contracts@v4.9.3/utils/Address.sol\":1412:1732  function isContract(address account) internal view returns (bool) {... */\n      swap2\n      swap1\n      pop\n      jump\t// out\n        /* \"@openzeppelin/contracts@v4.9.3/utils/Address.sol\":8821:9361  function _revert(bytes memory returndata, string memory errorMessage) private pure {... */\n    tag_156:\n        /* \"@openzeppelin/contracts@v4.9.3/utils/Address.sol\":9000:9001  0 */\n      0x00\n        /* \"@openzeppelin/contracts@v4.9.3/utils/Address.sol\":8980:8990  returndata */\n      dup3\n        /* \"@openzeppelin/contracts@v4.9.3/utils/Address.sol\":8980:8997  returndata.length */\n      mload\n        /* \"@openzeppelin/contracts@v4.9.3/utils/Address.sol\":8980:9001  returndata.length > 0 */\n      gt\n        /* \"@openzeppelin/contracts@v4.9.3/utils/Address.sol\":8976:9355  if (returndata.length > 0) {... */\n      iszero\n      tag_159\n      jumpi\n        /* \"@openzeppelin/contracts@v4.9.3/utils/Address.sol\":9208:9218  returndata */\n      dup2\n        /* \"@openzeppelin/contracts@v4.9.3/utils/Address.sol\":9202:9219  mload(returndata) */\n      mload\n        /* \"@openzeppelin/contracts@v4.9.3/utils/Address.sol\":9264:9279  returndata_size */\n      dup1\n        /* \"@openzeppelin/contracts@v4.9.3/utils/Address.sol\":9251:9261  returndata */\n      dup4\n        /* \"@openzeppelin/contracts@v4.9.3/utils/Address.sol\":9247:9249  32 */\n      0x20\n        /* \"@openzeppelin/contracts@v4.9.3/utils/Address.sol\":9243:9262  add(32, returndata) */\n      add\n        /* \"@openzeppelin/contracts@v4.9.3/utils/Address.sol\":9236:9280  revert(add(32, returndata), returndata_size) */\n      revert\n        /* \"@openzeppelin/contracts@v4.9.3/utils/Address.sol\":8976:9355  if (returndata.length > 0) {... */\n    tag_159:\n        /* \"@openzeppelin/contracts@v4.9.3/utils/Address.sol\":9331:9343  errorMessage */\n      dup1\n        /* \"@openzeppelin/contracts@v4.9.3/utils/Address.sol\":9324:9344  revert(errorMessage) */\n      mload(0x40)\n      0x08c379a000000000000000000000000000000000000000000000000000000000\n      dup2\n      mstore\n      0x04\n      add\n      tag_161\n      swap2\n      swap1\n      tag_162\n      jump\t// in\n    tag_161:\n      mload(0x40)\n      dup1\n      swap2\n      sub\n      swap1\n      revert\n        /* \"#utility.yul\":88:205   */\n    tag_164:\n        /* \"#utility.yul\":197:198   */\n      0x00\n        /* \"#utility.yul\":194:195   */\n      dup1\n        /* \"#utility.yul\":187:199   */\n      revert\n        /* \"#utility.yul\":334:460   */\n    tag_166:\n        /* \"#utility.yul\":371:378   */\n      0x00\n        /* \"#utility.yul\":411:453   */\n      0xffffffffffffffffffffffffffffffffffffffff\n        /* \"#utility.yul\":404:409   */\n      dup3\n        /* \"#utility.yul\":400:454   */\n      and\n        /* \"#utility.yul\":389:454   */\n      swap1\n      pop\n        /* \"#utility.yul\":334:460   */\n      swap2\n      swap1\n      pop\n      jump\t// out\n        /* \"#utility.yul\":466:562   */\n    tag_167:\n        /* \"#utility.yul\":503:510   */\n      0x00\n        /* \"#utility.yul\":532:556   */\n      tag_205\n        /* \"#utility.yul\":550:555   */\n      dup3\n        /* \"#utility.yul\":532:556   */\n      tag_166\n      jump\t// in\n    tag_205:\n        /* \"#utility.yul\":521:556   */\n      swap1\n      pop\n        /* \"#utility.yul\":466:562   */\n      swap2\n      swap1\n      pop\n      jump\t// out\n        /* \"#utility.yul\":568:690   */\n    tag_168:\n        /* \"#utility.yul\":641:665   */\n      tag_207\n        /* \"#utility.yul\":659:664   */\n      dup2\n        /* \"#utility.yul\":641:665   */\n      tag_167\n      jump\t// in\n    tag_207:\n        /* \"#utility.yul\":634:639   */\n      dup2\n        /* \"#utility.yul\":631:666   */\n      eq\n        /* \"#utility.yul\":621:684   */\n      tag_208\n      jumpi\n        /* \"#utility.yul\":680:681   */\n      0x00\n        /* \"#utility.yul\":677:678   */\n      dup1\n        /* \"#utility.yul\":670:682   */\n      revert\n        /* \"#utility.yul\":621:684   */\n    tag_208:\n        /* \"#utility.yul\":568:690   */\n      pop\n      jump\t// out\n        /* \"#utility.yul\":696:835   */\n    tag_169:\n        /* \"#utility.yul\":742:747   */\n      0x00\n        /* \"#utility.yul\":780:786   */\n      dup2\n        /* \"#utility.yul\":767:787   */\n      calldataload\n        /* \"#utility.yul\":758:787   */\n      swap1\n      pop\n        /* \"#utility.yul\":796:829   */\n      tag_210\n        /* \"#utility.yul\":823:828   */\n      dup2\n        /* \"#utility.yul\":796:829   */\n      tag_168\n      jump\t// in\n    tag_210:\n        /* \"#utility.yul\":696:835   */\n      swap3\n      swap2\n      pop\n      pop\n      jump\t// out\n        /* \"#utility.yul\":841:1170   */\n    tag_17:\n        /* \"#utility.yul\":900:906   */\n      0x00\n        /* \"#utility.yul\":949:951   */\n      0x20\n        /* \"#utility.yul\":937:946   */\n      dup3\n        /* \"#utility.yul\":928:935   */\n      dup5\n        /* \"#utility.yul\":924:947   */\n      sub\n        /* \"#utility.yul\":920:952   */\n      slt\n        /* \"#utility.yul\":917:1036   */\n      iszero\n      tag_212\n      jumpi\n        /* \"#utility.yul\":955:1034   */\n      tag_213\n      tag_164\n      jump\t// in\n    tag_213:\n        /* \"#utility.yul\":917:1036   */\n    tag_212:\n        /* \"#utility.yul\":1075:1076   */\n      0x00\n        /* \"#utility.yul\":1100:1153   */\n      tag_214\n        /* \"#utility.yul\":1145:1152   */\n      dup5\n        /* \"#utility.yul\":1136:1142   */\n      dup3\n        /* \"#utility.yul\":1125:1134   */\n      dup6\n        /* \"#utility.yul\":1121:1143   */\n      add\n        /* \"#utility.yul\":1100:1153   */\n      tag_169\n      jump\t// in\n    tag_214:\n        /* \"#utility.yul\":1090:1153   */\n      swap2\n      pop\n        /* \"#utility.yul\":1046:1163   */\n      pop\n        /* \"#utility.yul\":841:1170   */\n      swap3\n      swap2\n      pop\n      pop\n      jump\t// out\n        /* \"#utility.yul\":1176:1294   */\n    tag_170:\n        /* \"#utility.yul\":1263:1287   */\n      tag_216\n        /* \"#utility.yul\":1281:1286   */\n      dup2\n        /* \"#utility.yul\":1263:1287   */\n      tag_167\n      jump\t// in\n    tag_216:\n        /* \"#utility.yul\":1258:1261   */\n      dup3\n        /* \"#utility.yul\":1251:1288   */\n      mstore\n        /* \"#utility.yul\":1176:1294   */\n      pop\n      pop\n      jump\t// out\n        /* \"#utility.yul\":1300:1522   */\n    tag_26:\n        /* \"#utility.yul\":1393:1397   */\n      0x00\n        /* \"#utility.yul\":1431:1433   */\n      0x20\n        /* \"#utility.yul\":1420:1429   */\n      dup3\n        /* \"#utility.yul\":1416:1434   */\n      add\n        /* \"#utility.yul\":1408:1434   */\n      swap1\n      pop\n        /* \"#utility.yul\":1444:1515   */\n      tag_218\n        /* \"#utility.yul\":1512:1513   */\n      0x00\n        /* \"#utility.yul\":1501:1510   */\n      dup4\n        /* \"#utility.yul\":1497:1514   */\n      add\n        /* \"#utility.yul\":1488:1494   */\n      dup5\n        /* \"#utility.yul\":1444:1515   */\n      tag_170\n      jump\t// in\n    tag_218:\n        /* \"#utility.yul\":1300:1522   */\n      swap3\n      swap2\n      pop\n      pop\n      jump\t// out\n        /* \"#utility.yul\":1528:1605   */\n    tag_171:\n        /* \"#utility.yul\":1565:1572   */\n      0x00\n        /* \"#utility.yul\":1594:1599   */\n      dup2\n        /* \"#utility.yul\":1583:1599   */\n      swap1\n      pop\n        /* \"#utility.yul\":1528:1605   */\n      swap2\n      swap1\n      pop\n      jump\t// out\n        /* \"#utility.yul\":1611:1729   */\n    tag_172:\n        /* \"#utility.yul\":1698:1722   */\n      tag_221\n        /* \"#utility.yul\":1716:1721   */\n      dup2\n        /* \"#utility.yul\":1698:1722   */\n      tag_171\n      jump\t// in\n    tag_221:\n        /* \"#utility.yul\":1693:1696   */\n      dup3\n        /* \"#utility.yul\":1686:1723   */\n      mstore\n        /* \"#utility.yul\":1611:1729   */\n      pop\n      pop\n      jump\t// out\n        /* \"#utility.yul\":1735:1957   */\n    tag_36:\n        /* \"#utility.yul\":1828:1832   */\n      0x00\n        /* \"#utility.yul\":1866:1868   */\n      0x20\n        /* \"#utility.yul\":1855:1864   */\n      dup3\n        /* \"#utility.yul\":1851:1869   */\n      add\n        /* \"#utility.yul\":1843:1869   */\n      swap1\n      pop\n        /* \"#utility.yul\":1879:1950   */\n      tag_223\n        /* \"#utility.yul\":1947:1948   */\n      0x00\n        /* \"#utility.yul\":1936:1945   */\n      dup4\n        /* \"#utility.yul\":1932:1949   */\n      add\n        /* \"#utility.yul\":1923:1929   */\n      dup5\n        /* \"#utility.yul\":1879:1950   */\n      tag_172\n      jump\t// in\n    tag_223:\n        /* \"#utility.yul\":1735:1957   */\n      swap3\n      swap2\n      pop\n      pop\n      jump\t// out\n        /* \"#utility.yul\":1963:2085   */\n    tag_173:\n        /* \"#utility.yul\":2036:2060   */\n      tag_225\n        /* \"#utility.yul\":2054:2059   */\n      dup2\n        /* \"#utility.yul\":2036:2060   */\n      tag_171\n      jump\t// in\n    tag_225:\n        /* \"#utility.yul\":2029:2034   */\n      dup2\n        /* \"#utility.yul\":2026:2061   */\n      eq\n        /* \"#utility.yul\":2016:2079   */\n      tag_226\n      jumpi\n        /* \"#utility.yul\":2075:2076   */\n      0x00\n        /* \"#utility.yul\":2072:2073   */\n      dup1\n        /* \"#utility.yul\":2065:2077   */\n      revert\n        /* \"#utility.yul\":2016:2079   */\n    tag_226:\n        /* \"#utility.yul\":1963:2085   */\n      pop\n      jump\t// out\n        /* \"#utility.yul\":2091:2230   */\n    tag_174:\n        /* \"#utility.yul\":2137:2142   */\n      0x00\n        /* \"#utility.yul\":2175:2181   */\n      dup2\n        /* \"#utility.yul\":2162:2182   */\n      calldataload\n        /* \"#utility.yul\":2153:2182   */\n      swap1\n      pop\n        /* \"#utility.yul\":2191:2224   */\n      tag_228\n        /* \"#utility.yul\":2218:2223   */\n      dup2\n        /* \"#utility.yul\":2191:2224   */\n      tag_173\n      jump\t// in\n    tag_228:\n        /* \"#utility.yul\":2091:2230   */\n      swap3\n      swap2\n      pop\n      pop\n      jump\t// out\n        /* \"#utility.yul\":2236:2565   */\n    tag_42:\n        /* \"#utility.yul\":2295:2301   */\n      0x00\n        /* \"#utility.yul\":2344:2346   */\n      0x20\n        /* \"#utility.yul\":2332:2341   */\n      dup3\n        /* \"#utility.yul\":2323:2330   */\n      dup5\n        /* \"#utility.yul\":2319:2342   */\n      sub\n        /* \"#utility.yul\":2315:2347   */\n      slt\n        /* \"#utility.yul\":2312:2431   */\n      iszero\n      tag_230\n      jumpi\n        /* \"#utility.yul\":2350:2429   */\n      tag_231\n      tag_164\n      jump\t// in\n    tag_231:\n        /* \"#utility.yul\":2312:2431   */\n    tag_230:\n        /* \"#utility.yul\":2470:2471   */\n      0x00\n        /* \"#utility.yul\":2495:2548   */\n      tag_232\n        /* \"#utility.yul\":2540:2547   */\n      dup5\n        /* \"#utility.yul\":2531:2537   */\n      dup3\n        /* \"#utility.yul\":2520:2529   */\n      dup6\n        /* \"#utility.yul\":2516:2538   */\n      add\n        /* \"#utility.yul\":2495:2548   */\n      tag_174\n      jump\t// in\n    tag_232:\n        /* \"#utility.yul\":2485:2548   */\n      swap2\n      pop\n        /* \"#utility.yul\":2441:2558   */\n      pop\n        /* \"#utility.yul\":2236:2565   */\n      swap3\n      swap2\n      pop\n      pop\n      jump\t// out\n        /* \"#utility.yul\":2571:2740   */\n    tag_175:\n        /* \"#utility.yul\":2655:2666   */\n      0x00\n        /* \"#utility.yul\":2689:2695   */\n      dup3\n        /* \"#utility.yul\":2684:2687   */\n      dup3\n        /* \"#utility.yul\":2677:2696   */\n      mstore\n        /* \"#utility.yul\":2729:2733   */\n      0x20\n        /* \"#utility.yul\":2724:2727   */\n      dup3\n        /* \"#utility.yul\":2720:2734   */\n      add\n        /* \"#utility.yul\":2705:2734   */\n      swap1\n      pop\n        /* \"#utility.yul\":2571:2740   */\n      swap3\n      swap2\n      pop\n      pop\n      jump\t// out\n        /* \"#utility.yul\":2746:2974   */\n    tag_176:\n        /* \"#utility.yul\":2886:2920   */\n      0x4f776e61626c6532537465703a2063616c6c6572206973206e6f742074686520\n        /* \"#utility.yul\":2882:2883   */\n      0x00\n        /* \"#utility.yul\":2874:2880   */\n      dup3\n        /* \"#utility.yul\":2870:2884   */\n      add\n        /* \"#utility.yul\":2863:2921   */\n      mstore\n        /* \"#utility.yul\":2955:2966   */\n      0x6e6577206f776e65720000000000000000000000000000000000000000000000\n        /* \"#utility.yul\":2950:2952   */\n      0x20\n        /* \"#utility.yul\":2942:2948   */\n      dup3\n        /* \"#utility.yul\":2938:2953   */\n      add\n        /* \"#utility.yul\":2931:2967   */\n      mstore\n        /* \"#utility.yul\":2746:2974   */\n      pop\n      jump\t// out\n        /* \"#utility.yul\":2980:3346   */\n    tag_177:\n        /* \"#utility.yul\":3122:3125   */\n      0x00\n        /* \"#utility.yul\":3143:3210   */\n      tag_236\n        /* \"#utility.yul\":3207:3209   */\n      0x29\n        /* \"#utility.yul\":3202:3205   */\n      dup4\n        /* \"#utility.yul\":3143:3210   */\n      tag_175\n      jump\t// in\n    tag_236:\n        /* \"#utility.yul\":3136:3210   */\n      swap2\n      pop\n        /* \"#utility.yul\":3219:3312   */\n      tag_237\n        /* \"#utility.yul\":3308:3311   */\n      dup3\n        /* \"#utility.yul\":3219:3312   */\n      tag_176\n      jump\t// in\n    tag_237:\n        /* \"#utility.yul\":3337:3339   */\n      0x40\n        /* \"#utility.yul\":3332:3335   */\n      dup3\n        /* \"#utility.yul\":3328:3340   */\n      add\n        /* \"#utility.yul\":3321:3340   */\n      swap1\n      pop\n        /* \"#utility.yul\":2980:3346   */\n      swap2\n      swap1\n      pop\n      jump\t// out\n        /* \"#utility.yul\":3352:3771   */\n    tag_66:\n        /* \"#utility.yul\":3518:3522   */\n      0x00\n        /* \"#utility.yul\":3556:3558   */\n      0x20\n        /* \"#utility.yul\":3545:3554   */\n      dup3\n        /* \"#utility.yul\":3541:3559   */\n      add\n        /* \"#utility.yul\":3533:3559   */\n      swap1\n      pop\n        /* \"#utility.yul\":3605:3614   */\n      dup2\n        /* \"#utility.yul\":3599:3603   */\n      dup2\n        /* \"#utility.yul\":3595:3615   */\n      sub\n        /* \"#utility.yul\":3591:3592   */\n      0x00\n        /* \"#utility.yul\":3580:3589   */\n      dup4\n        /* \"#utility.yul\":3576:3593   */\n      add\n        /* \"#utility.yul\":3569:3616   */\n      mstore\n        /* \"#utility.yul\":3633:3764   */\n      tag_239\n        /* \"#utility.yul\":3759:3763   */\n      dup2\n        /* \"#utility.yul\":3633:3764   */\n      tag_177\n      jump\t// in\n    tag_239:\n        /* \"#utility.yul\":3625:3764   */\n      swap1\n      pop\n        /* \"#utility.yul\":3352:3771   */\n      swap2\n      swap1\n      pop\n      jump\t// out\n        /* \"#utility.yul\":3777:3920   */\n    tag_178:\n        /* \"#utility.yul\":3834:3839   */\n      0x00\n        /* \"#utility.yul\":3865:3871   */\n      dup2\n        /* \"#utility.yul\":3859:3872   */\n      mload\n        /* \"#utility.yul\":3850:3872   */\n      swap1\n      pop\n        /* \"#utility.yul\":3881:3914   */\n      tag_241\n        /* \"#utility.yul\":3908:3913   */\n      dup2\n        /* \"#utility.yul\":3881:3914   */\n      tag_173\n      jump\t// in\n    tag_241:\n        /* \"#utility.yul\":3777:3920   */\n      swap3\n      swap2\n      pop\n      pop\n      jump\t// out\n        /* \"#utility.yul\":3926:4277   */\n    tag_93:\n        /* \"#utility.yul\":3996:4002   */\n      0x00\n        /* \"#utility.yul\":4045:4047   */\n      0x20\n        /* \"#utility.yul\":4033:4042   */\n      dup3\n        /* \"#utility.yul\":4024:4031   */\n      dup5\n        /* \"#utility.yul\":4020:4043   */\n      sub\n        /* \"#utility.yul\":4016:4048   */\n      slt\n        /* \"#utility.yul\":4013:4132   */\n      iszero\n      tag_243\n      jumpi\n        /* \"#utility.yul\":4051:4130   */\n      tag_244\n      tag_164\n      jump\t// in\n    tag_244:\n        /* \"#utility.yul\":4013:4132   */\n    tag_243:\n        /* \"#utility.yul\":4171:4172   */\n      0x00\n        /* \"#utility.yul\":4196:4260   */\n      tag_245\n        /* \"#utility.yul\":4252:4259   */\n      dup5\n        /* \"#utility.yul\":4243:4249   */\n      dup3\n        /* \"#utility.yul\":4232:4241   */\n      dup6\n        /* \"#utility.yul\":4228:4250   */\n      add\n        /* \"#utility.yul\":4196:4260   */\n      tag_178\n      jump\t// in\n    tag_245:\n        /* \"#utility.yul\":4186:4260   */\n      swap2\n      pop\n        /* \"#utility.yul\":4142:4270   */\n      pop\n        /* \"#utility.yul\":3926:4277   */\n      swap3\n      swap2\n      pop\n      pop\n      jump\t// out\n        /* \"#utility.yul\":4283:4463   */\n    tag_179:\n        /* \"#utility.yul\":4331:4408   */\n      0x4e487b7100000000000000000000000000000000000000000000000000000000\n        /* \"#utility.yul\":4328:4329   */\n      0x00\n        /* \"#utility.yul\":4321:4409   */\n      mstore\n        /* \"#utility.yul\":4428:4432   */\n      0x12\n        /* \"#utility.yul\":4425:4426   */\n      0x04\n        /* \"#utility.yul\":4418:4433   */\n      mstore\n        /* \"#utility.yul\":4452:4456   */\n      0x24\n        /* \"#utility.yul\":4449:4450   */\n      0x00\n        /* \"#utility.yul\":4442:4457   */\n      revert\n        /* \"#utility.yul\":4469:4649   */\n    tag_180:\n        /* \"#utility.yul\":4517:4594   */\n      0x4e487b7100000000000000000000000000000000000000000000000000000000\n        /* \"#utility.yul\":4514:4515   */\n      0x00\n        /* \"#utility.yul\":4507:4595   */\n      mstore\n        /* \"#utility.yul\":4614:4618   */\n      0x11\n        /* \"#utility.yul\":4611:4612   */\n      0x04\n        /* \"#utility.yul\":4604:4619   */\n      mstore\n        /* \"#utility.yul\":4638:4642   */\n      0x24\n        /* \"#utility.yul\":4635:4636   */\n      0x00\n        /* \"#utility.yul\":4628:4643   */\n      revert\n        /* \"#utility.yul\":4655:4840   */\n    tag_95:\n        /* \"#utility.yul\":4695:4696   */\n      0x00\n        /* \"#utility.yul\":4712:4732   */\n      tag_249\n        /* \"#utility.yul\":4730:4731   */\n      dup3\n        /* \"#utility.yul\":4712:4732   */\n      tag_171\n      jump\t// in\n    tag_249:\n        /* \"#utility.yul\":4707:4732   */\n      swap2\n      pop\n        /* \"#utility.yul\":4746:4766   */\n      tag_250\n        /* \"#utility.yul\":4764:4765   */\n      dup4\n        /* \"#utility.yul\":4746:4766   */\n      tag_171\n      jump\t// in\n    tag_250:\n        /* \"#utility.yul\":4741:4766   */\n      swap3\n      pop\n        /* \"#utility.yul\":4785:4786   */\n      dup3\n        /* \"#utility.yul\":4775:4810   */\n      tag_251\n      jumpi\n        /* \"#utility.yul\":4790:4808   */\n      tag_252\n      tag_179\n      jump\t// in\n    tag_252:\n        /* \"#utility.yul\":4775:4810   */\n    tag_251:\n        /* \"#utility.yul\":4832:4833   */\n      dup3\n        /* \"#utility.yul\":4829:4830   */\n      dup3\n        /* \"#utility.yul\":4825:4834   */\n      div\n        /* \"#utility.yul\":4820:4834   */\n      swap1\n      pop\n        /* \"#utility.yul\":4655:4840   */\n      swap3\n      swap2\n      pop\n      pop\n      jump\t// out\n        /* \"#utility.yul\":4846:5037   */\n    tag_107:\n        /* \"#utility.yul\":4886:4889   */\n      0x00\n        /* \"#utility.yul\":4905:4925   */\n      tag_254\n        /* \"#utility.yul\":4923:4924   */\n      dup3\n        /* \"#utility.yul\":4905:4925   */\n      tag_171\n      jump\t// in\n    tag_254:\n        /* \"#utility.yul\":4900:4925   */\n      swap2\n      pop\n        /* \"#utility.yul\":4939:4959   */\n      tag_255\n        /* \"#utility.yul\":4957:4958   */\n      dup4\n        /* \"#utility.yul\":4939:4959   */\n      tag_171\n      jump\t// in\n    tag_255:\n        /* \"#utility.yul\":4934:4959   */\n      swap3\n      pop\n        /* \"#utility.yul\":4982:4983   */\n      dup3\n        /* \"#utility.yul\":4979:4980   */\n      dup3\n        /* \"#utility.yul\":4975:4984   */\n      add\n        /* \"#utility.yul\":4968:4984   */\n      swap1\n      pop\n        /* \"#utility.yul\":5003:5006   */\n      dup1\n        /* \"#utility.yul\":5000:5001   */\n      dup3\n        /* \"#utility.yul\":4997:5007   */\n      gt\n        /* \"#utility.yul\":4994:5030   */\n      iszero\n      tag_256\n      jumpi\n        /* \"#utility.yul\":5010:5028   */\n      tag_257\n      tag_180\n      jump\t// in\n    tag_257:\n        /* \"#utility.yul\":4994:5030   */\n    tag_256:\n        /* \"#utility.yul\":4846:5037   */\n      swap3\n      swap2\n      pop\n      pop\n      jump\t// out\n        /* \"#utility.yul\":5043:5225   */\n    tag_181:\n        /* \"#utility.yul\":5183:5217   */\n      0x4f776e61626c653a2063616c6c6572206973206e6f7420746865206f776e6572\n        /* \"#utility.yul\":5179:5180   */\n      0x00\n        /* \"#utility.yul\":5171:5177   */\n      dup3\n        /* \"#utility.yul\":5167:5181   */\n      add\n        /* \"#utility.yul\":5160:5218   */\n      mstore\n        /* \"#utility.yul\":5043:5225   */\n      pop\n      jump\t// out\n        /* \"#utility.yul\":5231:5597   */\n    tag_182:\n        /* \"#utility.yul\":5373:5376   */\n      0x00\n        /* \"#utility.yul\":5394:5461   */\n      tag_260\n        /* \"#utility.yul\":5458:5460   */\n      0x20\n        /* \"#utility.yul\":5453:5456   */\n      dup4\n        /* \"#utility.yul\":5394:5461   */\n      tag_175\n      jump\t// in\n    tag_260:\n        /* \"#utility.yul\":5387:5461   */\n      swap2\n      pop\n        /* \"#utility.yul\":5470:5563   */\n      tag_261\n        /* \"#utility.yul\":5559:5562   */\n      dup3\n        /* \"#utility.yul\":5470:5563   */\n      tag_181\n      jump\t// in\n    tag_261:\n        /* \"#utility.yul\":5588:5590   */\n      0x20\n        /* \"#utility.yul\":5583:5586   */\n      dup3\n        /* \"#utility.yul\":5579:5591   */\n      add\n        /* \"#utility.yul\":5572:5591   */\n      swap1\n      pop\n        /* \"#utility.yul\":5231:5597   */\n      swap2\n      swap1\n      pop\n      jump\t// out\n        /* \"#utility.yul\":5603:6022   */\n    tag_114:\n        /* \"#utility.yul\":5769:5773   */\n      0x00\n        /* \"#utility.yul\":5807:5809   */\n      0x20\n        /* \"#utility.yul\":5796:5805   */\n      dup3\n        /* \"#utility.yul\":5792:5810   */\n      add\n        /* \"#utility.yul\":5784:5810   */\n      swap1\n      pop\n        /* \"#utility.yul\":5856:5865   */\n      dup2\n        /* \"#utility.yul\":5850:5854   */\n      dup2\n        /* \"#utility.yul\":5846:5866   */\n      sub\n        /* \"#utility.yul\":5842:5843   */\n      0x00\n        /* \"#utility.yul\":5831:5840   */\n      dup4\n        /* \"#utility.yul\":5827:5844   */\n      add\n        /* \"#utility.yul\":5820:5867   */\n      mstore\n        /* \"#utility.yul\":5884:6015   */\n      tag_263\n        /* \"#utility.yul\":6010:6014   */\n      dup2\n        /* \"#utility.yul\":5884:6015   */\n      tag_182\n      jump\t// in\n    tag_263:\n        /* \"#utility.yul\":5876:6015   */\n      swap1\n      pop\n        /* \"#utility.yul\":5603:6022   */\n      swap2\n      swap1\n      pop\n      jump\t// out\n        /* \"#utility.yul\":6028:6360   */\n    tag_121:\n        /* \"#utility.yul\":6149:6153   */\n      0x00\n        /* \"#utility.yul\":6187:6189   */\n      0x40\n        /* \"#utility.yul\":6176:6185   */\n      dup3\n        /* \"#utility.yul\":6172:6190   */\n      add\n        /* \"#utility.yul\":6164:6190   */\n      swap1\n      pop\n        /* \"#utility.yul\":6200:6271   */\n      tag_265\n        /* \"#utility.yul\":6268:6269   */\n      0x00\n        /* \"#utility.yul\":6257:6266   */\n      dup4\n        /* \"#utility.yul\":6253:6270   */\n      add\n        /* \"#utility.yul\":6244:6250   */\n      dup6\n        /* \"#utility.yul\":6200:6271   */\n      tag_170\n      jump\t// in\n    tag_265:\n        /* \"#utility.yul\":6281:6353   */\n      tag_266\n        /* \"#utility.yul\":6349:6351   */\n      0x20\n        /* \"#utility.yul\":6338:6347   */\n      dup4\n        /* \"#utility.yul\":6334:6352   */\n      add\n        /* \"#utility.yul\":6325:6331   */\n      dup5\n        /* \"#utility.yul\":6281:6353   */\n      tag_172\n      jump\t// in\n    tag_266:\n        /* \"#utility.yul\":6028:6360   */\n      swap4\n      swap3\n      pop\n      pop\n      pop\n      jump\t// out\n        /* \"#utility.yul\":6366:6456   */\n    tag_183:\n        /* \"#utility.yul\":6400:6407   */\n      0x00\n        /* \"#utility.yul\":6443:6448   */\n      dup2\n        /* \"#utility.yul\":6436:6449   */\n      iszero\n        /* \"#utility.yul\":6429:6450   */\n      iszero\n        /* \"#utility.yul\":6418:6450   */\n      swap1\n      pop\n        /* \"#utility.yul\":6366:6456   */\n      swap2\n      swap1\n      pop\n      jump\t// out\n        /* \"#utility.yul\":6462:6578   */\n    tag_184:\n        /* \"#utility.yul\":6532:6553   */\n      tag_269\n        /* \"#utility.yul\":6547:6552   */\n      dup2\n        /* \"#utility.yul\":6532:6553   */\n      tag_183\n      jump\t// in\n    tag_269:\n        /* \"#utility.yul\":6525:6530   */\n      dup2\n        /* \"#utility.yul\":6522:6554   */\n      eq\n        /* \"#utility.yul\":6512:6572   */\n      tag_270\n      jumpi\n        /* \"#utility.yul\":6568:6569   */\n      0x00\n        /* \"#utility.yul\":6565:6566   */\n      dup1\n        /* \"#utility.yul\":6558:6570   */\n      revert\n        /* \"#utility.yul\":6512:6572   */\n    tag_270:\n        /* \"#utility.yul\":6462:6578   */\n      pop\n      jump\t// out\n        /* \"#utility.yul\":6584:6721   */\n    tag_185:\n        /* \"#utility.yul\":6638:6643   */\n      0x00\n        /* \"#utility.yul\":6669:6675   */\n      dup2\n        /* \"#utility.yul\":6663:6676   */\n      mload\n        /* \"#utility.yul\":6654:6676   */\n      swap1\n      pop\n        /* \"#utility.yul\":6685:6715   */\n      tag_272\n        /* \"#utility.yul\":6709:6714   */\n      dup2\n        /* \"#utility.yul\":6685:6715   */\n      tag_184\n      jump\t// in\n    tag_272:\n        /* \"#utility.yul\":6584:6721   */\n      swap3\n      swap2\n      pop\n      pop\n      jump\t// out\n        /* \"#utility.yul\":6727:7072   */\n    tag_128:\n        /* \"#utility.yul\":6794:6800   */\n      0x00\n        /* \"#utility.yul\":6843:6845   */\n      0x20\n        /* \"#utility.yul\":6831:6840   */\n      dup3\n        /* \"#utility.yul\":6822:6829   */\n      dup5\n        /* \"#utility.yul\":6818:6841   */\n      sub\n        /* \"#utility.yul\":6814:6846   */\n      slt\n        /* \"#utility.yul\":6811:6930   */\n      iszero\n      tag_274\n      jumpi\n        /* \"#utility.yul\":6849:6928   */\n      tag_275\n      tag_164\n      jump\t// in\n    tag_275:\n        /* \"#utility.yul\":6811:6930   */\n    tag_274:\n        /* \"#utility.yul\":6969:6970   */\n      0x00\n        /* \"#utility.yul\":6994:7055   */\n      tag_276\n        /* \"#utility.yul\":7047:7054   */\n      dup5\n        /* \"#utility.yul\":7038:7044   */\n      dup3\n        /* \"#utility.yul\":7027:7036   */\n      dup6\n        /* \"#utility.yul\":7023:7045   */\n      add\n        /* \"#utility.yul\":6994:7055   */\n      tag_185\n      jump\t// in\n    tag_276:\n        /* \"#utility.yul\":6984:7055   */\n      swap2\n      pop\n        /* \"#utility.yul\":6940:7065   */\n      pop\n        /* \"#utility.yul\":6727:7072   */\n      swap3\n      swap2\n      pop\n      pop\n      jump\t// out\n        /* \"#utility.yul\":7078:7307   */\n    tag_186:\n        /* \"#utility.yul\":7218:7252   */\n      0x5361666545524332303a204552433230206f7065726174696f6e20646964206e\n        /* \"#utility.yul\":7214:7215   */\n      0x00\n        /* \"#utility.yul\":7206:7212   */\n      dup3\n        /* \"#utility.yul\":7202:7216   */\n      add\n        /* \"#utility.yul\":7195:7253   */\n      mstore\n        /* \"#utility.yul\":7287:7299   */\n      0x6f74207375636365656400000000000000000000000000000000000000000000\n        /* \"#utility.yul\":7282:7284   */\n      0x20\n        /* \"#utility.yul\":7274:7280   */\n      dup3\n        /* \"#utility.yul\":7270:7285   */\n      add\n        /* \"#utility.yul\":7263:7300   */\n      mstore\n        /* \"#utility.yul\":7078:7307   */\n      pop\n      jump\t// out\n        /* \"#utility.yul\":7313:7679   */\n    tag_187:\n        /* \"#utility.yul\":7455:7458   */\n      0x00\n        /* \"#utility.yul\":7476:7543   */\n      tag_279\n        /* \"#utility.yul\":7540:7542   */\n      0x2a\n        /* \"#utility.yul\":7535:7538   */\n      dup4\n        /* \"#utility.yul\":7476:7543   */\n      tag_175\n      jump\t// in\n    tag_279:\n        /* \"#utility.yul\":7469:7543   */\n      swap2\n      pop\n        /* \"#utility.yul\":7552:7645   */\n      tag_280\n        /* \"#utility.yul\":7641:7644   */\n      dup3\n        /* \"#utility.yul\":7552:7645   */\n      tag_186\n      jump\t// in\n    tag_280:\n        /* \"#utility.yul\":7670:7672   */\n      0x40\n        /* \"#utility.yul\":7665:7668   */\n      dup3\n        /* \"#utility.yul\":7661:7673   */\n      add\n        /* \"#utility.yul\":7654:7673   */\n      swap1\n      pop\n        /* \"#utility.yul\":7313:7679   */\n      swap2\n      swap1\n      pop\n      jump\t// out\n        /* \"#utility.yul\":7685:8104   */\n    tag_131:\n        /* \"#utility.yul\":7851:7855   */\n      0x00\n        /* \"#utility.yul\":7889:7891   */\n      0x20\n        /* \"#utility.yul\":7878:7887   */\n      dup3\n        /* \"#utility.yul\":7874:7892   */\n      add\n        /* \"#utility.yul\":7866:7892   */\n      swap1\n      pop\n        /* \"#utility.yul\":7938:7947   */\n      dup2\n        /* \"#utility.yul\":7932:7936   */\n      dup2\n        /* \"#utility.yul\":7928:7948   */\n      sub\n        /* \"#utility.yul\":7924:7925   */\n      0x00\n        /* \"#utility.yul\":7913:7922   */\n      dup4\n        /* \"#utility.yul\":7909:7926   */\n      add\n        /* \"#utility.yul\":7902:7949   */\n      mstore\n        /* \"#utility.yul\":7966:8097   */\n      tag_282\n        /* \"#utility.yul\":8092:8096   */\n      dup2\n        /* \"#utility.yul\":7966:8097   */\n      tag_187\n      jump\t// in\n    tag_282:\n        /* \"#utility.yul\":7958:8097   */\n      swap1\n      pop\n        /* \"#utility.yul\":7685:8104   */\n      swap2\n      swap1\n      pop\n      jump\t// out\n        /* \"#utility.yul\":8110:8335   */\n    tag_188:\n        /* \"#utility.yul\":8250:8284   */\n      0x416464726573733a20696e73756666696369656e742062616c616e636520666f\n        /* \"#utility.yul\":8246:8247   */\n      0x00\n        /* \"#utility.yul\":8238:8244   */\n      dup3\n        /* \"#utility.yul\":8234:8248   */\n      add\n        /* \"#utility.yul\":8227:8285   */\n      mstore\n        /* \"#utility.yul\":8319:8327   */\n      0x722063616c6c0000000000000000000000000000000000000000000000000000\n        /* \"#utility.yul\":8314:8316   */\n      0x20\n        /* \"#utility.yul\":8306:8312   */\n      dup3\n        /* \"#utility.yul\":8302:8317   */\n      add\n        /* \"#utility.yul\":8295:8328   */\n      mstore\n        /* \"#utility.yul\":8110:8335   */\n      pop\n      jump\t// out\n        /* \"#utility.yul\":8341:8707   */\n    tag_189:\n        /* \"#utility.yul\":8483:8486   */\n      0x00\n        /* \"#utility.yul\":8504:8571   */\n      tag_285\n        /* \"#utility.yul\":8568:8570   */\n      0x26\n        /* \"#utility.yul\":8563:8566   */\n      dup4\n        /* \"#utility.yul\":8504:8571   */\n      tag_175\n      jump\t// in\n    tag_285:\n        /* \"#utility.yul\":8497:8571   */\n      swap2\n      pop\n        /* \"#utility.yul\":8580:8673   */\n      tag_286\n        /* \"#utility.yul\":8669:8672   */\n      dup3\n        /* \"#utility.yul\":8580:8673   */\n      tag_188\n      jump\t// in\n    tag_286:\n        /* \"#utility.yul\":8698:8700   */\n      0x40\n        /* \"#utility.yul\":8693:8696   */\n      dup3\n        /* \"#utility.yul\":8689:8701   */\n      add\n        /* \"#utility.yul\":8682:8701   */\n      swap1\n      pop\n        /* \"#utility.yul\":8341:8707   */\n      swap2\n      swap1\n      pop\n      jump\t// out\n        /* \"#utility.yul\":8713:9132   */\n    tag_138:\n        /* \"#utility.yul\":8879:8883   */\n      0x00\n        /* \"#utility.yul\":8917:8919   */\n      0x20\n        /* \"#utility.yul\":8906:8915   */\n      dup3\n        /* \"#utility.yul\":8902:8920   */\n      add\n        /* \"#utility.yul\":8894:8920   */\n      swap1\n      pop\n        /* \"#utility.yul\":8966:8975   */\n      dup2\n        /* \"#utility.yul\":8960:8964   */\n      dup2\n        /* \"#utility.yul\":8956:8976   */\n      sub\n        /* \"#utility.yul\":8952:8953   */\n      0x00\n        /* \"#utility.yul\":8941:8950   */\n      dup4\n        /* \"#utility.yul\":8937:8954   */\n      add\n        /* \"#utility.yul\":8930:8977   */\n      mstore\n        /* \"#utility.yul\":8994:9125   */\n      tag_288\n        /* \"#utility.yul\":9120:9124   */\n      dup2\n        /* \"#utility.yul\":8994:9125   */\n      tag_189\n      jump\t// in\n    tag_288:\n        /* \"#utility.yul\":8986:9125   */\n      swap1\n      pop\n        /* \"#utility.yul\":8713:9132   */\n      swap2\n      swap1\n      pop\n      jump\t// out\n        /* \"#utility.yul\":9138:9236   */\n    tag_190:\n        /* \"#utility.yul\":9189:9195   */\n      0x00\n        /* \"#utility.yul\":9223:9228   */\n      dup2\n        /* \"#utility.yul\":9217:9229   */\n      mload\n        /* \"#utility.yul\":9207:9229   */\n      swap1\n      pop\n        /* \"#utility.yul\":9138:9236   */\n      swap2\n      swap1\n      pop\n      jump\t// out\n        /* \"#utility.yul\":9242:9389   */\n    tag_191:\n        /* \"#utility.yul\":9343:9354   */\n      0x00\n        /* \"#utility.yul\":9380:9383   */\n      dup2\n        /* \"#utility.yul\":9365:9383   */\n      swap1\n      pop\n        /* \"#utility.yul\":9242:9389   */\n      swap3\n      swap2\n      pop\n      pop\n      jump\t// out\n        /* \"#utility.yul\":9395:9641   */\n    tag_192:\n        /* \"#utility.yul\":9476:9477   */\n      0x00\n        /* \"#utility.yul\":9486:9599   */\n    tag_292:\n        /* \"#utility.yul\":9500:9506   */\n      dup4\n        /* \"#utility.yul\":9497:9498   */\n      dup2\n        /* \"#utility.yul\":9494:9507   */\n      lt\n        /* \"#utility.yul\":9486:9599   */\n      iszero\n      tag_294\n      jumpi\n        /* \"#utility.yul\":9585:9586   */\n      dup1\n        /* \"#utility.yul\":9580:9583   */\n      dup3\n        /* \"#utility.yul\":9576:9587   */\n      add\n        /* \"#utility.yul\":9570:9588   */\n      mload\n        /* \"#utility.yul\":9566:9567   */\n      dup2\n        /* \"#utility.yul\":9561:9564   */\n      dup5\n        /* \"#utility.yul\":9557:9568   */\n      add\n        /* \"#utility.yul\":9550:9589   */\n      mstore\n        /* \"#utility.yul\":9522:9524   */\n      0x20\n        /* \"#utility.yul\":9519:9520   */\n      dup2\n        /* \"#utility.yul\":9515:9525   */\n      add\n        /* \"#utility.yul\":9510:9525   */\n      swap1\n      pop\n        /* \"#utility.yul\":9486:9599   */\n      jump(tag_292)\n    tag_294:\n        /* \"#utility.yul\":9633:9634   */\n      0x00\n        /* \"#utility.yul\":9624:9630   */\n      dup5\n        /* \"#utility.yul\":9619:9622   */\n      dup5\n        /* \"#utility.yul\":9615:9631   */\n      add\n        /* \"#utility.yul\":9608:9635   */\n      mstore\n        /* \"#utility.yul\":9457:9641   */\n      pop\n        /* \"#utility.yul\":9395:9641   */\n      pop\n      pop\n      pop\n      jump\t// out\n        /* \"#utility.yul\":9647:10033   */\n    tag_193:\n        /* \"#utility.yul\":9751:9754   */\n      0x00\n        /* \"#utility.yul\":9779:9817   */\n      tag_296\n        /* \"#utility.yul\":9811:9816   */\n      dup3\n        /* \"#utility.yul\":9779:9817   */\n      tag_190\n      jump\t// in\n    tag_296:\n        /* \"#utility.yul\":9833:9921   */\n      tag_297\n        /* \"#utility.yul\":9914:9920   */\n      dup2\n        /* \"#utility.yul\":9909:9912   */\n      dup6\n        /* \"#utility.yul\":9833:9921   */\n      tag_191\n      jump\t// in\n    tag_297:\n        /* \"#utility.yul\":9826:9921   */\n      swap4\n      pop\n        /* \"#utility.yul\":9930:9995   */\n      tag_298\n        /* \"#utility.yul\":9988:9994   */\n      dup2\n        /* \"#utility.yul\":9983:9986   */\n      dup6\n        /* \"#utility.yul\":9976:9980   */\n      0x20\n        /* \"#utility.yul\":9969:9974   */\n      dup7\n        /* \"#utility.yul\":9965:9981   */\n      add\n        /* \"#utility.yul\":9930:9995   */\n      tag_192\n      jump\t// in\n    tag_298:\n        /* \"#utility.yul\":10020:10026   */\n      dup1\n        /* \"#utility.yul\":10015:10018   */\n      dup5\n        /* \"#utility.yul\":10011:10027   */\n      add\n        /* \"#utility.yul\":10004:10027   */\n      swap2\n      pop\n        /* \"#utility.yul\":9755:10033   */\n      pop\n        /* \"#utility.yul\":9647:10033   */\n      swap3\n      swap2\n      pop\n      pop\n      jump\t// out\n        /* \"#utility.yul\":10039:10310   */\n    tag_140:\n        /* \"#utility.yul\":10169:10172   */\n      0x00\n        /* \"#utility.yul\":10191:10284   */\n      tag_300\n        /* \"#utility.yul\":10280:10283   */\n      dup3\n        /* \"#utility.yul\":10271:10277   */\n      dup5\n        /* \"#utility.yul\":10191:10284   */\n      tag_193\n      jump\t// in\n    tag_300:\n        /* \"#utility.yul\":10184:10284   */\n      swap2\n      pop\n        /* \"#utility.yul\":10301:10304   */\n      dup2\n        /* \"#utility.yul\":10294:10304   */\n      swap1\n      pop\n        /* \"#utility.yul\":10039:10310   */\n      swap3\n      swap2\n      pop\n      pop\n      jump\t// out\n        /* \"#utility.yul\":10316:10495   */\n    tag_194:\n        /* \"#utility.yul\":10456:10487   */\n      0x416464726573733a2063616c6c20746f206e6f6e2d636f6e7472616374000000\n        /* \"#utility.yul\":10452:10453   */\n      0x00\n        /* \"#utility.yul\":10444:10450   */\n      dup3\n        /* \"#utility.yul\":10440:10454   */\n      add\n        /* \"#utility.yul\":10433:10488   */\n      mstore\n        /* \"#utility.yul\":10316:10495   */\n      pop\n      jump\t// out\n        /* \"#utility.yul\":10501:10867   */\n    tag_195:\n        /* \"#utility.yul\":10643:10646   */\n      0x00\n        /* \"#utility.yul\":10664:10731   */\n      tag_303\n        /* \"#utility.yul\":10728:10730   */\n      0x1d\n        /* \"#utility.yul\":10723:10726   */\n      dup4\n        /* \"#utility.yul\":10664:10731   */\n      tag_175\n      jump\t// in\n    tag_303:\n        /* \"#utility.yul\":10657:10731   */\n      swap2\n      pop\n        /* \"#utility.yul\":10740:10833   */\n      tag_304\n        /* \"#utility.yul\":10829:10832   */\n      dup3\n        /* \"#utility.yul\":10740:10833   */\n      tag_194\n      jump\t// in\n    tag_304:\n        /* \"#utility.yul\":10858:10860   */\n      0x20\n        /* \"#utility.yul\":10853:10856   */\n      dup3\n        /* \"#utility.yul\":10849:10861   */\n      add\n        /* \"#utility.yul\":10842:10861   */\n      swap1\n      pop\n        /* \"#utility.yul\":10501:10867   */\n      swap2\n      swap1\n      pop\n      jump\t// out\n        /* \"#utility.yul\":10873:11292   */\n    tag_153:\n        /* \"#utility.yul\":11039:11043   */\n      0x00\n        /* \"#utility.yul\":11077:11079   */\n      0x20\n        /* \"#utility.yul\":11066:11075   */\n      dup3\n        /* \"#utility.yul\":11062:11080   */\n      add\n        /* \"#utility.yul\":11054:11080   */\n      swap1\n      pop\n        /* \"#utility.yul\":11126:11135   */\n      dup2\n        /* \"#utility.yul\":11120:11124   */\n      dup2\n        /* \"#utility.yul\":11116:11136   */\n      sub\n        /* \"#utility.yul\":11112:11113   */\n      0x00\n        /* \"#utility.yul\":11101:11110   */\n      dup4\n        /* \"#utility.yul\":11097:11114   */\n      add\n        /* \"#utility.yul\":11090:11137   */\n      mstore\n        /* \"#utility.yul\":11154:11285   */\n      tag_306\n        /* \"#utility.yul\":11280:11284   */\n      dup2\n        /* \"#utility.yul\":11154:11285   */\n      tag_195\n      jump\t// in\n    tag_306:\n        /* \"#utility.yul\":11146:11285   */\n      swap1\n      pop\n        /* \"#utility.yul\":10873:11292   */\n      swap2\n      swap1\n      pop\n      jump\t// out\n        /* \"#utility.yul\":11298:11397   */\n    tag_196:\n        /* \"#utility.yul\":11350:11356   */\n      0x00\n        /* \"#utility.yul\":11384:11389   */\n      dup2\n        /* \"#utility.yul\":11378:11390   */\n      mload\n        /* \"#utility.yul\":11368:11390   */\n      swap1\n      pop\n        /* \"#utility.yul\":11298:11397   */\n      swap2\n      swap1\n      pop\n      jump\t// out\n        /* \"#utility.yul\":11403:11505   */\n    tag_197:\n        /* \"#utility.yul\":11444:11450   */\n      0x00\n        /* \"#utility.yul\":11495:11497   */\n      0x1f\n        /* \"#utility.yul\":11491:11498   */\n      not\n        /* \"#utility.yul\":11486:11488   */\n      0x1f\n        /* \"#utility.yul\":11479:11484   */\n      dup4\n        /* \"#utility.yul\":11475:11489   */\n      add\n        /* \"#utility.yul\":11471:11499   */\n      and\n        /* \"#utility.yul\":11461:11499   */\n      swap1\n      pop\n        /* \"#utility.yul\":11403:11505   */\n      swap2\n      swap1\n      pop\n      jump\t// out\n        /* \"#utility.yul\":11511:11888   */\n    tag_198:\n        /* \"#utility.yul\":11599:11602   */\n      0x00\n        /* \"#utility.yul\":11627:11666   */\n      tag_310\n        /* \"#utility.yul\":11660:11665   */\n      dup3\n        /* \"#utility.yul\":11627:11666   */\n      tag_196\n      jump\t// in\n    tag_310:\n        /* \"#utility.yul\":11682:11753   */\n      tag_311\n        /* \"#utility.yul\":11746:11752   */\n      dup2\n        /* \"#utility.yul\":11741:11744   */\n      dup6\n        /* \"#utility.yul\":11682:11753   */\n      tag_175\n      jump\t// in\n    tag_311:\n        /* \"#utility.yul\":11675:11753   */\n      swap4\n      pop\n        /* \"#utility.yul\":11762:11827   */\n      tag_312\n        /* \"#utility.yul\":11820:11826   */\n      dup2\n        /* \"#utility.yul\":11815:11818   */\n      dup6\n        /* \"#utility.yul\":11808:11812   */\n      0x20\n        /* \"#utility.yul\":11801:11806   */\n      dup7\n        /* \"#utility.yul\":11797:11813   */\n      add\n        /* \"#utility.yul\":11762:11827   */\n      tag_192\n      jump\t// in\n    tag_312:\n        /* \"#utility.yul\":11852:11881   */\n      tag_313\n        /* \"#utility.yul\":11874:11880   */\n      dup2\n        /* \"#utility.yul\":11852:11881   */\n      tag_197\n      jump\t// in\n    tag_313:\n        /* \"#utility.yul\":11847:11850   */\n      dup5\n        /* \"#utility.yul\":11843:11882   */\n      add\n        /* \"#utility.yul\":11836:11882   */\n      swap2\n      pop\n        /* \"#utility.yul\":11603:11888   */\n      pop\n        /* \"#utility.yul\":11511:11888   */\n      swap3\n      swap2\n      pop\n      pop\n      jump\t// out\n        /* \"#utility.yul\":11894:12207   */\n    tag_162:\n        /* \"#utility.yul\":12007:12011   */\n      0x00\n        /* \"#utility.yul\":12045:12047   */\n      0x20\n        /* \"#utility.yul\":12034:12043   */\n      dup3\n        /* \"#utility.yul\":12030:12048   */\n      add\n        /* \"#utility.yul\":12022:12048   */\n      swap1\n      pop\n        /* \"#utility.yul\":12094:12103   */\n      dup2\n        /* \"#utility.yul\":12088:12092   */\n      dup2\n        /* \"#utility.yul\":12084:12104   */\n      sub\n        /* \"#utility.yul\":12080:12081   */\n      0x00\n        /* \"#utility.yul\":12069:12078   */\n      dup4\n        /* \"#utility.yul\":12065:12082   */\n      add\n        /* \"#utility.yul\":12058:12105   */\n      mstore\n        /* \"#utility.yul\":12122:12200   */\n      tag_315\n        /* \"#utility.yul\":12195:12199   */\n      dup2\n        /* \"#utility.yul\":12186:12192   */\n      dup5\n        /* \"#utility.yul\":12122:12200   */\n      tag_198\n      jump\t// in\n    tag_315:\n        /* \"#utility.yul\":12114:12200   */\n      swap1\n      pop\n        /* \"#utility.yul\":11894:12207   */\n      swap3\n      swap2\n      pop\n      pop\n      jump\t// out\n\n    auxdata: 0xa2646970667358221220d81fc6da6bb90aa9d73ca301d0d8c9eced936d0b64e6f5a8b911df3b783cab1164736f6c63430008120033\n}\n",
				"bytecode": {
					"linkReferences": {},
					"object": "60a06040523480156200001157600080fd5b50604051620017093803806200170983398181016040528101906200003791906200020e565b620000576200004b6200009a60201b60201c565b620000a260201b60201c565b60016002819055508073ffffffffffffffffffffffffffffffffffffffff1660808173ffffffffffffffffffffffffffffffffffffffff16815250505062000240565b600033905090565b600160006101000a81549073ffffffffffffffffffffffffffffffffffffffff0219169055620000dd81620000e060201b6200094d1760201c565b50565b60008060009054906101000a900473ffffffffffffffffffffffffffffffffffffffff169050816000806101000a81548173ffffffffffffffffffffffffffffffffffffffff021916908373ffffffffffffffffffffffffffffffffffffffff1602179055508173ffffffffffffffffffffffffffffffffffffffff168173ffffffffffffffffffffffffffffffffffffffff167f8be0079c531659141344cd1fd0a4f28419497f9722a3daafe3b4186f6b6457e060405160405180910390a35050565b600080fd5b600073ffffffffffffffffffffffffffffffffffffffff82169050919050565b6000620001d682620001a9565b9050919050565b620001e881620001c9565b8114620001f457600080fd5b50565b6000815190506200020881620001dd565b92915050565b600060208284031215620002275762000226620001a4565b5b60006200023784828501620001f7565b91505092915050565b60805161149162000278600039600081816106c001528181610769015281816107c20152818161081a01526108b901526114916000f3fe608060405234801561001057600080fd5b50600436106100a95760003560e01c80639752b3b2116100715780639752b3b214610118578063979e905614610134578063e30c397814610152578063e7fcd45d14610170578063f2fde38b1461018c578063f6151089146101a8576100a9565b80631f068108146100ae578063715018a6146100ca57806379ba5097146100d45780638da5cb5b146100de5780638f88f261146100fc575b600080fd5b6100c860048036038101906100c39190610e46565b6101b2565b005b6100d26102a7565b005b6100dc6102bb565b005b6100e6610348565b6040516100f39190610e82565b60405180910390f35b61011660048036038101906101119190610e46565b610371565b005b610132600480360381019061012d9190610e46565b610466565b005b61013c61055b565b6040516101499190610eb6565b60405180910390f35b61015a610561565b6040516101679190610e82565b60405180910390f35b61018a60048036038101906101859190610efd565b61058b565b005b6101a660048036038101906101a19190610e46565b610604565b005b6101b06106b1565b005b6101ba610a11565b600073ffffffffffffffffffffffffffffffffffffffff168173ffffffffffffffffffffffffffffffffffffffff1603610220576040517f842090f100000000000000000000000000000000000000000000000000000000815260040160405180910390fd5b80600460006101000a81548173ffffffffffffffffffffffffffffffffffffffff021916908373ffffffffffffffffffffffffffffffffffffffff1602179055508073ffffffffffffffffffffffffffffffffffffffff167f0cd19529020fd81d84beeae5290e80cef2820b494e9aedf821b3c45b8110d7df60405160405180910390a250565b6102af610a11565b6102b96000610a8f565b565b60006102c5610ac0565b90508073ffffffffffffffffffffffffffffffffffffffff166102e6610561565b73ffffffffffffffffffffffffffffffffffffffff161461033c576040517f08c379a000000000000000000000000000000000000000000000000000000000815260040161033390610fad565b60405180910390fd5b61034581610a8f565b50565b60008060009054906101000a900473ffffffffffffffffffffffffffffffffffffffff16905090565b610379610a11565b600073ffffffffffffffffffffffffffffffffffffffff168173ffffffffffffffffffffffffffffffffffffffff16036103df576040517f842090f100000000000000000000000000000000000000000000000000000000815260040160405180910390fd5b80600560006101000a81548173ffffffffffffffffffffffffffffffffffffffff021916908373ffffffffffffffffffffffffffffffffffffffff1602179055508073ffffffffffffffffffffffffffffffffffffffff167f203661c8635f7afb5f15d76e6b159110290d075ad62b4ee9ff9a7ab94187d4bd60405160405180910390a250565b61046e610a11565b600073ffffffffffffffffffffffffffffffffffffffff168173ffffffffffffffffffffffffffffffffffffffff16036104d4576040517f842090f100000000000000000000000000000000000000000000000000000000815260040160405180910390fd5b80600360006101000a81548173ffffffffffffffffffffffffffffffffffffffff021916908373ffffffffffffffffffffffffffffffffffffffff1602179055508073ffffffffffffffffffffffffffffffffffffffff167f170b0500ccf8a13146ecd9838c59849129b54beda77dadbe500b8817cdc8d36860405160405180910390a250565b60075481565b6000600160009054906101000a900473ffffffffffffffffffffffffffffffffffffffff16905090565b610593610a11565b600081036105cd576040517fc830261600000000000000000000000000000000000000000000000000000000815260040160405180910390fd5b80600681905550807f3d5a337607048974766ec58e2109261b4871329988d9615e7051bae635c38a6060405160405180910390a250565b61060c610a11565b80600160006101000a81548173ffffffffffffffffffffffffffffffffffffffff021916908373ffffffffffffffffffffffffffffffffffffffff1602179055508073ffffffffffffffffffffffffffffffffffffffff1661066c610348565b73ffffffffffffffffffffffffffffffffffffffff167f38d16b8cac22d99fc7c124b9cd0de2d3fa1faef420bfe791d8c362d765e2270060405160405180910390a350565b6106b9610a11565b60006006547f000000000000000000000000000000000000000000000000000000000000000073ffffffffffffffffffffffffffffffffffffffff166370a08231306040518263ffffffff1660e01b81526004016107179190610e82565b602060405180830381865afa158015610734573d6000803e3d6000fd5b505050506040513d601f19601f820116820180604052508101906107589190610fe2565b610762919061106d565b90506107bd7f0000000000000000000000000000000000000000000000000000000000000000600560009054906101000a900473ffffffffffffffffffffffffffffffffffffffff166002846107b8919061106d565b610ac8565b6108167f0000000000000000000000000000000000000000000000000000000000000000600460009054906101000a900473ffffffffffffffffffffffffffffffffffffffff16600284610811919061106d565b610ac8565b60007f000000000000000000000000000000000000000000000000000000000000000073ffffffffffffffffffffffffffffffffffffffff166370a08231306040518263ffffffff1660e01b81526004016108719190610e82565b602060405180830381865afa15801561088e573d6000803e3d6000fd5b505050506040513d601f19601f820116820180604052508101906108b29190610fe2565b90506109017f0000000000000000000000000000000000000000000000000000000000000000600360009054906101000a900473ffffffffffffffffffffffffffffffffffffffff1683610ac8565b8060076000828254610913919061109e565b925050819055508082427f50efd2f2f250964da5961d710f9e330ea396faec8ef1e3dad48ff354a629d38260405160405180910390a45050565b60008060009054906101000a900473ffffffffffffffffffffffffffffffffffffffff169050816000806101000a81548173ffffffffffffffffffffffffffffffffffffffff021916908373ffffffffffffffffffffffffffffffffffffffff1602179055508173ffffffffffffffffffffffffffffffffffffffff168173ffffffffffffffffffffffffffffffffffffffff167f8be0079c531659141344cd1fd0a4f28419497f9722a3daafe3b4186f6b6457e060405160405180910390a35050565b610a19610ac0565b73ffffffffffffffffffffffffffffffffffffffff16610a37610348565b73ffffffffffffffffffffffffffffffffffffffff1614610a8d576040517f08c379a0000000000000000000000000000000000000000000000000000000008152600401610a849061111e565b60405180910390fd5b565b600160006101000a81549073ffffffffffffffffffffffffffffffffffffffff0219169055610abd8161094d565b50565b600033905090565b610b498363a9059cbb60e01b8484604051602401610ae792919061113e565b604051602081830303815290604052907bffffffffffffffffffffffffffffffffffffffffffffffffffffffff19166020820180517bffffffffffffffffffffffffffffffffffffffffffffffffffffffff8381831617835250505050610b4e565b505050565b6000610bb0826040518060400160405280602081526020017f5361666545524332303a206c6f772d6c6576656c2063616c6c206661696c65648152508573ffffffffffffffffffffffffffffffffffffffff16610c169092919063ffffffff16565b9050600081511480610bd2575080806020019051810190610bd1919061119f565b5b610c11576040517f08c379a0000000000000000000000000000000000000000000000000000000008152600401610c089061123e565b60405180910390fd5b505050565b6060610c258484600085610c2e565b90509392505050565b606082471015610c73576040517f08c379a0000000000000000000000000000000000000000000000000000000008152600401610c6a906112d0565b60405180910390fd5b6000808673ffffffffffffffffffffffffffffffffffffffff168587604051610c9c9190611361565b60006040518083038185875af1925050503d8060008114610cd9576040519150601f19603f3d011682016040523d82523d6000602084013e610cde565b606091505b5091509150610cef87838387610cfb565b92505050949350505050565b60608315610d5d576000835103610d5557610d1585610d70565b610d54576040517f08c379a0000000000000000000000000000000000000000000000000000000008152600401610d4b906113c4565b60405180910390fd5b5b829050610d68565b610d678383610d93565b5b949350505050565b6000808273ffffffffffffffffffffffffffffffffffffffff163b119050919050565b600082511115610da65781518083602001fd5b806040517f08c379a0000000000000000000000000000000000000000000000000000000008152600401610dda9190611439565b60405180910390fd5b600080fd5b600073ffffffffffffffffffffffffffffffffffffffff82169050919050565b6000610e1382610de8565b9050919050565b610e2381610e08565b8114610e2e57600080fd5b50565b600081359050610e4081610e1a565b92915050565b600060208284031215610e5c57610e5b610de3565b5b6000610e6a84828501610e31565b91505092915050565b610e7c81610e08565b82525050565b6000602082019050610e976000830184610e73565b92915050565b6000819050919050565b610eb081610e9d565b82525050565b6000602082019050610ecb6000830184610ea7565b92915050565b610eda81610e9d565b8114610ee557600080fd5b50565b600081359050610ef781610ed1565b92915050565b600060208284031215610f1357610f12610de3565b5b6000610f2184828501610ee8565b91505092915050565b600082825260208201905092915050565b7f4f776e61626c6532537465703a2063616c6c6572206973206e6f74207468652060008201527f6e6577206f776e65720000000000000000000000000000000000000000000000602082015250565b6000610f97602983610f2a565b9150610fa282610f3b565b604082019050919050565b60006020820190508181036000830152610fc681610f8a565b9050919050565b600081519050610fdc81610ed1565b92915050565b600060208284031215610ff857610ff7610de3565b5b600061100684828501610fcd565b91505092915050565b7f4e487b7100000000000000000000000000000000000000000000000000000000600052601260045260246000fd5b7f4e487b7100000000000000000000000000000000000000000000000000000000600052601160045260246000fd5b600061107882610e9d565b915061108383610e9d565b9250826110935761109261100f565b5b828204905092915050565b60006110a982610e9d565b91506110b483610e9d565b92508282019050808211156110cc576110cb61103e565b5b92915050565b7f4f776e61626c653a2063616c6c6572206973206e6f7420746865206f776e6572600082015250565b6000611108602083610f2a565b9150611113826110d2565b602082019050919050565b60006020820190508181036000830152611137816110fb565b9050919050565b60006040820190506111536000830185610e73565b6111606020830184610ea7565b9392505050565b60008115159050919050565b61117c81611167565b811461118757600080fd5b50565b60008151905061119981611173565b92915050565b6000602082840312156111b5576111b4610de3565b5b60006111c38482850161118a565b91505092915050565b7f5361666545524332303a204552433230206f7065726174696f6e20646964206e60008201527f6f74207375636365656400000000000000000000000000000000000000000000602082015250565b6000611228602a83610f2a565b9150611233826111cc565b604082019050919050565b600060208201905081810360008301526112578161121b565b9050919050565b7f416464726573733a20696e73756666696369656e742062616c616e636520666f60008201527f722063616c6c0000000000000000000000000000000000000000000000000000602082015250565b60006112ba602683610f2a565b91506112c58261125e565b604082019050919050565b600060208201905081810360008301526112e9816112ad565b9050919050565b600081519050919050565b600081905092915050565b60005b83811015611324578082015181840152602081019050611309565b60008484015250505050565b600061133b826112f0565b61134581856112fb565b9350611355818560208601611306565b80840191505092915050565b600061136d8284611330565b915081905092915050565b7f416464726573733a2063616c6c20746f206e6f6e2d636f6e7472616374000000600082015250565b60006113ae601d83610f2a565b91506113b982611378565b602082019050919050565b600060208201905081810360008301526113dd816113a1565b9050919050565b600081519050919050565b6000601f19601f8301169050919050565b600061140b826113e4565b6114158185610f2a565b9350611425818560208601611306565b61142e816113ef565b840191505092915050565b600060208201905081810360008301526114538184611400565b90509291505056fea2646970667358221220d81fc6da6bb90aa9d73ca301d0d8c9eced936d0b64e6f5a8b911df3b783cab1164736f6c63430008120033",
					"opcodes": "PUSH1 0xA0 PUSH1 0x40 MSTORE CALLVALUE DUP1 ISZERO PUSH3 0x11 JUMPI PUSH1 0x0 DUP1 REVERT JUMPDEST POP PUSH1 0x40 MLOAD PUSH3 0x1709 CODESIZE SUB DUP1 PUSH3 0x1709 DUP4 CODECOPY DUP2 DUP2 ADD PUSH1 0x40 MSTORE DUP2 ADD SWAP1 PUSH3 0x37 SWAP2 SWAP1 PUSH3 0x20E JUMP JUMPDEST PUSH3 0x57 PUSH3 0x4B PUSH3 0x9A PUSH1 0x20 SHL PUSH1 0x20 SHR JUMP JUMPDEST PUSH3 0xA2 PUSH1 0x20 SHL PUSH1 0x20 SHR JUMP JUMPDEST PUSH1 0x1 PUSH1 0x2 DUP2 SWAP1 SSTORE POP DUP1 PUSH20 0xFFFFFFFFFFFFFFFFFFFFFFFFFFFFFFFFFFFFFFFF AND PUSH1 0x80 DUP2 PUSH20 0xFFFFFFFFFFFFFFFFFFFFFFFFFFFFFFFFFFFFFFFF AND DUP2 MSTORE POP POP POP PUSH3 0x240 JUMP JUMPDEST PUSH1 0x0 CALLER SWAP1 POP SWAP1 JUMP JUMPDEST PUSH1 0x1 PUSH1 0x0 PUSH2 0x100 EXP DUP2 SLOAD SWAP1 PUSH20 0xFFFFFFFFFFFFFFFFFFFFFFFFFFFFFFFFFFFFFFFF MUL NOT AND SWAP1 SSTORE PUSH3 0xDD DUP2 PUSH3 0xE0 PUSH1 0x20 SHL PUSH3 0x94D OR PUSH1 0x20 SHR JUMP JUMPDEST POP JUMP JUMPDEST PUSH1 0x0 DUP1 PUSH1 0x0 SWAP1 SLOAD SWAP1 PUSH2 0x100 EXP SWAP1 DIV PUSH20 0xFFFFFFFFFFFFFFFFFFFFFFFFFFFFFFFFFFFFFFFF AND SWAP1 POP DUP2 PUSH1 0x0 DUP1 PUSH2 0x100 EXP DUP2 SLOAD DUP2 PUSH20 0xFFFFFFFFFFFFFFFFFFFFFFFFFFFFFFFFFFFFFFFF MUL NOT AND SWAP1 DUP4 PUSH20 0xFFFFFFFFFFFFFFFFFFFFFFFFFFFFFFFFFFFFFFFF AND MUL OR SWAP1 SSTORE POP DUP2 PUSH20 0xFFFFFFFFFFFFFFFFFFFFFFFFFFFFFFFFFFFFFFFF AND DUP2 PUSH20 0xFFFFFFFFFFFFFFFFFFFFFFFFFFFFFFFFFFFFFFFF AND PUSH32 0x8BE0079C531659141344CD1FD0A4F28419497F9722A3DAAFE3B4186F6B6457E0 PUSH1 0x40 MLOAD PUSH1 0x40 MLOAD DUP1 SWAP2 SUB SWAP1 LOG3 POP POP JUMP JUMPDEST PUSH1 0x0 DUP1 REVERT JUMPDEST PUSH1 0x0 PUSH20 0xFFFFFFFFFFFFFFFFFFFFFFFFFFFFFFFFFFFFFFFF DUP3 AND SWAP1 POP SWAP2 SWAP1 POP JUMP JUMPDEST PUSH1 0x0 PUSH3 0x1D6 DUP3 PUSH3 0x1A9 JUMP JUMPDEST SWAP1 POP SWAP2 SWAP1 POP JUMP JUMPDEST PUSH3 0x1E8 DUP2 PUSH3 0x1C9 JUMP JUMPDEST DUP2 EQ PUSH3 0x1F4 JUMPI PUSH1 0x0 DUP1 REVERT JUMPDEST POP JUMP JUMPDEST PUSH1 0x0 DUP2 MLOAD SWAP1 POP PUSH3 0x208 DUP2 PUSH3 0x1DD JUMP JUMPDEST SWAP3 SWAP2 POP POP JUMP JUMPDEST PUSH1 0x0 PUSH1 0x20 DUP3 DUP5 SUB SLT ISZERO PUSH3 0x227 JUMPI PUSH3 0x226 PUSH3 0x1A4 JUMP JUMPDEST JUMPDEST PUSH1 0x0 PUSH3 0x237 DUP5 DUP3 DUP6 ADD PUSH3 0x1F7 JUMP JUMPDEST SWAP2 POP POP SWAP3 SWAP2 POP POP JUMP JUMPDEST PUSH1 0x80 MLOAD PUSH2 0x1491 PUSH3 0x278 PUSH1 0x0 CODECOPY PUSH1 0x0 DUP2 DUP2 PUSH2 0x6C0 ADD MSTORE DUP2 DUP2 PUSH2 0x769 ADD MSTORE DUP2 DUP2 PUSH2 0x7C2 ADD MSTORE DUP2 DUP2 PUSH2 0x81A ADD MSTORE PUSH2 0x8B9 ADD MSTORE PUSH2 0x1491 PUSH1 0x0 RETURN INVALID PUSH1 0x80 PUSH1 0x40 MSTORE CALLVALUE DUP1 ISZERO PUSH2 0x10 JUMPI PUSH1 0x0 DUP1 REVERT JUMPDEST POP PUSH1 0x4 CALLDATASIZE LT PUSH2 0xA9 JUMPI PUSH1 0x0 CALLDATALOAD PUSH1 0xE0 SHR DUP1 PUSH4 0x9752B3B2 GT PUSH2 0x71 JUMPI DUP1 PUSH4 0x9752B3B2 EQ PUSH2 0x118 JUMPI DUP1 PUSH4 0x979E9056 EQ PUSH2 0x134 JUMPI DUP1 PUSH4 0xE30C3978 EQ PUSH2 0x152 JUMPI DUP1 PUSH4 0xE7FCD45D EQ PUSH2 0x170 JUMPI DUP1 PUSH4 0xF2FDE38B EQ PUSH2 0x18C JUMPI DUP1 PUSH4 0xF6151089 EQ PUSH2 0x1A8 JUMPI PUSH2 0xA9 JUMP JUMPDEST DUP1 PUSH4 0x1F068108 EQ PUSH2 0xAE JUMPI DUP1 PUSH4 0x715018A6 EQ PUSH2 0xCA JUMPI DUP1 PUSH4 0x79BA5097 EQ PUSH2 0xD4 JUMPI DUP1 PUSH4 0x8DA5CB5B EQ PUSH2 0xDE JUMPI DUP1 PUSH4 0x8F88F261 EQ PUSH2 0xFC JUMPI JUMPDEST PUSH1 0x0 DUP1 REVERT JUMPDEST PUSH2 0xC8 PUSH1 0x4 DUP1 CALLDATASIZE SUB DUP2 ADD SWAP1 PUSH2 0xC3 SWAP2 SWAP1 PUSH2 0xE46 JUMP JUMPDEST PUSH2 0x1B2 JUMP JUMPDEST STOP JUMPDEST PUSH2 0xD2 PUSH2 0x2A7 JUMP JUMPDEST STOP JUMPDEST PUSH2 0xDC PUSH2 0x2BB JUMP JUMPDEST STOP JUMPDEST PUSH2 0xE6 PUSH2 0x348 JUMP JUMPDEST PUSH1 0x40 MLOAD PUSH2 0xF3 SWAP2 SWAP1 PUSH2 0xE82 JUMP JUMPDEST PUSH1 0x40 MLOAD DUP1 SWAP2 SUB SWAP1 RETURN JUMPDEST PUSH2 0x116 PUSH1 0x4 DUP1 CALLDATASIZE SUB DUP2 ADD SWAP1 PUSH2 0x111 SWAP2 SWAP1 PUSH2 0xE46 JUMP JUMPDEST PUSH2 0x371 JUMP JUMPDEST STOP JUMPDEST PUSH2 0x132 PUSH1 0x4 DUP1 CALLDATASIZE SUB DUP2 ADD SWAP1 PUSH2 0x12D SWAP2 SWAP1 PUSH2 0xE46 JUMP JUMPDEST PUSH2 0x466 JUMP JUMPDEST STOP JUMPDEST PUSH2 0x13C PUSH2 0x55B JUMP JUMPDEST PUSH1 0x40 MLOAD PUSH2 0x149 SWAP2 SWAP1 PUSH2 0xEB6 JUMP JUMPDEST PUSH1 0x40 MLOAD DUP1 SWAP2 SUB SWAP1 RETURN JUMPDEST PUSH2 0x15A PUSH2 0x561 JUMP JUMPDEST PUSH1 0x40 MLOAD PUSH2 0x167 SWAP2 SWAP1 PUSH2 0xE82 JUMP JUMPDEST PUSH1 0x40 MLOAD DUP1 SWAP2 SUB SWAP1 RETURN JUMPDEST PUSH2 0x18A PUSH1 0x4 DUP1 CALLDATASIZE SUB DUP2 ADD SWAP1 PUSH2 0x185 SWAP2 SWAP1 PUSH2 0xEFD JUMP JUMPDEST PUSH2 0x58B JUMP JUMPDEST STOP JUMPDEST PUSH2 0x1A6 PUSH1 0x4 DUP1 CALLDATASIZE SUB DUP2 ADD SWAP1 PUSH2 0x1A1 SWAP2 SWAP1 PUSH2 0xE46 JUMP JUMPDEST PUSH2 0x604 JUMP JUMPDEST STOP JUMPDEST PUSH2 0x1B0 PUSH2 0x6B1 JUMP JUMPDEST STOP JUMPDEST PUSH2 0x1BA PUSH2 0xA11 JUMP JUMPDEST PUSH1 0x0 PUSH20 0xFFFFFFFFFFFFFFFFFFFFFFFFFFFFFFFFFFFFFFFF AND DUP2 PUSH20 0xFFFFFFFFFFFFFFFFFFFFFFFFFFFFFFFFFFFFFFFF AND SUB PUSH2 0x220 JUMPI PUSH1 0x40 MLOAD PUSH32 0x842090F100000000000000000000000000000000000000000000000000000000 DUP2 MSTORE PUSH1 0x4 ADD PUSH1 0x40 MLOAD DUP1 SWAP2 SUB SWAP1 REVERT JUMPDEST DUP1 PUSH1 0x4 PUSH1 0x0 PUSH2 0x100 EXP DUP2 SLOAD DUP2 PUSH20 0xFFFFFFFFFFFFFFFFFFFFFFFFFFFFFFFFFFFFFFFF MUL NOT AND SWAP1 DUP4 PUSH20 0xFFFFFFFFFFFFFFFFFFFFFFFFFFFFFFFFFFFFFFFF AND MUL OR SWAP1 SSTORE POP DUP1 PUSH20 0xFFFFFFFFFFFFFFFFFFFFFFFFFFFFFFFFFFFFFFFF AND PUSH32 0xCD19529020FD81D84BEEAE5290E80CEF2820B494E9AEDF821B3C45B8110D7DF PUSH1 0x40 MLOAD PUSH1 0x40 MLOAD DUP1 SWAP2 SUB SWAP1 LOG2 POP JUMP JUMPDEST PUSH2 0x2AF PUSH2 0xA11 JUMP JUMPDEST PUSH2 0x2B9 PUSH1 0x0 PUSH2 0xA8F JUMP JUMPDEST JUMP JUMPDEST PUSH1 0x0 PUSH2 0x2C5 PUSH2 0xAC0 JUMP JUMPDEST SWAP1 POP DUP1 PUSH20 0xFFFFFFFFFFFFFFFFFFFFFFFFFFFFFFFFFFFFFFFF AND PUSH2 0x2E6 PUSH2 0x561 JUMP JUMPDEST PUSH20 0xFFFFFFFFFFFFFFFFFFFFFFFFFFFFFFFFFFFFFFFF AND EQ PUSH2 0x33C JUMPI PUSH1 0x40 MLOAD PUSH32 0x8C379A000000000000000000000000000000000000000000000000000000000 DUP2 MSTORE PUSH1 0x4 ADD PUSH2 0x333 SWAP1 PUSH2 0xFAD JUMP JUMPDEST PUSH1 0x40 MLOAD DUP1 SWAP2 SUB SWAP1 REVERT JUMPDEST PUSH2 0x345 DUP2 PUSH2 0xA8F JUMP JUMPDEST POP JUMP JUMPDEST PUSH1 0x0 DUP1 PUSH1 0x0 SWAP1 SLOAD SWAP1 PUSH2 0x100 EXP SWAP1 DIV PUSH20 0xFFFFFFFFFFFFFFFFFFFFFFFFFFFFFFFFFFFFFFFF AND SWAP1 POP SWAP1 JUMP JUMPDEST PUSH2 0x379 PUSH2 0xA11 JUMP JUMPDEST PUSH1 0x0 PUSH20 0xFFFFFFFFFFFFFFFFFFFFFFFFFFFFFFFFFFFFFFFF AND DUP2 PUSH20 0xFFFFFFFFFFFFFFFFFFFFFFFFFFFFFFFFFFFFFFFF AND SUB PUSH2 0x3DF JUMPI PUSH1 0x40 MLOAD PUSH32 0x842090F100000000000000000000000000000000000000000000000000000000 DUP2 MSTORE PUSH1 0x4 ADD PUSH1 0x40 MLOAD DUP1 SWAP2 SUB SWAP1 REVERT JUMPDEST DUP1 PUSH1 0x5 PUSH1 0x0 PUSH2 0x100 EXP DUP2 SLOAD DUP2 PUSH20 0xFFFFFFFFFFFFFFFFFFFFFFFFFFFFFFFFFFFFFFFF MUL NOT AND SWAP1 DUP4 PUSH20 0xFFFFFFFFFFFFFFFFFFFFFFFFFFFFFFFFFFFFFFFF AND MUL OR SWAP1 SSTORE POP DUP1 PUSH20 0xFFFFFFFFFFFFFFFFFFFFFFFFFFFFFFFFFFFFFFFF AND PUSH32 0x203661C8635F7AFB5F15D76E6B159110290D075AD62B4EE9FF9A7AB94187D4BD PUSH1 0x40 MLOAD PUSH1 0x40 MLOAD DUP1 SWAP2 SUB SWAP1 LOG2 POP JUMP JUMPDEST PUSH2 0x46E PUSH2 0xA11 JUMP JUMPDEST PUSH1 0x0 PUSH20 0xFFFFFFFFFFFFFFFFFFFFFFFFFFFFFFFFFFFFFFFF AND DUP2 PUSH20 0xFFFFFFFFFFFFFFFFFFFFFFFFFFFFFFFFFFFFFFFF AND SUB PUSH2 0x4D4 JUMPI PUSH1 0x40 MLOAD PUSH32 0x842090F100000000000000000000000000000000000000000000000000000000 DUP2 MSTORE PUSH1 0x4 ADD PUSH1 0x40 MLOAD DUP1 SWAP2 SUB SWAP1 REVERT JUMPDEST DUP1 PUSH1 0x3 PUSH1 0x0 PUSH2 0x100 EXP DUP2 SLOAD DUP2 PUSH20 0xFFFFFFFFFFFFFFFFFFFFFFFFFFFFFFFFFFFFFFFF MUL NOT AND SWAP1 DUP4 PUSH20 0xFFFFFFFFFFFFFFFFFFFFFFFFFFFFFFFFFFFFFFFF AND MUL OR SWAP1 SSTORE POP DUP1 PUSH20 0xFFFFFFFFFFFFFFFFFFFFFFFFFFFFFFFFFFFFFFFF AND PUSH32 0x170B0500CCF8A13146ECD9838C59849129B54BEDA77DADBE500B8817CDC8D368 PUSH1 0x40 MLOAD PUSH1 0x40 MLOAD DUP1 SWAP2 SUB SWAP1 LOG2 POP JUMP JUMPDEST PUSH1 0x7 SLOAD DUP2 JUMP JUMPDEST PUSH1 0x0 PUSH1 0x1 PUSH1 0x0 SWAP1 SLOAD SWAP1 PUSH2 0x100 EXP SWAP1 DIV PUSH20 0xFFFFFFFFFFFFFFFFFFFFFFFFFFFFFFFFFFFFFFFF AND SWAP1 POP SWAP1 JUMP JUMPDEST PUSH2 0x593 PUSH2 0xA11 JUMP JUMPDEST PUSH1 0x0 DUP2 SUB PUSH2 0x5CD JUMPI PUSH1 0x40 MLOAD PUSH32 0xC830261600000000000000000000000000000000000000000000000000000000 DUP2 MSTORE PUSH1 0x4 ADD PUSH1 0x40 MLOAD DUP1 SWAP2 SUB SWAP1 REVERT JUMPDEST DUP1 PUSH1 0x6 DUP2 SWAP1 SSTORE POP DUP1 PUSH32 0x3D5A337607048974766EC58E2109261B4871329988D9615E7051BAE635C38A60 PUSH1 0x40 MLOAD PUSH1 0x40 MLOAD DUP1 SWAP2 SUB SWAP1 LOG2 POP JUMP JUMPDEST PUSH2 0x60C PUSH2 0xA11 JUMP JUMPDEST DUP1 PUSH1 0x1 PUSH1 0x0 PUSH2 0x100 EXP DUP2 SLOAD DUP2 PUSH20 0xFFFFFFFFFFFFFFFFFFFFFFFFFFFFFFFFFFFFFFFF MUL NOT AND SWAP1 DUP4 PUSH20 0xFFFFFFFFFFFFFFFFFFFFFFFFFFFFFFFFFFFFFFFF AND MUL OR SWAP1 SSTORE POP DUP1 PUSH20 0xFFFFFFFFFFFFFFFFFFFFFFFFFFFFFFFFFFFFFFFF AND PUSH2 0x66C PUSH2 0x348 JUMP JUMPDEST PUSH20 0xFFFFFFFFFFFFFFFFFFFFFFFFFFFFFFFFFFFFFFFF AND PUSH32 0x38D16B8CAC22D99FC7C124B9CD0DE2D3FA1FAEF420BFE791D8C362D765E22700 PUSH1 0x40 MLOAD PUSH1 0x40 MLOAD DUP1 SWAP2 SUB SWAP1 LOG3 POP JUMP JUMPDEST PUSH2 0x6B9 PUSH2 0xA11 JUMP JUMPDEST PUSH1 0x0 PUSH1 0x6 SLOAD PUSH32 0x0 PUSH20 0xFFFFFFFFFFFFFFFFFFFFFFFFFFFFFFFFFFFFFFFF AND PUSH4 0x70A08231 ADDRESS PUSH1 0x40 MLOAD DUP3 PUSH4 0xFFFFFFFF AND PUSH1 0xE0 SHL DUP2 MSTORE PUSH1 0x4 ADD PUSH2 0x717 SWAP2 SWAP1 PUSH2 0xE82 JUMP JUMPDEST PUSH1 0x20 PUSH1 0x40 MLOAD DUP1 DUP4 SUB DUP2 DUP7 GAS STATICCALL ISZERO DUP1 ISZERO PUSH2 0x734 JUMPI RETURNDATASIZE PUSH1 0x0 DUP1 RETURNDATACOPY RETURNDATASIZE PUSH1 0x0 REVERT JUMPDEST POP POP POP POP PUSH1 0x40 MLOAD RETURNDATASIZE PUSH1 0x1F NOT PUSH1 0x1F DUP3 ADD AND DUP3 ADD DUP1 PUSH1 0x40 MSTORE POP DUP2 ADD SWAP1 PUSH2 0x758 SWAP2 SWAP1 PUSH2 0xFE2 JUMP JUMPDEST PUSH2 0x762 SWAP2 SWAP1 PUSH2 0x106D JUMP JUMPDEST SWAP1 POP PUSH2 0x7BD PUSH32 0x0 PUSH1 0x5 PUSH1 0x0 SWAP1 SLOAD SWAP1 PUSH2 0x100 EXP SWAP1 DIV PUSH20 0xFFFFFFFFFFFFFFFFFFFFFFFFFFFFFFFFFFFFFFFF AND PUSH1 0x2 DUP5 PUSH2 0x7B8 SWAP2 SWAP1 PUSH2 0x106D JUMP JUMPDEST PUSH2 0xAC8 JUMP JUMPDEST PUSH2 0x816 PUSH32 0x0 PUSH1 0x4 PUSH1 0x0 SWAP1 SLOAD SWAP1 PUSH2 0x100 EXP SWAP1 DIV PUSH20 0xFFFFFFFFFFFFFFFFFFFFFFFFFFFFFFFFFFFFFFFF AND PUSH1 0x2 DUP5 PUSH2 0x811 SWAP2 SWAP1 PUSH2 0x106D JUMP JUMPDEST PUSH2 0xAC8 JUMP JUMPDEST PUSH1 0x0 PUSH32 0x0 PUSH20 0xFFFFFFFFFFFFFFFFFFFFFFFFFFFFFFFFFFFFFFFF AND PUSH4 0x70A08231 ADDRESS PUSH1 0x40 MLOAD DUP3 PUSH4 0xFFFFFFFF AND PUSH1 0xE0 SHL DUP2 MSTORE PUSH1 0x4 ADD PUSH2 0x871 SWAP2 SWAP1 PUSH2 0xE82 JUMP JUMPDEST PUSH1 0x20 PUSH1 0x40 MLOAD DUP1 DUP4 SUB DUP2 DUP7 GAS STATICCALL ISZERO DUP1 ISZERO PUSH2 0x88E JUMPI RETURNDATASIZE PUSH1 0x0 DUP1 RETURNDATACOPY RETURNDATASIZE PUSH1 0x0 REVERT JUMPDEST POP POP POP POP PUSH1 0x40 MLOAD RETURNDATASIZE PUSH1 0x1F NOT PUSH1 0x1F DUP3 ADD AND DUP3 ADD DUP1 PUSH1 0x40 MSTORE POP DUP2 ADD SWAP1 PUSH2 0x8B2 SWAP2 SWAP1 PUSH2 0xFE2 JUMP JUMPDEST SWAP1 POP PUSH2 0x901 PUSH32 0x0 PUSH1 0x3 PUSH1 0x0 SWAP1 SLOAD SWAP1 PUSH2 0x100 EXP SWAP1 DIV PUSH20 0xFFFFFFFFFFFFFFFFFFFFFFFFFFFFFFFFFFFFFFFF AND DUP4 PUSH2 0xAC8 JUMP JUMPDEST DUP1 PUSH1 0x7 PUSH1 0x0 DUP3 DUP3 SLOAD PUSH2 0x913 SWAP2 SWAP1 PUSH2 0x109E JUMP JUMPDEST SWAP3 POP POP DUP2 SWAP1 SSTORE POP DUP1 DUP3 TIMESTAMP PUSH32 0x50EFD2F2F250964DA5961D710F9E330EA396FAEC8EF1E3DAD48FF354A629D382 PUSH1 0x40 MLOAD PUSH1 0x40 MLOAD DUP1 SWAP2 SUB SWAP1 LOG4 POP POP JUMP JUMPDEST PUSH1 0x0 DUP1 PUSH1 0x0 SWAP1 SLOAD SWAP1 PUSH2 0x100 EXP SWAP1 DIV PUSH20 0xFFFFFFFFFFFFFFFFFFFFFFFFFFFFFFFFFFFFFFFF AND SWAP1 POP DUP2 PUSH1 0x0 DUP1 PUSH2 0x100 EXP DUP2 SLOAD DUP2 PUSH20 0xFFFFFFFFFFFFFFFFFFFFFFFFFFFFFFFFFFFFFFFF MUL NOT AND SWAP1 DUP4 PUSH20 0xFFFFFFFFFFFFFFFFFFFFFFFFFFFFFFFFFFFFFFFF AND MUL OR SWAP1 SSTORE POP DUP2 PUSH20 0xFFFFFFFFFFFFFFFFFFFFFFFFFFFFFFFFFFFFFFFF AND DUP2 PUSH20 0xFFFFFFFFFFFFFFFFFFFFFFFFFFFFFFFFFFFFFFFF AND PUSH32 0x8BE0079C531659141344CD1FD0A4F28419497F9722A3DAAFE3B4186F6B6457E0 PUSH1 0x40 MLOAD PUSH1 0x40 MLOAD DUP1 SWAP2 SUB SWAP1 LOG3 POP POP JUMP JUMPDEST PUSH2 0xA19 PUSH2 0xAC0 JUMP JUMPDEST PUSH20 0xFFFFFFFFFFFFFFFFFFFFFFFFFFFFFFFFFFFFFFFF AND PUSH2 0xA37 PUSH2 0x348 JUMP JUMPDEST PUSH20 0xFFFFFFFFFFFFFFFFFFFFFFFFFFFFFFFFFFFFFFFF AND EQ PUSH2 0xA8D JUMPI PUSH1 0x40 MLOAD PUSH32 0x8C379A000000000000000000000000000000000000000000000000000000000 DUP2 MSTORE PUSH1 0x4 ADD PUSH2 0xA84 SWAP1 PUSH2 0x111E JUMP JUMPDEST PUSH1 0x40 MLOAD DUP1 SWAP2 SUB SWAP1 REVERT JUMPDEST JUMP JUMPDEST PUSH1 0x1 PUSH1 0x0 PUSH2 0x100 EXP DUP2 SLOAD SWAP1 PUSH20 0xFFFFFFFFFFFFFFFFFFFFFFFFFFFFFFFFFFFFFFFF MUL NOT AND SWAP1 SSTORE PUSH2 0xABD DUP2 PUSH2 0x94D JUMP JUMPDEST POP JUMP JUMPDEST PUSH1 0x0 CALLER SWAP1 POP SWAP1 JUMP JUMPDEST PUSH2 0xB49 DUP4 PUSH4 0xA9059CBB PUSH1 0xE0 SHL DUP5 DUP5 PUSH1 0x40 MLOAD PUSH1 0x24 ADD PUSH2 0xAE7 SWAP3 SWAP2 SWAP1 PUSH2 0x113E JUMP JUMPDEST PUSH1 0x40 MLOAD PUSH1 0x20 DUP2 DUP4 SUB SUB DUP2 MSTORE SWAP1 PUSH1 0x40 MSTORE SWAP1 PUSH28 0xFFFFFFFFFFFFFFFFFFFFFFFFFFFFFFFFFFFFFFFFFFFFFFFFFFFFFFFF NOT AND PUSH1 0x20 DUP3 ADD DUP1 MLOAD PUSH28 0xFFFFFFFFFFFFFFFFFFFFFFFFFFFFFFFFFFFFFFFFFFFFFFFFFFFFFFFF DUP4 DUP2 DUP4 AND OR DUP4 MSTORE POP POP POP POP PUSH2 0xB4E JUMP JUMPDEST POP POP POP JUMP JUMPDEST PUSH1 0x0 PUSH2 0xBB0 DUP3 PUSH1 0x40 MLOAD DUP1 PUSH1 0x40 ADD PUSH1 0x40 MSTORE DUP1 PUSH1 0x20 DUP2 MSTORE PUSH1 0x20 ADD PUSH32 0x5361666545524332303A206C6F772D6C6576656C2063616C6C206661696C6564 DUP2 MSTORE POP DUP6 PUSH20 0xFFFFFFFFFFFFFFFFFFFFFFFFFFFFFFFFFFFFFFFF AND PUSH2 0xC16 SWAP1 SWAP3 SWAP2 SWAP1 PUSH4 0xFFFFFFFF AND JUMP JUMPDEST SWAP1 POP PUSH1 0x0 DUP2 MLOAD EQ DUP1 PUSH2 0xBD2 JUMPI POP DUP1 DUP1 PUSH1 0x20 ADD SWAP1 MLOAD DUP2 ADD SWAP1 PUSH2 0xBD1 SWAP2 SWAP1 PUSH2 0x119F JUMP JUMPDEST JUMPDEST PUSH2 0xC11 JUMPI PUSH1 0x40 MLOAD PUSH32 0x8C379A000000000000000000000000000000000000000000000000000000000 DUP2 MSTORE PUSH1 0x4 ADD PUSH2 0xC08 SWAP1 PUSH2 0x123E JUMP JUMPDEST PUSH1 0x40 MLOAD DUP1 SWAP2 SUB SWAP1 REVERT JUMPDEST POP POP POP JUMP JUMPDEST PUSH1 0x60 PUSH2 0xC25 DUP5 DUP5 PUSH1 0x0 DUP6 PUSH2 0xC2E JUMP JUMPDEST SWAP1 POP SWAP4 SWAP3 POP POP POP JUMP JUMPDEST PUSH1 0x60 DUP3 SELFBALANCE LT ISZERO PUSH2 0xC73 JUMPI PUSH1 0x40 MLOAD PUSH32 0x8C379A000000000000000000000000000000000000000000000000000000000 DUP2 MSTORE PUSH1 0x4 ADD PUSH2 0xC6A SWAP1 PUSH2 0x12D0 JUMP JUMPDEST PUSH1 0x40 MLOAD DUP1 SWAP2 SUB SWAP1 REVERT JUMPDEST PUSH1 0x0 DUP1 DUP7 PUSH20 0xFFFFFFFFFFFFFFFFFFFFFFFFFFFFFFFFFFFFFFFF AND DUP6 DUP8 PUSH1 0x40 MLOAD PUSH2 0xC9C SWAP2 SWAP1 PUSH2 0x1361 JUMP JUMPDEST PUSH1 0x0 PUSH1 0x40 MLOAD DUP1 DUP4 SUB DUP2 DUP6 DUP8 GAS CALL SWAP3 POP POP POP RETURNDATASIZE DUP1 PUSH1 0x0 DUP2 EQ PUSH2 0xCD9 JUMPI PUSH1 0x40 MLOAD SWAP2 POP PUSH1 0x1F NOT PUSH1 0x3F RETURNDATASIZE ADD AND DUP3 ADD PUSH1 0x40 MSTORE RETURNDATASIZE DUP3 MSTORE RETURNDATASIZE PUSH1 0x0 PUSH1 0x20 DUP5 ADD RETURNDATACOPY PUSH2 0xCDE JUMP JUMPDEST PUSH1 0x60 SWAP2 POP JUMPDEST POP SWAP2 POP SWAP2 POP PUSH2 0xCEF DUP8 DUP4 DUP4 DUP8 PUSH2 0xCFB JUMP JUMPDEST SWAP3 POP POP POP SWAP5 SWAP4 POP POP POP POP JUMP JUMPDEST PUSH1 0x60 DUP4 ISZERO PUSH2 0xD5D JUMPI PUSH1 0x0 DUP4 MLOAD SUB PUSH2 0xD55 JUMPI PUSH2 0xD15 DUP6 PUSH2 0xD70 JUMP JUMPDEST PUSH2 0xD54 JUMPI PUSH1 0x40 MLOAD PUSH32 0x8C379A000000000000000000000000000000000000000000000000000000000 DUP2 MSTORE PUSH1 0x4 ADD PUSH2 0xD4B SWAP1 PUSH2 0x13C4 JUMP JUMPDEST PUSH1 0x40 MLOAD DUP1 SWAP2 SUB SWAP1 REVERT JUMPDEST JUMPDEST DUP3 SWAP1 POP PUSH2 0xD68 JUMP JUMPDEST PUSH2 0xD67 DUP4 DUP4 PUSH2 0xD93 JUMP JUMPDEST JUMPDEST SWAP5 SWAP4 POP POP POP POP JUMP JUMPDEST PUSH1 0x0 DUP1 DUP3 PUSH20 0xFFFFFFFFFFFFFFFFFFFFFFFFFFFFFFFFFFFFFFFF AND EXTCODESIZE GT SWAP1 POP SWAP2 SWAP1 POP JUMP JUMPDEST PUSH1 0x0 DUP3 MLOAD GT ISZERO PUSH2 0xDA6 JUMPI DUP2 MLOAD DUP1 DUP4 PUSH1 0x20 ADD REVERT JUMPDEST DUP1 PUSH1 0x40 MLOAD PUSH32 0x8C379A000000000000000000000000000000000000000000000000000000000 DUP2 MSTORE PUSH1 0x4 ADD PUSH2 0xDDA SWAP2 SWAP1 PUSH2 0x1439 JUMP JUMPDEST PUSH1 0x40 MLOAD DUP1 SWAP2 SUB SWAP1 REVERT JUMPDEST PUSH1 0x0 DUP1 REVERT JUMPDEST PUSH1 0x0 PUSH20 0xFFFFFFFFFFFFFFFFFFFFFFFFFFFFFFFFFFFFFFFF DUP3 AND SWAP1 POP SWAP2 SWAP1 POP JUMP JUMPDEST PUSH1 0x0 PUSH2 0xE13 DUP3 PUSH2 0xDE8 JUMP JUMPDEST SWAP1 POP SWAP2 SWAP1 POP JUMP JUMPDEST PUSH2 0xE23 DUP2 PUSH2 0xE08 JUMP JUMPDEST DUP2 EQ PUSH2 0xE2E JUMPI PUSH1 0x0 DUP1 REVERT JUMPDEST POP JUMP JUMPDEST PUSH1 0x0 DUP2 CALLDATALOAD SWAP1 POP PUSH2 0xE40 DUP2 PUSH2 0xE1A JUMP JUMPDEST SWAP3 SWAP2 POP POP JUMP JUMPDEST PUSH1 0x0 PUSH1 0x20 DUP3 DUP5 SUB SLT ISZERO PUSH2 0xE5C JUMPI PUSH2 0xE5B PUSH2 0xDE3 JUMP JUMPDEST JUMPDEST PUSH1 0x0 PUSH2 0xE6A DUP5 DUP3 DUP6 ADD PUSH2 0xE31 JUMP JUMPDEST SWAP2 POP POP SWAP3 SWAP2 POP POP JUMP JUMPDEST PUSH2 0xE7C DUP2 PUSH2 0xE08 JUMP JUMPDEST DUP3 MSTORE POP POP JUMP JUMPDEST PUSH1 0x0 PUSH1 0x20 DUP3 ADD SWAP1 POP PUSH2 0xE97 PUSH1 0x0 DUP4 ADD DUP5 PUSH2 0xE73 JUMP JUMPDEST SWAP3 SWAP2 POP POP JUMP JUMPDEST PUSH1 0x0 DUP2 SWAP1 POP SWAP2 SWAP1 POP JUMP JUMPDEST PUSH2 0xEB0 DUP2 PUSH2 0xE9D JUMP JUMPDEST DUP3 MSTORE POP POP JUMP JUMPDEST PUSH1 0x0 PUSH1 0x20 DUP3 ADD SWAP1 POP PUSH2 0xECB PUSH1 0x0 DUP4 ADD DUP5 PUSH2 0xEA7 JUMP JUMPDEST SWAP3 SWAP2 POP POP JUMP JUMPDEST PUSH2 0xEDA DUP2 PUSH2 0xE9D JUMP JUMPDEST DUP2 EQ PUSH2 0xEE5 JUMPI PUSH1 0x0 DUP1 REVERT JUMPDEST POP JUMP JUMPDEST PUSH1 0x0 DUP2 CALLDATALOAD SWAP1 POP PUSH2 0xEF7 DUP2 PUSH2 0xED1 JUMP JUMPDEST SWAP3 SWAP2 POP POP JUMP JUMPDEST PUSH1 0x0 PUSH1 0x20 DUP3 DUP5 SUB SLT ISZERO PUSH2 0xF13 JUMPI PUSH2 0xF12 PUSH2 0xDE3 JUMP JUMPDEST JUMPDEST PUSH1 0x0 PUSH2 0xF21 DUP5 DUP3 DUP6 ADD PUSH2 0xEE8 JUMP JUMPDEST SWAP2 POP POP SWAP3 SWAP2 POP POP JUMP JUMPDEST PUSH1 0x0 DUP3 DUP3 MSTORE PUSH1 0x20 DUP3 ADD SWAP1 POP SWAP3 SWAP2 POP POP JUMP JUMPDEST PUSH32 0x4F776E61626C6532537465703A2063616C6C6572206973206E6F742074686520 PUSH1 0x0 DUP3 ADD MSTORE PUSH32 0x6E6577206F776E65720000000000000000000000000000000000000000000000 PUSH1 0x20 DUP3 ADD MSTORE POP JUMP JUMPDEST PUSH1 0x0 PUSH2 0xF97 PUSH1 0x29 DUP4 PUSH2 0xF2A JUMP JUMPDEST SWAP2 POP PUSH2 0xFA2 DUP3 PUSH2 0xF3B JUMP JUMPDEST PUSH1 0x40 DUP3 ADD SWAP1 POP SWAP2 SWAP1 POP JUMP JUMPDEST PUSH1 0x0 PUSH1 0x20 DUP3 ADD SWAP1 POP DUP2 DUP2 SUB PUSH1 0x0 DUP4 ADD MSTORE PUSH2 0xFC6 DUP2 PUSH2 0xF8A JUMP JUMPDEST SWAP1 POP SWAP2 SWAP1 POP JUMP JUMPDEST PUSH1 0x0 DUP2 MLOAD SWAP1 POP PUSH2 0xFDC DUP2 PUSH2 0xED1 JUMP JUMPDEST SWAP3 SWAP2 POP POP JUMP JUMPDEST PUSH1 0x0 PUSH1 0x20 DUP3 DUP5 SUB SLT ISZERO PUSH2 0xFF8 JUMPI PUSH2 0xFF7 PUSH2 0xDE3 JUMP JUMPDEST JUMPDEST PUSH1 0x0 PUSH2 0x1006 DUP5 DUP3 DUP6 ADD PUSH2 0xFCD JUMP JUMPDEST SWAP2 POP POP SWAP3 SWAP2 POP POP JUMP JUMPDEST PUSH32 0x4E487B7100000000000000000000000000000000000000000000000000000000 PUSH1 0x0 MSTORE PUSH1 0x12 PUSH1 0x4 MSTORE PUSH1 0x24 PUSH1 0x0 REVERT JUMPDEST PUSH32 0x4E487B7100000000000000000000000000000000000000000000000000000000 PUSH1 0x0 MSTORE PUSH1 0x11 PUSH1 0x4 MSTORE PUSH1 0x24 PUSH1 0x0 REVERT JUMPDEST PUSH1 0x0 PUSH2 0x1078 DUP3 PUSH2 0xE9D JUMP JUMPDEST SWAP2 POP PUSH2 0x1083 DUP4 PUSH2 0xE9D JUMP JUMPDEST SWAP3 POP DUP3 PUSH2 0x1093 JUMPI PUSH2 0x1092 PUSH2 0x100F JUMP JUMPDEST JUMPDEST DUP3 DUP3 DIV SWAP1 POP SWAP3 SWAP2 POP POP JUMP JUMPDEST PUSH1 0x0 PUSH2 0x10A9 DUP3 PUSH2 0xE9D JUMP JUMPDEST SWAP2 POP PUSH2 0x10B4 DUP4 PUSH2 0xE9D JUMP JUMPDEST SWAP3 POP DUP3 DUP3 ADD SWAP1 POP DUP1 DUP3 GT ISZERO PUSH2 0x10CC JUMPI PUSH2 0x10CB PUSH2 0x103E JUMP JUMPDEST JUMPDEST SWAP3 SWAP2 POP POP JUMP JUMPDEST PUSH32 0x4F776E61626C653A2063616C6C6572206973206E6F7420746865206F776E6572 PUSH1 0x0 DUP3 ADD MSTORE POP JUMP JUMPDEST PUSH1 0x0 PUSH2 0x1108 PUSH1 0x20 DUP4 PUSH2 0xF2A JUMP JUMPDEST SWAP2 POP PUSH2 0x1113 DUP3 PUSH2 0x10D2 JUMP JUMPDEST PUSH1 0x20 DUP3 ADD SWAP1 POP SWAP2 SWAP1 POP JUMP JUMPDEST PUSH1 0x0 PUSH1 0x20 DUP3 ADD SWAP1 POP DUP2 DUP2 SUB PUSH1 0x0 DUP4 ADD MSTORE PUSH2 0x1137 DUP2 PUSH2 0x10FB JUMP JUMPDEST SWAP1 POP SWAP2 SWAP1 POP JUMP JUMPDEST PUSH1 0x0 PUSH1 0x40 DUP3 ADD SWAP1 POP PUSH2 0x1153 PUSH1 0x0 DUP4 ADD DUP6 PUSH2 0xE73 JUMP JUMPDEST PUSH2 0x1160 PUSH1 0x20 DUP4 ADD DUP5 PUSH2 0xEA7 JUMP JUMPDEST SWAP4 SWAP3 POP POP POP JUMP JUMPDEST PUSH1 0x0 DUP2 ISZERO ISZERO SWAP1 POP SWAP2 SWAP1 POP JUMP JUMPDEST PUSH2 0x117C DUP2 PUSH2 0x1167 JUMP JUMPDEST DUP2 EQ PUSH2 0x1187 JUMPI PUSH1 0x0 DUP1 REVERT JUMPDEST POP JUMP JUMPDEST PUSH1 0x0 DUP2 MLOAD SWAP1 POP PUSH2 0x1199 DUP2 PUSH2 0x1173 JUMP JUMPDEST SWAP3 SWAP2 POP POP JUMP JUMPDEST PUSH1 0x0 PUSH1 0x20 DUP3 DUP5 SUB SLT ISZERO PUSH2 0x11B5 JUMPI PUSH2 0x11B4 PUSH2 0xDE3 JUMP JUMPDEST JUMPDEST PUSH1 0x0 PUSH2 0x11C3 DUP5 DUP3 DUP6 ADD PUSH2 0x118A JUMP JUMPDEST SWAP2 POP POP SWAP3 SWAP2 POP POP JUMP JUMPDEST PUSH32 0x5361666545524332303A204552433230206F7065726174696F6E20646964206E PUSH1 0x0 DUP3 ADD MSTORE PUSH32 0x6F74207375636365656400000000000000000000000000000000000000000000 PUSH1 0x20 DUP3 ADD MSTORE POP JUMP JUMPDEST PUSH1 0x0 PUSH2 0x1228 PUSH1 0x2A DUP4 PUSH2 0xF2A JUMP JUMPDEST SWAP2 POP PUSH2 0x1233 DUP3 PUSH2 0x11CC JUMP JUMPDEST PUSH1 0x40 DUP3 ADD SWAP1 POP SWAP2 SWAP1 POP JUMP JUMPDEST PUSH1 0x0 PUSH1 0x20 DUP3 ADD SWAP1 POP DUP2 DUP2 SUB PUSH1 0x0 DUP4 ADD MSTORE PUSH2 0x1257 DUP2 PUSH2 0x121B JUMP JUMPDEST SWAP1 POP SWAP2 SWAP1 POP JUMP JUMPDEST PUSH32 0x416464726573733A20696E73756666696369656E742062616C616E636520666F PUSH1 0x0 DUP3 ADD MSTORE PUSH32 0x722063616C6C0000000000000000000000000000000000000000000000000000 PUSH1 0x20 DUP3 ADD MSTORE POP JUMP JUMPDEST PUSH1 0x0 PUSH2 0x12BA PUSH1 0x26 DUP4 PUSH2 0xF2A JUMP JUMPDEST SWAP2 POP PUSH2 0x12C5 DUP3 PUSH2 0x125E JUMP JUMPDEST PUSH1 0x40 DUP3 ADD SWAP1 POP SWAP2 SWAP1 POP JUMP JUMPDEST PUSH1 0x0 PUSH1 0x20 DUP3 ADD SWAP1 POP DUP2 DUP2 SUB PUSH1 0x0 DUP4 ADD MSTORE PUSH2 0x12E9 DUP2 PUSH2 0x12AD JUMP JUMPDEST SWAP1 POP SWAP2 SWAP1 POP JUMP JUMPDEST PUSH1 0x0 DUP2 MLOAD SWAP1 POP SWAP2 SWAP1 POP JUMP JUMPDEST PUSH1 0x0 DUP2 SWAP1 POP SWAP3 SWAP2 POP POP JUMP JUMPDEST PUSH1 0x0 JUMPDEST DUP4 DUP2 LT ISZERO PUSH2 0x1324 JUMPI DUP1 DUP3 ADD MLOAD DUP2 DUP5 ADD MSTORE PUSH1 0x20 DUP2 ADD SWAP1 POP PUSH2 0x1309 JUMP JUMPDEST PUSH1 0x0 DUP5 DUP5 ADD MSTORE POP POP POP POP JUMP JUMPDEST PUSH1 0x0 PUSH2 0x133B DUP3 PUSH2 0x12F0 JUMP JUMPDEST PUSH2 0x1345 DUP2 DUP6 PUSH2 0x12FB JUMP JUMPDEST SWAP4 POP PUSH2 0x1355 DUP2 DUP6 PUSH1 0x20 DUP7 ADD PUSH2 0x1306 JUMP JUMPDEST DUP1 DUP5 ADD SWAP2 POP POP SWAP3 SWAP2 POP POP JUMP JUMPDEST PUSH1 0x0 PUSH2 0x136D DUP3 DUP5 PUSH2 0x1330 JUMP JUMPDEST SWAP2 POP DUP2 SWAP1 POP SWAP3 SWAP2 POP POP JUMP JUMPDEST PUSH32 0x416464726573733A2063616C6C20746F206E6F6E2D636F6E7472616374000000 PUSH1 0x0 DUP3 ADD MSTORE POP JUMP JUMPDEST PUSH1 0x0 PUSH2 0x13AE PUSH1 0x1D DUP4 PUSH2 0xF2A JUMP JUMPDEST SWAP2 POP PUSH2 0x13B9 DUP3 PUSH2 0x1378 JUMP JUMPDEST PUSH1 0x20 DUP3 ADD SWAP1 POP SWAP2 SWAP1 POP JUMP JUMPDEST PUSH1 0x0 PUSH1 0x20 DUP3 ADD SWAP1 POP DUP2 DUP2 SUB PUSH1 0x0 DUP4 ADD MSTORE PUSH2 0x13DD DUP2 PUSH2 0x13A1 JUMP JUMPDEST SWAP1 POP SWAP2 SWAP1 POP JUMP JUMPDEST PUSH1 0x0 DUP2 MLOAD SWAP1 POP SWAP2 SWAP1 POP JUMP JUMPDEST PUSH1 0x0 PUSH1 0x1F NOT PUSH1 0x1F DUP4 ADD AND SWAP1 POP SWAP2 SWAP1 POP JUMP JUMPDEST PUSH1 0x0 PUSH2 0x140B DUP3 PUSH2 0x13E4 JUMP JUMPDEST PUSH2 0x1415 DUP2 DUP6 PUSH2 0xF2A JUMP JUMPDEST SWAP4 POP PUSH2 0x1425 DUP2 DUP6 PUSH1 0x20 DUP7 ADD PUSH2 0x1306 JUMP JUMPDEST PUSH2 0x142E DUP2 PUSH2 0x13EF JUMP JUMPDEST DUP5 ADD SWAP2 POP POP SWAP3 SWAP2 POP POP JUMP JUMPDEST PUSH1 0x0 PUSH1 0x20 DUP3 ADD SWAP1 POP DUP2 DUP2 SUB PUSH1 0x0 DUP4 ADD MSTORE PUSH2 0x1453 DUP2 DUP5 PUSH2 0x1400 JUMP JUMPDEST SWAP1 POP SWAP3 SWAP2 POP POP JUMP INVALID LOG2 PUSH5 0x6970667358 0x22 SLT KECCAK256 0xD8 0x1F 0xC6 0xDA PUSH12 0xB90AA9D73CA301D0D8C9ECED SWAP4 PUSH14 0xB64E6F5A8B911DF3B783CAB1164 PUSH20 0x6F6C634300081200330000000000000000000000 "
				},
				"gasEstimates": {
					"creation": {
						"codeDepositCost": "1053000",
						"executionCost": "infinite",
						"totalCost": "infinite"
					},
					"external": {
						"acceptOwnership()": "54703",
						"owner()": "2589",
						"pendingOwner()": "2566",
						"renounceOwnership()": "54692",
						"setBribingWallet(address)": "28182",
						"setEqualDaoWallet(address)": "28271",
						"setPantheonWallet(address)": "28183",
						"setProfitDivider(uint256)": "26028",
						"splitFees()": "infinite",
						"totalBribes()": "2451",
						"transferOwnership(address)": "infinite"
					}
				},
				"methodIdentifiers": {
					"acceptOwnership()": "79ba5097",
					"owner()": "8da5cb5b",
					"pendingOwner()": "e30c3978",
					"renounceOwnership()": "715018a6",
					"setBribingWallet(address)": "9752b3b2",
					"setEqualDaoWallet(address)": "8f88f261",
					"setPantheonWallet(address)": "1f068108",
					"setProfitDivider(uint256)": "e7fcd45d",
					"splitFees()": "f6151089",
					"totalBribes()": "979e9056",
					"transferOwnership(address)": "f2fde38b"
				}
			},
			"storageLayout": {
				"storage": [
					{
						"astId": 7,
						"contract": "FeeSplitter.sol:FeeSplitter",
						"label": "_owner",
						"offset": 0,
						"slot": "0",
						"type": "t_address"
					},
					{
						"astId": 120,
						"contract": "FeeSplitter.sol:FeeSplitter",
						"label": "_pendingOwner",
						"offset": 0,
						"slot": "1",
						"type": "t_address"
					},
					{
						"astId": 206,
						"contract": "FeeSplitter.sol:FeeSplitter",
						"label": "_status",
						"offset": 0,
						"slot": "2",
						"type": "t_uint256"
					},
					{
						"astId": 1132,
						"contract": "FeeSplitter.sol:FeeSplitter",
						"label": "BRIBES",
						"offset": 0,
						"slot": "3",
						"type": "t_address"
					},
					{
						"astId": 1134,
						"contract": "FeeSplitter.sol:FeeSplitter",
						"label": "PANTHEON",
						"offset": 0,
						"slot": "4",
						"type": "t_address"
					},
					{
						"astId": 1136,
						"contract": "FeeSplitter.sol:FeeSplitter",
						"label": "EQUALDAO",
						"offset": 0,
						"slot": "5",
						"type": "t_address"
					},
					{
						"astId": 1138,
						"contract": "FeeSplitter.sol:FeeSplitter",
						"label": "ProfitDivider",
						"offset": 0,
						"slot": "6",
						"type": "t_uint256"
					},
					{
						"astId": 1141,
						"contract": "FeeSplitter.sol:FeeSplitter",
						"label": "totalBribes",
						"offset": 0,
						"slot": "7",
						"type": "t_uint256"
					}
				],
				"types": {
					"t_address": {
						"encoding": "inplace",
						"label": "address",
						"numberOfBytes": "20"
					},
					"t_uint256": {
						"encoding": "inplace",
						"label": "uint256",
						"numberOfBytes": "32"
					}
				}
			},
			"userdoc": {
				"kind": "user",
				"methods": {
					"setBribingWallet(address)": {
						"notice": "this function lets the owner set the Bribing Wallet"
					},
					"setEqualDaoWallet(address)": {
						"notice": "this function lets the owner set the =DAO Wallet"
					},
					"setPantheonWallet(address)": {
						"notice": "this function lets the owner set the Pantheon Wallet"
					},
					"setProfitDivider(uint256)": {
						"notice": "this function lets the owner set the ProfitDivider variable that is used to calculate the amount sent to the Pantheon & =DAO wallets"
					},
					"splitFees()": {
						"notice": "this function splits the revenue generated by pTOKEN.sol into the Bribing Wallet and the Pantheon & =DAO wallets"
					}
				},
				"version": 1
			}
		}
	}
}